:100000000C9468000C940C170C94E5160C9490005A
:100010000C9490000C9490000C9490000C94900020
:100020000C9490000C9490000C9490000C94900010
:100030000C9490000C9490000C9490000C94900000
:100040000C949B160C9490000C9469160C94431617
:100050000C9490000C9490000C9490000C949000E0
:100060000C9433170C9490006382536300010800D2
:100070000604000100000000240027002A00000000
:100080000000250028002B000404040404040404D8
:100090000202020202020303030303030102040833
:1000A00010204080010204081020010204081020E2
:1000B0000000000800020100000304070000000027
:1000C000000000004500008200004000200052189F
:1000D00011241FBECFEFD8E0DEBFCDBF12E0A0E0FD
:1000E000B1E0E8EDFCE502C005900D92A63BB1073A
:1000F000D9F728E0A6EBB2E001C01D92AE31B207FD
:10010000E1F710E0C8E6D0E004C02197FE010E94AC
:10011000232DC736D107C9F70E949F180C946A2E69
:100120000C940000CF93DF9320914C072223C1F061
:10013000FC0120812223A1F0CCE4D7E0A8E4B7E0C1
:100140009C012C5F3F4F899141919D918427892388
:1001500039F4E217F307B9F781E0DF91CF91089501
:1001600080E0FBCF8230C8F4E82FF0E0EE0FFF1FF5
:10017000E45CFE4F71836083813041F080916900BF
:100180008C7F826080936900E89A0895809169006D
:10019000837F886080936900E99A089590E02091B8
:1001A000FD07293020F0880F991F611101962091D9
:1001B000FB073091FC07232B49F02091FE0730E02C
:1001C000322F2227330F3064822B932B089508950A
:1001D0000895AF92BF92CF92DF92EF92FF920F936A
:1001E0001F93CF93DF936C017B018B01040F151FCD
:1001F000EB015E01AE18BF08C017D10759F0699135
:10020000D601ED91FC910190F081E02DC601099598
:10021000892B79F7C501DF91CF911F910F91FF9045
:10022000EF90DF90CF90BF90AF900895FC01538D79
:10023000448D252F30E0842F90E0821B930B5417C0
:1002400010F0CF96089501970895FC01918D828D4D
:10025000981761F0A28DAE0FBF2FB11D5D968C91E6
:10026000928D9F5F9F73928F90E008958FEF9FEF25
:100270000895FC01918D828D981731F0828DE80FE1
:10028000F11D858D90E008958FEF9FEF0895FC019B
:10029000918D228D892F90E0805C9F4F821B910968
:1002A0008F739927089580E597E00E94470121E028
:1002B000892B09F420E0822F089580E090E0892BBB
:1002C00029F00E94530181110C9400000895FC0153
:1002D000A48DA80FB92FB11DA35ABF4F2C91848DA7
:1002E00090E001968F739927848FA689B7892C9304
:1002F000A089B1898C91837080648C93938D848D57
:10030000981306C00288F389E02D80818F7D808359
:100310000895EF92FF920F931F93CF93DF93EC0119
:1003200081E0888F9B8D8C8D98131AC0E889F9899C
:10033000808185FF15C09FB7F894EE89FF8960839F
:10034000E889F98980818370806480839FBF81E020
:1003500090E0DF91CF911F910F91FF90EF90089562
:10036000F62E0B8D10E00F5F1F4F0F731127E02E3D
:100370008C8D8E110CC00FB607FCFACFE889F98975
:10038000808185FFF5CFCE010E946701F1CFEB8D13
:10039000EC0FFD2FF11DE35AFF4FF0829FB7F89449
:1003A0000B8FEA89FB8980818062CFCFCF93DF9367
:1003B000EC01888D8823B9F0AA89BB89E889F9897D
:1003C0008C9185FD03C0808186FD0DC00FB607FCB2
:1003D000F7CF8C9185FFF2CF808185FFEDCFCE01E5
:1003E0000E946701E9CFDF91CF91089590E0FC0171
:1003F000E055FF4F2491FC01E456FF4F3491FC017E
:10040000E857FF4FE491EE23C9F0222339F023305F
:1004100001F1A8F4213019F1223029F1F0E0EE0FBA
:10042000FF1FE258FF4FA591B4918FB7F894EC915C
:10043000611126C030953E233C938FBF089527302D
:10044000A9F02830C9F0243049F7809180008F7DD1
:1004500003C0809180008F7780938000DFCF84B5C8
:100460008F7784BDDBCF84B58F7DFBCF8091B000CB
:100470008F778093B000D2CF8091B0008F7DF9CF7D
:100480003E2BDACFCF93DF9390E0FC01E456FF4F91
:10049000249188579F4FFC0184918823C9F090E0F4
:1004A000880F991FFC01EC58FF4FA591B491FC01F6
:1004B000E258FF4FC591D49161110DC09FB7F894D8
:1004C0008C91209582238C938881282328839FBF39
:1004D000DF91CF910895623051F49FB7F8943C9129
:1004E000822F809583238C93E8812E2BEFCF8FB7BB
:1004F000F894EC912E2B2C938FBFEACF1F93CF93C0
:10050000DF93182FEB0161E00E944202209739F43B
:1005100060E0812FDF91CF911F910C94F601CF3FC6
:10052000D10511F461E0F5CFE12FF0E0E055FF4F88
:10053000E491E33031F140F4E130B1F0E230E1F048
:10054000C038D1057CF7E4CFE73029F1E83059F124
:10055000E430B1F780918000806280938000D09376
:100560008B00C0938A0004C084B5806884BDC7BD79
:10057000DF91CF911F91089584B5806284BDC8BD7D
:10058000F7CF80918000806880938000D0938900AD
:10059000C0938800EDCF8091B00080688093B00058
:1005A000C093B300E5CF8091B00080628093B0002B
:1005B000C093B400DDCF8230910538F0880F991FC9
:1005C000880F991F05970197F1F708953FB7F894A1
:1005D0008091410390914203A0914303B091440361
:1005E00026B5A89B05C02F3F19F00196A11DB11D8E
:1005F0003FBFBA2FA92F982F8827BC01CD01620FCA
:10060000711D811D911D42E0660F771F881F991F84
:100610004A95D1F708958F929F92AF92BF92CF9251
:10062000DF92EF92FF924B015C010E94E6026B01A8
:100630007C010E94E6026C197D098E099F09683EC3
:10064000734081059105A8F321E0821A9108A10861
:10065000B10888EEC80E83E0D81EE11CF11C81149D
:100660009104A104B10429F7FF90EF90DF90CF909F
:10067000BF90AF909F908F9008952FB7F89460919E
:100680003D0370913E0380913F03909140032FBF43
:1006900008950895809155049091560498278927CC
:1006A000982744972091730430E044E035952795CE
:1006B0004A95E1F7220F331F220F331F821B930B42
:1006C00097FF02C090E080E0089520916904309186
:1006D0006704309369042093670420916A04309181
:1006E000680430936A0420936804E5E4F4E021A5EB
:1006F000820F911D25A585A7662381F021A7892F4B
:100700009927319724E0E134F20789F710927704B2
:100710001092780480E580937304089511A6EFCFBA
:100720000F931F93CF93DF9370E06B5B7B4F8A0136
:10073000075F1F4F213029F0223031F48A01025027
:10074000110930E020E003C000E010E09801EB0167
:10075000FA01E230F10558F0A991B991BA27AB2717
:10076000BA270A0F1B1F211D311D3297F2CFFA0144
:10077000EE7F6E0F7F1F4E175F0769F0FB01408110
:1007800050E070E060E0762F652F542F4427040F6F
:10079000151F261F371FA901662777274115510509
:1007A0006105710519F022273327F1CF00951095C7
:1007B000E82FF0E0EB5BFB4F10830183DF91CF91DB
:1007C0001F910F910895E5E4F4E0108E118E80E4FE
:1007D000848B158A868B20E044E150E06EE088E14E
:1007E0000C9490038EBD0DB407FEFDCF089561E01B
:1007F00080913A030E94F60178940895F89460E09D
:1008000080913A030C94F6010F931F93CF93DF93DB
:10081000EC018B010E94FE032097B9F08AE30E944D
:10082000F2031EBCF801CE01019739F00DB407FEAA
:10083000FDCF2EB51EBC2193F7CF2197C00FD11F3E
:100840000DB407FEFDCF8EB58883DF91CF911F9148
:100850000F910C94F7031F93CF93DF93182FC62F9C
:10086000D42F0E94FE038C2F8F71812B0E94F203E4
:100870008D2F0E94F203DF91CF911F910C94F7030B
:10088000CF93C82FC07680913B038C1799F043E03B
:100890006FE180EA0E942B04C0933B034C2F50E091
:1008A00085E0559547958A95E1F76FE180E8CF910E
:1008B0000C942B04CF910895CF93DF93C82FD62F9C
:1008C0000E9440044D2F6C2F80E4DF91CF910C9457
:1008D0002B04CF93DF93C82FD72F0E945C046D2F7A
:1008E00081E08C0FDF91CF910C945C04CF93C82FE3
:1008F0000E9440040E94FE038C2F8F710E94F2031D
:1009000080E00E94F203C7FF03C080E00E94F20370
:10091000CEB50E94F7038C2FCF910895CF93DF932C
:10092000EC0140E86FE180E80E942B0440E86FE1B1
:1009300080EA0E942B044AE06CE180EA0E942B04CA
:1009400060E07CE082E00E946904BE01745F86E0A2
:100950000E94690440E060E08AE70E942B040E9444
:10096000FE032097B1F08AE70E94F20380914504CC
:100970008EBDE6E4F4E0CB5BDB4FEC17FD0731F016
:1009800081910DB407FEFDCF8EBDF7CF0DB407FEEC
:10099000FDCF0E94F70348E06FE180E80E942B043E
:1009A000D0E0C0E08CE10E9476048A7029F42196A0
:1009B000C83E83E0D807B1F78CE10E94760481FD40
:1009C00003C0C83ED34039F448E06FE180EADF91CC
:1009D000CF910C942B04DF91CF9108950F931F9327
:1009E000CF93DF93EC0105E414E04C96F801908B73
:1009F000818B0E94E303CE010896F80196A387A39A
:100A0000AE01405F5F4F21E06AE188E20E949003FF
:100A1000CE018A96DF91CF911F910F910C948E0495
:100A2000CF93DF93EB01682F84ED0E945C04BE013D
:100A300086ED0E9469048AEE0E94760480FDFBCF59
:100A4000DF91CF910895CF92DF92EF92FF920F93B3
:100A50001F938634910568F120916804233449F589
:100A6000C0907304D0907404E0907504F090760404
:100A70000091F5031091F6032091F7033091F803EC
:100A8000C016D106E206F306A1F4EFE5F5E08B5BB4
:100A90009B4F9F012E5F3F4F41815081553319F489
:100AA0005281651771F0F901E40FF11DE817F9079C
:100AB00080F380E01F910F91FF90EF90DF90CF9037
:100AC000089581E0F7CFE0913803F09139039F0159
:100AD0002F5F3F4F3093390320933803808308956D
:100AE000FF920F931F93CF93DF93162FF42E052FB2
:100AF0000E946305812F0E946305CF2DD02F1150D6
:100B000020F089910E946305FACFDF91CF911F9168
:100B10000F91FF90089520911503260F3327331F5F
:100B200021323105ECF420911E07FC0190E080E0B9
:100B3000243069F082E00895A09115032191AC0161
:100B40004B505D4FA40FB52FB11D2C930196861706
:100B500098F380911503680F6093150380E0089562
:100B600081E0089510921E0781E080931D07109286
:100B7000F80661E082E10E94F60161E083E10E94F3
:100B8000F601E9EBF0E080818E7F808380818D7FAC
:100B9000808388E48093B80085E48093BC00089546
:100BA0001092F7061092F60610922507109247074A
:100BB0000E94B20587EE90E09093F5068093F406CC
:100BC00088EE90E09093F3068093F2060895CF9319
:100BD000DF9391E09093F4028823B9F0C091B800BC
:100BE000D091BA008091BC008A7B8093BC0060E009
:100BF00082E10E94F60160E083E10E94F6010E941A
:100C0000B205D093BA00C093B800DF91CF91089598
:100C10008F929F92AF92BF92CF92DF92EF92FF920C
:100C20000F931F93CF93DF93D0914707D13208F0F2
:100C3000D7C0182FC09146070E94E6026B017C01C5
:100C400080911E0781116BC082E080931E07109374
:100C50001D078FEF80931C0710921B07D0931A0774
:100C6000A6E2B7E0EAEFF6E080E0D81391C0109278
:100C7000F9068091F906CC0FC82BC093F906809134
:100C8000F806813009F088C01092F8060E94E6024A
:100C90006B017C018091F9068093BB008091200755
:100CA00090912107A0912207B0912307892B8A2BCD
:100CB0008B2BA1F00E94E6020091200710912107E2
:100CC00020912207309123076C197D098E099F0915
:100CD000061717072807390708F442C08091BC009F
:100CE00083FDD8CF85EC8093BC000E94E6026B01A7
:100CF0007C0180911E07823009F450C080911C074E
:100D00008F3F09F46FC080911C07803209F46CC0DA
:100D100080911C07803309F469C084E026C080916B
:100D2000200790912107A0912207B0912307892BDA
:100D30008A2B8B2B09F484CF0E94E6028090200737
:100D400090902107A0902207B09023076C197D098D
:100D50008E099F0986169706A806B90608F070CF77
:100D600080911F070E94E70585E0109225071092E9
:100D7000470710922407DF91CF911F910F91FF90A9
:100D8000EF90DF90CF90BF90AF909F908F9008959D
:100D90009D9191938F5F69CF85EEA5CF80912007BC
:100DA00090912107A0912207B0912307892B8A2BCC
:100DB0008B2B09F49ECF0E94E60200912007109130
:100DC000210720912207309123076C197D098E0994
:100DD0009F09061717072807390708F08ACFC0CFE1
:100DE00081E0C3CF80E0C1CF82E0BFCF83E0BDCF41
:100DF0000895E091F7068091F606E81730F4F0E0E8
:100E0000EC52FD4F808190E008958FEF9FEF0895A1
:100E10009091F7068091F6062FEF3FEF981748F470
:100E2000E92FF0E0EC52FD4F208130E09F5F90937E
:100E3000F706C90108958091F6069091F706891B7F
:100E4000990B0895CF92DF92EF92FF920F931F9329
:100E5000CF93DF937C01CB018A01209124072223C9
:100E600089F0EB016B01C40ED51ECC15DD0569F0D0
:100E70006991D701ED91FC910190F081E02DC701BE
:100E80000995F3CF642F0E948B05C801DF91CF91A4
:100E90001F910F91FF90EF90DF90CF900895CF9327
:100EA000DF931F92CDB7DEB76983209124072223F9
:100EB000F9F020914707203258F021E030E0FC01A2
:100EC0003383228390E080E00F90DF91CF910895EB
:100ED00080912507E82FF0E0EA5DF84F9981908333
:100EE0008F5F809325078093470781E090E0ECCFE8
:100EF00061E0CE0101960E948B05F7CF90E080E083
:100F000008958FB7F8948091D3028FBF0895FC01A4
:100F100083858F3F11F00C94F6010895AF92BF9234
:100F2000CF92DF92EF92FF920F931F93CF93DF93B5
:100F3000EC0188819981892B89F06EBD0DB407FE83
:100F4000FDCFBEB48B2DDF91CF911F910F91FF90FC
:100F5000EF90DF90CF90BF90AF90089588859985EE
:100F600011E0892B09F010E8AA24A394862F81238D
:100F700009F0A12C062F2C813D814E815F8160E21A
:100F800071EA87E090E00E941F2CF22EB02EE12C37
:100F9000C22ED12CFF2019F0C6010E94DB028A85E7
:100FA000877F09F042C08D858F3F89F0902F912374
:100FB00081E009F480E08A1551F0EF85F8898F8986
:100FC000992369F19081892B8083AA24A394E989CC
:100FD000FA898081998D892B8083FF2019F0C601C1
:100FE0000E94DB028E858F3F39F0EB89FC8980817E
:100FF000988D892309F0E12AE989FA899081898D00
:101000008095892380838E858F3F09F0BE2C88854B
:101010009985892BB9F5110F1111BCCF93CF908110
:10102000809589238083A12CD2CFE989FA89808198
:10103000998D892B8083FF2019F0C6010E94DB0265
:101040008D858F3F49F0EF85F8898F89902F912307
:10105000A9F09081892B8083E989FA899081898D13
:101060008095892380838E858F3F69F2EB89FC8987
:101070008081988D892339F2E12AC5CF90818095AE
:101080008923E9CF1695C8CF8CBD9DBD08958F9259
:101090009F92AF92BF92CF92DF92EF92FF920F9307
:1010A0001F93CF93DF93EC014B016A01B22EA32E65
:1010B00088819981892B31F0EA81FB81808191813E
:1010C0000E94440870E060E0CE010E94870774012E
:1010D000C80CD91CEC14FD0479F4EB2CFA2C0E0D81
:1010E0001F1DE016F10679F06FEFCE010E948E070A
:1010F000F70181937F01F5CFF70161917F01CE0167
:101100000E948E07E7CF61E070E0CE010E94870762
:1011100081E0DF91CF911F910F91FF90EF90DF90D1
:10112000CF90BF90AF909F908F9008958F929F9295
:10113000AF92BF92CF92DF92EF92FF920F931F93E5
:10114000CF93DF93EC01B62EA72E6A014901888167
:101150009981892B31F0EA81FB81808191810E9404
:10116000440870E060E0CE010E9487077401080D1A
:10117000191DE016F10671F40B2D1A2DC00ED11EAB
:101180000C151D0571F0F80161918F01CE010E94CF
:101190008E07F6CFF70161917F01CE010E948E0785
:1011A000E8CF61E070E0CE010E94870781E0DF9127
:1011B000CF911F910F91FF90EF90DF90CF90BF9054
:1011C000AF909F908F9008951F93CF93DF93EA0184
:1011D000122FDC0111968D919C91DC01ED91FC9117
:1011E0000280F381E02D0995C817D90729F4812FD2
:1011F0000E94080691E0811190E0892FDF91CF9144
:101200001F910895CF93DF93EC018B818823A1F088
:10121000888191E0909324078093460710922507D8
:101220001092470781E00E94080691E0811190E04A
:10123000892FDF91CF9108950E94D00581E08B83A3
:10124000CE010E940209982F8111E2CFF1CF0F93B6
:101250001F930E94E602AB01BC018091CF029091E6
:10126000D002A091D102B091D202481759076A0763
:101270007B0790F58A019B01081B190B2A0B3B0B7E
:10128000D901C801E091190828EE33E0E29F8001FE
:10129000E39F100D1124012E000C220B330B0817B5
:1012A00019072A073B07A8F48093970390939803A4
:1012B000A0939903B0939A034093CF025093D00226
:1012C0006093D1027093D2028091A0038F5F8093CC
:1012D000A0031F910F91089580959095A095B095CA
:1012E000840F951FA61FB71FCDCF0F931F930E948A
:1012F000E602AB01BC018091CB029091CC02A0919F
:10130000CD02B091CE02481759076A077B0790F5C6
:101310008A019B01081B190B2A0B3B0BD901C80141
:10132000E091190828EE33E0E29F8001E39F100D61
:101330001124012E000C220B330B081719072A0762
:101340003B07A8F48093930390939403A093950391
:10135000B09396034093CB025093CC026093CD029E
:101360007093CE0280919F038F5F80939F031F91A4
:101370000F91089580959095A095B095840F951F35
:10138000A61FB71FCDCF4FEF460FFC0130E020E086
:1013900050E0DF01A81BB90BA417B50724F4719125
:1013A000270F311DF6CFFC01E60FF11D319781E0CB
:1013B0009081921380E008950895FC01019000202F
:1013C000E9F73197AF01481B590BBC0180E597E065
:1013D0000C94E90080E791E00C94DD098F929F92D4
:1013E000AF92BF920F931F93CF93DF93CDB7DEB72A
:1013F000A1970FB6F894DEBF0FBECDBF19A2423041
:1014000008F44AE08E010F5D1F4F842E912CB12C01
:10141000A12CA50194010E941F2CE62FB901CA013D
:10142000EA30F4F4E05DD801EE938D01232B242BF8
:10143000252B79F790E080E0109719F0CD010E94FC
:10144000DD09A1960FB6F894DEBF0FBECDBFDF91C8
:10145000CF911F910F91BF90AF909F908F90089563
:10146000E95CE1CFCF93DF930E94DD09EC010E949C
:10147000EA098C0F9D1FDF91CF910895DC0196E062
:10148000FB0101900D929A95E1F70895CF93DF93B8
:10149000EB0144E050E0BC0181E694E00E945D2E47
:1014A000892B49F46BE574E0CE010E943E0A81E08D
:1014B000DF91CF91089580E0FBCFBC0185E494E0FB
:1014C0000E943E0A66E074E08BE494E00C943E0ACD
:1014D000DC0194E0FB0101900D929A95E1F70895EB
:1014E0000F931F93CF938C0186E491E00E945D0AD5
:1014F000E5E4F4E088E08487C6E0C58748E050E092
:101500006CE670E083E594E00E94B229E5E6F4E041
:10151000DF011D92CA95E9F766E074E08BE594E07F
:101520000E943E0AB8018BE694E00E94680A6CE4CF
:1015300077E081E694E00E94680A8AE290E0CF9129
:101540001F910F910C948E048BE494E00E945D0A2D
:101550006FE574E083E694E00E94680A6CE477E04B
:101560008FE594E00E94680A0C94E303262F206123
:1015700020937404643021F0009711F481E090E02E
:1015800061E00E9465031092550488E2809356043E
:101590000E94A40A84E0809375041092760422E0ED
:1015A0004CE150E06AE182E30E94900386E390E020
:1015B0000C948E04CF93DF93EB010E945D0ABE0171
:1015C00083E694E00E94680A6CE477E08FE594E09B
:1015D000DF91CF910C94680AEF92FF920F931F93C3
:1015E000CF93DF93182F092FEB01F42EE52ECB01BB
:1015F0000E949200BE01882309F447C089E394E069
:101600000E94DA0A8881807F803E91F088819981EA
:10161000AA81BB818F3F9F4FAF4FBF4F49F044E03E
:1016200050E0BE018CE094E00E945D2E892B31F4E5
:1016300066E471E085E494E00E943E0A88E08093CD
:1016400051041092520449E050E064EC70E083E5EC
:1016500094E00E94B2291092550481E180935C04C9
:10166000E0926904F0926A0400936704109368049E
:1016700010926B0410926D0410926E04DF91CF9162
:101680001F910F91FF90EF9008958FE394E0B8CFF2
:10169000EF92FF920F931F93CF938C01E5E4F4E058
:1016A00086E191E0DF019C011D9221503040E1F77D
:1016B0008091050466E471E0833011F460EF73E01B
:1016C00043E450E084E490E00E94EC0A66E471E0B8
:1016D00085E494E00E943E0A81E080936F04809349
:1016E000700486E0809371048091F5039091F60375
:1016F000A091F703B091F80380937304909374045E
:10170000A0937504B0937604C0910504C33031F4FE
:101710006CE477E08BE794E00E94680A66E074E08E
:101720008BE894E00E943E0A8BE595E090933903A4
:1017300080933803E8E6F0E084910E946305E9E6CF
:10174000F0E084910E946305EAE6F0E084910E9453
:101750006305EBE6F0E084910E94630585E30E9457
:10176000630581E00E94630583E0C11101C081E04F
:101770000E9463058DE30E94630587E00E94630574
:1017800081E00E94630586E0E82E84E0F82EC7E041
:10179000C15031F0D7018D917D010E946305F8CFD2
:1017A00080910C01882371F06CE071E0FB010190E5
:1017B0000020E9F7BF016D5071404CE051E08CE032
:1017C0000E9470050115110559F0A80164E082E33B
:1017D0000E94700540EF53E064E086E30E947005CC
:1017E00087E30E94630583E00E94630581E00E9415
:1017F000630583E00E94630586E00E9463058FEF26
:101800000E94630580913803909139038F5694406C
:10181000CF911F910F91FF90EF900C94EE042F92B7
:101820003F924F925F926F927F928F929F92AF9270
:10183000BF92CF92DF92EF92FF920F931F93CF93BD
:10184000DF93CDB7DEB72A970FB6F894DEBF0FBE91
:10185000CDBF9C838B834F83588769877A87DC0150
:10186000ED90FC90F7010085C7010B969E838D8358
:101870009681878199838A83608071806114710465
:1018800009F420C1418550E0D30114968D919C91BB
:1018900015978417950708F468C18C9191E090938F
:1018A000240780934607109225071092470720E0EF
:1018B000BE016F5F7F4FC3010E94E408882309F4D3
:1018C00054C1402E512C312C212C2414350408F005
:1018D0001AC1F301848195818201021913098017CD
:1018E000910708F48C01D301CC900E94E6024B01D1
:1018F0005C0180911E07811175C0D02EB0E2B01737
:1019000010F470E2D72EE1E0E0931E0721E0C2015F
:10191000801B910B2816390608F420E020931D0740
:10192000FFEFF0931C0710921B078FEF8D0D809334
:101930001A0781E08093F9068091F906CC0CC82A39
:10194000C092F9068091F806813009F092C0109299
:10195000F8060E94E6024B015C018091F906809333
:10196000BB008091200790912107A0912207B091A0
:101970002307892B8A2B8B2BA1F00E94E602209152
:1019800020073091210740912207509123076819C1
:1019900079098A099B09261737074807590708F468
:1019A00042C08091BC0083FDD8CF95EC9093BC00E1
:1019B0000E94E6024B015C0180911E07813009F410
:1019C0005CC080911B078D1510F4D0901B07AAEF07
:1019D000B6E0E4EDF2E080E08D1551F19D91919338
:1019E0008F5FFACF8091200790912107A091220765
:1019F000B0912307892B8A2B8B2B09F47ACF0E9475
:101A0000E602209120073091210740912207509152
:101A10002307681979098A099B0926173707480798
:101A2000590708F066CF80911F070E94E705D12C67
:101A30001092F706D092F606D016110609F095C05E
:101A4000AD80BE80A20CB31C6501C6018A199B093A
:101A500080179107A0F5F30181819281DC01ED915E
:101A6000FC910284F385E02D0995F60181936F01C5
:101A7000ECCFA5EEA093BC009BCF80912007909166
:101A80002107A0912207B0912307892B8A2B8B2B4A
:101A900009F492CF0E94E60220912007309121079D
:101AA0004091220750912307681979098A099B09F7
:101AB000261737074807590708F07ECFB4CF200E06
:101AC000311E03CFD7010280F381E02D309709F456
:101AD0004CC014962D913C91159710E019964C919D
:101AE00050E02330310561F5816089839A834F5F2F
:101AF0005F4F2D813E81BE016F5F7F4FCF010E94FE
:101B00004708882391F1F701408550E090E080E09C
:101B100000E010E098018417950754F5322F212F2B
:101B2000102F0027D7011A966C91611119C0FA0184
:101B3000E81BF90BEE0DFF1D6285062B0196EBCF1E
:101B40002115310519F490689983D3CF22303105DE
:101B500011F49F77F9CF2130310559F6906CF4CF0D
:101B6000F701E80FF91F6385E8CF0FEF1FEF98012A
:101B7000EB81FC81A081B18118968C9118978530FA
:101B800008F078C0928141E050E002C0440F551F38
:101B90009A95E2F741505109052E000C660B770B20
:101BA00093816A017B01092E04C0CC0CDD1CEE1C64
:101BB000FF1C0A94D2F7C094D094E094F0940C21C6
:101BC0001D212E213F214F80588469847A8444222C
:101BD00055226622772204C0440C551C661C771CD3
:101BE0009A95D2F7402A512A622A732A1F964D925B
:101BF0005D926D927C92529730E020E0E82EF12CBD
:101C00002E153F05BCF41A968C911A9781110BC0C2
:101C1000FD01E20FF31F4386452C562C672C7724D9
:101C20002F5F3F4FEDCFF701E21BF30BEA0FFB1FD6
:101C30004286F2CF6D01FBE0CF0ED11C16969C912F
:101C4000169717968C91179799838A83AD90BC90BD
:101C50001197A114B10409F44DC019960C9110E02C
:101C600098012E0D3F1DD50114968D919C918217E0
:101C7000930710F480E016C0F501818192812081E4
:101C800031E03093240720934607109225071092E5
:101C9000470701151105F9F421E0A701B601C501B7
:101CA0000E94E4082A960FB6F894DEBF0FBECDBF9F
:101CB000DF91CF911F910F91FF90EF90DF90CF9028
:101CC000BF90AF909F908F907F906F905F904F905C
:101CD0003F902F900895DC01ED91FC910280F381FB
:101CE000E02DA801BE016F5F7F4F09950817190706
:101CF00009F6D2CF1296ED91FC911397309709F423
:101D0000B9CF14962D913C91159719960C9110E02E
:101D10002330310571F48E7F89839A830F5F1F4FC3
:101D20009E012F5F3F4FA701B601CF010E94960889
:101D3000B9CF2115310519F49F779983F1CF22305E
:101D4000310511F49068F9CF2130310549F79F77BB
:101D50009064F3CF8F929F92AF92BF92CF92DF9217
:101D6000FF920F931F93CF93DF93CDB7DEB7AE975C
:101D70000FB6F894DEBF0FBECDBF082FFF24F3943B
:101D8000883008F4F12C6F2D80E00E94CE00809006
:101D9000FB079090FC07A090F907B090FA071BA2F0
:101DA0001CA21DA21EA29F8A8E8ABD8AAC8A23E035
:101DB000C22ED12CD98EC88E11E01D8F9B8F8A8F99
:101DC0001E8E1C8F6F2D86E00E94CE00188A198A05
:101DD0001A8A1B8A9C828B82BA82A982DE82CD8279
:101DE0001A8798878F831B8619870770CE014496C0
:101DF0009CA78BA71DA70EA7439798A78FA319A7EA
:101E00000AA740E050E0BA018A960E940F0C40E019
:101E100050E0BA01CE0187960E940F0CAE960FB625
:101E2000F894DEBF0FBECDBFDF91CF911F910F9110
:101E3000FF90DF90CF90BF90AF909F908F900895CC
:101E40000F931F93CF93DF93CDB7DEB767970FB68E
:101E5000F894DEBF0FBECDBF182F062F61E088308B
:101E600008F460E089E00E94CE004091FB075091A9
:101E7000FC072091F9073091FA07188A198A1A8A03
:101E80001B8A5C834B833A83298323E030E03E83C3
:101E90002D8321E02A8798878F831B862987CE018F
:101EA00001969D8B8C8B2E8B17701F8B41E050E021
:101EB00060E070E0011103C040E050E0BA01CE01E3
:101EC00044960E940F0C67960FB6F894DEBF0FBEC3
:101ED000CDBFDF91CF911F910F91089585ED809334
:101EE000BC008091200790912107A0912207B0911A
:101EF00023070796A11DB11D23E0B695A7959795D9
:101F000087952A95D1F72091BC0024FD03C010923B
:101F10001E070895409120075091210760912207E4
:101F200070912307452B462B472B69F30097A1059A
:101F3000B10541F025E32A95F1F700000197A109C9
:101F4000B109E1CF80911F070C94E705FF920F9331
:101F50001F93CF93DF93EC01F62E08811981C801FE
:101F60000E94BB29F81621F06F2DC8010E94C329D9
:101F7000CE01DF91CF911F910F91FF900895EF92C5
:101F8000FF920F931F93CF93DF9300D0CDB7DEB7AF
:101F900083E0E82E88E0F82E0AE010E01A83098337
:101FA000F70161917F01CE0101960E94A60F0F5F9C
:101FB0001F4F0132110591F783E098E00F900F90C9
:101FC000DF91CF911F910F91FF90EF900895AF9205
:101FD000BF92CF92DF92EF92FF920F931F93CF9316
:101FE000DF9300D0CDB7DEB78B016B0125E3C20EC6
:101FF000D11C7B015C01A61AB70AC5018E0D9F1D7D
:102000009A838983F70161917F01CE0101960E9435
:10201000A60FEC14FD0489F7C8010F900F90DF9113
:10202000CF911F910F91FF90EF90DF90CF90BF90D5
:10203000AF900895EF92FF920F931F93CF93DF938A
:10204000809187068823A1F00115110589F0E90127
:10205000888199818B362FE7920709F450C178F473
:102060008636FFE79F0779F188369F4709F4EDC070
:10207000DF91CF911F910F91FF90EF9008958137DD
:10208000EFE79E0709F461C18237FFE79F0709F474
:1020900097C18C369F4761F78BE0809384060B30A5
:1020A000110530F36BE0CE010E94C309882301F3D0
:1020B000FE013296AFE4B6E02A9681918D93EC173B
:1020C000FD07D9F7D5CF81E1809384060131110551
:1020D00078F261E1CE010E94C309882349F20A81A6
:1020E000902F92959F70809103089813C1CF0F7025
:1020F00080910408081708F0BBCF8B818093650698
:102100008C8180936406E02EF12C85E3089F80018A
:1021100011240857194F2E816F8170E090E080E004
:10212000CB0177276627722B2D81622B0E94EB2A29
:102130002FE632E143E85AE30E94A22BF801608FB8
:10214000718F828F938F29856A8570E090E080E09F
:10215000CB0177276627722B2885622B0E94EB2AFA
:102160002FE632E143E85AE30E94A22BF801648F84
:10217000758F868F978F8B85828B80FF0CC095E340
:102180009E9DF0019F9DF00D1124E857F94F148A90
:10219000158A168A178A95E39E9DF0019F9DF00D82
:1021A0001124E857F94F81FD4DC0138A82FF0BC0FF
:1021B00095E39E9DF0019F9DF00D1124E857F94F86
:1021C00093899E5F938B83FF0BC095E39E9DF001E7
:1021D0009F9DF00D1124E857F94F93899C5F938BD5
:1021E00084FB992790F99093370195E39E9D800198
:1021F0009F9D100D11240857194F85FB992790F9C1
:10220000F80194A386FB882780F9809336018C859A
:10221000809363068D85809362066E857F85072E89
:10222000000C880B990B0E94ED2AF80160A371A3A2
:1022300082A393A30E943D03F80166877787808B72
:10224000918B16CF91E0938BB1CF82E1809384067E
:102250000231110508F40CCF62E1CE010E94C309DE
:10226000882309F405CF0A81902F92959F70809161
:1022700003089813FDCE0F7080910408081708F02A
:10228000F7CEF5E30F9F800111240857194F6B819A
:102290007C818D819E810E94EB2A27E137EB41ED05
:1022A00058E30E94A22BF80165A376A387A390A709
:1022B0006F81788589859A850E94EB2A27E137EB23
:1022C00041ED58E30E94A22BF80161A772A783A7F2
:1022D00094A76B857C858D859E850E94EB2A27E1DE
:1022E00037EB41ED58E30E94A22BF80165A776A7D2
:1022F00087A790AB8F8581AB888982ABB9CE86E00A
:10230000809384060630110508F4B2CE66E0CE0153
:102310000E94C309882309F4ABCEFE013296AEE5D4
:10232000B6E0269681918D93EC17FD07D9F781E0F1
:1023300080935B060E943D03609357067093580696
:102340008093590690935A0693CE88E08093840632
:102350000830110508F48CCE68E0CE010E94C30954
:10236000882309F485CE8A81809303088B8180932A
:1023700004088C81809305088D8180FF18C091E04E
:102380009093080881FF16C091E09093060882FFA1
:1023900014C081E0809307088E8180931908DF9133
:1023A000CF911F910F91FF90EF900C94BF0F10925F
:1023B0000808E8CF10920608EACF10920708ECCF81
:1023C00089E1809384060931110508F451CE69E151
:1023D000CE010E94C309882309F44ACE8A818093E2
:1023E00088068B818093BD068C81809389068D81C0
:1023F0008093BE068E8180938A068F818093BF066C
:10240000FE013896A9E0B8E0689681918D93EC17AB
:10241000FD07D9F70E94BF0F68E876E084E690E0F8
:102420000E94E70F6DEB76E084EB90E00E94E70FEF
:10243000F0E0E0E0DF91CF911F910F91FF90EF90DE
:102440000994CF92DF92EF92FF920F931F93CF9355
:10245000DF93CDB7DEB72A970FB6F894DEBF0FBE75
:10246000CDBF32E03093880684E08093890695E002
:1024700090938A0683E08093BD0626E02093BE06F3
:1024800049E04093BF069093B90652E35093BA06D1
:102490008093BB0644E14093BC069093EE065093B4
:1024A000EF068093F0064093F106E0916007F0910B
:1024B00061073083E0915C07F0915D071082E09145
:1024C0005E07F0915F0783E3808310926807E091D5
:1024D0006407F09165072083E0916207F09163073C
:1024E000808180618083E0916207F0916307808141
:1024F00088608083E0916207F09163078081806843
:102500008083E0916207F091630780818F7D8083F3
:1025100060ED77E080E090E00E940B030E94EA0902
:1025200083E791E00E94320A0E94EA0990E080E08D
:102530000E94BB298093C90281E090E00E94BB29E0
:102540008093CA028091C9029091CA028F3F98403D
:1025500009F019C18AE891E00E94320AE3E0EE2E08
:10256000E8E0FE2E0AE010E0C8010E94BB29D70176
:102570008D937D010F5F1F4F01321105A9F778E898
:10258000E72E76E0F72E04E610E0C8010E94BB2992
:10259000D7018D937D010F5F1F4F09391105A9F7F1
:1025A0006DEBE62E66E0F62E04EB10E0C8010E940B
:1025B000BB29F70181937F010F5F1F4F093E110572
:1025C000A9F782E791E00E94320A89EB91E00E942C
:1025D000DD096091030870E090E080E04AE00E942D
:1025E000EE090E94EA090E94EA098091040881111B
:1025F00003C081E08093040880910408833018F0C0
:1026000082E08093040880910808882309F4DEC0E2
:1026100085EC91E00E94320A0E94D0058091080862
:1026200009E018E0882309F4D9C082E791E00E940C
:10263000320A8CEF91E00E94320A1092C80201E047
:1026400050E2F52E8091A203811121C084E192E035
:102650000E94DD0900932407F09246071092250797
:102660001092470781E00E94080691E0811190E0F6
:102670009093A2031091C8021F5F1093C80264EFE9
:1026800071E080E090E00E940B031630D8F282E700
:1026900091E00E94320A8091A203882309F499C034
:1026A00086E192E00E94320A86E090E00E94382D96
:1026B0008C0180E2F80180838DEE97E09283818324
:1026C000138280E290E0958384831093FA0700934D
:1026D000F9070E94D00581E0D80113968C93C801B8
:1026E0000E94020988E00E94AA0E89E00E94AA0EB8
:1026F0008AE00E94AA0E8BE00E94AA0E8CE00E9443
:10270000AA0E8DE00E94AA0E8EE00E94AA0E8FE013
:102710000E94AA0E87E00E94AA0E86E00E94AA0EDE
:1027200085E00E94AA0E84E00E94AA0E83E00E9427
:10273000AA0E82E00E94AA0E81E00E94AA0E80E00A
:102740000E94AA0E08E816E0F12CE12C8091040802
:102750008E151F0409F00CF44EC062E0D8018C9174
:102760000E94420261E0F80181810E94420261E020
:10277000D80112968C910E944202BFEFEB1AFB0A1D
:102780000B5C1F4FE3CF83EA91E00E94320A1A826A
:1027900019826FEFCE0101960E94A60F81E090E0B2
:1027A0009A83898368E0CE0101960E94A60F0E9459
:1027B000BF0F68E876E084E690E00E94E70F6DEBDB
:1027C00076E084EB90E00E94E70FFBCE80EE91E094
:1027D00021CF8AE292E00E94320AB4CFF8018191BF
:1027E0008F01823018F061E00E944202F8E0093166
:1027F0001F07A1F7A7CF80918806823009F4DFC0B8
:10280000833009F4DEC08FEF65E779E00E94B20003
:102810008091BD06823009F4D6C0833009F4D5C05A
:102820008FEF67E279E00E94B20082E791E00E94B8
:10283000320A82E492E00E94320A80EC8F8388EAB6
:1028400088878091050889879091030822E3290FE2
:102850002A8720E7298321E32A8321E22B832DE2A3
:102860002C8322E62D839E839091C002911105C096
:1028700080930A0191E09093C00280932E011FB7CC
:10288000F8948091B602811127C0E2E9F0E08491CA
:10289000E6EAF0E09491E82FF0E0EE0FFF1FEC582D
:1028A000FF4FA591B491EC91E92321F461E08AE016
:1028B0000E94F60161E08AE00E9442028CB58061CC
:1028C0008CBD8CB580648CBD61E08DE00E944202BD
:1028D00061E08BE00E9442028091B6028F5F80939C
:1028E000B6021FBF1092B8021092B7028091B702D1
:1028F00081113CC064EF71E080E090E00E940B0326
:1029000084E192E00E94DD09F89460E08AE00E9490
:10291000F6018FEF0E94F2038FEF0E94F20361E055
:102920008AE00E94F601789462E070E080E090E036
:102930000E940B03F89460E08AE00E94F6018DE1AA
:102940000E94F20380E00E94F2031EB561E08AE07B
:102950000E94F601789411701093B7028091B8022A
:102960008F5F8093B802863008F4C0CF8091B702A1
:1029700080938706882309F47DC110924D0687E372
:1029800090E0C12CD12C7601C394009701F1FC0199
:1029900023E0F595E7952A95E1F7E754FD4F282FB9
:1029A0002770B701A60104C0440F551F661F771F8B
:1029B0002A95D2F72081242B20830197E6CF80E04F
:1029C00023CF81E021CF80E02CCF81E02ACFBE0150
:1029D0006F5F7F4F86E094E00E943E0A84EF91E0B3
:1029E0009093EC038093EB030CB406FC25C061E0EC
:1029F0008AE00E94420261E08AE00E94F60161E002
:102A00008BE00E94420261E08DE00E94420260E0A1
:102A10008CE00E94420261E08BE00E94F60160E0DF
:102A20008BE00E94F60160E08DE00E94F60180E5F7
:102A30008CBD8DB581608DBD8AE080933A0361E0E5
:102A40000E9442020E94F7034FEF60E08FEF0E9466
:102A50002B0462E070E080E090E00E940B030E9493
:102A6000FE038DE10E94F20380E00E94F2031EB596
:102A70000E94F703112399F370E060E088E00E9460
:102A8000690470E060E08CE00E9469046FEF7BE015
:102A90008AE00E94690460E07CE084E00E946904AE
:102AA0006FEF71E186E00E94690466E774E084E1FB
:102AB0000E94100561EB88E30E945C046FE370E301
:102AC00088E20E94690469EF77EF80E30E9469045D
:102AD00061E080EC0E945C0442E362EC80E80E94CA
:102AE0002B0462E17CE086EC0E94690462E184ECE4
:102AF0000E945C046CED75E08AEC0E9469046091B0
:102B0000060484EE0E945C046091070485EE0E9436
:102B10005C046091080482EE0E945C0460910904E8
:102B200083EE0E945C0460910A0480EE0E945C04C3
:102B300060910B0481EE0E945C0460E071E080E132
:102B40000E9410058FE10E94400440EC6BE180E898
:102B50000E942B0444E06FE180E80E942B0482E78E
:102B60000E94760482E791E00E94320A88E592E0B2
:102B70000E94320A10924D06BE01695F7F4F8CE4BD
:102B800097E00E94680A10924B0610924A0681E074
:102B900080934C0668E071E086E496E00E94680A43
:102BA00064E071E081E496E00E94680A60E071E010
:102BB00088E497E00E94680A8CE4E82E87E0F82E0B
:102BC00028E437E04CE054E0F7019191D9018D9170
:102BD0009D018095892BDA018D93AD01B7E0E03539
:102BE000FB0799F783E792E00E94DD0910E0F70107
:102BF00061917F0170E090E080E04AE00E94EE0980
:102C0000133029F06EE280E597E00E9489011F5F92
:102C1000143069F70E94EA0980913804883098F4EA
:102C200025E0829FF0011124E05FFB4F2AE130E1B3
:102C30003183208328ED30E73383228391E094832E
:102C40008F5F8093380482E791E00E94320A83EA22
:102C500092E00E94320A2A960FB6F894DEBF0FBEA9
:102C6000CDBFDF91CF911F910F91FF90EF90DF903B
:102C7000CF90089582E791E00E94320A84E892E0C2
:102C80000E94320AE0CF1F920F920FB60F921124CA
:102C90002F933F934F935F936F937F938F939F9364
:102CA000AF93BF93EF93FF9380E597E00E94670196
:102CB000FF91EF91BF91AF919F918F917F916F9114
:102CC0005F914F913F912F910F900FBE0F901F90EA
:102CD00018951F920F920FB60F9211242F938F9376
:102CE0009F93EF93FF93E0916007F09161078081DC
:102CF000E0916607F091670782FD1BC0908180918B
:102D000069078F5F8F7320916A07821741F0E09106
:102D10006907F0E0E05BF84F958F80936907FF91BA
:102D2000EF919F918F912F910F900FBE0F901F9059
:102D300018958081F4CF1F920F920FB60F92112435
:102D40002F933F938F939F93AF93BF9380913D03B6
:102D500090913E03A0913F03B091400330913C031A
:102D600023E0230F2D3758F50196A11DB11D2093A7
:102D70003C0380933D0390933E03A0933F03B093A5
:102D800040038091410390914203A0914303B0918D
:102D900044030196A11DB11D80934103909342030A
:102DA000A0934303B0934403BF91AF919F918F9140
:102DB0003F912F910F900FBE0F901F90189526E80E
:102DC000230F0296A11DB11DD2CF1F920F920FB6F5
:102DD0000F9211242F933F934F935F936F937F93A1
:102DE0008F939F93AF93BF93EF93FF93E0913E0137
:102DF000F0913F010995FF91EF91BF91AF919F91A4
:102E00008F917F916F915F914F913F912F910F9093
:102E10000FBE0F901F9018951F920F920FB60F9232
:102E200011242F933F934F935F936F937F938F93CF
:102E30009F93AF93BF93EF93FF93E0913C01F09189
:102E40003D010995FF91EF91BF91AF919F918F91B6
:102E50007F916F915F914F913F912F910F900FBE96
:102E60000F901F9018951F920F920FB60F9211247A
:102E70002F933F934F935F936F937F938F939F9382
:102E8000AF93BF93EF93FF938091B900887F803613
:102E900009F44AC0F0F5883209F4A7C018F580316A
:102EA00009F49BC0B8F4882309F4F9C0883009F408
:102EB00094C0FF91EF91BF91AF919F918F917F91BE
:102EC0006F915F914F913F912F910F900FBE0F9097
:102ED0001F901895883109F488C0803251F780938B
:102EE0001C0714C0803409F49DC040F48033B9F34A
:102EF0008833F9F680931C0785ECB0C0803509F45F
:102F000085C0883509F496C0883499F60E946E0F02
:102F1000D0CF883909F48CC038F5883729F050F4BF
:102F2000883611F0803729F683E080931E071092CF
:102F3000370357C0883809F47BC0803919F08038CE
:102F400009F0B7CF80913703803208F071C0E0916B
:102F5000370381E08E0F809337038091BB00F0E050
:102F6000E95EFC4F80833DC0803B39F0E0F4803A5D
:102F700009F479C0883A09F09CCF84E080931E0759
:102F80001092160310921503E091F406F091F506E5
:102F900009958091150381110FC081E0809315037D
:102FA0001092F50209C0803C09F4A6CF883C09F4D0
:102FB000A3CF883B09F07DCFE091160381E08E0F0F
:102FC00080931603F0E0EB50FD4F80818093BB00AF
:102FD000909116038091150329C08091F906809382
:102FE000BB0085EC8093BC0064CF90911B0780915F
:102FF0001A07981758F5E0911B0781E08E0F809310
:103000001B07F0E0E650F94F8081E9CFE0911B0704
:1030100081E08E0F80931B078091BB00F0E0E650AB
:10302000F94F808390911B0780911A079817C8F277
:1030300085E8D8CFE0911B0781E08E0F80931B07B6
:103040008091BB00F0E0E650F94F808380911D072E
:1030500081115CCF81E08093F80684EA8093BC0004
:1030600010921E0726CF85EC8093BC0010921E079D
:1030700080913703803230F4E0913703F0E0E95E6D
:10308000FC4F10826091370370E0E091F206F091FE
:10309000F30687E193E00995109237030ACF109267
:1030A0001C0734CFE0E5F7E01382128288EE93E04C
:1030B000A0E0B0E084839583A683B78320E531E068
:1030C0003183208325EC30E03587248724EC30E001
:1030D0003787268720EC30E0318B208B21EC30E0E5
:1030E000338B228B22EC30E0358B248B26EC30E0C6
:1030F000378B268B118E128E138E148EEDEEF7E029
:103100001382128284839583A683B78382E691E03B
:1031100091838083E3E0F8E0108282E0818381E0A4
:10312000828313821482858383E0868BE9EFF7E044
:10313000118210821382128280E184830895CF93DA
:10314000DF93CDB7DEB7A2970FB6F894DEBF0FBE00
:10315000CDBF789484B5826084BD84B5816084BD20
:1031600085B5826085BD85B5816085BD80916E0025
:10317000816080936E001092810080918100826056
:103180008093810080918100816080938100809193
:1031900080008160809380008091B1008460809382
:1031A000B1008091B00081608093B00080917A007E
:1031B000846080937A0080917A00826080937A00A4
:1031C00080917A00816080937A0080917A00806893
:1031D00080937A001092C1000E9421120E943D0348
:1031E000009138011091390120913A0130913B0151
:1031F000601B710B820B930B623371058105910586
:1032000008F496C70E943D0360933801709339011A
:1032100080933A0190933B0125E433E03A8F298F64
:1032200048E856E058874F838DE493E09C8F8B8F5E
:10323000A7E5B3E0BC87AB87EFE4F3E0F88BEF875B
:103240002FE533E03E8B2D8B4FE6242E43E0342ECA
:1032500047E653E05E8F4D8F88E896E09A8789872E
:103260001A8A198A80910408A989BA898A171B06C3
:1032700009F00CF4B6C1FD01E156FC4F80818823B2
:1032800009F4A2C0F894808190E0B0E0A0E08093BF
:103290009B0390939C03A0939D03B0939E03108285
:1032A00009891A89000F111F000F111FF801ED562F
:1032B000FC4F80819181A281B38180938F03909391
:1032C0009003A0939103B09392037894E985FA85D3
:1032D00084A1882309F44EC1980129573C4F7901F4
:1032E000D9018D909D90AD90BC9080919B03909161
:1032F0009C03A0919D03B0919E03880E991EAA1E67
:10330000BB1EF90180829182A282B3820E943D039A
:10331000980121583C4F6901D9014D905D906D9005
:103320007C909B01AC0124193509460957092901F4
:103330003A01F801E958FC4F40825182628273825F
:1033400035EF431631E0530661047104F8F00E9432
:103350003D03D6016D937D938D939C931397A501A7
:10336000940160E87DE88BE590E00E940F2CA301BA
:1033700092010E941F2CF1012083318342835383E9
:10338000D7011D921D921D921C9213970E943D031E
:10339000ED8DFE8D6083718382839383E985FA8549
:1033A00084899589A689B78940919B0350919C0394
:1033B00060919D0370919E03840F951FA61FB71FF8
:1033C000848B958BA68BB78B0E943D03AD8DBE8DF4
:1033D0000D911D912D913D91BE8FAD8F601B710B95
:1033E000820B930B613A7F408105910528F0F10132
:1033F0001082118212821382D1010D911D912D91A3
:103400003C91ED89FE896081718182819381600F99
:10341000711F821F931F6083718382839383EB8567
:10342000FC85C080D180E280F380C016D106E20620
:10343000F30620F40083118322833383EF85F88918
:10344000C080D180E280F3800C151D052E053F055C
:1034500020F40083118322833383EB8DFC8D208144
:103460002F5F2193FC8FEB8F253008F43FC0AB8595
:10347000BC850D911D912D913C91601B710B820BB0
:10348000930BEF85F8890081118122813381601BC4
:10349000710B820B930B0E94EB2A20E030E046E98F
:1034A00053E40E94432AA98DBA8D6D937D938D9329
:1034B0009C931397ED89FE891082118212821382E8
:1034C000AB85BC851D921D921D921C92139720E026
:1034D00032EF45E05AE2AF85B8892D933D934D9385
:1034E0005C931397EB8DFC8D31971082E985FA85FB
:1034F000C48CD58CE68CF78C20E030E0A901C701A4
:10350000B6010E949D2B18160CF062C0A70196010F
:10351000A98DBA8D6D917D918D919C910E94432AC8
:10352000E985FA856087718782879387E989FA89B7
:103530003196FA8BE98B298D3A8D2C5F3F4F3A8F6C
:10354000298F49855A854B5C5F4F5A8749878B8500
:103550009C8504969C878B87AF85B8891496B88B19
:10356000AF87ED89FE893496FE8BED8BF4E02F0E4C
:10357000311C78CE00918F0310919003209191031C
:1035800030919203011511052105310531F4F10146
:103590001082118212821382F9CE58016901E12C46
:1035A000F12C00E010E020E03CEB40EA55E661E061
:1035B00070E080E090E00E944E2CD1012C93119697
:1035C0003C93119712964C93129713965C93DECE10
:1035D000A985BA8518961D921D921D921C921B9763
:1035E000A5CF08E816E0F12CE12C809104088E1597
:1035F0001F0409F00CF444C00E943D03D8011E963C
:103600008D909D90AD90BC905197681979098A0969
:103610009B09603A7F408105910580F5F801808C17
:10362000918CA28CB38C20E030E0A901C501B401DB
:103630000E949D2B181624F480913701811114C02B
:10364000D80153968C91843049F420E030E0A901F0
:10365000C501B4010E949D2B181674F080913601AB
:1036600081110CC080913701F8018383FFEFEF1ABD
:10367000FF0A0B5C1F4FB9CF81E0F6CF80E0F4CF9B
:103680001092A4031092A30380915B06882309F48F
:10369000ECC00E943D0300915706109158062091FE
:1036A000590630915A06601B710B820B930B6133E4
:1036B00075478105910508F4CAC010925B067090A9
:1036C000A40380916306782A7092A4036090A303F8
:1036D00080916206682A6092A30380910808813075
:1036E00009F023C18091A203882309F48EC0609160
:1036F000060870FECAC088E00E94200F609106088C
:103700008091A40381FFC6C089E00E94200F6091D0
:1037100006088091A40382FFC2C08AE00E94200FA5
:10372000609106088091A40383FFBEC08BE00E94D5
:10373000200F609106088091A40384FFBAC08CE03A
:103740000E94200F609106088091A40385FFB6C0F7
:103750008DE00E94200F609106088091A40386FFEF
:10376000B2C08EE00E94200F609106088091A403F1
:1037700087FFAEC08FE00E94200F60910608809105
:10378000A30380FFAAC087E00E94200F6091060873
:103790008091A30381FFA6C086E00E94200F609164
:1037A00006088091A30382FFA2C085E00E94200F3B
:1037B000609106088091A30383FF9EC084E00E946D
:1037C000200F609106088091A30384FF9AC083E0D4
:1037D0000E94200F609106088091A30385FF96C088
:1037E00082E00E94200F609106088091A30386FF6B
:1037F00092C081E00E94200F609106088091A3038F
:1038000087FF8EC080E00E94200F08E816E0F12CB0
:10381000E12CC0900408D12CEC14FD040CF005C17F
:10382000D80153968C915397813009F4C1C018F098
:10383000853008F4EDC060910708F80181810E948D
:10384000F601D8011C966D917C911D97EBC080917B
:103850005E06882309F431CF80915F068093A4032C
:10386000809160068093A3032ACF80918B068111FB
:1038700005C08091C006882309F421CF8091650698
:103880008093A40380916406EDCF81E0611180E014
:10389000682F31CF81E0611180E0682F35CF81E062
:1038A000611180E0682F39CF81E0611180E0682FDD
:1038B0003DCF81E0611180E0682F41CF81E061114F
:1038C00080E0682F45CF81E0611180E0682F49CF0B
:1038D00081E0611180E0682F4DCF81E0611180E0CF
:1038E000682F51CF81E0611180E0682F55CF81E0D2
:1038F000611180E0682F59CF81E0611180E0682F6D
:103900005DCF81E0611180E0682F61CF81E06111BE
:1039100080E0682F65CF81E0611180E0682F69CF7A
:1039200081E0611180E0682F6DCFD12CC12CF12C8A
:10393000E12CE114F104A1F57092A10399E0A92E04
:1039400098E0B92E10E000E0460131E0831A9108BA
:10395000D5018D915D01823098F060910608FD01DE
:10396000E80DF91D80812091A10330E0002E02C0F6
:10397000359527950A94E2F720FF15C00E94F601BD
:103980000F5F1F4F0830110519F7B8E0CB0ED11C9F
:10399000EA94EF2809F439CFEE24E394F12CC9CF4F
:1039A0006092A103CBCF91E0611190E0692FE6CF47
:1039B000F80183818823B9F0848595858B3F910533
:1039C00020F08FEF90E09587848760910708D801F9
:1039D00011968C910E94F601F801648575858281AB
:1039E0000E947E020FC06FEF70E012968C910E94D1
:1039F0007E0261E080910708811160E0F801818119
:103A00000E94F601BFEFEB1AFB0A0B5C1F4F01CFC0
:103A100013968C911397882319F060910708D8CFDB
:103A200070E060E012968C91DBCF809136018823A4
:103A300009F465C3312C212C188A1F868091040853
:103A4000EF85F8898E171F0609F00CF471C3AF815A
:103A5000B88558968D909D90AD90BC905B971896C8
:103A60002D913D914D915C911B97C501B4010E9430
:103A7000D1292B013C01EF81F88544825582668271
:103A80007782838982509381833008F08AC1992399
:103A900009F47CC120E030E0A901C501B4010E9415
:103AA0009D2B18160CF072C1F101EB55FC4FC08034
:103AB000D180E280F380A5019401C301B2010E948C
:103AC000432A2B013C0120E030E0A9010E949D2BFC
:103AD00053014201181624F0B7FAB094B7F8B09425
:103AE000AF81B885D3966C9170E090E080E00E9441
:103AF000EB2A20E030E048EC52E40E94432AA50182
:103B000094010E943E2A87FF16C1EF81F88525A106
:103B100036A147A150A5C301B2010E94A22B20E00B
:103B200030E04CEC51E40E94432AA70196010E9428
:103B3000D229698B7A8B8B8B9C8B0E943D038101F0
:103B40000B531C4FD801CD90DD90ED90FC909B0164
:103B5000AC012C193D094E095F0969017A010E94E7
:103B60003D03D8016D937D938D939C931397F10141
:103B7000E354FC4FFA87E987C701B6010E94EB2A9C
:103B80002FE632E143E85AE30E94A22B6B877C8741
:103B90008D879E879B01AC01C301B2010E94A22BBD
:103BA000A985BA852D913D914D915C910E94D229B4
:103BB000E985FA85608371838283938381010B5445
:103BC0001C4FAF81B8859996CD90DD90ED90FC901B
:103BD0009C97A70196010E94A22BF80120813181B8
:103BE000428153810E94D2294B015C0120E030E0E8
:103BF00040E251E40E949D2B18160CF4BDC0D80180
:103C00008D929D92AD92BC92139720E030E040E2FD
:103C100051ECD8016D917D918D919C910E943E2A2D
:103C200087FF09C080E090E0A0E2B1ECF80180835A
:103C30009183A283B38320E030E0A901C701B601DC
:103C40000E943E2A81110CC0D8011D921D921D9226
:103C50001C921397E985FA851082118212821382D1
:103C6000D8012D913D914D915C9169897A898B891B
:103C70009C890E94D2296B017C01810103551C4F54
:103C8000F8012081318142815381C301B2010E9438
:103C9000D129AF81B8859D962D913D914D915C9133
:103CA000D0970E94A22B2B853C854D855E850E9476
:103CB000432A2FE632E143E85AE30E94A22BA701F0
:103CC00096010E94D2296B017C01F8014082518249
:103CD00062827382AF81B885D2961C91612F70E0A9
:103CE00090E080E00E94ED2A9B01AC01C701B60183
:103CF0000E949D2B181644F4612F70E090E080E044
:103D00000E94EB2A6B017C01EF81F88511A9612FDC
:103D100070E090E080E00E94ED2AA70196010E94E9
:103D20009D2B181644F4612F70E090E080E00E9413
:103D3000EB2A6B017C01F101EB55FC4FC082D18273
:103D4000E282F382C701B6010E94B52AAF81B8852D
:103D50001D967C936E931C972F8538892F5F3F4F5C
:103D6000388B2F874F8158854B5C5F4F58874F8327
:103D700054E0250E311C62CE80E090E0A0E2B1E478
:103D8000F80180839183A283B3833FCFF101EB5489
:103D9000FC4F1082118212821382C12CD12C760129
:103DA000CACF992309F4A7C120E030E0A901C501D9
:103DB000B4010E949D2B18160CF09DC1A501940121
:103DC000C301B2010E94432A6B017C0120E030E074
:103DD000A9010E949D2B18160CF421C1A701960180
:103DE00050582B873C874D875E87AF81B885D39627
:103DF0006C9170E090E080E00E94EB2A20E030E0DF
:103E000048EC52E40E94432A2B853C854D855E8513
:103E10000E943E2A87FF68C1EF81F88525A136A15F
:103E200047A150A5C701B6010E94A22B6D8B7E8BC6
:103E30008F8B988F0E943D0381010B531C4FD8013B
:103E40008D909D90AD90BC909B01AC0128193909D3
:103E50004A095B0949015A010E943D03D8016D934B
:103E60007D938D939C931397F101E354FC4FFA8754
:103E7000E987C501B4010E94EB2A2FE632E143E84D
:103E80005AE30E94A22B698B7A8B8B8B9C8B9B01B4
:103E9000AC01C701B6010E94A22BA985BA852D915C
:103EA0003D914D915C910E94D229E985FA8560830C
:103EB00071838283938381010B541C4FAF81B8853A
:103EC00099968D909D90AD90BC909C97A501940182
:103ED0000E94A22BF80120813181428153810E94EE
:103EE000D2292B013C0120E030E040E251E40E9465
:103EF0009D2B18160CF498C0D8014D925D926D92CE
:103F00007C92139720E030E040E251ECD8016D91B3
:103F10007D918D919C910E943E2A87FF09C080E08F
:103F200090E0A0E2B1ECF80180839183A283B38397
:103F300020E030E0A901C501B4010E943E2A8111B0
:103F40000CC0D8011D921D921D921C921397E985F9
:103F5000FA851082118212821382D8012D913D912F
:103F60004D915C916D897E898F89988D0E94D229AF
:103F70004B015C01810103551C4FF8012081318107
:103F800042815381C701B6010E94D129AF81B88512
:103F90009D962D913D914D915C91D0970E94A22BC1
:103FA00029893A894B895C890E94432A2FE632E1AC
:103FB00043E85AE30E94A22BA50194010E94D22952
:103FC0004B015C01F801C082D182E282F38220E0E1
:103FD00030E0A9010E949D2B75016401181624F0A0
:103FE000F7FAF094F7F8F094AF81B885D1961C9168
:103FF000612F70E090E080E00E94ED2A2B013C01EF
:10400000A70196010E949D2B1816C4F4612F70E041
:1040100090E080E00E94EB2A6B017C0139C0CB86E6
:10402000DC86ED86FE86E1CE80E090E0A0E2B1E4A1
:10403000F80180839183A283B38364CFEF81F885F5
:1040400064A970E090E080E00E94EB2A20E030E07C
:1040500048EC52E40E94432A9B01AC016B857C85AD
:104060008D859E850E943E2A87FF28C020E030E093
:1040700040E450E4C301B2010E94A22B3B018C0139
:104080009B01AC01C701B6010E949D2B18164CF193
:1040900020E030E0A901C501B4010E949D2B181653
:1040A00024F0F7FAF094F7F8F094C701B6010E94F3
:1040B000B52AEF81F885758764874ECEAF81B885C4
:1040C000D2961C91612F70E090E080E00E94ED2A72
:1040D0009B01AC01C701B6010E949D2B1816C4F6C6
:1040E00095CF63017801D4CFF101EB54FC4F1082DE
:1040F000118212821382C12CD12C7601D6CF10E00E
:1041000000E0C016D106A1F0AF81B88590966D9100
:104110007D918D919C9193970E94BC2AEF81F885A7
:10412000758764870F5F1F4FF596F887EF83E9CF98
:104130000E943D030091320110913301209134011E
:1041400030913501601B710B820B930B693C71053B
:104150008105910508F4A4C10E943D0360933201DA
:1041600070933301809334019093350108E816E091
:104170007801D12CC12CB5E67B2E8FE7682E80917B
:1041800004088C151D0409F00CF4C3C07092660677
:104190006092670680910308F0E18F9FC0011124AF
:1041A0008C298093680620E030E04AE754E4D70188
:1041B00018966D917D918D919C911B970E94A22BD9
:1041C0000E94BC2A6093690670936A0680936B060E
:1041D000F701848C958CA68CB78C20E030E0A90187
:1041E000C501B4010E949D2B18160CF08BC0D7019D
:1041F00054966D917D918D919C9157970E94EB2AD9
:1042000020E030E040E251E40E94A22BA50194019D
:104210000E94432A0E94BC2A60936C0670936D062C
:1042200080936E06F7019485858590936F06809341
:104230007006109271060E943D0380909606909041
:104240009706A0909806B0909906681979098A098E
:104250009B09603A7F408105910528F480917106A1
:104260008160809371060E943D038090CB06909000
:10427000CC06A090CD06B090CE06681979098A09BF
:104280009B09603A7F408105910528F48091710671
:10429000826080937106E6E6F6E090E080E021918E
:1042A000820F911D42E756E04E175F07C1F78093DA
:1042B00072066091660670E090E080E04AE00E943D
:1042C000EE09A7E6AA2EA6E0BA2E83EB92E00E94A2
:1042D000DD09D5016D915D0170E090E080E04AE07C
:1042E0000E94EE09E3E7F6E0EA15FB0571F782E7C5
:1042F00091E00E94320AFFEFCF1ADF0A25E3E20EB7
:10430000F11C3DCF10926C0610926D0610926E0655
:1043100089CF80918706882309F4C2C0F12CE12C53
:10432000E5E6DE2EFFE7CF2E809104088E151F04F0
:1043300009F00CF4B5C0D092CD03C092CE038091A9
:10434000030830E1839FC00111248E298093CF039D
:1043500020E030E04AE754E4D80118966D917D9151
:104360008D919C911B970E94A22B0E94BC2A609366
:10437000D0037093D1038093D203F801848C958C81
:10438000A68CB78C20E030E0A901C501B4010E94E1
:104390009D2B18160CF07DC0D80154966D917D911F
:1043A0008D919C9157970E94EB2A20E030E040E2EB
:1043B00051E40E94A22BA50194010E94432A0E946D
:1043C000BC2A6093D3037093D4038093D503F80180
:1043D000948585859093D6038093D7031092D80354
:1043E0000E943D038090960690909706A0909806B4
:1043F000B0909906681979098A099B09603A7F404B
:104400008105910528F48091D80381608093D803B9
:104410000E943D038090CB069090CC06A090CD06E4
:10442000B090CE06681979098A099B09603A7F40E5
:104430008105910528F48091D80382608093D80388
:10444000EDECF3E090E080E02191820F911D49EDC9
:1044500053E04E175F07C1F78093D9034FE255E74A
:104460006CE271E084ED97E10E94EC0A8DE0EDECE6
:10447000F3E0AFE6B4E001900D928A95E1F78DE0AC
:1044800090E00E94EE045FEFE51AF50A0B5C1F4F07
:104490004BCF1092D3031092D4031092D50397CF31
:1044A00080918706882309F439C18091EF0388231E
:1044B00079F06091ED037091EE036115710509F0DB
:1044C00047C16FEF7BE08CE00E9469041092EF031C
:1044D00089E30E947604F12CE12C8823D9F16091C4
:1044E000ED037091EE0380E00E946904BE016F5FEE
:1044F0007F4F86E090E00E94040489819A81909326
:10450000EE038093ED038D819E817C01A0E8EA2279
:10451000FF2487FF13C08B819C810497E090EB03FD
:10452000F090EC03B1E0EB1AF1088E159F0508F44A
:104530007C0165E474E0C7010E940404F701EB5BB1
:10454000FB4F1082E1E0E093EF0340E46EE180E88E
:104550000E942B0480914D06882369F08091050408
:10456000823009F4FEC008F0F6C0882309F477C150
:10457000813009F49FC1E114F10409F02AC280914D
:104580004C06857029F180914A0690914B06892B43
:10459000F9F461E184ED0E945C0461E082ED0E9427
:1045A0005C048AEE0E94760480FDFBCF60E082ED21
:1045B0000E945C0489ED0E94760482FF09C086E4B3
:1045C00096E00E94700A80914C06886080934C06A9
:1045D00080914A0690914B06019690934B068093EA
:1045E0004A0680914506813009F06EC080914C06E4
:1045F00081FF6AC082E080934506809131018F5F20
:1046000080933101182F1F718BE396E00E94920076
:104610006BE376E0882309F4D9C189E394E00E9432
:10462000DA0A08E0009351041092520449E050E085
:1046300064EC70E083E594E00E94B2298CE2809300
:10464000560486E080935C040E94E30310926904A0
:1046500010926A048BE08093670410936804EBE681
:10466000F4E0DF011D920A95E9F780913001809313
:104670006D048D5F8093300180E68093730482E047
:104680008093740493E090937504109276041092D2
:104690007704109278041092790410927A0480932F
:1046A0007B0494E090937C0480937D0486E2809365
:1046B0007E0422E040E250E06AE182E30E9490033F
:1046C0008AE390E00E948E0481E496E00E949200CA
:1046D000882379F08091400681110BC080913F06BC
:1046E000811107C081E496E00E94700AB1E0B093A6
:1046F0003F068BE396E00E949200882379F0809138
:104700003A0681110BC080913906811107C08BE3F5
:1047100096E00E94700AE1E0E093390680E597E0B8
:104720000E944701892B09F43EC480E597E00E946E
:104730004701C3970CF4E1C280E597E00E9447016E
:10474000892B09F4D6C280E597E00E942501F4CFB9
:1047500061507109B8CE833009F456C0843009F035
:104760000ACF65E0C7010E942305882309F4CBC066
:104770008091F403811108C088E30E947604682FB9
:104780006E7F88E30E945C046FE774E08CE497E03E
:104790000E94680AEFE5F5E097012B5B3B4F69014A
:1047A0008F010E5F1F4FB1808081863009F4FDC0FC
:1047B00008F0C0C0813009F4EEC0833009F4F1C0C4
:1047C000F801EB0DF11DEC15FD0550F30E943D03C2
:1047D0006093FD037093FE038093FF0390930004A6
:1047E00080914606882361F010924B0610924A068B
:1047F00091E090934C0666E476E0CB010E94680A53
:1048000083E080930504B7CE809001049090020469
:10481000A0900304B0900404FFEF8F169F06AF062C
:10482000BF0609F4A8CE0E943D030091FD0310913C
:10483000FE032091FF0330910004601B710B820B7B
:10484000930B681579058A059B0508F494CE8CE4D2
:1048500097E00E94480B84E08093050420C00E94EA
:104860003D036093F5037093F6038093F7039093F1
:10487000F803ECE4F7E084E0DF011D928A95E9F7A4
:1048800090E080E00E94480B88E30E947604682F45
:10489000616088E30E945C04B1E0B09305040E946B
:1048A0003D036093F9037093FA038093FB039093A5
:1048B000FC0361CE62E0C7010E942305882319F141
:1048C0006FE774E0CE0101960E94680AEFE5F5E01B
:1048D000C7018B5B9B4FBF016E5F7F4F2181308192
:1048E000363351F480EF93E00E94680ACE010196BE
:1048F0000E94480B82E0B0CFFB01E20FF11DE817E8
:10490000F90748F3F3CF0E943D030091F90310919A
:10491000FA032091FB033091FC03601B710B820BA7
:10492000930B613177428105910508F424CE1092F2
:10493000050421CE8A3331F08F3F09F447CF83330A
:1049400009F03ECF10920104109202041092030469
:1049500010920404F801C801049620E030E0A90197
:104960006191542F432F322F2227260F311D411DD5
:10497000511D8E179F07A1F72F3F8FEF380748076C
:104980005807B9F4209301043093020440930304C0
:104990005093040415CFB80188E497E00E94680A98
:1049A0000FCFB80186E496E0F9CFB80181E496E034
:1049B000F5CFA8EEB3E00E94412C60930104709300
:1049C00002048093030490930404FACE8FE394E0EE
:1049D00026CEF9E2EF16F10408F4A0CE809151043E
:1049E000883009F09BCE80915204863009F071C462
:1049F00044E050E06CE477E08BE694E00E945D2EAA
:104A0000892B09F08BCE80915A04813029F58BE4F3
:104A100094E00E945D0A1092590482E080935A0447
:104A20006BE574E085E694E00E943E0A66E074E07F
:104A30008BE594E00E943E0A61E674E08BE694E028
:104A40000E94680A6CE477E081E694E00E94680ABC
:104A50008AE290E00E948E0480914C0683FF0DC094
:104A600010915A04123049F46FE374E086E496E042
:104A70000E94460A811110934C06809140068111D4
:104A800011C080913F06882369F069E374E081E4F6
:104A900096E00E94460A882329F021E020934006F0
:104AA00010923F0680913A06811138CE80913906E6
:104AB000882309F433CE69E374E08BE396E00E9427
:104AC000460A882309F42ACE31E030933A06109240
:104AD000390624CE90913804911122C046E3E416A1
:104AE000F10408F41BCE00915C04063009F016CEE8
:104AF000809169048B3009F0ABC044E050E06BE377
:104B000076E08FE594E00E945D2E892B09F006CEB9
:104B10001091740412FF51C085E080934506FECDCC
:104B20008131E1F630E1C32E34E0D32EB12CA12C3B
:104B300020E0809138048A151B04D9F1D4F1D60104
:104B400012963C91129713969C9113978091690449
:104B50009F8F18A2EF8DF8A18E171F0619F580916F
:104B60006A0483131FC014969C9014979920D1F067
:104B700000916B0410E0102F002720916C04285046
:104B8000330B020F131F40916704509168045427A0
:104B900045275427ED91FC912FE634E06FE574E052
:104BA0000995292DFFEFAF1ABF0A35E0C30ED11CBE
:104BB000C0CF222309F492CFB1CD0E944A032091A5
:104BC0004506223089F5212F20711271123101F52D
:104BD00060E090E080E00E94B60A88E1809374046F
:104BE00083E0809345061092550488E28093560432
:104BF0000E94E303109277041092780422E04CE1C3
:104C000050E06AE182E30E94900386E390E0A7C34C
:104C100041E0409345060196222311F090E080E0A8
:104C200064E00E94B60A7ACD253009F477CD10FFF2
:104C30000AC0233009F472CD69E001960E94B60AD9
:104C4000009345066BCD60E0009709F467CDE9CF8E
:104C5000811164CD80916A04803509F05FCD109197
:104C6000740411FF39C0109255048CE280935604ED
:104C70000E94A40A82E18093740460E081E090E0E5
:104C80000E94650310926B0410926C0480913001B5
:104C900080936D0410926E048D5F8093300182E0EA
:104CA00080937B0484E080937C0485E080937D0482
:104CB00010927E0490E6909373048093750488E7C5
:104CC0008093760422E040E250E06AE182E30E94B1
:104CD00090038AE390E043C314FF20CD0E944A036F
:104CE000892B09F01BCD10FF19CD60E090E080E02A
:104CF00098CF109286061092850680918506909135
:104D000086068B365FE7950709F4ECC1D8F4863642
:104D1000BFE79B0709F45CC088369F4709F456C17A
:104D200080E597E00E9425018AA319A290914E0682
:104D300029A13AA1292B30938606209385068093DA
:104D40004E0631C18137FFE79F0709F408C2823759
:104D50002FE7920709F45CC28C369F4709F78BE076
:104D60008093840680E597E00E94470109970CF440
:104D70001AC110928606109285068CE6809366060C
:104D80008FE78093670608E616E021E7E22E26E02B
:104D9000F22E680180E597E00E942501D6018D93EF
:104DA0006D01EA16FB06B1F76BE086E696E00E941D
:104DB000C309882309F4F7C0EFE4F6E087E596E03D
:104DC000D8012D918D0121938E179F07C9F7EBC054
:104DD00081E18093840680E597E00E9447010F9768
:104DE0000CF4E1C0109286061092850686E6809348
:104DF00066068FE78093670608E616E0F7E7EF2E72
:104E0000F6E0FF2E80E597E00E942501D8018D9302
:104E10008D01EA16FB06B1F761E186E696E00E9495
:104E2000C309882309F4BFC000916806902F9295AA
:104E30009F70809103089813B6C00F70809104088A
:104E4000081708F0B0C080916906809365068091CC
:104E50006A0680936406E02EF12CB5E30B9F800177
:104E600011240857194F20916C0660916D0670E06F
:104E700090E080E0CB0177276627722B20916B06AC
:104E8000622B0E94EB2A2FE632E143E85AE30E94AC
:104E9000A22BF801608F718F828F938F20916F0604
:104EA0006091700670E090E080E0CB017727662784
:104EB000722B20916E06622B0E94EB2A2FE632E1C4
:104EC00043E85AE30E94A22BD8015C966D937D9330
:104ED0008D939C935F978091710652968C9380FF7F
:104EE00005C0F801148A158A168A178A95E39E9DD3
:104EF000F0019F9DF00D1124E857F94F81FD63C02B
:104F0000138A82FF0BC095E39E9DF0019F9DF00DDB
:104F10001124E857F94F93899E5F938B83FF0BC051
:104F200095E39E9DF0019F9DF00D1124E857F94FE8
:104F300093899C5F938B84FB992790F99093370119
:104F400095E39E9D80019F9D100D11240857194FD8
:104F500085FB992790F9D80194969C9386FB882726
:104F600080F9809336018091720680936306809168
:104F70007306809362066091740670917506072E21
:104F8000000C880B990B0E94ED2AF80160A371A315
:104F900082A393A30E943D03D8011E966D937D9337
:104FA0008D939C93519780E090E0892B11F40C94A1
:104FB000EE180E945301882311F40C94EE180E94FD
:104FC00000000C94EE1821E0238B9BCF82E18093AC
:104FD000840680E597E00E944701409724F31092F1
:104FE00086061092850688E6809366068FE7809392
:104FF000670608E616E048E7E42E46E0F42E80E572
:1050000097E00E942501F80181938F01EE16FF06BB
:10501000B1F762E186E696E00E94C309882319F29F
:1050200000916806902F92959F70809103089813C5
:10503000BACF0F7080910408081708F0B4CFF5E3D9
:105040000F9F800111240857194F609169067091D4
:105050006A0680916B0690916C060E94EB2A27E10C
:1050600037EB41ED58E30E94A22BD80195966D9342
:105070007D938D939C93989760916D0670916E06C9
:1050800080916F06909170060E94EB2A27E137EB22
:1050900041ED58E30E94A22BF80161A772A783A7F4
:1050A00094A7609171067091720680917306909139
:1050B00074060E94EB2A27E137EB41ED58E30E948A
:1050C000A22BD8019D966D937D938D939C93D09741
:1050D00080917506D1968C93D19780917606D29661
:1050E0008C9361CF86E08093840680E597E00E94F0
:1050F000470104970CF457CF10928606109285064C
:105100008BE6809366068FE78093670608E616E0D5
:105110003EE5E32E36E0F32E80E597E00E94250180
:10512000F80181938F01D7018D937D01EC56F640F4
:1051300099F766E086E696E00E94C309882309F4A1
:1051400032CFE1E0E0935B060E943D036093570697
:10515000709358068093590690935A0624CF88E09E
:105160008093840680E597E00E94470106970CF43F
:105170001ACF109286061092850681E78093660604
:105180008FE78093670608E616E09EE6E92E96E034
:10519000F92E80E597E00E942501F80181938F01A7
:1051A000EE16FF06B1F768E086E696E00E94C309B6
:1051B000882309F4F8CE80916806809303088091D3
:1051C00069068093040880916A068093050880919F
:1051D0006B0680FF14C0F1E0F093080881FF12C055
:1051E00021E02093060882FF10C031E030930708C9
:1051F00080916C06809319080E94BF0FD4CE109244
:105200000808ECCF10920608EECF10920708F0CFF6
:1052100089E18093840680E597E00E9447014797E3
:105220000CF4C1CE109286061092850682E7809318
:1052300066068FE78093670608E616E08FE7E82E9C
:1052400086E0F82E80E597E00E942501D8018D9335
:105250008D01EA16FB06B1F769E186E696E00E9449
:10526000C309882309F49FCE80916806809388063D
:10527000809169068093BD0680916A0680938906B5
:1052800080916B068093BE0680916C0680938A069F
:1052900080916D068093BF06EEE6F6E0A9E0B8E0E7
:1052A0008EE796E021912D938E179F07D9F70E94E4
:1052B000BF0F68E876E084E690E00E94E70F6DEBB0
:1052C00076E084EB90E00E94E70FF0E0E0E00995E3
:1052D0006ACEF9E2EF16F10409F420CA81111ECA60
:1052E00080915304853409F019CA44E050E06CE41D
:1052F00077E083E694E00E945D2E892BA9F044E0DC
:1053000050E06CE074E083E694E00E945D2E892B0F
:1053100059F044E050E066E471E083E694E00E94D6
:105320005D2E892B09F0FAC980915C04813009F067
:10533000D1CB90916704983009F0CCCB0E94A40A9D
:105340001092670480916904883F28F090916A0464
:105350009F5F90936A04885F80936904C7010E94ED
:105360008E04DCC9FB01DC0102C005900D924150A6
:105370005040D8F70895F999FECF92BD81BDF89AB3
:10538000992780B50895262FF999FECF1FBA92BDAF
:1053900081BD20BD0FB6F894FA9AF99A0FBE019616
:1053A00008955058BB27AA270E94E9290C94632B23
:1053B0000E94552B38F00E945C2B20F039F49F3F5F
:1053C00019F426F40C94522B0EF4E095E7FB0C94A0
:1053D0004C2BE92F0E94742B58F3BA1762077307FE
:1053E0008407950720F079F4A6F50C94962B0EF41B
:1053F000E0950B2EBA2FA02D0B01B90190010C01E5
:10540000CA01A0011124FF27591B99F0593F50F4FC
:10541000503E68F11A16F040A22F232F342F442754
:10542000585FF3CF469537952795A795F04053954C
:10543000C9F77EF41F16BA0B620B730B840BBAF01C
:105440009150A1F0FF0FBB1F661F771F881FC2F787
:105450000EC0BA0F621F731F841F48F4879577959B
:105460006795B795F7959E3F08F0B0CF9395880F55
:1054700008F09927EE0F9795879508950E94282B9D
:1054800008F481E008950E94572A0C94632B0E942F
:105490005C2B58F00E94552B40F029F45F3F29F017
:1054A0000C944C2B51110C94972B0C94522B0E9462
:1054B000742B68F39923B1F3552391F3951B550B86
:1054C000BB27AA2762177307840738F09F5F5F4FD7
:1054D000220F331F441FAA1FA9F335D00E2E3AF016
:1054E000E0E832D091505040E695001CCAF72BD02E
:1054F000FE2F29D0660F771F881FBB1F261737077F
:105500004807AB07B0E809F0BB0B802DBF01FF27B0
:1055100093585F4F3AF09E3F510578F00C944C2B16
:105520000C94972B5F3FE4F3983ED4F386957795E0
:105530006795B795F7959F5FC9F7880F911D969569
:10554000879597F90895E1E0660F771F881FBB1FC5
:10555000621773078407BA0720F0621B730B840B72
:10556000BA0BEE1F88F7E09508950E94BC2A689454
:10557000B1110C94972B08950E947C2B88F09F57B3
:1055800098F0B92F9927B751B0F0E1F0660F771F67
:10559000881F991F1AF0BA95C9F714C0B13091F05D
:1055A0000E94962BB1E008950C94962B672F782FCC
:1055B0008827B85F39F0B93FCCF386957795679522
:1055C000B395D9F73EF490958095709561957F4F8E
:1055D0008F4F9F4F0895E89409C097FB3EF4909534
:1055E0008095709561957F4F8F4F9F4F9923A9F0BC
:1055F000F92F96E9BB279395F6958795779567954B
:10560000B795F111F8CFFAF4BB0F11F460FF1BC08E
:105610006F5F7F4F8F4F9F4F16C0882311F096E921
:1056200011C0772321F09EE8872F762F05C06623CF
:1056300071F096E8862F70E060E02AF09A95660F88
:10564000771F881FDAF7880F9695879597F9089541
:10565000990F0008550FAA0BE0E8FEEF1616170683
:10566000E807F907C0F012161306E407F50798F0EB
:10567000621B730B840B950B39F40A2661F0232B04
:10568000242B252B21F408950A2609F4A140A69580
:105690008FEF811D811D089597F99F6780E870E065
:1056A00060E008959FEF80EC089500240A94161698
:1056B000170618060906089500240A941216130600
:1056C000140605060895092E0394000C11F488238E
:1056D00052F0BB0F40F4BF2B11F460FF04C06F5FAA
:1056E0007F4F8F4F9F4F089557FD9058440F551F80
:1056F00059F05F3F71F04795880F97FB991F61F054
:105700009F3F79F087950895121613061406551FCA
:10571000F2CF4695F1DF08C0161617061806991F36
:10572000F1CF86957105610508940895E894BB272B
:1057300066277727CB0197F908950E94282B08F454
:105740008FEF08950E94B52B0C94632B0E94552B6C
:1057500038F00E945C2B20F0952311F00C944C2B18
:105760000C94522B11240C94972B0E94742B70F3E1
:10577000959FC1F3950F50E0551F629FF001729FF6
:10578000BB27F00DB11D639FAA27F00DB11DAA1F05
:10579000649F6627B00DA11D661F829F2227B00D52
:1057A000A11D621F739FB00DA11D621F839FA00DDD
:1057B000611D221F749F3327A00D611D231F849F2D
:1057C000600D211D822F762F6A2F11249F57504084
:1057D0009AF0F1F088234AF0EE0FFF1FBB1F661FFF
:1057E000771F881F91505040A9F79E3F510580F0C8
:1057F0000C944C2B0C94972B5F3FE4F3983ED4F31E
:10580000869577956795B795F795E7959F5FC1F76B
:10581000FE2B880F911D9695879597F90895DB01CA
:105820008F939F930E94412CBF91AF91A29F800DB7
:10583000911DA39F900DB29F900D11240895A1E298
:105840001A2EAA1BBB1BFD010DC0AA1FBB1FEE1FFA
:10585000FF1FA217B307E407F50720F0A21BB30B45
:10586000E40BF50B661F771F881F991F1A9469F7C1
:1058700060957095809590959B01AC01BD01CF011D
:1058800008950E94292DA59F900DB49F900DA49F6F
:10589000800D911D11240895689401C0E894F92F9A
:1058A000F12B12F00C94802CA0E0B0E0EAE5FCE2D1
:1058B0000C94F22C092E059422F40E94DC2C112366
:1058C00092F4F0E80F26FFEFE094F0940095109525
:1058D000B094C094D094A194BF0ACF0ADF0AEF0A13
:1058E000FF0A0F0B1F0B0E948B2C07FC0E94DC2C65
:1058F000CDB7DEB7ECE00C940E2D689401C0E894AF
:105900008F929F92CF93DF930E948B2CDF91CF9148
:105910009F908F90089588249924F401E401B0E4C5
:105920009F93AA279A158B049C04ED05FE05CF05CD
:10593000D007A10798F4AD2FDC2FCF2FFE2FE92D34
:10594000982C892E982F872F762F652F542F432F31
:10595000322F2227B85031F7BF9127C01B2EBF919D
:10596000BB27220F331F441F551F661F771F881F39
:10597000991F881C991CEE1FFF1FCC1FDD1FAA1F3B
:10598000BB1F8A149B04EC05FD05CE05DF05A007AF
:10599000B10748F08A189B08EC09FD09CE09DF0918
:1059A000A00BB10B21601A94E1F62EF49401AF0123
:1059B000BE01CD01000C089560957095809590957D
:1059C00030954095509521953F4F4F4F5F4F6F4F0A
:1059D0007F4F8F4F9F4F08952F923F924F925F922C
:1059E0006F927F928F929F92AF92BF92CF92DF92EF
:1059F000EF92FF920F931F93CF93DF93CDB7DEB754
:105A0000CA1BDB0B0FB6F894DEBF0FBECDBF0994E7
:105A10002A88398848885F846E847D848C849B843E
:105A2000AA84B984C884DF80EE80FD800C811B814C
:105A3000AA81B981CE0FD11D0FB6F894DEBF0FBE7B
:105A4000CDBFED010895EE0FFF1F0590F491E02DFD
:105A50000994A29FB001B39FC001A39F700D811D47
:105A60001124911DB29F700D811D1124911D089567
:105A70000F931F93CF93DF938230910510F482E050
:105A800090E0E0911C08F0911D0830E020E0B0E0CB
:105A9000A0E0309799F42115310509F44AC0281B7C
:105AA000390B24303105D8F58A819B816115710548
:105AB00089F1FB0193838283FE0111C040815181F2
:105AC0000281138148175907E0F04817590799F4E4
:105AD000109761F012960C93129713961C933296BE
