:100000000C945D000C947C0C0C94550C0C948500A5
:100010000C9485000C9485000C9485000C9485004C
:100020000C9485000C9485000C9485000C9485003C
:100030000C9485000C9485000C9485000C9485002C
:100040000C940B0C0C9485000C94D90B0C94B30BF2
:100050000C9485000C9485000C9485000C9485000C
:100060000C94A30C0C9485000000000024002700D1
:100070002A0000000000250028002B0004040404CE
:100080000404040402020202020203030303030342
:10009000010204081020408001020408102001021F
:1000A00004081020000000080002010000030407FB
:1000B0000000000000000000C20D11241FBECFEFA1
:1000C000D8E0DEBFCDBF12E0A0E0B1E0E0ECFCE3A1
:1000D00002C005900D92AC30B107D9F724E0ACE036
:1000E000B2E001C01D92AA39B207E1F710E0CDE5F8
:1000F000D0E004C02197FE010E94241DCC35D10719
:10010000C9F70E94110E0C945E1E0C940000823000
:10011000C8F4E82FF0E0EE0FFF1FEE5DFE4F718395
:100120006083813041F0809169008C7F8260809390
:100130006900E89A089580916900837F88608093C0
:100140006900E99A089590E020917A04293020F01E
:10015000880F991F611101962091780430917904DC
:10016000232B49F020917B0430E0322F2227330FDC
:100170003064822B932B089508950895AF92BF9217
:10018000CF92DF92EF92FF920F931F93CF93DF9363
:100190006C017B018B01040F151FEB015E01AE1892
:1001A000BF08C017D10759F06991D601ED91FC91B4
:1001B0000190F081E02DC6010995892B79F7C501E1
:1001C000DF91CF911F910F91FF90EF90DF90CF9033
:1001D000BF90AF900895FC01538D448D252F30E0E2
:1001E000842F90E0821B930B541710F0CF96089544
:1001F00001970895FC01918D828D981761F0A28D71
:10020000AE0FBF2FB11D5D968C91928D9F5F9F7336
:10021000928F90E008958FEF9FEF0895FC01918DEC
:10022000828D981731F0828DE80FF11D858D90E059
:1002300008958FEF9FEF0895FC01918D228D892FF6
:1002400090E0805C9F4F821B91098F7399270895DE
:100250008DEC93E00E941C0121E0892B09F420E041
:10026000822F089580E090E0892B29F00E942801D8
:1002700081110C9400000895FC01A48DA80FB92FE2
:10028000B11DA35ABF4F2C91848D90E001968F73BE
:100290009927848FA689B7892C93A089B1898C91DD
:1002A000837080648C93938D848D981306C002882C
:1002B000F389E02D80818F7D80830895EF92FF92F6
:1002C0000F931F93CF93DF93EC0181E0888F9B8D79
:1002D0008C8D98131AC0E889F989808185FF15C033
:1002E0009FB7F894EE89FF896083E889F989808156
:1002F0008370806480839FBF81E090E0DF91CF9125
:100300001F910F91FF90EF900895F62E0B8D10E046
:100310000F5F1F4F0F731127E02E8C8D8E110CC0B5
:100320000FB607FCFACFE889F989808185FFF5CF00
:10033000CE010E943C01F1CFEB8DEC0FFD2FF11DA2
:10034000E35AFF4FF0829FB7F8940B8FEA89FB893D
:1003500080818062CFCFCF93DF93EC01888D88239B
:10036000B9F0AA89BB89E889F9898C9185FD03C018
:10037000808186FD0DC00FB607FCF7CF8C9185FFFD
:10038000F2CF808185FFEDCFCE010E943C01E9CF05
:10039000DF91CF91089590E0FC01EC55FF4F24913F
:1003A000FC01E057FF4F3491FC01E458FF4FE4910A
:1003B000EE23C9F0222339F0233001F1A8F42130D3
:1003C00019F1223029F1F0E0EE0FFF1FEE58FF4F38
:1003D000A591B4918FB7F894EC91611126C0309536
:1003E0003E233C938FBF08952730A9F02830C9F0F1
:1003F000243049F7809180008F7D03C08091800078
:100400008F7780938000DFCF84B58F7784BDDBCF7B
:1004100084B58F7DFBCF8091B0008F778093B00043
:10042000D2CF8091B0008F7DF9CF3E2BDACFCF9322
:10043000DF9390E0FC01E057FF4F249184589F4FD9
:10044000FC0184918823D1F090E0880F991FFC0172
:10045000E859FF4FA591B491FC01EE58FF4FC591AB
:10046000D491623071F49FB7F8943C91822F8095BB
:1004700083238C93E8812E2B28839FBFDF91CF911C
:1004800008958FB7F894EC912E2B2C938FBFF6CF55
:100490001F93CF93DF93182FEB0161E00E941702A7
:1004A000209739F460E0812FDF91CF911F910C9458
:1004B000CB01CF3FD10511F461E0F5CFE12FF0E0A2
:1004C000EC55FF4FE491E33031F140F4E130B1F00D
:1004D000E230E1F0C038D1057CF7E4CFE73029F114
:1004E000E83059F1E430B1F7809180008062809368
:1004F0008000D0938B00C0938A0004C084B58068CC
:1005000084BDC7BDDF91CF911F91089584B58062EE
:1005100084BDC8BDF7CF8091800080688093800043
:10052000D0938900C0938800EDCF8091B00080689F
:100530008093B000C093B300E5CF8091B00080629B
:100540008093B000C093B400DDCF8230910538F0C5
:10055000880F991F880F991F05970197F1F7089544
:100560003FB7F89480917E0290917F02A091800223
:10057000B091810226B5A89B05C02F3F19F00196C6
:10058000A11DB11D3FBFBA2FA92F982F8827BC01ED
:10059000CD01620F711D811D911D42E0660F771F15
:1005A000881F991F4A95D1F708958F929F92AF9215
:1005B000BF92CF92DF92EF92FF924B015C010E94BB
:1005C000B0026B017C010E94B0026C197D098E099A
:1005D0009F09683E734081059105A8F321E0821AC6
:1005E0009108A108B10888EEC80E83E0D81EE11C6E
:1005F000F11C81149104A104B10429F7FF90EF903C
:10060000DF90CF90BF90AF909F908F9008952FB7BD
:10061000F89460917A0270917B0280917C029091B3
:100620007D022FBF0895089520915602260F33278B
:10063000331F21323105ECF42091A303FC0190E03B
:1006400080E0243069F082E00895A0915602219163
:10065000AC014A5C5D4FA40FB52FB11D2C930196E0
:10066000861798F380915602680F6093560280E0D7
:10067000089581E008951092A30381E08093A2037E
:1006800010927D0361E082E10E94CB0161E083E191
:100690000E94CB01E9EBF0E080818E7F8083808136
:1006A0008D7F808388E48093B80085E48093BC00CC
:1006B000089510927C0310927B031092AA0310926B
:1006C000CC030E943B038CEB90E090937A038093E1
:1006D00079038DEB90E090937803809377030895EE
:1006E000CF93DF9391E0909335028823B9F0C091C6
:1006F000B800D091BA008091BC008A7B8093BC0086
:1007000060E082E10E94CB0160E083E10E94CB01C6
:100710000E943B03D093BA00C093B800DF91CF9101
:1007200008958F929F92AF92BF92CF92DF92EF92F5
:10073000FF920F931F93CF93DF93D091CC03D132CD
:1007400008F0D7C0182FC091CB030E94B0026B01F4
:100750007C018091A30381116BC082E08093A3038D
:100760001093A2038FEF8093A1031092A003D09364
:100770009F03ABEAB3E0EFE7F3E080E0D81391C06A
:1007800010927E0380917E03CC0FC82BC0937E0312
:1007900080917D03813009F088C010927D030E9412
:1007A000B0026B017C0180917E038093BB0080913D
:1007B000A5039091A603A091A703B091A803892B4C
:1007C0008A2B8B2BA1F00E94B0020091A5031091FF
:1007D000A6032091A7033091A8036C197D098E0907
:1007E0009F09061717072807390708F442C08091A8
:1007F000BC0083FDD8CF85EC8093BC000E94B00282
:100800006B017C018091A303823009F450C0809178
:10081000A1038F3F09F46FC08091A103803209F4D6
:100820006CC08091A103803309F469C084E026C0C4
:100830008091A5039091A603A091A703B091A8036E
:10084000892B8A2B8B2B09F484CF0E94B0028090D5
:10085000A5039090A603A090A703B090A8036C19DD
:100860007D098E099F0986169706A806B90608F025
:1008700070CF8091A4030E94700385E01092AA03B8
:100880001092CC031092A903DF91CF911F910F9189
:10089000FF90EF90DF90CF90BF90AF909F908F90A0
:1008A00008959D9191938F5F69CF85EEA5CF80913B
:1008B000A5039091A603A091A703B091A803892B4B
:1008C0008A2B8B2B09F49ECF0E94B0020091A503C6
:1008D0001091A6032091A7033091A8036C197D09FC
:1008E0008E099F09061717072807390708F08ACFCE
:1008F000C0CF81E0C3CF80E0C1CF82E0BFCF83E033
:10090000BDCF0895E0917C0380917B03E81730F41C
:10091000F0E0EB5EFD4F808190E008958FEF9FEF58
:10092000089590917C0380917B032FEF3FEF981700
:1009300048F4E92FF0E0EB5EFD4F208130E09F5F4F
:1009400090937C03C901089580917B0390917C036F
:10095000891B990B0895CF92DF92EF92FF920F932C
:100960001F93CF93DF937C01CB018A012091A903D0
:10097000222389F0EB016B01C40ED51ECC15DD05D9
:1009800069F06991D701ED91FC910190F081E02D22
:10099000C7010995F3CF642F0E941403C801DF91AA
:1009A000CF911F910F91FF90EF90DF90CF9008951E
:1009B000CF93DF931F92CDB7DEB769832091A90350
:1009C0002223F9F02091CC03203258F021E030E0CE
:1009D000FC013383228390E080E00F90DF91CF9180
:1009E00008958091AA03E82FF0E0E555FC4F998126
:1009F00090838F5F8093AA038093CC0381E090E083
:100A0000ECCF61E0CE0101960E941403F7CF90E095
:100A100080E008958FB7F894809114028FBF0895F5
:100A2000FC0183858F3F11F00C94CB010895AF92A8
:100A3000BF92CF92DF92EF92FF920F931F93CF93CB
:100A4000DF93EC0188819981892B89F06EBD0DB40B
:100A500007FEFDCFBEB48B2DDF91CF911F910F917B
:100A6000FF90EF90DF90CF90BF90AF900895888572
:100A7000998511E0892B09F010E8AA24A394862F08
:100A8000812309F0A12C062F2C813D814E815F81AD
:100A900060E271EA87E090E00E94F71CF22EB02E2F
:100AA000E12CC22ED12CFF2019F0C6010E94A50214
:100AB0008A85877F09F042C08D858F3F89F0902F0E
:100AC000912381E009F480E08A1551F0EF85F889DF
:100AD0008F89992369F19081892B8083AA24A3941B
:100AE000E989FA898081998D892B8083FF2019F00B
:100AF000C6010E94A5028E858F3F39F0EB89FC89E3
:100B00008081988D892309F0E12AE989FA89908109
:100B1000898D8095892380838E858F3F09F0BE2C37
:100B200088859985892BB9F5110F1111BCCF93CF09
:100B30009081809589238083A12CD2CFE989FA897D
:100B40008081998D892B8083FF2019F0C6010E9436
:100B5000A5028D858F3F49F0EF85F8898F89902F09
:100B60009123A9F09081892B8083E989FA8990816A
:100B7000898D8095892380838E858F3F69F2EB89EB
:100B8000FC898081988D892339F2E12AC5CF908133
:100B900080958923E9CF1695C8CF8CBD9DBD08955A
:100BA0008F929F92AF92BF92CF92DF92EF92FF927D
:100BB0000F931F93CF93DF93EC014B016A01B22E89
:100BC000A32E88819981892B31F0EA81FB81808174
:100BD00091810E94CD0570E060E0CE010E94100579
:100BE0007401C80CD91CEC14FD0479F4EB2CFA2C1C
:100BF0000E0D1F1DE016F10679F06FEFCE010E9479
:100C00001705F70181937F01F5CFF70161917F010E
:100C1000CE010E941705E7CF61E070E0CE010E948F
:100C2000100581E0DF91CF911F910F91FF90EF9020
:100C3000DF90CF90BF90AF909F908F9008958F924C
:100C40009F92AF92BF92CF92DF92EF92FF920F935B
:100C50001F93CF93DF93EC01B62EA72E6A014901B3
:100C600088819981892B31F0EA81FB818081918192
:100C70000E94CD0570E060E0CE010E941005740175
:100C8000080D191DE016F10671F40B2D1A2DC00E7A
:100C9000D11E0C151D0571F0F80161918F01CE0177
:100CA0000E941705F6CFF70161917F01CE010E94E6
:100CB0001705E8CF61E070E0CE010E94100581E0E9
:100CC000DF91CF911F910F91FF90EF90DF90CF9028
:100CD000BF90AF909F908F9008951F93CF93DF9315
:100CE000EA01122FDC0111968D919C91DC01ED91AE
:100CF000FC910280F381E02D0995C817D90729F4EA
:100D0000812F0E94910391E0811190E0892FDF9162
:100D1000CF911F910895CF93DF93EC018B818823AE
:100D2000A1F0888191E09093A9038093CB03109266
:100D3000AA031092CC0381E00E94910391E08111FB
:100D400090E0892FDF91CF9108950E94590381E0AF
:100D50008B83CE010E948B06982F8111E2CFF1CFB9
:100D6000CF92DF92EF92FF920E940703C090100291
:100D7000D0901102E0901202F09013026C197D09DC
:100D80008E099F096B3071058105910558F10E940C
:100D900007036C197D098E099F096093E602709321
:100DA000E7028093E8029093E9028091F202909129
:100DB000F302A091F402B091F5020196A11DB11DBC
:100DC0008093F2029093F302A093F402B093F502A1
:100DD0000E94070360931002709311028093120225
:100DE00090931302FF90EF90DF90CF900895CF92F1
:100DF000DF92EF92FF920E940703C0900C02D09006
:100E00000D02E0900E02F0900F026C197D098E0920
:100E10009F096B3071058105910558F10E94070308
:100E20006C197D098E099F096093E2027093E302B9
:100E30008093E4029093E5020E94070360930C0202
:100E400070930D0280930E0290930F028091EE0238
:100E50009091EF02A091F002B091F1020196A11DD4
:100E6000B11D8093EE029093EF02A093F002B09335
:100E7000F102FF90EF90DF90CF9008950197E5E4A5
:100E8000F3E030E020E04191240F311DAF014554E3
:100E9000534048175907BCF3FC01EB5BFC4F81E062
:100EA0009081921380E00895FC0101900020E9F701
:100EB0003197AF01481B590BBC018DEC93E00C94AA
:100EC000BE008F929F92AF92BF920F931F93CF93CA
:100ED000DF93CDB7DEB7A1970FB6F894DEBF0FBE94
:100EE000CDBF19A2423008F44AE08E010F5D1F4FBA
:100EF000842E912CB12CA12CA50194010E94F71CE9
:100F0000E62FB901CA01EA30F4F4E05DD801EE93AE
:100F10008D01232B242B252B79F790E080E010976F
:100F200019F0CD010E945407A1960FB6F894DEBFC8
:100F30000FBECDBFDF91CF911F910F91BF90AF90AA
:100F40009F908F900895E95CE1CFCF93DF930E944B
:100F50005407EC0186E591E00E9454078C0F9D1F19
:100F6000DF91CF9108952F923F924F925F926F92AF
:100F70007F928F929F92AF92BF92CF92DF92EF9229
:100F8000FF920F931F93CF93DF93CDB7DEB72A97CE
:100F90000FB6F894DEBF0FBECDBF9C838B834F830B
:100FA000588769877A87DC01ED90FC90F70100850E
:100FB000C7010B969E838D839681878199838A834F
:100FC000608071806114710409F420C1418550E092
:100FD000D30114968D919C9115978417950708F469
:100FE00068C18C9191E09093A9038093CB031092F8
:100FF000AA031092CC0320E0BE016F5F7F4FC301B4
:101000000E946D06882309F454C1402E512C312CC6
:10101000212C2414350408F01AC1F3018481958130
:101020008201021913098017910708F48C01D3017A
:10103000CC900E94B0024B015C018091A30381110E
:1010400075C0D02EB0E2B01710F470E2D72EE1E0F8
:10105000E093A30321E0C201801B910B28163906FF
:1010600008F420E02093A203FFEFF093A103109275
:10107000A0038FEF8D0D80939F0381E080937E030B
:1010800080917E03CC0CC82AC0927E0380917D03A0
:10109000813009F092C010927D030E94B0024B0192
:1010A0005C0180917E038093BB008091A5039091A9
:1010B000A603A091A703B091A803892B8A2B8B2BA1
:1010C000A1F00E94B0022091A5033091A6034091A7
:1010D000A7035091A803681979098A099B09261763
:1010E00037074807590708F442C08091BC0083FDC8
:1010F000D8CF95EC9093BC000E94B0024B015C01EC
:101100008091A303813009F45CC08091A0038D1508
:1011100010F4D090A003AFE7B3E0E5E1F2E080E0A7
:101120008D1551F19D9191938F5FFACF8091A50319
:101130009091A603A091A703B091A803892B8A2BB5
:101140008B2B09F47ACF0E94B0022091A503309135
:10115000A6034091A7035091A803681979098A0949
:101160009B09261737074807590708F066CF809173
:10117000A4030E947003D12C10927C03D0927B03B5
:10118000D016110609F095C0AD80BE80A20CB31C2C
:101190006501C6018A199B0980179107A0F5F30123
:1011A00081819281DC01ED91FC910284F385E02D37
:1011B0000995F60181936F01ECCFA5EEA093BC00D9
:1011C0009BCF8091A5039091A603A091A703B09116
:1011D000A803892B8A2B8B2B09F492CF0E94B00293
:1011E0002091A5033091A6034091A7035091A80335
:1011F000681979098A099B0926173707480759078B
:1012000008F07ECFB4CF200E311E03CFD70102806D
:10121000F381E02D309709F44CC014962D913C9148
:10122000159710E019964C9150E02330310561F587
:10123000816089839A834F5F5F4F2D813E81BE011C
:101240006F5F7F4FCF010E94D005882391F1F70196
:10125000408550E090E080E000E010E098018417C5
:10126000950754F5322F212F102F0027D7011A96FA
:101270006C91611119C0FA01E81BF90BEE0DFF1D0D
:101280006285062B0196EBCF2115310519F4906884
:101290009983D3CF2230310511F49F77F9CF2130D4
:1012A000310559F6906CF4CFF701E80FF91F63850B
:1012B000E8CF0FEF1FEF9801EB81FC81A081B18196
:1012C00018968C911897853008F078C0928141E08B
:1012D00050E002C0440F551F9A95E2F74150510962
:1012E000052E000C660B770B93816A017B01092E9A
:1012F00004C0CC0CDD1CEE1CFF1C0A94D2F7C09479
:10130000D094E094F0940C211D212E213F214F8098
:10131000588469847A84442255226622772204C044
:10132000440C551C661C771C9A95D2F7402A512A0A
:10133000622A732A1F964D925D926D927C9252970B
:1013400030E020E0E82EF12C2E153F05BCF41A9673
:101350008C911A9781110BC0FD01E20FF31F438698
:10136000452C562C672C77242F5F3F4FEDCFF7018C
:10137000E21BF30BEA0FFB1F4286F2CF6D01FBE08D
:10138000CF0ED11C16969C91169717968C91179795
:1013900099838A83AD90BC901197A114B10409F48C
:1013A0004DC019960C9110E098012E0D3F1DD501EE
:1013B00014968D919C918217930710F480E016C0CB
:1013C000F50181819281208131E03093A90320933E
:1013D000CB031092AA031092CC0301151105F9F466
:1013E00021E0A701B601C5010E946D062A960FB63D
:1013F000F894DEBF0FBECDBFDF91CF911F910F914B
:10140000FF90EF90DF90CF90BF90AF909F908F9024
:101410007F906F905F904F903F902F900895DC01E8
:10142000ED91FC910280F381E02DA801BE016F5F78
:101430007F4F09950817190709F6D2CF1296ED913B
:10144000FC911397309709F4B9CF14962D913C91E4
:10145000159719960C9110E02330310571F48E7FA9
:1014600089839A830F5F1F4F9E012F5F3F4FA70114
:10147000B601CF010E941F06B9CF2115310519F41D
:101480009F779983F1CF2230310511F49068F9CF1D
:101490002130310549F79F779064F3CF8F929F9267
:1014A000AF92BF92CF92DF92FF920F931F93CF9391
:1014B000DF93CDB7DEB7AE970FB6F894DEBF0FBEA1
:1014C000CDBF082FFF24F394883008F4F12C6F2D42
:1014D00080E00E94A3008090780490907904A0900E
:1014E0007604B09077041BA21CA21DA21EA29F8AA4
:1014F0008E8ABD8AAC8A23E0C22ED12CD98EC88EAA
:1015000011E01D8F9B8F8A8F1E8E1C8F6F2D86E0A2
:101510000E94A300188A198A1A8A1B8A9C828B82CD
:10152000BA82A982DE82CD821A8798878F831B8632
:1015300019870770CE0144969CA78BA71DA70EA7FD
:10154000439798A78FA319A70AA740E050E0BA01D4
:101550008A960E94B30740E050E0BA01CE01879618
:101560000E94B307AE960FB6F894DEBF0FBECDBF94
:10157000DF91CF911F910F91FF90DF90CF90BF909F
:10158000AF909F908F9008950F931F93CF93DF9309
:10159000CDB7DEB767970FB6F894DEBF0FBECDBFED
:1015A000182F062F61E0883008F460E089E00E947F
:1015B000A3004091780450917904209176043091F1
:1015C0007704188A198A1A8A1B8A5C834B833A83A8
:1015D000298323E030E03E832D8321E02A8798870A
:1015E0008F831B862987CE0101969D8B8C8B2E8B3A
:1015F00017701F8B41E050E060E070E0011103C004
:1016000040E050E0BA01CE0144960E94B3076796CD
:101610000FB6F894DEBF0FBECDBFDF91CF911F9103
:101620000F91089585ED8093BC008091A503909162
:10163000A603A091A703B091A8030796A11DB11D11
:1016400023E0B695A795979587952A95D1F7209190
:10165000BC0024FD03C01092A30308954091A5038C
:101660005091A6036091A7037091A803452B462BC8
:10167000472B69F30097A105B10541F025E32A95B1
:10168000F1F700000197A109B109E1CF8091A4030E
:101690000C947003FF920F931F93CF93DF93EC0191
:1016A000F62E08811981C8010E94931AF81621F0BC
:1016B0006F2DC8010E949B1ACE01DF91CF911F911F
:1016C0000F91FF900895EF92FF920F931F93CF9386
:1016D000DF9300D0CDB7DEB786E2E82E81E0F82EAA
:1016E0000AE010E01A830983F70161917F01CE01BE
:1016F00001960E944A0B0F5F1F4F0031110591F7B1
:1017000086E291E00F900F90DF91CF911F910F91A2
:10171000FF90EF900895EF92FF920F931F93CF9356
:10172000DF9300D0CDB7DEB780E8E82E84E0F82E56
:1017300008E210E01A830983F70161917F01CE016D
:1017400001960E944A0B0F5F1F4F0E33110591F750
:1017500080E894E00F900F90DF91CF911F910F914F
:10176000FF90EF9008951F920F920FB60F921124E1
:101770002F933F934F935F936F937F938F939F9399
:10178000AF93BF93EF93FF938DEC93E00E943C01E6
:10179000FF91EF91BF91AF919F918F917F916F9149
:1017A0005F914F913F912F910F900FBE0F901F901F
:1017B00018951F920F920FB60F9211242F938F93AB
:1017C0009F93EF93FF93E091DD03F091DE0380811F
:1017D000E091E303F091E40382FD1BC090818091CE
:1017E000E6038F5F8F732091E703821741F0E0914A
:1017F000E603F0E0E353FC4F958F8093E603FF91FF
:10180000EF919F918F912F910F900FBE0F901F908E
:1018100018958081F4CF1F920F920FB60F9211246A
:101820002F933F938F939F93AF93BF9380917A02AF
:1018300090917B02A0917C02B0917D02309179025F
:1018400023E0230F2D3758F50196A11DB11D2093DC
:10185000790280937A0290937B02A0937C02B093EA
:101860007D0280917E0290917F02A0918002B091D2
:1018700081020196A11DB11D80937E0290937F028B
:10188000A0938002B0938102BF91AF919F918F91FD
:101890003F912F910F900FBE0F901F90189526E843
:1018A000230F0296A11DB11DD2CF1F920F920FB62A
:1018B0000F9211242F933F934F935F936F937F93D6
:1018C0008F939F93AF93BF93EF93FF93E091240186
:1018D000F09125010995FF91EF91BF91AF919F91F3
:1018E0008F917F916F915F914F913F912F910F90C9
:1018F0000FBE0F901F9018951F920F920FB60F9268
:1019000011242F933F934F935F936F937F938F9304
:101910009F93AF93BF93EF93FF93E0912201F091D8
:1019200023010995FF91EF91BF91AF919F918F9105
:101930007F916F915F914F913F912F910F900FBECB
:101940000F901F9018951F920F920FB60F921124AF
:101950002F933F934F935F936F937F938F939F93B7
:10196000AF93BF93EF93FF938091B900887F803648
:1019700009F44AC0F0F5883209F4A7C018F580319F
:1019800009F49BC0B8F4882309F4F9C0883009F43D
:1019900094C0FF91EF91BF91AF919F918F917F91F3
:1019A0006F915F914F913F912F910F900FBE0F90CC
:1019B0001F901895883109F488C0803251F78093C0
:1019C000A10314C0803409F49DC040F48033B9F3FE
:1019D0008833F9F68093A10385ECB0C0803509F413
:1019E00085C0883509F496C0883499F60E94120B98
:1019F000D0CF883909F48CC038F5883729F050F4F5
:101A0000883611F0803729F683E08093A303109283
:101A1000780257C0883809F47BC0803919F08038C3
:101A200009F0B7CF80917802803208F071C0E09160
:101A3000780281E08E0F809378028091BB00F0E005
:101A4000E85AFD4F80833DC0803B39F0E0F4803A96
:101A500009F479C0883A09F09CCF84E08093A3030D
:101A60001092570210925602E0917903F0917A0396
:101A700009958091560281110FC081E08093560232
:101A80001092360209C0803C09F4A6CF883C09F4C4
:101A9000A3CF883B09F07DCFE091570281E08E0F04
:101AA00080935702F0E0EA5CFD4F80818093BB0099
:101AB000909157028091560229C080917E038093B5
:101AC000BB0085EC8093BC0064CF9091A003809113
:101AD0009F03981758F5E091A00381E08E0F809343
:101AE000A003F0E0E158FC4F8081E9CFE091A00332
:101AF00081E08E0F8093A0038091BB00F0E0E1585D
:101B0000FC4F80839091A00380919F039817C8F2A7
:101B100085E8D8CFE091A00381E08E0F8093A003E9
:101B20008091BB00F0E0E158FC4F80838091A203DC
:101B300081115CCF81E080937D0384EA8093BC00B7
:101B40001092A30326CF85EC8093BC001092A303D0
:101B500080917802803230F4E0917802F0E0E85A27
:101B6000FD4F10826091780270E0E0917703F09170
:101B7000780388E592E00995109278020ACF1092D6
:101B8000A10334CFEDECF3E01382128288EE93E0F0
:101B9000A0E0B0E084839583A683B78326E331E099
:101BA0003183208325EC30E03587248724EC30E036
:101BB0003787268720EC30E0318B208B21EC30E01A
:101BC000338B228B22EC30E0358B248B26EC30E0FB
:101BD000378B268B118E128E138E148EEAE6F4E06C
:101BE0001382128284839583A683B78388E491E06D
:101BF00091838083E0E8F4E082E0808383E0818366
:101C000084E0828386E0838385E0848389E0858322
:101C1000E6E7F4E0118210821382128280E184836D
:101C20000895CF93DF93CDB7DEB7A3970FB6F8949F
:101C3000DEBF0FBECDBF789484B5826084BD84B50D
:101C4000816084BD85B5826085BD85B5816085BDB7
:101C500080916E00816080936E001092810080916F
:101C600081008260809381008091810081608093F7
:101C70008100809180008160809380008091B1001C
:101C800084608093B1008091B00081608093B00047
:101C900080917A00846080937A0080917A008260DB
:101CA00080937A0080917A00816080937A0080919D
:101CB0007A00806880937A001092C100E091DD0381
:101CC000F091DE0382E08083E091D903F091DA03A2
:101CD0001082E091DB03F091DC0383E380831092B8
:101CE000E503E091E103F091E20386E08083E09177
:101CF000DF03F091E003808180618083E091DF0366
:101D0000F091E003808188608083E091DF03F091AF
:101D1000E003808180688083E091DF03F091E0033D
:101D200080818F7D808390E080E00E94931A809371
:101D3000850281E090E00E94931A80938602809150
:101D40008502909186028435994009F429C11A824E
:101D5000198264E5CE0101960E944A0B81E090E071
:101D60009A83898369E0CE0101960E944A0B0E9402
:101D7000630B0E948B0B68E873E180E090E00E94A7
:101D8000D50286E591E00E94540789E591E00E9422
:101D9000A50780E791E00E9454076091260170E05A
:101DA00090E080E04AE00E94610786E591E00E94B1
:101DB000540786E591E00E94540780912A01811121
:101DC00003C081E080932A0180912A01833018F0BA
:101DD00082E080932A0180912701882309F403C1BE
:101DE0008CE791E00E94A5070E945903809127018A
:101DF00006E814E0882309F4FEC088E591E00E941B
:101E0000A50783EB91E00E94A5071092840201E0F0
:101E100090E2F92E8091F702811121C08BEC91E0C4
:101E20000E9454070093A903F092CB031092AA03D7
:101E30001092CC0381E00E94910391E0811190E027
:101E40009093F702109184021F5F1093840264EF55
:101E500071E080E090E00E94D5021630D8F288E56B
:101E600091E00E94A5078091F702882309F4BEC083
:101E70008DEC91E00E94A50786E090E00E94391D5C
:101E80008C0180E2D8018C938AE694E012969C93B0
:101E90008E93119713961C92139780E290E01596FB
:101EA0009C938E93149710937704009376040E946A
:101EB000590381E0F8018383C8010E948B0688E002
:101EC0000E944E0A89E00E944E0A8AE00E944E0A51
:101ED0008BE00E944E0A8CE00E944E0A8DE00E9428
:101EE0004E0A8EE00E944E0A8FE00E944E0A87E062
:101EF0000E944E0A86E00E944E0A85E00E944E0A29
:101F000084E00E944E0A83E00E944E0A82E00E9412
:101F10004E0A81E00E944E0A80E00E944E0A009123
:101F200080040093820210918104109383028091B7
:101F3000820480930B038091830480930C0380912F
:101F40008404809309038091850480930A03ABE0A5
:101F5000AA2EA3E0BA2EB9E0CB2EB3E0DB2E82E8A6
:101F6000E82E82E0F82E20912A01C7018258924083
:101F70002817190609F00CF44BC062E0F7018191B3
:101F80007F010E94170261E0D5018D915D010E94E1
:101F9000170261E0F60181916F010E941702E3CF01
:101FA00036E2E32E31E0F32E0AE010E0C8010E9491
:101FB000931AD7018D937D010F5F1F4F00311105DB
:101FC000A9F720E8E22E24E0F22E08E210E0C80192
:101FD0000E94931AF70181937F010F5F1F4F0E3309
:101FE0001105A9F7C8CE87E991E0FCCE81EE91E01A
:101FF0000E94A50794CFD8018D918D01823018F0F1
:1020000061E00E941702B4E006391B07A1F787CFF1
:1020100080E0023021F081E0033009F08FEF67EFBC
:1020200076E00E94870080E0123021F081E01330DA
:1020300009F08FEF60EB76E00E94870088E591E081
:102040000E94A50789EF91E00E94A5078DEC93E01F
:102050000E941C01892B09F428C18DEC93E00E9499
:102060001C014F975CF08DEC93E00E941C01892BC2
:1020700029F08DEC93E00E94FA00F5CF8091900258
:10208000909191028B36FFE79F0709F411C2D8F4B3
:1020900086363FE7930709F456C088369F4709F410
:1020A000A0C18DEC93E00E94FA008BA31AA290913C
:1020B00087022AA13BA1292B309391022093900201
:1020C00080938702F2C08137BFE79B0709F429C2DA
:1020D0008237EFE79E0709F472C28C369F4709F7F3
:1020E0008DEC93E00E941C0109970CF4DEC0109265
:1020F0009102109290028CE6809345038FE78093C3
:10210000460357E4E52E53E0F52E87018DEC93E06E
:102110000E94FA00D8018D938D01B3E000351B07B2
:10212000A9F78BE090E00E943E07882309F4BDC028
:10213000E8E8F2E0D7018D917D018193B2E0E039CA
:10214000FB07C1F7B2C08DEC93E00E941C010C9715
:102150000CF4ABC0109291021092900286E680932C
:1021600045038FE78093460307E413E08DEC93E08B
:102170000E94FA00D8018D938D01B3E003351B074F
:10218000A9F78EE090E00E943E07882309F48DC0F5
:1021900000914703902F92959F708091260198138C
:1021A00084C00F7080912A01081708F07EC08091CA
:1021B00048038093FB02809149038093FA02609167
:1021C0004A0370914B03072E000C880B990B0E9459
:1021D000C51B2DEC3CEC4CEC5DE30E947A1C4B01E2
:1021E0005C0110E07801EE0CFF1CEE0CFF1CF70107
:1021F000EF5EFE4F6F0160914D0370914E0390E0D2
:1022000080E00E94C31B2AE037ED43E25CE30E94BA
:102210007A1CD6016D937D938D939C931397809137
:102220004F0380FF07C0F701EB5CFC4F1082118267
:1022300012821382F801E95DFC4F81FDCCC010824F
:1022400082FF03C090819E5F9083F801EB59FC4FA1
:1022500083FB992790F99083F801E452FD4F84FBAA
:10226000992790F9908391E0282F207285FF90E0C4
:1022700090931D01F701222309F4B0C0E959FC4FE6
:1022800080829182A282B382809150038093F9026E
:10229000809151038093F8020E940703F701E159EE
:1022A000FC4F60837183828393830E9407030091B4
:1022B0001E0110911F012091200130912101601B0E
:1022C000710B820B930B623371058105910510F43C
:1022D0000C94B9190E94070360931E0170931F01AB
:1022E000809320019093210122E932E038872F83E7
:1022F0008DE393E09C8F8B8FA1E1B1E0BC8BAB8B26
:10230000EAE9F2E0FA87E98724EA32E03C832B83AA
:102310003CE9A32E32E0B32E8CEA92E09E838D83BB
:102320004CEB642E42E0742EA4EBB2E0B88BAF8786
:10233000E5E3F3E0FE87ED872DE333E03C872B8771
:10234000912C812C80912A018815190411F00CF030
:1023500083C193E6C92E93E0D92E87E693E09A8B4A
:10236000898B2FE6A22E23E0B22E7C0110E000E044
:1023700080912A018017110609F00CF41DC30E94F8
:102380000703D5014D905D906D907D905D016419BE
:10239000750986099709603A7F408105910508F023
:1023A00009C320E030E0A901F701608171818281D9
:1023B00093810E94751C18160CF0FCC2F801EB59B1
:1023C000FC4F8081D6018D936D010F5F1F4FB4E0EC
:1023D000EB0EF11CCDCF91E0908332CFE15EFC4F4C
:1023E0004FCF8DEC93E00E941C0109970CF45DCF58
:1023F000109291021092900288E6809345038FE735
:102400008093460307E413E08DEC93E00E94FA000A
:10241000F80181938F01F3E000351F07A9F78BE0E6
:1024200090E00E943E07882309F43FCF00914703C4
:10243000902F92959F7080912601981336CF0F7040
:1024400080912A01081708F030CF10E0F801E75F0B
:10245000FE4F809148038083F801E15FFE4F809139
:1024600049038083F801EB5FFE4F80914A0380832C
:10247000F801E55FFE4F80914B038083F801E35F35
:10248000FE4F80914C038083F801E95FFE4F8091FD
:102490004D038083F801E35EFC4F80914E038083FF
:1024A0000E940703000F111F000F111FF801F7CE44
:1024B0008DEC93E00E941C0104970CF4F6CE109270
:1024C0009102109290028BE6809345038FE78093F0
:1024D000460307E413E06EEFE62E62E0F62E8DEC85
:1024E00093E00E94FA00D8018D938D01F70181934A
:1024F0007F01AB54B34099F786E090E00E943E071D
:10250000882309F4D2CE81E0809306030E9407035A
:102510006093020370930303809304039093050375
:10252000C4CE8DEC93E00E941C0105970CF4BDCE47
:10253000109291021092900281E7809345038FE7F9
:102540008093460307E413E08DEC93E00E94FA00C9
:10255000F80181938F01F3E00C341F07A9F787E09E
:1025600090E00E943E07882309F49FCE80914703A4
:10257000809326018091480380932A01809149032A
:1025800080932B0180914A0380FF10C091E09093CB
:10259000270181FF0EC091E09093280182FF0CC0BB
:1025A00081E0809329010E94630B7FCE1092270166
:1025B000F0CF10922801F2CF10922901F4CF8DECC8
:1025C00093E00E941C0147970CF46FCE1092910289
:1025D0001092900282E7809345038FE78093460331
:1025E00007E413E08DEC93E00E94FA00D8018D938C
:1025F0008D01B3E00E351B07A9F789E190E00E9439
:102600003E07882309F451CE8091470380938004CC
:1026100080914803809381048091490380938204D0
:1026200080914A038093830480914B0380938404B8
:1026300080914C0380938504EDE4F3E0A6E8B4E0D8
:1026400081918D9323E0ED35F207D1F70E948B0B3A
:10265000F0E0E0E0099529CE8401000F111F000F82
:10266000111FF801E251FD4F80819181A281B38158
:10267000892B8A2B8B2B09F4A1C0F894808191813E
:10268000A281B3818093EA029093EB02A093EC02C3
:10269000B093ED021082118212821382F801EE5182
:1026A000FD4F80819181A281B3818093DE0290935E
:1026B000DF02A093E002B093E1027894F401E452C7
:1026C000FD4F8081882309F44EC1D801AC52BD4F23
:1026D000BA8BA98BCD90DD90ED90FC908091EA02B1
:1026E0009091EB02A091EC02B091ED02C80ED91EC0
:1026F000EA1EFB1EE989FA89C082D182E282F38256
:102700000E940703980124533D4F3E8B2D8BD90126
:102710002D913D914D915C911B012C01221A330AA0
:10272000440A550AF801EC53FD4F2082318242825F
:102730005382B9EC2B1631044104510400F10E947C
:102740000703ED89FE896083718382839383A701E8
:10275000960160E87DE88BE590E00E94E71CA2010D
:1027600091010E94F71CD3012D933D934D935C93EF
:102770001397E989FA8910821182128213820E94CA
:102780000703AF85B8896D937D938D939C931397C1
:10279000ED85FE8580819181A281B3814091EA021D
:1027A0005091EB026091EC027091ED02840F951F45
:1027B000A61FB71F80839183A283B3830E94070360
:1027C000AF85B8890D911D912D913D91B88BAF8743
:1027D000601B710B820B930B613A7F408105910561
:1027E00028F0F3011082118212821382D3010D911D
:1027F0001D912D913C91ED81FE81608171818281DD
:102800009381600F711F821F931F60837183828386
:102810009383EB81FC81C080D180E280F380C0167D
:10282000D106E206F30620F400831183228333836A
:10283000F501C080D180E280F3800C151D052E05C6
:102840003F0520F40083118322833383E985FA85D1
:1028500020812F5F2193FA87E9872530E0F1AB8152
:10286000BC810D911D912D913C91601B710B820BD0
:10287000930BF5010081118122813381601B710B63
:10288000820B930B0E94C31B20E030E046E953E427
:102890000E941B1BAF81B8856D937D938D939C9394
:1028A0001397ED81FE811082118212821382AB8117
:1028B000BC811D921D921D921C92139780E593EC92
:1028C000A0E0B0E0F50180839183A283B383E98522
:1028D000FA8531971082AB89BC89CD90DD90ED905F
:1028E000FD90BC8BAB8B20E030E0A901C701B601A5
:1028F0000E94751C18160CF056C0A7019601EF81B6
:10290000F88560817181828193810E941B1BAB8558
:10291000BC856D937D938D939C931397FFEF8F1AD6
:102920009F0A2F8138852C5F3F4F38872F838B85F7
:102930009C8504969C878B87AB81BC811496BC8355
:10294000AB83B4E0AB0EB11CED81FE813496FE8307
:10295000ED83F4E06F0E711C2D853E852C5F3F4F9B
:102960003E872D87EFCC2091DE023091DF0240912F
:10297000E0025091E102211531054105510539F47C
:10298000D3011D921D921D921C921397F8CE60E800
:102990007DE88BE590E00E94F71CF30120833183F2
:1029A00042835383ECCEEB85FC8510821182128228
:1029B0001382B4CF80E006CD109208031092070373
:1029C00080910603882309F4F7C00E940703009151
:1029D0000203109103032091040330910503601B4F
:1029E000710B820B930B613375478105910508F4D8
:1029F000D5C010920603D09008038091F902D82A1E
:102A0000D0920803C09007038091F802C82AC092B0
:102A100007038091270106E8E02E04E0F02E10E085
:102A200000E0813009F028C18091F702882309F481
:102A30008EC060912801D0FECFC088E00E94C40AF9
:102A4000609128018091080381FFCBC089E00E943A
:102A5000C40A609128018091080382FFC7C08AE000
:102A60000E94C40A609128018091080383FFC3C0BB
:102A70008BE00E94C40A609128018091080384FFC2
:102A8000BFC08CE00E94C40A6091280180910803B5
:102A900085FFBBC08DE00E94C40A6091280180912F
:102AA000080386FFB7C08EE00E94C40A6091280127
:102AB0008091080387FFB3C08FE00E94C40A609131
:102AC00028018091070380FFAFC087E00E94C40AFD
:102AD000609128018091070381FFABC086E00E94CE
:102AE000C40A609128018091070382FFA7C085E096
:102AF0000E94C40A609128018091070383FFA3C04C
:102B000084E00E94C40A609128018091070384FF39
:102B10009FC083E00E94C40A60912801809107034E
:102B200085FF9BC082E00E94C40A609128018091C9
:102B3000070386FF97C081E00E94C40A60912801C4
:102B40008091070387FF93C080E00E94C40AE1E3FD
:102B5000F3E0F887EF8327E233E038A32F8F19E003
:102B6000A12E13E0B12E49018F01F12CE12C8091AF
:102B70002A018E151F0409F00CF413C1D4018D91A4
:102B80004D01F50171905F01813009F49CC08230E4
:102B900009F4E5C0D801CD90DC90ECC08091FE0234
:102BA000882309F426CF8091FF0280930803809147
:102BB0000003809307031FCF80916303811105C039
:102BC00080916403882309F416CF8091FB028093DF
:102BD00008038091FA02EDCF81E0611180E0682F57
:102BE0002CCF81E0611180E0682F30CF81E061114E
:102BF00080E0682F34CF81E0611180E0682F38CF0A
:102C000081E0611180E0682F3CCF81E0611180E0BC
:102C1000682F40CF81E0611180E0682F44CF81E0D0
:102C2000611180E0682F48CF81E0611180E0682F5A
:102C30004CCF81E0611180E0682F50CF81E06111BD
:102C400080E0682F54CF81E0611180E0682F58CF79
:102C500081E0611180E0682F5CCF81E0611180E04C
:102C6000682F60CF81E0611180E0682F64CF81E040
:102C7000611180E0682F68CFD7018D917D0182308E
:102C800028F008301105BCF4D092F60260912801BA
:102C90002091F60230E0002E02C0359527950A9467
:102CA000E2F720FF0BC00E94CB010F5F1F4F0031E6
:102CB000110511F74CCFC092F602E8CF91E06111F7
:102CC00090E0692FF0CFF701E55FFC4FD080F7016E
:102CD000ED59FC4F8081882379F1D8018D919C9129
:102CE000119797FD13C08B3F910524F08FEF90E073
:102CF0008D939C93609129018D2D0E94CB01F80149
:102D000060817181872D0E94480223C086309F4FC9
:102D100024F4E1E0FFEFED93FC9361E08091290161
:102D2000811160E08D2D0E94CB01D8016D917C91C5
:102D3000719561957109E6CF6FEF70E0872D0E9464
:102D4000480261E080912901811160E08D2D0E948F
:102D5000CB01BFEFEB1AFB0A0E5F1F4F08CFF70145
:102D6000ED59FC4F808170E060E0882359F2F80152
:102D7000C080D18060912901F701E55FFC4F80811F
:102D8000D7FC04C00E94CB01B601BCCF91E0611119
:102D900090E0692F0E94CB01662777276C197D0987
:102DA000B1CF80911D01B9E2EB2EB3E0FB2E10E014
:102DB00000E0882309F41FC2EDE0F3E0FE83ED8319
:102DC00025E133E03C832B838DE091E09E8F8D8F56
:102DD000ABE0B1E0BE8BAD8BEFE0F1E0FC8BEB8BB9
:102DE00029E031E0388B2F87312C212C80912A016A
:102DF0008215130409F00CF4BCC2AF8DB8A11D916B
:102E0000B8A3AF8FE989FA8981909190A190B19090
:102E1000FA8BE98BAB8DBC8D2D913D914D915D91E0
:102E2000BC8FAB8FC501B4010E94A91A2B013C01D4
:102E3000ED8DFE8D2191FE8FED8F2F8BAD89BE899B
:102E4000ED91BE8BAD8BED87AB89BC89ED91BC8BD1
:102E5000AB8BEB87AF85B8890D91B88BAF87F1014C
:102E6000123009F0BEC0ED59FC4F8081882309F46F
:102E7000B3C0ED81FE81D080E180F2801381A50195
:102E80009401C301B2010E941B1B4B015C0120E0B5
:102E900030E0A9010E94751C18160CF095C020E0C6
:102EA00030E048EC52E4C501B4010E947A1C4B01A9
:102EB0005C01FF896F2F70E090E080E00E94C31BEF
:102EC000A50194010E94161B87FF56C02D85622F15
:102ED00070E090E080E00E94C31B962EA72EB82ED3
:102EE000C92E602F70E090E080E00E94C31B20E0BC
:102EF00030E04FE753E40E941B1BA30192010E94A4
:102F00007A1C20E030E040EA50E40E947A1C9B01E9
:102F1000AC016D2D7E2D8F2D912F0E94AA1AD62ED9
:102F2000E72EF82E192F262F372F482F592F692DCE
:102F30007A2D8B2D9C2D0E94161B87FF03C0D92C48
:102F400075011C2D3B85632F70E090E080E00E94AE
:102F5000C51B2D2D3E2D4F2D512F0E94751C18166F
:102F60005CF4AB856A2F70E090E080E00E94C31BA8
:102F7000D62EE72EF82E192F8D2D9E2DAF2DB12F89
:102F8000ED81FE8180839183A283B3836D2D7E2D9D
:102F90008F2D912F0E948D1BAF81B8856D937C93EF
:102FA000BFEF2B1A3B0AED81FE813496FE83ED8341
:102FB0002F8138852E5F3F4F38872F838B819C81EF
:102FC00004969C838B8312CFC501B401905820E0F6
:102FD00030E048EC52E469CFD12CE12CF12C10E028
:102FE000CBCFE050FF4FFA87E987F081F9A3F101D9
:102FF000E35EFC4F108129A1211102C01111D0C044
:10300000F101ED59FC4F8081882309F4C6C0A50168
:103010009401C301B2010E941B1B6B017C0120E0E3
:1030200030E0A9010E94751C181624F0F7FAF094FC
:10303000F7F8F0943F89632F70E090E080E00E9401
:10304000C51B20E030E048EC52E40E941B1BA701A6
:1030500096010E94161B87FF98C0F101EB5FFE4F9F
:10306000A080F101E95FFE4F608170E090E080E0B8
:103070000E94C51B20E030E048EC52E40E941B1B7C
:103080006F8B788F898F9A8FA70196010E94751C8C
:1030900087FF64C0AD856A2F70E090E080E00E94F9
:1030A000C31B5B016C01602F70E090E080E00E9428
:1030B000C51BA30192010E947A1C0E948D1B4B012B
:1030C0007B0177FF04C0EE24FF24E61AF70AB7015C
:1030D0000F2C000C880B990B0E94C51BA6019501B3
:1030E0000E94751C18162CF4C601B5010E948D1B98
:1030F0007B01BB85AB2EB12CAE14BF040CF4570181
:10310000181419041CF0B194A194B1080E9407038B
:10311000AB81BC81CD90DD90ED90FC906C197D0968
:103120008E099F09012F10E030E020E006171707F5
:103130002807390770F40E940703EB81FC81608344
:1031400071838283938399A0F1E09F26A985BA8534
:103150009C92AF81B885AD92BC9222CF2F89388DD9
:10316000498D5A8DC701B6010E941B1B6B017C0162
:103170006A2D70E090E080E00E94C51B9B01AC01CD
:10318000C701B6010E947A1C8CCF0E940703EB8115
:10319000FC816083718382839383B12CA12CB6CF91
:1031A0000E940703EB81FC81C080D180E280F38024
:1031B000AB01BC014C195D096E097F09F3E01F9F4B
:1031C000C0011124092E000CAA0BBB0B8417950714
:1031D000A607B70768F40E940703AB81BC816D9313
:1031E0007D938D939C93139721E0E985FA85208345
:1031F000B12CA12CAECF80912A018017110609F0C5
:103200000CF4B7C00E940703D7018D909D90AD903C
:10321000BC90681979098A099B09693E7340810548
:10322000910508F462C00E940703F701608371836F
:10323000828393836801CC0CDD1CCC0CDD1C9601D1
:1032400029593C4F590120E030E0A901D5016D9189
:103250007D918D919C910E94161B811109C080E087
:1032600090E0A0E8BFE3F50180839183A283B3835C
:10327000F601E15EFC4F80809180A280B380F8016E
:10328000E95DFC4F8081823009F064C020E030E0CD
:10329000A901C501B4010E94751C181664F5C80186
:1032A000880F991F9C012F5C3C4F6901D9016D91DA
:1032B0007C91072E000C880B990B0E94C51B2DECEE
:1032C0003CEC4CE85FE30E947A1C0E948D1BF601E7
:1032D000718360831616170644F0F801E15FFE4F14
:1032E000808190E0D6018D939C930F5F1F4FB4E0D7
:1032F000EB0EF11C80CF20E030E0A901C501B40144
:103300000E94161B87FFF1CFC801880F991FFC018F
:10331000EF5CFC4F6F0160817181072E000C880B00
:10332000990B0E94C51B26E636E646E65FE30E943F
:103330007A1C0E948D1BD60111967C936E93F80126
:10334000E15FFE4F20812617170679F274F21D9275
:103350001C92CBCFC801880F991FFC01EF5CFC4F7A
:103360006F01C501B4010E948D1BD6016D937C9342
:10337000BCCF0E9407030091190110911A012091FE
:103380001B0130911C01601B710B820B930B693C7C
:1033900071058105910508F4B6C00E94070360938A
:1033A000190170931A0180931B0190931C01EDE3A6
:1033B000F3E0FC83EB8325E3A22E23E0B22E31E180
:1033C000232E31E0332E41E3C42E43E0D42E10E00F
:1033D00000E055E6852E6AE0962E80912A0180173E
:1033E000110609F00CF48FC080924503FFE7F093BB
:1033F00046038091260120E1829FC0011124802B89
:1034000080934703AB81BC816D917D918D919D919E
:10341000BC83AB8320E030E040E251E40E947A1CA0
:103420002B013C010E94941B60934803C301B2012D
:103430000E948D1B70934903770F660B762F609364
:103440004A03F50161917191819191915F01D101DF
:103450004D905D906D907D901D010E94C31B20E0FA
:1034600030E040E251E40E947A1CA30192010E94E4
:103470001B1B0E948D1B60934B0370934C03809326
:103480004D03F601819191916F01899D202D1124A9
:1034900020934E03989E9001999E300D11243093F5
:1034A0004F03E5E4F3E090E080E02191820F911D6D
:1034B00020E533E02E173F07C1F7809350034AE021
:1034C00065E670E080E090E00E94610786E4E82E07
:1034D00083E0F82E89E092E00E945407D7016D91B5
:1034E0007D0170E090E080E04AE00E946107E1E544
:1034F000F3E0EE15FF0571F788E591E00E94A5075E
:103500000F5F1F4F6ACF20E030E0232B11F40C94A3
:1035100026100E942801882311F40C9426100E9482
:1035200000000C942610F999FECF92BD81BDF89A47
:10353000992780B50895262FF999FECF1FBA92BD1D
:1035400081BD20BD0FB6F894FA9AF99A0FBE019684
:1035500008955058BB27AA270E94C11A0C943B1CFF
:103560000E942D1C38F00E94341C20F039F49F3F3B
:1035700019F426F40C942A1C0EF4E095E7FB0C9445
:10358000241CE92F0E944C1C58F3BA1762077307DA
:103590008407950720F079F4A6F50C946E1C0EF4C0
:1035A000E0950B2EBA2FA02D0B01B90190010C0153
:1035B000CA01A0011124FF27591B99F0593F50F46B
:1035C000503E68F11A16F040A22F232F342F4427C3
:1035D000585FF3CF469537952795A795F0405395BB
:1035E000C9F77EF41F16BA0B620B730B840BBAF08B
:1035F0009150A1F0FF0FBB1F661F771F881FC2F7F6
:103600000EC0BA0F621F731F841F48F48795779509
:103610006795B795F7959E3F08F0B0CF9395880FC3
:1036200008F09927EE0F9795879508950E94001C42
:1036300008F481E008950E942F1B0C943B1C0E940B
:10364000341C58F00E942D1C40F029F45F3F29F0F3
:103650000C94241C51110C946F1C0C942A1C0E9475
:103660004C1C68F39923B1F3552391F3951B550B2B
:10367000BB27AA2762177307840738F09F5F5F4F45
:10368000220F331F441FAA1FA9F335D00E2E3AF084
:10369000E0E832D091505040E695001CCAF72BD09C
:1036A000FE2F29D0660F771F881FBB1F26173707ED
:1036B0004807AB07B0E809F0BB0B802DBF01FF271F
:1036C00093585F4F3AF09E3F510578F00C94241CBC
:1036D0000C946F1C5F3FE4F3983ED4F38695779586
:1036E0006795B795F7959F5FC9F7880F911D9695D8
:1036F000879597F90895E1E0660F771F881FBB1F34
:10370000621773078407BA0720F0621B730B840BE0
:10371000BA0BEE1F88F7E09508950E94941B6894F9
:10372000B1110C946F1C08950E94541C88F09F578F
:1037300098F0B92F9927B751B0F0E1F0660F771FD5
:10374000881F991F1AF0BA95C9F714C0B13091F0CB
:103750000E946E1CB1E008950C946E1C672F782FA8
:103760008827B85F39F0B93FCCF386957795679590
:10377000B395D9F73EF490958095709561957F4FFC
:103780008F4F9F4F0895E89409C097FB3EF49095A2
:103790008095709561957F4F8F4F9F4F9923A9F02A
:1037A000F92F96E9BB279395F695879577956795B9
:1037B000B795F111F8CFFAF4BB0F11F460FF1BC0FD
:1037C0006F5F7F4F8F4F9F4F16C0882311F096E990
:1037D00011C0772321F09EE8872F762F05C066233E
:1037E00071F096E8862F70E060E02AF09A95660FF7
:1037F000771F881FDAF7880F9695879597F90895B0
:10380000990F0008550FAA0BE0E8FEEF16161706F1
:10381000E807F907C0F012161306E407F50798F059
:10382000621B730B840B950B39F40A2661F0232B72
:10383000242B252B21F408950A2609F4A140A695EE
:103840008FEF811D811D089597F99F6780E870E0D3
:1038500060E008959FEF80EC089500240A94161606
:10386000170618060906089500240A94121613066E
:10387000140605060895092E0394000C11F48823FC
:1038800052F0BB0F40F4BF2B11F460FF04C06F5F18
:103890007F4F8F4F9F4F089557FD9058440F551FEE
:1038A00059F05F3F71F04795880F97FB991F61F0C2
:1038B0009F3F79F087950895121613061406551F39
:1038C000F2CF4695F1DF08C0161617061806991FA5
:1038D000F1CF86957105610508940895E894BB279A
:1038E00066277727CB0197F908950E94001C08F4FA
:1038F0008FEF08950E948D1C0C943B1C0E942D1C80
:1039000038F00E94341C20F0952311F00C94241CF4
:103910000C942A1C11240C946F1C0E944C1C70F3F4
:10392000959FC1F3950F50E0551F629FF001729F64
:10393000BB27F00DB11D639FAA27F00DB11DAA1F73
:10394000649F6627B00DA11D661F829F2227B00DC0
:10395000A11D621F739FB00DA11D621F839FA00D4B
:10396000611D221F749F3327A00D611D231F849F9B
:10397000600D211D822F762F6A2F11249F575040F2
:103980009AF0F1F088234AF0EE0FFF1FBB1F661F6D
:10399000771F881F91505040A9F79E3F510580F036
:1039A0000C94241C0C946F1C5F3FE4F3983ED4F3FA
:1039B000869577956795B795F795E7959F5FC1F7DA
:1039C000FE2B880F911D9695879597F90895DB0139
:1039D0008F939F930E94191DBF91AF91A29F800D5D
:1039E000911DA39F900DB29F900D11240895A1E207
:1039F0001A2EAA1BBB1BFD010DC0AA1FBB1FEE1F69
:103A0000FF1FA217B307E407F50720F0A21BB30BB3
:103A1000E40BF50B661F771F881F991F1A9469F72F
:103A200060957095809590959B01AC01BD01CF018B
:103A300008950E942A1DA59F900DB49F900DA49FEC
:103A4000800D911D11240895EE0FFF1F0590F49134
:103A5000E02D0994A29FB001B39FC001A39F700DF8
:103A6000811D1124911DB29F700D811D1124911D86
:103A700008950F931F93CF93DF938230910510F435
:103A800082E090E0E0919804F091990430E020E029
:103A9000B0E0A0E0309799F42115310509F44AC04F
:103AA000281B390B24303105D8F58A819B8161159B
:103AB000710589F1FB0193838283FE0111C040816E
:103AC00051810281138148175907E0F048175907BF
:103AD00099F4109761F012960C93129713961C9319
:103AE0003296CF01DF91CF911F910F9108950093EE
:103AF000980410939904F4CF2115310551F0421721
:103B0000530738F0A901DB019A01BD01DF01F8017B
:103B1000C1CFEF01F9CF9093990480939804CDCF52
:103B2000FE01E20FF31F81939193225031093983F3
:103B30002883D7CF2091960430919704232B41F40A
:103B400020912E0130912F013093970420939604F9
:103B500020912C0130912D012115310541F42DB713
:103B60003EB74091300150913101241B350BE0915B
:103B70009604F0919704E217F307A0F42E1B3F0B75
:103B80002817390778F0AC014E5F5F4F24173507CF
:103B900048F04E0F5F1F5093970440939604819313
:103BA00091939FCFF0E0E0E09CCFCF93DF9300971D
:103BB000E9F0FC01329713821282A0919804B0912F
:103BC0009904ED0130E020E01097A1F420813181CB
:103BD000820F931F2091960430919704281739077C
:103BE00009F061C0F0939704E0939604DF91CF91C0
:103BF0000895EA01CE17DF07E8F54A815B819E014F
:103C000041155105B1F7E901FB83EA8349915991C7
:103C1000C40FD51FEC17FD0761F4808191810296D6
:103C2000840F951FE90199838883828193819B8307
:103C30008A83F0E0E0E012968D919C9113970097B3
:103C4000B9F52D913C911197CD010296820F931FEA
:103C500020919604309197042817390739F6309748
:103C600051F51092990410929804B0939704A09380
:103C70009604BCCFD383C28340815181840F951FAA
:103C8000C817D90761F44E5F5F4F88819981480F4B
:103C9000591F518340838A819B819383828321159D
:103CA000310509F0B0CFF0939904E09398049ECFCA
:103CB000FD01DC01C0CF13821282D7CFF894FFCF71
:103CC0000101010101646414141414FFFF030332A1
:103CD000320000803F0000803FC800000001320039
:103CE00000001303130300010000010100009A0407
:103CF0008000000000005E01BE00EB00AB011C0173
:103D0000FA000E0100000000D804AB04070581048E
:103D1000A404910482040D0A0052436E616E6F2068
:103D2000203A202031322D4A756E2D323032320049
:103D30004D6F64756C652049443A20005573696E77
:103D400067204D4350323330313720666F72207216
:103D5000656C6179732E005573696E67204E616ED4
:103D60006F2070696E7320666F722072656C617966
:103D7000732E005374617274696E6720492F4F204F
:103D8000457870616E646572202E2E2E00492F4F8B
:103D900020457870616E64657220666F756E642E62
:103DA00000492F4F20457870616E646572206E6FF8
:103DB0007420666F756E642E0046696E697368655F
:0C3DC000642053657475702E002C000008
:00000001FF
