:100000000C9468000C941E130C94F7120C9490003E
:100010000C9490000C9490000C9490000C94900020
:100020000C9490000C9490000C9490000C94900010
:100030000C9490000C9490000C9490000C94900000
:100040000C94AD120C9490000C947B120C945512ED
:100050000C9490000C9490000C9490000C949000E0
:100060000C9445130C9490006382536300010800C4
:100070000604000100000000240027002A00000000
:100080000000250028002B000404040404040404D8
:100090000202020202020303030303030102040833
:1000A00010204080010204081020010204081020E2
:1000B0000000000800020100000304070000000027
:1000C0000000000045000082000040002000641491
:1000D00011241FBECFEFD8E0DEBFCDBF12E0A0E0FD
:1000E000B1E0EAE0F4E502C005900D92A035B10759
:1000F000D9F727E0A0E5B2E001C01D92A834B2070D
:10010000E1F710E0C8E6D0E004C02197FE010E94AC
:10011000BC28C736D107C9F70E94B3140C94032A30
:100120000C94000090E020912807293020F0880FDF
:10013000991F611101962091260730912707232BE3
:1001400049F02091290730E0322F2227330F306405
:10015000822B932B08958230C8F4E82FF0E0EE0F45
:10016000FF1FE85AFE4F71836083813041F0809118
:1001700069008C7F826080936900E89A089580917D
:100180006900837F886080936900E99A08950895E3
:100190000895CF93DF93209121062223C1F0FC0123
:1001A00020812223A1F0C1E2D6E0ADE1B6E09C01BE
:1001B0002C5F3F4F899141919D918427892339F488
:1001C000E217F307B9F781E0DF91CF91089580E05E
:1001D000FBCFAF92BF92CF92DF92EF92FF920F933D
:1001E0001F93CF93DF936C017B018B01040F151FCD
:1001F000EB015E01AE18BF08C017D10759F0699135
:10020000D601ED91FC910190F081E02DC601099598
:10021000892B79F7C501DF91CF911F910F91FF9045
:10022000EF90DF90CF90BF90AF900895FC01538D79
:10023000448D252F30E0842F90E0821B930B5417C0
:1002400010F0CF96089501970895FC01918D828D4D
:10025000981761F0A28DAE0FBF2FB11D5D968C91E6
:10026000928D9F5F9F73928F90E008958FEF9FEF25
:100270000895FC01918D828D981731F0828DE80FE1
:10028000F11D858D90E008958FEF9FEF0895FC019B
:10029000918D228D892F90E0805C9F4F821B910968
:1002A0008F73992708958BE796E00E94470121E01C
:1002B000892B09F420E0822F089580E090E0892BBB
:1002C00029F00E94530181110C9400000895FC0153
:1002D000A48DA80FB92FB11DA35ABF4F2C91848DA7
:1002E00090E001968F739927848FA689B7892C9304
:1002F000A089B1898C91837080648C93938D848D57
:10030000981306C00288F389E02D80818F7D808359
:100310000895EF92FF920F931F93CF93DF93EC0119
:1003200081E0888F9B8D8C8D98131AC0E889F9899C
:10033000808185FF15C09FB7F894EE89FF8960839F
:10034000E889F98980818370806480839FBF81E020
:1003500090E0DF91CF911F910F91FF90EF90089562
:10036000F62E0B8D10E00F5F1F4F0F731127E02E3D
:100370008C8D8E110CC00FB607FCFACFE889F98975
:10038000808185FFF5CFCE010E946701F1CFEB8D13
:10039000EC0FFD2FF11DE35AFF4FF0829FB7F89449
:1003A0000B8FEA89FB8980818062CFCFCF93DF9367
:1003B000EC01888D8823B9F0AA89BB89E889F9897D
:1003C0008C9185FD03C0808186FD0DC00FB607FCB2
:1003D000F7CF8C9185FFF2CF808185FFEDCFCE01E5
:1003E0000E946701E9CFDF91CF91089590E0FC0171
:1003F000E055FF4F2491FC01E456FF4F3491FC017E
:10040000E857FF4FE491EE23C9F0222339F023305F
:1004100001F1A8F4213019F1223029F1F0E0EE0FBA
:10042000FF1FE258FF4FA591B4918FB7F894EC915C
:10043000611126C030953E233C938FBF089527302D
:10044000A9F02830C9F0243049F7809180008F7DD1
:1004500003C0809180008F7780938000DFCF84B5C8
:100460008F7784BDDBCF84B58F7DFBCF8091B000CB
:100470008F778093B000D2CF8091B0008F7DF9CF7D
:100480003E2BDACFCF93DF9390E0FC01E456FF4F91
:10049000249188579F4FFC0184918823C9F090E0F4
:1004A000880F991FFC01EC58FF4FA591B491FC01F6
:1004B000E258FF4FC591D49161110DC09FB7F894D8
:1004C0008C91209582238C938881282328839FBF39
:1004D000DF91CF910895623051F49FB7F8943C9129
:1004E000822F809583238C93E8812E2BEFCF8FB7BB
:1004F000F894EC912E2B2C938FBFEACF1F93CF93C0
:10050000DF93182FEB0161E00E944202209739F43B
:1005100060E0812FDF91CF911F910C94F601CF3FC6
:10052000D10511F461E0F5CFE12FF0E0E055FF4F88
:10053000E491E33031F140F4E130B1F0E230E1F048
:10054000C038D1057CF7E4CFE73029F1E83059F124
:10055000E430B1F780918000806280938000D09376
:100560008B00C0938A0004C084B5806884BDC7BD79
:10057000DF91CF911F91089584B5806284BDC8BD7D
:10058000F7CF80918000806880938000D0938900AD
:10059000C0938800EDCF8091B00080688093B00058
:1005A000C093B300E5CF8091B00080628093B0002B
:1005B000C093B400DDCF8230910538F0880F991FC9
:1005C000880F991F05970197F1F708953FB7F894A1
:1005D0008091C6029091C702A091C802B091C90251
:1005E00026B5A89B05C02F3F19F00196A11DB11D8E
:1005F0003FBFBA2FA92F982F8827BC01CD01620FCA
:10060000711D811D911D42E0660F771F881F991F84
:100610004A95D1F708958F929F92AF92BF92CF9251
:10062000DF92EF92FF924B015C010E94E6026B01A8
:100630007C010E94E6026C197D098E099F09683EC3
:10064000734081059105A8F321E0821A9108A10861
:10065000B10888EEC80E83E0D81EE11CF11C81149D
:100660009104A104B10429F7FF90EF90DF90CF909F
:10067000BF90AF909F908F9008952FB7F89460919E
:10068000C2027091C3028091C4029091C5022FBF33
:100690000895089580911204909113049827892752
:1006A000982744972091300430E044E03595279511
:1006B0004A95E1F7220F331F220F331F821B930B42
:1006C00097FF02C090E080E00895209126043091C9
:1006D000240430932604209324042091270430918D
:1006E00025043093270420932504E2E0F4E021A5BB
:1006F000820F911D25A585A7662381F021A7892F4B
:100700009927319723E0EE3FF20789F710923404DE
:100710001092350480E580933004089511A6EFCF40
:100720000F931F93CF93DF9370E06E5F7B4F8A012F
:10073000075F1F4F213029F0223031F48A01025027
:10074000110930E020E003C000E010E09801EB0167
:10075000FA01E230F10558F0A991B991BA27AB2717
:10076000BA270A0F1B1F211D311D3297F2CFFA0144
:10077000EE7F6E0F7F1F4E175F0769F0FB01408110
:1007800050E070E060E0762F652F542F4427040F6F
:10079000151F261F371FA901662777274115510509
:1007A0006105710519F022273327F1CF00951095C7
:1007B000E82FF0E0EE5FFB4F10830183DF91CF91D4
:1007C0001F910F910895E2E0F4E0108E118E80E405
:1007D000848B158A868B20E044E150E06EE088E14E
:1007E0000C9490038EBD0DB407FEFDCF089561E01B
:1007F0008091CA020E94F60178940895F89460E00E
:100800008091CA020C94F6010F931F93CF93DF934C
:10081000EC018B010E94FE032097B9F08AE30E944D
:10082000F2031EBCF801CE01019739F00DB407FEAA
:10083000FDCF2EB51EBC2193F7CF2197C00FD11F3E
:100840000DB407FEFDCF8EB58883DF91CF911F9148
:100850000F910C94F7031F93CF93DF93182FC62F9C
:10086000D42F0E94FE038C2F8F71812B0E94F203E4
:100870008D2F0E94F203DF91CF911F910C94F7030B
:10088000CF93C82FC0768091C0028C1799F043E0B7
:100890006FE180EA0E942B04C093C0024C2F50E00D
:1008A00085E0559547958A95E1F76FE180E8CF910E
:1008B0000C942B04CF910895CF93DF93C82FD62F9C
:1008C0000E9440044D2F6C2F80E4DF91CF910C9457
:1008D0002B04CF93DF93C82FD72F0E945C046D2F7A
:1008E00081E08C0FDF91CF910C945C04CF93C82FE3
:1008F0000E9440040E94FE038C2F8F710E94F2031D
:1009000080E00E94F203C7FF03C080E00E94F20370
:10091000CEB50E94F7038C2FCF910895CF93DF932C
:10092000EC0140E86FE180E80E942B0440E86FE1B1
:1009300080EA0E942B044AE06CE180EA0E942B04CA
:1009400060E07CE082E00E946904BE01745F86E0A2
:100950000E94690440E060E08AE70E942B040E9444
:10096000FE032097B1F08AE70E94F203809102040F
:100970008EBDE3E0F4E0CE5FDB4FEC17FD0731F016
:1009800081910DB407FEFDCF8EBDF7CF0DB407FEEC
:10099000FDCF0E94F70348E06FE180E80E942B043E
:1009A000D0E0C0E08CE10E9476048A7029F42196A0
:1009B000C83E83E0D807B1F78CE10E94760481FD40
:1009C00003C0C83ED34039F448E06FE180EADF91CC
:1009D000CF910C942B04DF91CF9108950F931F9327
:1009E000CF93DF93EC0102E014E04C96F801908B7A
:1009F000818B0E94E303CE010896F80196A387A39A
:100A0000AE01405F5F4F21E06AE188E20E949003FF
:100A1000CE018A96DF91CF911F910F910C948E0495
:100A2000CF93DF93EB01682F84ED0E945C04BE013D
:100A300086ED0E9469048AEE0E94760480FDFBCF59
:100A4000DF91CF910895CF92DF92EF92FF920F93B3
:100A50001F938634910568F120912504233449F5CC
:100A6000C0903004D0903104E0903204F090330410
:100A70000091B2031091B3032091B4033091B503F8
:100A8000C016D106E206F306A1F4ECE1F5E08E5FB4
:100A90009B4F9F012E5F3F4F41815081553319F489
:100AA0005281651771F0F901E40FF11DE817F9079C
:100AB00080F380E01F910F91FF90EF90DF90CF9037
:100AC000089581E0F7CFE091BE02F091BF029F014F
:100AD0002F5F3F4F3093BF022093BE028083089563
:100AE000FF920F931F93CF93DF93162FF42E052FB2
:100AF0000E946305812F0E946305CF2DD02F1150D6
:100B000020F089910E946305FACFDF91CF911F9168
:100B10000F91FF90089520919B02260F3327331FDA
:100B200021323105ECF420915106FC0190E080E087
:100B3000243069F082E00895A0919B022191AC01DC
:100B400045585D4FA40FB52FB11D2C930196861704
:100B500098F380919B02680F60939B0280E0089558
:100B600081E008951092510681E080935006109222
:100B70002B0661E082E10E94F60161E083E10E94C0
:100B8000F601E9EBF0E080818E7F808380818D7FAC
:100B9000808388E48093B80085E48093BC00089546
:100BA00010922A06109229061092580610927A0680
:100BB0000E94B20587EC90E0909328068093270668
:100BC00088EC90E090932606809325060895CF93B5
:100BD000DF9391E090937A028823B9F0C091B80036
:100BE000D091BA008091BC008A7B8093BC0060E009
:100BF00082E10E94F60160E083E10E94F6010E941A
:100C0000B205D093BA00C093B800DF91CF91089598
:100C10008F929F92AF92BF92CF92DF92EF92FF920C
:100C20000F931F93CF93DF93D0917A06D13208F0C0
:100C3000D7C0182FC09179060E94E6026B017C0193
:100C40008091510681116BC082E080935106109310
:100C500050068FEF80934F0610924E06D0934D06AC
:100C6000A9E5B6E0EDE2F6E080E0D81391C010927D
:100C70002C0680912C06CC0FC82BC0932C0680919B
:100C80002B06813009F088C010922B060E94E602E4
:100C90006B017C0180912C068093BB0080915306F0
:100CA00090915406A0915506B0915606892B8A2B37
:100CB0008B2BA1F00E94E60200915306109154067E
:100CC00020915506309156066C197D098E099F09B1
:100CD000061717072807390708F442C08091BC009F
:100CE00083FDD8CF85EC8093BC000E94E6026B01A7
:100CF0007C0180915106823009F450C080914F06EA
:100D00008F3F09F46FC080914F06803209F46CC0A8
:100D100080914F06803309F469C084E026C0809139
:100D2000530690915406A0915506B0915606892B12
:100D30008A2B8B2B09F484CF0E94E6028090530605
:100D400090905406A0905506B09056066C197D09F7
:100D50008E099F0986169706A806B90608F070CF77
:100D6000809152060E94E70585E010925806109285
:100D70007A0610925706DF91CF911F910F91FF9045
:100D8000EF90DF90CF90BF90AF909F908F9008959D
:100D90009D9191938F5F69CF85EEA5CF809153068A
:100DA00090915406A0915506B0915606892B8A2B36
:100DB0008B2B09F49ECF0E94E602009153061091FE
:100DC000540620915506309156066C197D098E09FE
:100DD0009F09061717072807390708F08ACFC0CFE1
:100DE00081E0C3CF80E0C1CF82E0BFCF83E0BDCF41
:100DF0000895E0912A0680912906E81730F4F0E082
:100E0000E65AFD4F808190E008958FEF9FEF08959F
:100E100090912A06809129062FEF3FEF981748F40A
:100E2000E92FF0E0E65AFD4F208130E09F5F90937C
:100E30002A06C90108958091290690912A06891BE6
:100E4000990B0895CF92DF92EF92FF920F931F9329
:100E5000CF93DF937C01CB018A0120915706222397
:100E600089F0EB016B01C40ED51ECC15DD0569F0D0
:100E70006991D701ED91FC910190F081E02DC701BE
:100E80000995F3CF642F0E948B05C801DF91CF91A4
:100E90001F910F91FF90EF90DF90CF900895CF9327
:100EA000DF931F92CDB7DEB76983209157062223C7
:100EB000F9F020917A06203258F021E030E0FC0170
:100EC0003383228390E080E00F90DF91CF910895EB
:100ED00080915806E82FF0E0E75AF94F9981908306
:100EE0008F5F8093580680937A0681E090E0ECCF84
:100EF00061E0CE0101960E948B05F7CF90E080E083
:100F000008958FB7F894809159028FBF0895FC011E
:100F100083858F3F11F00C94F6010895AF92BF9234
:100F2000CF92DF92EF92FF920F931F93CF93DF93B5
:100F3000EC0188819981892B89F06EBD0DB407FE83
:100F4000FDCFBEB48B2DDF91CF911F910F91FF90FC
:100F5000EF90DF90CF90BF90AF90089588859985EE
:100F600011E0892B09F010E8AA24A394862F81238D
:100F700009F0A12C062F2C813D814E815F8160E21A
:100F800071EA87E090E00E948F28F22EB02EE12CCB
:100F9000C22ED12CFF2019F0C6010E94DB028A85E7
:100FA000877F09F042C08D858F3F89F0902F912374
:100FB00081E009F480E08A1551F0EF85F8898F8986
:100FC000992369F19081892B8083AA24A394E989CC
:100FD000FA898081998D892B8083FF2019F0C601C1
:100FE0000E94DB028E858F3F39F0EB89FC8980817E
:100FF000988D892309F0E12AE989FA899081898D00
:101000008095892380838E858F3F09F0BE2C88854B
:101010009985892BB9F5110F1111BCCF93CF908110
:10102000809589238083A12CD2CFE989FA89808198
:10103000998D892B8083FF2019F0C6010E94DB0265
:101040008D858F3F49F0EF85F8898F89902F912307
:10105000A9F09081892B8083E989FA899081898D13
:101060008095892380838E858F3F69F2EB89FC8987
:101070008081988D892339F2E12AC5CF90818095AE
:101080008923E9CF1695C8CF8CBD9DBD08958F9259
:101090009F92AF92BF92CF92DF92EF92FF920F9307
:1010A0001F93CF93DF93EC014B016A01B22EA32E65
:1010B00088819981892B31F0EA81FB81808191813E
:1010C0000E94440870E060E0CE010E94870774012E
:1010D000C80CD91CEC14FD0479F4EB2CFA2C0E0D81
:1010E0001F1DE016F10679F06FEFCE010E948E070A
:1010F000F70181937F01F5CFF70161917F01CE0167
:101100000E948E07E7CF61E070E0CE010E94870762
:1011100081E0DF91CF911F910F91FF90EF90DF90D1
:10112000CF90BF90AF909F908F9008958F929F9295
:10113000AF92BF92CF92DF92EF92FF920F931F93E5
:10114000CF93DF93EC01B62EA72E6A014901888167
:101150009981892B31F0EA81FB81808191810E9404
:10116000440870E060E0CE010E9487077401080D1A
:10117000191DE016F10671F40B2D1A2DC00ED11EAB
:101180000C151D0571F0F80161918F01CE010E94CF
:101190008E07F6CFF70161917F01CE010E948E0785
:1011A000E8CF61E070E0CE010E94870781E0DF9127
:1011B000CF911F910F91FF90EF90DF90CF90BF9054
:1011C000AF909F908F9008951F93CF93DF93EA0184
:1011D000122FDC0111968D919C91DC01ED91FC9117
:1011E0000280F381E02D0995C817D90729F4812FD2
:1011F0000E94080691E0811190E0892FDF91CF9144
:101200001F910895CF93DF93EC018B818823A1F088
:10121000888191E090935706809379061092580642
:1012200010927A0681E00E94080691E0811190E018
:10123000892FDF91CF9108950E94D00581E08B83A3
:10124000CE010E940209982F8111E2CFF1CFCF92F7
:10125000DF92EF92FF920E943D03C0905402D09023
:101260005502E0905602F09057026C197D098E09E4
:101270009F096B3071058105910558F10E943D036E
:101280006C197D098E099F0960933F037093400399
:10129000809341039093420380914B0390914C03C0
:1012A000A0914D03B0914E030196A11DB11D8093F5
:1012B0004B0390934C03A0934D03B0934E030E94B5
:1012C0003D036093540270935502809356029093AD
:1012D0005702FF90EF90DF90CF900895CF92DF926A
:1012E000EF92FF920E943D03C0905002D0905102B5
:1012F000E0905202F09053026C197D098E099F090B
:101300006B3071058105910558F10E943D036C1900
:101310007D098E099F0960933B0370933C03809382
:101320003D0390933E030E943D03609350027093EF
:1013300051028093520290935302809147039091FF
:101340004803A0914903B0914A030196A11DB11D24
:101350008093470390934803A0934903B0934A03B3
:10136000FF90EF90DF90CF9008950895FC010190D9
:101370000020E9F73197AF01481B590BBC018BE7FF
:1013800096E00C94E90081E991E00C94B6098F9203
:101390009F92AF92BF920F931F93CF93DF93CDB7DE
:1013A000DEB7A1970FB6F894DEBF0FBECDBF19A26E
:1013B000423008F44AE08E010F5D1F4F842E912CBD
:1013C000B12CA12CA50194010E948F28E62FB90110
:1013D000CA01EA30F4F4E05DD801EE938D01232BCD
:1013E000242B252B79F790E080E0109719F0CD01A0
:1013F0000E94B609A1960FB6F894DEBF0FBECDBF0E
:10140000DF91CF911F910F91BF90AF909F908F90E0
:101410000895E95CE1CFCF93DF930E94B609EC0118
:101420000E94C3098C0F9D1FDF91CF9108950C94EA
:10143000B609682F70E090E080E04AE00C94C7099C
:10144000BC01990F880B990B4AE00C94C7092F92A5
:101450003F924F925F926F927F928F929F92AF9244
:10146000BF92CF92DF92EF92FF920F931F93CF9391
:10147000DF93CDB7DEB72A970FB6F894DEBF0FBE65
:10148000CDBF9C838B834F83588769877A87DC0124
:10149000ED90FC90F7010085C7010B969E838D832C
:1014A0009681878199838A83608071806114710439
:1014B00009F420C1418550E0D30114968D919C918F
:1014C00015978417950708F468C18C9191E0909363
:1014D0005706809379061092580610927A0620E0FB
:1014E000BE016F5F7F4FC3010E94E408882309F4A7
:1014F00054C1402E512C312C212C2414350408F0D9
:101500001AC1F301848195818201021913098017A0
:10151000910708F48C01D301CC900E94E6024B01A4
:101520005C0180915106811175C0D02EB0E2B017D8
:1015300010F470E2D72EE1E0E093510621E0C20101
:10154000801B910B2816390608F420E020935006E2
:10155000FFEFF0934F0610924E068FEF8D0D8093A4
:101560004D0681E080932C0680912C06CC0CC82A75
:10157000C0922C0680912B06813009F092C0109207
:101580002B060E94E6024B015C0180912C068093A1
:10159000BB008091530690915406A0915506B091DE
:1015A0005606892B8A2B8B2BA1F00E94E6022091F4
:1015B00053063091540640915506509156066819CD
:1015C00079098A099B09261737074807590708F43C
:1015D00042C08091BC0083FDD8CF95EC9093BC00B5
:1015E0000E94E6024B015C0180915106813009F4B2
:1015F0005CC080914E068D1510F4D0904E06ADE281
:10160000B6E0EAE5F2E080E08D1551F19D9191930D
:101610008F5FFACF8091530690915406A0915506A2
:10162000B0915606892B8A2B8B2B09F47ACF0E9416
:10163000E602209153063091540640915506509190
:101640005606681979098A099B092617370748073A
:10165000590708F066CF809152060E94E705D12C09
:1016600010922A06D0922906D016110609F095C0CC
:10167000AD80BE80A20CB31C6501C6018A199B090E
:1016800080179107A0F5F30181819281DC01ED9132
:10169000FC910284F385E02D0995F60181936F0199
:1016A000ECCFA5EEA093BC009BCF80915306909108
:1016B0005406A0915506B0915606892B8A2B8B2B88
:1016C00009F492CF0E94E60220915306309154060D
:1016D0004091550650915606681979098A099B0967
:1016E000261737074807590708F07ECFB4CF200EDA
:1016F000311E03CFD7010280F381E02D309709F42A
:101700004CC014962D913C91159710E019964C9170
:1017100050E02330310561F5816089839A834F5F02
:101720005F4F2D813E81BE016F5F7F4FCF010E94D1
:101730004708882391F1F701408550E090E080E070
:1017400000E010E098018417950754F5322F212FFF
:10175000102F0027D7011A966C91611119C0FA0158
:10176000E81BF90BEE0DFF1D6285062B0196EBCFF2
:101770002115310519F490689983D3CF22303105B2
:1017800011F49F77F9CF2130310559F6906CF4CFE1
:10179000F701E80FF91F6385E8CF0FEF1FEF9801FE
:1017A000EB81FC81A081B18118968C9118978530CE
:1017B00008F078C0928141E050E002C0440F551F0C
:1017C0009A95E2F741505109052E000C660B770BF4
:1017D00093816A017B01092E04C0CC0CDD1CEE1C38
:1017E000FF1C0A94D2F7C094D094E094F0940C219A
:1017F0001D212E213F214F80588469847A84442200
:1018000055226622772204C0440C551C661C771CA6
:101810009A95D2F7402A512A622A732A1F964D922E
:101820005D926D927C92529730E020E0E82EF12C90
:101830002E153F05BCF41A968C911A9781110BC096
:10184000FD01E20FF31F4386452C562C672C7724AD
:101850002F5F3F4FEDCFF701E21BF30BEA0FFB1FAA
:101860004286F2CF6D01FBE0CF0ED11C16969C9103
:10187000169717968C91179799838A83AD90BC9091
:101880001197A114B10409F44DC019960C9110E000
:1018900098012E0D3F1DD50114968D919C918217B4
:1018A000930710F480E016C0F501818192812081B8
:1018B00031E0309357062093790610925806109223
:1018C0007A0601151105F9F421E0A701B601C50159
:1018D0000E94E4082A960FB6F894DEBF0FBECDBF73
:1018E000DF91CF911F910F91FF90EF90DF90CF90FC
:1018F000BF90AF909F908F907F906F905F904F9030
:101900003F902F900895DC01ED91FC910280F381CE
:10191000E02DA801BE016F5F7F4F099508171907D9
:1019200009F6D2CF1296ED91FC911397309709F4F6
:10193000B9CF14962D913C91159719960C9110E002
:101940002330310571F48E7F89839A830F5F1F4F97
:101950009E012F5F3F4FA701B601CF010E9496085D
:10196000B9CF2115310519F49F779983F1CF223032
:10197000310511F49068F9CF2130310549F79F778F
:101980009064F3CF0F931F93CF93DF93CDB7DEB760
:1019900067970FB6F894DEBF0FBECDBF182F062F86
:1019A00061E0883008F460E089E00E949200409194
:1019B0002607509127072091240730912507188A80
:1019C000198A1A8A1B8A5C834B833A83298323E012
:1019D00030E03E832D8321E02A8798878F831B8602
:1019E0002987CE0101969D8B8C8B2E8B17701F8BB8
:1019F00041E050E060E070E0011103C040E050E0E1
:101A0000BA01CE0144960E94270A67960FB6F89451
:101A1000DEBF0FBECDBFDF91CF911F910F91089513
:101A2000EF92FF920F931F93CF93DF93C82FD62F80
:101A300080915D01813009F0C6C060915E01C0FFF8
:101A400072C088E00E94C20C60915E01C1FF70C04C
:101A500089E00E94C20C60915E01C2FF6EC08AE004
:101A60000E94C20C60915E01C3FF6CC08BE00E94BB
:101A7000C20C60915E01C4FF6AC08CE00E94C20C7F
:101A800060915E01C5FF68C08DE00E94C20C60914C
:101A90005E01C6FF66C08EE00E94C20C60915E01CE
:101AA000C7FF64C08FE00E94C20C60915E01D0FF4E
:101AB00062C087E00E94C20C60915E01D1FF60C0ED
:101AC00086E00E94C20C60915E01D2FF5EC085E09C
:101AD0000E94C20C60915E01D3FF5CC084E00E9452
:101AE000C20C60915E01D4FF5AC083E00E94C20C18
:101AF00060915E01D5FF58C082E00E94C20C6091E7
:101B00005E0181E0D6FF55C00E94C20C60915E016B
:101B1000D7FF54C080E0DF91CF911F910F91FF90CC
:101B2000EF900C94C20C81E0611180E0682F89CFA6
:101B300081E0611180E0682F8BCF81E0611180E04E
:101B4000682F8DCF81E0611180E0682F8FCF81E019
:101B5000611180E0682F91CF81E0611180E0682FF2
:101B600093CF81E0611180E0682F95CF81E0611112
:101B700080E0682F97CF81E0611180E0682F99CFD6
:101B800081E0611180E0682F9BCF81E0611180E0EE
:101B9000682F9DCF81E0611180E0682F9FCF81E0A9
:101BA000611180E0682FA1CF81E0611180E0682F92
:101BB000A3CF611180E0682F81E0A6CF81E06111A1
:101BC00080E0682FA7CF84E3E82E87E0F82E10E0AE
:101BD00000E0F70181917F01823028F00830110583
:101BE000ECF4C093580260915E012091580230E0FD
:101BF000002E02C0359527950A94E2F720FF11C008
:101C00000E94F6010F5F1F4F0031110511F7DF91A0
:101C1000CF911F910F91FF90EF900895D0935802AC
:101C2000E2CF91E0611190E0692FEACF8F929F920D
:101C3000AF92BF92CF92DF92FF920F931F93CF93F9
:101C4000DF93CDB7DEB7AE970FB6F894DEBF0FBE09
:101C5000CDBF082FFF24F394883008F4F12C6F2DAA
:101C600080E00E9492008090260790902707A09025
:101C70002407B09025071BA21CA21DA21EA29F8AAA
:101C80008E8ABD8AAC8A23E0C22ED12CD98EC88E12
:101C900011E01D8F9B8F8A8F1E8E1C8F6F2D86E00B
:101CA0000E949200188A198A1A8A1B8A9C828B8247
:101CB000BA82A982DE82CD821A8798878F831B869B
:101CC00019870770CE0144969CA78BA71DA70EA766
:101CD000439798A78FA319A70AA740E050E0BA013D
:101CE0008A960E94270A40E050E0BA01CE0187960A
:101CF0000E94270AAE960FB6F894DEBF0FBECDBF86
:101D0000DF91CF911F910F91FF90DF90CF90BF9007
:101D1000AF909F908F900895DC0196E0FB010190B9
:101D20000D929A95E1F70895CF93DF93EB0144E08C
:101D300050E0BC018EE194E00E94F629892B49F421
:101D400068E174E0CE010E948C0E81E0DF91CF91BA
:101D5000089580E0FBCFBC0182E094E00E948C0EED
:101D600063EC73E088E094E00C948C0EDC0194E06A
:101D7000FB0101900D929A95E1F708950F931F933F
:101D8000CF938C0187E691E00E94AB0EE2E0F4E095
:101D900088E08487C6E0C58748E050E06CE670E0E4
:101DA00080E194E00E942226E2E2F4E0DF011D924D
:101DB000CA95E9F763EC73E088E194E00E948C0E29
:101DC000B80188E294E00E94B60E61E276E08EE10E
:101DD00094E00E94B60E8AE290E0CF911F910F919D
:101DE0000C948E0488E094E00E94AB0E6CE174E0E9
:101DF00080E294E00E94B60E61E276E08CE194E02D
:101E00000E94B60E0C94E303262F20612093310428
:101E1000643021F0009711F481E090E061E00E94CD
:101E200065031092120488E2809313040E94F20E5C
:101E300084E0809332041092330422E04CE150E0BD
:101E40006AE182E30E94900386E390E00C948E04A2
:101E5000CF93DF93EB010E94AB0EBE0180E294E0D2
:101E60000E94B60E61E276E08CE194E0DF91CF91C2
:101E70000C94B60EEF92FF920F931F93CF93DF93C4
:101E8000182F092FEB01F42EE52ECB010E94C9007B
:101E9000BE01882309F447C086EF93E00E94280F13
:101EA0008881807F803E91F088819981AA81BB8161
:101EB0008F3F9F4FAF4FBF4F49F044E050E0BE010E
:101EC00089EC93E00E94F629892B31F467E671E0F2
:101ED00082E094E00E948C0E88E080930E041092C1
:101EE0000F0449E050E064EC70E080E194E00E946F
:101EF00022261092120481E180931904E0922604B4
:101F0000F0922704009324041093250410922804CF
:101F100010922A0410922B04DF91CF911F910F9100
:101F2000FF90EF9008958CEF93E0B8CFEF92FF927F
:101F30000F931F93CF938C01E2E0F4E086E191E0F0
:101F4000DF019C011D9221503040E1F78091C203D6
:101F500067E671E0833011F46DEA73E043E450E02A
:101F600084E490E00E943A0F67E671E082E094E03A
:101F70000E948C0E81E080932C0480932D0486E0D7
:101F800080932E048091B2039091B303A091B40387
:101F9000B091B5038093300490933104A093320440
:101FA000B0933304C091C203C33031F461E276E0F0
:101FB00088E394E00E94B60E63EC73E088E494E05A
:101FC0000E948C0E88E195E09093BF028093BE0240
:101FD000E8E6F0E084910E946305E9E6F0E0849190
:101FE0000E946305EAE6F0E084910E946305EBE657
:101FF000F0E084910E94630585E30E94630581E01F
:102000000E94630583E0C11101C081E00E94630565
:102010008DE30E94630587E00E94630581E00E94D2
:10202000630583ECE82E83E0F82EC7E0C15031F061
:10203000D7018D917D010E946305F8CF8091000149
:10204000882371F060E071E0FB0101900020E9F766
:10205000BF016150714040E051E08CE00E9470058A
:102060000115110559F0A80164E082E30E94700592
:102070004DEA53E064E086E30E94700587E30E9426
:10208000630583E00E94630581E00E94630583E0AD
:102090000E94630586E00E9463058FEF0E9463053E
:1020A0008091BE029091BF028C529440CF911F91BB
:1020B0000F91FF90EF900C94EE0485ED8093BC009F
:1020C0008091530690915406A0915506B091560602
:1020D0000796A11DB11D23E0B695A7959795879505
:1020E0002A95D1F72091BC0024FD03C0109251061F
:1020F0000895409153065091540660915506709191
:102100005606452B462B472B69F30097A105B105D1
:1021100041F02AE22A95F1F700C00197A109B1091F
:10212000E1CF809152060C94E705FF920F931F9325
:10213000CF93DF93EC01F62E08811981C8010E942C
:102140002B26F81621F06F2DC8010E943326CE01F0
:10215000DF91CF911F910F91FF900895EF92FF9221
:102160000F931F93CF93DF9300D0CDB7DEB78CE5ED
:10217000E82E81E0F82E0AE010E01A830983F701C7
:1021800061917F01CE0101960E9495100F5F1F4F54
:102190000F30110591F78CE591E00F900F90DF91D2
:1021A000CF911F910F91FF90EF900895EF92FF92C2
:1021B0000F931F93CF93DF9300D0CDB7DEB78EE29E
:1021C000E82E87E0F82E08E210E01A830983F70171
:1021D00061917F01CE0101960E9495100F5F1F4F04
:1021E0000E33110591F78EE297E00F900F90DF917B
:1021F000CF911F910F91FF90EF9008958F929F9232
:10220000AF92BF92CF92DF92EF92FF920F931F9304
:10221000CF93DF93E901888199810B30110508F490
:102220008AC086362FE7920709F089C00A81902F6D
:1022300092959F7080915C0198136AC00F70809195
:102240006001081708F064C08B8180934F038C8174
:10225000809350036D817E8190E080E00E945B2737
:102260002DEC3CEC4CEC5DE30E9412284B015C0130
:1022700010E07801EE0CFF1CEE0CFF1CC7018F5B19
:102280009E4F6C016885798590E080E00E945B2715
:102290002AE037ED43E25CE30E941228F6016083F6
:1022A0007183828393838A8580FF07C0F701EE578D
:1022B000FC4F1082118212821382F801EC58FC4FFD
:1022C00081FD33C0108282FF03C090819E5F9083A6
:1022D000F801EB5CFC4F84FB992790F9908391E027
:1022E000282F207285FF90E090935301F70122235D
:1022F000F9F0E35FF94F80829182A282B3820E945B
:102300003D03F701EB5EF94F608371838283938312
:10231000DF91CF911F910F91FF90EF90DF90CF90C1
:10232000BF90AF909F908F90089591E09083CBCF16
:10233000E459FC4FE0CF0A30110509F04CC0883653
:10234000FFE79F07C9F50A81902F92959F708091B2
:102350005C019813DDCF0F70809160010817C0F603
:1023600010E0F801EB5CFE4F8B818083F801E55CA7
:10237000FE4F8C818083F801EF5CFE4F8D8180835E
:10238000F801E95CFE4F8E818083F801E75CFE4F27
:102390008F818083F801ED5CFE4F88858083F80192
:1023A000E659FC4F898580830E943D03000F111F71
:1023B000000F111FF801A6CF8C362FE7920779F492
:1023C000FE013296A7EDB2E02A9681918D93EC172B
:1023D000FD07D9F79DCF0530110508F499CF813756
:1023E000EFE79E0769F58A8180935C018B8180937A
:1023F00060018C8180FF1BC091E090935D0181FFA3
:1024000019C091E090935E0182FF17C081E0809334
:102410005F01DF91CF911F910F91FF90EF90DF90BF
:10242000CF90BF90AF909F908F900C94AE10109271
:102430005D01E5CF10925E01E7CF10925F01E9CF19
:102440000831110508F464CF82379F4709F060CF47
:102450008A8180932E078B8180932F078C818093B4
:1024600030078D81809331078E81809332078F8171
:1024700080933307FE013896A4E3B7E06896819114
:102480008D93CE17DF07D9F70E94D610F0E0E0E079
:10249000DF91CF911F910F91FF90EF90DF90CF9040
:1024A000BF90AF909F908F9009941F920F920FB69C
:1024B0000F9211242F933F934F935F936F937F93CA
:1024C0008F939F93AF93BF93EF93FF938BE796E028
:1024D0000E946701FF91EF91BF91AF919F918F9102
:1024E0007F916F915F914F913F912F910F900FBE10
:1024F0000F901F9018951F920F920FB60F921124F4
:102500002F938F939F93EF93FF93E0918B06F0911E
:102510008C068081E0919106F091920682FD1BC0AD
:102520009081809194068F5F8F732091950682171A
:1025300041F0E0919406F0E0E558F94F958F8093D3
:102540009406FF91EF919F918F912F910F900FBE65
:102550000F901F9018958081F4CF1F920F920FB6A5
:102560000F9211242F933F938F939F93AF93BF9319
:102570008091C2029091C302A091C402B091C502A1
:102580003091C10223E0230F2D3758F50196A11D8C
:10259000B11D2093C1028093C2029093C302A09305
:1025A000C402B093C5028091C6029091C702A09167
:1025B000C802B091C9020196A11DB11D8093C60247
:1025C0009093C702A093C802B093C902BF91AF9184
:1025D0009F918F913F912F910F900FBE0F901F9061
:1025E000189526E8230F0296A11DB11DD2CF1F9288
:1025F0000F920FB60F9211242F933F934F935F9337
:102600006F937F938F939F93AF93BF93EF93FF93BA
:10261000E0915A01F0915B010995FF91EF91BF9113
:10262000AF919F918F917F916F915F914F913F916A
:102630002F910F900FBE0F901F9018951F920F9221
:102640000FB60F9211242F933F934F935F936F9385
:102650007F938F939F93AF93BF93EF93FF93E091FB
:102660005801F09159010995FF91EF91BF91AF91F8
:102670009F918F917F916F915F914F913F912F919A
:102680000F900FBE0F901F9018951F920F920FB6CC
:102690000F9211242F933F934F935F936F937F93E8
:1026A0008F939F93AF93BF93EF93FF938091B90064
:1026B000887F803609F44AC0F0F5883209F4A7C053
:1026C00018F5803109F49BC0B8F4882309F4F9C0E7
:1026D000883009F494C0FF91EF91BF91AF919F9121
:1026E0008F917F916F915F914F913F912F910F90BB
:1026F0000FBE0F901F901895883109F488C0803262
:1027000051F780934F0614C0803409F49DC040F403
:102710008033B9F38833F9F680934F0685ECB0C067
:10272000803509F485C0883509F496C0883499F657
:102730000E945D10D0CF883909F48CC038F58837F5
:1027400029F050F4883611F0803729F683E0809321
:1027500051061092BD0257C0883809F47BC08039F9
:1027600019F0803809F0B7CF8091BD02803208F0AF
:1027700071C0E091BD0281E08E0F8093BD02809117
:10278000BB00F0E0E356FD4F80833DC0803B39F055
:10279000E0F4803A09F479C0883A09F09CCF84E0EB
:1027A0008093510610929C0210929B02E0912706A2
:1027B000F0912806099580919B0281110FC081E05C
:1027C00080939B0210927B0209C0803C09F4A6CF43
:1027D000883C09F4A3CF883B09F07DCFE0919C02AF
:1027E00081E08E0F80939C02F0E0E558FD4F8081E0
:1027F0008093BB0090919C0280919B0229C08091A4
:102800002C068093BB0085EC8093BC0064CF909134
:102810004E0680914D06981758F5E0914E0681E0DE
:102820008E0F80934E06F0E0E35DF94F8081E9CF93
:10283000E0914E0681E08E0F80934E068091BB00A2
:10284000F0E0E35DF94F808390914E0680914D0654
:102850009817C8F285E8D8CFE0914E0681E08E0F38
:1028600080934E068091BB00F0E0E35DF94F8083DA
:102870008091500681115CCF81E080932B0684EA21
:102880008093BC001092510626CF85EC8093BC004B
:10289000109251068091BD02803230F4E091BD0269
:1028A000F0E0E356FD4F10826091BD0270E0E091D0
:1028B0002506F09126068DE992E009951092BD0259
:1028C0000ACF10924F0634CFEBE7F6E01382128264
:1028D00088EE93E0A0E0B0E084839583A683B7837D
:1028E00021E731E03183208325EC30E035872487F0
:1028F00024EC30E03787268720EC30E0318B208BCA
:1029000021EC30E0338B228B22EC30E0358B248BB2
:1029100026EC30E0378B268B118E128E138E148EA0
:10292000E8E1F7E01382128284839583A683B7835C
:1029300083E891E091838083EEE2F7E082E0808398
:1029400083E0818384E0828386E0838385E08483DF
:1029500089E08583E4E2F7E011821082138212821B
:1029600080E184830895CF93DF93CDB7DEB7E097FE
:102970000FB6F894DEBF0FBECDBF789484B58260E9
:1029800084BD84B5816084BD85B5826085BD85B513
:10299000816085BD80916E00816080936E00109291
:1029A000810080918100826080938100809181000C
:1029B000816080938100809180008160809380009D
:1029C0008091B10084608093B1008091B0008160FB
:1029D0008093B00080917A00846080937A00809127
:1029E0007A00826080937A0080917A00816080937F
:1029F0007A0080917A00806880937A001092C100FA
:102A0000E0918B06F0918C0682E08083E09187064E
:102A1000F09188061082E0918906F0918A0683E39E
:102A2000808310929306E0918F06F091900686E0E5
:102A30008083E0918D06F0918E0680818061808395
:102A4000E0918D06F0918E06808188608083E09110
:102A50008D06F0918E06808180688083E0918D06DE
:102A6000F0918E0680818F7D808390E080E00E94CF
:102A70002B268093D50281E090E00E942B26809344
:102A8000D6028091D5029091D6028435994009F4FE
:102A9000EAC01A82198264E5CE0101960E9495105F
:102AA00081E090E09A83898369E0CE0101960E94DB
:102AB00095100E94AE100E94D61068E873E180E085
:102AC00090E00E940B030E94C30984E991E00E94F8
:102AD0000B0A8BEA91E00E94170A80915C010E9428
:102AE000190A0E94C3090E94C309809160018111E3
:102AF00003C081E08093600180915D01882309F427
:102B0000D5C087EB91E00E940B0A0E94D00580910E
:102B10005D0104E317E0882309F4CEC081E08093CF
:102B2000570680E2809379061092580610927A0632
:102B300081E00E9408068111BCC08EEE91E00E94E7
:102B40000B0A86E090E00E94D1288C0180E2D80137
:102B50008C9388E197E012969C938E93119713962D
:102B60001C92139780E290E015969C938E93149795
:102B700010932507009324070E94D00581E0F801F7
:102B80008383C8010E94020988E00E94160E89E032
:102B90000E94160E8AE00E94160E8BE00E94160E0E
:102BA0008CE00E94160E8DE00E94160E8EE00E94B0
:102BB000160E8FE00E94160E87E00E94160E86E029
:102BC0000E94160E85E00E94160E84E00E94160EEA
:102BD00083E00E94160E82E00E94160E81E00E94A1
:102BE000160E80E00E94160EA0902E07A092D3022F
:102BF000B0902F07B092D402809130078093580391
:102C00008091310780935903809132078093560356
:102C1000809133078093570378E5C72E73E0D72E52
:102C2000E6E5EE2EE3E0FE2E03ED12E020916001DA
:102C3000C801835D92402817190609F00CF449C0B9
:102C400062E0F80181918F010E94420261E0D601A9
:102C50008D916D010E94420261E0F70181917F0137
:102C60000E944202E3CFACE5EA2EA1E0FA2E0AE090
:102C700010E0C8010E942B26D7018D937D010F5FC4
:102C80001F4F0F301105A9F7FEE2EF2EF7E0FF2EE0
:102C900008E210E0C8010E942B26F70181937F0112
:102CA0000F5F1F4F0E331105A9F707CF82ED91E09B
:102CB0002ACF8EEF91E043CFD8018D918D018230E4
:102CC00018F061E00E944202B7E004341B07A1F74C
:102CD0008BCFF2E080E0AF1621F023E081E0A2127A
:102CE0008FEF6EE679E00E94AB0032E080E0B31631
:102CF00021F043E081E0B4128FEF67E279E00E94B7
:102D0000AB0080EC8F8388EA888785E08987809193
:102D10005C019EE6980F9A8790E7998391E39A83E6
:102D200091E29B839DE29C8392E69D838E83C12CDE
:102D3000D12C7601C39404EF11E060E5B62E8091AA
:102D4000D2028111F4C010920A0687E390E0009746
:102D5000C1F0FC0143E0F595E7954A95E1F7E553AD
:102D6000FD4F282F2770B701A60104C0440F551F3F
:102D7000661F771F2A95D2F72081242B2083019785
:102D8000E6CFBE016F5F7F4F83EC93E00E948C0E15
:102D90001093A9030093A8030CB406FC24C061E0BF
:102DA0008AE00E94420261E08AE00E94F60161E04E
:102DB0008BE00E94420261E08DE00E94420260E0EE
:102DC0008CE00E94420261E08BE00E94F60160E02C
:102DD0008BE00E94F60160E08DE00E94F601BCBC31
:102DE0008DB581608DBD8AE08093CA0261E00E944A
:102DF00042020E94F7034FEF60E08FEF0E942B0426
:102E000062E070E080E090E00E940B030E94FE030D
:102E10008DE10E94F20380E00E94F203AEB40E94B2
:102E2000F703AA2099F370E060E088E00E9469044B
:102E300070E060E08CE00E9469046FEF7BE08AE064
:102E40000E94690460E07CE084E00E9469046FEF06
:102E500071E186E00E94690466E774E084E10E9403
:102E6000100561EB88E30E945C046FE370E388E285
:102E70000E94690469EF77EF80E30E94690461E0D2
:102E800080EC0E945C0442E362EC80E80E942B0428
:102E900062E17CE086EC0E94690462E184EC0E94BD
:102EA0005C046CED75E08AEC0E9469046091C303D8
:102EB00084EE0E945C046091C40385EE0E945C0471
:102EC0006091C50382EE0E945C046091C60383EEAC
:102ED0000E945C046091C70380EE0E945C046091D4
:102EE000C80381EE0E945C0460E071E080E10E9412
:102EF00010058FE10E94400440EC6BE180E80E94E5
:102F00002B0444E06FE180E80E942B0482E70E94DA
:102F10007604863008F08F5F91E0811101C090E067
:102F20009093D2028CEF91E00E94170A08CF83E9B8
:102F300091E00E940B0A82E192E00E940B0A10923B
:102F40000A06BE01695F7F4F81E296E00E94B60EDD
:102F5000109208061092070681E08093090668E245
:102F600071E083E096E00E94B60E64E271E08EEFBD
:102F700095E00E94B60E60E271E08DE196E00E945D
:102F8000B60E01E216E02DE136E049EC53E0F8011F
:102F90009191D9018D919D018095892BDA018D93B5
:102FA000AD01B6E0E532FB0799F78DE292E00E94B1
:102FB000170AF12CF80181918F010E94190AF3E0A0
:102FC000FF1629F06EE28BE796E00E948901F394E8
:102FD00024E0F212EFCF0E94C3098091F5038830FC
:102FE00098F435E0839FF0011124E353FC4F2EEF5A
:102FF00030E13183208328ED30E73383228391E071
:1030000094838F5F8093F50383E991E00E940B0A1C
:103010008EE392E00E940B0A8BE796E00E94470144
:10302000181619060CF054C08091EA02811150C0A4
:103030008091E90281114CC08091E802811148C061
:103040008091E702811144C08091E602811140C065
:103050008091E50281113CC08BE796E00E9425013A
:103060008AA719A69091E40229A53AA5292B809355
:10307000E40281E026364FE7340709F080E08093D0
:10308000EA0281E028365FE7350709F080E08093A7
:10309000E90281E02B369FE7390709F080E0809351
:1030A000E80281E02C36AFE73A0709F080E0809330
:1030B000E70281E02137BFE73B0709F080E080931A
:1030C000E60281E022373F4709F080E08093E50285
:1030D0008BE796E00E944701099724F08091EA026D
:1030E00081116BC08BE796E00E94470108970CF0B6
:1030F000A7C18BE796E00E94470103970CF004C23A
:103100008BE796E00E94470108970CF03EC28BE7E0
:1031100096E00E94470103970CF04CC28BE796E0C3
:103120000E94470146970CF4F5C08091E502882380
:1031300009F4F0C01092E5028BE796E00E942501A9
:1031400080932E078BE796E00E94250180932F073E
:103150008BE796E00E942501809330078BE796E08D
:103160000E942501809331078BE796E00E9425019C
:10317000809332078BE796E00E9425018093330706
:1031800004E317E08BE796E00E942501D8018D93B8
:103190008D01B7E004341B07A9F70E94D6100E94E6
:1031A0003D0360934B0170934C0180934D019093CC
:1031B0004E01F0E0E0E00995ADC01092EA028BE725
:1031C00096E00E942501282F22952F7090915C0196
:1031D0002913A0C0082F0F7080916001081708F014
:1031E00099C08BE796E00E94250180934F038BE7FF
:1031F00096E00E942501809350038BE796E00E94A1
:1032000025017C018BE796E00E9425018CA71BA677
:103210002BA53CA5E22AF32A8BE796E00E94250124
:10322000B70190E080E00E945B272DEC3CEC4CEC79
:103230005DE30E9412282B013C018BE796E00E947F
:1032400025016C018BE796E00E94250110E07801D2
:10325000EE0CFF1CEE0CFF1CA7014F5B5E4F5A01EA
:103260008EA71DA68DA59EA5C82AD92AB60190E0D5
:1032700080E00E945B272AE037ED43E25CE30E9496
:103280001228D5016D937D938D939C9313978BE7B3
:1032900096E00E94250180FF07C0F701EE57FC4F22
:1032A0001082118212821382F801EC58FC4F81FDCA
:1032B000C1C0108282FF03C090819E5F9083F8019D
:1032C000EB5CFC4F84FB992790F9908391E0282FC9
:1032D000207285FF90E090935301F701222309F4B7
:1032E000ACC0E35FF94F40825182628273820E94D8
:1032F0003D0360934B0170934C0180934D0190937B
:103300004E010E943D03F701EB5EF94F608371832C
:10331000828393830E943D030091540110915501D3
:103320002091560130915701601B710B820B930B5A
:10333000623371058105910508F47AC60E943D0348
:1033400060935401709355018093560190935701F7
:103350002BEE32E03C8B2B8B4AE853E05CA34BA373
:1033600081E491E09C8F8B8FA3EFB2E0BA8BA98BA5
:10337000EDEFF2E0FC87EB8715EFA12E12E0B12E06
:1033800025E033E03E872D8705E1602E03E0702EB7
:103390004DE053E0588F4F8B82E893E0988B8F87F6
:1033A000AAE8B3E0BE8BAD8B912C812C809160019B
:1033B0008815190411F00CF02FC1EDE0F6E0F88F3C
:1033C000EF8BA5E1CA2EA6E0DA2E8F01BBE0EB2E33
:1033D000B6E0FB2E20916001C7018B509640281764
:1033E000190609F00CF4BBC20E943D03F60181905E
:1033F0009190A190B1906F01681979098A099B0990
:10340000603A7F408105910570F4BB24B39420E0BD
:1034100030E0A901D8016D917D918D919C910E9420
:103420000D2818160CF0B12CF701B1927F010C5F3A
:103430001F4FD0CF91E090833DCFE459FC4F53CF45
:103440008091E902882309F454CE1092E9028BE7B7
:1034500096E00E942501282F22952F7090915C0103
:10346000291358CF082F0F7080916001081708F0BA
:1034700051CF8BE796E00E94250110E0F801EB5C4C
:10348000FE4F80838BE796E00E942501F801E55C02
:10349000FE4F80838BE796E00E942501F801EF5CE8
:1034A000FE4F80838BE796E00E942501F801E95CDE
:1034B000FE4F80838BE796E00E942501F801E75CD0
:1034C000FE4F80838BE796E00E942501F801ED5CBA
:1034D000FE4F80838BE796E00E942501F801E659B4
:1034E000FC4F80830E943D0360934B0170934C011D
:1034F00080934D0190934E010E943D03000F111FD8
:10350000000F111FF80100CF8091E802882309F411
:10351000F7CD1092E8028BE796E00E942501F82E85
:103520008093E1028BE796E00E942501182F80939B
:10353000E2028BE796E00E942501082F8093E302C8
:1035400081E0809355030E943D0360935103709383
:1035500052038093530390935403FF2079F0602F1C
:10356000812F0E94100D0E943D0360934B017093C8
:103570004C0180934D0190934E01CCCE60E080E0F1
:103580000E94100D10925503EECF8091E702882320
:1035900009F4BDCD1092E70207ED12E08BE796E04B
:1035A0000E942501F80181938F01F2E00F3D1F0772
:1035B000A9F7D9CF8091E602882309F4AFCD109204
:1035C000E6028BE796E00E94250180935C018BE781
:1035D00096E00E942501809360018BE796E00E94AF
:1035E000250180FF10C091E090935D0181FF0EC026
:1035F00091E090935E0182FF0CC081E080935F01B7
:103600000E94AE10B0CF10925D01F0CF10925E011B
:10361000F2CF10925F01F4CF8401000F111F000F51
:10362000111FF801E95BFC4F80819181A281B38178
:10363000892B8A2B8B2B09F4A0C0F894808191816F
:10364000A281B3818093430390934403A0934503E5
:10365000B09346031082118212821382F801E55C56
:10366000FC4F80819181A281B38180933703909335
:103670003803A0933903B0933A037894F401EB5CD8
:10368000FC4F8081882309F44DC19801235D3C4F94
:103690003A8F298FD901CD90DD90ED90FC908091EB
:1036A000430390914403A0914503B0914603C80E93
:1036B000D91EEA1EFB1EF901C082D182E282F3828A
:1036C0000E943D0398012B5D3C4F3E8F2D8FD90109
:1036D0002D913D914D915C911B012C01221A330AD1
:1036E000440A550AF801E35EFC4F2082318242828F
:1036F0005382B9EC2B1631044104510400F10E94AD
:103700003D03ED8DFE8D6083718382839383A701DA
:10371000960160E87DE88BE590E00E947F28A20199
:1037200091010E948F28D3012D933D934D935C937B
:103730001397E98DFA8D10821182128213820E94F2
:103740003D03EF89F88D6083718382839383EF85D6
:10375000F88980819181A281B38140914303509186
:1037600044036091450370914603840F951FA61F83
:10377000B71F80839183A283B3830E943D03AF89E7
:10378000B88D0D911D912D913D91B88FAF8B601B20
:10379000710B820B930B613A7F408105910528F0F4
:1037A000F3011082118212821382D3010D911D91B7
:1037B0002D913C91ED85FE8560817181828193819F
:1037C000600F711F821F931F6083718382839383B5
:1037D000EB85FC85C080D180E280F380C016D106E5
:1037E000E206F30620F40083118322833383F5017C
:1037F000C080D180E280F3800C151D052E053F05A9
:1038000020F40083118322833383E989FA8920819C
:103810002F5F2193FA8BE98B2A30E8F1AB85BC85C9
:103820000D911D912D913C91601B710B820B930B9F
:10383000F5010081118122813381601B710B820BA4
:10384000930B0E945B2720E030E048E454E40E94A0
:10385000B326AB89BC896D937D938D939C9313970D
:10386000ED85FE851082118212821382AB85BC85A4
:103870001D921D921D921C92139720E533EC40E09F
:1038800050E0D5012D933D934D935C931397E989B7
:10389000FA8931971082EB8DFC8DC190D190E19027
:1038A000F190FC8FEB8F20E030E0A901C701B60159
:1038B0000E940D2818160CF04AC0A7019601AB898A
:1038C000BC896D917D918D919C910E94B326ED896B
:1038D000FE896083718382839383BFEF8B1A9B0A77
:1038E000EB89FC893496FC8BEB8B2D893E892C5F10
:1038F0003F4F3E8B2D8B4B855C854C5F5F4F5C87CC
:103900004B8754E0A50EB11C8D859E8504969E873D
:103910008D8794E0690E711CAF85B8891496B88BB9
:10392000AF8744CD2091370330913803409139035C
:1039300050913A0360E87DE88BE590E00E948F2883
:10394000D3012D933D934D935C931397F8CEAD899E
:10395000BE891D921D921D921C921397BECF80911D
:1039600055038823F1F10E943D030091510310910A
:1039700052032091530330915403601B710B820B4F
:10398000930B613375478105910530F01092550313
:1039900060E080E00E94100D6EE7262E63E0362E78
:1039A00024E733E03E8B2D8B76E5672E73E0772E90
:1039B0005901710110E000E080916001801711064B
:1039C00009F00CF463C0D5018D915D01F301919074
:1039D0003F01813059F08230D1F1D701CD90DC9098
:1039E00041C06091500380914F03D4CFF801E85A51
:1039F000FC4F8080F801E55FF94F80818823A1F0BA
:103A0000D701CD90DC9060915F01882DD7FE32C048
:103A100081E0611180E0682F882D0E94F601662701
:103A200077276C197D0929C06FEF70E0892D0E94FE
:103A30007E0261E080915F01811160E0882D0E942B
:103A4000F6010F5F1F4FB2E0EB0EF11CB5CFF8018E
:103A5000E55FF94F808170E060E0882371F0F70145
:103A6000C080D18060915F01F801E85AFC4F8081ED
:103A7000D7FC07C00E94F601B601892D0E947E0284
:103A8000E0CF91E0611190E0692FC7CF80915301A1
:103A900056E7E52E53E0F52E10E000E0882309F408
:103AA00026C2EAE5F3E0F88BEF8722E633E03E87B3
:103AB0002D8749E351E05FA34EA387E391E09A8FFE
:103AC000898FABE3B1E0BC8FAB8FE5E3F1E0FE8F14
:103AD000ED8F1C861B86809160012B853C858217AB
:103AE000130609F00CF4A4C2AD89BE891D91BE8BEA
:103AF000AD8BEF89F88D81909190A190B190F88F66
:103B0000EF8BABA1BCA12D913D914D915D91BCA3DB
:103B1000ABA3C501B4010E9441262B013C01EEA1DB
:103B2000FFA12191FFA3EEA32F8FA98DBA8DED9157
:103B3000BA8FA98FE8A7AB8DBC8DED91BC8FAB8FF1
:103B4000EB8BAD8DBE8D0D91BE8FAD8FEB85FC8562
:103B5000123009F0BEC0E55FF94F8081882309F477
:103B6000B3C0EF85F889D080E180F2801381A50190
:103B70009401C301B2010E94B3264B015C0120E015
:103B800030E0A9010E940D2818160CF095C020E025
:103B900030E048EC52E4C501B4010E9412284B0108
:103BA0005C01FF8D6F2F70E090E080E00E945B274A
:103BB000A50194010E94AE2687FF56C028A5622F5A
:103BC00070E090E080E00E945B27962EA72EB82E32
:103BD000C92E602F70E090E080E00E945B2720E01B
:103BE00030E04FE753E40E94B326A30192010E9404
:103BF000122820E030E040EA50E40E9412289B01A5
:103C0000AC016D2D7E2D8F2D912F0E944226D62E38
:103C1000E72EF82E192F262F372F482F592F692DD1
:103C20007A2D8B2D9C2D0E94AE2687FF03C0D92CA8
:103C300075011C2D3B89632F70E090E080E00E94AD
:103C40005D272D2D3E2D4F2D512F0E940D2818162A
:103C50005CF44B89642F70E090E080E00E945B2769
:103C6000D62EE72EF82E192F8D2D9E2DAF2DB12F8C
:103C7000EF85F88980839183A283B3836D2D7E2D98
:103C80008F2D912F0E942527D1016D937C93EB8579
:103C9000FC853196FC87EB872F8538892C5F3F4F59
:103CA000388B2F8732E0230E311C4D855E854C5FAB
:103CB0005F4F5E874D870FCFC501B401905820E05C
:103CC00030E048EC52E469CFD12CE12CF12C10E02B
:103CD000CBCFE45DFE4FFA8BE98BF081FDA3EB8542
:103CE000FC85E659FC4F10812DA1211102C0111154
:103CF000D4C0EB85FC85E55FF94F8081882309F40A
:103D0000C9C0A5019401C301B2010E94B3266B0191
:103D10007C0120E030E0A9010E940D28181624F053
:103D2000F7FAF094F7F8F0943F8D632F70E090E08D
:103D300080E00E945D2720E030E048EC52E40E94E1
:103D4000B326A70196010E94AE2687FF9AC0EB8595
:103D5000FC85EF5CFE4FA080EB85FC85ED5CFE4FA3
:103D6000608170E090E080E00E945D2720E030E01C
:103D700048EC52E40E94B3266F8F78A389A39AA3DC
:103D8000A70196010E940D2887FF64C048A5642FF3
:103D900070E090E080E00E945B275B016C01602F87
:103DA00070E090E080E00E945D27A30192010E94F4
:103DB00012280E9425274B017B0177FF04C0EE24C7
:103DC000FF24E61AF70AB7010F2C000C880B990B99
:103DD0000E945D27A60195010E940D2818162CF45B
:103DE000C601B5010E9425277B015B89A52EB12C58
:103DF000AE14BF040CF45701181419041CF0B1944C
:103E0000A194B1080E943D03ED85FE85C080D1805C
:103E1000E280F3806C197D098E099F09012F10E063
:103E200030E020E0061717072807390778F40E94CA
:103E30003D03AD85BE856D937D938D939C931397C4
:103E40009DA0B1E09B26E989FA899082D101AD92CB
:103E5000BC921DCF2F8D38A149A15AA1C701B6012F
:103E60000E94B3266B017C016A2D70E090E080E037
:103E70000E945D279B01AC01C701B6010E94122878
:103E80008CCF0E943D03AD85BE856D937D938D9350
:103E90009C931397B12CA12CB5CF0E943D03AD8507
:103EA000BE85CD90DD90ED90FC90AB01BC014C192E
:103EB0005D096E097F09B3E01B9FC0011124092E23
:103EC000000CAA0BBB0B84179507A607B70760F475
:103ED0000E943D03ED85FE85608371838283938319
:103EE000E1E0A989BA89EC93B12CA12CAFCF8091E4
:103EF00060018017110609F00CF49AC00E943D037E
:103F0000D7018D909D90AD90BC90681979098A0970
:103F10009B09693E73408105910508F457C00E94D2
:103F20003D03F70160837183828393836801CC0C26
:103F3000DD1CCC0CDD1C9601235F394F590120E0BC
:103F400030E0A901D5016D917D918D919C910E94E8
:103F5000AE26811109C080E090E0A0E8BFE3F50142
:103F600080839183A283B383F601E459FC4F808060
:103F70009180A280B380F801EC58FC4F80818230A0
:103F800071F5D1016D917C91072E000C880B990B76
:103F90000E945D27A50194010E9412280E942527F6
:103FA000F10171836083672B89F420E030E0A9017F
:103FB000C501B4010E940D28181644F4F801E55C0F
:103FC000FE4F808190E0D1018D939C930F5F1F4F36
:103FD000F2E02F0E311C24E0E20EF11C88CFF1013B
:103FE0001182108220E030E040E85FE3C501B401B7
:103FF0000E94AE2687FF09C0F801E55CFE4F808174
:1040000090E0919581959109DECF20E030E040E885
:104010005FE3C501B4010E940D281816BCF6F80133
:10402000E55CFE4F808190E0F10191838083CECFEB
:104030000E943D0300914F011091500120915101C8
:1040400030915201601B710B820B930B693C71051F
:104050008105910508F466C10E943D0360934F01FC
:104060007093500180935101909352014AE853E0BC
:10407000588B4F8782E893E09C878B8721E4422E00
:1040800021E0522E3EE7232E33E0332E7101320120
:104090009E878D876A0110E000E0809160018017A3
:1040A000110611F00CF087C002E913E0F12CE12CAD
:1040B000A5E67A2EBFE7CB2E8AE0D82E809160014C
:1040C0008E151F0409F00CF42DC1D8017C921196B5
:1040D000CC9280915C01B0E18B9FC00111248E29AC
:1040E000F8018283AF85B8896D917D918D919D9105
:1040F000B88BAF8720E030E040E251E40E94122804
:104100004B015C010E942C27F8016383C501B401B7
:104110000E942527D80114967C931497770F660B7D
:10412000762F15966C93EB85FC8561917191819149
:104130009191FC87EB87D2018D909D90AD90BD90C1
:104140002D010E945B2720E030E040E251E40E9414
:104150001228A50194010E94B3260E942527F80188
:10416000668377838087D1018D919D911D018D9DFF
:10417000202D11242187D89E9001D99E300D112425
:1041800032874FE255E76DE371E084ED97E10E94DD
:104190003A0F8BE0F801ACE2B4E001900D928A9501
:1041A000E1F78BE090E00E94EE04BFEFEB1AFB0A10
:1041B000055F1F4F83CF85E690E00E94200A8EE4C2
:1041C00092E00E94170A8FE790E00E94200A8EE496
:1041D00092E00E94170A80915C01B0E18B9FC001C0
:1041E0001124802B0E94190A8EE492E00E94170A83
:1041F000460120E030E040E251E4F6016191719126
:10420000819191916F010E9412280E942C27862F84
:104210000E94190A8EE492E00E94170A20E030E022
:1042200040E251E4D4016D917D918D919C910E9469
:1042300012280E942527872F0E94190A8EE492E0F7
:104240000E94170AF601349720E030E040E251E482
:1042500060817181828193810E9412280E942527AA
:10426000770F660B762F862F0E94190A8EE492E054
:104270000E94170AED85FE8561917191819191915E
:10428000FE87ED87D3018D909D90AD90BD903D014F
:104290000E945B2720E030E040E251E40E941228B7
:1042A000A50194010E94B3260E942527872E982EEF
:1042B000862F0E94190A8EE492E00E94170A882D28
:1042C0000E94190A8EE492E00E94170A892D0E942A
:1042D000190A8EE492E00E94170AF7018081F2E049
:1042E000EF0EF11C2AE0829F802D11240E94190AF2
:1042F0008EE492E00E94170AF70132972081318103
:104300004AE0429FC001439F900D1124892F0E94D3
:10431000190A0E94C3098BE796E00E94D6010F5F3D
:104320001F4FBBCE0E943D0300914B0110914C01E9
:1043300020914D0130914E01601B710B820B930B4C
:10434000693E734081059105B0F00E943D03609382
:104350004B0170934C0180934D0190934E018BE77C
:1043600096E00E944701181619062CF48BE796E098
:104370000E942501F4CF6AE070E080E090E00E94A6
:104380000B038091AC03882379F06091AA037091AC
:10439000AB036115710509F03DC16FEF7BE08CE067
:1043A0000E9469041092AC0389E30E947604F12C08
:1043B000E12C8823D9F16091AA037091AB0380E0CE
:1043C0000E946904BE016F5F7F4F86E090E00E940B
:1043D000040489819A819093AB038093AA038D8111
:1043E0009E817C01F0E8EF22FF2487FF13C08B81C0
:1043F0009C810497E090A803F090A90321E0E21AC1
:10440000F1088E159F0508F47C0162E074E0C70195
:104410000E940404F701EE5FFB4F108281E080935D
:10442000AC0340E46EE180E80E942B0480910A0610
:10443000882369F08091C203823009F4F4C008F047
:10444000ECC0882309F477C1813009F493C1E114E9
:10445000F10409F01EC280910906857029F180914E
:10446000070690910806892BF9F461E184ED0E941A
:104470005C0461E082ED0E945C048AEE0E94760496
:1044800080FDFBCF60E082ED0E945C0489ED0E941C
:10449000760482FF09C083E096E00E94BE0E809100
:1044A00009068860809309068091070690910806A6
:1044B000019690930806809307068091020681304A
:1044C00009F06EC08091090681FF6AC082E0809386
:1044D000020680914A018F5F80934A01182F1F7155
:1044E00088EF95E00E94C90068EF75E0882309F421
:1044F000CDC186EF93E00E94280F08E000930E04E0
:1045000010920F0449E050E064EC70E080E194E028
:104510000E9422268CE28093130486E08093190483
:104520000E94E30310922604109227048BE08093EC
:10453000240410932504E8E2F4E0DF011D920A95BB
:10454000E9F78091490180932A048D5F80934901A6
:1045500080E68093300482E080933104B3E0B0932E
:1045600032041092330410923404109235041092E5
:104570003604109237048093380494E09093390401
:1045800080933A0486E280933B0422E040E250E0CC
:104590006AE182E30E9490038AE390E00E948E0425
:1045A0008EEF95E00E94C900882379F08091FD0587
:1045B00081110BC08091FC05811107C08EEF95E041
:1045C0000E94BE0E81E08093FC0588EF95E00E947A
:1045D000C900882379F08091F70581110BC0809183
:1045E000F605811107C088EF95E00E94BE0E81E0BC
:1045F0008093F60580E090E0892B11F40C940C1860
:104600000E945301882311F40C940C180E9400009E
:104610000C940C1861507109C2CE833009F456C055
:10462000843009F014CF65E0C7010E942305882378
:1046300009F4C9C08091B103811108C088E30E94C8
:104640007604682F6E7F88E30E945C046CE374E05C
:1046500081E296E00E94B60EECE1F5E097012E5F54
:104660003B4F69018F010E5F1F4FB1808081863003
:1046700009F4FBC008F0BEC0813009F4ECC08330FF
:1046800009F4EFC0F801EB0DF11DEC15FD0550F339
:104690000E943D036093BA037093BB038093BC03F5
:1046A0009093BD0380910306882361F01092080661
:1046B0001092070681E08093090663E076E0CB0163
:1046C0000E94B60E93E09093C203C1CE8090BE03C9
:1046D0009090BF03A090C003B090C1033FEF83163A
:1046E0009306A306B30609F4B2CE0E943D030091DF
:1046F000BA031091BB032091BC033091BD03601B32
:10470000710B820B930B681579058A059B0508F4DC
:104710009ECE81E296E00E94960F84E08093C203D1
:104720000E943D036093B6037093B7038093B80370
:104730009093B9038CCE0E943D036093B2037093B3
:10474000B3038093B4039093B503E1E2F6E084E011
:10475000DF011D928A95E9F790E080E00E94960FB4
:1047600088E30E947604682F616088E30E945C04FD
:1047700081E0D4CF62E0C7010E942305882319F1AC
:104780006CE374E0CE0101960E94B60EECE1F5E018
:10479000C7018E5F9B4FBF016E5F7F4F21813081CC
:1047A000363351F48DEA93E00E94B60ECE010196A5
:1047B0000E94960F82E0B2CFFB01E20FF11DE817D5
:1047C000F90748F3F3CF0E943D030091B60310911F
:1047D000B7032091B8033091B903601B710B820BB2
:1047E000930B613177428105910508F430CE109228
:1047F000C2032DCE8A3331F08F3F09F449CF833382
:1048000009F040CF1092BE031092BF031092C00374
:104810001092C103F801C801049620E030E0A9011C
:104820006191542F432F322F2227260F311D411D16
:10483000511DE817F907A1F72F3F8FEF38074807F9
:104840005807B9F42093BE033093BF034093C003CD
:104850005093C10317CFB8018DE196E00E94B60EC8
:1048600011CFB80183E096E0F9CFB8018EEF95E063
:10487000F5CFA8EEB3E00E94B1286093BE03709319
:10488000BF038093C0039093C103FCCE8CEF93E0F1
:1048900032CEE9E2EE16F10408F4ACCE80910E04BB
:1048A000883009F0A7CE80910F04863009F081C1CD
:1048B00044E050E061E276E088E294E00E94F6296C
:1048C000892B09F097CE80911704813029F588E073
:1048D00094E00E94AB0E1092160482E080931704BD
:1048E00068E174E082E294E00E948C0E63EC73E075
:1048F00088E194E00E948C0E6EE174E088E294E01E
:104900000E94B60E61E276E08EE194E00E94B60E5F
:104910008AE290E00E948E048091090683FF0DC018
:1049200010911704123049F46CEF73E083E096E0C5
:104930000E94940E8111109309068091FD0581114A
:1049400011C08091FC05882369F066EF73E08EEF5B
:1049500095E00E94940E882329F081E08093FD0564
:104960001092FC058091F705811144CE8091F605E7
:10497000882309F43FCE66EF73E088EF95E00E944C
:10498000940E882309F436CE81E08093F7051092C7
:10499000F60530CE9091F503911122C0F6E3EF16A3
:1049A000F10408F427CE00911904063009F022CE54
:1049B000809126048B3009F0ABC044E050E068EFF2
:1049C00075E08CE194E00E94F629892B09F012CE63
:1049D0001091310412FF51C085E0809302060ACE87
:1049E0008131E1F63DECC32E33E0D32EB12CA12C66
:1049F00020E08091F5038A151B04D9F1D4F1D6018A
:104A000012963C91129713969C91139780912604CD
:104A10009FA718AAEFA5F8A98E171F0619F5809170
:104A2000270483131FC014969C9014979920D1F0EB
:104A30000091280410E0102F00272091290428500D
:104A4000330B020F131F4091240450912504542767
:104A500045275427ED91FC912CE234E06CE174E0A1
:104A60000995292DFFEFAF1ABF0A35E0C30ED11CFF
:104A7000C0CF222309F492CFBDCD0E944A032091DA
:104A80000206223089F5212F20711271123101F5B1
:104A900060E090E080E00E94040F88E180933104A0
:104AA00043E0409302061092120488E280931304BC
:104AB0000E94E303109234041092350422E04CE18A
:104AC00050E06AE182E30E94900386E390E0B7C081
:104AD00031E0309302060196222311F090E080E04D
:104AE00064E00E94040F86CD253009F483CD10FFC9
:104AF0000AC0233009F47ECD69E001960E94040FBC
:104B00000093020677CD60E0009709F473CDE9CFFA
:104B1000811170CD80912704803509F06BCD109103
:104B2000310411FF39C0109212048CE280931304F7
:104B30000E94F20E82E18093310460E081E090E017
:104B40000E94650310922804109229048091490163
:104B500080932A0410922B048D5F8093490182E098
:104B60008093380484E08093390485E080933A048C
:104B700010923B0490E6909330048093320488E7CF
:104B80008093330422E040E250E06AE182E30E9435
:104B900090038AE390E053C014FF2CCD0E944A0397
:104BA000892B09F027CD10FF25CD60E090E080E053
:104BB00098CF59E2E516F10409F41CCD81111ACD04
:104BC00080911004853409F015CD44E050E061E295
:104BD00076E080E294E00E94F629892BA9F044E077
:104BE00050E069EC73E080E294E00E94F629892BA2
:104BF00059F044E050E067E671E080E294E00E9402
:104C0000F629892B09F0F6CC80911904813009F03E
:104C1000C1CE90912404983009F0BCCE0E94F20ECF
:104C20001092240480912604883F28F09091270454
:104C30009F5F90932704885F80932604C7010E949A
:104C40008E04D8CCFB01DC0102C005900D924150CE
:104C50005040D8F70895F999FECF92BD81BDF89ADA
:104C6000992780B50895262FF999FECF1FBA92BDD6
:104C700081BD20BD0FB6F894FA9AF99A0FBE01963D
:104C800008955058BB27AA270E9459260C94D32771
:104C90000E94C52738F00E94CC2720F039F49F3FAE
:104CA00019F426F40C94C2270EF4E095E7FB0C945B
:104CB000BC27E92F0E94E42758F3BA17620773074D
:104CC0008407950720F079F4A6F50C9406280EF4D5
:104CD000E0950B2EBA2FA02D0B01B90190010C010C
:104CE000CA01A0011124FF27591B99F0593F50F424
:104CF000503E68F11A16F040A22F232F342F44277C
:104D0000585FF3CF469537952795A795F040539573
:104D1000C9F77EF41F16BA0B620B730B840BBAF043
:104D20009150A1F0FF0FBB1F661F771F881FC2F7AE
:104D30000EC0BA0F621F731F841F48F487957795C2
:104D40006795B795F7959E3F08F0B0CF9395880F7C
:104D500008F09927EE0F9795879508950E94982758
:104D600008F481E008950E94C7260C94D3270E947E
:104D7000CC2758F00E94C52740F029F45F3F29F066
:104D80000C94BC2751110C9407280C94C2270E9444
:104D9000E42768F39923B1F3552391F3951B550B41
:104DA000BB27AA2762177307840738F09F5F5F4FFE
:104DB000220F331F441FAA1FA9F335D00E2E3AF03D
:104DC000E0E832D091505040E695001CCAF72BD055
:104DD000FE2F29D0660F771F881FBB1F26173707A6
:104DE0004807AB07B0E809F0BB0B802DBF01FF27D8
:104DF00093585F4F3AF09E3F510578F00C94BC27D2
:104E00000C9407285F3FE4F3983ED4F3869577959A
:104E10006795B795F7959F5FC9F7880F911D969590
:104E2000879597F90895E1E0660F771F881FBB1FEC
:104E3000621773078407BA0720F0621B730B840B99
:104E4000BA0BEE1F88F7E09508950E942C2768940E
:104E5000B1110C94072808950E94EC2788F09F5701
:104E600098F0B92F9927B751B0F0E1F0660F771F8E
:104E7000881F991F1AF0BA95C9F714C0B13091F084
:104E80000E940628B1E008950C940628672F782F19
:104E90008827B85F39F0B93FCCF386957795679549
:104EA000B395D9F73EF490958095709561957F4FB5
:104EB0008F4F9F4F0895E89409C097FB3EF490955B
:104EC0008095709561957F4F8F4F9F4F9923A9F0E3
:104ED000F92F96E9BB279395F69587957795679572
:104EE000B795F111F8CFFAF4BB0F11F460FF1BC0B6
:104EF0006F5F7F4F8F4F9F4F16C0882311F096E949
:104F000011C0772321F09EE8872F762F05C06623F6
:104F100071F096E8862F70E060E02AF09A95660FAF
:104F2000771F881FDAF7880F9695879597F9089568
:104F3000990F0008550FAA0BE0E8FEEF16161706AA
:104F4000E807F907C0F012161306E407F50798F012
:104F5000621B730B840B950B39F40A2661F0232B2B
:104F6000242B252B21F408950A2609F4A140A695A7
:104F70008FEF811D811D089597F99F6780E870E08C
:104F800060E008959FEF80EC089500240A941616BF
:104F9000170618060906089500240A941216130627
:104FA000140605060895092E0394000C11F48823B5
:104FB00052F0BB0F40F4BF2B11F460FF04C06F5FD1
:104FC0007F4F8F4F9F4F089557FD9058440F551FA7
:104FD00059F05F3F71F04795880F97FB991F61F07B
:104FE0009F3F79F087950895121613061406551FF2
:104FF000F2CF4695F1DF08C0161617061806991F5E
:10500000F1CF86957105610508940895E894BB2752
:1050100066277727CB0197F908950E94982708F40F
:105020008FEF08950E9425280C94D3270E94C5274E
:1050300038F00E94CC2720F0952311F00C94BC2767
:105040000C94C22711240C9407280E94E42770F3C3
:10505000959FC1F3950F50E0551F629FF001729F1D
:10506000BB27F00DB11D639FAA27F00DB11DAA1F2C
:10507000649F6627B00DA11D661F829F2227B00D79
:10508000A11D621F739FB00DA11D621F839FA00D04
:10509000611D221F749F3327A00D611D231F849F54
:1050A000600D211D822F762F6A2F11249F575040AB
:1050B0009AF0F1F088234AF0EE0FFF1FBB1F661F26
:1050C000771F881F91505040A9F79E3F510580F0EF
:1050D0000C94BC270C9407285F3FE4F3983ED4F36C
:1050E000869577956795B795F795E7959F5FC1F793
:1050F000FE2B880F911D9695879597F90895DB01F2
:105100008F939F930E94B128BF91AF91A29F800D72
:10511000911DA39F900DB29F900D11240895A1E2BF
:105120001A2EAA1BBB1BFD010DC0AA1FBB1FEE1F21
:10513000FF1FA217B307E407F50720F0A21BB30B6C
:10514000E40BF50B661F771F881F991F1A9469F7E8
:1051500060957095809590959B01AC01BD01CF0144
:1051600008950E94C228A59F900DB49F900DA49F02
:10517000800D911D11240895EE0FFF1F0590F491ED
:10518000E02D0994A29FB001B39FC001A39F700DB1
:10519000811D1124911DB29F700D811D1124911D3F
:1051A00008950F931F93CF93DF938230910510F4EE
:1051B00082E090E0E0914607F091470730E020E080
:1051C000B0E0A0E0309799F42115310509F44AC008
:1051D000281B390B24303105D8F58A819B81611554
:1051E000710589F1FB0193838283FE0111C0408127
:1051F00051810281138148175907E0F04817590778
:1052000099F4109761F012960C93129713961C93D1
:105210003296CF01DF91CF911F910F9108950093A6
:10522000460710934707F4CF2115310551F0421777
:10523000530738F0A901DB019A01BD01DF01F80134
:10524000C1CFEF01F9CF9093470780934607CDCFA9
:10525000FE01E20FF31F81939193225031093983AC
:105260002883D7CF2091440730914507232B41F461
:1052700020916301309164013093450720934407E6
:1052800020916101309162012115310541F42DB762
:105290003EB74091650150916601241B350BE091AA
:1052A0004407F0914507E217F307A0F42E1B3F0BCC
:1052B0002817390778F0AC014E5F5F4F2417350788
:1052C00048F04E0F5F1F509345074093440781936A
:1052D00091939FCFF0E0E0E09CCFCF93DF930097D6
:1052E000E9F0FC01329713821282A0914607B09137
:1052F0004707ED0130E020E01097A1F420813181D3
:10530000820F931F209144073091450728173907D2
:1053100009F061C0F0934507E0934407DF91CF9116
:105320000895EA01CE17DF07E8F54A815B819E0107
:1053300041155105B1F7E901FB83EA834991599180
:10534000C40FD51FEC17FD0761F48081918102968F
:10535000840F951FE90199838883828193819B83C0
:105360008A83F0E0E0E012968D919C91139700976C
:10537000B9F52D913C911197CD010296820F931FA3
:1053800020914407309145072817390739F630979F
:1053900051F51092470710924607B0934507A09326
:1053A0004407BCCFD383C28340815181840F951FB2
:1053B000C817D90761F44E5F5F4F88819981480F04
:1053C000591F518340838A819B8193838283211556
:1053D000310509F0B0CFF0934707E09346079ECF21
:1053E000FD01DC01C0CF13821282D7CFFB01DC01AB
:1053F00004C08D910190801921F441505040C8F7AC
:0A540000881B990B0895F894FFCF64
:10540A0041726475696E6F2D454E4332386A363083
:10541A002D303000000000000000000000000000F5
:10542A00FFFFFF0008080808C0A8050101010101E3
:10543A0001646414141414FFFF03033232C0A80574
:10544A00FF0000803F0000803F0A01E8030000C817
:10545A000000000132000000490349030001000076
:10546A0001000048078000FFFFFFFFFFFF00000068
:10547A00008901E9001601D6014701250139010019
:10548A000000004F0722077E07F8061B070807F9E6
:10549A00060D0A0052436E616E6F20203A202032B8
:1054AA00322D4170722D32303232004D6F64756C7C
:1054BA00652049443A20005573696E67204D435070
:1054CA00323330313720666F722072656C617973BE
:1054DA002E005573696E67204E616E6F2070696E7B
:1054EA007320666F722072656C6179732E004D436A
:1054FA0050323330313720466F756E642E004D437B
:10550A00503233303137206E6F7420666F756E6497
:10551A002E0045746865726E657420636F6E7472CE
:10552A006F6C6C657220666F756E642E0049502030
:10553A00416464726573733A202020202000466912
:10554A006E69736865642053657475702E002C004B
:00000001FF
