:100000000C9468000C940A160C94E3150C94900060
:100010000C9490000C9490000C9490000C94900020
:100020000C9490000C9490000C9490000C94900010
:100030000C9490000C9490000C9490000C94900000
:100040000C9499150C9490000C9467150C94411520
:100050000C9490000C9490000C9490000C949000E0
:100060000C9431160C9490006382536300010800D5
:100070000604000100000000240027002A00000000
:100080000000250028002B000404040404040404D8
:100090000202020202020303030303030102040833
:1000A00010204080010204081020010204081020E2
:1000B0000000000800020100000304070000000027
:1000C00000000000450000820000400020005017A2
:1000D00011241FBECFEFD8E0DEBFCDBF12E0A0E0FD
:1000E000B1E0EEE4FAE502C005900D92A638B10742
:1000F000D9F727E0A6E8B2E001C01D92AD3EB207F5
:10010000E1F710E0C8E6D0E004C02197FE010E94AC
:10011000DE2BC736D107C9F70E949F170C94252DF7
:100120000C940000CF93DF9320911C072223C1F091
:10013000FC0120812223A1F0CCE1D7E0A8E1B7E0C7
:100140009C012C5F3F4F899141919D918427892388
:1001500039F4E217F307B9F781E0DF91CF91089501
:1001600080E0FBCF8230C8F4E82FF0E0EE0FFF1FF5
:10017000EC5AFE4F71836083813041F080916900B9
:100180008C7F826080936900E89A0895809169006D
:10019000837F886080936900E99A089590E02091B8
:1001A000CD07293020F0880F991F61110196209109
:1001B000CB073091CC07232B49F02091CE0730E0BC
:1001C000322F2227330F3064822B932B089508950A
:1001D0000895AF92BF92CF92DF92EF92FF920F936A
:1001E0001F93CF93DF936C017B018B01040F151FCD
:1001F000EB015E01AE18BF08C017D10759F0699135
:10020000D601ED91FC910190F081E02DC601099598
:10021000892B79F7C501DF91CF911F910F91FF9045
:10022000EF90DF90CF90BF90AF900895FC01538D79
:10023000448D252F30E0842F90E0821B930B5417C0
:1002400010F0CF96089501970895FC01918D828D4D
:10025000981761F0A28DAE0FBF2FB11D5D968C91E6
:10026000928D9F5F9F73928F90E008958FEF9FEF25
:100270000895FC01918D828D981731F0828DE80FE1
:10028000F11D858D90E008958FEF9FEF0895FC019B
:10029000918D228D892F90E0805C9F4F821B910968
:1002A0008F739927089580E297E00E94470121E02B
:1002B000892B09F420E0822F089580E090E0892BBB
:1002C00029F00E94530181110C9400000895FC0153
:1002D000A48DA80FB92FB11DA35ABF4F2C91848DA7
:1002E00090E001968F739927848FA689B7892C9304
:1002F000A089B1898C91837080648C93938D848D57
:10030000981306C00288F389E02D80818F7D808359
:100310000895EF92FF920F931F93CF93DF93EC0119
:1003200081E0888F9B8D8C8D98131AC0E889F9899C
:10033000808185FF15C09FB7F894EE89FF8960839F
:10034000E889F98980818370806480839FBF81E020
:1003500090E0DF91CF911F910F91FF90EF90089562
:10036000F62E0B8D10E00F5F1F4F0F731127E02E3D
:100370008C8D8E110CC00FB607FCFACFE889F98975
:10038000808185FFF5CFCE010E946701F1CFEB8D13
:10039000EC0FFD2FF11DE35AFF4FF0829FB7F89449
:1003A0000B8FEA89FB8980818062CFCFCF93DF9367
:1003B000EC01888D8823B9F0AA89BB89E889F9897D
:1003C0008C9185FD03C0808186FD0DC00FB607FCB2
:1003D000F7CF8C9185FFF2CF808185FFEDCFCE01E5
:1003E0000E946701E9CFDF91CF91089590E0FC0171
:1003F000E055FF4F2491FC01E456FF4F3491FC017E
:10040000E857FF4FE491EE23C9F0222339F023305F
:1004100001F1A8F4213019F1223029F1F0E0EE0FBA
:10042000FF1FE258FF4FA591B4918FB7F894EC915C
:10043000611126C030953E233C938FBF089527302D
:10044000A9F02830C9F0243049F7809180008F7DD1
:1004500003C0809180008F7780938000DFCF84B5C8
:100460008F7784BDDBCF84B58F7DFBCF8091B000CB
:100470008F778093B000D2CF8091B0008F7DF9CF7D
:100480003E2BDACFCF93DF9390E0FC01E456FF4F91
:10049000249188579F4FFC0184918823C9F090E0F4
:1004A000880F991FFC01EC58FF4FA591B491FC01F6
:1004B000E258FF4FC591D49161110DC09FB7F894D8
:1004C0008C91209582238C938881282328839FBF39
:1004D000DF91CF910895623051F49FB7F8943C9129
:1004E000822F809583238C93E8812E2BEFCF8FB7BB
:1004F000F894EC912E2B2C938FBFEACF1F93CF93C0
:10050000DF93182FEB0161E00E944202209739F43B
:1005100060E0812FDF91CF911F910C94F601CF3FC6
:10052000D10511F461E0F5CFE12FF0E0E055FF4F88
:10053000E491E33031F140F4E130B1F0E230E1F048
:10054000C038D1057CF7E4CFE73029F1E83059F124
:10055000E430B1F780918000806280938000D09376
:100560008B00C0938A0004C084B5806884BDC7BD79
:10057000DF91CF911F91089584B5806284BDC8BD7D
:10058000F7CF80918000806880938000D0938900AD
:10059000C0938800EDCF8091B00080688093B00058
:1005A000C093B300E5CF8091B00080628093B0002B
:1005B000C093B400DDCF8230910538F0880F991FC9
:1005C000880F991F05970197F1F708953FB7F894A1
:1005D0008091100390911103A0911203B091130325
:1005E00026B5A89B05C02F3F19F00196A11DB11D8E
:1005F0003FBFBA2FA92F982F8827BC01CD01620FCA
:10060000711D811D911D42E0660F771F881F991F84
:100610004A95D1F708958F929F92AF92BF92CF9251
:10062000DF92EF92FF924B015C010E94E6026B01A8
:100630007C010E94E6026C197D098E099F09683EC3
:10064000734081059105A8F321E0821A9108A10861
:10065000B10888EEC80E83E0D81EE11CF11C81149D
:100660009104A104B10429F7FF90EF90DF90CF909F
:10067000BF90AF909F908F9008952FB7F89460919E
:100680000C0370910D0380910E0390910F032FBF07
:1006900008950895809163049091640498278927B0
:1006A000982744972091810430E044E035952795C0
:1006B0004A95E1F7220F331F220F331F821B930B42
:1006C00097FF02C090E080E0089520917704309178
:1006D0007504309377042093750420917804309149
:1006E00076043093780420937604E3E5F4E021A5C2
:1006F000820F911D25A585A7662381F021A7892F4B
:100700009927319724E0EF34F20789F71092850496
:100710001092860480E580938104089511A6EFCF9E
:100720000F931F93CF93DF9370E06D5A7B4F8A0135
:10073000075F1F4F213029F0223031F48A01025027
:10074000110930E020E003C000E010E09801EB0167
:10075000FA01E230F10558F0A991B991BA27AB2717
:10076000BA270A0F1B1F211D311D3297F2CFFA0144
:10077000EE7F6E0F7F1F4E175F0769F0FB01408110
:1007800050E070E060E0762F652F542F4427040F6F
:10079000151F261F371FA901662777274115510509
:1007A0006105710519F022273327F1CF00951095C7
:1007B000E82FF0E0ED5AFB4F10830183DF91CF91DA
:1007C0001F910F910895E3E5F4E0108E118E80E4FF
:1007D000848B158A868B20E044E150E06EE088E14E
:1007E0000C9490038EBD0DB407FEFDCF089561E01B
:1007F000809109030E94F60178940895F89460E0CE
:10080000809109030C94F6010F931F93CF93DF930C
:10081000EC018B010E94FE032097B9F08AE30E944D
:10082000F2031EBCF801CE01019739F00DB407FEAA
:10083000FDCF2EB51EBC2193F7CF2197C00FD11F3E
:100840000DB407FEFDCF8EB58883DF91CF911F9148
:100850000F910C94F7031F93CF93DF93182FC62F9C
:10086000D42F0E94FE038C2F8F71812B0E94F203E4
:100870008D2F0E94F203DF91CF911F910C94F7030B
:10088000CF93C82FC07680910A038C1799F043E06C
:100890006FE180EA0E942B04C0930A034C2F50E0C2
:1008A00085E0559547958A95E1F76FE180E8CF910E
:1008B0000C942B04CF910895CF93DF93C82FD62F9C
:1008C0000E9440044D2F6C2F80E4DF91CF910C9457
:1008D0002B04CF93DF93C82FD72F0E945C046D2F7A
:1008E00081E08C0FDF91CF910C945C04CF93C82FE3
:1008F0000E9440040E94FE038C2F8F710E94F2031D
:1009000080E00E94F203C7FF03C080E00E94F20370
:10091000CEB50E94F7038C2FCF910895CF93DF932C
:10092000EC0140E86FE180E80E942B0440E86FE1B1
:1009300080EA0E942B044AE06CE180EA0E942B04CA
:1009400060E07CE082E00E946904BE01745F86E0A2
:100950000E94690440E060E08AE70E942B040E9444
:10096000FE032097B1F08AE70E94F20380915304BE
:100970008EBDE4E5F4E0CD5ADB4FEC17FD0731F016
:1009800081910DB407FEFDCF8EBDF7CF0DB407FEEC
:10099000FDCF0E94F70348E06FE180E80E942B043E
:1009A000D0E0C0E08CE10E9476048A7029F42196A0
:1009B000C83E83E0D807B1F78CE10E94760481FD40
:1009C00003C0C83ED34039F448E06FE180EADF91CC
:1009D000CF910C942B04DF91CF9108950F931F9327
:1009E000CF93DF93EC0103E514E04C96F801908B74
:1009F000818B0E94E303CE010896F80196A387A39A
:100A0000AE01405F5F4F21E06AE188E20E949003FF
:100A1000CE018A96DF91CF911F910F910C948E0495
:100A2000CF93DF93EB01682F84ED0E945C04BE013D
:100A300086ED0E9469048AEE0E94760480FDFBCF59
:100A4000DF91CF910895CF92DF92EF92FF920F93B3
:100A50001F938634910568F120917604233449F57B
:100A6000C0908104D0908204E0908304F0908404CC
:100A700000910304109104042091050430910604B0
:100A8000C016D106E206F306A1F4EDE6F5E08D5AB4
:100A90009B4F9F012E5F3F4F41815081553319F489
:100AA0005281651771F0F901E40FF11DE817F9079C
:100AB00080F380E01F910F91FF90EF90DF90CF9037
:100AC000089581E0F7CFE0910703F09108039F01BB
:100AD0002F5F3F4F309308032093070380830895CF
:100AE000FF920F931F93CF93DF93162FF42E052FB2
:100AF0000E946305812F0E946305CF2DD02F1150D6
:100B000020F089910E946305FACFDF91CF911F9168
:100B10000F91FF9008952091E402260F3327331F91
:100B200021323105ECF42091EE06FC0190E080E0EA
:100B3000243069F082E00895A091E4022191AC0193
:100B40004C535D4FA40FB52FB11D2C930196861702
:100B500098F38091E402680F6093E40280E00895C6
:100B600081E008951092EE0681E08093ED061092E8
:100B7000C80661E082E10E94F60161E083E10E9423
:100B8000F601E9EBF0E080818E7F808380818D7FAC
:100B9000808388E48093B80085E48093BC00089546
:100BA0001092C7061092C6061092F506109217070B
:100BB0000E94B20587EE90E09093C5068093C4062C
:100BC00088EE90E09093C3068093C2060895CF9379
:100BD000DF9391E09093C3028823B9F0C091B800ED
:100BE000D091BA008091BC008A7B8093BC0060E009
:100BF00082E10E94F60160E083E10E94F6010E941A
:100C0000B205D093BA00C093B800DF91CF91089598
:100C10008F929F92AF92BF92CF92DF92EF92FF920C
:100C20000F931F93CF93DF93D0911707D13208F022
:100C3000D7C0182FC09116070E94E6026B017C01F5
:100C40008091EE0681116BC082E08093EE061093D6
:100C5000ED068FEF8093EC061092EB06D093EA0638
:100C6000A6EFB6E0EAECF6E080E0D81391C010926F
:100C7000C9068091C906CC0FC82BC093C9068091C4
:100C8000C806813009F088C01092C8060E94E602AA
:100C90006B017C018091C9068093BB008091F006B6
:100CA0009091F106A091F206B091F306892B8A2B60
:100CB0008B2BA1F00E94E6020091F0061091F10644
:100CC0002091F2063091F3066C197D098E099F0977
:100CD000061717072807390708F442C08091BC009F
:100CE00083FDD8CF85EC8093BC000E94E6026B01A7
:100CF0007C018091EE06823009F450C08091EC06B0
:100D00008F3F09F46FC08091EC06803209F46CC00B
:100D10008091EC06803309F469C084E026C080919C
:100D2000F0069091F106A091F206B091F306892B9E
:100D30008A2B8B2B09F484CF0E94E6028090F00668
:100D40009090F106A090F206B090F3066C197D0920
:100D50008E099F0986169706A806B90608F070CF77
:100D60008091EF060E94E70585E01092F50610924B
:100D700017071092F406DF91CF911F910F91FF900A
:100D8000EF90DF90CF90BF90AF909F908F9008959D
:100D90009D9191938F5F69CF85EEA5CF8091F006ED
:100DA0009091F106A091F206B091F306892B8A2B5F
:100DB0008B2B09F49ECF0E94E6020091F006109161
:100DC000F1062091F2063091F3066C197D098E0927
:100DD0009F09061717072807390708F08ACFC0CFE1
:100DE00081E0C3CF80E0C1CF82E0BFCF83E0BDCF41
:100DF0000895E091C7068091C606E81730F4F0E048
:100E0000ED55FD4F808190E008958FEF9FEF08959D
:100E10009091C7068091C6062FEF3FEF981748F4D0
:100E2000E92FF0E0ED55FD4F208130E09F5F90937A
:100E3000C706C90108958091C6069091C706891B0F
:100E4000990B0895CF92DF92EF92FF920F931F9329
:100E5000CF93DF937C01CB018A012091F4062223FA
:100E600089F0EB016B01C40ED51ECC15DD0569F0D0
:100E70006991D701ED91FC910190F081E02DC701BE
:100E80000995F3CF642F0E948B05C801DF91CF91A4
:100E90001F910F91FF90EF90DF90CF900895CF9327
:100EA000DF931F92CDB7DEB769832091F40622232A
:100EB000F9F020911707203258F021E030E0FC01D2
:100EC0003383228390E080E00F90DF91CF910895EB
:100ED0008091F506E82FF0E0EA50F94F9981908370
:100EE0008F5F8093F5068093170781E090E0ECCF49
:100EF00061E0CE0101960E948B05F7CF90E080E083
:100F000008958FB7F8948091A2028FBF0895AF9291
:100F1000BF92CF92DF92EF92FF920F931F93CF93E6
:100F2000DF93EC0188819981892B89F06EBD0DB426
:100F300007FEFDCFBEB48B2DDF91CF911F910F9196
:100F4000FF90EF90DF90CF90BF90AF90089588858D
:100F5000998511E0892B09F010E8AA24A394862F23
:100F6000812309F0A12C062F2C813D814E815F81C8
:100F700060E271EA87E090E00E94B12BF22EB02E81
:100F8000E12CC22ED12CFF2019F0C6010E94DB02F9
:100F90008A85877F09F042C08D858F3F89F0902F29
:100FA000912381E009F480E08A1551F0EF85F889FA
:100FB0008F89992369F19081892B8083AA24A39436
:100FC000E989FA898081998D892B8083FF2019F026
:100FD000C6010E94DB028E858F3F39F0EB89FC89C8
:100FE0008081988D892309F0E12AE989FA89908125
:100FF000898D8095892380838E858F3F09F0BE2C53
:1010000088859985892BB9F5110F1111BCCF93CF24
:101010009081809589238083A12CD2CFE989FA8998
:101020008081998D892B8083FF2019F0C6010E9451
:10103000DB028D858F3F49F0EF85F8898F89902FEE
:101040009123A9F09081892B8083E989FA89908185
:10105000898D8095892380838E858F3F69F2EB8906
:10106000FC898081988D892339F2E12AC5CF90814E
:1010700080958923E9CF1695C8CF8CBD9DBD089575
:101080008F929F92AF92BF92CF92DF92EF92FF9298
:101090000F931F93CF93DF93EC014B016A01B22EA4
:1010A000A32E88819981892B31F0EA81FB8180818F
:1010B00091810E943D0860E08B850E94F6017401D9
:1010C000C80CD91CEC14FD0479F4EB2CFA2C0E0D91
:1010D0001F1D0E151F0579F06FEFCE010E948707C7
:1010E000F70181937F01F5CFF70161917F01CE0177
:1010F0000E948707E7CF61E08B850E94F60181E0BF
:10110000DF91CF911F910F91FF90EF90DF90CF90E3
:10111000BF90AF909F908F9008958F929F92AF92C3
:10112000BF92CF92DF92EF92FF920F931F93CF93D4
:10113000DF93EC01B62EA72E6A01490188819981BF
:10114000892B31F0EA81FB81808191810E943D08E9
:1011500060E08B850E94F6017401080D191DE016F0
:10116000F10671F40B2D1A2DC00ED11EC016D1063A
:1011700071F0F80161918F01CE010E948707F6CFCF
:10118000F70161917F01CE010E948707E8CF61E0FE
:101190008B850E94F60181E0DF91CF911F910F9125
:1011A000FF90EF90DF90CF90BF90AF909F908F9087
:1011B00008951F93CF93DF93EA01122FDC0111965C
:1011C0008D919C91DC01ED91FC910280F381E02DE9
:1011D0000995C817D90729F4812F0E94080691E0C4
:1011E000811190E0892FDF91CF911F910895CF93C6
:1011F000DF93EC018B818823A1F0888191E09093AB
:10120000F406809316071092F5061092170781E0F6
:101210000E94080691E0811190E0892FDF91CF9123
:1012200008950E94D00581E08B83CE010E94F708CB
:10123000982F8111E2CFF1CFCF92DF92EF92FF9200
:101240000E943D03C0909E02D0909F02E090A002B9
:10125000F090A1026C197D098E099F096B30710510
:101260008105910558F10E943D036C197D098E0995
:101270009F0960937603709377038093780390932C
:1012800079030E943D0360939E0270939F028093B6
:10129000A0029093A1028091820390918303A09178
:1012A0008403B09185030196A11DB11D8093820333
:1012B00090938303A0938403B0938503FF90EF90F2
:1012C000DF90CF900895CF92DF92EF92FF920E942D
:1012D0003D03C0909A02D0909B02E0909C02F09057
:1012E0009D026C197D098E099F096B30710581057E
:1012F000910558F10E943D036C197D098E099F09E3
:1013000060937203709373038093740390937503D7
:101310000E943D0360939A0270939B0280939C020B
:1013200090939D0280917E0390917F03A091800312
:10133000B09181030196A11DB11D80937E0390930E
:101340007F03A0938003B0938103FF90EF90DF9021
:10135000CF9008954FEF460FFC0130E020E050E0C1
:10136000DF01A81BB90BA417B50724F47191270F4F
:10137000311DF6CFFC01E60FF11D319781E0908120
:10138000921380E008950895FC0101900020E9F790
:101390003197AF01481B590BBC0180E297E00C94D8
:1013A000E9008F929F92AF92BF920F931F93CF93BA
:1013B000DF93CDB7DEB7A1970FB6F894DEBF0FBEAF
:1013C000CDBF19A2423008F44AE08E010F5D1F4FD5
:1013D000842E912CB12CA12CA50194010E94B12B3B
:1013E000E62FB901CA01EA30F4F4E05DD801EE93CA
:1013F0008D01232B242B252B79F790E080E010978B
:1014000019F0CD010E94C409A1960FB6F894DEBF71
:101410000FBECDBFDF91CF911F910F91BF90AF90C5
:101420009F908F900895E95CE1CF0C94C4098EE8F9
:1014300091E00C94C409CF93DF930E94C409EC019E
:101440000E94170A8C0F9D1FDF91CF910895BC0158
:10145000990F880B990B4AE00C94D109682F70E022
:1014600090E080E04AE00C94D1092F923F924F9295
:101470005F926F927F928F929F92AF92BF92CF9224
:10148000DF92EF92FF920F931F93CF93DF93CDB72D
:10149000DEB72A970FB6F894DEBF0FBECDBF9C8390
:1014A0008B834F83588769877A87DC01ED90FC90A6
:1014B000F7010085C7010B969E838D8396818781F6
:1014C00099838A83608071806114710409F420C15A
:1014D000418550E0D30114968D919C911597841706
:1014E000950708F468C18C9191E09093F40680937D
:1014F00016071092F5061092170720E0BE016F5FE5
:101500007F4FC3010E94D908882309F454C1402E9B
:10151000512C312C212C2414350408F01AC1F3016C
:10152000848195818201021913098017910708F4BB
:101530008C01D301CC900E94E6024B015C018091AA
:10154000EE06811175C0D02EB0E2B01710F470E233
:10155000D72EE1E0E093EE0621E0C201801B910B63
:101560002816390608F420E02093ED06FFEFF093EB
:10157000EC061092EB068FEF8D0D8093EA0681E06A
:101580008093C9068091C906CC0CC82AC092C906AE
:101590008091C806813009F092C01092C8060E945E
:1015A000E6024B015C018091C9068093BB008091EB
:1015B000F0069091F106A091F206B091F306892B06
:1015C0008A2B8B2BA1F00E94E6022091F00630912D
:1015D000F1064091F2065091F306681979098A09DB
:1015E0009B09261737074807590708F442C080911E
:1015F000BC0083FDD8CF95EC9093BC000E94E6021E
:101600004B015C018091EE06813009F45CC0809151
:10161000EB068D1510F4D090EB06AAECB6E0E3EAE9
:10162000F2E080E08D1551F19D9191938F5FFACF9B
:101630008091F0069091F106A091F206B091F30628
:10164000892B8A2B8B2B09F47ACF0E94E6022091FA
:10165000F0063091F1064091F2065091F3066819B8
:1016600079098A099B09261737074807590708F09F
:1016700066CF8091EF060E94E705D12C1092C70635
:10168000D092C606D016110609F095C0AD80BE8076
:10169000A20CB31C6501C6018A199B09801791072A
:1016A000A0F5F30181819281DC01ED91FC9102842E
:1016B000F385E02D0995F60181936F01ECCFA5EE3E
:1016C000A093BC009BCF8091F0069091F106A09171
:1016D000F206B091F306892B8A2B8B2B09F492CF5B
:1016E0000E94E6022091F0063091F1064091F20648
:1016F0005091F306681979098A099B09261737075B
:101700004807590708F07ECFB4CF200E311E03CF13
:10171000D7010280F381E02D309709F44CC0149674
:101720002D913C91159710E019964C9150E0233083
:10173000310561F5816089839A834F5F5F4F2D8109
:101740003E81BE016F5F7F4FCF010E94400888231A
:1017500091F1F701408550E090E080E000E010E07A
:1017600098018417950754F5322F212F102F002749
:10177000D7011A966C91611119C0FA01E81BF90B97
:10178000EE0DFF1D6285062B0196EBCF211531056D
:1017900019F490689983D3CF2230310511F49F77E3
:1017A000F9CF2130310559F6906CF4CFF701E80FED
:1017B000F91F6385E8CF0FEF1FEF9801EB81FC81E4
:1017C000A081B18118968C911897853008F078C067
:1017D000928141E050E002C0440F551F9A95E2F714
:1017E00041505109052E000C660B770B93816A015D
:1017F0007B01092E04C0CC0CDD1CEE1CFF1C0A94DE
:10180000D2F7C094D094E094F0940C211D212E21A5
:101810003F214F80588469847A844422552266226D
:10182000772204C0440C551C661C771C9A95D2F78D
:10183000402A512A622A732A1F964D925D926D9218
:101840007C92529730E020E0E82EF12C2E153F05D7
:10185000BCF41A968C911A9781110BC0FD01E20F0E
:10186000F31F4386452C562C672C77242F5F3F4F60
:10187000EDCFF701E21BF30BEA0FFB1F4286F2CF1D
:101880006D01FBE0CF0ED11C16969C911697179612
:101890008C91179799838A83AD90BC901197A1146E
:1018A000B10409F44DC019960C9110E098012E0D69
:1018B0003F1DD50114968D919C918217930710F4CA
:1018C00080E016C0F50181819281208131E0309362
:1018D000F406209316071092F506109217070115CB
:1018E0001105F9F421E0A701B601C5010E94D9084C
:1018F0002A960FB6F894DEBF0FBECDBFDF91CF9111
:101900001F910F91FF90EF90DF90CF90BF90AF901D
:101910009F908F907F906F905F904F903F902F900F
:101920000895DC01ED91FC910280F381E02DA80186
:10193000BE016F5F7F4F09950817190709F6D2CFCF
:101940001296ED91FC911397309709F4B9CF149644
:101950002D913C91159719960C9110E0233031058B
:1019600071F48E7F89839A830F5F1F4F9E012F5FD3
:101970003F4FA701B601CF010E948D08B9CF2115B5
:10198000310519F49F779983F1CF2230310511F495
:101990009068F9CF2130310549F79F779064F3CFF4
:1019A0008F929F92AF92BF92CF92DF92FF920F934E
:1019B0001F93CF93DF93CDB7DEB7AE970FB6F894F2
:1019C000DEBF0FBECDBF082FFF24F394883008F48C
:1019D000F12C6F2D80E00E94CE008090CB0790907C
:1019E000CC07A090C907B090CA071BA21CA21DA2D9
:1019F0001EA29F8A8E8ABD8AAC8A23E0C22ED12C79
:101A0000D98EC88E11E01D8F9B8F8A8F1E8E1C8FE2
:101A10006F2D86E00E94CE00188A198A1A8A1B8AC6
:101A20009C828B82BA82A982DE82CD821A879887B5
:101A30008F831B8619870770CE0144969CA78BA7BE
:101A40001DA70EA7439798A78FA319A70AA740E041
:101A500050E0BA018A960E94350A40E050E0BA018F
:101A6000CE0187960E94350AAE960FB6F894DEBF77
:101A70000FBECDBFDF91CF911F910F91FF90DF90EF
:101A8000CF90BF90AF909F908F9008950F931F932A
:101A9000CF93DF93CDB7DEB767970FB6F894DEBF6D
:101AA0000FBECDBF182F062F61E0883008F460E02C
:101AB00089E00E94CE004091CB075091CC07209145
:101AC000C9073091CA07188A198A1A8A1B8A5C8347
:101AD0004B833A83298323E030E03E832D8321E04A
:101AE0002A8798878F831B862987CE0101969D8B35
:101AF0008C8B2E8B17701F8B41E050E060E070E004
:101B0000011103C040E050E0BA01CE0144960E94AA
:101B1000350A67960FB6F894DEBF0FBECDBFDF91D2
:101B2000CF911F910F910895DC0196E0FB01019088
:101B30000D929A95E1F70895CF93DF93EB0144E07E
:101B400050E0BC018FE694E00E94182D892B49F4E7
:101B500069E674E0CE010E94940D81E0DF91CF919F
:101B6000089580E0FBCFBC0183E594E00E94940DD2
:101B700064E174E089E594E00C94940DDC0194E058
:101B8000FB0101900D929A95E1F708950F931F9331
:101B9000CF938C0184E691E00E94B30DE3E5F4E07D
:101BA00088E08487C6E0C58748E050E06CE670E0D6
:101BB00081E694E00E944429E3E7F4E0DF011D920E
:101BC000CA95E9F764E174E089E694E00E94940D17
:101BD000B80189E794E00E94BE0D6CE177E08FE6E2
:101BE00094E00E94BE0D8AE290E0CF911F910F9188
:101BF0000C948E0489E594E00E94B30D6DE674E0C8
:101C000081E794E00E94BE0D6CE177E08DE694E000
:101C10000E94BE0D0C94E303262F206120938204C2
:101C2000643021F0009711F481E090E061E00E94BF
:101C300065031092630488E2809364040E94FA0DA5
:101C400084E0809383041092840422E04CE150E00D
:101C50006AE182E30E94900386E390E00C948E0494
:101C6000CF93DF93EB010E94B30DBE0181E794E0B7
:101C70000E94BE0D6CE177E08DE694E0DF91CF919C
:101C80000C94BE0DEF92FF920F931F93CF93DF93AF
:101C9000182F092FEB01F42EE52ECB010E949200A4
:101CA000BE01882309F447C087E494E00E94300E07
:101CB0008881807F803E91F088819981AA81BB8153
:101CC0008F3F9F4FAF4FBF4F49F044E050E0BE0100
:101CD0008AE194E00E94182D892B31F464E671E0CA
:101CE00083E594E00E94940D88E080935F04109255
:101CF000600449E050E064EC70E081E694E00E940A
:101D000044291092630481E180936A04E09277048D
:101D1000F09278040093750410937604109279047D
:101D200010927B0410927C04DF91CF911F910F9150
:101D3000FF90EF9008958DE494E0B8CFEF92FF927A
:101D40000F931F93CF938C01E3E5F4E086E191E0DC
:101D5000DF019C011D9221503040E1F78091130476
:101D600064E671E0833011F46EEF73E043E450E019
:101D700084E490E00E94420E64E671E083E594E022
:101D80000E94940D81E080937D0480937E0486E020
:101D900080937F048091030490910404A091050432
:101DA000B09106048093810490938204A0938304ED
:101DB000B0938404C0911304C33031F46CE177E034
:101DC00089E894E00E94BE0D64E174E089E994E042
:101DD0000E94940D89E695E0909308038093070391
:101DE000E8E6F0E084910E946305E9E6F0E0849182
:101DF0000E946305EAE6F0E084910E946305EBE649
:101E0000F0E084910E94630585E30E94630581E010
:101E10000E94630583E0C11101C081E00E94630557
:101E20008DE30E94630587E00E94630581E00E94C4
:101E3000630584E1E82E84E0F82EC7E0C15031F05C
:101E4000D7018D917D010E946305F8CF80910C012F
:101E5000882371F06CE071E0FB0101900020E9F74C
:101E6000BF016D5071404CE051E08CE00E94700564
:101E70000115110559F0A80164E082E30E94700584
:101E80004EEF53E064E086E30E94700587E30E9412
:101E9000630583E00E94630581E00E94630583E09F
:101EA0000E94630586E00E9463058FEF0E94630530
:101EB00080910703909108038D579440CF911F9113
:101EC0000F91FF90EF900C94EE0485ED8093BC0091
:101ED0008091F0069091F106A091F206B091F30680
:101EE0000796A11DB11D23E0B695A79597958795F7
:101EF0002A95D1F72091BC0024FD03C01092EE0674
:101F000008954091F0065091F1066091F2067091AB
:101F1000F306452B462B472B69F30097A105B10526
:101F200041F025E32A95F1F700000197A109B109D5
:101F3000E1CF8091EF060C94E705FF920F931F937A
:101F4000CF93DF93EC01F62E08811981C8010E941E
:101F50004D29F81621F06F2DC8010E945529CE0198
:101F6000DF91CF911F910F91FF900895EF92FF9213
:101F70000F931F93CF93DF9300D0CDB7DEB788E5E3
:101F8000E82E81E0F82E0AE010E01A830983F701B9
:101F900061917F01CE0101960E949D0F0F5F1F4F3F
:101FA0000031110591F788E591E00F900F90DF91D6
:101FB000CF911F910F91FF90EF900895EF92FF92B4
:101FC0000F931F93CF93DF9300D0CDB7DEB783ED90
:101FD000E82E87E0F82E08E210E01A830983F70163
:101FE00061917F01CE0101960E949D0F0F5F1F4FEF
:101FF0000E33110591F783ED97E00F900F90DF916D
:10200000CF911F910F91FF90EF9008958F929F9223
:10201000AF92BF92CF92DF92EF92FF920F931F93F6
:10202000CF93DF930115110589F0E901888199812A
:102030008B362FE7920709F420C1A8F48636FFE714
:102040009F07A9F188369F4709F4CAC0DF91CF9155
:102050001F910F91FF90EF90DF90CF90BF90AF90C6
:102060009F908F9008958137EFE79E0709F42BC169
:102070008237FFE79F0709F464C18C369F4731F729
:102080008BE08093AA060B30110500F36BE0CE01C4
:102090000E94AA098823D1F2FE013296ADE5B6E08E
:1020A0002A9681918D93CE17DF07D9F7CFCF8EE097
:1020B0008093AA060E30110548F26EE0CE010E9410
:1020C000AA09882319F20A81902F92959F70809116
:1020D00058019813BBCF0F7080915C01081708F06E
:1020E000B5CF8B8180938B068C8180938A066D811E
:1020F0007E81072E000C880B990B0E947F2A2DEC05
:102100003CEC4CEC5DE30E94342B4B015C0110E095
:102110007801EE0CFF1CEE0CFF1CC7018D5B9E4F7F
:102120006C016885798590E080E00E947D2A2AE034
:1021300037ED43E25CE30E94342BF6016083718348
:10214000828393838A8580FF07C0F701EE57F94F9A
:102150001082118212821382F801E058F94F81FD3A
:1021600039C0108282FF03C090819E5F9083F80186
:10217000E055F94F83FB992790F99083F801E258D5
:10218000F94F84FB992790F9908391E0282F2072D2
:1021900085FF90E090934F01F7012223F1F0EE5478
:1021A000F94F80829182A282B38286FB882780F9D0
:1021B0008093AD068B85809375068C85809374061D
:1021C0000E943D03F701E654F94F608371838283D7
:1021D00093833CCF91E09083C5CFEA58F94FE1CF8C
:1021E0008CE08093AA060C30110508F42FCF6CE028
:1021F000CE010E94AA09882309F428CF0A81902FD2
:1022000092959F7080915801981320CF0F70809104
:102210005C01081708F01ACF10E0F801EF5BFE4FE1
:102220008B818083F801E15CFE4F8C818083F80113
:10223000E35CFE4F8D818083F801E55CFE4F8E816B
:102240008083F801E75CFE4F8F818083F801E95CB1
:10225000FE4F88858083F801EE58F94F8985808389
:10226000F801E059F94F8A8580830E943D03000FF1
:10227000111F000F111FF801A6CF86E08093AA0658
:102280000630110508F4E2CE66E0CE010E94AA09EC
:10229000882309F4DBCEFE013296ACE6B6E0269642
:1022A00081918D93EC17FD07D9F781E08093690642
:1022B0000E943D03609365067093660680936706EF
:1022C00090936806C3CE87E08093AA060730110575
:1022D00008F4BCCE67E0CE010E94AA09882309F465
:1022E000B5CE8A81809358018B8180935C018C816B
:1022F00080935D018D8180FF1BC091E09093590117
:1023000081FF19C091E090935A0182FF17C081E0CC
:1023100080935B01DF91CF911F910F91FF90EF9020
:10232000DF90CF90BF90AF909F908F900C94B60F9E
:1023300010925901E5CF10925A01E7CF10925B013C
:10234000E9CF89E18093AA060931110508F47ECE10
:1023500069E1CE010E94AA09882309F477CE8A8117
:102360008093D3078B818093D4078C818093D5078A
:102370008D818093D6078E818093D7078F8180933C
:10238000D807FE013896A9EDB7E0689681918D9344
:10239000CE17DF07D9F70E94DE0FF0E0E0E0DF9113
:1023A000CF911F910F91FF90EF90DF90CF90BF9052
:1023B000AF909F908F900994AF92BF92CF92DF928F
:1023C000EF92FF920F931F93CF93DF93CDB7DEB7BA
:1023D0002A970FB6F894DEBF0FBECDBFE09130074D
:1023E000F091310782E08083E0912C07F0912D0776
:1023F0001082E0912E07F0912F0783E380831092E3
:102400003807E0913407F091350786E08083E0914A
:102410003207F0913307808180618083E091320739
:10242000F0913307808188608083E0913207F091DA
:102430003307808180688083E0913207F091330711
:1024400080818F7D808390E080E00E944D29809381
:10245000980281E090E00E944D298093990280913A
:102460009802909199028435994009F41FC11A820B
:10247000198264E5CE0101960E949D0F81E090E0F3
:102480009A83898369E0CE0101960E949D0F0E9484
:10249000B60F0E94DE0F68E873E180E090E00E94D2
:1024A0000B030E94170A81E991E00E941B0A88EA47
:1024B00091E00E94150A809158010E942E0A0E9404
:1024C000170A0E94170A80915C01811103C081E004
:1024D00080935C0180915C01833018F082E08093EE
:1024E0005C0180915901882309F403C184EB91E0D8
:1024F0000E941B0A0E94D0058091590109ED17E046
:10250000882309F4FEC080E991E00E941B0A8BEE4B
:1025100091E00E941B0A1092970201E070E2F72EF0
:1025200080918703811121C083E092E00E94150A07
:102530000093F406F09216071092F5061092170712
:1025400081E00E94080691E0811190E0909387035A
:10255000109197021F5F1093970264EF71E080E083
:1025600090E00E940B031630D8F280E991E00E94BF
:102570001B0A80918703882309F4BEC085E092E09E
:102580000E941B0A86E090E00E94F32B8C0180E2FF
:10259000D8018C938DEB97E012969C938E931197B4
:1025A00013961C92139780E290E015969C938E935D
:1025B00014971093CA070093C9070E94D00581E0C1
:1025C000F8018383C8010E94F70888E00E94D00CBC
:1025D00089E00E94D00C8AE00E94D00C8BE00E941F
:1025E000D00C8CE00E94D00C8DE00E94D00C8EE0CC
:1025F0000E94D00C8FE00E94D00C87E00E94D00C8B
:1026000086E00E94D00C85E00E94D00C84E00E94FD
:10261000D00C83E00E94D00C82E00E94D00C81E0BC
:102620000E94D00C80E00E94D00C0091D307009350
:1026300095021091D407109396028091D50780934C
:102640008C038091D60780938D038091D707809368
:102650008A038091D80780938B034CE8A42E43E033
:10266000B42E5AE8C52E53E0D52E65E9E62E62E079
:10267000F62E20915C01C701855992402817190652
:1026800009F00CF44BC062E0F70181917F010E94D8
:10269000420261E0D5018D915D010E94420261E03C
:1026A000F60181916F010E944202E3CFF8E5EF2E1F
:1026B000F1E0FF2E0AE010E0C8010E944D29D70189
:1026C0008D937D010F5F1F4F00311105A9F7E3EDD9
:1026D000EE2EE7E0FE2E08E210E0C8010E944D2930
:1026E000F70181937F010F5F1F4F0E331105A9F78B
:1026F000D2CE8FEC91E0FCCE89E192E00E941B0AE1
:1027000094CFD8018D918D01823018F061E00E9444
:102710004202B7E0093E1B07A1F787CF80E00230F5
:1027200021F08FEF033009F481E063E679E00E9445
:10273000B20080E0123021F08FEF133009F481E015
:102740006CE179E00E94B20080E991E00E941B0AEE
:1027500081E392E00E941B0A80EC8F8388EA8887DD
:1027600080915D018987909158012FEC290F2A876C
:1027700020E7298321E32A8321E22B832DE22C8386
:1027800022E62D839E8390918D02911105C0809346
:102790000A0191E090938D028093330110925B06C1
:1027A00087E390E0C12CD12C7601C3940097C1F04F
:1027B000FC0123E0F595E7952A95E1F7EA57FD4FEF
:1027C000282F2770B701A60104C0440F551F661FAC
:1027D000771F2A95D2F72081242B20830197E6CFFB
:1027E000BE016F5F7F4F84E194E00E94940D84EFFF
:1027F00091E09093FA038093F9030CB406FC25C092
:1028000061E08AE00E94420261E08AE00E94F601F3
:1028100061E08BE00E94420261E08DE00E94420292
:1028200060E08CE00E94420261E08BE00E94F601D1
:1028300060E08BE00E94F60160E08DE00E94F6010E
:1028400080E58CBD8DB581608DBD8AE080930903E4
:1028500061E00E9442020E94F7034FEF60E08FEFB9
:102860000E942B0462E070E080E090E00E940B0385
:102870000E94FE038DE10E94F20380E00E94F203B9
:102880001EB50E94F703112399F370E060E088E021
:102890000E94690470E060E08CE00E9469046FEFC0
:1028A0007BE08AE00E94690460E07CE084E00E94B2
:1028B00069046FEF71E186E00E94690466E774E0E5
:1028C00084E10E94100561EB88E30E945C046FE3E1
:1028D00070E388E20E94690469EF77EF80E30E9469
:1028E000690461E080EC0E945C0442E362EC80E8F1
:1028F0000E942B0462E17CE086EC0E94690462E1A4
:1029000084EC0E945C046CED75E08AEC0E94690422
:102910006091140484EE0E945C046091150485EEBD
:102920000E945C046091160482EE0E945C04609137
:10293000170483EE0E945C046091180480EE0E94EC
:102940005C046091190481EE0E945C0460E071E017
:1029500080E10E9410058FE10E94400440EC6BE191
:1029600080E80E942B0444E06FE180E80E942B0481
:1029700082E70E94760480E991E00E941B0A87E4C6
:1029800092E00E941B0A10925B06BE01695F7F4FB6
:102990008CE197E00E94BE0D1092590610925806E5
:1029A00081E080935A0668E071E084E596E00E9439
:1029B000BE0D64E071E08FE496E00E94BE0D60E021
:1029C00071E088E197E00E94BE0D8CE1E82E87E07F
:1029D000F82E28E137E04AE154E0F7019191D9015E
:1029E0008D919D018095892BDA018D93AD01B7E022
:1029F000E032FB0799F782E692E00E94150A10E0A8
:102A0000F70181917F010E942E0A133029F06EE2B6
:102A100080E297E00E9489011F5F143089F70E94CD
:102A2000170A80914604883098F425E0829FF001CF
:102A30001124E25EFB4F26E030E13183208328ED54
:102A400030E73383228391E094838F5F8093460441
:102A500080E991E00E941B0A83E792E00E941B0A32
:102A60002A960FB6F894DEBF0FBECDBFDF91CF918F
:102A70001F910F91FF90EF90DF90CF90BF90AF909C
:102A800008951F920F920FB60F9211242F933F9328
:102A90004F935F936F937F938F939F93AF93BF9366
:102AA000EF93FF9380E297E00E946701FF91EF911F
:102AB000BF91AF919F918F917F916F915F914F9156
:102AC0003F912F910F900FBE0F901F9018951F925E
:102AD0000F920FB60F9211242F938F939F93EF9322
:102AE000FF93E0913007F09131078081E091360744
:102AF000F091370782FD1BC09081809139078F5F6D
:102B00008F7320913A07821741F0E0913907F0E086
:102B1000E05EF84F958F80933907FF91EF919F9179
:102B20008F912F910F900FBE0F901F90189580815D
:102B3000F4CF1F920F920FB60F9211242F933F9351
:102B40008F939F93AF93BF9380910C0390910D034C
:102B5000A0910E03B0910F0330910B0323E0230FDC
:102B60002D3758F50196A11DB11D20930B038093BD
:102B70000C0390930D03A0930E03B0930F03809169
:102B8000100390911103A0911203B09113030196C9
:102B9000A11DB11D8093100390931103A093120304
:102BA000B0931303BF91AF919F918F913F912F915C
:102BB0000F900FBE0F901F90189526E8230F0296D6
:102BC000A11DB11DD2CF1F920F920FB60F921124EB
:102BD0002F933F934F935F936F937F938F939F9325
:102BE000AF93BF93EF93FF93E0915601F09157019C
:102BF0000995FF91EF91BF91AF919F918F917F9137
:102C00006F915F914F913F912F910F900FBE0F9059
:102C10001F9018951F920F920FB60F9211242F93A9
:102C20003F934F935F936F937F938F939F93AF9354
:102C3000BF93EF93FF93E0915401F09155010995F3
:102C4000FF91EF91BF91AF919F918F917F916F9184
:102C50005F914F913F912F910F900FBE0F901F905A
:102C600018951F920F920FB60F9211242F933F9336
:102C70004F935F936F937F938F939F93AF93BF9384
:102C8000EF93FF938091B900887F803609F44AC0A2
:102C9000F0F5883209F4A7C018F5803109F49BC01B
:102CA000B8F4882309F4F9C0883009F494C0FF917E
:102CB000EF91BF91AF919F918F917F916F915F91B4
:102CC0004F913F912F910F900FBE0F901F9018952D
:102CD000883109F488C0803251F78093EC0614C023
:102CE000803409F49DC040F48033B9F38833F9F699
:102CF0008093EC0685ECB0C0803509F485C088353A
:102D000009F496C0883499F60E94650FD0CF8839AF
:102D100009F48CC038F5883729F050F4883611F062
:102D2000803729F683E08093EE061092060357C0A1
:102D3000883809F47BC0803919F0803809F0B7CFA2
:102D400080910603803208F071C0E091060381E0B3
:102D50008E0F809306038091BB00F0E0EA51FD4F97
:102D600080833DC0803B39F0E0F4803A09F479C0BB
:102D7000883A09F09CCF84E08093EE061092E50239
:102D80001092E402E091C406F091C5060995809185
:102D9000E40281110FC081E08093E4021092C4022A
:102DA00009C0803C09F4A6CF883C09F4A3CF883B36
:102DB00009F07DCFE091E50281E08E0F8093E5027E
:102DC000F0E0EC53FD4F80818093BB009091E502D1
:102DD0008091E40229C08091C9068093BB0085ECF4
:102DE0008093BC0064CF9091EB068091EA0698171F
:102DF00058F5E091EB0681E08E0F8093EB06F0E052
:102E0000E653F94F8081E9CFE091EB0681E08E0F28
:102E10008093EB068091BB00F0E0E653F94F80838E
:102E20009091EB068091EA069817C8F285E8D8CF12
:102E3000E091EB0681E08E0F8093EB068091BB0062
:102E4000F0E0E653F94F80838091ED0681115CCF6D
:102E500081E08093C80684EA8093BC001092EE065D
:102E600026CF85EC8093BC001092EE06809106037D
:102E7000803230F4E0910603F0E0EA51FD4F108219
:102E80006091060370E0E091C206F091C30686EE01
:102E900092E00995109206030ACF1092EC0634CF07
:102EA000E0E2F7E01382128288EE93E0A0E0B0E067
:102EB00084839583A683B7832EE631E03183208314
:102EC00025EC30E03587248724EC30E037872687EF
:102ED00020EC30E0318B208B21EC30E0338B228BE7
:102EE00022EC30E0358B248B26EC30E0378B268BC0
:102EF000118E128E138E148EEDEBF7E01382128278
:102F000084839583A683B78380E891E0918380834F
:102F1000E3EDF7E082E0808383E0818384E08283D5
:102F200086E0838385E0848389E08583E9ECF7E0AC
:102F3000118210821382128280E184830895CF93DC
:102F4000DF93CDB7DEB7AB970FB6F894DEBF0FBEF9
:102F5000CDBF789484B5826084BD84B5816084BD22
:102F600085B5826085BD85B5816085BD80916E0027
:102F7000816080936E001092810080918100826058
:102F80008093810080918100816080938100809195
:102F900080008160809380008091B1008460809384
:102FA000B1008091B00081608093B00080917A0080
:102FB000846080937A0080917A00826080937A00A6
:102FC00080917A00816080937A0080917A00806895
:102FD00080937A001092C1000E94DC110E943D0390
:102FE00000915001109151012091520130915301F3
:102FF000601B710B820B930B623371058105910588
:1030000010F40C9468200E943D036093500170936B
:103010005101809352019093530124E133E03A8BA4
:10302000298B43ED53E05AA349A383E491E09E8F9B
:103030008D8FACE1B3E0BE8BAD8BE6E3F3E0FA87B6
:10304000E98726E233E03C872B874EE253E058873E
:103050004F834EE1A42E43E0B42E8EE393E0988B91
:103060008F875EE4852E53E0952EA6E4B3E0BA8FF9
:10307000A98FE2E8F6E0F88FEF8B23ED33E03C8B8D
:103080002B8B312C212C80915C018215130411F0C3
:103090000CF040C02EEAE22E26E0F22E3AEBC32ED0
:1030A00036E0D32E10E000E080915C01801711061D
:1030B00009F00CF436C20E943D03D6018D909D901C
:1030C000AD90BD906D01681979098A099B09603A34
:1030D0007F408105910508F022C2F801EE0FFF1F25
:1030E000EE0FFF1FEE54F94F20E030E0A9016081A0
:1030F0007181828193810E942F2B18160CF00FC2D0
:10310000F801E055F94F8081F70181937F010F5F4E
:103110001F4FCACF8101000F111F000F111FF801AF
:10312000E258FC4F80819181A281B381892B8A2B47
:103130008B2B09F4A4C0F89480819181A281B38182
:1031400080937A0390937B03A0937C03B0937D03D9
:103150001082118212821382F801EE58FC4F808196
:103160009181A281B38180936E0390936F03A093AA
:103170007003B09371037894F101E258F94F8081A4
:10318000882309F4BFC0A8014A595C4F5C8F4B8F5C
:10319000DA01CD90DD90ED90FC9080917A039091D2
:1031A0007B03A0917C03B0917D03C80ED91EEA1E5B
:1031B000FB1EFA01C082D182E282F3820E943D03AB
:1031C0009801225A3C4F38A32F8FD9014D905D9022
:1031D0006D907C909B01AC01241935094609570973
:1031E00029013A01F801EA5AFC4F40825182628279
:1031F000738235EF431631E053066104710408F120
:103200000E943D03AF8DB8A16D937D938D939C93E8
:103210001397A701960160E87DE88BE590E00E9496
:10322000A12BA30192010E94B12BF40120833183D1
:1032300042835383AB8DBC8D1D921D921D921C92B7
:1032400013970E943D03E98DFA8D60837183828319
:103250009383EF89F88D80819181A281B381409120
:103260007A0350917B0360917C0370917D03840FFE
:10327000951FA61FB71F80839183A283B3830E94EB
:103280003D03A98DBA8D0D911D912D913D91BA8F60
:10329000A98F601B710B820B930B613A7F408105F4
:1032A000910528F0F4011082118212821382D40158
:1032B0004D915D916D917C91EF85F889808191812F
:1032C000A281B381840F951FA61FB71F80839183AE
:1032D000A283B383E985FA8500811181228133813C
:1032E000EF81F885041715072607370758F500837F
:1032F000118322833383E985FA8540835183628376
:10330000738329C020916E0330916F034091700345
:1033100050917103211531054105510531F4F40136
:1033200010821182128213828CCF60E87DE88BE5D7
:1033300090E00E94B12BD4012D933D934D935C936B
:1033400013977FCF008111812281338104171507E4
:103350002607370790F2EB85FC85008111812281D9
:103360003381F501401751076207730758F4008352
:10337000118322833383EB85FC85408351836283F1
:10338000738309C000811181228133814017510765
:103390006207730790F3ED89FE8920812F5F2193E7
:1033A000FE8BED8B2A3008F460C0E985FA854081F8
:1033B000518162817381841B950BA60BB70BEB8542
:1033C000FC850081118122813381BC01CD01601B0C
:1033D000710B820B930BAF81B8850D911D912D91CF
:1033E0003C91601B710B820B930BF50100811181E5
:1033F00022813381601B710B820B930B0E947D2A0B
:1034000020E030E046E154E40E94D529A989BA8938
:103410006D937D938D939C931397EF85F88910821C
:10342000118212821382A985BA851D921D921D9266
:103430001C92139720E43BE44CE450E0AB85BC8540
:103440002D933D934D935C931397EF81F8851082F4
:10345000118212821382D5012D933D934D935C937B
:103460001397ED89FE8931971082ED8DFE8DC19005
:10347000D190E190F190FE8FED8F20E030E0A90136
:10348000C701B6010E942F2B18160CF040C0A701EF
:103490009601A989BA896D917D918D919C910E9427
:1034A000D529EB89FC896083718382839383BFEF85
:1034B0002B1A3B0AE989FA893496FA8BE98B2B8916
:1034C0003C892C5F3F4F3C8B2B8B49855A854C5F49
:1034D0005F4F5A8749878B859C8504969C878B878D
:1034E000AF81B8851496B887AF83B4E0AB0EB11C3A
:1034F000EF85F8893496F88BEF87F4E08F0E911CF6
:103500002F89388D2C5F3F4F388F2F8BBCCDAB89E7
:10351000BC891D921D921D921C921397C8CF80E00A
:10352000F3CD109289031092880380916906882355
:1035300009F4F1C00E943D030091650610916606F2
:103540002091670630916806601B710B820B930B0C
:10355000613375478105910508F4CFC01092690663
:10356000B090890380917506B82AB0928903A09023
:10357000880380917406A82AA0928803809159013B
:10358000813009F028C180918703882309F48EC017
:1035900060915A01B0FECFC088E00E94460D609154
:1035A0005A018091890381FFCBC089E00E94460DBA
:1035B00060915A018091890382FFC7C08AE00E940E
:1035C000460D60915A018091890383FFC3C08BE04F
:1035D0000E94460D60915A018091890384FFBFC00B
:1035E0008CE00E94460D60915A018091890385FF0D
:1035F000BBC08DE00E94460D60915A018091890305
:1036000086FFB7C08EE00E94460D60915A018091FE
:10361000890387FFB3C08FE00E94460D60915A0175
:103620008091880380FFAFC087E00E94460D6091C3
:103630005A018091880381FFABC086E00E94460D4D
:1036400060915A018091880382FFA7C085E00E94A3
:10365000460D60915A018091880383FFA3C084E0E6
:103660000E94460D60915A018091880384FF9FC09B
:1036700083E00E94460D60915A018091880385FF86
:103680009BC082E00E94460D60915A0180918803A0
:1036900086FF97C081E00E94460D60915A0180919B
:1036A000880387FF93C080E00E94460DEFECF3E0B3
:1036B000F88BEF8720E836E03C8F2B8FAAE88A2E24
:1036C000A3E09A2E59018F01F12CE12C80915C012D
:1036D0008E151F0409F00CF423C1D5018D915D01F5
:1036E000F40171904F01813009F4ABC0823009F4CC
:1036F000F5C0D801CD90DC90FCC080916C06882389
:1037000009F42CCF80916D068093890380916E0619
:103710008093880325CF8091AE06811105C08091EA
:10372000AF06882309F41CCF80918B068093890310
:1037300080918A06EDCF81E0611180E0682F2CCF67
:1037400081E0611180E0682F30CF81E0611180E07D
:10375000682F34CF81E0611180E0682F38CF81E09D
:10376000611180E0682F3CCF81E0611180E0682F1B
:1037700040CF81E0611180E0682F44CF81E061118A
:1037800080E0682F48CF81E0611180E0682F4CCF46
:1037900081E0611180E0682F50CF81E0611180E00D
:1037A000682F54CF81E0611180E0682F58CF81E00D
:1037B000611180E0682F5CCF81E0611180E0682FAB
:1037C00060CF81E0611180E0682F64CF81E06111FA
:1037D00080E0682F68CFF12CE12CE114F10449F569
:1037E000B0928603B9EDCB2EB7E0DB2E10E000E0FF
:1037F000D6018D916D01823078F060915A0120914F
:10380000860330E0002E02C0359527950A94E2F732
:1038100020FF12C00E94F6010F5F1F4F08301105F4
:1038200039F7EA94EF2809F441CFEE24E394F12C20
:10383000D4CFA0928603D6CF91E0611190E0692F9A
:10384000E9CFF701E457FC4FD080F701E255F94F7B
:103850008081882381F1D8018D919C91119797FDEA
:1038600013C08B3F910524F0EFEFF0E0ED93FC9354
:1038700060915B018D2D0E94F601D8016D917C91C4
:10388000872D0E947E0224C086309F4F2CF421E0B9
:103890003FEFF8013183208361E080915B0181116A
:1038A00060E08D2D0E94F601D8016D917C9171959B
:1038B00061957109E5CF6FEF70E0872D0E947E0260
:1038C00061E080915B01811160E08D2D0E94F60125
:1038D000BFEFEB1AFB0A0E5F1F4FF8CEF701E25560
:1038E000F94F808170E060E0882351F2F801C080D8
:1038F000D18060915B01F701E457FC4F8081D7FCD8
:1039000004C00E94F601B601BBCF91E0611190E0C6
:10391000692F0E94F601662777276C197D09B0CFC1
:1039200080914F01811197C062EAA62E63E0B62E06
:1039300072EBC72E76E0D72E10E000E080915C019C
:103940008017110609F00CF42EC3D6014D905D903E
:103950006D907C900E943D03F50120813181428170
:103960005381621B730B840B950B693E7340810579
:10397000910508F467C00E943D03D5016D937D93C6
:103980008D939C93139720E030E0A901C301B2010D
:103990000E94D02981110AC020E030E040E85FE3B6
:1039A000D6012D933D934D935C931397F801EE0F41
:1039B000FF1FEE0FFF1FEA58F94F408051806280D1
:1039C0007380F801E058F94F8081823009F0DCC241
:1039D00020E030E0A901C301B2010E942F2B18168C
:1039E0000CF0A1C2C801880F991FFC01E153FC4FE4
:1039F0007F0160817181072E000C880B990B0E945A
:103A00007F2A2DEC3CEC4CE85FE30E94342B0E94B3
:103A1000472AD70111967C936E93161617063CF031
:103A2000F801E15CFE4F808190E08D939C93F7015B
:103A3000808191818F3F910529F024F02FEF30E0B4
:103A4000318320830F5F1F4FB4E0AB0EB11CE4E065
:103A5000CE0ED11C73CFEEE8F3E0FA87E98726E9B2
:103A600033E038872F8342EB56E05A8F498F89E342
:103A700091E09FA38EA3ABE3B1E0BE8FAD8FEFE3E8
:103A8000F1E0F8A3EF8F21E431E03DA32CA3312C2A
:103A9000212C80915C018215130409F00CF483C27F
:103AA000A98DBA8D8D909D90AD90BD90BA8FA98F44
:103AB000E9A1FAA12191319141915191FAA3E9A390
:103AC000C501B4010E9463296B877C878D879E871F
:103AD000AB8DBC8D8D91BC8FAB8FEEA1FFA1C19042
:103AE000FFA3EEA3AD8DBE8DDD90BE8FAD8FEF8DAC
:103AF000F8A12191F8A3EF8F2D8BACA1BDA11D9151
:103B0000BDA3ACA3F101823009F0BEC0E255F94F6C
:103B10008081882309F4B3C0E985FA857080E1804B
:103B2000F2800381A50194016B857C858D859E853E
:103B30000E94D5294B015C0120E030E0A9010E94E0
:103B40002F2B18160CF093C020E030E048EC52E424
:103B5000C501B4010E94342B4B015C016C2D70E057
:103B600090E080E00E947D2AA50194010E94D02966
:103B700087FF54C06D2D70E090E080E00E947D2AA8
:103B80005B016C01612F70E090E080E00E947D2A73
:103B900020E030E04FE753E40E94D5292B853C8597
:103BA0004D855E850E94342B20E030E040EA50E4F1
:103BB0000E94342B9B01AC01672D7E2D8F2D902F01
:103BC0000E946429762EE72EF82E092F262F372FF4
:103BD000482F592FB501C6010E94D02987FF04C084
:103BE0007A2CEB2CFC2C0D2DFD896F2F70E090E0D2
:103BF00080E00E947F2A272D3E2D4F2D502F0E94BE
:103C00002F2B18165CF42D89622F70E090E080E075
:103C10000E947D2A762EE72EF82E092F872D9E2DC5
:103C2000AF2DB02FE985FA8580839183A283B3837A
:103C3000672D7E2D8F2D902F0E94472AAF85B88942
:103C40006D937C93BFEF2B1A3B0AE985FA85349676
:103C5000FA87E9872F8538892E5F3F4F388B2F876A
:103C60004F8158854C5F5F4F58874F8312CFC501F6
:103C7000B401905820E030E048EC52E46BCF712C56
:103C8000E12CF12C00E0CACFE45DFE4FFC8BEB8B06
:103C9000F081FBA3F101EE58F94F20812F8B3BA15E
:103CA000311102C0211113C1F101E255F94F808198
:103CB000882309F409C1A50194016B857C858D8554
:103CC0009E850E94D5294B015C0120E030E0A901CE
:103CD0000E942F2B181624F0B7FAB094B7F8B094BE
:103CE0006C2D70E090E080E00E947F2A20E030E0C0
:103CF00048EC52E40E94D529A50194010E94D029E4
:103D000087FFD2C0F101E35CFE4F0081F101E95C65
:103D1000FE4F608170E090E080E00E947F2A20E00A
:103D200030E048EC52E40E94D529A50194010E949C
:103D30002F2B6D2D87FF602F70E090E080E00E94B8
:103D40007D2A6B017C0180909E0390909F03A09040
:103D5000A003B090A103F101E059F94F608170E038
:103D600090E080E00E947F2AA50194010E94342BFC
:103D700020E030E04FE753E40E94D5292B013C01BD
:103D8000612F70E090E080E00E947F2A2B853C85C7
:103D90004D855E850E94342B9B01AC01C301B201AD
:103DA0000E9464290E94472A7A8B698B8B0177FFD6
:103DB00004C000271127061B170BB801012E000CA9
:103DC000880B990B0E947F2A2B013C0189899A89D3
:103DD000892B21F1A3019201C501B4010E94D529CB
:103DE00020E030E040E850E40E94D02987FF16C070
:103DF00020E030E040E450E46B857C858D859E8535
:103E00000E94D529A50194010E94642960939E0314
:103E100070939F038093A0039093A103A301920149
:103E2000C701B6010E94D02987FF36C0C701B6017D
:103E30000E94472A7B01A989BA891A161B061CF021
:103E4000F194E194F1080E943D03AF81B8850D9192
:103E50001D912D913C91601B710B820B930BBF89BF
:103E60000B2F10E030E020E006171707280739076E
:103E700070F40E943D03EF81F88560837183828333
:103E800093838BA1F1E08F27AB89BC898C93AF859D
:103E9000B889ED92FC92D6CE9D89E92EF12CE016E0
:103EA000F1064CF67801C7CF0E943D03EF81F885FB
:103EB000608371838283938310929E0310929F0389
:103EC0001092A0031092A103F12CE12CBCCF0E9410
:103ED0003D03EF81F8850081118122813381AB019F
:103EE000BC01401B510B620B730BFF8923E0F29F57
:103EF000C0011124092E000CAA0BBB0B84179507D7
:103F0000A607B70768F40E943D03AF81B8856D939B
:103F10007D938D939C93139721E0EB89FC892083FB
:103F2000F12CE12CB4CF20E030E0A901C301B201B3
:103F30000E94D02987FF86CDC801880F991FAC0148
:103F400041535C4F7A01DA016D917C91072E000C90
:103F5000880B990B0E947F2A26E636E646E65FE349
:103F60000E94342B0E94472AF70171836083F80175
:103F7000E15CFE4F20812617170609F00CF462CD94
:103F8000D7011D921C925ECDC801880F991FFC01BC
:103F9000E153FC4F7F01C301B2010E94472AD701C0
:103FA0006D937C934FCD8091AD06882309F490C02A
:103FB0000E943D030091CB031091CC032091CD03CF
:103FC0003091CE03601B710B820B930B693E7340E3
:103FD0008105910508F47CC00E943D036093CB03EA
:103FE0007093CC038093CD039093CE038091D3073D
:103FF0008093CA038091D4078093C90380915801AC
:104000008093C8038CEB90E00E94270A83E892E03B
:104010000E94150A8AE090E00E94270A83E892E055
:104020000E94150A8091CA030E942E0A83E892E03A
:104030000E94150A8091C9030E942E0A83E892E02B
:104040000E94150A8091C8030E942E0A83E892E01C
:104050000E94150A8FE692E00E94150A80E00E94F5
:104060002E0A83E892E00E94150A4AE060E070E0C0
:10407000CB010E94D10980E991E00E941B0A8CEBE0
:104080008093AA038AE08093AB038091CA03809354
:10409000AC038091C9038093AD038091C8038093E2
:1040A000AE031092AF034FE255E761E371E084ED98
:1040B00097E10E94420E8CE0EAEAF3E0ADE7B4E05B
:1040C00001900D928A95E1F78CE090E00E94EE0459
:1040D0000E943D0300914B0110914C0120914D0134
:1040E00030914E01601B710B820B930B693C710583
:1040F0008105910508F4B6C10E943D0360934B0110
:1041000070934C0180934D0190934E0123ED33E069
:104110003A87298742E856E0588B4F8783E491E03D
:104120009A8B898BFFEC2F2EF3E03F2E51016C010F
:104130005C874B8738872F8310E000E0A5E68A2E46
:10414000BAE09B2E80915C018017110609F00CF4F7
:10415000BBC080928C06FFE7F0938D0680915801DA
:1041600020E1829FC0011124802B80938E06AF81B5
:10417000B8856D917D918D919D91B887AF8320E039
:1041800030E040E251E40E94342B2B013C010E94BC
:104190004E2A60938F06C301B2010E94472A709392
:1041A0009006770F660B762F60939106EB85FC8562
:1041B0006191719181919191FC87EB87D6014D902E
:1041C0005D906D907D906D010E947D2A20E030E031
:1041D00040E251E40E94342BA30192010E94D529B0
:1041E0000E94472A609392067093930680939406E8
:1041F000F501819191915F01899D202D11242093DA
:104200009506989E9001999E300D11243093960644
:10421000109297060E943D034090BA065090BB064C
:104220006090BC067090BD066419750986099709EF
:10423000603A7F408105910528F48091970681605E
:10424000809397060E943D034090BE065090BF06A3
:104250006090C0067090C1066419750986099709B7
:10426000603A7F408105910528F48091970682602D
:1042700080939706ECE8F6E090E080E02191820FD1
:10428000911D36E0E839F307C9F7809398068091CD
:104290008C060E942E0A5DE8E52E56E0F52E83E896
:1042A00092E00E94150AD7018D917D010E942E0A8D
:1042B000B9E9EB16B6E0FB0691F780E991E00E94C0
:1042C0001B0A0F5F1F4F3ECF10E000E085E6E82E8F
:1042D0009FE7792E20E1622E3AE0F32E47EEC42EBE
:1042E00043E0D42E80915C018017110609F00CF494
:1042F000B9C0E092DB037092DC0380915801E0E1E9
:104300008E9FC0011124802B8093DD03A985BA857F
:104310006D917D918D919D91BA87A98720E030E0C4
:1043200040E251E40E94342B4B015C010E944E2A72
:104330006093DE03C501B4010E94472A7093DF0336
:10434000062C02C0759567950A94E2F76093E00326
:10435000EF85F8896191719181919191F88BEF8747
:10436000A989BA898D909D90AD90BD90BA8BA98B8B
:104370000E947D2A20E030E040E251E40E94342B8C
:10438000A50194010E94D5290E94472A6093E10368
:104390007093E2038093E303F101819191911F01F6
:1043A0008F9D202D11242093E403F89E9001F99E07
:1043B000300D11243093E5031092E6030E943D0373
:1043C0008090BA069090BB06A090BC06B090BD0647
:1043D000681979098A099B09603A7F40810591052E
:1043E00028F48091E60381608093E6030E943D03F8
:1043F0008090BE069090BF06A090C006B090C10607
:10440000681979098A099B09603A7F4081059105FD
:1044100028F48091E60382608093E603EBEDF3E0FD
:1044200090E080E02191820F911DCE16DF06D1F73A
:104430008093E7034FE255E761E371E084ED97E194
:104440000E94420E8DE0EBEDF3E0ADE7B4E00190A9
:104450000D928A95E1F78DE090E00E94EE040F5FE7
:104460001F4F40CF6AE070E080E090E00E940B03B5
:104470008091FD03882379F06091FB037091FC0328
:104480006115710509F047C16FEF7BE08CE00E9478
:1044900069041092FD0389E30E947604F12CE12C5B
:1044A0008823D9F16091FB037091FC0380E00E94A6
:1044B0006904BE016F5F7F4F86E090E00E940404B4
:1044C00089819A819093FC038093FB038D819E8167
:1044D0007C0130E8E322FF2487FF13C08B819C819D
:1044E0000497E090F903F090FA0341E0E41AF10830
:1044F0008E159F0508F47C0163E574E0C7010E94F6
:104500000404F701ED5AFB4F108281E08093FD0314
:1045100040E46EE180E80E942B0480915B068823D2
:1045200069F080911304823009F4FEC008F0F6C0EF
:10453000882309F481C1813009F49DC1E114F1049B
:1045400009F028C280915A06857029F18091580699
:1045500090915906892BF9F461E184ED0E945C0485
:1045600061E082ED0E945C048AEE0E94760480FD88
:10457000FBCF60E082ED0E945C0489ED0E9476042E
:1045800082FF09C084E596E00E94C60D80915A061C
:10459000886080935A06809158069091590601963A
:1045A000909359068093580680915306813009F004
:1045B0006EC080915A0681FF6AC082E080935306E4
:1045C000809136018F5F80933601182F1F7189E427
:1045D00096E00E94920069E476E0882309F4D7C14E
:1045E00087E494E00E94300E08E000935F0410928C
:1045F000600449E050E064EC70E081E694E00E94E1
:1046000044298CE28093640486E080936A040E94CB
:10461000E30310927704109278048BE08093750482
:1046200010937604E9E7F4E0DF011D920A95E9F7BB
:104630008091350180937B048D5F8093350180E606
:104640008093810482E08093820493E090938304BA
:1046500010928404109285041092860410928704AC
:10466000109288048093890494E090938A04809344
:104670008B0486E280938C0422E040E250E06AE101
:1046800082E30E9490038AE390E00E948E048FE40C
:1046900096E00E949200882379F080914E06811165
:1046A0000BC080914D06811107C08FE496E00E94F7
:1046B000C60D81E080934D0689E496E00E94920049
:1046C000882379F08091480681110BC080914706BC
:1046D000811107C089E496E00E94C60D81E08093B5
:1046E000470680E297E00E944701892B09F40FC436
:1046F00080E297E00E9447014F970CF4E0C280E20D
:1047000097E00E944701892B09F4D5C280E297E027
:104710000E942501F4CF61507109B8CE833009F4AD
:1047200056C0843009F00ACF65E0C7010E94230516
:10473000882309F4C9C080910204811108C088E36C
:104740000E947604682F6E7F88E30E945C046DE807
:1047500074E08CE197E00E94BE0DEDE6F5E0970174
:104760002D5A3B4F69018F010E5F1F4FB180808131
:10477000863009F4FBC008F0BEC0813009F4ECC0FB
:10478000833009F4EFC0F801EB0DF11DEC15FD05C8
:1047900050F30E943D0360930B0470930C048093CC
:1047A0000D0490930E0480915406882361F01092BA
:1047B00059061092580681E080935A0664E576E027
:1047C000CB010E94BE0D83E080931304B7CE80908E
:1047D0000F0490901004A0901104B09012045FEFA9
:1047E00085169506A506B50609F4A8CE0E943D03D8
:1047F00000910B0410910C0420910D0430910E04D3
:10480000601B710B820B930B681579058A059B055C
:1048100008F494CE8CE197E00E949E0E84E0809391
:1048200013040E943D03609307047093080480936F
:10483000090490930A0482CE0E943D03609303040E
:10484000709304048093050490930604ECE1F7E070
:1048500084E0DF011D928A95E9F790E080E00E94F4
:104860009E0E88E30E947604682F616088E30E94B0
:104870005C0481E0D4CF62E0C7010E942305882355
:1048800019F16DE874E0CE0101960E94BE0DEDE6CF
:10489000F5E0C7018D5A9B4FBF016E5F7F4F2181AD
:1048A0003081363351F48EEF93E00E94BE0DCE017D
:1048B00001960E949E0E82E0B2CFFB01E20FF11D35
:1048C000E817F90748F3F3CF0E943D03009107046E
:1048D000109108042091090430910A04601B710BA7
:1048E000820B930B613177428105910508F426CE46
:1048F0001092130423CE8A3331F08F3F09F449CF4D
:10490000833309F040CF10920F04109210041092DC
:10491000110410921204F801C801049620E030E05E
:10492000A9016191542F432F322F2227260F311DC9
:10493000411D511D8E179F07A1F72F3F8FEF38079D
:1049400048075807B9F420930F043093100440939C
:1049500011045093120417CFB80188E197E00E9428
:10496000BE0D11CFB80184E596E0F9CFB8018FE410
:1049700096E0F5CFA8EEB3E00E94D32B60930F042E
:10498000709310048093110490931204FCCE8DE474
:1049900094E028CEB9E2EB16F10408F4A2CE80919F
:1049A0005F04883009F09DCE80916004863009F064
:1049B00022C444E050E06CE177E089E794E00E9493
:1049C000182D892B09F08DCE80916804813029F54E
:1049D00089E594E00E94B30D1092670482E0809311
:1049E000680469E674E083E794E00E94940D64E152
:1049F00074E089E694E00E94940D6FE674E089E724
:104A000094E00E94BE0D6CE177E08FE694E00E9496
:104A1000BE0D8AE290E00E948E0480915A0683FFC8
:104A20000DC010916804123049F46DE474E084E51F
:104A300096E00E949C0D811110935A0680914E06BB
:104A4000811111C080914D06882369F067E474E0FC
:104A50008FE496E00E949C0D882329F081E08093EA
:104A60004E0610924D068091480681113ACE8091F3
:104A70004706882309F435CE67E474E089E496E0BC
:104A80000E949C0D882309F42CCE81E08093480677
:104A90001092470626CE90914604911122C0E6E37B
:104AA000EE16F10408F41DCE00916A04063009F0F8
:104AB00018CE809177048B3009F0ACC044E050E010
:104AC00069E476E08DE694E00E94182D892B09F0C8
:104AD00008CE1091820412FF52C085E080935306E5
:104AE00000CE8131E1F6AEE1CA2EA4E0DA2EB12C7F
:104AF000A12C20E0809146048A151B04E1F1DCF131
:104B0000D60112963C91129713969C91139780911F
:104B1000770498A719A6E8A5F9A58E171F0621F511
:104B200080917804831320C014969C901497992048
:104B3000D9F040917A044850550B20917904022F06
:104B400010E0102F0027040F151F4091750450919D
:104B50007604542745275427ED91FC912DE734E046
:104B60006DE674E00995292DFFEFAF1ABF0A35E015
:104B7000C30ED11CBFCF222309F491CFB2CD0E9426
:104B80004A0320915306223089F5212F207112719A
:104B9000123101F560E090E080E00E940C0E88E1A7
:104BA0008093820483E0809353061092630488E22A
:104BB000809364040E94E30310928504109286049B
:104BC00022E04CE150E06AE182E30E94900386E338
:104BD00090E057C331E0309353060196222311F041
:104BE00090E080E064E00E940C0E7BCD253009F45B
:104BF00078CD10FF0AC0233009F473CD69E0019627
:104C00000E940C0E009353066CCD60E0009709F4EF
:104C100068CDE9CF811165CD80917804803509F0A8
:104C200060CD1091820411FF39C0109263048CE2B0
:104C3000809364040E94FA0D82E18093820460E014
:104C400081E090E00E9465031092790410927A044A
:104C50008091350180937B0410927C048D5F80935A
:104C6000350182E08093890484E080938A0485E0A2
:104C700080938B0410928C0490E69093810480932F
:104C8000830488E78093840422E040E250E06AE1F4
:104C900082E30E9490038AE390E0F3C214FF21CDE7
:104CA0000E944A03892B09F01CCD10FF1ACD60E049
:104CB00090E080E098CF1092AC061092AB06809105
:104CC000AB069091AC068B364FE7940709F4A8C168
:104CD000D8F48636AFE79A0709F45CC088369F4758
:104CE00009F42BC180E297E00E9425018BA71AA648
:104CF00090915C062AA53BA5292B3093AC06209306
:104D0000AB0680935C0603C18137EFE79E0709F489
:104D1000C8C18237FFE79F0709F418C28C369F4746
:104D200009F78BE08093AA0680E297E00E94470192
:104D300009970CF4ECC01092AC061092AB068CE60E
:104D400080938C068FE780938D060EE816E027E9A6
:104D5000E22E26E0F22E680180E297E00E94250113
:104D6000D6018D936D01EA16FB06B1F76BE08CE876
:104D700096E00E94AA09882309F4C9C0EDE5F6E08F
:104D800085E696E0D8012D918D0121938E179F071E
:104D9000C9F7BDC08EE08093AA0680E297E00E942A
:104DA00047010C970CF4B3C01092AC061092AB06FE
:104DB00086E680938C068FE780938D060EE816E0DA
:104DC000EAE9EE2EE6E0FE2E80E297E00E94250161
:104DD000D8018D938D01EA16FB06B1F76EE08CE8E1
:104DE00096E00E94AA09882309F491C000918E06DA
:104DF000902F92959F7080915801981388C00F70E2
:104E000080915C01081708F082C080918F06809322
:104E10008B068091900680938A066091910670912E
:104E20009206072E000C880B990B0E947F2A2DEC0E
:104E30003CEC4CEC5DE30E94342B4B015C0110E038
:104E40007801EE0CFF1CEE0CFF1CF701ED5BFE4F32
:104E50006F01609194067091950690E080E00E9449
:104E60007D2A2AE037ED43E25CE30E94342BD60131
:104E70006D937D938D939C9313978091960680FFFD
:104E800007C0F701EE57F94F108211821282138288
:104E9000F801E058F94F81FD4AC0108282FF03C03B
:104EA00090819E5F9083F801E055F94F83FB99272D
:104EB00090F99083F801E258F94F84FB992790F913
:104EC000908391E0282F207285FF90E090934F010E
:104ED000F701222379F1EE54F94F80829182A28268
:104EE000B38286FB882780F98093AD068091970670
:104EF0008093750680919806809374060E943D0306
:104F0000F701E654F94F608371838283938380E0D5
:104F100090E0892B11F40C94EE170E945301882322
:104F200011F40C94EE170E9400000C94EE1791E01F
:104F30009083B4CFEA58F94FD0CF8CE08093AA0683
:104F400080E297E00E9447010A970CF31092AC06AA
:104F50001092AB0688E680938C068FE780938D06CF
:104F60000EE816E068E9E62E66E0F62E80E297E0AD
:104F70000E942501F80181938F01EE16FF06B1F71B
:104F80006CE08CE896E00E94AA09882309F4BFCF60
:104F900000918E06902F92959F70809158019813E2
:104FA000B6CF0F7080915C01081708F0B0CF10E009
:104FB000F801EF5BFE4F80918F068083F801E15C82
:104FC000FE4F809190068083F801E35CFE4F809154
:104FD00091068083F801E55CFE4F80919206808304
:104FE000F801E75CFE4F809193068083F801E95C4D
:104FF000FE4F809194068083F801EE58F94F80911E
:1050000095068083F801E059F94F809196068083D8
:105010000E943D03000F111F000F111FF80171CFF7
:1050200086E08093AA0680E297E00E9447010497F9
:105030000CF46DCF1092AC061092AB068BE6809309
:105040008C068FE780938D063EE8C32E36E0D32E84
:105050000CE616E042E9E42E46E0F42E80E297E00A
:105060000E942501D6018D936D01F80181938F0176
:10507000EA16FB0699F766E08CE896E00E94AA091A
:10508000882309F444CF81E0809369060E943D03A0
:105090006093650670936606809367069093680632
:1050A00036CF87E08093AA0680E297E00E9447010E
:1050B00005970CF42CCF1092AC061092AB0681E74A
:1050C00080938C068FE780938D060EE816E093E9B7
:1050D000E92E96E0F92E80E297E00E942501F80182
:1050E00081938F01EE16FF06B1F767E08CE896E03A
:1050F0000E94AA09882309F40ACF80918E06809322
:10510000580180918F0680935C0180919006809376
:105110005D018091910680FF10C091E0909359014C
:1051200081FF0EC091E090935A0182FF0CC081E094
:1051300080935B010E94B60FEACE10925901F0CF26
:1051400010925A01F2CF10925B01F4CF89E1809363
:10515000AA0680E297E00E94470147970CF4D7CE59
:105160001092AC061092AB0682E780938C068FE714
:1051700080938D060EE816E085EAE82E86E0F82E8C
:1051800080E297E00E942501D8018D938D01EA16F7
:10519000FB06B1F769E18CE896E00E94AA09882332
:1051A00009F4B5CE80918E068093D30780918F0647
:1051B0008093D407809190068093D50780919106C3
:1051C0008093D607809192068093D70780919306AB
:1051D0008093D807E4E9F6E0A9EDB7E084EA96E029
:1051E00021912D938E179F07D9F70E94DE0FF0E0D3
:1051F000E0E009958CCEF9E2EF16F10409F471CAEA
:1052000081116FCA80916104853409F06ACA44E053
:1052100050E06CE177E081E794E00E94182D892B43
:10522000A9F044E050E06AE174E081E794E00E9474
:10523000182D892B59F044E050E064E671E081E7D5
:1052400094E00E94182D892B09F04BCA80916A04C2
:10525000813009F020CC90917504983009F01BCC76
:105260000E94FA0D1092750480917704883F28F00F
:10527000909178049F5F90937804885F809377047F
:10528000C7010E948E042DCAFB01DC0102C00590FB
:105290000D9241505040D8F70895F999FECF92BD34
:1052A00081BDF89A992780B50895262FF999FECFE8
:1052B0001FBA92BD81BD20BD0FB6F894FA9AF99A33
:1052C0000FBE019608955058BB27AA270E947B293C
:1052D0000C94F52A0E94E72A38F00E94EE2A20F06A
:1052E00039F49F3F19F426F40C94E42A0EF4E09567
:1052F000E7FB0C94DE2AE92F0E94062B58F3BA171D
:10530000620773078407950720F079F4A6F50C94DB
:10531000282B0EF4E0950B2EBA2FA02D0B01B9010E
:1053200090010C01CA01A0011124FF27591B99F01B
:10533000593F50F4503E68F11A16F040A22F232F27
:10534000342F4427585FF3CF469537952795A79577
:10535000F0405395C9F77EF41F16BA0B620B730B1E
:10536000840BBAF09150A1F0FF0FBB1F661F771F8F
:10537000881FC2F70EC0BA0F621F731F841F48F444
:10538000879577956795B795F7959E3F08F0B0CFCD
:105390009395880F08F09927EE0F979587950895B4
:1053A0000E94BA2A08F481E008950E94E9290C9429
:1053B000F52A0E94EE2A58F00E94E72A40F029F4CC
:1053C0005F3F29F00C94DE2A51110C94292B0C9488
:1053D000E42A0E94062B68F39923B1F3552391F335
:1053E000951B550BBB27AA2762177307840738F054
:1053F0009F5F5F4F220F331F441FAA1FA9F335D0B1
:105400000E2E3AF0E0E832D091505040E695001C64
:10541000CAF72BD0FE2F29D0660F771F881FBB1F1E
:10542000261737074807AB07B0E809F0BB0B802DFC
:10543000BF01FF2793585F4F3AF09E3F510578F028
:105440000C94DE2A0C94292B5F3FE4F3983ED4F3AE
:10545000869577956795B795F7959F5FC9F7880FFC
:10546000911D9695879597F90895E1E0660F771F4E
:10547000881FBB1F621773078407BA0720F0621BDF
:10548000730B840BBA0BEE1F88F7E09508950E940A
:105490004E2A6894B1110C94292B08950E940E2B6A
:1054A00088F09F5798F0B92F9927B751B0F0E1F0E5
:1054B000660F771F881F991F1AF0BA95C9F714C095
:1054C000B13091F00E94282BB1E008950C94282B64
:1054D000672F782F8827B85F39F0B93FCCF38695CE
:1054E00077956795B395D9F73EF49095809570952B
:1054F00061957F4F8F4F9F4F0895E89409C097FBA8
:105500003EF490958095709561957F4F8F4F9F4F9A
:105510009923A9F0F92F96E9BB279395F6958795DE
:1055200077956795B795F111F8CFFAF4BB0F11F4A1
:1055300060FF1BC06F5F7F4F8F4F9F4F16C0882348
:1055400011F096E911C0772321F09EE8872F762F7E
:1055500005C0662371F096E8862F70E060E02AF0BF
:105560009A95660F771F881FDAF7880F96958795AB
:1055700097F90895990F0008550FAA0BE0E8FEEF80
:1055800016161706E807F907C0F012161306E40707
:10559000F50798F0621B730B840B950B39F40A2600
:1055A00061F0232B242B252B21F408950A2609F4DE
:1055B000A140A6958FEF811D811D089597F99F67E2
:1055C00080E870E060E008959FEF80EC089500248B
:1055D0000A941616170618060906089500240A9458
:1055E00012161306140605060895092E0394000CDE
:1055F00011F4882352F0BB0F40F4BF2B11F460FF6D
:1056000004C06F5F7F4F8F4F9F4F089557FD905895
:10561000440F551F59F05F3F71F04795880F97FB76
:10562000991F61F09F3F79F0879508951216130630
:105630001406551FF2CF4695F1DF08C0161617065F
:105640001806991FF1CF8695710561050894089594
:10565000E894BB2766277727CB0197F908950E9426
:10566000BA2A08F48FEF08950E94472B0C94F52A6C
:105670000E94E72A38F00E94EE2A20F0952311F0CC
:105680000C94DE2A0C94E42A11240C94292B0E94F9
:10569000062B70F3959FC1F3950F50E0551F629F45
:1056A000F001729FBB27F00DB11D639FAA27F00D7B
:1056B000B11DAA1F649F6627B00DA11D661F829FA2
:1056C0002227B00DA11D621F739FB00DA11D621F87
:1056D000839FA00D611D221F749F3327A00D611DA4
:1056E000231F849F600D211D822F762F6A2F112486
:1056F0009F5750409AF0F1F088234AF0EE0FFF1FB9
:10570000BB1F661F771F881F91505040A9F79E3F0F
:10571000510580F00C94DE2A0C94292B5F3FE4F3B2
:10572000983ED4F3869577956795B795F795E79565
:105730009F5FC1F7FE2B880F911D9695879597F96E
:105740000895DB018F939F930E94D32BBF91AF915C
:10575000A29F800D911DA39F900DB29F900D1124CB
:105760000895A1E21A2EAA1BBB1BFD010DC0AA1FA2
:10577000BB1FEE1FFF1FA217B307E407F50720F0BA
:10578000A21BB30BE40BF50B661F771F881F991F35
:105790001A9469F760957095809590959B01AC017E
:1057A000BD01CF0108950E94E42BA59F900DB49FE9
:1057B000900DA49F800D911D11240895EE0FFF1FE1
:1057C0000590F491E02D0994A29FB001B39FC00110
:1057D000A39F700D811D1124911DB29F700D811D1D
:1057E0001124911D08950F931F93CF93DF9382305F
:1057F000910510F482E090E0E091EB07F091EC0766
:1058000030E020E0B0E0A0E0309799F421153105B8
:1058100009F44AC0281B390B24303105D8F58A8198
:105820009B816115710589F1FB0193838283FE01E0
:1058300011C0408151810281138148175907E0F05E
:105840004817590799F4109761F012960C93129724
:1058500013961C933296CF01DF91CF911F910F9138
:1058600008950093EB071093EC07F4CF2115310551
:1058700051F04217530738F0A901DB019A01BD012D
:10588000DF01F801C1CFEF01F9CF9093EC078093CE
:10589000EB07CDCFFE01E20FF31F819391932250CE
:1058A000310939832883D7CF2091E9073091EA075E
:1058B000232B41F420916001309161013093EA077C
:1058C0002093E90720915E0130915F012115310598
:1058D00041F42DB73EB74091620150916301241B02
:1058E000350BE091E907F091EA07E217F307A0F41E
:1058F0002E1B3F0B2817390778F0AC014E5F5F4F26
:105900002417350748F04E0F5F1F5093EA07409366
:10591000E907819391939FCFF0E0E0E09CCFCF9394
:10592000DF930097E9F0FC01329713821282A09175
:10593000EB07B091EC07ED0130E020E01097A1F407
:1059400020813181820F931F2091E9073091EA076E
:105950002817390709F061C0F093EA07E093E907D7
:10596000DF91CF910895EA01CE17DF07E8F54A816C
:105970005B819E0141155105B1F7E901FB83EA8383
:1059800049915991C40FD51FEC17FD0761F480812F
:1059900091810296840F951FE90199838883828102
:1059A00093819B838A83F0E0E0E012968D919C9135
:1059B00013970097B9F52D913C911197CD0102965F
:1059C000820F931F2091E9073091EA0728173907C2
:1059D00039F6309751F51092EC071092EB07B0931F
:1059E000EA07A093E907BCCFD383C28340815181EA
:1059F000840F951FC817D90761F44E5F5F4F8881E8
:105A00009981480F591F518340838A819B819383D9
:105A100082832115310509F0B0CFF093EC07E093B4
:105A2000EB079ECFFD01DC01C0CF13821282D7CFDE
:105A3000FB01DC0104C08D910190801921F44150DB
:0E5A40005040C8F7881B990B0895F894FFCFCB
:105A4E00FFFFFF0008080808C0A800014172647536
:105A5E00696E6F2D454E4332386A36302D30300028
:105A6E000000000000000000000000000101010124
:105A7E0001C0A801FF0A0114140303FFFF6464327E
:105A8E003214140000803F0000803FC80000000167
:105A9E00320000004903490300010000010100002B
:105AAE00ED078000FFFFFFFFFFFF000000008901F0
:105ABE00E9001601D6014701250139010000000059
:105ACE004F0722077E07F8061B070807F9060D0A7F
