:100000000C945D000C94830C0C945C0C0C94850097
:100010000C9485000C9485000C9485000C9485004C
:100020000C9485000C9485000C9485000C9485003C
:100030000C9485000C9485000C9485000C9485002C
:100040000C94120C0C9485000C94E00B0C94BA0BDD
:100050000C9485000C9485000C9485000C9485000C
:100060000C94AA0C0C9485000000000024002700CA
:100070002A0000000000250028002B0004040404CE
:100080000404040402020202020203030303030342
:10009000010204081020408001020408102001021F
:1000A00004081020000000080002010000030407FB
:1000B0000000000000000000C90D11241FBECFEF9A
:1000C000D8E0DEBFCDBF12E0A0E0B1E0E6EDFBE39B
:1000D00002C005900D92AA30B107D9F724E0AAE03A
:1000E000B2E001C01D92AC39B207E1F710E0CDE5F6
:1000F000D0E004C02197FE010E94AF1CCC35D1078F
:10010000C9F70E94180E0C94E91D0C94000082306F
:10011000C8F4E82FF0E0EE0FFF1FEA5EFE4F718398
:100120006083813041F0809169008C7F8260809390
:100130006900E89A089580916900837F88608093C0
:100140006900E99A089590E020917C04293020F01C
:10015000880F991F6111019620917A0430917B04D8
:10016000232B49F020917D0430E0322F2227330FDA
:100170003064822B932B089508950895AF92BF9217
:10018000CF92DF92EF92FF920F931F93CF93DF9363
:100190006C017B018B01040F151FEB015E01AE1892
:1001A000BF08C017D10759F06991D601ED91FC91B4
:1001B0000190F081E02DC6010995892B79F7C501E1
:1001C000DF91CF911F910F91FF90EF90DF90CF9033
:1001D000BF90AF900895FC01538D448D252F30E0E2
:1001E000842F90E0821B930B541710F0CF96089544
:1001F00001970895FC01918D828D981761F0A28D71
:10020000AE0FBF2FB11D5D968C91928D9F5F9F7336
:10021000928F90E008958FEF9FEF0895FC01918DEC
:10022000828D981731F0828DE80FF11D858D90E059
:1002300008958FEF9FEF0895FC01918D228D892FF6
:1002400090E0805C9F4F821B91098F7399270895DE
:100250008FEC93E00E941C0121E0892B09F420E03F
:10026000822F089580E090E0892B29F00E942801D8
:1002700081110C9400000895FC01A48DA80FB92FE2
:10028000B11DA35ABF4F2C91848D90E001968F73BE
:100290009927848FA689B7892C93A089B1898C91DD
:1002A000837080648C93938D848D981306C002882C
:1002B000F389E02D80818F7D80830895EF92FF92F6
:1002C0000F931F93CF93DF93EC0181E0888F9B8D79
:1002D0008C8D98131AC0E889F989808185FF15C033
:1002E0009FB7F894EE89FF896083E889F989808156
:1002F0008370806480839FBF81E090E0DF91CF9125
:100300001F910F91FF90EF900895F62E0B8D10E046
:100310000F5F1F4F0F731127E02E8C8D8E110CC0B5
:100320000FB607FCFACFE889F989808185FFF5CF00
:10033000CE010E943C01F1CFEB8DEC0FFD2FF11DA2
:10034000E35AFF4FF0829FB7F8940B8FEA89FB893D
:1003500080818062CFCFCF93DF93EC01888D88239B
:10036000B9F0AA89BB89E889F9898C9185FD03C018
:10037000808186FD0DC00FB607FCF7CF8C9185FFFD
:10038000F2CF808185FFEDCFCE010E943C01E9CF05
:10039000DF91CF91089590E0FC01EC55FF4F24913F
:1003A000FC01E057FF4F3491FC01E458FF4FE4910A
:1003B000EE23C9F0222339F0233001F1A8F42130D3
:1003C00019F1223029F1F0E0EE0FFF1FEE58FF4F38
:1003D000A591B4918FB7F894EC91611126C0309536
:1003E0003E233C938FBF08952730A9F02830C9F0F1
:1003F000243049F7809180008F7D03C08091800078
:100400008F7780938000DFCF84B58F7784BDDBCF7B
:1004100084B58F7DFBCF8091B0008F778093B00043
:10042000D2CF8091B0008F7DF9CF3E2BDACFCF9322
:10043000DF9390E0FC01E057FF4F249184589F4FD9
:10044000FC0184918823D1F090E0880F991FFC0172
:10045000E859FF4FA591B491FC01EE58FF4FC591AB
:10046000D491623071F49FB7F8943C91822F8095BB
:1004700083238C93E8812E2B28839FBFDF91CF911C
:1004800008958FB7F894EC912E2B2C938FBFF6CF55
:100490001F93CF93DF93182FEB0161E00E941702A7
:1004A000209739F460E0812FDF91CF911F910C9458
:1004B000CB01CF3FD10511F461E0F5CFE12FF0E0A2
:1004C000EC55FF4FE491E33031F140F4E130B1F00D
:1004D000E230E1F0C038D1057CF7E4CFE73029F114
:1004E000E83059F1E430B1F7809180008062809368
:1004F0008000D0938B00C0938A0004C084B58068CC
:1005000084BDC7BDDF91CF911F91089584B58062EE
:1005100084BDC8BDF7CF8091800080688093800043
:10052000D0938900C0938800EDCF8091B00080689F
:100530008093B000C093B300E5CF8091B00080629B
:100540008093B000C093B400DDCF8230910538F0C5
:10055000880F991F880F991F05970197F1F7089544
:100560003FB7F89480917D0290917E02A0917F0226
:10057000B091800226B5A89B05C02F3F19F00196C7
:10058000A11DB11D3FBFBA2FA92F982F8827BC01ED
:10059000CD01620F711D811D911D42E0660F771F15
:1005A000881F991F4A95D1F708958F929F92AF9215
:1005B000BF92CF92DF92EF92FF924B015C010E94BB
:1005C000B0026B017C010E94B0026C197D098E099A
:1005D0009F09683E734081059105A8F321E0821AC6
:1005E0009108A108B10888EEC80E83E0D81EE11C6E
:1005F000F11C81149104A104B10429F7FF90EF903C
:10060000DF90CF90BF90AF909F908F9008952FB7BD
:10061000F8946091790270917A0280917B029091B6
:100620007C022FBF0895089520915502260F33278D
:10063000331F21323105ECF42091A503FC0190E039
:1006400080E0243069F082E00895A0915502219164
:10065000AC014B5C5D4FA40FB52FB11D2C930196DF
:10066000861798F380915502680F6093550280E0D9
:10067000089581E008951092A50381E08093A4037A
:1006800010927F0361E082E10E94CB0161E083E18F
:100690000E94CB01E9EBF0E080818E7F8083808136
:1006A0008D7F808388E48093B80085E48093BC00CC
:1006B000089510927E0310927D031092AC03109265
:1006C000CE030E943B038CEB90E090937C038093DD
:1006D0007B038DEB90E090937A03809379030895E8
:1006E000CF93DF9391E0909334028823B9F0C091C7
:1006F000B800D091BA008091BC008A7B8093BC0086
:1007000060E082E10E94CB0160E083E10E94CB01C6
:100710000E943B03D093BA00C093B800DF91CF9101
:1007200008958F929F92AF92BF92CF92DF92EF92F5
:10073000FF920F931F93CF93DF93D091CE03D132CB
:1007400008F0D7C0182FC091CD030E94B0026B01F2
:100750007C018091A50381116BC082E08093A50389
:100760001093A4038FEF8093A3031092A203D0935E
:10077000A103ADEAB3E0E1E8F3E080E0D81391C073
:100780001092800380918003CC0FC82BC09380030C
:1007900080917F03813009F088C010927F030E940E
:1007A000B0026B017C01809180038093BB0080913B
:1007B000A7039091A803A091A903B091AA03892B44
:1007C0008A2B8B2BA1F00E94B0020091A7031091FD
:1007D000A8032091A9033091AA036C197D098E0901
:1007E0009F09061717072807390708F442C08091A8
:1007F000BC0083FDD8CF85EC8093BC000E94B00282
:100800006B017C018091A503823009F450C0809176
:10081000A3038F3F09F46FC08091A303803209F4D2
:100820006CC08091A303803309F469C084E026C0C2
:100830008091A7039091A803A091A903B091AA0366
:10084000892B8A2B8B2B09F484CF0E94B0028090D5
:10085000A7039090A803A090A903B090AA036C19D5
:100860007D098E099F0986169706A806B90608F025
:1008700070CF8091A6030E94700385E01092AC03B4
:100880001092CE031092AB03DF91CF911F910F9185
:10089000FF90EF90DF90CF90BF90AF909F908F90A0
:1008A00008959D9191938F5F69CF85EEA5CF80913B
:1008B000A7039091A803A091A903B091AA03892B43
:1008C0008A2B8B2B09F49ECF0E94B0020091A703C4
:1008D0001091A8032091A9033091AA036C197D09F6
:1008E0008E099F09061717072807390708F08ACFCE
:1008F000C0CF81E0C3CF80E0C1CF82E0BFCF83E033
:10090000BDCF0895E0917E0380917D03E81730F418
:10091000F0E0EC5EFD4F808190E008958FEF9FEF57
:10092000089590917E0380917D032FEF3FEF9817FC
:1009300048F4E92FF0E0EC5EFD4F208130E09F5F4E
:1009400090937E03C901089580917D0390917E0369
:10095000891B990B0895CF92DF92EF92FF920F932C
:100960001F93CF93DF937C01CB018A012091AB03CE
:10097000222389F0EB016B01C40ED51ECC15DD05D9
:1009800069F06991D701ED91FC910190F081E02D22
:10099000C7010995F3CF642F0E941403C801DF91AA
:1009A000CF911F910F91FF90EF90DF90CF9008951E
:1009B000CF93DF931F92CDB7DEB769832091AB034E
:1009C0002223F9F02091CE03203258F021E030E0CC
:1009D000FC013383228390E080E00F90DF91CF9180
:1009E00008958091AC03E82FF0E0E355FC4F998126
:1009F00090838F5F8093AC038093CE0381E090E07F
:100A0000ECCF61E0CE0101960E941403F7CF90E095
:100A100080E008958FB7F894809113028FBF0895F6
:100A2000FC0183858F3F11F00C94CB010895AF92A8
:100A3000BF92CF92DF92EF92FF920F931F93CF93CB
:100A4000DF93EC0188819981892B89F06EBD0DB40B
:100A500007FEFDCFBEB48B2DDF91CF911F910F917B
:100A6000FF90EF90DF90CF90BF90AF900895888572
:100A7000998511E0892B09F010E8AA24A394862F08
:100A8000812309F0A12C062F2C813D814E815F81AD
:100A900060E271EA87E090E00E94821CF22EB02EA4
:100AA000E12CC22ED12CFF2019F0C6010E94A50214
:100AB0008A85877F09F042C08D858F3F89F0902F0E
:100AC000912381E009F480E08A1551F0EF85F889DF
:100AD0008F89992369F19081892B8083AA24A3941B
:100AE000E989FA898081998D892B8083FF2019F00B
:100AF000C6010E94A5028E858F3F39F0EB89FC89E3
:100B00008081988D892309F0E12AE989FA89908109
:100B1000898D8095892380838E858F3F09F0BE2C37
:100B200088859985892BB9F5110F1111BCCF93CF09
:100B30009081809589238083A12CD2CFE989FA897D
:100B40008081998D892B8083FF2019F0C6010E9436
:100B5000A5028D858F3F49F0EF85F8898F89902F09
:100B60009123A9F09081892B8083E989FA8990816A
:100B7000898D8095892380838E858F3F69F2EB89EB
:100B8000FC898081988D892339F2E12AC5CF908133
:100B900080958923E9CF1695C8CF8CBD9DBD08955A
:100BA0008F929F92AF92BF92CF92DF92EF92FF927D
:100BB0000F931F93CF93DF93EC014B016A01B22E89
:100BC000A32E88819981892B31F0EA81FB81808174
:100BD00091810E94CD0570E060E0CE010E94100579
:100BE0007401C80CD91CEC14FD0479F4EB2CFA2C1C
:100BF0000E0D1F1DE016F10679F06FEFCE010E9479
:100C00001705F70181937F01F5CFF70161917F010E
:100C1000CE010E941705E7CF61E070E0CE010E948F
:100C2000100581E0DF91CF911F910F91FF90EF9020
:100C3000DF90CF90BF90AF909F908F9008958F924C
:100C40009F92AF92BF92CF92DF92EF92FF920F935B
:100C50001F93CF93DF93EC01B62EA72E6A014901B3
:100C600088819981892B31F0EA81FB818081918192
:100C70000E94CD0570E060E0CE010E941005740175
:100C8000080D191DE016F10671F40B2D1A2DC00E7A
:100C9000D11E0C151D0571F0F80161918F01CE0177
:100CA0000E941705F6CFF70161917F01CE010E94E6
:100CB0001705E8CF61E070E0CE010E94100581E0E9
:100CC000DF91CF911F910F91FF90EF90DF90CF9028
:100CD000BF90AF909F908F9008951F93CF93DF9315
:100CE000EA01122FDC0111968D919C91DC01ED91AE
:100CF000FC910280F381E02D0995C817D90729F4EA
:100D0000812F0E94910391E0811190E0892FDF9162
:100D1000CF911F910895CF93DF93EC018B818823AE
:100D2000A1F0888191E09093AB038093CD03109262
:100D3000AC031092CE0381E00E94910391E08111F7
:100D400090E0892FDF91CF9108950E94590381E0AF
:100D50008B83CE010E948B06982F8111E2CFF1CFB9
:100D6000CF92DF92EF92FF920E940703C0900F0292
:100D7000D0901002E0901102F09012026C197D09DF
:100D80008E099F096B3071058105910558F10E940C
:100D900007036C197D098E099F096093EA0270931D
:100DA000EB028093EC029093ED028091F602909119
:100DB000F702A091F802B091F9020196A11DB11DB0
:100DC0008093F6029093F702A093F802B093F90291
:100DD0000E94070360930F02709310028093110228
:100DE00090931202FF90EF90DF90CF900895CF92F2
:100DF000DF92EF92FF920E940703C0900B02D09007
:100E00000C02E0900D02F0900E026C197D098E0923
:100E10009F096B3071058105910558F10E94070308
:100E20006C197D098E099F096093E6027093E702B1
:100E30008093E8029093E9020E94070360930B02FB
:100E400070930C0280930D0290930E028091F20237
:100E50009091F302A091F402B091F5020196A11DC8
:100E6000B11D8093F2029093F302A093F402B09329
:100E7000F502FF90EF90DF90CF9008950197E7E49F
:100E8000F3E030E020E04191240F311DAF014754E1
:100E9000534048175907BCF3895B9C4FFC01908174
:100EA00081E0921380E0921729F090910A029F5FEF
:100EB00090930A020895FC0101900020E9F7319710
:100EC000AF01481B590BBC018FEC93E00C94BE00A2
:100ED0008F929F92AF92BF920F931F93CF93DF9306
:100EE000CDB7DEB7A1970FB6F894DEBF0FBECDBF6A
:100EF00019A2423008F44AE08E010F5D1F4F842E84
:100F0000912CB12CA12CA50194010E94821CE62FEA
:100F1000B901CA01EA30F4F4E05DD801EE938D0125
:100F2000232B242B252B79F790E080E0109719F0E4
:100F3000CD010E945B07A1960FB6F894DEBF0FBEED
:100F4000CDBFDF91CF911F910F91BF90AF909F9038
:100F50008F900895E95CE1CFCF93DF930E945B0708
:100F6000EC0184E591E00E945B078C0F9D1FDF91EF
:100F7000CF9108952F923F924F925F926F927F92FE
:100F80008F929F92AF92BF92CF92DF92EF92FF9299
:100F90000F931F93CF93DF93CDB7DEB72A970FB68A
:100FA000F894DEBF0FBECDBF9C838B834F835887E1
:100FB00069877A87DC01ED90FC90F7010085C70115
:100FC0000B969E838D839681878199838A83608027
:100FD00071806114710409F420C1418550E0D3018E
:100FE00014968D919C9115978417950708F468C104
:100FF0008C9191E09093AB038093CD031092AC035E
:101000001092CE0320E0BE016F5F7F4FC3010E94AC
:101010006D06882309F454C1402E512C312C212C0B
:101020002414350408F01AC1F301848195818201EA
:10103000021913098017910708F48C01D301CC9091
:101040000E94B0024B015C018091A503811175C023
:10105000D02EB0E2B01710F470E2D72EE1E0E093AA
:10106000A50321E0C201801B910B2816390608F464
:1010700020E02093A403FFEFF093A3031092A203B8
:101080008FEF8D0D8093A10381E080938003809189
:101090008003CC0CC82AC092800380917F038130EA
:1010A00009F092C010927F030E94B0024B015C01D4
:1010B000809180038093BB008091A7039091A80347
:1010C000A091A903B091AA03892B8A2B8B2BA1F0A5
:1010D0000E94B0022091A7033091A8034091A90378
:1010E0005091AA03681979098A099B0926173707BD
:1010F0004807590708F442C08091BC0083FDD8CF4F
:1011000095EC9093BC000E94B0024B015C01809171
:10111000A503813009F45CC08091A2038D1510F401
:10112000D090A203A1E8B3E0E4E1F2E080E08D1505
:1011300051F19D9191938F5FFACF8091A703909188
:10114000A803A091A903B091AA03892B8A2B8B2B0A
:1011500009F47ACF0E94B0022091A7033091A8032E
:101160004091A9035091AA03681979098A099B093A
:10117000261737074807590708F066CF8091A6035E
:101180000E947003D12C10927E03D0927D03D01662
:10119000110609F095C0AD80BE80A20CB31C65019C
:1011A000C6018A199B0980179107A0F5F301818177
:1011B0009281DC01ED91FC910284F385E02D09958B
:1011C000F60181936F01ECCFA5EEA093BC009BCFFD
:1011D0008091A7039091A803A091A903B091AA03BD
:1011E000892B8A2B8B2B09F492CF0E94B00220917D
:1011F000A7033091A8034091A9035091AA0368194D
:1012000079098A099B09261737074807590708F003
:101210007ECFB4CF200E311E03CFD7010280F381E1
:10122000E02D309709F44CC014962D913C91159700
:1012300010E019964C9150E02330310561F5816042
:1012400089839A834F5F5F4F2D813E81BE016F5F1F
:101250007F4FCF010E94D005882391F1F70140858F
:1012600050E090E080E000E010E0980184179507DE
:1012700054F5322F212F102F0027D7011A966C9189
:10128000611119C0FA01E81BF90BEE0DFF1D628513
:10129000062B0196EBCF2115310519F4906899833F
:1012A000D3CF2230310511F49F77F9CF21303105AA
:1012B00059F6906CF4CFF701E80FF91F6385E8CF7A
:1012C0000FEF1FEF9801EB81FC81A081B18118968F
:1012D0008C911897853008F078C0928141E050E0F9
:1012E00002C0440F551F9A95E2F741505109052E4F
:1012F000000C660B770B93816A017B01092E04C0F9
:10130000CC0CDD1CEE1CFF1C0A94D2F7C094D094C8
:10131000E094F0940C211D212E213F214F80588410
:1013200069847A84442255226622772204C0440CC0
:10133000551C661C771C9A95D2F7402A512A622ABE
:10134000732A1F964D925D926D927C92529730E077
:1013500020E0E82EF12C2E153F05BCF41A968C9156
:101360001A9781110BC0FD01E20FF31F4386452C34
:10137000562C672C77242F5F3F4FEDCFF701E21BF0
:10138000F30BEA0FFB1F4286F2CF6D01FBE0CF0E9D
:10139000D11C16969C91169717968C911797998346
:1013A0008A83AD90BC901197A114B10409F44DC08B
:1013B00019960C9110E098012E0D3F1DD501149641
:1013C0008D919C918217930710F480E016C0F5016F
:1013D00081819281208131E03093AB032093CD0352
:1013E0001092AC031092CE0301151105F9F421E01F
:1013F000A701B601C5010E946D062A960FB6F894A2
:10140000DEBF0FBECDBFDF91CF911F910F91FF9037
:10141000EF90DF90CF90BF90AF909F908F907F9094
:101420006F905F904F903F902F900895DC01ED9169
:10143000FC910280F381E02DA801BE016F5F7F4F18
:1014400009950817190709F6D2CF1296ED91FC916C
:101450001397309709F4B9CF14962D913C911597B5
:1014600019960C9110E02330310571F48E7F898339
:101470009A830F5F1F4F9E012F5F3F4FA701B60159
:10148000CF010E941F06B9CF2115310519F49F77AE
:101490009983F1CF2230310511F49068F9CF2130D2
:1014A000310549F79F779064F3CF8F929F92AF9267
:1014B000BF92CF92DF92FF920F931F93CF93DF9350
:1014C000CDB7DEB7AE970FB6F894DEBF0FBECDBF77
:1014D000082FFF24F394883008F4F12C6F2D80E05E
:1014E0000E94A30080907A0490907B04A0907804DE
:1014F000B09079041BA21CA21DA21EA29F8A8E8AF4
:10150000BD8AAC8A23E0C22ED12CD98EC88E11E0C0
:101510001D8F9B8F8A8F1E8E1C8F6F2D86E00E94E1
:10152000A300188A198A1A8A1B8A9C828B82BA8223
:10153000A982DE82CD821A8798878F831B861987BE
:101540000770CE0144969CA78BA71DA70EA74397B3
:1015500098A78FA319A70AA740E050E0BA018A967E
:101560000E94BA0740E050E0BA01CE0187960E947F
:10157000BA07AE960FB6F894DEBF0FBECDBFDF91AF
:10158000CF911F910F91FF90DF90CF90BF90AF90C0
:101590009F908F9008950F931F93CF93DF93CDB7B4
:1015A000DEB767970FB6F894DEBF0FBECDBF182F1A
:1015B000062F61E0883008F460E089E00E94A30013
:1015C00040917A0450917B04209178043091790401
:1015D000188A198A1A8A1B8A5C834B833A83298367
:1015E00023E030E03E832D8321E02A8798878F8394
:1015F0001B862987CE0101969D8B8C8B2E8B1770B5
:101600001F8B41E050E060E070E0011103C040E05A
:1016100050E0BA01CE0144960E94BA0767960FB611
:10162000F894DEBF0FBECDBFDF91CF911F910F9118
:10163000089585ED8093BC008091A7039091A80345
:10164000A091A903B091AA030796A11DB11D23E0A3
:10165000B695A795979587952A95D1F72091BC00C7
:1016600024FD03C01092A50308954091A703509153
:10167000A8036091A9037091AA03452B462B472B21
:1016800069F30097A105B10541F025E32A95F1F72B
:1016900000000197A109B109E1CF8091A6030C9444
:1016A0007003FF920F931F93CF93DF93EC01F62EFD
:1016B00008811981C8010E941E1AF81621F06F2DA9
:1016C000C8010E94261ACE01DF91CF911F910F9180
:1016D000FF900895EF92FF920F931F93CF93DF93A4
:1016E00000D0CDB7DEB78AE1E82E81E0F82E0AE01F
:1016F00010E01A830983F70161917F01CE01019601
:101700000E94510B0F5F1F4F0031110591F78AE1C5
:1017100091E00F900F90DF91CF911F910F91FF906B
:10172000EF900895EF92FF920F931F93CF93DF9363
:1017300000D0CDB7DEB782E8E82E84E0F82E08E2CC
:1017400010E01A830983F70161917F01CE010196B0
:101750000E94510B0F5F1F4F0E33110591F782E866
:1017600094E00F900F90DF91CF911F910F91FF9018
:10177000EF9008951F920F920FB60F9211242F939E
:101780003F934F935F936F937F938F939F93AF9309
:10179000BF93EF93FF938FEC93E00E943C01FF9186
:1017A000EF91BF91AF919F918F917F916F915F91D9
:1017B0004F913F912F910F900FBE0F901F90189552
:1017C0001F920F920FB60F9211242F938F939F9316
:1017D000EF93FF93E091DF03F091E0038081E091CC
:1017E000E503F091E60382FD1BC090818091E80340
:1017F0008F5F8F732091E903821741F0E091E80336
:10180000F0E0E153FC4F958F8093E803FF91EF9157
:101810009F918F912F910F900FBE0F901F90189551
:101820008081F4CF1F920F920FB60F9211242F9345
:101830003F938F939F93AF93BF9380917902909141
:101840007A02A0917B02B0917C023091780223E071
:10185000230F2D3758F50196A11DB11D2093780255
:101860008093790290937A02A0937B02B0937C02DA
:1018700080917D0290917E02A0917F02B0918002C2
:101880000196A11DB11D80937D0290937E02A093CD
:101890007F02B0938002BF91AF919F918F913F9152
:1018A0002F910F900FBE0F901F90189526E8230FD1
:1018B0000296A11DB11DD2CF1F920F920FB60F92AB
:1018C00011242F933F934F935F936F937F938F9345
:1018D0009F93AF93BF93EF93FF93E0911801F09123
:1018E00019010995FF91EF91BF91AF919F918F9150
:1018F0007F916F915F914F913F912F910F900FBE0C
:101900000F901F9018951F920F920FB60F921124EF
:101910002F933F934F935F936F937F938F939F93F7
:10192000AF93BF93EF93FF93E0911601F0911701EE
:101930000995FF91EF91BF91AF919F918F917F9109
:101940006F915F914F913F912F910F900FBE0F902C
:101950001F9018951F920F920FB60F9211242F937C
:101960003F934F935F936F937F938F939F93AF9327
:10197000BF93EF93FF938091B900887F803609F47D
:101980004AC0F0F5883209F4A7C018F5803109F48F
:101990009BC0B8F4882309F4F9C0883009F494C0D6
:1019A000FF91EF91BF91AF919F918F917F916F9137
:1019B0005F914F913F912F910F900FBE0F901F900D
:1019C0001895883109F488C0803251F78093A303B9
:1019D00014C0803409F49DC040F48033B9F38833D7
:1019E000F9F68093A30385ECB0C0803509F485C077
:1019F000883509F496C0883499F60E94190BD0CF27
:101A0000883909F48CC038F5883729F050F48836C5
:101A100011F0803729F683E08093A50310927702B6
:101A200057C0883809F47BC0803919F0803809F034
:101A3000B7CF80917702803208F071C0E0917702D1
:101A400081E08E0F809377028091BB00F0E0E95A2D
:101A5000FD4F80833DC0803B39F0E0F4803A09F4CB
:101A600079C0883A09F09CCF84E08093A503109256
:101A7000560210925502E0917B03F0917C03099588
:101A80008091550281110FC081E080935502109220
:101A9000350209C0803C09F4A6CF883C09F4A3CFE5
:101AA000883B09F07DCFE091560281E08E0F809354
:101AB0005602F0E0EB5CFD4F80818093BB0090917B
:101AC00056028091550229C0809180038093BB000B
:101AD00085EC8093BC0064CF9091A2038091A10318
:101AE000981758F5E091A20381E08E0F8093A2032E
:101AF000F0E0EF57FC4F8081E9CFE091A20381E055
:101B00008E0F8093A2038091BB00F0E0EF57FC4F53
:101B100080839091A2038091A1039817C8F285E871
:101B2000D8CFE091A20381E08E0F8093A203809131
:101B3000BB00F0E0EF57FC4F80838091A40381113C
:101B40005CCF81E080937F0384EA8093BC00109295
:101B5000A50326CF85EC8093BC001092A50380914D
:101B60007702803230F4E0917702F0E0E95AFD4FDD
:101B700010826091770270E0E0917903F0917A032E
:101B800087E592E00995109277020ACF1092A3039D
:101B900034CFEFECF3E01382128288EE93E0A0E002
:101BA000B0E084839583A683B78324E331E0318357
:101BB000208325EC30E03587248724EC30E037871C
:101BC000268720EC30E0318B208B21EC30E0338B0A
:101BD000228B22EC30E0358B248B26EC30E0378BE7
:101BE000268B118E128E138E148EECE6F4E0138287
:101BF000128284839583A683B78386E491E09183E0
:101C00008083E2E8F4E082E0808383E0818384E003
:101C1000828386E0838385E0848389E08583E8E7A7
:101C2000F4E0118210821382128280E1848308958D
:101C3000CF93DF93CDB7DEB7A0970FB6F894DEBF92
:101C40000FBECDBF789484B5826084BD84B58160B9
:101C500084BD85B5826085BD85B5816085BD809177
:101C60006E00816080936E001092810080918100EF
:101C700082608093810080918100816080938100E7
:101C8000809180008160809380008091B1008460A9
:101C90008093B1008091B00081608093B00080910A
:101CA0007A00846080937A0080917A0082608093C9
:101CB0007A0080917A00816080937A0080917A0026
:101CC000806880937A001092C100E091DF03F09168
:101CD000E00382E08083E091DB03F091DC0310827B
:101CE000E091DD03F091DE0383E380831092E7034C
:101CF000E091E303F091E40386E08083E091E10367
:101D0000F091E203808180618083E091E103F091B2
:101D1000E203808188608083E091E103F091E20337
:101D2000808180688083E091E103F091E20380810B
:101D30008F7D808390E080E00E941E1A8093840251
:101D400081E090E00E941E1A8093850280918402B7
:101D5000909185028435994009F429C11A8219822B
:101D600064E5CE0101960E94510B81E090E09A83D8
:101D7000898369E0CE0101960E94510B0E946A0B93
:101D80000E94920B68E873E180E090E00E94D50227
:101D900084E591E00E945B0787E591E00E94AC0733
:101DA0008EE691E00E945B0760911A0170E090E07E
:101DB00080E04AE00E94680784E591E00E945B07AA
:101DC00084E591E00E945B0780911E01811103C0B0
:101DD00081E080931E0180911E01833018F082E023
:101DE00080931E0180911B01882309F403C18AE7B7
:101DF00091E00E94AC070E94590380911B0108E802
:101E000014E0882309F4FEC086E591E00E94AC0747
:101E100081EB91E00E94AC071092830201E0A0E206
:101E2000FA2E8091FB02811121C089EC91E00E9481
:101E30005B070093AB03F092CD031092AC031092BA
:101E4000CE0381E00E94910391E0811190E0909394
:101E5000FB02109183021F5F1093830264EF71E015
:101E600080E090E00E94D5021630D8F286E591E03D
:101E70000E94AC078091FB02882309F4BEC08BEC62
:101E800091E00E94AC0786E090E00E94C41C8C01A7
:101E900080E2D8018C938CE694E012969C938E930A
:101EA000119713961C92139780E290E015969C93DD
:101EB0008E93149710937904009378040E94590329
:101EC00081E0F8018383C8010E948B0688E00E94AC
:101ED000550A89E00E94550A8AE00E94550A8BE063
:101EE0000E94550A8CE00E94550A8DE00E94550A16
:101EF0008EE00E94550A8FE00E94550A87E00E94FA
:101F0000550A86E00E94550A85E00E94550A84E041
:101F10000E94550A83E00E94550A82E00E94550AF9
:101F200081E00E94550A80E00E94550A00918204D7
:101F300000938102109183041093820280918404A3
:101F400080930F0380918504809310038091860411
:101F500080930D038091870480930E037FE0A72E6A
:101F600073E0B72EEDE0CE2EE3E0DE2EF1E8EF2EAB
:101F7000F2E0FF2E20911E01C701815892402817E0
:101F8000190609F00CF44BC062E0F70181917F0162
:101F90000E94170261E0D5018D915D010E94170238
:101FA00061E0F60181916F010E941702E3CF1AE10F
:101FB000E12E11E0F12E0AE010E0C8010E941E1A85
:101FC000D7018D937D010F5F1F4F00311105A9F7D8
:101FD000B2E8EB2EB4E0FB2E08E210E0C8010E944C
:101FE0001E1AF70181937F010F5F1F4F0E331105FA
:101FF000A9F7C8CE85E991E0FCCE8FED91E00E9473
:10200000AC0794CFD8018D918D01823018F061E03A
:102010000E941702B4E008391B07A1F787CF80E0C0
:10202000023021F081E0033009F08FEF67EF76E0B6
:102030000E94870080E0123021F081E0133009F027
:102040008FEF60EB76E00E94870061E08DE00E94F8
:10205000170260E08DE00E94CB0186E591E00E94CE
:10206000AC0787EF91E00E94AC078FEC93E00E94F1
:102070001C01181619060CF066C08091950281119A
:1020800062C08091940281115EC08091930281119F
:102090005AC080919202811156C0809191028111A3
:1020A00052C08091900281114EC08FEC93E00E944B
:1020B000FA0088A31F8E90918F022F8D38A1292BB3
:1020C00080938F0281E02636FFE73F0709F080E02A
:1020D0008093950281E028364FE7340709F080E0CD
:1020E0008093940281E02B365FE7350709F080E0AA
:1020F0008093930281E02C369FE7390709F080E056
:102100008093920281E02137AFE73A0709F080E03F
:102110008093910281E022373F4709F080E080936D
:1021200090028FEC93E00E941C01899764F08FEC81
:1021300093E00E941C01181619062CF48FEC93E012
:102140000E94FA00F4CF8FEC93E00E941C010C97E0
:1021500024F08091950281116CC08FEC93E00E9475
:102160001C0109970CF0ADC18FEC93E00E941C019B
:1021700004970CF0C5C18FEC93E00E941C010997F5
:102180000CF0F3C18FEC93E00E941C0103970CF05C
:102190001BC28FEC93E00E941C0147970CF4F5C022
:1021A00080919002882309F4F0C01092900282E797
:1021B000809347038FE78093480309E413E08FEC93
:1021C00093E00E94FA00D8018D938D01B3E00036B0
:1021D0001B07A9F789E190E00E943E07882309F4D4
:1021E000D4C0809149038093820480914A038093F4
:1021F000830480914B038093840480914C038093EB
:10220000850480914D038093860480914E038093D2
:102210008704EFE4F3E0A8E8B4E081918D9323E034
:10222000EF35F207D1F70E94920BF0E0E0E009955C
:10223000ACC01092950286E6809347038FE78093A7
:10224000480309E413E08FEC93E00E94FA00F801E0
:1022500081938F01F3E005351F07A9F78EE090E029
:102260000E943E07882309F490C080918E028F5F00
:1022700080938E0200914903902F92959F708091D8
:102280001A01981382C00F7080911E01081708F080
:102290007CC080914A038093FF0280914B0380931E
:1022A000FE0260914C0370914D0390E080E00E942B
:1022B0004E1B2DEC3CEC4CEC5DE30E94051C4B01ED
:1022C0005C0110E07801EE0CFF1CEE0CFF1C970186
:1022D0002B5F3E4F690160914F037091500390E076
:1022E00080E00E944E1B2AE037ED43E25CE30E944F
:1022F000051CD6016D937D938D939C9313978091CC
:10230000510380FF07C0F701E95CFC4F1082118286
:1023100012821382F801E75DFC4F81FDCCC0108270
:1023200082FF03C090819E5F9083F801E959FC4FC2
:1023300083FB992790F99083F801E052FD4F84FBCD
:10234000992790F9908391E0282F207285FF90E0E3
:1023500090931101F701222309F4B0C0E759FC4F13
:1023600080829182A282B382809152038093FD0287
:10237000809153038093FC020E940703F701EF58FA
:10238000FC4F60837183828393830E9407030091D3
:102390001201109113012091140130911501601B5D
:1023A000710B820B930B623371058105910508F463
:1023B0006BC70E940703609312017093130180930F
:1023C00014019093150126E932E0388B2F874FE3F3
:1023D00053E05A8F498F85E091E09E8B8D8BAEE95B
:1023E000B2E0BC87AB87E8EAF2E0FC83EB8320EA4B
:1023F000A22E22E0B22E20EB32E03E832D8330EC81
:10240000832E32E0932E48EB52E05A8B498B87E3C0
:1024100093E098878F83AFE3B3E0BE87AD87312C1D
:10242000212C80911E018215130411F00CF016C1AD
:10243000E5E6F3E0FE87ED8729E633E0388F2F8B62
:1024400091E7A92E93E0B92E79016F0110E000E029
:1024500080911E018017110609F00CF4A7C20E949A
:102460000703F50141905190619071905F016419EB
:10247000750986099709603A7F408105910508F042
:1024800093C220E030E0A901D7016D917D918D913B
:102490009C910E94001C18160CF086C2F801E959A4
:1024A000FC4F8081F60181936F010F5F1F4FF4E0B5
:1024B000EF0EF11CCDCF91E0908332CFEF5DFC4F5A
:1024C0004FCF80919402882309F44ECE109294024B
:1024D00088E6809347038FE78093480309E413E07D
:1024E0008FEC93E00E94FA00F80181938F01F3E0F2
:1024F00002351F07A9F78BE090E00E943E0745CF09
:1025000080919302882309F436CE109293028BE6D1
:10251000809347038FE78093480309E413E052E078
:10252000E52E53E0F52E8FEC93E00E94FA00D801DF
:102530008D938D01F70181937F01AD54B34099F7DD
:1025400086E090E00E943E07882309F41ECF81E0D8
:1025500080930A030E9407036093060370930703A6
:10256000809308039093090310CF809192028823EF
:1025700009F408CE109292028CE6809347038FE70D
:102580008093480349E4E42E43E0F42E87018FEC66
:1025900093E00E94FA00D8018D938D01B3E00235DB
:1025A0001B07A9F78BE090E00E943E07882309F4FF
:1025B000ECCEE6E8F2E0D7018D917D018193B2E0A7
:1025C000EE38FB07C1F7E1CE80919102882309F430
:1025D000E0CD1092910281E7809347038FE78093CB
:1025E000480309E413E08FEC93E00E94FA00F8013D
:1025F00081938F01F3E00E341F07A9F787E090E085
:102600000E943E07882309F4C0CE8091490380933D
:102610001A0180914A0380931E0180914B0380939D
:102620001F0180914C0380FF10C091E090931B012B
:1026300081FF0EC091E090931C0182FF0CC081E0ED
:1026400080931D010E946A0BA0CE10921B01F0CF57
:1026500010921C01F2CF10921D01F4CF8101000FE6
:10266000111F000F111FF801EE50FD4F8081918165
:10267000A281B381892B8A2B8B2B09F4A4C0F894F7
:1026800080819181A281B3818093EE029093EF02C9
:10269000A093F002B093F102108211821282138291
:1026A000F801EA51FD4F80819181A281B38180932D
:1026B000E2029093E302A093E402B093E5027894DF
:1026C000F101E052FD4F8081882309F451C1A80136
:1026D00048525D4F5C8B4B8BDA01CD90DD90ED90D5
:1026E000FC908091EE029091EF02A091F002B091E7
:1026F000F102C80ED91EEA1EFB1EFA01C082D18269
:10270000E282F3820E940703980120533D4F388FE5
:102710002F8BD9014D905D906D907C909B01AC0109
:10272000241935094609570929013A01F801E853E6
:10273000FD4F408251826282738239EC431651040C
:102740006104710408F10E940703AF89B88D6D938D
:102750007D938D939C931397A701960160E87DE884
:102760008BE590E00E94721CA30192010E94821CE2
:10277000F4012083318342835383AB89BC891D924A
:102780001D921D921C9213970E940703A989BA8972
:102790006D937D938D939C931397EF81F885808142
:1027A0009181A281B3814091EE025091EF0260913C
:1027B000F0027091F102840F951FA61FB71F80834E
:1027C0009183A283B3830E940703A989BA890D91DB
:1027D0001D912D913D91BA8BA98B601B710B820BC2
:1027E000930B613A7F408105910528F0F401108236
:1027F000118212821382D4010D911D912D913C9171
:10280000ED81FE816081718182819381600F711FF2
:10281000821F931F6083718382839383EB81FC818A
:10282000C080D180E280F380C016D106E206F306B4
:1028300020F40083118322833383F501C080D1808B
:10284000E280F3800C151D052E053F0520F4008362
:10285000118322833383EB85FC8520812F5F2193B5
:10286000FC87EB872A30E8F1AB81BC810D911D918B
:102870002D913C91601B710B820B930BF501008134
:10288000118122813381601B710B820B930B0E949B
:102890004E1B20E030E048E454E40E94A61AAF85C5
:1028A000B8896D937D938D939C931397ED81FE81F1
:1028B0001082118212821382AB81BC811D921D9203
:1028C0001D921C92139720E533EC40E050E0D501B7
:1028D0002D933D934D935C931397EB85FC85319736
:1028E0001082ED89FE89C190D190E190F190FE8B2C
:1028F000ED8B20E030E0A901C701B6010E94001C69
:1029000018160CF049C0A7019601AF85B8896D91E2
:102910007D918D919C910E94A61AED85FE85608324
:10292000718382839383BFEF2B1A3B0AEF85F8896B
:102930003496F88BEF872D853E852C5F3F4F3E8781
:102940002D874B815C814C5F5F4F5C834B8354E0F0
:10295000A50EB11C8D819E8104969E838D8394E08B
:10296000890E911CAF81B8851496B887AF8359CD75
:102970002091E2023091E3024091E4025091E5029D
:1029800060E87DE88BE590E00E94821CF4012083E2
:10299000318342835383F8CEAD85BE851D921D924F
:1029A0001D921C921397BFCF80E07CCD10920C0338
:1029B00010920B0380916503811104C0809166031E
:1029C0008823D9F080910A03882309F4F7C00E9474
:1029D000070300910603109107032091080330912B
:1029E0000903601B710B820B930B613375478105E3
:1029F000910508F4D5C010920A03D0900C03809181
:102A0000FD02D82AD0920C03C0900B038091FC02E7
:102A1000C82AC0920B0380911B01B8E8EB2EB4E0EA
:102A2000FB2E10E000E0813009F01FC18091FB0215
:102A3000882309F48EC060911C01D0FEC6C088E0D6
:102A40000E94CB0A60911C0180910C0381FFC2C0DF
:102A500089E00E94CB0A60911C0180910C0382FFE7
:102A6000BEC08AE00E94CB0A60911C0180910C03D9
:102A700083FFBAC08BE00E94CB0A60911C01809159
:102A80000C0384FFB6C08CE00E94CB0A60911C014D
:102A900080910C0385FFB2C08DE00E94CB0A60914B
:102AA0001C0180910C0386FFAEC08EE00E94CB0A11
:102AB00060911C0180910C0387FFAAC08FE00E94E7
:102AC000CB0A60911C0180910B0380FFA6C087E0B8
:102AD0000E94CB0A60911C0180910B0381FFA2C070
:102AE00086E00E94CB0A60911C0180910B0382FF5B
:102AF0009EC085E00E94CB0A60911C0180910B036F
:102B000083FF9AC084E00E94CB0A60911C018091EF
:102B10000B0384FF96C083E00E94CB0A60911C01E6
:102B200080910B0385FF92C082E00E94CB0A6091E6
:102B30001C0180910B0386FF8EC081E00E94CB0AAE
:102B400060911C0180910B0387FF8AC080E00E9486
:102B5000CB0AF3E32F2EF3E03F2EE9E2F3E0FC8F04
:102B6000EB8FADE08A2EA3E09A2E5F018101F12C5C
:102B7000E12C80911E018E151F0409F00CF40AC18E
:102B8000D5018D915D01F40171904F01813009F4FF
:102B900093C0823009F4DCC0D801CD90DC90E3C052
:102BA00080910203882309F426CF80910303809348
:102BB0000C038091040380930B031FCF8091FF02CD
:102BC00080930C038091FE02F6CF81E0611180E0DA
:102BD000682F35CF81E0611180E0682F39CF81E027
:102BE000611180E0682F3DCF81E0611180E0682FA6
:102BF00041CF81E0611180E0682F45CF81E0611114
:102C000080E0682F49CF81E0611180E0682F4DCFCF
:102C100081E0611180E0682F51CF81E0611180E097
:102C2000682F55CF81E0611180E0682F59CF81E096
:102C3000611180E0682F5DCF81E0611180E0682F35
:102C400061CF81E0611180E0682F65CF81E0611183
:102C500080E0682F69CF81E0611180E0682F6DCF3F
:102C600081E0611180E0682F71CFD7018D917D01E6
:102C7000823028F008301105BCF4D092FA0260913D
:102C80001C012091FA0230E0002E02C035952795F4
:102C90000A94E2F720FF0BC00E94CB010F5F1F4F89
:102CA0000031110511F755CFC092FA02E8CF91E03B
:102CB000611190E0692FF0CFF701E15FFC4FD08008
:102CC000F701EB59FC4F8081882379F1D8018D9170
:102CD0009C91119797FD13C08B3F910524F08FEFC6
:102CE00090E08D939C9360911D018D2D0E94CB01EE
:102CF000F80160817181872D0E94480223C08630CF
:102D00009F4F24F4E1E0FFEFED93FC9361E08091AD
:102D10001D01811160E08D2D0E94CB01D8016D91C4
:102D20007C91719561957109E6CF6FEF70E0872D09
:102D30000E94480261E080911D01811160E08D2DAB
:102D40000E94CB01BFEFEB1AFB0A0E5F1F4F11CFA2
:102D5000F701EB59FC4F808170E060E0882359F265
:102D6000F801C080D18060911D01F701E15FFC4F47
:102D70008081D7FC04C00E94CB01B601BCCF91E09A
:102D8000611190E0692F0E94CB01662777276C19AB
:102D90007D09B1CF80911101EBE2EE2EE3E0FE2E32
:102DA00010E000E0882309F4CEC1E1E1F3E0FC8308
:102DB000EB8329E133E03E832D834CE251E05E8BCF
:102DC0004D8B8AE291E09C8B8B8BAEE2B1E0BA8BAB
:102DD000A98BE8E2F1E0F88BEF87912C812C8091B0
:102DE0001E018815190409F00CF44EC2AB8DBC8D80
:102DF0001D91BC8FAB8FEF89F88D41905190619000
:102E00007190F88FEF8BA98DBA8D2D913D914D91D9
:102E10005D91BA8FA98FC301B2010E94341A6F83EA
:102E2000788789879A87ED89FE89B190FE8BED8B33
:102E3000AB89BC89ED91BC8BAB8BED8FA989BA892D
:102E4000AD90BA8BA98BEF85F8892191F88BEF872C
:102E50002E8FAD85BE858D91BE87AD87123009F06E
:102E6000AAC0882309F4A2C0EB81FC81E080F18034
:102E700002811381A30192016F81788589859A85EA
:102E80000E94A61A2B013C0120E030E0A9010E941B
:102E9000001C18160CF082C020E030E048EC52E430
:102EA000C301B2010E94051C2B013C016B2D70E097
:102EB00090E080E00E944E1BA30192010E94A11AA3
:102EC00087FF4BC0FD8D6F2F70E090E080E00E9487
:102ED0004E1B3B01B82EC92E2E8D622F70E090E064
:102EE00080E00E944E1B20E030E04FE753E40E9458
:102EF000A61A2F81388549855A850E94051C20E035
:102F000030E040EA50E40E94051C9B01AC01B7018F
:102F1000C8010E94351A7B018C019B01AC01B301F1
:102F20008B2D9C2D0E94A11A87FF03C073010B2DCE
:102F30001C2D6A2D70E090E080E00E94501B9701EC
:102F4000A8010E94001C181644F46A2D70E090E05D
:102F500080E00E944E1B7B018C01C701D801EB81F0
:102F6000FC8180839183A283B383B701C8010E944F
:102F7000181BD1016D937C93BFEF8B1A9B0AEB81D9
:102F8000FC813496FC83EB83F2E02F0E311C2D8103
:102F90003E812C5F3F4F3E832D8321CFC301B20181
:102FA000905820E030E048EC52E47CCFE12CF12C4A
:102FB00000E010E0D2CFF401E050FF4FFC87EB8738
:102FC0000081882309F4BCC0A30192016F81788538
:102FD00089859A850E94A61A2B013C0120E030E0E9
:102FE000A9010E94001C181624F077FA709477F853
:102FF00070946B2D70E090E080E00E94501B20E008
:1030000030E048EC52E40E94A61AA30192010E940B
:10301000A11A87FF8CC0F401EA5DFE4F1081F40114
:10302000E85DFE4F608170E090E080E00E94501B00
:1030300020E030E048EC52E40E94A61A6B017C01CB
:10304000A30192010E94001C87FF5CC0FD8D6F2FC1
:1030500070E090E080E00E944E1B2B013C012E8D21
:10306000622F70E090E080E00E94501B2F81388535
:1030700049855A850E94051C0E94181B6B017B0123
:1030800077FF04C0EE24FF24E61AF70AB7010F2CDD
:10309000000C880B990B0E94501BA30192010E9407
:1030A000001C18162CF4C301B2010E94181B7B01EE
:1030B000B12CAE14BF040CF457011C141D041CF0F9
:1030C000B194A194B1080E940703ED81FE81C080F4
:1030D000D180E280F3806C157D058E059F0571F02F
:1030E0000E940703AD81BE816D937D938D939C9368
:1030F0001397B1E00B27EB85FC850083D101AD92DE
:10310000BC923ACFA7019601C301B2010E94A61A50
:103110002B013C01612F70E090E080E00E94501B89
:103120009B01AC01C301B2010E94051C96CF0E9415
:103130000703AD81BE816D937D938D939C9313970F
:10314000B12CA12CC0CF80911E018017110609F06F
:103150000CF49AC00E940703D7018D909D90AD900A
:10316000BC90681979098A099B09693E73408105F9
:10317000910508F457C00E940703F701608371832B
:10318000828393836801CC0CDD1CCC0CDD1C960182
:1031900027593C4F590120E030E0A901D5016D913C
:1031A0007D918D919C910E94A11A811109C080E0AE
:1031B00090E0A0E8BFE3F50180839183A283B3830D
:1031C000F601EF5DFC4F80809180A280B380F80112
:1031D000E75DFC4F8081823071F5D1016D917C916A
:1031E000072E000C880B990B0E94501BA50194011F
:1031F0000E94051C0E94181BF10171836083672BDC
:1032000089F420E030E0A901C501B4010E94001C4E
:10321000181644F4F801E25DFE4F808190E0D10180
:103220008D939C930F5F1F4FF2E02F0E311C24E013
:10323000E20EF11C88CFF1011182108220E030E013
:1032400040E85FE3C501B4010E94A11A87FF09C0ED
:10325000F801E25DFE4F808190E0919581959109A2
:10326000DECF20E030E040E85FE3C501B4010E941A
:10327000001C1816BCF6F801E25DFE4F808190E05C
:10328000F10191838083CECF0E94070300910D014D
:1032900010910E0120910F0130911001601B710BF4
:1032A000820B930B693C71058105910508F4B6C04A
:1032B0000E94070360930D0170930E0180930F012C
:1032C000909310014FE353E05C834B8327E3A22EDE
:1032D00023E0B22E35E0232E31E0332E43E3C42E1B
:1032E00043E0D42E10E000E055E6852E6AE0962EED
:1032F00080911E018017110609F00CF48FC0809296
:1033000047035FE75093480380911A01A0E18A9F29
:10331000C0011124802B80934903EB81FC816191D2
:10332000719181919191FC83EB8320E030E040E248
:1033300051E40E94051C2B013C010E941F1B60935D
:103340004A03C301B2010E94181B70934B03770F0D
:10335000660B762F60934C03D5016D917D918D9115
:103360009D915D01F10141905190619071901F011B
:103370000E944E1B20E030E040E251E40E94051C18
:10338000A30192010E94A61A0E94181B60934D038C
:1033900070934E0380934F03D6018D919D916D01E3
:1033A000899D202D112420935003989E9001999E71
:1033B000300D112430935103E7E4F3E090E080E016
:1033C0002191820F911D22E533E02E173F07C1F7AF
:1033D000809352034AE065E670E080E090E00E944E
:1033E000680788E4E82E83E0F82E87E092E00E94E8
:1033F0005B07D7016D917D0170E090E080E04AE0CD
:103400000E946807E3E5F3E0EE15FF0571F786E536
:1034100091E00E94AC070F5F1F4F6ACF20E030E0C1
:10342000232B11F40C9435100E942801882311F4E9
:103430000C9435100E9400000C943510F999FECFC1
:1034400092BD81BDF89A992780B50895262FF999E4
:10345000FECF1FBA92BD81BD20BD0FB6F894FA9A77
:10346000F99A0FBE019608955058BB27AA270E94CB
:103470004C1A0C94C61B0E94B81B38F00E94BF1B4C
:1034800020F039F49F3F19F426F40C94B51B0EF488
:10349000E095E7FB0C94AF1BE92F0E94D71B58F374
:1034A000BA17620773078407950720F079F4A6F529
:1034B0000C94F91B0EF4E0950B2EBA2FA02D0B01E6
:1034C000B90190010C01CA01A0011124FF27591B69
:1034D00099F0593F50F4503E68F11A16F040A22F6F
:1034E000232F342F4427585FF3CF469537952795E0
:1034F000A795F0405395C9F77EF41F16BA0B620BDF
:10350000730B840BBAF09150A1F0FF0FBB1F661F25
:10351000771F881FC2F70EC0BA0F621F731F841F68
:1035200048F4879577956795B795F7959E3F08F08E
:10353000B0CF9395880F08F09927EE0F9795879550
:1035400008950E948B1B08F481E008950E94BA1A26
:103550000C94C61B0E94BF1B58F00E94B81B40F081
:1035600029F45F3F29F00C94AF1B51110C94FA1B06
:103570000C94B51B0E94D71B68F39923B1F3552314
:1035800091F3951B550BBB27AA2762177307840776
:1035900038F09F5F5F4F220F331F441FAA1FA9F30C
:1035A00035D00E2E3AF0E0E832D091505040E695FA
:1035B000001CCAF72BD0FE2F29D0660F771F881F5B
:1035C000BB1F261737074807AB07B0E809F0BB0B4E
:1035D000802DBF01FF2793585F4F3AF09E3F510562
:1035E00078F00C94AF1B0C94FA1B5F3FE4F3983E09
:1035F000D4F3869577956795B795F7959F5FC9F74B
:10360000880F911D9695879597F90895E1E0660FCB
:10361000771F881FBB1F621773078407BA0720F044
:10362000621B730B840BBA0BEE1F88F7E0950895AD
:103630000E941F1B6894B1110C94FA1B08950E94FC
:10364000DF1B88F09F5798F0B92F9927B751B0F03A
:10365000E1F0660F771F881F991F1AF0BA95C9F716
:1036600014C0B13091F00E94F91BB1E008950C94A0
:10367000F91B672F782F8827B85F39F0B93FCCF353
:10368000869577956795B395D9F73EF49095809593
:10369000709561957F4F8F4F9F4F0895E89409C0B3
:1036A00097FB3EF490958095709561957F4F8F4F75
:1036B0009F4F9923A9F0F92F96E9BB279395F6958B
:1036C000879577956795B795F111F8CFFAF4BB0F09
:1036D00011F460FF1BC06F5F7F4F8F4F9F4F16C06D
:1036E000882311F096E911C0772321F09EE8872FF7
:1036F000762F05C0662371F096E8862F70E060E0B3
:103700002AF09A95660F771F881FDAF7880F96952B
:10371000879597F90895990F0008550FAA0BE0E8CF
:10372000FEEF16161706E807F907C0F01216130683
:10373000E407F50798F0621B730B840B950B39F4C3
:103740000A2661F0232B242B252B21F408950A2629
:1037500009F4A140A6958FEF811D811D089597F969
:103760009F6780E870E060E008959FEF80EC089527
:1037700000240A9416161706180609060895002450
:103780000A9412161306140605060895092E0394CA
:10379000000C11F4882352F0BB0F40F4BF2B11F43E
:1037A00060FF04C06F5F7F4F8F4F9F4F089557FD9D
:1037B0009058440F551F59F05F3F71F04795880F9F
:1037C00097FB991F61F09F3F79F087950895121636
:1037D00013061406551FF2CF4695F1DF08C01616E2
:1037E00017061806991FF1CF869571056105089493
:1037F0000895E894BB2766277727CB0197F90895AA
:103800000E948B1B08F48FEF08950E94181C0C94E3
:10381000C61B0E94B81B38F00E94BF1B20F09523E6
:1038200011F00C94AF1B0C94B51B11240C94FA1BD3
:103830000E94D71B70F3959FC1F3950F50E0551F61
:10384000629FF001729FBB27F00DB11D639FAA27F5
:10385000F00DB11DAA1F649F6627B00DA11D661F44
:10386000829F2227B00DA11D621F739FB00DA11D65
:10387000621F839FA00D611D221F749F3327A00D1F
:10388000611D231F849F600D211D822F762F6A2FBB
:1038900011249F5750409AF0F1F088234AF0EE0F20
:1038A000FF1FBB1F661F771F881F91505040A9F74D
:1038B0009E3F510580F00C94AF1B0C94FA1B5F3FA8
:1038C000E4F3983ED4F3869577956795B795F79589
:1038D000E7959F5FC1F7FE2B880F911D9695879501
:1038E00097F90895DB018F939F930E94A41CBF91C9
:1038F000AF91A29F800D911DA39F900DB29F900D3F
:1039000011240895A1E21A2EAA1BBB1BFD010DC0B4
:10391000AA1FBB1FEE1FFF1FA217B307E407F5077F
:1039200020F0A21BB30BE40BF50B661F771F881F5B
:10393000991F1A9469F760957095809590959B01F1
:10394000AC01BD01CF0108950E94B51CA59F900D4B
:10395000B49F900DA49F800D911D11240895EE0F2A
:10396000FF1F0590F491E02D0994A29FB001B39F31
:10397000C001A39F700D811D1124911DB29F700D78
:10398000811D1124911D08950F931F93CF93DF93F1
:103990008230910510F482E090E0E0919A04F09179
:1039A0009B0430E020E0B0E0A0E0309799F42115CE
:1039B000310509F44AC0281B390B24303105D8F5EC
:1039C0008A819B816115710589F1FB019383828353
:1039D000FE0111C0408151810281138148175907AE
:1039E000E0F04817590799F4109761F012960C937C
:1039F000129713961C933296CF01DF91CF911F91AE
:103A00000F91089500939A0410939B04F4CF21150D
:103A1000310551F04217530738F0A901DB019A0133
:103A2000BD01DF01F801C1CFEF01F9CF90939B04F5
:103A300080939A04CDCFFE01E20FF31F81939193FF
:103A40002250310939832883D7CF209198043091AF
:103A50009904232B41F420912201309123013093CA
:103A6000990420939804209120013091210121157F
:103A7000310541F42DB73EB7409124015091250105
:103A8000241B350BE0919804F0919904E217F30799
:103A9000A0F42E1B3F0B2817390778F0AC014E5FBE
:103AA0005F4F2417350748F04E0F5F1F509399045E
:103AB00040939804819391939FCFF0E0E0E09CCFF6
:103AC000CF93DF930097E9F0FC01329713821282C3
:103AD000A0919A04B0919B04ED0130E020E0109792
:103AE000A1F420813181820F931F2091980430919D
:103AF00099042817390709F061C0F0939904E093FD
:103B00009804DF91CF910895EA01CE17DF07E8F519
:103B10004A815B819E0141155105B1F7E901FB83A3
:103B2000EA8349915991C40FD51FEC17FD0761F441
:103B3000808191810296840F951FE9019983888382
:103B4000828193819B838A83F0E0E0E012968D91DD
:103B50009C9113970097B9F52D913C911197CD0148
:103B60000296820F931F2091980430919904281790
:103B7000390739F6309751F510929B0410929A0448
:103B8000B0939904A0939804BCCFD383C28340819F
:103B90005181840F951FC817D90761F44E5F5F4F9D
:103BA00088819981480F591F518340838A819B8165
:103BB000938382832115310509F0B0CFF0939B04E4
:103BC000E0939A049ECFFD01DC01C0CF13821282E4
:063BD000D7CFF894FFCFEF
:103BD60001010101010000803F0000803FC8000094
:103BE600000132000000130313030001000001016D
:103BF60000009C04800064641414FFFF0303323247
:103C0600000000005E01BE00EB00AB011C01FA00E3
:103C16000E0100000000D804AB0407058104A404CB
:103C2600910482040D0A0052436E616E6F20203AA1
:103C3600202031312D4D61792D32303232004D6FD9
:103C460064756C652049443A20005573696E672097
:103C56004D4350323330313720666F722072656CB7
:103C66006179732E005573696E67204E616E6F2001
:103C760070696E7320666F722072656C6179732E3F
:103C8600005374617274696E6720492F4F2045781E
:103C960070616E646572202E2E2E00492F4F2065AE
:103CA6007870616E64657220666F756E642E004969
:103CB6002F4F20657870616E646572206E6F742078
:103CC600666F756E642E0046696E6973686564205A
:0A3CD60053657475702E002C000079
:00000001FF
