:100000000C9468000C940B130C94E4120C94900064
:100010000C9490000C9490000C9490000C94900020
:100020000C9490000C9490000C9490000C94900010
:100030000C9490000C9490000C9490000C94900000
:100040000C949A120C9490000C9468120C94421226
:100050000C9490000C9490000C9490000C949000E0
:100060000C9432130C9490006382536300010800D7
:100070000604000100000000240027002A00000000
:100080000000250028002B000404040404040404D8
:100090000202020202020303030303030102040833
:1000A00010204080010204081020010204081020E2
:1000B0000000000800020100000304070000000027
:1000C00000000000450000820000400020005114A4
:1000D00011241FBECFEFD8E0DEBFCDBF12E0A0E0FD
:1000E000B1E0E2E2F4E502C005900D92AE37B1074F
:1000F000D9F727E0AEE7B2E001C01D92A537B207FD
:10010000E1F710E0C8E6D0E004C02197FE010E94AC
:10011000C828C736D107C9F70E94A0140C940F2A2B
:100120000C9400008230C8F4E82FF0E0EE0FFF1FBF
:10013000E85AFE4F71836083813041F080916900FD
:100140008C7F826080936900E89A089580916900AD
:10015000837F886080936900E99A089508950895DF
:10016000CF93DF9320914F062223C1F0FC01208121
:100170002223A1F0CFE4D6E0ABE4B6E09C012C5FF3
:100180003F4F899141919D918427892339F4E2174A
:10019000F307B9F781E0DF91CF91089580E0FBCFBD
:1001A000AF92BF92CF92DF92EF92FF920F931F9385
:1001B000CF93DF936C017B018B01040F151FEB01C3
:1001C0005E01AE18BF08C017D10759F06991D6017A
:1001D000ED91FC910190F081E02DC6010995892BEC
:1001E00079F7C501DF91CF911F910F91FF90EF90AB
:1001F000DF90CF90BF90AF900895FC01538D448D58
:10020000252F30E0842F90E0821B930B541710F0C1
:10021000CF96089501970895FC01918D828D9817CE
:1002200061F0A28DAE0FBF2FB11D5D968C91928DA6
:100230009F5F9F73928F90E008958FEF9FEF0895D7
:10024000FC01918D828D981731F0828DE80FF11DA0
:10025000858D90E008958FEF9FEF0895FC01918DBB
:10026000228D892F90E0805C9F4F821B91098F73B4
:100270009927089589EA96E00E942E0121E0892BB2
:1002800009F420E0822F089580E090E0892B29F086
:100290000E943A0181110C9400000895FC01A48D84
:1002A000A80FB92FB11DA35ABF4F2C91848D90E098
:1002B00001968F739927848FA689B7892C93A0897B
:1002C000B1898C91837080648C93938D848D981305
:1002D00006C00288F389E02D80818F7D8083089598
:1002E000EF92FF920F931F93CF93DF93EC0181E086
:1002F000888F9B8D8C8D98131AC0E889F98980812D
:1003000085FF15C09FB7F894EE89FF896083E8895F
:10031000F98980818370806480839FBF81E090E051
:10032000DF91CF911F910F91FF90EF900895F62EDE
:100330000B8D10E00F5F1F4F0F731127E02E8C8D78
:100340008E110CC00FB607FCFACFE889F9898081BD
:1003500085FFF5CFCE010E944E01F1CFEB8DEC0F62
:10036000FD2FF11DE35AFF4FF0829FB7F8940B8FDA
:10037000EA89FB8980818062CFCFCF93DF93EC0144
:10038000888D8823B9F0AA89BB89E889F9898C917D
:1003900085FD03C0808186FD0DC00FB607FCF7CF39
:1003A0008C9185FFF2CF808185FFEDCFCE010E9439
:1003B0004E01E9CFDF91CF91089590E0FC01E05527
:1003C000FF4F2491FC01E456FF4F3491FC01E857A4
:1003D000FF4FE491EE23C9F0222339F0233001F1DD
:1003E000A8F4213019F1223029F1F0E0EE0FFF1FBF
:1003F000E258FF4FA591B4918FB7F894EC91611139
:1004000026C030953E233C938FBF08952730A9F036
:100410002830C9F0243049F7809180008F7D03C0D7
:10042000809180008F7780938000DFCF84B58F77B5
:1004300084BDDBCF84B58F7DFBCF8091B0008F77FB
:100440008093B000D2CF8091B0008F7DF9CF3E2B4A
:10045000DACFCF93DF9390E0FC01E456FF4F249175
:1004600088579F4FFC0184918823C9F090E0880F42
:10047000991FFC01EC58FF4FA591B491FC01E25883
:10048000FF4FC591D49161110DC09FB7F8948C9125
:10049000209582238C938881282328839FBFDF9116
:1004A000CF910895623051F49FB7F8943C91822F18
:1004B000809583238C93E8812E2BEFCF8FB7F89410
:1004C000EC912E2B2C938FBFEACF1F93CF93DF930A
:1004D000182FEB0161E00E942902209739F460E0B7
:1004E000812FDF91CF911F910C94DD01CF3FD1057A
:1004F00011F461E0F5CFE12FF0E0E055FF4FE4911A
:10050000E33031F140F4E130B1F0E230E1F0C038F5
:10051000D1057CF7E4CFE73029F1E83059F1E43038
:10052000B1F780918000806280938000D0938B002F
:10053000C0938A0004C084B5806884BDC7BDDF91C4
:10054000CF911F91089584B5806284BDC8BDF7CF57
:1005500080918000806880938000D0938900C09350
:100560008800EDCF8091B00080688093B000C09388
:10057000B300E5CF8091B00080628093B000C0935B
:10058000B400DDCF8230910538F0880F991F880FB5
:10059000991F05970197F1F708953FB7F894809157
:1005A000F4029091F502A091F602B091F70226B5FF
:1005B000A89B05C02F3F19F00196A11DB11D3FBF9B
:1005C000BA2FA92F982F8827BC01CD01620F711D6A
:1005D000811D911D42E0660F771F881F991F4A9564
:1005E000D1F708958F929F92AF92BF92CF92DF92F0
:1005F000EF92FF924B015C010E94CD026B017C01E6
:100600000E94CD026C197D098E099F09683E7340D6
:1006100081059105A8F321E0821A9108A108B1088B
:1006200088EEC80E83E0D81EE11CF11C81149104F1
:10063000A104B10429F7FF90EF90DF90CF90BF9015
:10064000AF909F908F9008952FB7F8946091F0022B
:100650007091F1028091F2029091F3022FBF089500
:100660000895809140049091410498278927982704
:10067000449720915E0430E044E0359527954A95F3
:10068000E1F7220F331F220F331F821B930B97FFBB
:1006900002C090E080E0089520915404309152040B
:1006A0003093540420935204209155043091530404
:1006B0003093550420935304E0E3F4E021A5820F26
:1006C000911D25A585A7662381F021A7892F99274C
:1006D000319724E0EC32F20789F71092620410920D
:1006E000630480E580935E04089511A6EFCF0F9315
:1006F0001F93CF93DF9370E0605D7B4F8A01075FAC
:100700001F4F213029F0223031F48A0102501109A3
:1007100030E020E003C000E010E09801EB01FA01B6
:10072000E230F10558F0A991B991BA27AB27BA2761
:100730000A0F1B1F211D311D3297F2CFFA01EE7FE8
:100740006E0F7F1F4E175F0769F0FB01408150E07D
:1007500070E060E0762F652F542F4427040F151F9B
:10076000261F371FA9016627772741155105610507
:10077000710519F022273327F1CF00951095E82F46
:10078000F0E0E05DFB4F10830183DF91CF911F917B
:100790000F910895E0E3F4E0108E118E80E4848BD5
:1007A000158A868B20E044E150E06EE088E10C94ED
:1007B00077038EBD0DB407FEFDCF089561E08091F3
:1007C000F8020E94DD0178940895F89460E0809129
:1007D000F8020C94DD010F931F93CF93DF93EC018C
:1007E0008B010E94E5032097B9F08AE30E94D903A8
:1007F0001EBCF801CE01019739F00DB407FEFDCF04
:100800002EB51EBC2193F7CF2197C00FD11F0DB479
:1008100007FEFDCF8EB58883DF91CF911F910F9199
:100820000C94DE031F93CF93DF93182FC62FD42F82
:100830000E94E5038C2F8F71812B0E94D9038D2F8D
:100840000E94D903DF91CF911F910C94DE03CF93C7
:10085000C82FC0768091EE028C1799F043E06FE1CB
:1008600080EA0E941204C093EE024C2F50E085E013
:10087000559547958A95E1F76FE180E8CF910C9403
:100880001204CF910895CF93DF93C82FD62F0E94E3
:1008900027044D2F6C2F80E4DF91CF910C9412042C
:1008A000CF93DF93C82FD72F0E9443046D2F81E091
:1008B0008C0FDF91CF910C944304CF93C82F0E94EB
:1008C00027040E94E5038C2F8F710E94D90380E0DA
:1008D0000E94D903C7FF03C080E00E94D903CEB5B0
:1008E0000E94DE038C2FCF910895CF93DF93EC010C
:1008F00040E86FE180E80E94120440E86FE180EA7E
:100900000E9412044AE06CE180EA0E94120460E056
:100910007CE082E00E945004BE01745F86E00E9489
:10092000500440E060E08AE70E9412040E94E50360
:100930002097B1F08AE70E94D903809130048EBDE0
:10094000E1E3F4E0C05DDB4FEC17FD0731F081918E
:100950000DB407FEFDCF8EBDF7CF0DB407FEFDCF62
:100960000E94DE0348E06FE180E80E941204D0E0BC
:10097000C0E08CE10E945D048A7029F42196C83E93
:1009800083E0D807B1F78CE10E945D0481FD03C0CC
:10099000C83ED34039F448E06FE180EADF91CF915F
:1009A0000C941204DF91CF9108950F931F93CF936E
:1009B000DF93EC0100E314E04C96F801908B818BFF
:1009C0000E94CA03CE010896F80196A387A3AE0140
:1009D000405F5F4F21E06AE188E20E947703CE0129
:1009E0008A96DF91CF911F910F910C947504CF934C
:1009F000DF93EB01682F84ED0E944304BE0186ED76
:100A00000E9450048AEE0E945D0480FDFBCFDF91BE
:100A1000CF910895CF92DF92EF92FF920F931F93A1
:100A20008634910568F120915304233449F5C09030
:100A30005E04D0905F04E0906004F0906104009147
:100A4000E0031091E1032091E2033091E303C0162B
:100A5000D106E206F306A1F4EAE4F5E0805D9B4FDF
:100A60009F012E5F3F4F41815081553319F45281D0
:100A7000651771F0F901E40FF11DE817F90780F32C
:100A800080E01F910F91FF90EF90DF90CF9008953D
:100A900081E0F7CFE091EC02F091ED029F012F5F32
:100AA0003F4F3093ED022093EC0280830895FF9234
:100AB0000F931F93CF93DF93162FF42E052F0E94D1
:100AC0004A05812F0E944A05CF2DD02F115020F0CA
:100AD00089910E944A05FACFDF91CF911F910F9122
:100AE000FF9008952091C902260F3327331F21322A
:100AF0003105ECF420917F06FC0190E080E0243089
:100B000069F082E00895A091C9022191AC01475596
:100B10005D4FA40FB52FB11D2C930196861798F346
:100B20008091C902680F6093C90280E0089581E056
:100B3000089510927F0681E080937E0610925906F8
:100B400061E082E10E94DD0161E083E10E94DD015C
:100B5000E9EBF0E080818E7F808380818D7F8083D0
:100B600088E48093B80085E48093BC0008951092D7
:100B7000580610925706109286061092A8060E94F8
:100B800099058EEA90E090935606809355068FEA79
:100B900090E090935406809353060895CF93DF938B
:100BA00091E09093A8028823B9F0C091B800D09149
:100BB000BA008091BC008A7B8093BC0060E082E137
:100BC0000E94DD0160E083E10E94DD010E94990541
:100BD000D093BA00C093B800DF91CF9108958F925F
:100BE0009F92AF92BF92CF92DF92EF92FF920F93BC
:100BF0001F93CF93DF93D091A806D13208F0D7C0CE
:100C0000182FC091A7060E94CD026B017C01809134
:100C10007F0681116BC082E080937F0610937E0671
:100C20008FEF80937D0610927C06D0937B06A7E819
:100C3000B6E0EBE5F6E080E0D81391C010925A06DA
:100C400080915A06CC0FC82BC0935A068091590642
:100C5000813009F088C0109259060E94CD026B01C4
:100C60007C0180915A068093BB008091810690910F
:100C70008206A0918306B0918406892B8A2B8B2B48
:100C8000A1F00E94CD020091810610918206209170
:100C90008306309184066C197D098E099F09061719
:100CA00017072807390708F442C08091BC0083FD6C
:100CB000D8CF85EC8093BC000E94CD026B017C01F3
:100CC00080917F06823009F450C080917D068F3F6D
:100CD00009F46FC080917D06803209F46CC0809168
:100CE0007D06803309F469C084E026C080918106C6
:100CF00090918206A0918306B0918406892B8A2B5D
:100D00008B2B09F484CF0E94CD02809081069090B5
:100D10008206A0908306B09084066C197D098E0926
:100D20009F0986169706A806B90608F070CF80912D
:100D300080060E94CE0585E0109286061092A806D5
:100D400010928506DF91CF911F910F91FF90EF9048
:100D5000DF90CF90BF90AF909F908F9008959D911E
:100D600091938F5F69CF85EEA5CF80918106909199
:100D70008206A0918306B0918406892B8A2B8B2B47
:100D800009F49ECF0E94CD02009181061091820647
:100D900020918306309184066C197D098E099F0984
:100DA000061717072807390708F08ACFC0CF81E058
:100DB000C3CF80E0C1CF82E0BFCF83E0BDCF089535
:100DC000E091580680915706E81730F4F0E0E857B4
:100DD000FD4F808190E008958FEF9FEF08959091EF
:100DE0005806809157062FEF3FEF981748F4E92FE8
:100DF000F0E0E857FD4F208130E09F5F9093580668
:100E0000C90108958091570690915806891B990B46
:100E10000895CF92DF92EF92FF920F931F93CF939B
:100E2000DF937C01CB018A0120918506222389F082
:100E3000EB016B01C40ED51ECC15DD0569F069917F
:100E4000D701ED91FC910190F081E02DC70109954A
:100E5000F3CF642F0E947205C801DF91CF911F91DB
:100E60000F91FF90EF90DF90CF900895CF93DF9395
:100E70001F92CDB7DEB76983209185062223F9F052
:100E80002091A806203258F021E030E0FC013383A5
:100E9000228390E080E00F90DF91CF9108958091C0
:100EA0008606E82FF0E0E957F94F998190838F5F2C
:100EB000809386068093A80681E090E0ECCF61E005
:100EC000CE0101960E947205F7CF90E080E0089570
:100ED0008FB7F894809187028FBF0895AF92BF9229
:100EE000CF92DF92EF92FF920F931F93CF93DF93F6
:100EF000EC0188819981892B89F06EBD0DB407FEC4
:100F0000FDCFBEB48B2DDF91CF911F910F91FF903C
:100F1000EF90DF90CF90BF90AF900895888599852E
:100F200011E0892B09F010E8AA24A394862F8123CD
:100F300009F0A12C062F2C813D814E815F8160E25A
:100F400071EA87E090E00E949B28F22EB02EE12CFF
:100F5000C22ED12CFF2019F0C6010E94C2028A8540
:100F6000877F09F042C08D858F3F89F0902F9123B4
:100F700081E009F480E08A1551F0EF85F8898F89C6
:100F8000992369F19081892B8083AA24A394E9890C
:100F9000FA898081998D892B8083FF2019F0C60101
:100FA0000E94C2028E858F3F39F0EB89FC898081D7
:100FB000988D892309F0E12AE989FA899081898D40
:100FC0008095892380838E858F3F09F0BE2C88858C
:100FD0009985892BB9F5110F1111BCCF93CF908151
:100FE000809589238083A12CD2CFE989FA898081D9
:100FF000998D892B8083FF2019F0C6010E94C202BF
:101000008D858F3F49F0EF85F8898F89902F912347
:10101000A9F09081892B8083E989FA899081898D53
:101020008095892380838E858F3F69F2EB89FC89C7
:101030008081988D892339F2E12AC5CF90818095EE
:101040008923E9CF1695C8CF8CBD9DBD08958F9299
:101050009F92AF92BF92CF92DF92EF92FF920F9347
:101060001F93CF93DF93EC014B016A01B22EA32EA5
:1010700088819981892B31F0EA81FB81808191817E
:101080000E94240860E08B850E94DD017401C80C79
:10109000D91CEC14FD0479F4EB2CFA2C0E0D1F1D59
:1010A0000E151F0579F06FEFCE010E946E07F70154
:1010B00081937F01F5CFF70161917F01CE010E94FD
:1010C0006E07E7CF61E08B850E94DD0181E0DF9153
:1010D000CF911F910F91FF90EF90DF90CF90BF9035
:1010E000AF909F908F9008958F929F92AF92BF92F2
:1010F000CF92DF92EF92FF920F931F93CF93DF93E4
:10110000EC01B62EA72E6A01490188819981892BAD
:1011100031F0EA81FB81808191810E94240860E0A6
:101120008B850E94DD017401080D191DE016F10682
:1011300071F40B2D1A2DC00ED11EC016D10671F000
:10114000F80161918F01CE010E946E07F6CFF70181
:1011500061917F01CE010E946E07E8CF61E08B852F
:101160000E94DD0181E0DF91CF911F910F91FF90EF
:10117000EF90DF90CF90BF90AF909F908F900895A9
:101180001F93CF93DF93EA01122FDC0111968D910B
:101190009C91DC01ED91FC910280F381E02D099599
:1011A000C817D90729F4812F0E94EF0591E081111A
:1011B00090E0892FDF91CF911F910895CF93DF9316
:1011C000EC018B818823A1F0888191E090938506C2
:1011D0008093A706109286061092A80681E00E94CE
:1011E000EF0591E0811190E0892FDF91CF91089573
:1011F0000E94B70581E08B83CE010E94DE08982F04
:101200008111E2CFF1CFCF92DF92EF92FF920E9455
:101210002403C0908202D0908302E0908402F09078
:1012200085026C197D098E099F096B307105810556
:10123000910558F10E9424036C197D098E099F09BC
:1012400060936D0370936E0380936F0390937003AC
:101250008091790390917A03A0917B03B0917C03F4
:101260000196A11DB11D8093790390937A03A093F9
:101270007B03B0937C030E942403609382027093EB
:1012800083028093840290938502FF90EF90DF9019
:10129000CF900895CF92DF92EF92FF920E942403A5
:1012A000C0907E02D0907F02E0908002F090810298
:1012B0006C197D098E099F096B30710581059105B7
:1012C00058F10E9424036C197D098E099F096093CF
:1012D000690370936A0380936B0390936C030E947D
:1012E000240360937E0270937F0280938002909328
:1012F00081028091750390917603A0917703B0915C
:1013000078030196A11DB11D809375039093760318
:10131000A0937703B0937803FF90EF90DF90CF9086
:1013200008950895FC0101900020E9F73197AF017D
:10133000481B590BBC0189EA96E00C94D00082E965
:1013400091E00C9492098F929F92AF92BF920F936B
:101350001F93CF93DF93CDB7DEB7A1970FB6F89465
:10136000DEBF0FBECDBF19A2423008F44AE08E01A5
:101370000F5D1F4F842E912CB12CA12CA50194013F
:101380000E949B28E62FB901CA01EA30F4F4E05D1F
:10139000D801EE938D01232B242B252B79F790E098
:1013A00080E0109719F0CD010E949209A1960FB626
:1013B000F894DEBF0FBECDBFDF91CF911F910F918B
:1013C000BF90AF909F908F900895E95CE1CFCF934D
:1013D000DF930E949209EC010E949F098C0F9D1FD0
:1013E000DF91CF9108950C949209682F70E090E0FE
:1013F00080E04AE00C94A309BC01990F880B990B7B
:101400004AE00C94A3092F923F924F925F926F9201
:101410007F928F929F92AF92BF92CF92DF92EF9284
:10142000FF920F931F93CF93DF93CDB7DEB72A9729
:101430000FB6F894DEBF0FBECDBF9C838B834F8366
:10144000588769877A87DC01ED90FC90F701008569
:10145000C7010B969E838D839681878199838A83AA
:10146000608071806114710409F420C1418550E0ED
:10147000D30114968D919C9115978417950708F4C4
:1014800068C18C9191E0909385068093A706109295
:1014900086061092A80620E0BE016F5F7F4FC30151
:1014A0000E94C008882309F454C1402E512C312CCD
:1014B000212C2414350408F01AC1F301848195818C
:1014C0008201021913098017910708F48C01D301D6
:1014D000CC900E94CD024B015C0180917F0681116E
:1014E00075C0D02EB0E2B01710F470E2D72EE1E054
:1014F000E0937F0621E0C201801B910B281639067C
:1015000008F420E020937E06FFEFF0937D06109212
:101510007C068FEF8D0D80937B0681E080935A06C9
:1015200080915A06CC0CC82AC0925A06809159065E
:10153000813009F092C0109259060E94CD024B01F1
:101540005C0180915A068093BB0080918106909146
:101550008206A0918306B0918406892B8A2B8B2B5F
:10156000A1F00E94CD022091810630918206409127
:10157000830650918406681979098A099B09261700
:1015800037074807590708F442C08091BC0083FD23
:10159000D8CF95EC9093BC000E94CD024B015C012A
:1015A00080917F06813009F45CC080917C068D15A6
:1015B00010F4D0907C06ABE5B6E0E8E8F2E080E01D
:1015C0008D1551F19D9191938F5FFACF8091810696
:1015D00090918206A0918306B0918406892B8A2B74
:1015E0008B2B09F47ACF0E94CD0220918106309195
:1015F00082064091830650918406681979098A0908
:101600009B09261737074807590708F066CF8091CE
:1016100080060E94CE05D12C10925806D092570613
:10162000D016110609F095C0AD80BE80A20CB31C87
:101630006501C6018A199B0980179107A0F5F3017E
:1016400081819281DC01ED91FC910284F385E02D92
:101650000995F60181936F01ECCFA5EEA093BC0034
:101660009BCF8091810690918206A0918306B091D4
:101670008406892B8A2B8B2B09F492CF0E94CD02F2
:101680002091810630918206409183065091840614
:10169000681979098A099B092617370748075907E6
:1016A00008F07ECFB4CF200E311E03CFD7010280C9
:1016B000F381E02D309709F44CC014962D913C91A4
:1016C000159710E019964C9150E02330310561F5E3
:1016D000816089839A834F5F5F4F2D813E81BE0178
:1016E0006F5F7F4FCF010E942708882391F1F70198
:1016F000408550E090E080E000E010E09801841721
:10170000950754F5322F212F102F0027D7011A9655
:101710006C91611119C0FA01E81BF90BEE0DFF1D68
:101720006285062B0196EBCF2115310519F49068DF
:101730009983D3CF2230310511F49F77F9CF21302F
:10174000310559F6906CF4CFF701E80FF91F638566
:10175000E8CF0FEF1FEF9801EB81FC81A081B181F1
:1017600018968C911897853008F078C0928141E0E6
:1017700050E002C0440F551F9A95E2F741505109BD
:10178000052E000C660B770B93816A017B01092EF5
:1017900004C0CC0CDD1CEE1CFF1C0A94D2F7C094D4
:1017A000D094E094F0940C211D212E213F214F80F4
:1017B000588469847A84442255226622772204C0A0
:1017C000440C551C661C771C9A95D2F7402A512A66
:1017D000622A732A1F964D925D926D927C92529767
:1017E00030E020E0E82EF12C2E153F05BCF41A96CF
:1017F0008C911A9781110BC0FD01E20FF31F4386F4
:10180000452C562C672C77242F5F3F4FEDCFF701E7
:10181000E21BF30BEA0FFB1F4286F2CF6D01FBE0E8
:10182000CF0ED11C16969C91169717968C911797F0
:1018300099838A83AD90BC901197A114B10409F4E7
:101840004DC019960C9110E098012E0D3F1DD50149
:1018500014968D919C918217930710F480E016C026
:10186000F50181819281208131E0309385062093BA
:10187000A706109286061092A80601151105F9F424
:1018800021E0A701B601C5010E94C0082A960FB643
:10189000F894DEBF0FBECDBFDF91CF911F910F91A6
:1018A000FF90EF90DF90CF90BF90AF909F908F9080
:1018B0007F906F905F904F903F902F900895DC0144
:1018C000ED91FC910280F381E02DA801BE016F5FD4
:1018D0007F4F09950817190709F6D2CF1296ED9197
:1018E000FC911397309709F4B9CF14962D913C9140
:1018F000159719960C9110E02330310571F48E7F05
:1019000089839A830F5F1F4F9E012F5F3F4FA7016F
:10191000B601CF010E947408B9CF2115310519F421
:101920009F779983F1CF2230310511F49068F9CF78
:101930002130310549F79F779064F3CFCF93DF9340
:10194000CDB7DEB767970FB6F894DEBF0FBECDBF39
:10195000E62F9091560729E030E0993030F023E1EE
:1019600030E0883010F422E130E04091540750918B
:1019700055074115510509F0306460915207709187
:101980005307188A198A1A8A1B8A5C834B837A83C5
:10199000698343E050E05E834D8391E09A87388706
:1019A0002F831B8699879E012F5F3F4F3D8B2C8B8A
:1019B0009E8B87708F8B41E050E060E070E0E1111A
:1019C00003C040E050E0BA01CE0144960E94030AF1
:1019D00067960FB6F894DEBF0FBECDBFDF91CF91F3
:1019E0000895EF92FF920F931F93CF93DF93C82F29
:1019F000D62F80915E01813009F0C6C060915F01F1
:101A0000C0FF72C088E00E949E0C60915F01C1FF20
:101A100070C089E00E949E0C60915F01C2FF6EC0A1
:101A20008AE00E949E0C60915F01C3FF6CC08BE056
:101A30000E949E0C60915F01C4FF6AC08CE00E940E
:101A40009E0C60915F01C5FF68C08DE00E949E0CF6
:101A500060915F01C6FF66C08EE00E949E0C60919F
:101A60005F01C7FF64C08FE00E949E0C60915F0120
:101A7000D0FF62C087E00E949E0C60915F01D1FFA1
:101A800060C086E00E949E0C60915F01D2FF5EC044
:101A900085E00E949E0C60915F01D3FF5CC084E0F2
:101AA0000E949E0C60915F01D4FF5AC083E00E94A7
:101AB0009E0C60915F01D5FF58C082E00E949E0C91
:101AC00060915F0181E0D6FF55C00E949E0C60913D
:101AD0005F01D7FF54C080E0DF91CF911F910F913C
:101AE000FF90EF900C949E0C81E0611180E0682FD4
:101AF00089CF81E0611180E0682F8BCF81E0611197
:101B000080E0682F8DCF81E0611180E0682F8FCF5A
:101B100081E0611180E0682F91CF81E0611180E068
:101B2000682F93CF81E0611180E0682F95CF81E02D
:101B3000611180E0682F97CF81E0611180E0682F0C
:101B400099CF81E0611180E0682F9BCF81E0611126
:101B500080E0682F9DCF81E0611180E0682F9FCFEA
:101B600081E0611180E0682FA1CF81E0611180E008
:101B7000682FA3CF611180E0682F81E0A6CF81E0BC
:101B8000611180E0682FA7CF81E6E82E87E0F82E6C
:101B900010E000E0F70181917F01823028F00830E9
:101BA0001105ECF4C093860260915F0120918602DA
:101BB00030E0002E02C0359527950A94E2F720FF09
:101BC00011C00E94DD010F5F1F4F0031110511F799
:101BD000DF91CF911F910F91FF90EF900895D093D7
:101BE0008602E2CF91E0611190E0692FEACFCF93B6
:101BF000DF93CDB7DEB7AE970FB6F894DEBF0FBE5A
:101C0000CDBF9091560730E020E0993038F051E098
:101C100040E0883008F450E0252F342F40915407DD
:101C2000509155074115510509F0306460915207F4
:101C3000709153071BA21CA21DA21EA25F8B4E8B8C
:101C40007D8B6C8BE3E0F0E0F98FE88FE1E0ED8FC6
:101C50003B8F2A8F1E8EEC8F26E030E0993030F0DB
:101C60002DE030E0883010F42CE030E041155105D3
:101C700009F03064188A198A1A8A1B8A5C834B839C
:101C80007A83698343E050E05E834D8391E09A87D5
:101C900038872F831B86998787709E012C5E3F4F64
:101CA0003CA72BA79DA78EA72351310938A72FA3A7
:101CB00099A78AA740E050E0BA01CE018B960E9416
:101CC000030A40E050E0BA01CE0187960E94030A61
:101CD000AE960FB6F894DEBF0FBECDBFDF91CF91A9
:101CE0000895DC0196E0FB0101900D929A95E1F7D1
:101CF0000895CF93DF93EB0144E050E0BC018CE406
:101D000094E00E94022A892B49F466E474E0CE0133
:101D10000E94710E81E0DF91CF91089580E0FBCFAA
:101D2000BC0180E394E00E94710E61EF73E086E3F2
:101D300094E00C94710EDC0194E0FB0101900D9293
:101D40009A95E1F708950F931F93CF938C0188E63E
:101D500091E00E94900EE0E3F4E088E08487C6E022
:101D6000C58748E050E06CE670E08EE394E00E94A6
:101D70002E26E0E5F4E0DF011D92CA95E9F761EF58
:101D800073E086E494E00E94710EB80186E594E069
:101D90000E949B0E6FE476E08CE494E00E949B0E20
:101DA0008AE290E0CF911F910F910C94750486E325
:101DB00094E00E94900E6AE474E08EE494E00E9445
:101DC0009B0E6FE476E08AE494E00E949B0E0C94F4
:101DD000CA03262F206120935F04643021F000970E
:101DE00011F481E090E061E00E944C031092400405
:101DF00088E2809341040E94D70E84E080936004BF
:101E00001092610422E04CE150E06AE182E30E941A
:101E1000770386E390E00C947504CF93DF93EB0196
:101E20000E94900EBE018EE494E00E949B0E6FE42F
:101E300076E08AE494E0DF91CF910C949B0EEF92D0
:101E4000FF920F931F93CF93DF93182F092FEB016E
:101E5000F42EE52ECB010E94B000BE01882309F4C8
:101E600047C084E294E00E940D0F8881807F803E0D
:101E700091F088819981AA81BB818F3F9F4FAF4F9D
:101E8000BF4F49F044E050E0BE0187EF93E00E946D
:101E9000022A892B31F468E671E080E394E00E9425
:101EA000710E88E080933C0410923D0449E050E0BC
:101EB00064EC70E08EE394E00E942E2610924004C1
:101EC00081E180934704E0925404F092550400931A
:101ED0005204109353041092560410925804109216
:101EE0005904DF91CF911F910F91FF90EF900895CA
:101EF0008AE294E0B8CFEF92FF920F931F93CF93B3
:101F00008C01E0E3F4E086E191E0DF019C011D92A9
:101F100021503040E1F78091F00368E671E08330B2
:101F200011F46BED73E043E450E084E490E00E9430
:101F30001F0F68E671E080E394E00E94710E81E07B
:101F400080935A0480935B0486E080935C048091C4
:101F5000E0039091E103A091E203B091E303809349
:101F60005E0490935F04A0936004B0936104C091F9
:101F7000F003C33031F46FE476E086E694E00E942B
:101F80009B0E61EF73E086E794E00E94710E86E499
:101F900095E09093ED028093EC02E8E6F0E0849106
:101FA0000E944A05E9E6F0E084910E944A05EAE6CB
:101FB000F0E084910E944A05EBE6F0E084910E94F3
:101FC0004A0585E30E944A0581E00E944A0583E0B4
:101FD000C11101C081E00E944A058DE30E944A05BB
:101FE00087E00E944A0581E00E944A0581EFE82EC1
:101FF00083E0F82EC7E0C15031F0D7018D917D010B
:102000000E944A05F8CF80910001882371F060E0BA
:1020100071E0FB0101900020E9F7BF0161507140C0
:1020200040E051E08CE00E9457050115110559F080
:10203000A80164E082E30E9457054BED53E064E0A1
:1020400086E30E94570587E30E944A0583E00E94C9
:102050004A0581E00E944A0583E00E944A0586E025
:102060000E944A058FEF0E944A058091EC029091F0
:10207000ED028A559440CF911F910F91FF90EF9000
:102080000C94D50485ED8093BC00809181069091DD
:102090008206A0918306B09184060796A11DB11D0A
:1020A00023E0B695A795979587952A95D1F7209126
:1020B000BC0024FD03C010927F0608954091810664
:1020C000509182066091830670918406452B462BC1
:1020D000472B69F30097A105B10541F025E32A9547
:1020E000F1F700000197A109B109E1CF80918006C5
:1020F0000C94CE05FF920F931F93CF93DF93EC01C7
:10210000F62E08811981C8010E943726F81621F0A1
:102110006F2DC8010E943F26CE01DF91CF911F9104
:102120000F91FF900895EF92FF920F931F93CF931B
:10213000DF9300D0CDB7DEB78CE5E82E81E0F82E36
:102140000AE010E01A830983F70161917F01CE0153
:1021500001960E947A100F5F1F4F0031110591F711
:102160008CE591E00F900F90DF91CF911F910F912F
:10217000FF90EF900895EF92FF920F931F93CF93EC
:10218000DF9300D0CDB7DEB78BE5E82E87E0F82EE1
:1021900008E210E01A830983F70161917F01CE0103
:1021A00001960E947A100F5F1F4F0E33110591F7B1
:1021B0008BE597E00F900F90DF91CF911F910F91DA
:1021C000FF90EF9008958F929F92AF92BF92CF921F
:1021D000DF92EF92FF920F931F93CF93DF93E9016A
:1021E000888199810B30110508F48AC086362FE763
:1021F000920709F089C00A81902F92959F70809173
:102200005D0198136AC00F7080916101081708F092
:1022100064C08B8180937D038C8180937E036D816C
:102220007E8190E080E00E9467272DEC3CEC4CEC36
:102230005DE30E941E284B015C0110E07801EE0C6A
:10224000FF1CEE0CFF1CC7018F5B9E4F6C01688565
:10225000798590E080E00E9467272AE037ED43E22D
:102260005CE30E941E28F60160837183828393835E
:102270008A8580FF07C0F701E055FC4F108211826C
:1022800012821382F801EE55FC4F81FD33C010829B
:1022900082FF03C090819E5F9083F801ED59FC4F4F
:1022A00084FB992790F9908391E0282F207285FF75
:1022B00090E090935301F7012223F9F0E55CF94F88
:1022C00080829182A282B3820E942403F701ED5B97
:1022D000F94F6083718382839383DF91CF911F9144
:1022E0000F91FF90EF90DF90CF90BF90AF909F90B5
:1022F0008F90089591E09083CBCFE656FC4FE0CFCE
:102300000A30110509F04CC08836FFE79F07C9F570
:102310000A81902F92959F7080915D019813DDCF77
:102320000F70809161010817C0F610E0F801EB5CB6
:10233000FE4F8B818083F801E55CFE4F8C818083AA
:10234000F801EF5CFE4F8D818083F801E95CFE4F60
:102350008E818083F801E75CFE4F8F818083F801D6
:10236000ED5CFE4F88858083F801E856FC4F898537
:1023700080830E942403000F111F000F111FF8011A
:10238000A6CF8C362FE7920779F4FE013296A5E0AE
:10239000B3E02A9681918D93EC17FD07D9F79DCF75
:1023A0000530110508F499CF8137EFE79E07A9F5AD
:1023B0008A8180935D018B81809361018C8180FF94
:1023C00020C091E090935C0181FF1EC091E090934A
:1023D0005E0182FF1CC091E090935F0183FF1AC0F1
:1023E00081E080936001DF91CF911F910F91FF9069
:1023F000EF90DF90CF90BF90AF909F908F900C9414
:10240000931010925C01E0CF10925E01E2CF109227
:102410005F01E4CF10926001E6CF0831110508F4A6
:102420005CCF82379F4709F058CF8A8180935B0742
:102430008B8180935C078C8180935D078D81809375
:102440005E078E8180935F078F8180936007FE0116
:102450003896A1E6B7E0689681918D93CE17DF0795
:10246000D9F70E94BB10F0E0E0E0DF91CF911F911F
:102470000F91FF90EF90DF90CF90BF90AF909F9023
:102480008F9009941F920F920FB60F9211242F93E1
:102490003F934F935F936F937F938F939F93AF93EC
:1024A000BF93EF93FF9389EA96E00E944E01FF915C
:1024B000EF91BF91AF919F918F917F916F915F91BC
:1024C0004F913F912F910F900FBE0F901F90189535
:1024D0001F920F920FB60F9211242F938F939F93F9
:1024E000EF93FF93E091B906F091BA068081E091F5
:1024F000BF06F091C00682FD1BC090818091C2068C
:102500008F5F8F732091C306821741F0E091C2065E
:10251000F0E0E755F94F958F8093C206FF91EF9158
:102520009F918F912F910F900FBE0F901F90189534
:102530008081F4CF1F920F920FB60F9211242F9328
:102540003F938F939F93AF93BF938091F0029091AD
:10255000F102A091F202B091F3023091EF0223E078
:10256000230F2D3758F50196A11DB11D2093EF02C1
:102570008093F0029093F102A093F202B093F302E1
:102580008091F4029091F502A091F602B091F702C9
:102590000196A11DB11D8093F4029093F502A093C2
:1025A000F602B093F702BF91AF919F918F913F9147
:1025B0002F910F900FBE0F901F90189526E8230FB4
:1025C0000296A11DB11DD2CF1F920F920FB60F928E
:1025D00011242F933F934F935F936F937F938F9328
:1025E0009F93AF93BF93EF93FF93E0915A01F091C4
:1025F0005B010995FF91EF91BF91AF919F918F91F1
:102600007F916F915F914F913F912F910F900FBEEE
:102610000F901F9018951F920F920FB60F921124D2
:102620002F933F934F935F936F937F938F939F93DA
:10263000AF93BF93EF93FF93E0915801F09159014D
:102640000995FF91EF91BF91AF919F918F917F91EC
:102650006F915F914F913F912F910F900FBE0F900F
:102660001F9018951F920F920FB60F9211242F935F
:102670003F934F935F936F937F938F939F93AF930A
:10268000BF93EF93FF938091B900887F803609F460
:102690004AC0F0F5883209F4A7C018F5803109F472
:1026A0009BC0B8F4882309F4F9C0883009F494C0B9
:1026B000FF91EF91BF91AF919F918F917F916F911A
:1026C0005F914F913F912F910F900FBE0F901F90F0
:1026D0001895883109F488C0803251F780937D06BF
:1026E00014C0803409F49DC040F48033B9F38833BA
:1026F000F9F680937D0685ECB0C0803509F485C07D
:10270000883509F496C0883499F60E944210D0CFDB
:10271000883909F48CC038F5883729F050F48836A8
:1027200011F0803729F683E080937F061092EB0248
:1027300057C0883809F47BC0803919F0803809F017
:10274000B7CF8091EB02803208F071C0E091EB02CC
:1027500081E08E0F8093EB028091BB00F0E0E553A7
:10276000FD4F80833DC0803B39F0E0F4803A09F4AE
:1027700079C0883A09F09CCF84E080937F0610925C
:10278000CA021092C902E0915506F09156060995C9
:102790008091C90281110FC081E08093C90210921B
:1027A000A90209C0803C09F4A6CF883C09F4A3CF54
:1027B000883B09F07DCFE091CA0281E08E0F8093C3
:1027C000CA02F0E0E755FD4F80818093BB009091F5
:1027D000CA028091C90229C080915A068093BB0029
:1027E00085EC8093BC0064CF90917C0680917B0641
:1027F000981758F5E0917C0681E08E0F80937C0657
:10280000F0E0E55AF94F8081E9CFE0917C0681E064
:102810008E0F80937C068091BB00F0E0E55AF94F63
:10282000808390917C0680917B069817C8F285E89A
:10283000D8CFE0917C0681E08E0F80937C0680915A
:10284000BB00F0E0E55AF94F808380917E0681114C
:102850005CCF81E08093590684EA8093BC0010929B
:102860007F0626CF85EC8093BC0010927F06809176
:10287000EB02803230F4E091EB02F0E0E553FD4FE3
:1028800010826091EB0270E0E0915306F0915406E3
:102890008BEC92E009951092EB020ACF10927D0624
:1028A00034CFE9EAF6E01382128288EE93E0A0E0EA
:1028B000B0E084839583A683B78322E731E0318338
:1028C000208325EC30E03587248724EC30E03787FF
:1028D000268720EC30E0318B208B21EC30E0338BED
:1028E000228B22EC30E0358B248B26EC30E0378BCA
:1028F000268B118E128E138E148EE6E4F7E013826F
:10290000128284839583A683B78384E891E09183C0
:102910008083EBE5F7E082E0808383E0818384E0DD
:10292000828386E0838385E0848389E08583E2E592
:10293000F7E0118210821382128280E1848308956D
:10294000CF93DF93CDB7DEB7E0970FB6F894DEBF35
:102950000FBECDBF789484B5826084BD84B581609C
:1029600084BD85B5826085BD85B5816085BD80915A
:102970006E00816080936E001092810080918100D2
:1029800082608093810080918100816080938100CA
:10299000809180008160809380008091B10084608C
:1029A0008093B1008091B00081608093B0008091ED
:1029B0007A00846080937A0080917A0082608093AC
:1029C0007A0080917A00816080937A0080917A0009
:1029D000806880937A001092C100E091B906F0916E
:1029E000BA0682E08083E091B506F091B6061082C7
:1029F000E091B706F091B80683E380831092C10698
:102A0000E091BD06F091BE0686E08083E091BB06B2
:102A1000F091BC06808180618083E091BB06F091DB
:102A2000BC06808188608083E091BB06F091BC0683
:102A3000808180688083E091BB06F091BC06808134
:102A40008F7D808390E080E00E943726809303038F
:102A500081E090E00E943726809304038091030375
:102A6000909104038435994009F4EBC01A821982CD
:102A700064E5CE0101960E947A1081E090E09A838D
:102A8000898369E0CE0101960E947A100E9493101A
:102A90000E94BB1068E873E180E090E00E94F202BF
:102AA0000E949F0985E991E00E94E7098CEA91E084
:102AB0000E94F30980915D010E94F5090E949F091F
:102AC0000E949F0980915C018111DEC088EB91E03A
:102AD0000E94E70980915E01882309F4D8C084EE42
:102AE00091E00E94E7090E94B70580915E0101E62E
:102AF00017E0882309F4D1C081E08093850680E245
:102B00008093A706109286061092A80681E00E9484
:102B1000EF058111BFC08BE192E00E94E70986E0DA
:102B200090E00E94DD288C0180E2D8018C9386E43D
:102B300097E012969C938E93119713961C9213977D
:102B400080E290E015969C938E9314971093530710
:102B5000009352070E94B70581E0F8018383C80102
:102B60000E94DE0888E00E94F70D89E00E94F70DC0
:102B70008AE00E94F70D8BE00E94F70D8CE00E9426
:102B8000F70D8DE00E94F70D8EE00E94F70D8FE0AB
:102B90000E94F70D87E00E94F70D86E00E94F70D76
:102BA00085E00E94F70D84E00E94F70D83E00E940B
:102BB000F70D82E00E94F70D81E00E94F70D80E0A2
:102BC0000E94F70DA0905B07A0920103B0905C07F4
:102BD000B092020380915D078093860380915E0727
:102BE0008093870380915F078093840380916007BF
:102BF00080938503E6E8CE2EE3E0DE2EF4E8EF2EA8
:102C0000F3E0FF2E01E013E020916101C801815043
:102C100093402817190609F00CF44CC062E0F80143
:102C200081918F010E94290261E0D6018D916D0191
:102C30000E94290261E0F70181917F010E9429022F
:102C4000E3CFBCE5EB2EB1E0FB2E0AE010E0C801BB
:102C50000E943726D7018D937D010F5F1F4F0031F2
:102C60001105A9F7ABE5EA2EA7E0FA2E08E210E07D
:102C7000C8010E943726F70181937F010F5F1F4F24
:102C80000E331105A9F706CF8FEC91E021CF8FEF1E
:102C900091E027CF8BE292E040CFD8018D918D015A
:102CA000823018F061E00E942902B7E001371B076B
:102CB000A1F788CFF2E080E0AF1621F023E081E0B9
:102CC000A2128FEF6AE479E00E94920032E080E085
:102CD000B31621F043E081E0B4128FEF63E079E0B6
:102CE0000E94920080915C01813009F083C180ECE8
:102CF0008F8388EA888785E0898780915D019EE6D9
:102D0000980F9A8790E7998391E39A8391E29B8346
:102D10009DE29C8392E69D838E83C12CD12C76010B
:102D2000C39404EF11E070E5B72E80910003811188
:102D3000F4C01092380687E390E00097C1F0FC01E0
:102D400053E0F595E7955A95E1F7E750FD4F282FA9
:102D50002770B701A60104C0440F551F661F771FD7
:102D60002A95D2F72081242B20830197E6CFBE013C
:102D70006F5F7F4F81EF93E00E94710E1093D70336
:102D80000093D6030CB406FC24C061E08AE00E94E4
:102D9000290261E08AE00E94DD0161E08BE00E948F
:102DA000290261E08DE00E94290260E08CE00E942F
:102DB000290261E08BE00E94DD0160E08BE00E946F
:102DC000DD0160E08DE00E94DD01BCBC8DB581605D
:102DD0008DBD8AE08093F80261E00E9429020E9482
:102DE000DE034FEF60E08FEF0E94120462E070E0BC
:102DF00080E090E00E94F2020E94E5038DE10E94D3
:102E0000D90380E00E94D903AEB40E94DE03AA2059
:102E100099F370E060E088E00E94500470E060E0A8
:102E20008CE00E9450046FEF7BE08AE00E94500427
:102E300060E07CE084E00E9450046FEF71E186E086
:102E40000E94500466E774E084E10E94F70461EB9D
:102E500088E30E9443046FE370E388E20E94500419
:102E600069EF77EF80E30E94500461E080EC0E94FC
:102E7000430442E362EC80E80E94120462E17CE0D9
:102E800086EC0E94500462E184EC0E9443046CEDE5
:102E900075E08AEC0E9450046091F10384EE0E9478
:102EA00043046091F20385EE0E9443046091F303B2
:102EB00082EE0E9443046091F40383EE0E94430477
:102EC0006091F50380EE0E9443046091F60381EE69
:102ED0000E94430460E071E080E10E94F7048FE10A
:102EE0000E94270440EC6BE180E80E94120444E059
:102EF0006FE180E80E94120482E70E945D04863040
:102F000008F08F5F91E0811101C090E09093000381
:102F100089E292E00E94F30908CF84E991E00E94DF
:102F2000E7098FE392E00E94E70910923806BE019C
:102F3000695F7F4F8FE496E00E949B0E10923606E9
:102F40001092350681E08093370668E271E081E3F4
:102F500096E00E949B0E64E271E08CE296E00E9493
:102F60009B0E60E271E08BE496E00E949B0E0FE402
:102F700016E02BE436E047EF53E0F8019191D901D8
:102F80008D919D018095892BDA018D93AD01B6E07D
:102F9000E335FB0799F78AE592E00E94F309F12CEB
:102FA000F80181918F010E94F509F3E0FF1629F0E5
:102FB0006EE289EA96E00E947001F39424E0F21236
:102FC000EFCF0E949F0980912304883098F435E068
:102FD000839FF0011124E550FC4F23EE30E1318353
:102FE000208328ED30E73383228391E094838F5F41
:102FF0008093230484E991E00E94E7098BE692E044
:103000000E94E70989EA96E00E942E011816190627
:103010000CF054C080911803811150C080911703A7
:1030200081114CC080911603811148C08091150315
:10303000811144C080911403811140C08091130319
:1030400081113CC089EA96E00E940C018AA719A66A
:103050009091120329A53AA5292B8093120381E0B0
:1030600026364FE7340709F080E08093180381E0AB
:1030700028365FE7350709F080E08093170381E089
:103080002B369FE7390709F080E08093160381E033
:103090002C36AFE73A0709F080E08093150381E012
:1030A0002137BFE73B0709F080E08093140381E0FC
:1030B00022373F4709F080E08093130389EA96E0C6
:1030C0000E942E01099724F08091180381116BC092
:1030D00089EA96E00E942E0108970CF0A7C189EAC0
:1030E00096E00E942E0103970CF004C289EA96E054
:1030F0000E942E0108970CF03EC289EA96E00E94D9
:103100002E0103970CF04CC289EA96E00E942E0132
:1031100046970CF4F5C080911303882309F4F0C09E
:103120001092130389EA96E00E940C0180935B07DA
:1031300089EA96E00E940C0180935C0789EA96E098
:103140000E940C0180935D0789EA96E00E940C01C1
:1031500080935E0789EA96E00E940C0180935F07E6
:1031600089EA96E00E940C018093600701E617E06F
:1031700089EA96E00E940C01D8018D938D01B7E099
:1031800001371B07A9F70E94BB100E94240360931C
:103190004B0170934C0180934D0190934E01F0E0F0
:1031A000E0E00995ADC01092180389EA96E00E940C
:1031B0000C01282F22952F7090915D012913A0C03A
:1031C000082F0F7080916101081708F099C089EAF3
:1031D00096E00E940C0180937D0389EA96E00E94AC
:1031E0000C0180937E0389EA96E00E940C017C0129
:1031F00089EA96E00E940C018CA71BA62BA53CA592
:10320000E22AF32A89EA96E00E940C01B70190E0D5
:1032100080E00E9467272DEC3CEC4CEC5DE30E94C3
:103220001E282B013C0189EA96E00E940C016C01EA
:1032300089EA96E00E940C0110E07801EE0CFF1C78
:10324000EE0CFF1CA7014F5B5E4F5A018EA71DA617
:103250008DA59EA5C82AD92AB60190E080E00E94DB
:1032600067272AE037ED43E25CE30E941E28D50180
:103270006D937D938D939C93139789EA96E00E94BA
:103280000C0180FF07C0F701E055FC4F108211824E
:1032900012821382F801EE55FC4F81FDC1C01082ED
:1032A00082FF03C090819E5F9083F801ED59FC4F2F
:1032B00084FB992790F9908391E0282F207285FF55
:1032C00090E090935301F701222309F4ACC0E55C30
:1032D000F94F40825182628273820E94240360937C
:1032E0004B0170934C0180934D0190934E010E94CD
:1032F0002403F701ED5BF94F60837183828393832D
:103300000E9424030091540110915501209156010F
:1033100030915701601B710B820B930B6233710567
:103320008105910508F482C60E942403609354012C
:1033300070935501809356019093570129E133E032
:103340003E8B2D8B48EB53E05CA34BA381E491E0D3
:103350009C8F8B8FA1E2B3E0BC8BAB8BEBE2F3E0F5
:10336000FC87EB8793E2A92E93E0B92E23E333E0A9
:103370003E872D8723E4622E23E0722E4BE353E039
:10338000588F4F8B80EB93E0988B8F87A8EBB3E03F
:10339000BA8BA98B912C812C80916101881519041D
:1033A00011F00CF037C1EBE3F6E0F88FEF8BB3E4EC
:1033B000CB2EB6E0DB2E8F0189E3E82E86E0F82ED7
:1033C00020916101C701895396402817190609F019
:1033D0000CF4C3C20E942403F60181909190A19045
:1033E000B1906F01681979098A099B09603A7F4099
:1033F0008105910570F4BB24B39420E030E0A9016D
:10340000D8016D917D918D919C910E94192818167B
:103410000CF0B12CF701B1927F010C5F1F4FD0CFA0
:1034200091E090833DCFE656FC4F53CF8091170338
:10343000882309F454CE1092170389EA96E00E947B
:103440000C01282F22952F7090915D01291358CFE0
:10345000082F0F7080916101081708F051CF89EA99
:1034600096E00E940C0110E0F801EB5CFE4F8083B7
:1034700089EA96E00E940C01F801E55CFE4F80832A
:1034800089EA96E00E940C01F801EF5CFE4F808310
:1034900089EA96E00E940C01F801E95CFE4F808306
:1034A00089EA96E00E940C01F801E75CFE4F8083F8
:1034B00089EA96E00E940C01F801ED5CFE4F8083E2
:1034C00089EA96E00E940C01F801E856FC4F8083DF
:1034D0000E94240360934B0170934C0180934D0133
:1034E00090934E010E942403000F111F000F111F23
:1034F000F80100CF80911603882309F4F7CD1092CC
:10350000160389EA96E00E940C01F82E80930F03BF
:1035100089EA96E00E940C01182F8093100389EA33
:1035200096E00E940C01082F8093110381E08093A4
:1035300083030E94240360937F037093800380932E
:10354000810390938203FF2079F0602F812F0E94E6
:10355000F10C0E94240360934B0170934C01809303
:103560004D0190934E01CCCE60E080E00E94F10CC2
:1035700010928303EECF80911503882309F4BDCD0B
:103580001092150305E013E089EA96E00E940C0111
:10359000F80181938F01F3E00D301F07A9F7D9CF10
:1035A00080911403882309F4AFCD1092140389EAA3
:1035B00096E00E940C0180935D0189EA96E00E94EA
:1035C0000C018093610189EA96E00E940C0180FF62
:1035D00015C091E090935C0181FF13C091E090933E
:1035E0005E0182FF11C091E090935F0183FF0FC0E5
:1035F00081E0809360010E949310ABCF10925C0138
:10360000EBCF10925E01EDCF10925F01EFCF1092E1
:103610006001F1CF8401000F111F000F111FF8018D
:10362000EB58FC4F80819181A281B381892B8A2B39
:103630008B2B09F4A0C0F89480819181A281B38181
:103640008093710390937203A0937303B0937403F8
:103650001082118212821382F801E759FC4F808197
:103660009181A281B3818093650390936603A093B7
:103670006703B09368037894F401ED59FC4F80819F
:10368000882309F44DC19801255A3C4F3A8F298F60
:10369000D901CD90DD90ED90FC90809171039091D7
:1036A0007203A0917303B0917403C80ED91EEA1E71
:1036B000FB1EF901C082D182E282F3820E942403C0
:1036C00098012D5A3C4F3E8F2D8FD9012D913D9160
:1036D0004D915C911B012C01221A330A440A550AB0
:1036E000F801E55BFC4F2082318242825382B9ECC3
:1036F0002B1631044104510400F10E942403ED8D86
:10370000FE8D6083718382839383A701960160E8B5
:103710007DE88BE590E00E948B28A20191010E9438
:103720009B28D3012D933D934D935C931397E98D83
:10373000FA8D10821182128213820E942403EF8973
:10374000F88D6083718382839383EF85F88980810C
:103750009181A281B3814091710350917203609174
:10376000730370917403840F951FA61FB71F808386
:103770009183A283B3830E942403AF89B88D0D91F6
:103780001D912D913D91B88FAF8B601B710B820BFA
:10379000930B613A7F408105910528F0F301108277
:1037A000118212821382D3010D911D912D913C91B2
:1037B000ED85FE856081718182819381600F711F2B
:1037C000821F931F6083718382839383EB85FC85C3
:1037D000C080D180E280F380C016D106E206F306F5
:1037E00020F40083118322833383F501C080D180CC
:1037F000E280F3800C151D052E053F0520F40083A3
:10380000118322833383EB89FC8920812F5F2193ED
:10381000FC8BEB8B2A30E8F1AB85BC850D911D91BB
:103820002D913C91601B710B820B930BF501008174
:10383000118122813381601B710B820B930B0E94DB
:10384000672720E030E048E454E40E94BF26AD89B9
:10385000BE896D937D938D939C931397ED85FE8523
:103860001082118212821382AB85BC851D921D923B
:103870001D921C92139720E533EC40E050E0D501F7
:103880002D933D934D935C931397EB89FC8931976E
:103890001082EB8DFC8DC190D190E190F190FC8F66
:1038A000EB8F20E030E0A901C701B6010E94192882
:1038B00018160CF04AC0A7019601AD89BE896D911A
:1038C0007D918D919C910E94BF26E989FA89608340
:1038D000718382839383BFEF8B1A9B0AED89FE89E4
:1038E0003496FE8BED8B29893A892C5F3F4F3A8BBA
:1038F000298B4B855C854C5F5F4F5C874B8754E021
:10390000A50EB11C8D859E8504969E878D8794E0BB
:10391000690E711CAF85B8891496B88BAF873CCD02
:1039200020916503309166034091670350916803CD
:1039300060E87DE88BE590E00E949B28D3012D9301
:103940003D934D935C931397F8CEA989BA891D9244
:103950001D921D921C921397BECF809183038823E2
:10396000F1F10E94240300917F03109180032091C4
:10397000810330918203601B710B820B930B6133C7
:1039800075478105910530F01092830360E080E077
:103990000E94F10CECEA2E2EE3E03E2E22EA33E008
:1039A0003E8B2D8BF4E86F2EF3E07F2E59017101D1
:1039B00010E000E0809161018017110609F00CF41D
:1039C00063C0D5018D915D01F30191903F0181307C
:1039D00059F08230D1F1D701CD90DC9041C0609197
:1039E0007E0380917D03D4CFF801EA57FC4F80809D
:1039F000F801E75CF94F80818823A1F0D701CD90D1
:103A0000DC9060916001882DD7FE32C081E06111A9
:103A100080E0682F882D0E94DD01662777276C19CA
:103A20007D0929C06FEF70E0892D0E94650261E079
:103A300080916001811160E0882D0E94DD010F5F9F
:103A40001F4FB2E0EB0EF11CB5CFF801E75CF94F68
:103A5000808170E060E0882371F0F701C080D18040
:103A600060916001F801EA57FC4F8081D7FC07C0E4
:103A70000E94DD01B601892D0E946502E0CF91E030
:103A8000611190E0692FC7CF8091530174EAE72E4E
:103A900073E0F72E10E000E0882309F426C2E8E87E
:103AA000F3E0F88BEF8720E933E03E872D8749E389
:103AB00051E05FA34EA387E391E09A8F898FABE338
:103AC000B1E0BC8FAB8FE5E3F1E0FE8FED8F1C869C
:103AD0001B86809161012B853C858217130609F0B6
:103AE0000CF4A4C2AD89BE891D91BE8BAD8BEF894C
:103AF000F88D81909190A190B190F88FEF8BABA150
:103B0000BCA12D913D914D915D91BCA3ABA3C5018D
:103B1000B4010E944D262B013C01EEA1FFA1219191
:103B2000FFA3EEA32F8FA98DBA8DED91BA8FA98F28
:103B3000E8A7AB8DBC8DED91BC8FAB8FE98BAD8DC4
:103B4000BE8D0D91BE8FAD8FEB85FC85123009F0D7
:103B5000BEC0E75CF94F8081882309F4B3C0EF85CC
:103B6000F889D080E180F2801381A5019401C3011E
:103B7000B2010E94BF264B015C0120E030E0A901A8
:103B80000E94192818160CF095C020E030E048EC8F
:103B900052E4C501B4010E941E284B015C01FF8D57
:103BA0006F2F70E090E080E00E946727A5019401EC
:103BB0000E94BA2687FF56C028A5622F70E090E0C9
:103BC00080E00E946727962EA72EB82EC92E602F60
:103BD00070E090E080E00E94672720E030E04FE74F
:103BE00053E40E94BF26A30192010E941E2820E0F8
:103BF00030E040EA50E40E941E289B01AC016D2D8C
:103C00007E2D8F2D912F0E944E26D62EE72EF82E38
:103C1000192F262F372F482F592F692D7A2D8B2DAD
:103C20009C2D0E94BA2687FF03C0D92C75011C2D3C
:103C30003989632F70E090E080E00E9469272D2D84
:103C40003E2D4F2D512F0E94192818165CF44989DA
:103C5000642F70E090E080E00E946727D62EE72E68
:103C6000F82E192F8D2D9E2DAF2DB12FEF85F889B0
:103C700080839183A283B3836D2D7E2D8F2D912F11
:103C80000E943127D1016D937C93EB85FC853196A1
:103C9000FC87EB872F8538892C5F3F4F388B2F8728
:103CA00032E0230E311C4D855E854C5F5F4F5E8791
:103CB0004D870FCFC501B401905820E030E048ECAB
:103CC00052E469CFD12CE12CF12C10E0CBCFE45D94
:103CD000FE4FFC8BEB8BF081FDA3EB85FC85E8565A
:103CE000FC4F10812DA1211102C01111D4C0EB8510
:103CF000FC85E75CF94F8081882309F4C9C0A501E0
:103D00009401C301B2010E94BF266B017C0120E037
:103D100030E0A9010E941928181624F0F7FAF0944F
:103D2000F7F8F0943F8D632F70E090E080E00E9400
:103D3000692720E030E048EC52E40E94BF26A7014A
:103D400096010E94BA2687FF9AC0EB85FC85EF5C3E
:103D5000FE4FA080EB85FC85ED5CFE4F608170E03E
:103D600090E080E00E94692720E030E048EC52E4D7
:103D70000E94BF266F8F78A389A39AA3A7019601FB
:103D80000E94192887FF64C048A5642F70E090E066
:103D900080E00E9467275B016C01602F70E090E07B
:103DA00080E00E946927A30192010E941E280E94C0
:103DB00031274B017B0177FF04C0EE24FF24E61A74
:103DC000F70AB7010F2C000C880B990B0E9469278A
:103DD000A60195010E94192818162CF4C601B501F8
:103DE0000E9431277B015989A52EB12CAE14BF0446
:103DF0000CF45701181419041CF0B194A194B108E3
:103E00000E942403ED85FE85C080D180E280F3808E
:103E10006C197D098E099F09012F10E030E020E028
:103E2000061717072807390778F40E942403AD8581
:103E3000BE856D937D938D939C9313979DA0B1E068
:103E40009B26EB89FC899082D101AD92BC921DCF5B
:103E50002F8D38A149A15AA1C701B6010E94BF26E2
:103E60006B017C016A2D70E090E080E00E94692780
:103E70009B01AC01C701B6010E941E288CCF0E9495
:103E80002403AD85BE856D937D938D939C9313978D
:103E9000B12CA12CB5CF0E942403AD85BE85CD9059
:103EA000DD90ED90FC90AB01BC014C195D096E09F1
:103EB0007F09B3E01B9FC0011124092E000CAA0B3F
:103EC000BB0B84179507A607B70760F40E9424036D
:103ED000ED85FE856083718382839383E1E0AB8906
:103EE000BC89EC93B12CA12CAFCF809161018017DC
:103EF000110609F00CF49AC00E942403D7018D909A
:103F00009D90AD90BC90681979098A099B09693E1A
:103F100073408105910508F457C00E942403F701FE
:103F200060837183828393836801CC0CDD1CCC0C8D
:103F3000DD1C9601255C394F590120E030E0A901D4
:103F4000D5016D917D918D919C910E94BA26811130
:103F500009C080E090E0A0E8BFE3F5018083918391
:103F6000A283B383F601E656FC4F80809180A28045
:103F7000B380F801EE55FC4F8081823071F5D1019C
:103F80006D917C91072E000C880B990B0E9469277C
:103F9000A50194010E941E280E943127F10171831E
:103FA0006083672B89F420E030E0A901C501B401EA
:103FB0000E941928181644F4F801E55CFE4F808130
:103FC00090E0D1018D939C930F5F1F4FF2E02F0E75
:103FD000311C24E0E20EF11C88CFF1011182108225
:103FE00020E030E040E85FE3C501B4010E94BA265A
:103FF00087FF09C0F801E55CFE4F808190E0919554
:1040000081959109DECF20E030E040E85FE3C50113
:10401000B4010E9419281816BCF6F801E55CFE4FA1
:10402000808190E0F10191838083CECF0E942403B0
:1040300000914F0110915001209151013091520196
:10404000601B710B820B930B693C71058105910517
:1040500008F46FC10E94240360934F0170935001D4
:10406000809351019093520180915C01882309F45F
:1040700092C000EC13E048EB53E05C874B8790EB79
:10408000892E93E0992E21E4222E21E0322E3CEA63
:10409000A32E33E0B32EF12CE12C4FE7C42E5AE0CF
:1040A000D52E809161018E151F0409F00CF441C1D9
:1040B00025E6F8012083C18280915D0130E1839F74
:1040C000C00111248E298283AB85BC856D917D91C1
:1040D0008D919D91BC87AB8720E030E040E251E4B8
:1040E0000E941E282B013C010E943827F80163839F
:1040F000C301B2010E943127D80114967C93149712
:10410000770F660B762F15966C93F4016191719180
:10411000819191914F01D1014D905D906D907D9075
:104120001D010E94672720E030E040E251E40E9438
:104130001E28A30192010E94BF260E943127F80188
:10414000668377838087D5018D919D915D018D9DDB
:10415000202D11242187D89E9001D99E300D112445
:1041600032874FE255E76DE371E084ED97E10E94FD
:104170001F0F8BE0F801AAE5B4E001900D928A953B
:10418000E1F78BE090E00E94D504BFEFEB1AFB0A49
:10419000055F1F4F86CFA8EBCA2EA3E0DA2EB0EB47
:1041A0002B2EB3E03B2E11E4612E11E0712E0CEAB0
:1041B000E02E03E0F02E10E000E08AE0582E80911F
:1041C00061018017110609F00CF4B3C085E690E098
:1041D0000E94FC098BE792E00E94F3098FE790E0D0
:1041E0000E94FC098BE792E00E94F30980915D0137
:1041F00050E1859FC0011124802B0E94F5098BE7B7
:1042000092E00E94F309460120E030E040E251E4F0
:10421000D6016D917D918D919D916D010E941E2819
:104220000E943827862F0E94F5098BE792E00E94B2
:10423000F30920E030E040E251E4F4016081718153
:10424000828193810E941E280E943127872F0E941D
:10425000F5098BE792E00E94F309F601349720E01C
:1042600030E040E251E460817181828193810E945B
:104270001E280E943127770F660B762F862F0E940B
:10428000F5098BE792E00E94F309D1016D917D91D0
:104290008D919D911D01F30181909190A190B1901C
:1042A0003F010E94672720E030E040E251E40E9495
:1042B0001E28A50194010E94BF260E943127872E47
:1042C000982E862F0E94F5098BE792E00E94F30951
:1042D000882D0E94F5098BE792E00E94F309892D51
:1042E0000E94F5098BE792E00E94F309D7018C91B7
:1042F000B2E0EB0EF11C859D802D11240E94F50982
:104300008BE792E00E94F309F70132972081318117
:10431000529EC001539E900D1124892F0E94F509D1
:104320000E949F0989EA96E00E94BD010F5F1F4F1E
:1043300046CF0E94240300914B0110914C01209123
:104340004D0130914E01601B710B820B930B693E46
:10435000734081059105B0F00E94240360934B01E6
:1043600070934C0180934D0190934E0189EA96E041
:104370000E942E01181619062CF489EA96E00E9474
:104380000C01F4CF80915C01813009F03FC16AE0FB
:1043900070E080E090E00E94F2028091DA038823CE
:1043A00079F06091D8037091D9036115710509F016
:1043B0003DC16FEF7BE08CE00E9450041092DA0365
:1043C00089E30E945D04F12CE12C8823D9F16091EE
:1043D000D8037091D90380E00E945004BE016F5F42
:1043E0007F4F86E090E00E94EB0389819A81909351
:1043F000D9038093D8038D819E817C01F0E8EF2260
:10440000FF2487FF13C08B819C810497E090D60323
:10441000F090D70321E0E21AF1088E159F0508F409
:104420007C0160E374E0C7010E94EB03F701E05DEB
:10443000FB4F108281E08093DA0340E46EE180E874
:104440000E94120480913806882369F08091F0035D
:10445000823009F4F4C008F0ECC0882309F477C175
:10446000813009F493C1E114F10409F01EC2809176
:104470003706857029F18091350690913606892B93
:10448000F9F461E184ED0E94430461E082ED0E9451
:1044900043048AEE0E945D0480FDFBCF60E082ED64
:1044A0000E94430489ED0E945D0482FF09C081E3FC
:1044B00096E00E94A30E80913706886080933706AD
:1044C000809135069091360601969093360680933A
:1044D000350680913006813009F06EC08091370634
:1044E00081FF6AC082E08093300680914A018F5F2D
:1044F00080934A01182F1F7186E296E00E94B00057
:1045000066E276E0882309F4CDC184E294E00E945B
:104510000D0F08E000933C0410923D0449E050E088
:1045200064EC70E08EE394E00E942E268CE280938F
:10453000410486E0809347040E94CA031092540409
:10454000109255048BE08093520410935304E6E5D7
:10455000F4E0DF011D920A95E9F78091490180930B
:1045600058048D5F8093490180E680935E0482E069
:1045700080935F04B3E0B0936004109261041092E2
:104580006204109263041092640410926504809394
:10459000660494E0909367048093680486E28093B5
:1045A000690422E040E250E06AE182E30E9477037E
:1045B0008AE390E00E9475048CE296E00E94B000CD
:1045C000882379F080912B0681110BC080912A06F7
:1045D000811107C08CE296E00E94A30E81E08093D7
:1045E0002A0686E296E00E94B000882379F0809146
:1045F000250681110BC080912406811107C086E237
:1046000096E00E94A30E81E08093240680E090E073
:10461000892B11F40C9402180E943A01882311F49A
:104620000C9402180E9400000C9402186150710949
:10463000C2CE833009F456C0843009F014CF65E04F
:10464000C7010E940A05882309F4C9C08091DF03CD
:10465000811108C088E30E945D04682F6E7F88E3A3
:104660000E9443046AE674E08FE496E00E949B0E89
:10467000EAE4F5E09701205D3B4F69018F010E5F91
:104680001F4FB1808081863009F4FBC008F0BEC0A6
:10469000813009F4ECC0833009F4EFC0F801EB0D70
:1046A000F11DEC15FD0550F30E9424036093E8030F
:1046B0007093E9038093EA039093EB0380913106B2
:1046C000882361F0109236061092350681E08093BF
:1046D000370661E376E0CB010E949B0E93E0909356
:1046E000F003C1CE8090EC039090ED03A090EE0318
:1046F000B090EF033FEF83169306A306B30609F4C9
:10470000B2CE0E9424030091E8031091E9032091A6
:10471000EA033091EB03601B710B820B930B68155E
:1047200079058A059B0508F49ECE8FE496E00E94E9
:104730007B0F84E08093F0030E9424036093E403E2
:104740007093E5038093E6039093E7038CCE0E9479
:1047500024036093E0037093E1038093E20390935A
:10476000E303EFE4F6E084E0DF011D928A95E9F7C8
:1047700090E080E00E947B0F88E30E945D04682F38
:10478000616088E30E94430481E0D4CF62E0C70106
:104790000E940A05882319F16AE674E0CE010196A9
:1047A0000E949B0EEAE4F5E0C701805D9B4FBF01CC
:1047B0006E5F7F4F21813081363351F48BED93E072
:1047C0000E949B0ECE0101960E947B0F82E0B2CF29
:1047D000FB01E20FF11DE817F90748F3F3CF0E9440
:1047E00024030091E4031091E5032091E603309146
:1047F000E703601B710B820B930B613177428105DC
:10480000910508F430CE1092F0032DCE8A3331F0AA
:104810008F3F09F449CF833309F040CF1092EC0366
:104820001092ED031092EE031092EF03F801C8010D
:10483000049620E030E0A9016191542F432F322FDC
:104840002227260F311D411D511DE817F907A1F739
:104850002F3F8FEF380748075807B9F42093EC0330
:104860003093ED034093EE035093EF0317CFB8015D
:104870008BE496E00E949B0E11CFB80181E396E095
:10488000F9CFB8018CE296E0F5CFA8EEB3E00E9434
:10489000BD286093EC037093ED038093EE03909337
:1048A000EF03FCCE8AE294E032CEE9E2EE16F104A8
:1048B00008F4ACCE80913C04883009F0A7CE8091FA
:1048C0003D04863009F081C144E050E06FE476E0B9
:1048D00086E594E00E94022A892B09F097CE809108
:1048E0004504813029F586E394E00E94900E1092F1
:1048F000440482E08093450466E474E080E594E03B
:104900000E94710E61EF73E086E494E00E94710EE4
:104910006CE474E086E594E00E949B0E6FE476E020
:104920008CE494E00E949B0E8AE290E00E94750461
:104930008091370683FF0DC010914504123049F471
:104940006AE274E081E396E00E94790E811110938F
:10495000370680912B06811111C080912A06882389
:1049600069F064E274E08CE296E00E94790E88239C
:1049700029F081E080932B0610922A06809125066B
:10498000811144CE80912406882309F43FCE64E24D
:1049900074E086E296E00E94790E882309F436CE10
:1049A00081E0809325061092240630CE9091230456
:1049B000911122C0F6E3EF16F10408F427CE00911E
:1049C0004704063009F022CE809154048B3009F060
:1049D000ABC044E050E066E276E08AE494E00E94F6
:1049E000022A892B09F012CE10915F0412FF51C0E8
:1049F00085E0809330060ACE8131E1F63BEFC32E8D
:104A000033E0D32EB12CA12C20E0809123048A1511
:104A10001B04D9F1D4F1D60112963C91129713964A
:104A20009C911397809154049FA718AAEFA5F8A909
:104A30008E171F0619F58091550483131FC0149615
:104A40009C9014979920D1F00091560410E0102FFB
:104A50000027209157042850330B020F131F409159
:104A6000520450915304542745275427ED91FC914B
:104A70002AE534E06AE474E00995292DFFEFAF1AC6
:104A8000BF0A35E0C30ED11CC0CF222309F492CF58
:104A9000BDCD0E94310320913006223089F5212FAF
:104AA00020711271123101F560E090E080E00E9407
:104AB000E90E88E180935F0443E040933006109252
:104AC000400488E2809341040E94CA031092620469
:104AD0001092630422E04CE150E06AE182E30E941C
:104AE000770386E390E0B7C031E03093300601965B
:104AF000222311F090E080E064E00E94E90E86CD70
:104B0000253009F483CD10FF0AC0233009F47ECD8F
:104B100069E001960E94E90E0093300677CD60E0CF
:104B2000009709F473CDE9CF811170CD80915504C0
:104B3000803509F06BCD10915F0411FF39C01092E0
:104B400040048CE2809341040E94D70E82E180935E
:104B50005F0460E081E090E00E944C0310925604F4
:104B6000109257048091490180935804109259047F
:104B70008D5F8093490182E08093660484E0809396
:104B8000670485E0809368041092690490E690932E
:104B90005E048093600488E78093610422E040E231
:104BA00050E06AE182E30E9477038AE390E053C019
:104BB00014FF2CCD0E943103892B09F027CD10FF63
:104BC00025CD60E090E080E098CF59E2E516F10451
:104BD00009F41CCD81111ACD80913E04853409F071
:104BE00015CD44E050E06FE476E08EE494E00E945E
:104BF000022A892BA9F044E050E067EF73E08EE4CD
:104C000094E00E94022A892B59F044E050E068E6C3
:104C100071E08EE494E00E94022A892B09F0F6CC20
:104C200080914704813009F0C1CE909152049830B0
:104C300009F0BCCE0E94D70E109252048091540409
:104C4000883F28F0909155049F5F90935504885FAA
:104C500080935404C7010E947504D8CCFB01DC0189
:104C600002C005900D9241505040D8F70895F9992F
:104C7000FECF92BD81BDF89A992780B50895262F61
:104C8000F999FECF1FBA92BD81BD20BD0FB6F89431
:104C9000FA9AF99A0FBE019608955058BB27AA2791
:104CA0000E9465260C94DF270E94D12738F00E94CD
:104CB000D82720F039F49F3F19F426F40C94CE271E
:104CC0000EF4E095E7FB0C94C827E92F0E94F0272B
:104CD00058F3BA17620773078407950720F079F431
:104CE000A6F50C9412280EF4E0950B2EBA2FA02DE9
:104CF0000B01B90190010C01CA01A0011124FF2789
:104D0000591B99F0593F50F4503E68F11A16F04083
:104D1000A22F232F342F4427585FF3CF4695379582
:104D20002795A795F0405395C9F77EF41F16BA0B47
:104D3000620B730B840BBAF09150A1F0FF0FBB1FF5
:104D4000661F771F881FC2F70EC0BA0F621F731F3E
:104D5000841F48F4879577956795B795F7959E3F9B
:104D600008F0B0CF9395880F08F09927EE0F97952C
:104D7000879508950E94A42708F481E008950E9471
:104D8000D3260C94DF270E94D82758F00E94D12701
:104D900040F029F45F3F29F00C94C82751110C947E
:104DA00013280C94CE270E94F02768F39923B1F3BF
:104DB000552391F3951B550BBB27AA276217730741
:104DC000840738F09F5F5F4F220F331F441FAA1FD5
:104DD000A9F335D00E2E3AF0E0E832D09150504091
:104DE000E695001CCAF72BD0FE2F29D0660F771F3F
:104DF000881FBB1F261737074807AB07B0E809F025
:104E0000BB0B802DBF01FF2793585F4F3AF09E3FA9
:104E1000510578F00C94C8270C9413285F3FE4F3F5
:104E2000983ED4F3869577956795B795F7959F5FEC
:104E3000C9F7880F911D9695879597F90895E1E038
:104E4000660F771F881FBB1F621773078407BA0797
:104E500020F0621B730B840BBA0BEE1F88F7E095F2
:104E600008950E9438276894B1110C94132808956E
:104E70000E94F82788F09F5798F0B92F9927B751CB
:104E8000B0F0E1F0660F771F881F991F1AF0BA95EE
:104E9000C9F714C0B13091F00E941228B1E0089512
:104EA0000C941228672F782F8827B85F39F0B93F04
:104EB000CCF3869577956795B395D9F73EF49095A1
:104EC0008095709561957F4F8F4F9F4F0895E8941F
:104ED00009C097FB3EF490958095709561957F4F42
:104EE0008F4F9F4F9923A9F0F92F96E9BB279395F0
:104EF000F695879577956795B795F111F8CFFAF400
:104F0000BB0F11F460FF1BC06F5F7F4F8F4F9F4F30
:104F100016C0882311F096E911C0772321F09EE88E
:104F2000872F762F05C0662371F096E8862F70E0F4
:104F300060E02AF09A95660F771F881FDAF7880FCE
:104F40009695879597F90895990F0008550FAA0B24
:104F5000E0E8FEEF16161706E807F907C0F012168C
:104F60001306E407F50798F0621B730B840B950B8F
:104F700039F40A2661F0232B242B252B21F40895E4
:104F80000A2609F4A140A6958FEF811D811D089581
:104F900097F99F6780E870E060E008959FEF80ECEC
:104FA000089500240A94161617061806090608958F
:104FB00000240A9412161306140605060895092EF5
:104FC0000394000C11F4882352F0BB0F40F4BF2B64
:104FD00011F460FF04C06F5F7F4F8F4F9F4F0895A4
:104FE00057FD9058440F551F59F05F3F71F047959A
:104FF000880F97FB991F61F09F3F79F0879508957F
:10500000121613061406551FF2CF4695F1DF08C09D
:10501000161617061806991FF1CF869571056105BA
:1050200008940895E894BB2766277727CB0197F962
:1050300008950E94A42708F48FEF08950E94312854
:105040000C94DF270E94D12738F00E94D82720F047
:10505000952311F00C94C8270C94CE2711240C949E
:1050600013280E94F02770F3959FC1F3950F50E02D
:10507000551F629FF001729FBB27F00DB11D639F0A
:10508000AA27F00DB11DAA1F649F6627B00DA11DB0
:10509000661F829F2227B00DA11D621F739FB00D56
:1050A000A11D621F839FA00D611D221F749F3327C6
:1050B000A00D611D231F849F600D211D822F762F5F
:1050C0006A2F11249F5750409AF0F1F088234AF03C
:1050D000EE0FFF1FBB1F661F771F881F91505040A8
:1050E000A9F79E3F510580F00C94C8270C94132813
:1050F0005F3FE4F3983ED4F3869577956795B7952F
:10510000F795E7959F5FC1F7FE2B880F911D969548
:10511000879597F90895DB018F939F930E94BD288F
:10512000BF91AF91A29F800D911DA39F900DB29F43
:10513000900D11240895A1E21A2EAA1BBB1BFD019C
:105140000DC0AA1FBB1FEE1FFF1FA217B307E40766
:10515000F50720F0A21BB30BE40BF50B661F771FBE
:10516000881F991F1A9469F760957095809590959E
:105170009B01AC01BD01CF0108950E94CE28A59FDF
:10518000900DB49F900DA49F800D911D1124089542
:10519000EE0FFF1F0590F491E02D0994A29FB0013E
:1051A000B39FC001A39F700D811D1124911DB29F5B
:1051B000700D811D1124911D08950F931F93CF939E
:1051C000DF938230910510F482E090E0E091730764
:1051D000F091740730E020E0B0E0A0E0309799F45F
:1051E0002115310509F44AC0281B390B243031053B
:1051F000D8F58A819B816115710589F1FB01938343
:105200008283FE0111C040815181028113814817C0
:105210005907E0F04817590799F4109761F0129672
:105220000C93129713961C933296CF01DF91CF9176
:105230001F910F9108950093730710937407F4CF93
:105240002115310551F04217530738F0A901DB0150
:105250009A01BD01DF01F801C1CFEF01F9CF9093B1
:10526000740780937307CDCFFE01E20FF31F819384
:1052700091932250310939832883D7CF2091710728
:1052800030917207232B41F4209164013091650124
:10529000309372072093710720916201309163016E
:1052A0002115310541F42DB73EB74091660150916B
:1052B0006701241B350BE0917107F0917207E2172B
:1052C000F307A0F42E1B3F0B2817390778F0AC0129
:1052D0004E5F5F4F2417350748F04E0F5F1F509306
:1052E000720740937107819391939FCFF0E0E0E0C4
:1052F0009CCFCF93DF930097E9F0FC0132971382A4
:105300001282A0917307B0917407ED0130E020E0A4
:105310001097A1F420813181820F931F2091710792
:10532000309172072817390709F061C0F0937207AE
:10533000E0937107DF91CF910895EA01CE17DF075F
:10534000E8F54A815B819E0141155105B1F7E901FC
:10535000FB83EA8349915991C40FD51FEC17FD07D0
:1053600061F4808191810296840F951FE9019983F0
:105370008883828193819B838A83F0E0E0E01296A8
:105380008D919C9113970097B9F52D913C911197B0
:10539000CD010296820F931F209171073091720701
:1053A0002817390739F6309751F510927407109283
:1053B0007307B0937207A0937107BCCFD383C283E6
:1053C00040815181840F951FC817D90761F44E5F42
:1053D0005F4F88819981480F591F518340838A818B
:1053E0009B81938382832115310509F0B0CFF0931F
:1053F0007407E09373079ECFFD01DC01C0CF1382D9
:105400001282D7CFFB01DC0104C08D91019080197D
:1054100021F441505040C8F7881B990B0895F89427
:02542000FFCFBC
:1054220041726475696E6F2D454E4332386A36306B
:105432002D303000000000000000000000000000DD
:10544200FFFFFF0008080808C0A8050101010101CB
:1054520001646414141414FFFF03033232C0A8055C
:10546200FF0000803F0000803F0A01E8030000C8FF
:105472000000000132000000300330030000010090
:105482000001000075078000FFFFFFFFFFFF000023
:1054920000007001D000FD00BD012E010C012001B1
:1054A20000000000360709076507DF060207EF065E
:1054B200E0060D0A0052436E616E6F20203A2020F2
:1054C20031362D4170722D32303232004D6F64759B
:1054D2006C652049443A20005573696E67207365F4
:1054E2007269616C2F75736220636F6D6D2E00554A
:1054F20073696E672065746865726E657420636F88
:105502006D6D2E005573696E67204D4350323330F6
:10551200313720666F722072656C6179732E005587
:1055220073696E67204E616E6F2070696E732066BC
:105532006F722072656C6179732E004D4350323365
:1055420030313720466F756E642E004D4350323332
:10555200303137206E6F7420666F756E642E004591
:10556200746865726E657420636F6E74726F6C6CB2
:10557200657220666F756E642E0049502041646426
:10558200726573733A20202020200046696E697389
:0E5592006865642053657475702E002C00004F
:00000001FF
