:100000000C94AE000C94CC170C94A5170C94D6004D
:100010000C94D6000C94D6000C94D6000C94D60008
:100020000C94D6000C94D6000C94D6000C94D600F8
:100030000C94D6000C94D6000C94D6000C94D600E8
:100040000C945B170C94D6000C9429170C9403178E
:100050000C94D6000C94D6000C94D6000C94D600C8
:100060000C94F3170C94D60007634236B79BD8A7BD
:100070001A39685618AEBAAB558C1D3CB7CC5763CD
:10008000BD6DEDFD753EF6177231BF000000803F7B
:1000900008000000BE922449123EABAAAA2ABECD97
:1000A000CCCC4C3E00000080BEABAAAAAA3E000009
:1000B0000000BF000000803F000000000008417801
:1000C000D3BB4387D1133D190E3CC3BD4282AD2B38
:1000D0003E68EC8276BED98FE1A93E4C80EFFFBE30
:1000E00001C4FF7F3F0000000000638253630001F2
:1000F00008000604000100000000250028002B0075
:1001000000000000240027002A0000000000230057
:100110002600290004040404040404040202020268
:1001200002020303030303030102040810204080BA
:100130000102040810200102040810200000000839
:10014000000201000003040700000000000000009E
:1001500045000082000040002000121911241FBE3B
:10016000CFEFD8E0DEBFCDBF13E0A0E0B1E0E4E424
:10017000F5E602C005900D92A639B107D9F727E040
:10018000A6E9B3E001C01D92A63BB207E1F710E07B
:10019000CEEAD0E004C02197FE010E945931CD3A49
:1001A000D107C9F70E9471190C94A0320C94000079
:1001B000CF93DF932091E1062223C1F0FC0120813F
:1001C0002223A1F0C1EED6E0ADEDB6E09C012C5F9C
:1001D0003F4F899141919D918427892339F4E217FA
:1001E000F307B9F781E0DF91CF91089580E0FBCF6D
:1001F000089508958230C8F4E82FF0E0EE0FFF1F55
:10020000E15CFE4F71836083813041F08091690031
:100210008C7F826080936900E89A089580916900DC
:10022000837F886080936900E99A0895AF92BF92B6
:10023000CF92DF92EF92FF920F931F93CF93DF93B2
:100240006C017B018B01040F151FEB015E01AE18E1
:10025000BF08C017D10759F06991D601ED91FC9103
:100260000190F081E02DC6010995892B79F7C50130
:10027000DF91CF911F910F91FF90EF90DF90CF9082
:10028000BF90AF900895FC01538D448D252F30E031
:10029000842F90E0821B930B541710F0CF96089593
:1002A00001970895FC01918D828D981761F0A28DC0
:1002B000AE0FBF2FB11D5D968C91928D9F5F9F7386
:1002C000928F90E008958FEF9FEF0895FC01918D3C
:1002D000828D981731F0828DE80FF11D858D90E0A9
:1002E00008958FEF9FEF0895FC01918D228D892F46
:1002F00090E0805C9F4F821B91098F73992708952E
:1003000085EE96E00E94740121E0892B09F420E03B
:10031000822F089580E090E0892B29F00E948001CF
:1003200081110C9400000895FC01A48DA80FB92F31
:10033000B11DA35ABF4F2C91848D90E001968F730D
:100340009927848FA689B7892C93A089B1898C912C
:10035000837080648C93938D848D981306C002887B
:10036000F389E02D80818F7D80830895EF92FF9245
:100370000F931F93CF93DF93EC0181E0888F9B8DC8
:100380008C8D98131AC0E889F989808185FF15C082
:100390009FB7F894EE89FF896083E889F9898081A5
:1003A0008370806480839FBF81E090E0DF91CF9174
:1003B0001F910F91FF90EF900895F62E0B8D10E096
:1003C0000F5F1F4F0F731127E02E8C8D8E110CC005
:1003D0000FB607FCFACFE889F989808185FFF5CF50
:1003E000CE010E949401F1CFEB8DEC0FFD2FF11D9A
:1003F000E35AFF4FF0829FB7F8940B8FEA89FB898D
:1004000080818062CFCFCF93DF93EC01888D8823EA
:10041000B9F0AA89BB89E889F9898C9185FD03C067
:10042000808186FD0DC00FB607FCF7CF8C9185FF4C
:10043000F2CF808185FFEDCFCE010E949401E9CFFC
:10044000DF91CF910895833081F028F4813099F0C5
:100450008230A9F008958730A9F08830C9F084303F
:10046000B1F4809180008F7D03C0809180008F77F0
:1004700080938000089584B58F7784BD089584B5F6
:100480008F7DFBCF8091B0008F778093B00008956F
:100490008091B0008F7DF9CF1F93CF93DF93282FEA
:1004A00030E0F901E45CFE4F8491F901E85DFE4F14
:1004B000D491F901EC5EFE4FC491CC23A9F0162F24
:1004C00081110E942302EC2FF0E0EE0FFF1FEA5093
:1004D000FF4FA591B4918FB7F894EC91111108C01A
:1004E000D095DE23DC938FBFDF91CF911F910895CC
:1004F000DE2BF8CFCF93DF9390E0FC01E85DFE4F59
:1005000024918C5E9E4FFC0184918823C9F090E079
:10051000880F991FFC01E050FF4FA591B491FC0199
:10052000EA50FF4FC591D49161110DC09FB7F89467
:100530008C91209582238C938881282328839FBFC8
:10054000DF91CF910895623051F49FB7F8943C91B8
:10055000822F809583238C93E8812E2BEFCF8FB74A
:10056000F894EC912E2B2C938FBFEACF1F93CF934F
:10057000DF93182FEB0161E00E947A02209739F493
:1005800060E0812FDF91CF911F910C944C02CF3FFF
:10059000D10511F461E0F5CFE12FF0E0E45CFE4F0E
:1005A000E491E33031F140F4E130B1F0E230E1F0D8
:1005B000C038D1057CF7E4CFE73029F1E83059F1B4
:1005C000E430B1F780918000806280938000D09306
:1005D0008B00C0938A0004C084B5806884BDC7BD09
:1005E000DF91CF911F91089584B5806284BDC8BD0D
:1005F000F7CF80918000806880938000D09389003D
:10060000C0938800EDCF8091B00080688093B000E7
:10061000C093B300E5CF8091B00080628093B000BA
:10062000C093B400DDCF8230910538F0880F991F58
:10063000880F991F05970197F1F708953FB7F89430
:1006400080911E0490911F04A0912004B091210478
:1006500026B5A89B05C02F3F19F00196A11DB11D1D
:100660003FBFBA2FA92F982F8827BC01CD01620F59
:10067000711D811D911D42E0660F771F881F991F14
:100680004A95D1F708954F925F926F927F928F9221
:100690009F92AF92BF92CF92DF92EF92FF920E9411
:1006A0001E034B015C018091A0039091A103A091D6
:1006B000A203B091A30375016401C81AD90AEA0A1A
:1006C000FB0A81E8C81684E8D8068EE1E806F10442
:1006D00008F44CC01092A6031092A7031092A8032E
:1006E0001092A90390E080E0209100013091010177
:1006F000821793076CF4FC01EE0FFF1FEE0FFF1F34
:10070000E258FB4F10821182128213820196ECCFC5
:100710001092A4031092DF041092DE048092A003D2
:100720009092A103A092A203B092A303809120050E
:1007300090912105A0912205B09123050196A11D5C
:10074000B11D8093200590932105A0932205B093BD
:100750002305FF90EF90DF90CF90BF90AF909F90D8
:100760008F907F906F905F904F90089540915506C5
:1007700028EE33E0429FC001439F900D1124092EC3
:10078000000CAA0BBB0B8C159D05AE05BF0508F729
:100790008091A6039091A703A091A803B091A9030B
:1007A000892B8A2B8B2B41F4C092A603D092A703EE
:1007B000E092A803F092A903C701B6010E94AC2DF4
:1007C0002B013C016091A6037091A7038091A803BF
:1007D0009091A9030E94AC2D20E030E040E250E46B
:1007E0000E94632E9B01AC01C301B2010E945E2EE8
:1007F000181624F56091A6037091A7038091A803B1
:100800009091A9030E94AC2D20E030E040E05FE32E
:100810000E94632E6B017C0120E030E040E05FE34A
:10082000C301B2010E94632E9B01AC01C701B60156
:100830000E94932C0E947D2D6B017C01C0921805B3
:10084000D0921905E0921A05F0921B05E091A403DD
:1008500084E0E89FF0011124E258FB4FC082D1826E
:10086000E282F3826091DE047091DF044091000126
:10087000509101012091DE043091DF0481E090E08D
:100880006417750714F090E080E0820F931F909337
:10089000DF048093DE048091A403882381F1E0913A
:1008A000A403E150FF0BEE0FFF1FEE0FFF1FE258F6
:1008B000FB4F80819181A281B3818C0D9D1DAE1D66
:1008C000BF1D6C017D01F694E794D794C794C09244
:1008D000A603D092A703E092A803F092A903809107
:1008E000A4038F5F8093A403209100013091010144
:1008F000821713060CF412CF1092A4030FCFE091CD
:100900000001F0910101EE0FFF1FEE0FFF1FE658EF
:10091000FB4FCFCF4F925F926F927F928F929F92B9
:10092000AF92BF92CF92DF92EF92FF920E941E038E
:100930004B015C018091AE039091AF03A091B00395
:10094000B091B10375016401C81AD90AEA0AFB0A19
:1009500081E8C81684E8D8068EE1E806F10408F4B8
:100960004CC01092AA031092AB031092AC031092E9
:10097000AD0390E080E020910001309101018217E9
:1009800093076CF4FC01EE0FFF1FEE0FFF1FE25503
:10099000FB4F10821182128213820196ECCF1092CB
:1009A000A5031092E1041092E0048092AE039092AD
:1009B000AF03A092B003B092B1038091240590914F
:1009C0002505A0912605B09127050196A11DB11D11
:1009D0008093240590932505A0932605B0932705C1
:1009E000FF90EF90DF90CF90BF90AF909F908F904F
:1009F0007F906F905F904F9008954091860628EE0B
:100A000033E0429FC001439F900D1124092E000C3A
:100A1000AA0BBB0B8C159D05AE05BF0508F7809191
:100A2000AA039091AB03A091AC03B091AD03892BC5
:100A30008A2B8B2B41F4C092AA03D092AB03E09295
:100A4000AC03F092AD03C701B6010E94AC2D2B019F
:100A50003C016091AA037091AB038091AC0390912B
:100A6000AD030E94AC2D20E030E040E250E40E9453
:100A7000632E9B01AC01C301B2010E945E2E1816C9
:100A800024F56091AA037091AB038091AC0390911F
:100A9000AD030E94AC2D20E030E040E05FE30E9417
:100AA000632E6B017C0120E030E040E05FE3C30196
:100AB000B2010E94632E9B01AC01C701B6010E94E6
:100AC000932C0E947D2D6B017C01C0921C05D0925D
:100AD0001D05E0921E05F0921F05E091A50384E03C
:100AE000E89FF0011124E255FB4FC082D182E282DF
:100AF000F3826091E0047091E10440910001509113
:100B000001012091E0043091E10481E090E064175C
:100B1000750714F090E080E0820F931F9093E1043A
:100B20008093E0048091A503882371F1E091A503EF
:100B300084E0E89FF0011124E655FB4F808191810C
:100B4000A281B3818C0D9D1DAE1DBF1D6C017D0169
:100B5000F694E794D794C794C092AA03D092AB03BB
:100B6000E092AC03F092AD038091A5038F5F809378
:100B7000A5032091000130910101821713060CF4A6
:100B800014CF1092A50311CFE0910001F091010163
:100B9000EE0FFF1FEE0FFF1FCFCF8F929F92AF92EE
:100BA000BF92CF92DF92EF92FF924B015C010E94C5
:100BB0001E036B017C010E941E036C197D098E09C6
:100BC0009F09683E734081059105A8F321E0821AD0
:100BD0009108A108B10888EEC80E83E0D81EE11C78
:100BE000F11C81149104A104B10429F7FF90EF9046
:100BF000DF90CF90BF90AF909F908F9008952FB7C8
:100C0000F89460911A0470911B0480911C049091D7
:100C10001D042FBF08950895809193059091940528
:100C200098278927982744972091B10530E044E020
:100C3000359527954A95E1F7220F331F220F331F71
:100C4000821B930B97FF02C090E080E008952091F3
:100C5000A7053091A5053093A7052093A505209100
:100C6000A8053091A6053093A8052093A605E3E8D2
:100C7000F5E021A5820F911D25A585A7662381F0AA
:100C800021A7892F9927319725E0EF37F20789F7B8
:100C90001092B5051092B60580E58093B1050895D0
:100CA00011A6EFCF0F931F93CF93DF9370E06D5793
:100CB0007A4F8A01075F1F4F213029F0223031F42B
:100CC0008A010250110930E020E003C000E010E08A
:100CD0009801EB01FA01E230F10558F0A991B991C0
:100CE000BA27AB27BA270A0F1B1F211D311D3297C8
:100CF000F2CFFA01EE7F6E0F7F1F4E175F0769F08C
:100D0000FB01408150E070E060E0762F652F542FAA
:100D10004427040F151F261F371FA90166277727B1
:100D2000411551056105710519F022273327F1CFCF
:100D300000951095E82FF0E0ED57FA4F10830183EE
:100D4000DF91CF911F910F910895E3E8F5E0108EA8
:100D5000118E80E4848B158A868B20E044E150E07C
:100D60006EE088E10C9452068EBD0DB407FEFDCFF7
:100D7000089561E0809125040E944C0278940895C2
:100D8000F89460E0809125040C944C020F931F931B
:100D9000CF93DF93EC018B010E94C0062097B9F03E
:100DA0008AE30E94B4061EBCF801CE01019739F017
:100DB0000DB407FEFDCF2EB51EBC2193F7CF2197B2
:100DC000C00FD11F0DB407FEFDCF8EB58883DF9114
:100DD000CF911F910F910C94B9061F93CF93DF937E
:100DE000182FC62FD42F0E94C0068C2F8F71812BF5
:100DF0000E94B4068D2F0E94B406DF91CF911F91FF
:100E00000C94B906CF93C82FC076809118048C1724
:100E100099F043E06FE180EA0E94ED06C093180468
:100E20004C2F50E085E0559547958A95E1F76FE1A5
:100E300080E8CF910C94ED06CF910895CF93DF9386
:100E4000C82FD62F0E9402074D2F6C2F80E4DF9110
:100E5000CF910C94ED06CF93DF93C82FD72F0E942C
:100E60001E076D2F81E08C0FDF91CF910C941E0730
:100E7000CF93C82F0E9402070E94C0068C2F8F714B
:100E80000E94B40680E00E94B406C7FF03C080E061
:100E90000E94B406CEB50E94B9068C2FCF9108955A
:100EA00061E184ED0E941E0761E082ED0E941E0751
:100EB0008AEE0E94380780FDFBCF60E082ED0E9441
:100EC0001E0789ED0E94380790E00895CF93DF93C5
:100ED000EC0140E86FE180E80E94ED0640E86FE138
:100EE00080EA0E94ED064AE06CE180EA0E94ED068D
:100EF00060E07CE082E00E942B07BE01745F86E028
:100F00000E942B0740E060E08AE70E94ED060E9405
:100F1000C0062097B1F08AE70E94B406809183054D
:100F20008EBDE4E8F5E0CD57DA4FEC17FD0731F060
:100F300081910DB407FEFDCF8EBDF7CF0DB407FE36
:100F4000FDCF0E94B90648E06FE180E80E94ED06FF
:100F5000D0E0C0E08CE10E9438078A7029F4219625
:100F6000C83E83E0D807B1F78CE10E94380781FDC5
:100F700003C0C83ED34039F448E06FE180EADF9116
:100F8000CF910C94ED06DF91CF9108950F931F93AD
:100F9000CF93DF93EC0103E815E04C96F801908BBA
:100FA000818B0E94A506CE010896F80196A387A31F
:100FB000AE01405F5F4F21E06AE188E20E94520685
:100FC000CE018A96DF91CF911F910F910C94660705
:100FD000CF93DF93EB01682F84ED0E941E07BE01C3
:100FE00086ED0E942B078AEE0E94380780FDFBCF1A
:100FF000DF91CF910895CF92DF92EF92FF920F93FE
:101000001F938634910568F12091A605233449F594
:10101000C090B105D090B205E090B305F090B40552
:101020000091330510913405209135053091360536
:10103000C016D106E206F306A1F4EDE9F6E08D57FD
:101040009A4F9F012E5F3F4F41815081553319F4D4
:101050005281651771F0F901E40FF11DE817F907E6
:1010600080F380E01F910F91FF90EF90DF90CF9081
:10107000089581E0F7CFE0911604F09117049F01E5
:101080002F5F3F4F309317042093160480830895F9
:10109000FF920F931F93CF93DF93162FF42E052FFC
:1010A0000E943B08812F0E943B08CF2DD02F11506A
:1010B00020F089910E943B08FACFDF91CF911F91D8
:1010C0000F91FF9008952091F303260F3327331FCC
:1010D00021323105ECF42091B306FC0190E080E070
:1010E000243069F082E00895A091F3032191AC01CE
:1010F0004D525C4FA40FB52FB11D2C93019686174E
:1011000098F38091F303680F6093F30380E00895F0
:1011100081E008951092B30681E08093B2061092A8
:101120008D0661E082E10E944C0261E083E10E9451
:101130004C02E9EBF0E080818E7F808380818D7F9F
:10114000808388E48093B80085E48093BC00089590
:1011500010928C0610928B061092BA061092DC0642
:101160000E948A0888EF90E090938A06809389060F
:1011700089EF90E090938806809387060895CF9337
:10118000DF9391E09093D2038823B9F0C091B80027
:10119000D091BA008091BC008A7B8093BC0060E053
:1011A00082E10E944C0260E083E10E944C020E94B6
:1011B0008A08D093BA00C093B800DF91CF91089508
:1011C0008F929F92AF92BF92CF92DF92EF92FF9257
:1011D0000F931F93CF93DF93D091DC06D13208F0A9
:1011E000D7C0182FC091DB060E941E036B017C0143
:1011F0008091B30681116BC082E08093B306109397
:10120000B2068FEF8093B1061092B006D093AF066E
:10121000ABEBB6E0EFE8F6E080E0D81391C01092B7
:101220008E0680918E06CC0FC82BC0938E068091BF
:101230008D06813009F088C010928D060E941E0331
:101240006B017C0180918E068093BB008091B50676
:101250009091B606A091B706B091B806892B8A2B5B
:101260008B2BA1F00E941E030091B5061091B606CB
:101270002091B7063091B8066C197D098E099F0937
:10128000061717072807390708F442C08091BC00E9
:1012900083FDD8CF85EC8093BC000E941E036B01B8
:1012A0007C018091B306823009F450C08091B10670
:1012B0008F3F09F46FC08091B106803209F46CC091
:1012C0008091B106803309F469C084E026C0809122
:1012D000B5069091B606A091B706B091B806892BD5
:1012E0008A2B8B2B09F484CF0E941E038090B506B5
:1012F0009090B606A090B706B090B8066C197D091C
:101300008E099F0986169706A806B90608F070CFC1
:101310008091B4060E94BF0885E01092BA06109230
:10132000DC061092B906DF91CF911F910F91FF90CB
:10133000EF90DF90CF90BF90AF909F908F900895E7
:101340009D9191938F5F69CF85EEA5CF8091B50672
:101350009091B606A091B706B091B806892B8A2B5A
:101360008B2B09F49ECF0E941E030091B5061091AD
:10137000B6062091B7063091B8066C197D098E0922
:101380009F09061717072807390708F08ACFC0CF2B
:1013900081E0C3CF80E0C1CF82E0BFCF83E0BDCF8B
:1013A000CF93DF93EA01A0914301B091440191E012
:1013B0009093B9068093DB061092BA061092DC0671
:1013C000ED91FC9111970190F081E02DCD010995EF
:1013D0008091430190914401DC01ED91FC910190D9
:1013E000F081E02D6881099580914301909144013D
:1013F000DC01ED91FC910190F081E02D698109956E
:1014000081E00E94E008982F80934E0181E09111C5
:1014100080E0DF91CF9108954091480150914901BA
:1014200021E030E0F90102C0EE0FFF1F8A95E2F7DC
:10143000CF01613069F4842B952B909349018093FF
:10144000480148E451E062E0809145010C94D009E4
:101450008095909584239523F0CF0895E0918C0694
:1014600080918B06E81730F4F0E0EE54FC4F808159
:1014700090E008958FEF9FEF089590918C068091F2
:101480008B062FEF3FEF981748F4E92FF0E0EE546A
:10149000FC4F208130E09F5F90938C06C901089536
:1014A00080918B0690918C06891B990B0895CF92A1
:1014B000DF92EF92FF920F931F93CF93DF937C0104
:1014C000CB018A012091B906222389F0EB016B013F
:1014D000C40ED51ECC15DD0569F06991D701ED91DB
:1014E000FC910190F081E02DC7010995F3CF642FA5
:1014F0000E946308C801DF91CF911F910F91FF9067
:10150000EF90DF90CF900895CF93DF931F92CDB7E8
:10151000DEB769832091B9062223F9F02091DC0619
:10152000203258F021E030E0FC013383228390E048
:1015300080E00F90DF91CF9108958091BA06E82F57
:10154000F0E0E554F94F998190838F5F8093BA065C
:101550008093DC0681E090E0ECCF61E0CE01019663
:101560000E946308F7CF90E080E00895FC01838536
:101570008F3F19F061E00C944C020895FC018081CA
:101580009181892B39F0A281B3819C9111968C9124
:101590009CBD8DBD83858F3F19F060E00C944C029B
:1015A0000895AF92BF92CF92DF92EF92FF920F9386
:1015B0001F93CF93DF93EC0188819981892B89F068
:1015C0006EBD0DB407FEFDCFBEB48B2DDF91CF9164
:1015D0001F910F91FF90EF90DF90CF90BF90AF9051
:1015E00008958885998511E0892B09F010E8AA24CF
:1015F000A394862F812309F0A12C062F2C813D81F5
:101600004E815F8160E271EA87E090E00E94553090
:10161000F22EB02EE12CC22ED12CFF2019F0C601E3
:101620000E9413038A85877F09F042C08D858F3F12
:1016300089F0902F912381E009F480E08A1551F020
:10164000EF85F8898F89992369F19081892B8083AF
:10165000AA24A394E989FA898081998D892B8083B2
:10166000FF2019F0C6010E9413038E858F3F39F0C9
:10167000EB89FC898081988D892309F0E12AE98929
:10168000FA899081898D8095892380838E858F3F0B
:1016900009F0BE2C88859985892BB9F5110F111198
:1016A000BCCF93CF9081809589238083A12CD2CF0A
:1016B000E989FA898081998D892B8083FF2019F02F
:1016C000C6010E9413038D858F3F49F0EF85F8898D
:1016D0008F89902F9123A9F09081892B8083E989AC
:1016E000FA899081898D8095892380838E858F3FAB
:1016F00069F2EB89FC898081988D892339F2E12A8E
:10170000C5CF908180958923E9CF1695C8CF8F9258
:101710009F92AF92BF92CF92DF92EF92FF920F9380
:101720001F93CF93DF937C014B016A01B22EA32E4E
:101730000E94BE0AE401C80CD91CCC15DD0569F471
:10174000CB2DDA2D0C0F1D1FC017D10759F06FEFED
:10175000C7010E94D10A8993F7CF6991C7010E94FE
:10176000D10AEBCFC7010E94B60A81E0DF91CF9189
:101770001F910F91FF90EF90DF90CF90BF90AF90AF
:101780009F908F9008958F929F92AF92BF92CF9229
:10179000DF92EF92FF920F931F93CF93DF937C0121
:1017A000B62EA72E6A0149010E94BE0AE401080D67
:1017B000191DC017D10761F4CB2DDA2DCC0EDD1E1B
:1017C000CC15DD0551F06991C7010E94D10AF8CF0F
:1017D0006991C7010E94D10AECCFC7010E94B60AE5
:1017E00081E0DF91CF911F910F91FF90EF90DF90FB
:1017F000CF90BF90AF909F908F9008951F93CF93FD
:10180000DF93EA01122FDC0111968D919C91DC018E
:10181000ED91FC910280F381E02D0995C817D9075D
:1018200029F4812F0E94E00891E0811190E0892F36
:10183000DF91CF911F910895CF93DF93EC018B81BE
:101840008823A1F0888191E09093B9068093DB060C
:101850001092BA061092DC0681E00E94E00891E046
:10186000811190E0892FDF91CF9108950E94A808FF
:1018700081E08B83CE010E941C0C982F8111E2CF56
:10188000F1CF2F923F924F925F926F927F928F9201
:101890009F92AF92BF92CF92DF92EF92FF920F93FF
:1018A0001F93CF93DF93CDB7DEB72F970FB6F89482
:1018B000DEBF0FBECDBF162F282E312C21E3829F15
:1018C000F0011124EB5DF94F8381D101AA0FBB1FF9
:1018D000AA0FBB1FBF87AE87882309F4D8C120E0B9
:1018E00030E0A901658976898789908D0E945E2EF6
:1018F00018160CF0CCC1EE85FF85E25AFB4FC08074
:10190000D180E280F3800E94FF05EE85FF85EA5AD0
:10191000FB4F80809180A280B380681979098A0981
:101920009B090E94AC2D20E030E048E452E40E9484
:101930005E2E87FF03C0112309F46DC10E94FF05CD
:10194000EE85FF85EA5AFB4F608371838283938320
:1019500081E3829DF001839DF00D1124EB5DF94F31
:1019600085889688A788B08C84819581A681B78167
:101970008A839B83AC83BD839C01AD01C501B40107
:101980000E94922C6B017C01C0925204D0925304AD
:10199000E0925404F092550420E030E0A9010E9446
:1019A0005E2EA701960118160CF47DC15058C50192
:1019B000B4010E94FF2C87FD55C1C0905204D09005
:1019C0005304E0905404F090550420E030E0A90165
:1019D000C701B6010E945E2E26013701181624F0B9
:1019E00077FA709477F870942DEC3CEC4CE45EE35D
:1019F000C501B4010E94632EA30192010E94FF2C35
:101A000087FF3CC180E090E0A0E8BFE380934E04F4
:101A100090934F04A0935004B09351042AE037ED03
:101A200043E25DE3C501B4010E94632EA30192016C
:101A30000E94FF2C87FF27C181E3829DF001839DD7
:101A4000F00D1124EB5DF94F85A096A0A7A0B0A4DE
:101A5000A5019401C701B6010E94632EEE85FF85A2
:101A6000EA5BFB4F20813181428153810E94932C9C
:101A70002B013C0120E030E0A901C501B4010E9426
:101A80005E2E20E030E040E85FE318161CF020E016
:101A900030E0A901C301B2010E94632E2B013C0179
:101AA000EE85FF85EA5BFB4F408251826282738242
:101AB00081E3829D8001839D100D11240B5D194FE0
:101AC000D8019D96BC91B9836B2F70E090E080E0C7
:101AD0000E94AE2D6E837F838887998780914E0404
:101AE00090914F04A0915004B09151048A879B8734
:101AF000AC87BD872A813B814C815D81EE85FF8566
:101B0000E25CFB4F60817181828193810E94922C03
:101B1000D80199962D913D914D915C919C970E9491
:101B2000632E4B015C01F80121A132A143A154A114
:101B30006A857B858C859D850E94632EA701960111
:101B40000E94632E2E813F81488559850E94932CE7
:101B5000A30192010E94932C9B01AC01C501B40129
:101B60000E94932C4B015C0120E030E0A9010E940F
:101B70005E2E24013501181624F077FA709477F858
:101B8000709481E3829DF001839DF00D1124EB5D43
:101B9000F94F66A570E090E080E00E94AE2D2A85A6
:101BA0003B854C855D850E94632E6B017C01A30102
:101BB00092010E94FF2C87FD02C073016201A70100
:101BC00096016E817F81888599850E945E2E181608
:101BD0004CF4F9816F2F70E090E080E00E94AC2D12
:101BE0006B017C0120E030E0A901C501B4010E9435
:101BF0005E2E181624F0F7FAF094F7F8F094EE85BC
:101C0000FF85E25CFB4F8A819B81AC81BD81808333
:101C10009183A283B383AE85BF85A25ABB4FFD01DA
:101C2000C082D182E282F382C701B6010E94762D82
:101C3000CB012F960FB6F894DEBF0FBECDBFDF915C
:101C4000CF911F910F91FF90EF90DF90CF90BF90B9
:101C5000AF909F908F907F906F905F904F903F904C
:101C60002F900895D501C401B058809352049093E9
:101C70005304A0935404B09355049FCE80E090E0A9
:101C8000A0E4BFE3C3CEC12CD12C7601B8CFEE8542
:101C9000FF85EA5BFB4F1082118212821382C12CF6
:101CA000D12C7601B8CFC501B4010E94FF2C87FF6B
:101CB00084CE8092520490925304A0925404B09225
:101CC00055047BCE8F929F92AF92BF92CF92DF92BC
:101CD000EF92FF920F931F93CF93DF93D82EC62ED0
:101CE000082F10E0E801CC0FDD1FCC0FDD1FCA5616
:101CF000DC4F88809980AA80BB80C80182569C4FA7
:101D00007C01FC0180818823B1F00E94FF056819E5
:101D100079098A099B096D3271058105910540F0A9
:101D20000E94FF05688379838A839B83F701108271
:101D3000D0E0C0E037C00E94FF05681979098A0920
:101D40009B09603171058105910550F00E94FF05E6
:101D5000688379838A839B8381E0F7018083E8CF5E
:101D6000CC2071F181E3809FF001819FF00D11245F
:101D7000EB5DF94F66A5C62FD0E020E030E0A90169
:101D8000658D768D878D90A10E94FF2C87FF0AC0FC
:101D9000BE01DD0F880B990B0E94AE2D90580E945A
:101DA000762DEB01CE01DF91CF911F910F91FF9026
:101DB000EF90DF90CF90BF90AF909F908F9008955D
:101DC00061E08D2DDF91CF911F910F91FF90EF90EA
:101DD000DF90CF90BF90AF909F908F900C94410C6C
:101DE0004FEF460FFC0130E020E050E0DF01A81B80
:101DF000B90BA417B50724F47191270F311DF6CF45
:101E0000FC01E60FF11D319781E09081921380E093
:101E1000089580912D04882339F00E9450079695EB
:101E200087959695879581700895FC010190002013
:101E3000E9F73197AF01481B590BBC0185EE96E0DD
:101E40000C9416018F929F92AF92BF920F931F93A3
:101E5000CF93DF93CDB7DEB7A1970FB6F894DEBF6F
:101E60000FBECDBF19A2423008F44AE08E010F5DCB
:101E70001F4F842E912CB12CA12CA50194010E94FE
:101E80005530E62FB901CA01EA30F4F4E05DD8011B
:101E9000EE938D01232B242B252B79F790E080E006
:101EA000109719F0CD010E94150FA1960FB6F89466
:101EB000DEBF0FBECDBFDF91CF911F910F91BF90BD
:101EC000AF909F908F900895E95CE1CFCF93DF931F
:101ED0000E94150FEC018BEA91E00E94150F8C0F08
:101EE0009D1FDF91CF910895682F70E090E080E012
:101EF0004AE00C94220F2F923F924F925F926F9282
:101F00007F928F929F92AF92BF92CF92DF92EF9289
:101F1000FF920F931F93CF93DF93CDB7DEB72A972E
:101F20000FB6F894DEBF0FBECDBF9C838B834F836B
:101F3000588769877A87DC01ED90FC90F70100856E
:101F4000C7010B969E838D839681878199838A83AF
:101F5000608071806114710409F420C1418550E0F2
:101F6000D30114968D919C9115978417950708F4C9
:101F700068C18C9191E09093B9068093DB06109232
:101F8000BA061092DC0620E0BE016F5F7F4FC301EE
:101F90000E94FE0B882309F454C1402E512C312C91
:101FA000212C2414350408F01AC1F3018481958191
:101FB0008201021913098017910708F48C01D301DB
:101FC000CC900E941E034B015C018091B3068111ED
:101FD00075C0D02EB0E2B01710F470E2D72EE1E059
:101FE000E093B30621E0C201801B910B281639064D
:101FF00008F420E02093B206FFEFF093B1061092B0
:10200000B0068FEF8D0D8093AF0681E080938E0632
:1020100080918E06CC0CC82AC0928E0680918D06C7
:10202000813009F092C010928D060E941E034B0170
:102030005C0180918E068093BB008091B5069091E3
:10204000B606A091B706B091B806892B8A2B8B2BC8
:10205000A1F00E941E032091B5063091B606409172
:10206000B7065091B806681979098A099B0926179D
:1020700037074807590708F442C08091BC0083FD28
:10208000D8CF95EC9093BC000E941E034B015C01DD
:102090008091B306813009F45CC08091B0068D1543
:1020A00010F4D090B006AFE8B6E0E2EBF3E080E0E9
:1020B0008D1551F19D9191938F5FFACF8091B50667
:1020C0009091B606A091B706B091B806892B8A2BDD
:1020D0008B2B09F47ACF0E941E032091B506309114
:1020E000B6064091B7065091B806681979098A0971
:1020F0009B09261737074807590708F066CF8091D4
:10210000B4060E94BF08D12C10928C06D0928B0688
:10211000D016110609F095C0AD80BE80A20CB31C8C
:102120006501C6018A199B0980179107A0F5F30183
:1021300081819281DC01ED91FC910284F385E02D97
:102140000995F60181936F01ECCFA5EEA093BC0039
:102150009BCF8091B5069091B606A091B706B0913D
:10216000B806892B8A2B8B2B09F492CF0E941E0371
:102170002091B5063091B6064091B7065091B80649
:10218000681979098A099B092617370748075907EB
:1021900008F07ECFB4CF200E311E03CFD7010280CE
:1021A000F381E02D309709F44CC014962D913C91A9
:1021B000159710E019964C9150E02330310561F5E8
:1021C000816089839A834F5F5F4F2D813E81BE017D
:1021D0006F5F7F4FCF010E94870B882391F1F7013A
:1021E000408550E090E080E000E010E09801841726
:1021F000950754F5322F212F102F0027D7011A965B
:102200006C91611119C0FA01E81BF90BEE0DFF1D6D
:102210006285062B0196EBCF2115310519F49068E4
:102220009983D3CF2230310511F49F77F9CF213034
:10223000310559F6906CF4CFF701E80FF91F63856B
:10224000E8CF0FEF1FEF9801EB81FC81A081B181F6
:1022500018968C911897853008F078C0928141E0EB
:1022600050E002C0440F551F9A95E2F741505109C2
:10227000052E000C660B770B93816A017B01092EFA
:1022800004C0CC0CDD1CEE1CFF1C0A94D2F7C094D9
:10229000D094E094F0940C211D212E213F214F80F9
:1022A000588469847A84442255226622772204C0A5
:1022B000440C551C661C771C9A95D2F7402A512A6B
:1022C000622A732A1F964D925D926D927C9252976C
:1022D00030E020E0E82EF12C2E153F05BCF41A96D4
:1022E0008C911A9781110BC0FD01E20FF31F4386F9
:1022F000452C562C672C77242F5F3F4FEDCFF701ED
:10230000E21BF30BEA0FFB1F4286F2CF6D01FBE0ED
:10231000CF0ED11C16969C91169717968C911797F5
:1023200099838A83AD90BC901197A114B10409F4EC
:102330004DC019960C9110E098012E0D3F1DD5014E
:1023400014968D919C918217930710F480E016C02B
:10235000F50181819281208131E03093B90620938B
:10236000DB061092BA061092DC0601151105F9F48D
:1023700021E0A701B601C5010E94FE0B2A960FB607
:10238000F894DEBF0FBECDBFDF91CF911F910F91AB
:10239000FF90EF90DF90CF90BF90AF909F908F9085
:1023A0007F906F905F904F903F902F900895DC0149
:1023B000ED91FC910280F381E02DA801BE016F5FD9
:1023C0007F4F09950817190709F6D2CF1296ED919C
:1023D000FC911397309709F4B9CF14962D913C9145
:1023E000159719960C9110E02330310571F48E7F0A
:1023F00089839A830F5F1F4F9E012F5F3F4FA70175
:10240000B601CF010E94C30BB9CF2115310519F4D4
:102410009F779983F1CF2230310511F49068F9CF7D
:102420002130310549F79F779064F3CFCF93DF9345
:10243000CDB7DEB767970FB6F894DEBF0FBECDBF3E
:10244000A62F9091920729E030E0993030F021E0FA
:10245000883008F420E0226130E0E0919007F091AC
:102460009107309749F04091930750E0542F44274B
:10247000550F5064242B352B40918E0750918F07B8
:10248000188A198A1A8A1B8AFC83EB835A83498328
:1024900043E050E05E834D8391E09A8738872F8335
:1024A0001B8699879E012F5F3F4F3D8B2C8B9E8B08
:1024B00087708F8B41E050E060E070E0A11103C0B5
:1024C00040E050E0BA01CE0144960E947B0F67962F
:1024D0000FB6F894DEBF0FBECDBFDF91CF91089548
:1024E000DC0196E0FB0101900D929A95E1F70895C9
:1024F000CF93DF93EB0144E050E0BC018FE995E01E
:102500000E949332892B49F469E975E0CE010E945B
:10251000701281E0DF91CF91089580E0FBCFBC0184
:1025200083E895E00E94701264E475E089E895E024
:102530000C947012DC0194E0FB0101900D929A95CD
:10254000E1F708950F931F93CF938C0181E891E0F9
:102550000E948F12E3E8F5E088E08487C6E0C58733
:1025600048E050E06EEE70E081E995E00E94732C47
:10257000E3EAF5E0DF011D92CA95E9F764E475E04E
:1025800089E995E00E947012B80189EA95E00E94FD
:102590009A1261EE76E08FE995E00E949A128AE243
:1025A00090E0CF911F910F910C94660789E895E018
:1025B0000E948F126DE975E081EA95E00E949A12FF
:1025C00061EE76E08DE995E00E949A120C94A506E2
:1025D000262F20612093B205643021F0009711F47A
:1025E00081E090E061E00E9427061092930588E266
:1025F000809394050E94D61284E08093B3051092D4
:10260000B40522E04CE150E06AE182E30E94520608
:1026100086E390E00C946607CF93DF93EB010E9472
:102620008F12BE0181EA95E00E949A1261EE76E077
:102630008DE995E0DF91CF910C949A12EF92FF9281
:102640000F931F93CF93DF93182F092FEB01F42ED5
:10265000E52ECB010E94D800BE01882309F447C0B3
:1026600087E795E00E940C138881807F803E91F07F
:1026700088819981AA81BB818F3F9F4FAF4FBF4F08
:1026800049F044E050E0BE018AE495E00E949332B4
:10269000892B31F461E871E083E895E00E947012C3
:1026A00088E080938F051092900549E050E060E546
:1026B00071E081E995E00E94732C1092930581E10D
:1026C00080939A05E092A705F092A8050093A505CE
:1026D0001093A6051092A9051092AB051092AC05B7
:1026E000DF91CF911F910F91FF90EF9008958DE7AB
:1026F00095E0B8CFEF92FF920F931F93CF938C0189
:10270000E3E8F5E086E191E0DF019C011D922150B4
:102710003040E1F78091430561E871E0833011F4C6
:102720006EE275E043E450E084E490E00E941E1302
:1027300061E871E083E895E00E94701281E0809387
:10274000AD058093AE0586E08093AF05809133059B
:1027500090913405A0913505B09136058093B1056F
:102760009093B205A093B305B093B405C09143050F
:10277000C33031F461EE76E089EB95E00E949A1265
:1027800064E475E089EC95E00E94701289E996E0B6
:102790009093170480931604EAEEF0E084910E946F
:1027A0003B08EBEEF0E084910E943B08ECEEF0E099
:1027B00084910E943B08EDEEF0E084910E943B087A
:1027C00085E30E943B0881E00E943B0883E0C11141
:1027D00001C081E00E943B088DE30E943B0887E036
:1027E0000E943B0881E00E943B0884E4E82E85E0DB
:1027F000F82EC7E0C15031F0D7018D917D010E94C4
:102800003B08F8CF80910201882371F062E071E00B
:10281000FB0101900020E9F7BF016350714042E0E5
:1028200051E08CE00E9448080115110559F0A801FB
:1028300064E082E30E9448084EE255E064E086E3EB
:102840000E94480887E30E943B0883E00E943B08FF
:1028500081E00E943B0883E00E943B0886E00E94E2
:102860003B088FEF0E943B0880911604909117045B
:102870008D5A9540CF911F910F91FF90EF900C943E
:10288000C60785ED8093BC008091B5069091B60691
:10289000A091B706B091B8060796A11DB11D23E01F
:1028A000B695A795979587952A95D1F72091BC0065
:1028B00024FD03C01092B30608954091B5065091CF
:1028C000B6066091B7067091B806452B462B472B8C
:1028D00069F30097A105B10541F025E32A95F1F7C9
:1028E00000000197A109B109E1CF8091B4060C94D1
:1028F000BF08FF920F931F93CF93DF93EC01F62E47
:1029000008811981C8010E947C2CF81621F06F2DD6
:10291000C8010E94842CCE01DF91CF911F910F91AD
:10292000FF900895EF92FF920F931F93CF93DF9341
:1029300000D0CDB7DEB78EEA91E00E94660F1A8212
:10294000198262E4CE0101960E94791481E090E040
:102950009A8389836EE4CE0101960E94791484E003
:1029600090E09A83898362E0CE0101960E947914F7
:1029700028E9E22E27E0F22E0AE010E01A8309830C
:10298000F70161917F01CE0101960E9479140F5FDA
:102990001F4F0432110591F795E2E92E96E0F92ECA
:1029A00004E610E01A830983F70161917F01CE01EB
:1029B00001960E9479140F5F1F4F0539110591F799
:1029C00086E5E82E86E0F82E04EB10E01A830983F2
:1029D000F70161917F01CE0101960E9479140F5F8A
:1029E0001F4F053E110591F70F900F90DF91CF918A
:1029F0001F910F91FF90EF9008950F931F93CF9326
:102A0000DF93E9010E94090F882349F1012B39F175
:102A10008881803821F58981813809F58A818F374D
:102A2000F1F48B81893CD9F48C818530C1F48D819E
:102A3000893CA9F48E81893C91F48F8180939C0715
:102A4000888580939D07898580939E070E949214B4
:102A5000F0E0E0E0DF91CF911F910F910994DF91B9
:102A6000CF911F910F910895CF92DF92EF92FF9235
:102A70000F931F93CF93DF93EC0188819981863F59
:102A80002EE7920709F42AC190F4843FFEE79F07DE
:102A900009F453C0853F9E4709F4FBC0DF91CF91F5
:102AA0001F910F91FF90EF90DF90CF900895873F97
:102AB000EEE79E0709F478C18C3B9F4779F76F31A9
:102AC000710560F36FE1CE010E94F00E882331F3AF
:102AD0008A81809398078B81809399078C8180FFEE
:102AE00084C191E090939A0781FF82C181E0809335
:102AF0009B078D818093A0078F8180932506888511
:102B0000809326068985809327068A8580935606BA
:102B10008B85809357068C8580935806FE013D96E1
:102B2000A1EAB7E0CE014D9621912D93E817F90760
:102B3000D9F78D8D8093B1074BC16E30710508F4C4
:102B4000ADCF6EE0CE010E94F00E882309F4A6CF2F
:102B50000A81902F92959F708091980798139ECF2D
:102B60000F7080919907081708F098CFE02EF12C8C
:102B700021E3029F800111240B5D194F2C816D818F
:102B800070E090E080E0CB0177276627722B2B81E5
:102B9000622B0E94AC2D2FE632E143E85AE30E94FB
:102BA000632EF801658B768B878B908F2F816885DC
:102BB00070E090E080E0CB0177276627722B2E81B2
:102BC000622B0E94AC2D2FE632E143E85AE30E94CB
:102BD000632EF801618F728F838F948F898580FFB8
:102BE00004C0118A128A138A148A91E39E9DF0010F
:102BF0009F9DF00D1124EB5DF94F81FD47C0108AB8
:102C000082FF0BC091E39E9DF0019F9DF00D11246A
:102C1000EB5DF94F90899E5F908B83FF0BC091E332
:102C20009E9DF0019F9DF00D1124EB5DF94F908961
:102C30009C5F908B84FB992790F99093240691E3F5
:102C40009E9D80019F9D100D11240B5D194F85FBEA
:102C5000992790F9F80197A786FB882780F9809338
:102C60003A016A857B85072E000C880B990B0E9420
:102C7000AE2DF801658F768F878F90A30E94FF0598
:102C8000F801648775878687978708CF91E0908BD6
:102C9000B7CF6A30710508F401CF6AE0CE010E9417
:102CA000F00E882309F4FACE8A8182958F70909174
:102CB00098078913F3CE8B8180937D048C81809358
:102CC0007C048D81809379048E81809378048F8138
:102CD00080937B04888580937A04E0CE6A30710506
:102CE00008F4DCCE6AE0CE010E94F00E882309F4DD
:102CF000D5CE0A81902F92959F7080919807981356
:102D0000CDCE0F7080919907081708F0C7CE68855F
:102D100070E0719561957109072E000C880B990B75
:102D20000E94AE2D9B01AC0160E070E080E291E476
:102D30000E94D02E6B017C01F1E30F9F80011124D2
:102D40000B5D194F6B8170E090E080E00E94AE2D2A
:102D5000A70196010E94632EF80161A372A383A3C9
:102D600094A36C8170E090E080E00E94AE2DA701FA
:102D700096010E94632EF80165A376A387A390A70E
:102D80006D8170E090E080E00E94AE2DA701960179
:102D90000E94632EF80161A772A783A794A78E8172
:102DA00085A78F8186A77ACE6630710508F476CE26
:102DB00066E0CE010E94F00E882309F46FCE8A816E
:102DC00080939C078B8180939D078C8180939E07C5
:102DD0000E949214F0E0E0E0DF91CF911F910F91FB
:102DE000FF90EF90DF90CF90099410929A077CCEDD
:102DF00010929B077ECE0F931F93C901B8011F91BC
:102E00000F910C9434151F920F920FB60F9211244C
:102E10002F933F934F935F936F937F938F939F93E2
:102E2000AF93BF93EF93FF9385EE96E00E949401DA
:102E3000FF91EF91BF91AF919F918F917F916F9192
:102E40005F914F913F912F910F900FBE0F901F9068
:102E500018951F920F920FB60F9211242F938F93F4
:102E60009F93EF93FF93E091F506F091F606808132
:102E7000E091FB06F091FC0682FD1BC090818091E1
:102E8000FE068F5F8F732091FF06821741F0E0915D
:102E9000FE06F0E0EB51F94F958F8093FE06FF910F
:102EA000EF919F918F912F910F900FBE0F901F90D8
:102EB00018958081F4CF1F920F920FB60F921124B4
:102EC0002F933F938F939F93AF93BF9380911A0457
:102ED00090911B04A0911C04B0911D043091190421
:102EE00023E0230F2D3758F50196A11DB11D209326
:102EF000190480931A0490931B04A0931C04B093AC
:102F00001D0480911E0490911F04A0912004B09193
:102F100021040196A11DB11D80931E0490931F04EE
:102F2000A0932004B0932104BF91AF919F918F9102
:102F30003F912F910F900FBE0F901F90189526E88C
:102F4000230F0296A11DB11DD2CF1F920F920FB673
:102F50000F9211242F933F934F935F936F937F931F
:102F60008F939F93AF93BF93EF93FF93E0914101B2
:102F7000F09142010995FF91EF91BF91AF919F911F
:102F80008F917F916F915F914F913F912F910F9012
:102F90000FBE0F901F9018951F920F920FB60F92B1
:102FA00011242F933F934F935F936F937F938F934E
:102FB0009F93AF93BF93EF93FF93E0913F01F09105
:102FC00040010995FF91EF91BF91AF919F918F9132
:102FD0007F916F915F914F913F912F910F900FBE15
:102FE0000F901F9018951F920F920FB60F921124F9
:102FF0002F933F934F935F936F937F938F939F9301
:10300000AF93BF93EF93FF938091B900887F803691
:1030100009F44AC0F0F5883209F4A7C018F58031E8
:1030200009F49BC0B8F4882309F4F9C0883009F486
:1030300094C0FF91EF91BF91AF919F918F917F913C
:103040006F915F914F913F912F910F900FBE0F9015
:103050001F901895883109F488C0803251F7809309
:10306000B10614C0803409F49DC040F48033B9F334
:103070008833F9F68093B10685ECB0C0803509F449
:1030800085C0883509F496C0883499F60E944114A9
:10309000D0CF883909F48CC038F5883729F050F43E
:1030A000883611F0803729F683E08093B3061092BA
:1030B000150457C0883809F47BC0803919F080386E
:1030C00009F0B7CF80911504803208F071C0E0910B
:1030D000150481E08E0F809315048091BB00F0E011
:1030E000EB50FC4F80833DC0803B39F0E0F4803AE8
:1030F00009F479C0883A09F09CCF84E08093B30644
:103100001092F4031092F303E0918906F0918A067D
:1031100009958091F30381110FC081E08093F3033F
:103120001092D30309C0803C09F4A6CF883C09F46F
:10313000A3CF883B09F07DCFE091F40381E08E0FAF
:103140008093F403F0E0ED52FC4F80818093BB004C
:103150009091F4038091F30329C080918E068093AF
:10316000BB0085EC8093BC0064CF9091B006809149
:10317000AF06981758F5E091B00681E08E0F809366
:10318000B006F0E0E157F94F8081E9CFE091B00659
:1031900081E08E0F8093B0068091BB00F0E0E15794
:1031A000F94F80839091B0068091AF069817C8F2CE
:1031B00085E8D8CFE091B00681E08E0F8093B0060D
:1031C0008091BB00F0E0E157F94F80838091B20617
:1031D00081115CCF81E080938D0684EA8093BC00EE
:1031E0001092B30626CF85EC8093BC001092B306F4
:1031F00080911504803230F4E0911504F0E0EB503A
:10320000FC4F10826091150470E0E0918706F09108
:10321000880685EF93E00995109215040ACF109265
:10322000B10634CFE5EEF6E01382128288EE93E029
:10323000A0E0B0E084839583A683B7832BE831E0D8
:103240003183208325EC30E03587248724EC30E07F
:103250003787268720EC30E0318B208B21EC30E063
:10326000338B228B22EC30E0358B248B26EC30E044
:10327000378B268B118E128E138E148EE2E8F7E0B8
:103280001382128284839583A683B7838DE991E0AC
:1032900091838083E8E9F7E0108232E03183128283
:1032A000138220EC248398EA958381E0868342E3AD
:1032B0004783308730E1E9E5F1E0A1EAB7E001902A
:1032C0000D923A95E1F7EFE4F1E020839183828358
:1032D000EEE8F7E0118210821382128280E184838B
:1032E0000895CF93DF93CDB7DEB7C554D1090FB69C
:1032F000F894DEBF0FBECDBF789484B5826084BDE4
:1033000084B5816084BD85B5826085BD85B58160E9
:1033100085BD80916E00816080936E001092810067
:103320008091810082608093810080918100816022
:1033300080938100809180008160809380008091E3
:10334000B10084608093B1008091B000816080936F
:10335000B00080917A00846080937A0080917A0036
:10336000826080937A0080917A00816080937A00F5
:1033700080917A00806880937A001092C100109248
:10338000280610925906E091F506F091F60682E0C3
:103390008083E091F106F091F2061082E091F3064D
:1033A000F091F40683E380831092FD06E091F90624
:1033B000F091FA0686E08083E091F706F091F80636
:1033C000808180618083E091F706F091F80680812A
:1033D00088608083E091F706F091F806808180682C
:1033E0008083E091F706F091F80680818F7D8083DD
:1033F00068EB7BE080E090E00E94CD058DEA91E0F3
:103400000E94660F8DEA91E00E94660F8DEA91E0BE
:103410000E94660F88EC91E00E94660F8DEA91E0B1
:103420000E94660F90E080E00E947C2C898381E0FE
:1034300090E00E947C2C8A8384E090E00E947C2CA7
:1034400029813A8122343E4409F070C1823009F06A
:103450006DC18EED91E00E94660FA8E9EA2EA7E00B
:10346000FA2E0AE010E0C8010E947C2CD7018D934F
:103470007D010F5F1F4F04321105A9F705E216E029
:103480006801F4E6EF2EF12CC7010E947C2CD601D6
:103490008D936D01BFEFEB1AFB0AE5E9EE16F1041F
:1034A00099F776E5C72E76E0D72EE4EBEE2EF12CD9
:1034B000C7010E947C2CD6018D936D01BFEFEB1AE2
:1034C000FB0AE5EEEE16F10499F78091B1078651FB
:1034D000893E08F425C12091990730E090E080E012
:1034E0008217930714F00C94032CF80140814631A5
:1034F00008F081C14181463108F07DC10F5C1F4F4A
:1035000032964081463108F076C10196E9CF81E0DC
:10351000809328058091B1078F3F19F062E00E94E7
:103520007A0280919907833018F082E0809399079E
:103530008DEA91E00E94660F8CE292E00E94150FE6
:10354000809198070E94740F8BEA91E00E94150FFA
:1035500088E392E00E94150F4AE062E47EE480E096
:1035600090E00E94220F8BEA91E00E94150F8DEAF5
:1035700091E00E94660F0E94A8088CE08093B8003A
:1035800089E492E00E94660F809198078E5C809398
:103590009F0730919C0738AB20919D0729AB9091F4
:1035A0009E079AAB8BAB40913604411105C08093C6
:1035B000330181E08093360480912E04811109C08B
:1035C00030932A0120932B0190932C0181E080936A
:1035D0002E0430934F0120935001909351011FB757
:1035E000F89480912204811127C0EEE1F1E08491EA
:1035F000E2E3F1E09491E82FF0E0EE0FFF1FE050DE
:10360000FF4FA591B491EC91E92321F461E08AE0A8
:103610000E944C0261E08AE00E947A028CB58061CF
:103620008CBD8CB580648CBD61E08DE00E947A0217
:1036300061E08BE00E947A02809122048F5F809388
:1036400022041FBF109224041092230480912304AB
:1036500081113CC064EF71E080E090E00E94CD05F4
:103660008DE593E00E94150FF89460E08AE00E94D7
:103670004C028FEF0E94B4068FEF0E94B40661E007
:103680008AE00E944C02789462E070E080E090E072
:103690000E94CD05F89460E08AE00E944C028DE122
:1036A0000E94B40680E00E94B4061EB561E08AE084
:1036B0000E944C027894117010932304809124048A
:1036C0008F5F80932404863008F4C0CF8091230458
:1036D00080932D04882309F42CC21092FB0587E304
:1036E00090E0C12CD12C7601C394009709F489C0D5
:1036F000FC0143E0F595E7954A95E1F7EA5DFB4F5C
:10370000282F2770B701A60104C0440F551F661F5C
:10371000771F2A95D2F72081242B20830197E5CFAC
:103720001092280587EF91E00E94660F82E192E0F7
:103730000E94660F8FEF8093B10783E08093250688
:1037400096E09093260699E09093270692E0909356
:10375000560694E09093570695E09093580640E003
:1037600050E060EA70E44093460650934706609349
:1037700048067093490610924A0610924B06109222
:103780004C0610924D0610924E0610924F06109263
:103790005006109251069093520622E3209353064E
:1037A0008093550640937706509378066093790688
:1037B00070937A0610927B0610927C0610927D061A
:1037C00010927E0610927F0610928006109281065B
:1037D0001092820690938306209384068093860637
:1037E000E1EAF7E08FEF819337E0E13BF307D9F7A8
:1037F0000E9492148FCE80E08093280581118ACE9A
:1038000091CF6EE271E084E495E00E94701284E64C
:1038100090E090932A05809329050CB406FC25C0FE
:1038200061E08AE00E947A0261E08AE00E944C0234
:1038300061E08BE00E947A0261E08DE00E947A02F2
:1038400060E08CE00E947A0261E08BE00E944C0212
:1038500060E08BE00E944C0260E08DE00E944C0230
:1038600080E58CBD8DB581608DBD8AE08093250497
:1038700061E00E947A020E94B9064FEF60E08FEF8C
:103880000E94ED0662E070E080E090E00E94CD05CD
:103890000E94C0068DE10E94B40680E00E94B4063A
:1038A0001EB50E94B906112399F370E060E088E02C
:1038B0000E942B0770E060E08CE00E942B076FEF06
:1038C0007BE08AE00E942B0760E07CE084E00E94BD
:1038D0002B076FEF71E186E00E942B0766E774E02B
:1038E00084E10E94E80761EB88E30E941E076FE312
:1038F00070E388E20E942B0769EF77EF80E30E9474
:103900002B0761E080EC0E941E0742E362EC80E836
:103910000E94ED0662E17CE086EC0E942B0762E1EA
:1039200084EC0E941E076CED75E08AEC0E942B0768
:103930006091440584EE0E941E076091450585EE66
:103940000E941E076091460582EE0E941E0760914C
:10395000470583EE0E941E076091480580EE0E9495
:103960001E076091490581EE0E941E0760E071E02C
:1039700080E10E94E8078FE10E94020740EC6BE1C2
:1039800080E80E94ED0644E06FE180E80E94ED06C9
:1039900082E70E9438078DEA91E00E94660F8FE56A
:1039A00092E00E94660F1092FB05BE01605D7F4FA2
:1039B00081EE96E00E949A121092F9051092F80595
:1039C00081E08093FA056AE271E084EF95E00E945D
:1039D0009A1266E271E08FEE95E00E949A1262E21E
:1039E00071E08DED96E00E949A1201EE16E02DED49
:1039F00036E06AE475E045EE56E0F8019191D901B0
:103A00008D919D018095892BDB018D93BD014E1712
:103A10005F07A1F780917605883098F4B5E08B9F19
:103A2000F0011124E25BFA4F2BEF36E13183208362
:103A300028ED30E73383228391E094838F5F809376
:103A4000760580917605883098F425E0829FF00114
:103A50001124E25BFA4F2DEF34E13183208328EB10
:103A600032E23383228391E094838F5F80937605E3
:103A700064EF71E080E090E00E94CD050E94090FA4
:103A8000882309F44FC08DEA91E00E94660F8AE70F
:103A900092E00E94150FF12CD8018D918D010E94AA
:103AA000740FB3E0FB1629F06EE285EE96E00E94FB
:103AB000B601F394E4E0FE12EFCF8BEA91E00E94AE
:103AC000150F8BE892E00E94660F10E000E031E3F2
:103AD000D32E809199078017110609F00CF452C07B
:103AE000D09EC001D19E900D11249C012B5D394FB9
:103AF000790162E0D9018C910E947A0261E0F701BC
:103B000081810E947A0261E0D70112968C910E9415
:103B10007A0201151105C1F00130110529F10F5F7D
:103B20001F4FD7CF81EA92E00E94660F8FEB92E0A1
:103B3000CACF8DEA91E00E94660F84ED92E00E9468
:103B4000660F8DEA91E0F0CF80912506823041F03A
:103B5000833041F481E063E473E00E94FA00DFCF38
:103B600080E0F9CF8FEFF7CF80915606823031F0A9
:103B7000833031F481E06AE874E0EFCF80E0FBCF7E
:103B80008FEFF9CF8091A007843008F04DC08230CC
:103B900008F032C101EA17E021EBE22E27E0F22E15
:103BA000813009F41DC18DEA91E00E94660F83E81F
:103BB00093E00E94660F8DEA91E00E94660F80916B
:103BC0003A0181118BC105E216E0EEE5F4E0FDABB0
:103BD000ECAB312C212C809199078215130409F04C
:103BE0000CF4BDC3D80150968C915097853009F0E4
:103BF00098C161E0822D0E94620EBC01990F880B72
:103C0000990B0E94AE2DF801608771878287938798
:103C1000FFEF2F1A3F0A0F5C1F4F2CA93DA92C5F05
:103C20003F4F3DAB2CABD7CF843009F0BCCF8DEAF2
:103C300091E00E94660F89E493E00E94660F16E00F
:103C400001E080E2F82E8091660481111CC08DE5B0
:103C500093E00E94150F0093B906F092DB061092D4
:103C6000BA061092DC0681E00E94E00891E0811122
:103C700090E09093660464EF71E080E090E00E9431
:103C8000CD05115001F78DEA91E00E94660F8091F9
:103C90006604882309F41FC18FE593E00E94660F34
:103CA00086E090E00E946E318C0180E2D8018C9316
:103CB00082E897E012969C938E93119713961C922C
:103CC000139780E290E015969C938E93149710932F
:103CD0008F0700938E070E94A80881E0F801838374
:103CE000C8010E941C0C01EA17E099249394B3E0E8
:103CF000EB2EF12C5E01F5E1AF0EB11C9E012F5FA2
:103D00003F4F6901D801ED918D0181E0E83008F461
:103D100080E090919207282F993008F420E030E05D
:103D200040919007509191074115510549F06091DC
:103D3000930770E0762F6627770F7064262B372B5A
:103D400060918E0770918F071CA21DA21EA21FA258
:103D5000588F4F8B7E8B6D8BFA8EE98E9E8E3C8FAB
:103D60002B8F1F8E9D8E993008F4B2C090E08C602E
:103D70004115510549F02091930730E0322F222759
:103D8000330F3064822B932B188A198A1A8A1B8A64
:103D90005C834B837A836983FE82ED829A8698875F
:103DA0008F831B869986E770BDA6ACA69EA6EFA75B
:103DB000D9A6C8A69AA6EBA740E050E0BA01CE016A
:103DC0008C960E947B0F40E050E0BA01CE018896AD
:103DD0000E947B0FB7E0013B1B0709F093CFE3CEB6
:103DE000F80181918F018F3F19F061E00E947A0202
:103DF000E016F106A9F7D7CE8DEA91E00E94660F92
:103E000083EF92E00E94660F16E001E090E2F92E47
:103E10008091770481111CC08DE593E00E94150FFD
:103E20000093B906F092DB061092BA061092DC06F7
:103E300081E00E94E00891E0811190E09093770486
:103E400064EF71E080E090E00E94CD05115001F731
:103E50008DEA91E00E94660F80917704882399F1A2
:103E600085E193E00E94660F82E897E09093440119
:103E70008093430180E28093450110924B011092A0
:103E80004A014AE451E064E00E94D00910924D01D9
:103E900010924C014CE451E066E0809145010E9493
:103EA000D0098FEF9FEF909349018093480148E438
:103EB00051E062E0809145010E94D0098DEA91E0D5
:103EC0000E94660F70CE8DE293E00E94660FF6CFDF
:103ED00086E090E04DCF8FE693E0F2CF75E2272E9B
:103EE00076E0372E1DAA1CAA809199074CA95DA9DE
:103EF0008417150609F00CF432C2D10150968C914A
:103F0000823030F0853008F460C0853009F40CC28E
:103F100060E08CA90E94410CBC01990F880B990BA1
:103F2000D6C15D96CD90DD90ED90FC909097F80114
:103F3000C086D186E286F38620E030E0A901C70181
:103F4000B6010E94FF2C412C512C60E8662E6FE3D5
:103F5000762E87FF06C0412C512C50E8652E5FEB72
:103F6000752E20E030E0A901C701B6010E945E2E47
:103F7000181624F0F7FAF094F7F8F094D8019E960A
:103F80006C9170E090E080E00E94AE2D4B015C01EE
:103F9000A70196010E94FF2C87FF0BC0A30192018D
:103FA000C501B4010E94632EF80160877187828782
:103FB0009387F80180859185A285B385ECA9FDA939
:103FC00080839183A283B38323CEF10183812CA9C3
:103FD0003DA9220F331F220F331F3FAB2EAB882387
:103FE00009F496C120E030E0A901658976898789C6
:103FF000908D0E945E2E18160CF08AC14EA95FA902
:10400000425A5B4F22965FAF4EAF2297DA01CD90B6
:10401000DD90ED90FC900E94FF050EA91FA90A5AA1
:104020001B4FF80180809180A280B38068197909C4
:104030008A099B090E94AC2D20E030E048E452E45C
:104040000E945E2E87FD32C10E94FF05D8016D934C
:104050007D938D939C931397F10185889688A7880B
:10406000B08C24813581468157812CAF3DAF4EAF56
:104070005FAFC501B4010E94922C2B013C0140921C
:10408000520450925304609254047092550420E0FC
:1040900030E0A9010E945E2EA3019201181614F4CB
:1040A0000C94182C5058C501B4010E94FF2C87FDB8
:1040B00016C1209152043091530440915404509100
:1040C000550428AF39AF4AAF5BAF20E030E0A9011B
:1040D00068AD79AD8AAD9BAD0E945E2E48AC59ACFF
:1040E0006AAC7BAC181624F077FA709477F8709469
:1040F0002DEC3CEC4CE45EE3C501B4010E94632E60
:10410000A30192010E94FF2C87FFF5C080E090E0A0
:10411000A0E8BFE380934E0490934F04A093500413
:10412000B09351042AE037ED43E25DE3C501B401E9
:104130000E94632E9B01AC01C301B2010E945E2E5E
:1041400018160CF0A7C00EA91FA90A5B1B4FD101BE
:1041500095968D909D90AD90BC909897A5019401F7
:1041600068AD79AD8AAD9BAD0E94632EF8012081C8
:104170003181428153810E94932C2B013C0120E02C
:1041800030E0A901C501B4010E945E2E20E030E0BC
:1041900040E85FE318161CF020E030E0A901C301FD
:1041A000B2010E94632E4B015C01D8018D929D9259
:1041B000AD92BC9213972CAD3DAD4EAD5FADEEA967
:1041C000FFA9E25CFB4F60817181828193810E9433
:1041D000922CF10121A532A543A554A50E94632E7E
:1041E0002B013C0120914E0430914F04409150042A
:1041F00050915104D10191966D917D918D919C9139
:1042000094970E94632E28AD39AD4AAD5BAD0E94F4
:10421000632EA50194010E94932C9B01AC01C30164
:10422000B2010E94932C9B01AC01C701B6010E9410
:10423000932C6B017C01F10116A5612F70E090E0D9
:1042400080E00E94AE2D9B01AC01C701B6010E9427
:104250005E2E181644F4612F70E090E080E00E941A
:10426000AC2D6B017C01D1019D961C91612F70E0FA
:1042700090E080E00E94AE2DA70196010E945E2E84
:10428000181644F4612F70E090E080E00E94AC2D9D
:104290006B017C01EEA9FFA9E25CFB4F2CAD3DADAB
:1042A0004EAD5FAD20833183428353832296AEAD02
:1042B000BFAD2297CD92DD92ED92FC921397C7018C
:1042C000B6010E94762D072E000C880B990B0E94D8
:1042D000AE2DF101608771878287938736C0D50143
:1042E000C401B0588093520490935304A093540493
:1042F000B0935504DECE20E030E040E45FE320934D
:104300004E0430934F0440935004509351040ACF0D
:10431000EEA9FFA9EA5BFB4F108211821282138281
:10432000C12CD12C7601CBCF60E08CA90E94620E0B
:10433000BC01990F880B990B0E94AE2DD1011896E4
:104340006D937D938D939C931B972CA93DA92F5F13
:104350003F4F3DAB2CAB31E3230E311CC5CD0E944A
:10436000FF0500913B0110913C0120913D013091EE
:104370003E01601B710B820B930B6233710581054B
:10438000910508F418C40E94FF0560933B017093E7
:104390003C0180933D0190933E0135E2632E36E06F
:1043A000732E8301F12CE12C809199078E151F0447
:1043B00009F00CF444C00E94FF05D8011C968D90B2
:1043C0009D90AD90BC901F97681979098A099B0947
:1043D000603A7F408105910580F5F80185889688CF
:1043E000A788B08C20E030E0A901C501B4010E948B
:1043F0005E2E181624F480912406811114C0D80171
:1044000050968C91843049F420E030E0A901C50138
:10441000B4010E945E2E181674F080913A01811149
:104420000CC080912406F8018383FFEFEF1AFF0A86
:104430000F5C1F4FB9CF81E0F6CF80E0F4CF8091C1
:104440002806811108C08091590600917B04E090F4
:104450007A04882321F000917D04E0907C0480910F
:104460007904082B80917804E82A8091A007823093
:1044700009F4EBC008F06EC0813009F49DC0E4EF90
:10448000F4E0FDAFECAF2AEE34E03FAB2EAB42EEF2
:1044900054E05DAB4CAB8CEF94E099AF88AF5CE03F
:1044A000452E55E0552EA4E0B5E02296BFAFAEAF45
:1044B000229762EF262E64E0362E75E2872E76E094
:1044C000972ED101A25FB440809199078A171B06ED
:1044D00009F00CF4D4C2F4018089833009F052C190
:1044E0002085318542855385618D728D838D948DB4
:1044F0000E94632ED40114966D937D938D939C93AB
:104500001797F1E38F0E911C2CAD3DAD2C5F3F4F03
:104510003DAF2CAF3FEF231A330A4EA95FA94C5F82
:104520005F4F5FAB4EAB8CA99DA904969DAB8CAB46
:10453000A8ADB9AD1496B9AFA8AFB4E04B0E511CFD
:104540002296EEADFFAD229734962296FFAFEEAFE6
:104550002297B7CF833009F4ACC0843009F08FCFF5
:1045600080916604882309F48ACFF1EAAF2EF7E040
:10457000BF2ED12CC12C10E0D5018D915D01803171
:1045800008F4DCC0BFEFCB1ADB0AE8E0CE16D1049A
:1045900099F7E9EACE2EE7E0DE2E10E000E0F12CFC
:1045A000D6018D916D01803108F4DAC00F5F1F4F85
:1045B00008301105A9F763CF21EAA22E27E0B22E19
:1045C000D12CC12C10E0D5018D915D018F3FC9F434
:1045D000BFEFCB1ADB0AE8E0CE16D104A1F799EAC7
:1045E000C92E97E0D92E10E000E0F12CD6018D9174
:1045F0006D018F3FC1F40F5F1F4F08301105B1F7F8
:104600003ECF90919A0798010C2C02C035952795C2
:104610000A94E2F7692F20FD03C061E0911160E088
:104620000E944C02D5CF90919A079701002E02C0AC
:10463000359527950A94E2F7692F20FD03C061E0C4
:10464000911160E00E944C02D6CF809177048823BC
:1046500009F415CF17E6A12E14E0B12E89E7C82E74
:1046600081E0D82EF12CE12C10E098010E2C02C034
:10467000359527950A94E2F7B22FB1709B2EF5017C
:1046800081915F01B81751F0D6018C9160E020FF55
:1046900061E00E940C0AF50131979082BFEFEB1A9E
:1046A000FB0AEFEFCE1ADE0AF8E0EF16F104E9F6A6
:1046B000E6CE80917704882309F4E1CEA7E68A2E1E
:1046C000A4E09A2EB9E6AB2EB1E0BB2ED12CC12CC2
:1046D000F12C10E028E0C216D1042CF5C8010C2CF6
:1046E00002C0959587950A94E2F7382F3170532EC2
:1046F000D4018D914D01851559F0F501808160E05F
:10470000511001C061E00E940C0AF40131975082FF
:10471000FFEFCF1ADF0A2FEFA21AB20A30E1C31659
:10472000D104C1F6ACCEC6010897A70102C05595C9
:1047300047958A95E2F74170542EDACF90919A0707
:1047400098010C2C02C0359527950A94E2F7692F41
:1047500020FD03C061E0911160E00E94161212CFAB
:1047600090919A079701002E02C0359527950A94DB
:10477000E2F7692F20FD03C061E0911160E00E9423
:10478000161214CFCD01880F991F880F991FFC01B5
:10479000E05EFA4F7F014081518162817381452B38
:1047A000462B472B09F48FC0F89400811181228198
:1047B0003381F4014189528963897489400F511F03
:1047C000621F731F418B528B638B748BF7011082B6
:1047D000118212821382885E9A4FFC0140815181BE
:1047E00062817381409314055093150560931605FB
:1047F000709317057894F40187A5882309F446C0BF
:10480000F894FD01EE0FFF1FE252FB4F8081918172
:1048100020E030E0A901181619067CF510E000E050
:1048200060E070E0CB01AF012CE0F22EFA9E900127
:10483000FB9E300D1124DA01ED90FC900E151F0542
:10484000A4F4D901A00FB11FAA0FBB1FAA0FBB1F51
:10485000A258BB4FCD90DD90ED90FC906C0D7D1D6E
:104860008E1D9F1D0F5F1F4FE6CF20813181032ECC
:10487000000C440B550B0E9455307894209314057E
:1048800030931505409316055093170500911405B4
:104890001091150520911605309117050115110588
:1048A0002105310509F0CAC0F2011082118212827D
:1048B00013820E94FF052296EEADFFAD2297608322
:1048C0007183828393830E94FF052296AEADBFADB4
:1048D00022970D911D912D913C91601B710B820BC4
:1048E000930B613A7F4081059105A0F0F20110829F
:1048F000118212821382A8ADB9AD1D921D921D9234
:104900001C921397ECADFDAD1082118212821382BE
:10491000D1011C92F2010081118122813381A8AD65
:10492000B9AD6D917D918D919C911397600F711F21
:10493000821F931FFD016083718382839383AEA9DD
:10494000BFA9CD90DD90ED90FC901397C016D106D5
:10495000E206F30628F4FD010083118322833383EA
:10496000ACA9BDA9CD90DD90ED90FC9013970C15EE
:104970001D052E053F0528F4FD01008311832283C8
:104980003383D1012C912F5F2C932530E0F1EEA9D8
:10499000FFA90081118122813381601B710B820B81
:1049A000930BACA9BDA90D911D912D913C91601B5C
:1049B000710B820B930B0E94AC2D20E030E046E996
:1049C00053E40E94042DECADFDAD608371838283BE
:1049D0009383A8ADB9AD1D921D921D921C921397A1
:1049E000EEA9FFA9108211821282138220E032EF19
:1049F00045E05AE2ACA9BDA92D933D934D935C933C
:104A00001397F1011082D4015996CD90DD90ED906D
:104A1000FC905C9720E030E0A901C701B6010E943C
:104A20005E2E181634F5A7019601ECADFDAD608140
:104A30007181828193810E94042D5CCD58016901AE
:104A4000E12CF12C00E010E020E03CEB40EA55E6E0
:104A500061E070E080E090E00E948430D2012C930D
:104A600011963C93119712964C93129713965C9360
:104A700020CFF401148215821682178242CD10E0F5
:104A800000E0809199078017110609F00CF493C09B
:104A9000D30150968C91823009F471C050F4882370
:104AA000B9F1813059F00F5F1F4FF1E36F0E711CA8
:104AB000E8CF843009F463C08530A9F7E0909B0704
:104AC000D3011196FC90119713968C91139788231C
:104AD00009F44CC020E030E0A90118966D917D9159
:104AE0008D919C911B970E945E2E87FD54C06E2D68
:104AF0008F2D0E944C02F30160857185828593851C
:104B00000E94762DD30112968C910E94B602CBCFD3
:104B1000E0909B07F301F18020E030E0A90160857F
:104B20007185828593850E945E2E87FD10C06E2D53
:104B30008F2D0E944C02D30118966D917D918D911D
:104B40009C911B970E94762DF3018281DECF61E05C
:104B5000E11060E08F2D0E944C02D30118966D91F8
:104B60007D918D919C911B979058ECCF61E0E11065
:104B700060E08F2D0E944C026FEF70E0E5CFD30113
:104B800013968C911397882399F0E0909B071196C8
:104B9000FC9011979FCF61E0E11060E08F2D0E94A3
:104BA0004C02F30160857185828593859058A8CF6A
:104BB00070E060E0C9CF0E94FF05009136011091BE
:104BC00037012091380130913901601B710B820B44
:104BD000930B693C71058105910508F456C10E944B
:104BE000FF056093360170933701809338019093ED
:104BF000390105E216E0F12CE12CB0E93B2E8EE7FD
:104C0000282E5E012DE0A20EB11C88248394912CE5
:104C10008C0E9D1E3DE0830E911C80919807909113
:104C200099079E151F0409F00CF4D1C039822A821D
:104C300040E1849FC00111248E298B8320E030E065
:104C40004AE754E4D80114966D917D918D919C9121
:104C500017970E94632E0E947D2D6C837D838E8327
:104C6000F801418C528C638C748C20E030E0A901F7
:104C7000C301B2010E945E2E18160CF08CC0D80140
:104C800051966D917D918D919C9154970E94AC2D80
:104C900020E030E040E251E40E94632EA301920143
:104CA0000E94042D0E947D2D6F8378878987F801EB
:104CB0004084518462847384C301B2010E947D2DBB
:104CC0006A87C301B2010E94762D7B871C860E94F1
:104CD000FF05409031065090320660903306709088
:104CE00034066419750986099709603A7F40810581
:104CF000910518F48C8581608C870E94FF05409097
:104D000062065090630660906406709065066419B0
:104D1000750986099709603A7F408105910518F465
:104D20008C8582608C870E94090F882319F08C85FE
:104D300080648C8780912805882319F08C85806891
:104D40008C87FE01319690E080E02191820F911DC9
:104D5000AE16BF06D1F78D870E94090F8823F9F0A0
:104D60004FE255E76FE471E083E094E10E941E1387
:104D70008DE0FE013196ADEAB5E001900D928A9585
:104D8000E1F78DE090E00E94C607BFEFEB1AFB0A47
:104D90000F5C1F4F42CF1F821886198688CF8981EA
:104DA0000E94740F6E0132E0C30ED11C83E993E0C0
:104DB0000E94150FD6018D916D010E94740F8C1405
:104DC0009D04A1F78DEA91E00E94660FDECF91E984
:104DD00099839EE79A838B831C821D821E821F8289
:104DE000188619861A861B8682E48C878EE48D8746
:104DF0001E862091B1072F3F01F130E0F901E45CFC
:104E0000FE4F8491F901E85DFE4F1491F901EC5ECB
:104E1000FE4F0491002389F081110E942302E02FAC
:104E2000F0E0EE0FFF1FE65FFE4FA591B491EC910D
:104E30001E2319F08E8581608E879E01215F3F4F72
:104E4000FE01319690E080E04191840F911D2E1774
:104E50003F07D1F78F870E94090F882309F451C1BA
:104E60004FE255E76FE471E083E094E10E941E1386
:104E70008FE0FE013196ADEAB5E001900D928A9582
:104E8000E1F78FE090E00E94C6070E94090F882397
:104E900009F42CC480912D05882379F060912B05AD
:104EA00070912C056115710509F04AC16FEF7BE027
:104EB0008CE00E942B0710922D0589E30E94380791
:104EC000F12CE12C8823D9F160912B0570912C05F0
:104ED00080E00E942B07BE016F5F7F4F86E090E06D
:104EE0000E94C60689819A8190932C0580932B0598
:104EF0008D819E817C01B0E8EB22FF2487FF13C0E7
:104F00008B819C810497E0902905F0902A05E1E0CF
:104F1000EE1AF1088E159F0508F47C0163E875E030
:104F2000C7010E94C606F701ED57FA4F108281E0D3
:104F300080932D0540E46EE180E80E94ED068091AB
:104F4000FB05882369F080914305823009F401C193
:104F500008F0F9C0882309F484C1813009F4A0C1A4
:104F6000E114F10409F02BC28091FA05857099F0E3
:104F70008091F8059091F905892B69F40E945007FA
:104F800082FF09C084EF95E00E94A2128091FA0589
:104F900088608093FA058091F8059091F905019653
:104FA0009093F9058093F8058091F305813009F01D
:104FB0006EC08091FA0581FF6AC082E08093F3059C
:104FC000809135018F5F80933501182F1F7189EE15
:104FD00095E00E94D80069EE75E0882309F4ECC1E1
:104FE00087E795E00E940C1308E000938F0510926C
:104FF000900549E050E060E571E081E995E00E94AC
:10500000732C8CE28093940586E080939A050E942D
:10501000A5061092A7051092A8058BE08093A50520
:105020001093A605E9EAF5E0DF011D920A95E9F77C
:10503000809134018093AB058D5F8093340180E6CD
:105040008093B10582E08093B20593E09093B3051D
:105050001092B4051092B5051092B6051092B705DE
:105060001092B8058093B90594E09093BA058093A7
:10507000BB0586E28093BC0522E040E250E06AE195
:1050800082E30E9452068AE390E00E9466078FEE58
:1050900095E00E94D800882379F08091EE05811177
:1050A0000BC08091ED05811107C08FEE95E00E9445
:1050B000A21281E08093ED0589EE95E00E94D80070
:1050C000882379F08091E80581110BC08091E70574
:1050D000811107C089EE95E00E94A21281E08093C1
:1050E000E70580E090E0892B11F40C94DF1D0E940D
:1050F0008001882311F40C94DF1D0E9400000C94A1
:10510000DF1D89810E94740F8E010E5F1F4FEE24F8
:10511000E394F12CEC0EFD1EEFE0EE0EF11C83E9A2
:1051200093E00E94150FD8018D918D010E94740F9C
:10513000E016F106A1F78DEA91E00E94660FA5CE78
:1051400061507109B5CE833009F456C0843009F03E
:1051500007CF65E0C7010E94FB07882309F4C9C097
:1051600080913205811108C088E30E943807682FBA
:105170006E7F88E30E941E076DEB75E081EE96E07E
:105180000E949A12EDE9F6E097012D573A4F690116
:105190008F010E5F1F4FB1808081863009F4FBC004
:1051A00008F0BEC0813009F4ECC0833009F4EFC0D0
:1051B000F801EB0DF11DEC15FD0550F30E94FF0504
:1051C00060933B0570933C0580933D0590933E05AD
:1051D0008091F405882361F01092F9051092F8058A
:1051E00081E08093FA0564EF75E0CB010E949A128A
:1051F00083E080934305B4CE80903F0590904005B6
:10520000A0904105B0904205FFEF8F169F06AF06B4
:10521000BF0609F4A5CE0E94FF0500913B05109141
:105220003C0520913D0530913E05601B710B820BC2
:10523000930B681579058A059B0508F491CE81EEDC
:1052400096E00E947A1384E0809343050E94FF0554
:1052500060933705709338058093390590933A052C
:105260007FCE0E94FF0560933305709334058093D1
:10527000350590933605E1EEF6E084E0DF011D92FE
:105280008A95E9F790E080E00E947A1388E30E9413
:105290003807682F616088E30E941E0781E0D4CF41
:1052A00062E0C7010E94FB07882319F16DEB75E0EE
:1052B000CE0101960E949A12EDE9F6E0C7018D57E2
:1052C0009A4FBF016E5F7F4F21813081363351F499
:1052D0008EE295E00E949A12CE0101960E947A1306
:1052E00082E0B2CFFB01E20FF11DE817F90748F3A6
:1052F000F3CF0E94FF0500913705109138052091EA
:10530000390530913A05601B710B820B930B6131AB
:1053100077428105910508F423CE1092430520CEF3
:105320008A3331F08F3F09F449CF833309F040CFFE
:1053300010923F05109240051092410510924205CF
:10534000F801C801049620E030E0A9016191542FD2
:10535000432F322F2227260F311D411D511D8E173D
:105360009F07A1F72F3F8FEF380748075807B9F479
:1053700020933F05309340054093410550934205EB
:1053800017CFB8018DED96E00E949A1211CFB801A7
:1053900084EF95E0F9CFB8018FEE95E0F5CFA8EE58
:1053A000B3E00E94773060933F057093400580938F
:1053B000410590934205FCCE8DE795E013CEB9E20E
:1053C000EB16F10408F48DCE80918F05883009F03A
:1053D00088CE80919005863009F03CC244E050E0D0
:1053E00061EE76E089EA95E00E949332892B09F01C
:1053F00078CE80919805813029F589E895E00E9462
:105400008F121092970582E08093980569E975E004
:1054100083EA95E00E94701264E475E089E995E002
:105420000E9470126FE975E089EA95E00E949A1275
:1054300061EE76E08FE995E00E949A128AE290E0B0
:105440000E9466078091FA0583FF0DC010919805B0
:10545000123049F46DE775E084EF95E00E94781210
:1054600081111093FA058091EE05811111C0809190
:10547000ED05882369F067E775E08FEE95E00E94FF
:105480007812882329F081E08093EE051092ED05D3
:105490008091E805811125CE8091E705882309F4E4
:1054A00020CE67E775E089EE95E00E9478128823A8
:1054B00009F417CE81E08093E8051092E70511CE3C
:1054C00090917605911122C0E6E3EE16F10408F4FE
:1054D00008CE00919A05063009F003CE8091A70509
:1054E0008B3009F0B2C044E050E069EE75E08DE920
:1054F00095E00E949332892B09F0F3CD1091B2050B
:1055000012FF58C085E08093F305EBCD8131E1F6C1
:105510003EE4C32E35E0D32EB12CA12C20E08091A7
:1055200076058A151B0409F00CF440C0D6011296CA
:105530003C91129713969C9113978091A7052396FF
:105540009FAF239724961FAE24972496EEADFFAD10
:1055500024978E171F0619F58091A80583131FC085
:1055600014969C9014979920D1F00091A90510E011
:10557000102F00272091AA052850330B020F131F6C
:105580004091A5055091A605542745275427ED9134
:10559000FC912DEA35E06DE975E00995292DFFEFC5
:1055A000AF1ABF0A35E0C30ED11CB9CF222309F4CC
:1055B0008BCF97CD0E940C062091F305223089F500
:1055C000212F20711271123101F560E090E080E02E
:1055D0000E94E81288E18093B20583E08093F3058E
:1055E0001092930588E2809394050E94A50610927C
:1055F000B5051092B60522E04CE150E06AE182E385
:105600000E94520686E390E06BC131E03093F305CF
:105610000196222311F090E080E064E00E94E812FD
:1056200060CD253009F45DCD10FF0AC0233009F4A8
:1056300058CD69E001960E94E8120093F30551CD20
:1056400060E0009709F44DCDE9CF81114ACD8091FA
:10565000A805803509F045CD1091B20511FF39C07C
:10566000109293058CE2809394050E94D61282E1F9
:105670008093B20560E081E090E00E9427061092DE
:10568000A9051092AA05809134018093AB05109270
:10569000AC058D5F8093340182E08093B90584E08E
:1056A0008093BA0585E08093BB051092BC0590E617
:1056B0009093B1058093B30588E78093B40522E009
:1056C00040E250E06AE182E30E9452068AE390E001
:1056D00007C114FF06CD0E940C06892B09F001CDED
:1056E00010FFFFCC60E090E080E098CF85EE96E080
:1056F0000E947401892B09F4F4CC85EE96E00E9497
:105700007401C3978CF085EE96E00E947401892B9A
:1057100029F085EE96E00E945201F5CF1092230603
:10572000109222061092210680912106882361F1B1
:105730000091200610E085EE96E00E947401980129
:1057400022503109821793070CF4CBCC8FEFE82E4F
:1057500085E0F82EC7018D5F95408017910744F4CE
:1057600085EE96E00E945201D7018D937D01F2CF24
:10577000B8018DEF95E00E94341510922306109227
:10578000220610922106ADCC80912206909123062C
:10579000873FBEE79B0718F5853FEEE79E0778F544
:1057A000843F9E4729F185EE96E00E945201909138
:1057B000FC0526968FAF269725961FAE2597269631
:1057C0002EAD3FAD2697292B30932306209322063A
:1057D0009093FD058093FE058093FC0582CC873F66
:1057E0002EE7920771F08C3B9F47E9F68FE101C0ED
:1057F0008EE08093200681E08093210672CC8AE0BF
:10580000F8CF86E0F6CF8091A007813011F00C949C
:10581000871AE1EAF7E081918651893E10F40C94F1
:10582000FB1B27E0E13BF207B1F781E00C94FC1B86
:10583000C501B4010E94FF2C87FD02C00C945920C1
:105840008092520490925304A0925404B092550452
:105850000C94592049E2E416F10409F442CC811178
:1058600040CC80919105853409F03BCC44E050E078
:1058700061EE76E081EA95E00E949332892BA9F0EF
:1058800044E050E06AE475E081EA95E00E949332DA
:10589000892B59F044E050E061E871E081EA95E03D
:1058A0000E949332892B09F01CCC80919A0581309B
:1058B00009F006CE9091A505983009F001CE0E941E
:1058C000D6121092A5058091A705883F28F09091E7
:1058D000A8059F5F9093A805885F8093A705C701DF
:1058E0000E946607FECBFB01DC0102C005900D9211
:1058F00041505040D8F70895F999FECF92BD81BD2F
:10590000F89A992780B50895262FF999FECF1FBAE6
:1059100092BD81BD20BD0FB6F894FA9AF99A0FBED8
:10592000019608955058BB27AA270E94AA2C0C94D0
:10593000242E0E94162E38F00E941D2E20F039F4DD
:105940009F3F19F426F40C94132E0EF4E095E7FB18
:105950000C940D2EE92F0E94352E58F3BA176207CA
:1059600073078407950720F079F4A6F50C94572E59
:105970000EF4E0950B2EBA2FA02D0B01B90190016A
:105980000C01CA01A0011124FF27591B99F0593FAE
:1059900050F4503E68F11A16F040A22F232F342FF6
:1059A0004427585FF3CF469537952795A795F04044
:1059B0005395C9F77EF41F16BA0B620B730B840B59
:1059C000BAF09150A1F0FF0FBB1F661F771F881F11
:1059D000C2F70EC0BA0F621F731F841F48F4879569
:1059E00077956795B795F7959E3F08F0B0CF93955B
:1059F000880F08F09927EE0F9795879508950E94D4
:105A0000E92D08F481E008950E94182D0C94242EAD
:105A10000E941D2E58F00E94162E40F029F45F3F80
:105A200029F00C940D2E51110C94582E0C94132E19
:105A30000E94352E68F39923B1F3552391F3951BFA
:105A4000550BBB27AA2762177307840738F09F5F9F
:105A50005F4F220F331F441FAA1FA9F335D00E2E0C
:105A60003AF0E0E832D091505040E695001CCAF779
:105A70002BD0FE2F29D0660F771F881FBB1F26173C
:105A800037074807AB07B0E809F0BB0B802DBF0113
:105A9000FF2793585F4F3AF09E3F510578F00C94E2
:105AA0000D2E0C94582E5F3FE4F3983ED4F3869568
:105AB00077956795B795F7959F5FC9F7880F911D03
:105AC0009695879597F90895E1E0660F771F881FEF
:105AD000BB1F621773078407BA0720F0621B730BA2
