:100000000C94AE000C948A100C9463100C94D600DF
:100010000C94D6000C94D6000C94D6000C94D60008
:100020000C94D6000C94D6000C94D6000C94D600F8
:100030000C94D6000C94D6000C94D6000C94D600E8
:100040000C9419100C94D6000C94E70F0C94C10F6B
:100050000C94D6000C94D6000C94D6000C94D600C8
:100060000C94B1100C94D60007634236B79BD8A706
:100070001A39685618AEBAAB558C1D3CB7CC5763CD
:10008000BD6DEDFD753EF6177231BF000000803F7B
:1000900008000000BE922449123EABAAAA2ABECD97
:1000A000CCCC4C3E00000080BEABAAAAAA3E000009
:1000B0000000BF000000803F000000000008417801
:1000C000D3BB4387D1133D190E3CC3BD4282AD2B38
:1000D0003E68EC8276BED98FE1A93E4C80EFFFBE30
:1000E00001C4FF7F3F0000000000638253630001F2
:1000F00008000604000100000000250028002B0075
:1001000000000000240027002A00450000820000B3
:100110004000200000000023002600290004040401
:1001200004040404040202020202020303030303A0
:10013000030102040810204080010204081020017D
:10014000020408102000000008000201000003045F
:1001500007000000000000000000D01111241FBEA5
:10016000CFEFD8E0DEBFCDBF13E0A0E0B1E0E8E61E
:10017000F4E502C005900D92AA39B107D9F727E03E
:10018000AAE9B3E001C01D92A332B207E1F710E083
:10019000CEEAD0E004C02197FE010E94102ACD3A99
:1001A000D107C9F70E9418120C94322A0C9400004F
:1001B000CF93DF93209176062223C1F0FC012081AA
:1001C0002223A1F0C6E7D6E0A2E7B6E09C012C5FAF
:1001D0003F4F899141919D918427892339F4E217FA
:1001E000F307B9F781E0DF91CF91089580E0FBCF6D
:1001F0008230C8F4E82FF0E0EE0FFF1FE35CFE4F03
:1002000071836083813041F0809169008C7F8260CE
:1002100080936900E89A089580916900837F8860DF
:1002200080936900E99A0895AF92BF92CF92DF92CE
:10023000EF92FF920F931F93CF93DF936C017B019B
:100240008B01040F151FEB015E01AE18BF08C0172C
:10025000D10759F06991D601ED91FC910190F0819F
:10026000E02DC6010995892B79F7C501DF91CF9162
:100270001F910F91FF90EF90DF90CF90BF90AF90C4
:10028000089508950895FC01538D448D252F30E085
:10029000842F90E0821B930B541710F0CF96089593
:1002A00001970895FC01918D828D981761F0A28DC0
:1002B000AE0FBF2FB11D5D968C91928D9F5F9F7386
:1002C000928F90E008958FEF9FEF0895FC01918D3C
:1002D000828D981731F0828DE80FF11D858D90E0A9
:1002E00008958FEF9FEF0895FC01918D228D892F46
:1002F00090E0805C9F4F821B91098F73992708952E
:100300008AE796E00E94740121E0892B09F420E03D
:10031000822F089580E090E0892B29F00E948001CF
:1003200081110C9400000895FC01A48DA80FB92F31
:10033000B11DA35ABF4F2C91848D90E001968F730D
:100340009927848FA689B7892C93A089B1898C912C
:10035000837080648C93938D848D981306C002887B
:10036000F389E02D80818F7D80830895EF92FF9245
:100370000F931F93CF93DF93EC0181E0888F9B8DC8
:100380008C8D98131AC0E889F989808185FF15C082
:100390009FB7F894EE89FF896083E889F9898081A5
:1003A0008370806480839FBF81E090E0DF91CF9174
:1003B0001F910F91FF90EF900895F62E0B8D10E096
:1003C0000F5F1F4F0F731127E02E8C8D8E110CC005
:1003D0000FB607FCFACFE889F989808185FFF5CF50
:1003E000CE010E949401F1CFEB8DEC0FFD2FF11D9A
:1003F000E35AFF4FF0829FB7F8940B8FEA89FB898D
:1004000080818062CFCFCF93DF93EC01888D8823EA
:10041000B9F0AA89BB89E889F9898C9185FD03C067
:10042000808186FD0DC00FB607FCF7CF8C9185FF4C
:10043000F2CF808185FFEDCFCE010E949401E9CFFC
:10044000DF91CF910895833081F028F4813099F0C5
:100450008230A9F008958730A9F08830C9F084303F
:10046000B1F4809180008F7D03C0809180008F77F0
:1004700080938000089584B58F7784BD089584B5F6
:100480008F7DFBCF8091B0008F778093B00008956F
:100490008091B0008F7DF9CF1F93CF93DF93282FEA
:1004A00030E0F901EB5BFE4F8491F901EF5CFE4F08
:1004B000D491F901E35EFE4FC491CC23A9F0162F2D
:1004C00081110E942302EC2FF0E0EE0FFF1FEA5093
:1004D000FF4FA591B4918FB7F894EC91111108C01A
:1004E000D095DE23DC938FBFDF91CF911F910895CC
:1004F000DE2BF8CFCF93DF9390E0FC01EF5CFE4F53
:100500002491835E9E4FFC0184918823C9F090E082
:10051000880F991FFC01E050FF4FA591B491FC0199
:10052000EA50FF4FC591D49161110DC09FB7F89467
:100530008C91209582238C938881282328839FBFC8
:10054000DF91CF910895623051F49FB7F8943C91B8
:10055000822F809583238C93E8812E2BEFCF8FB74A
:10056000F894EC912E2B2C938FBFEACF1F93CF934F
:10057000DF93182FEB0161E00E947A02209739F493
:1005800060E0812FDF91CF911F910C944C02CF3FFF
:10059000D10511F461E0F5CFE12FF0E0EB5BFE4F08
:1005A000E491E33031F140F4E130B1F0E230E1F0D8
:1005B000C038D1057CF7E4CFE73029F1E83059F1B4
:1005C000E430B1F780918000806280938000D09306
:1005D0008B00C0938A0004C084B5806884BDC7BD09
:1005E000DF91CF911F91089584B5806284BDC8BD0D
:1005F000F7CF80918000806880938000D09389003D
:10060000C0938800EDCF8091B00080688093B000E7
:10061000C093B300E5CF8091B00080628093B000BA
:10062000C093B400DDCF3FB7F894809164049091FB
:100630006504A0916604B091670426B5A89B05C027
:100640002F3F19F00196A11DB11D3FBFBA2FA92F51
:10065000982F8827BC01CD01620F711D811D911D4E
:1006600042E0660F771F881F991F4A95D1F70895BA
:100670008F929F92AF92BF92CF92DF92EF92FF92B2
:100680004B015C010E9413036B017C010E94130368
:100690006C197D098E099F09683E7340810591059B
:1006A000A8F321E0821A9108A108B10888EEC80ECB
:1006B00083E0D81EE11CF11C81149104A104B10453
:1006C00029F7FF90EF90DF90CF90BF90AF909F9071
:1006D0008F9008952FB7F894609160047091610431
:1006E00080916204909163042FBF089508958091D2
:1006F000AC059091AD0598278927982744972091BC
:10070000CA0530E044E0359527954A95E1F7220F78
:10071000331F220F331F821B930B97FF02C090E001
:1007200080E008952091C0053091BE053093C0054A
:100730002093BE052091C1053091BF053093C105BE
:100740002093BF05ECE9F5E021A5820F911D25A5B9
:1007500085A7662381F021A7892F9927319725E066
:10076000E839F20789F71092CE051092CF0580E59F
:100770008093CA05089511A6EFCF0F931F93CF93CF
:10078000DF9370E064567A4F8A01075F1F4F213074
:1007900029F0223031F48A010250110930E020E0C2
:1007A00003C000E010E09801EB01FA01E230F1052E
:1007B00058F0A991B991BA27AB27BA270A0F1B1F86
:1007C000211D311D3297F2CFFA01EE7F6E0F7F1F90
:1007D0004E175F0769F0FB01408150E070E060E078
:1007E000762F652F542F4427040F151F261F371F00
:1007F000A90166277727411551056105710519F093
:1008000022273327F1CF00951095E82FF0E0E4562A
:10081000FA4F10830183DF91CF911F910F910895BB
:10082000ECE9F5E0108E118E80E4848B158A868BBE
:1008300020E044E150E06EE088E10C94BD038EBD01
:100840000DB407FEFDCF089561E0809171040E9410
:100850004C0278940895F89460E0809171040C94AF
:100860004C020F931F93CF93DF93EC018B010E94F7
:100870002B042097B9F08AE30E941F041EBCF801E4
:10088000CE01019739F00DB407FEFDCF2EB51EBC89
:100890002193F7CF2197C00FD11F0DB407FEFDCFD5
:1008A0008EB58883DF91CF911F910F910C94240412
:1008B0001F93CF93DF93182FC62FD42F0E942B04A2
:1008C0008C2F8F71812B0E941F048D2F0E941F047B
:1008D000DF91CF911F910C942404CF93C82FC07641
:1008E00080915E048C1799F043E06FE180EA0E94EA
:1008F0005804C0935E044C2F50E085E05595479511
:100900008A95E1F76FE180E8CF910C945804CF917C
:100910000895CF93DF93C82FD62F0E946D044D2FDB
:100920006C2F80E4DF91CF910C945804CF93DF9328
:10093000C82FD72F0E9489046D2F81E08C0FDF9183
:10094000CF910C948904CF93C82F0E946D040E940C
:100950002B048C2F8F710E941F0480E00E941F04C3
:10096000C7FF03C080E00E941F04CEB50E9424048C
:100970008C2FCF91089561E184ED0E94890461E09C
:1009800082ED0E9489048AEE0E94A30480FDFBCFC1
:1009900060E082ED0E94890489ED0E94A30490E04A
:1009A0000895CF93DF93EC0140E86FE180E80E9467
:1009B000580440E86FE180EA0E9458044AE06CE184
:1009C00080EA0E94580460E07CE082E00E94960485
:1009D000BE01745F86E00E94960440E060E08AE712
:1009E0000E9458040E942B042097B1F08AE70E94CD
:1009F0001F0480919C058EBDEDE9F5E0C456DA4FE9
:100A0000EC17FD0731F081910DB407FEFDCF8EBDCF
:100A1000F7CF0DB407FEFDCF0E94240448E06FE13C
:100A200080E80E945804D0E0C0E08CE10E94A3045A
:100A30008A7029F42196C83E83E0D807B1F78CE18B
:100A40000E94A30481FD03C0C83ED34039F448E0AE
:100A50006FE180EADF91CF910C945804DF91CF9140
:100A600008950F931F93CF93DF93EC010CE915E0EA
:100A70004C96F801908B818B0E941004CE01089651
:100A8000F80196A387A3AE01405F5F4F21E06AE1C2
:100A900088E20E94BD03CE018A96DF91CF911F911B
:100AA0000F910C94D104CF93DF93EB01682F84ED69
:100AB0000E948904BE0186ED0E9496048AEE0E947F
:100AC000A30480FDFBCFDF91CF910895CF92DF92F9
:100AD000EF92FF920F931F938634910568F1209156
:100AE000BF05233449F5C090CA05D090CB05E090EE
:100AF000CC05F090CD0500919404109195042091BF
:100B0000960430919704C016D106E206F306A1F4CC
:100B1000E6EBF6E084569A4F9F012E5F3F4F4181EE
:100B20005081553319F45281651771F0F901E40FC2
:100B3000F11DE817F90780F380E01F910F91FF90F6
:100B4000EF90DF90CF90089581E0F7CFE0915C04C3
:100B5000F0915D049F012F5F3F4F30935D04209320
:100B60005C0480830895FF920F931F93CF93DF93CC
:100B7000162FF42E052F0E94A605812F0E94A60590
:100B8000CF2DD02F115020F089910E94A605FACFC9
:100B9000DF91CF911F910F91FF9008952091120442
:100BA000260F3327331F21323105ECF42091360410
:100BB000FC0190E080E0243069F082E00895A0918B
:100BC00012042191AC014E505C4FA40FB52FB11D02
:100BD0002C930196861798F380911204680F609306
:100BE000120480E0089581E008951092360481E0B7
:100BF000809338041092370461E082E10E944C0235
:100C000061E083E10E944C02E9EBF0E080818E7F9D
:100C1000808380818D7F808388E48093B80085E421
:100C20008093BC000895CF93DF9391E09093F103FC
:100C30008823B9F0C091B800D091BA008091BC006F
:100C40008A7B8093BC0060E082E10E944C0260E0FD
:100C500083E10E944C020E94F505D093BA00C09334
:100C6000B800DF91CF9108950895E0916D048091CF
:100C70006C04E81730F4F0E0E453FC4F808190E01E
:100C800008958FEF9FEF089590916D0480916C040B
:100C90002FEF3FEF981748F4E92FF0E0E453FC4FB3
:100CA000208130E09F5F90936D04C9010895809189
:100CB0006C0490916D04891B990B0895CF92DF927B
:100CC000EF92FF920F931F93CF93DF937C01CB01A1
:100CD0008A0120917106222389F0EB016B01C40E79
:100CE000D51ECC15DD0569F06991D701ED91FC9118
:100CF0000190F081E02DC7010995F3CF642F0E9488
:100D0000CE05C801DF91CF911F910F91FF90EF9019
:100D1000DF90CF900895CF93DF931F92CDB7DEB7CA
:100D20006983209171062223F9F020916E0620320A
:100D300058F021E030E0FC013383228390E080E032
:100D40000F90DF91CF91089580916F06E82FF0E02A
:100D5000E455FC4F998190838F5F80936F06809359
:100D60006E0681E090E0ECCF61E0CE0101960E943A
:100D7000CE05F7CF682F87E197E00C948B06CF92D2
:100D8000DF92EF92FF920F931F93CF93DF93D09157
:100D90006E0681E0D13208F09CC0C09170060E94BE
:100DA00013036B017C018091360481116CC082E0D9
:100DB0008093360481E0809338048FEF809335046C
:100DC00010925A04D0935904ACEAB3E0E9E3F4E09A
:100DD00080E0D8138DC010925B0480915B04CC0F2F
:100DE000C82BC0935B0480913704813009F084C024
:100DF000109237040E9413036B017C0180915B0405
:100E00008093BB008091ED039091EE03A091EF03DE
:100E1000B091F003892B8A2B8B2BA1F00E94130336
:100E20000091ED031091EE032091EF033091F00358
:100E30006C197D098E099F090617170728073907BE
:100E400008F442C08091BC0083FDD8CF85EC80932C
:100E5000BC000E9413036B017C0180913604823038
:100E600009F44CC0809135048F3F09F469C080912A
:100E70003504803209F466C080913504803309F46A
:100E800063C084E026C08091ED039091EE03A091B1
:100E9000EF03B091F003892B8A2B8B2B09F483CFBE
:100EA0000E9413030091ED031091EE032091EF03D4
:100EB0003091F0036C197D098E099F0906171707F9
:100EC0002807390708F06FCF8091EC030E941306C2
:100ED00085E010926F0610926E0610927106DF91F7
:100EE000CF911F910F91FF90EF90DF90CF900895D9
:100EF0009D9191938F5F6DCF85EEA9CF8091ED038A
:100F00009091EE03A091EF03B091F003892B8A2B0F
:100F10008B2B09F4A2CF0E9413030091ED031091D3
:100F2000EE032091EF033091F0036C197D098E09D7
:100F30009F09061717072807390708F08ECFC4CF77
:100F400080E0C7CF82E0C5CF83E0C3CFCF93DF93EC
:100F5000EA01A0914101B091420191E090937106A4
:100F60008093700610926F0610926E06ED91FC91C0
:100F700011970190F081E02DCD01099580914101FB
:100F800090914201DC01ED91FC910190F081E02D06
:100F9000688109958091410190914201DC01ED91B8
:100FA000FC910190F081E02D6981099580914101CA
:100FB000909142010E94BF06982F80934C0181E0DE
:100FC000911180E0DF91CF910895409146015091B9
:100FD000470121E030E0F90102C0EE0FFF1F8A95C2
:100FE000E2F7CF01613069F4842B952B9093470190
:100FF0008093460146E451E062E0809143010C9405
:10100000A6078095909584239523F0CF90E080E00B
:101010000895CF92DF92EF92FF920F931F93CF9399
:10102000DF93C82FD0E00E941303FE01EE0FFF1FD5
:10103000EE0FFF1FEC55FC4F00811181228133819F
:101040006B017C01C01AD10AE20AF30A6083718342
:1010500082839383D701C6018B5F9109A109B109EE
:1010600085349144AF40B10598F5FE01EE0FFF1FA6
:10107000EA56FA4F808191810196918380839E0187
:10108000265D3A4FD901EC91FCE0FC9FC001FD9F29
:10109000900D1124E80FF92FF11DEE0FFF1FEE0F39
:1010A000FF1FE45DFA4FC082D182E282F3828C910D
:1010B00090E001966CE070E00E94BB29F90180830A
:1010C000C457DA4F88818C3018F488818F5F888309
:1010D000DF91CF911F910F91FF90EF90DF90CF9014
:1010E000089580E00C94090881E00C9409084F925F
:1010F0005F926F927F928F929F92AF92BF92CF92A8
:10110000DF92EF92FF920F931F93CF93DF93B62E50
:10111000C82FD0E025E3829FF0011124EC5FF94F46
:1011200083818E01000F111F000F111F882359F0BA
:1011300020E030E0A901658976898789908D0E9439
:10114000C42718161CF0BB2009F4F7C125E32C9F17
:10115000C0012D9F900D1124FC01EC5FF94F7F0120
:101160002FE832EC45EF5CE3658976898789908DBD
:101170000E94C9279B01AC01F701648175818681BA
:1011800097810E9465269E0126563C4F790187FF74
:101190000BC00E946A03F801E456FC4F6083718320
:1011A00082839383F7011082980124563C4F690192
:1011B000F9014080518062807380F701808188232B
:1011C000C1F00E946A03641975098609970961399B
:1011D00071408105910548F00E946A03F601608321
:1011E000718382839383F7011082C12CD12C760105
:1011F0005AC00E946A036419750986099709613506
:1012000071058105910558F00E946A03F60160831B
:1012100071838283938381E0F7018083E6CF85E346
:101220008C9FF0018D9FF00D1124EC5FF94FBB20D6
:1012300009F44FC0C58CD68CE78CF0A020E030E0DC
:10124000A901C701B6010E946526812C912C70E886
:10125000A72E7FE3B72E87FF06C0812C912C60E874
:10126000A62E6FEBB62E20E030E0A901C701B60133
:101270000E94C427A701960118160CF0505885E368
:101280008C9FF0018D9FF00D1124EC5FF94F41A070
:1012900052A063A074A0C301B2010E946526A501FB
:1012A000940187FD34C1C701B6010E94DC26CB0141
:1012B000DF91CF911F910F91FF90EF90DF90CF9032
:1012C000BF90AF909F908F907F906F905F904F9066
:1012D000089585889688A788B08C248135814681B9
:1012E0005781C501B4010E94F8252B013C0120E083
:1012F00030E0A9010E94C42773016201181624F08E
:10130000F7FAF094F7F8F0942FE832EC45E75CE355
:10131000C501B4010E94C927A70196010E94652654
:1013200087FF0BC175016401F7FAF094F7F8F094A8
:10133000A3019201C701B6010E94C427181664F0E8
:10134000A3019201C501B4010E94652673016201E7
:1013500087FF02C07501640185E38C9FF0018D9FBA
:10136000F00D1124EC5FF94F45A456A467A470A8B2
:1013700020E030E0A901C301B2010E94C427181681
:101380000CF0D3C0A7019601C301B2010E94C92786
:10139000F801E750FB4F20813181428153810E9447
:1013A000F9252B013C0120E030E048EC52EC0E9492
:1013B000652687FDB3C020E030E048EC52E4C3016D
:1013C000B2010E94C427181634F4412C512C58EC59
:1013D000652E52E4752EF801E750FB4F4082518292
:1013E0006282738220E030E0A901C701B6010E9449
:1013F000C42726013701181624F077FA709477F87D
:10140000709420E030E040E85EE3C501B4010E9442
:10141000C927A30192010E946526812C912C38ECEA
:10142000A32E32E4B32E87FD06C0812C912C20EF31
:10143000A22E21E4B22E85E38C9FF0018D9FF00D4A
:101440001124EC5FF94F21A532A543A554A5C7018E
:10145000B6010E94C927A50194010E94C927F8017D
:10146000E750FB4F20813181428153810E94F92551
:101470004B015C0120E030E0A9010E94C427412C0F
:10148000512C90E8692E9FE3792E87FF06C0412CEE
:10149000512C80E8682E8FEB782E20E030E0A901F7
:1014A000C501B4010E94C427181624F0B7FAB094FD
:1014B000B7F8B09425E32C9FC0012D9F900D112407
:1014C000EC01CC5FD94FEDA0FEA00FA118A5A5019E
:1014D0009401B701C8010E94F9255B016C019B01D1
:1014E000AC01B701C8010E94C427181674F0E9A026
:1014F000FAA00BA11CA19501A601B701C8010E9489
:10150000652687FD02C0750186019701A801C30108
:10151000B2010E94C9276B017C01C5CE412C512C20
:1015200048EC642E42EC742E56CFF801E750FB4F86
:10153000108211821282138255CFF801E750FB4FBF
:10154000108211821282138250CE4FEF460FFC019F
:1015500030E020E050E0DF01A81BB90BA417B5076D
:1015600024F47191270F311DF6CFFC01E60FF11D18
:10157000319781E09081921380E008958091790401
:10158000882339F00E94BB04969587959695879598
:1015900081700895FC0101900020E9F73197AF01B7
:1015A000481B590BBC018AE796E00C9414018F92FA
:1015B0009F92AF92BF920F931F93CF93DF93CDB7BC
:1015C000DEB7A1970FB6F894DEBF0FBECDBF19A24C
:1015D000423008F44AE08E010F5D1F4F842E912C9B
:1015E000B12CA12CA50194010E94CF29E62FB901AD
:1015F000CA01EA30F4F4E05DD801EE938D01232BAB
:10160000242B252B79F790E080E0109719F0CD017D
:101610000E94CA0AA1960FB6F894DEBF0FBECDBFD6
:10162000DF91CF911F910F91BF90AF909F908F90BE
:101630000895E95CE1CFCF93DF930E94CA0AEC01E1
:1016400081EB91E00E94CA0A8C0F9D1FDF91CF9120
:1016500008950C94CA0ACF93DF93682F70E090E04E
:1016600080E04AE00E94D70AEC0181EB91E00E9401
:10167000CA0A8C0F9D1FDF91CF910895DC0196E07F
:10168000FB0101900D929A95E1F70895BC018CE958
:1016900095E00E943E0B65EA74E082EA95E00C94C6
:1016A0003E0BDC0194E0FB0101900D929A95E1F76D
:1016B000089582EA95E00E94460B66EB75E08AEB9E
:1016C00095E00E94510B66E776E086EB95E00E947C
:1016D000510B0C941004262F20612093CB0564300D
:1016E00021F0009711F481E090E061E00E94920304
:1016F0001092AC0588E28093AD050E94590B84E0FE
:101700008093CC051092CD0522E04CE150E06AE1D7
:1017100082E30E94BD0386E390E00C94D104CF9352
:10172000DF93EB010E94460BBE018AEB95E00E941D
:10173000510B66E776E086EB95E0DF91CF910C9454
:10174000510BCF93DF93EB0144E050E0BC0188EBF9
:1017500095E00E94252A892B49F462EB75E0CE01C1
:101760000E943E0B81E0DF91CF91089580E0FBCF96
:101770000F931F93CF938C018FE691E00E94460B4D
:10178000ECE9F5E088E08487C6E0C58748E050E0F2
:101790006EEE70E08AEA95E00E94D925ECEBF5E068
:1017A000DF011D92CA95E9F765EA74E082EB95E0E6
:1017B0000E943E0BB80182EC95E00E94510B66E757
:1017C00076E088EB95E00E94510B8AE290E0CF91A1
:1017D0001F910F910C94D104EF92FF920F931F93DE
:1017E000CF93DF93182F092FEB01F42EE52ECB01B9
:1017F0000E94D800BE01882309F447C088ED94E018
:101800000E948F0B8881807F803E91F08881998132
:10181000AA81BB818F3F9F4FAF4FBF4F49F044E03C
:1018200050E0BE018BEA94E00E94252A892B31F416
:101830006FE671E08CE995E00E943E0B88E08093B2
:10184000A8051092A90549E050E06AE071E08AEA33
:1018500095E00E94D9251092AC0581E18093B305F3
:10186000E092C005F092C1050093BE051093BF053C
:101870001092C2051092C4051092C505DF91CF9158
:101880001F910F91FF90EF9008958EED94E0B8CFE7
:10189000EF92FF920F931F93CF938C01ECE9F5E049
:1018A00086E191E0DF019C011D9221503040E1F77B
:1018B0008091A4046FE671E0833011F46FE874E066
:1018C00043E450E084E490E00E94EC0B6FE671E0AA
:1018D0008CE995E00E943E0B81E08093C6058093E1
:1018E000C70586E08093C805809194049091950483
:1018F000A0919604B09197048093CA059093CB056C
:10190000A093CC05B093CD05C091A404C33031F4AD
:1019100066E776E082ED95E00E94510B65EA74E09F
:1019200082EE95E00E943E0B82EB96E090935D0480
:1019300080935C04EAEEF0E084910E94A605EBEE51
:10194000F0E084910E94A605ECEEF0E084910E9404
:10195000A605EDEEF0E084910E94A60585E30E94C5
:10196000A60581E00E94A60583E0C11101C081E0C7
:101970000E94A6058DE30E94A60587E00E94A605A9
:1019800081E00E94A60585EAE82E84E0F82EC7E0F3
:10199000C15031F0D7018D917D010E94A605F8CF8D
:1019A00080910001882371F060E071E0FB010190FB
:1019B0000020E9F7BF016150714040E051E08CE048
:1019C0000E94B3050115110559F0A80164E082E3F6
:1019D0000E94B3054FE854E064E086E30E94B3053B
:1019E00087E30E94A60583E00E94A60581E00E948D
:1019F000A60583E00E94A60586E00E94A6058FEF5B
:101A00000E94A60580915C0490915D04865C9540DF
:101A1000CF911F910F91FF90EF900C94310585EDC0
:101A20008093BC008091ED039091EE03A091EF03B1
:101A3000B091F0030796A11DB11D23E0B695A795BF
:101A4000979587952A95D1F72091BC0024FD03C076
:101A50001092360408954091ED035091EE03609189
:101A6000EF037091F003452B462B472B69F300974A
:101A7000A105B10541F025E32A95F1F70000019792
:101A8000A109B109E1CF8091EC030C941306FF92F8
:101A90000F931F93CF93DF93EC01F62E08811981EA
:101AA000C8010E94E225F81621F06F2DC8010E949E
:101AB000EA25CE01DF91CF911F910F91FF900895FC
:101AC000EF92FF920F931F93CF93DF9300D0CDB788
:101AD000DEB784EB91E00E941B0B1A82198265E746
:101AE000CE0101960E94470D81E090E09A838983A0
:101AF0006EE4CE0101960E94470D84E090E09A8347
:101B0000898362E0CE0101960E94470D21E5E22E15
:101B100021E0F22E0AE010E01A830983F7016191B7
:101B20007F01CE0101960E94470D0F5F1F4F0832C3
:101B3000110591F794E0E92E96E0F92E04E610E005
:101B40001A830983F70161917F01CE0101960E94FA
:101B5000470D0F5F1F4F0939110591F789E3E82EF3
:101B600086E0F82E04EB10E01A830983F7016191F7
:101B70007F01CE0101960E94470D0F5F1F4F093E66
:101B8000110591F70F900F90DF91CF911F910F9159
:101B9000FF90EF900895EF92FF920F931F93CF93D2
:101BA000DF93E90188819981863F2EE7920709F446
:101BB00034C180F4843FFEE79F0709F462C0853F8B
:101BC0009E4709F405C1DF91CF911F910F91FF90BE
:101BD000EF900895873FEEE79E0709F4B3C18C3B71
:101BE0009F4789F70132110570F361E2CE010E942F
:101BF000A50A882341F38A81809351018B818093C8
:101C000052018C81982F91709093530181FB9927F9
:101C100090F99093540183FB992790F990936B016D
:101C200084FB992790F990936C0185FB882780F9B4
:101C300080936E018D81809369018F81809304066A
:101C40008885809305068985809306068A8580931A
:101C500039068B8580933A068C8580933B06FE017E
:101C60003D96A9E5B1E0CE014D9621912D93E8175F
:101C7000F907D9F78D8D80936A018E8D80936D0160
:101C800075C10E30110508F49ECF6EE0CE010E94A2
:101C9000A50A882309F497CF0A81902F92959F7007
:101CA0008091510198138FCF0F70809152010817C6
:101CB00008F089CFE02EF12C25E3029F800111244A
:101CC0000C5F194F2C816D8170E090E080E0CB01BA
:101CD00077276627722B2B81622B0E9412272FE613
:101CE00032E143E85AE30E94C927F801658B768BFD
:101CF000878B908F2F81688570E090E080E0CB012A
:101D000077276627722B2E81622B0E9412272FE6DF
:101D100032E143E85AE30E94C927F801618F728FCC
:101D2000838F948F898580FF04C0118A128A138A59
:101D3000148A95E39E9DF0019F9DF00D1124EC5FA8
:101D4000F94F81FD42C0108A82FF0BC095E39E9D32
:101D5000F0019F9DF00D1124EC5FF94F90899E5F7B
:101D6000908B83FF0BC095E39E9DF0019F9DF00D2E
:101D70001124EC5FF94F90899C5F908B84FB99272D
:101D800090F99093030686FB882780F980933801A9
:101D900085E38E9D80018F9D100D11240C5F194FDE
:101DA0006A857B85072E000C880B990B0E941427EF
:101DB000F801658F768F878F90A30E946A03F801E0
:101DC0006487758786879787FECE91E0908BBCCF1E
:101DD0000A30110508F4F7CE6AE0CE010E94A50A88
:101DE000882309F4F0CE8A8182958F7090915101F9
:101DF0008913E9CE8B81809329058C8180932805F6
:101E00008D81809327058E81809325058F81809316
:101E10002605888580932405D6CE0A30110508F45E
:101E2000D2CE6AE0CE010E94A50A882309F4CBCE67
:101E30000A81902F92959F70809151019813C3CE83
:101E40000F7080915201081708F0BDCE6B8110E031
:101E5000662309F46AC06857770B072E000C880BBD
:101E6000990B0E9414279B01AC0164E17EEA87E88C
:101E70009FE30E94362825E3209FF001219FF00D6B
:101E80001124EC5FF94F65A776A787A790AB25E3F0
:101E9000209FC001219F900D11248C010C5F194FD0
:101EA0006E8170E090E080E00E94142720E030E036
:101EB0004FE753E40E94C92720E030E048EC52E4A9
:101EC0000E946A26F80165A376A387A390A76F8175
:101ED00070E090E080E00E94142720E030E04FE7BF
:101EE00053E40E94C92720E030E048EC52E40E940D
:101EF0006A26F80161A372A383A394A36885685737
:101F0000770B072E000C880B990B0E9414279B015E
:101F1000AC016DEC7CEC8CE89FE30E943628F80164
:101F200061A772A783A794A74ECE85E3809FF00197
:101F3000819FF00D1124EC5FF94F15A616A617A688
:101F400010AAA5CF0630110508F43DCE66E0CE01FB
:101F50000E94A50A882309F436CE8A818093550110
:101F60008B81809356018C81809357010E94600D74
:101F7000F0E0E0E0DF91CF911F910F91FF90EF90A3
:101F800009941F920F920FB60F9211242F933F9333
:101F90004F935F936F937F938F939F93AF93BF9371
:101FA000EF93FF938AE796E00E949401FF91EF91EF
:101FB000BF91AF919F918F917F916F915F914F9161
:101FC0003F912F910F900FBE0F901F9018951F9269
:101FD0000F920FB60F9211242F938F939F93EF932D
:101FE000FF93E0918A06F0918B068081E091900644
:101FF000F091910682FD1BC09081809193068F5FC6
:102000008F7320919406821741F0E0919306F0E0DF
:10201000E658F94F958F80939306FF91EF919F912A
:102020008F912F910F900FBE0F901F901895808168
:10203000F4CF1F920F920FB60F9211242F933F935C
:102040008F939F93AF93BF938091600490916104AD
:10205000A0916204B091630430915F0423E0230FE8
:102060002D3758F50196A11DB11D20935F04809373
:10207000600490936104A0936204B0936304809120
:10208000640490916504A0916604B0916704019680
:10209000A11DB11D8093640490936504A093660410
:1020A000B0936704BF91AF919F918F913F912F9112
:1020B0000F900FBE0F901F90189526E8230F0296E1
:1020C000A11DB11DD2CF1F920F920FB60F921124F6
:1020D0002F933F934F935F936F937F938F939F9330
:1020E000AF93BF93EF93FF93E0913F01F0914001D5
:1020F0000995FF91EF91BF91AF919F918F917F9142
:102100006F915F914F913F912F910F900FBE0F9064
:102110001F9018951F920F920FB60F9211242F93B4
:102120003F934F935F936F937F938F939F93AF935F
:10213000BF93EF93FF93E0913D01F0913E0109952C
:10214000FF91EF91BF91AF919F918F917F916F918F
:102150005F914F913F912F910F900FBE0F901F9065
:1021600018951F920F920FB60F9211242F933F9341
:102170004F935F936F937F938F939F93AF93BF938F
:10218000EF93FF938091B900887F803609F44AC0AD
:10219000F0F5883209F4A7C018F5803109F49BC026
:1021A000B8F4882309F4F9C0883009F494C0FF9189
:1021B000EF91BF91AF919F918F917F916F915F91BF
:1021C0004F913F912F910F900FBE0F901F90189538
:1021D000883109F488C0803251F78093350414C0E7
:1021E000803409F49DC040F48033B9F38833F9F6A4
:1021F0008093350485ECB0C0803509F485C08835FE
:1022000009F496C0883499F60E940F0DD0CF883912
:1022100009F48CC038F5883729F050F4883611F06D
:10222000803729F683E0809336041092340457C037
:10223000883809F47BC0803919F0803809F0B7CFAD
:1022400080913404803208F071C0E091340481E060
:102250008E0F809334048091BB00F0E0EC5EFB4F66
:1022600080833DC0803B39F0E0F4803A09F479C0C6
:10227000883A09F09CCF84E08093360410921304CE
:1022800010921204E0916A04F0916B040995809118
:10229000120481110FC081E0809312041092F203A6
:1022A00009C0803C09F4A6CF883C09F4A3CF883B41
:1022B00009F07DCFE091130481E08E0F8093130429
:1022C000F0E0EE50FC4F80818093BB0090911304AE
:1022D0008091120429C080915B048093BB0085EC3F
:1022E0008093BC0064CF90915A0480915904981750
:1022F00058F5E0915A0481E08E0F80935A04F0E083
:10230000E75CFB4F8081E9CFE0915A0481E08E0FBA
:1023100080935A048091BB00F0E0E75CFB4F808320
:1023200090915A04809159049817C8F285E8D8CF43
:10233000E0915A0481E08E0F80935A048091BB0093
:10234000F0E0E75CFB4F80838091380481115CCF23
:1023500081E08093370484EA8093BC0010923604B5
:1023600026CF85EC8093BC00109236048091340413
:10237000803230F4E0913404F0E0EC5EFB4F1082E8
:102380006091340470E0E0916804F091690484E1A4
:1023900094E00995109234040ACF1092350434CF9A
:1023A000EAE7F6E01382128288EE93E0A0E0B0E064
:1023B00084839583A683B78321E931E03183208329
:1023C00025EC30E03587248724EC30E037872687FA
:1023D00020EC30E0318B208B21EC30E0338B228BF2
:1023E00022EC30E0358B248B26EC30E0378B268BCB
:1023F000118E128E138E148EE7E1F7E01382128293
:1024000084839583A683B78383EA91E09183808355
:10241000EDE4F1E0A1E5B1E014968C91149780838E
:1024200015968C911597818316968C9182830895C9
:10243000CF93DF93CDB7DEB7CA56D1090FB6F89464
:10244000DEBF0FBECDBF789484B5826084BD84B5F5
:10245000816084BD85B5826085BD85B5816085BD9F
:1024600080916E00816080936E0010928100809157
:1024700081008260809381008091810081608093DF
:102480008100809180008160809380008091B10004
:1024900084608093B1008091B00081608093B0002F
:1024A00080917A00846080937A0080917A008260C3
:1024B00080937A0080917A00816080937A00809185
:1024C0007A00806880937A001092C100109207060B
:1024D00010923C06E0918A06F0918B0682E08083A0
:1024E000E0918606F09187061082E0918806F091CF
:1024F000890683E3808310929206E0918E06F09124
:102500008F0686E08083E0918C06F0918D068081B5
:1025100080618083E0918C06F0918D0680818860D7
:102520008083E0918C06F0918D06808180688083A5
:10253000E0918C06F0918D0680818F7D808368EB21
:102540007BE080E090E00E94380383EB91E00E9402
:102550001B0B83EB91E00E941B0B83EB91E00E942D
:102560001B0B90E080E00E94E225898381E090E0EF
:102570000E94E2258A8384E090E00E94E22529817E
:102580003A8125373E4409F096C1823009F093C163
:102590008EEC91E00E941B0BF1E5EF2EF1E0FF2E97
:1025A0000AE010E0C8010E94E225D7018D937D0169
:1025B0000F5F1F4F08321105A9F704E016E068010C
:1025C000E4E6EE2EF12CC7010E94E225D6018D93A0
:1025D0006D01BFEFEB1AFB0AE9E9EE16F10499F77A
:1025E00069E3C62E66E0D62E74EBE72EF12CC70108
:1025F0000E94E225D6018D936D01BFEFEB1AFB0A15
:10260000E9EEEE16F10499F780916A018651893E50
:1026100008F44FC12091520130E090E080E0821731
:10262000930714F00C947325F8014081463108F0AB
:10263000A4C14181463108F0A0C10B5C1F4F329606
:102640004081463108F099C10196E9CF81E080933D
:10265000000683EB91E00E941B0B8CE192E00E944C
:102660001B0B83E292E00E94290B4AE069EE77E0BF
:1026700080E090E00E94D70A8AE293E00E94290B52
:102680004AE068E070E080E090E00E94D70A8AE2C9
:1026900093E00E94290B4AE064E170E080E090E062
:1026A0000E94D70A81EB91E00E94CA0A85E392E07A
:1026B0000E94290B809151010E942B0B83EB91E02A
:1026C0000E941B0B80916A018F3F19F062E00E940B
:1026D0007A0280915201833018F082E08093520197
:1026E00010926D0410926C0410926F0610926E0698
:1026F0000E94F50581E491E090936B0480936A0455
:1027000082E491E090936904809368048CE0809364
:10271000B80081E492E00E941B0B809151018E5C15
:1027200080935801309155013983209156012A83B5
:10273000909157019B838C8340918204411105C085
:102740008093310181E08093820480917A04811129
:1027500009C0309328012093290190932A0181E038
:1027600080937A0430934D0120934E0190934F0152
:102770001FB7F89480916E04811127C0E7E2F1E061
:102780008491EBE3F1E09491E82FF0E0EE0FFF1F6E
:10279000E050FF4FA591B491EC91E92321F461E061
:1027A0008AE00E944C0261E08AE00E947A028CB5C5
:1027B00080618CBD8CB580648CBD61E08DE00E9431
:1027C0007A0261E08BE00E947A0280916E048F5F52
:1027D00080936E041FBF1092700410926F0480915A
:1027E0006F0481113CC064EF71E080E090E00E94D2
:1027F00038038AE293E00E94290BF89460E08AE0B3
:102800000E944C028FEF0E941F048FEF0E941F0452
:1028100061E08AE00E944C02789462E070E080E01F
:1028200090E00E943803F89460E08AE00E944C0235
:102830008DE10E941F0480E00E941F041EB561E02C
:102840008AE00E944C027894117010936F0480917A
:1028500070048F5F80937004863008F4C0CF80913D
:102860006F0480937904882309F409C21092F80454
:1028700087E390E0C12CD12C7601C394009709F432
:1028800083C0FC0133E0F595E7953A95E1F7EE5802
:10289000FB4F282F2770B701A60104C0440F551F16
:1028A000661F771F2A95D2F72081242B208301975A
:1028B000E5CF1092000687EE91E00E941B0B82E0AC
:1028C00092E00E941B0B8EE080936A018FE0809360
:1028D0006D0183E08093040684E08093050685E023
:1028E0008093060682E08093390686E080933A065C
:1028F00089E080933B0640E050E06FE773E440934B
:10290000250650932606609327067093280680E0DC
:1029100090E0A0E2B1E48093290690932A06A09368
:102920002B06B0932C0640935A0650935B06609397
:102930005C0670935D0680935E0690935F06A0939D
:102940006006B0936106E9E5F1E08FEF819321E045
:10295000E936F207D9F782E08093520184E0809350
:10296000690181E080936C0110926E0180935401A3
:10297000809353010E94600D6CCE80E0809300062E
:10298000882309F498CF65CE6CE271E085EA94E083
:102990000E943E0B84E690E090938B0480938A041F
:1029A0000CB406FC25C061E08AE00E947A0261E076
:1029B0008AE00E944C0261E08BE00E947A0261E0B2
:1029C0008DE00E947A0260E08CE00E947A0261E071
:1029D0008BE00E944C0260E08BE00E944C0260E0C1
:1029E0008DE00E944C0280E58CBD8DB581608DBD6F
:1029F0008AE08093710461E00E947A020E942404BC
:102A00004FEF60E08FEF0E94580462E070E080E0DA
:102A100090E00E9438030E942B048DE10E941F0465
:102A200080E00E941F041EB50E942404112399F324
:102A300070E060E088E00E94960470E060E08CE066
:102A40000E9496046FEF7BE08AE00E94960460E0AB
:102A50007CE084E00E9496046FEF71E186E00E94C2
:102A6000960466E774E084E10E94530561EB88E315
:102A70000E9489046FE370E388E20E94960469EF84
:102A800077EF80E30E94960461E080EC0E94890465
:102A900042E362EC80E80E94580462E17CE086EC4C
:102AA0000E94960462E184EC0E9489046CED75E05A
:102AB0008AEC0E9496046091A50484EE0E94890429
:102AC0006091A60485EE0E9489046091A70482EEBD
:102AD0000E9489046091A80483EE0E948904609199
:102AE000A90480EE0E9489046091AA0481EE0E94EC
:102AF000890460E071E080E10E9453058FE10E944B
:102B00006D0440EC6BE180E80E94580444E06FE102
:102B100080E80E94580482E70E94A30483EB91E0BE
:102B20000E941B0B87E592E00E941B0B1092F80499
:102B3000BE016F5F7F4F86E796E00E94510B1092B7
:102B4000F6041092F50481E08093F70468E271E0E6
:102B500081EF94E00E94510B64E271E08CEE94E00E
:102B60000E94510B60E271E082E796E00E94510BF7
:102B700006E716E022E736E06BEA74E04AE756E043
:102B8000F8019191D9018D919D018095892BDB01EF
:102B90008D93BD014E175F07A1F78091D704883050
:102BA00098F4B5E08B9FF0011124E155FB4F2BEC1D
:102BB0003DE03183208328ED30E73383228391E0A9
:102BC00094838F5F8093D70464EF71E080E090E09E
:102BD0000E9438030E94BE0A882309F44BC082E792
:102BE00092E00E94290BF12CF80161918F0170E0B5
:102BF00090E080E04AE00E94D70AF3E0FF1629F057
:102C00006EE28AE796E00E94B601F39424E0F212A5
:102C1000EBCF81EB91E00E94CA0A10E000E025E3CF
:102C2000D22E809152018017110609F00CF44CC08D
:102C3000D09EC001D19E900D1124AC014C5F594F24
:102C40007A0162E0DA018C910E947A0261E0F70178
:102C500081810E947A0261E0D70112968C910E94D4
:102C60007A020115110591F001301105F9F00F5F9D
:102C70001F4FD7CF83E892E00E941B0BCECF83EB90
:102C800091E00E941B0B81EA92E0F6CF809104064E
:102C9000823041F0833041F481E061E778E00E94C6
:102CA000F800E5CF80E0F9CF8FEFF7CF80913906BC
:102CB000823031F0833031F481E064E778E0EFCFA7
:102CC00080E0FBCF8FEFF9CF80916901843008F06D
:102CD0004DC3823008F0EAC309E511E099E6E92E18
:102CE00091E0F92E813009F4D5C383EB91E00E9485
:102CF0001B0B80E593E00E94290B809104060E9443
:102D00002B0B8BE593E00E94290B809105060E9416
:102D10002B0B85E693E00E94290B6091060670E07C
:102D200090E080E04AE00E94D70A83EB91E00E94A5
:102D30001B0B8FE693E00E94290B80916A010E9491
:102D40002B0B8AE793E00E94290B60916D0170E0E4
:102D500090E080E04AE00E94D70A83EB91E00E9475
:102D60001B0B83EB91E00E941B0B89E893E00E9410
:102D70001B0B83EB91E00E941B0B0E94BE0A882371
:102D800009F427C180918E04882379F060918C0426
:102D900070918D046115710509F0F8C36FEF7BE048
:102DA0008CE00E94960410928E0489E30E94A30492
:102DB000F12CE12C8823D9F160918C0470918D0461
:102DC00080E00E949604BE016F5F7F4F86E090E036
:102DD0000E94310489819A8190938D0480938C04A0
:102DE0008D819E817C01F0E8EF22FF2487FF13C0D4
:102DF0008B819C810497E0908A04F0908B0421E001
:102E0000E21AF1088E159F0508F47C016CE975E063
:102E1000C7010E943104F701E456FA4F108281E0A5
:102E200080938E0440E46EE180E80E945804809113
:102E3000F804882369F08091A404823009F4AFC3B8
:102E400008F0A7C3882309F432C4813009F44EC4C2
:102E5000E114F10409F0D9C48091F704857099F068
:102E60008091F5049091F604892B69F40E94BB04CB
:102E700082FF09C081EF94E00E94B80B8091F704B3
:102E800088608093F7048091F5049091F604019690
:102E90009093F6048093F5048091F004813009F05A
:102EA0006EC08091F70481FF6AC082E08093F004D5
:102EB000809133018F5F80933301182F1F7186EE4D
:102EC00094E00E94D80066EE74E0882309F49AC466
:102ED00088ED94E00E948F0B08E00093A805109203
:102EE000A90549E050E06AE071E08AEA95E00E94B5
:102EF000D9258CE28093AD0586E08093B3050E94CE
:102F000010041092C0051092C1058BE08093BE059D
:102F10001093BF05E2ECF5E0DF011D920A95E9F799
:102F2000809132018093C4058D5F8093320180E6E9
:102F30008093CA0582E08093CB0593E09093CC0503
:102F40001092CD051092CE051092CF051092D005AB
:102F50001092D1058093D20594E09093D30580938D
:102F6000D40586E28093D50522E040E250E06AE194
:102F700082E30E94BD038AE390E00E94D1048CEEBC
:102F800094E00E94D800882379F08091EB048111AD
:102F90000BC08091EA04811107C08CEE94E00E947E
:102FA000B80B81E08093EA0486EE94E00E94D8009A
:102FB000882379F08091E50481110BC08091E404AD
:102FC000811107C086EE94E00E94B80B81E08093E7
:102FD000E4048091380104E016E0312C212C882390
:102FE00009F49AC749E055E0A7965FAF4EAFA7979F
:102FF00059EF252E54E0352EA9961FAE1EAEA99787
:1030000080915201A996AEADBFADA9978A171B0654
:1030100009F014F40C94F11FF8018089843031F028
:10302000853009F48CC5823009F0EEC5F801838142
:10303000882309F4D6C520E030E0A90165897689A6
:103040008789908D0E94C42718160CF0CAC5A796D0
:10305000AEADBFADA797FC901196EC90119712966C
:10306000DC9012971396CC900E946A03A9962EAD1D
:103070003FADA997220F331F220F331FF901EF5FD6
:10308000FA4F5F0140805180628073806419750936
:1030900086099709623371058105910508F44FC1CE
:1030A0000E946A03D5016D937D938D939C93139732
:1030B000F801458856886788708C2481358146815F
:1030C0005781C301B2010E94F825A5966CAF7DAF70
:1030D0008EAF9FAFA59720E030E0A9010E94C427E2
:1030E000A5968CAC9DACAEACBFACA597181624F0E1
:1030F000B7FAB094B7F8B0942FE832EC45E75CE348
:10310000C301B2010E94C927A50194010E9465264E
:1031100087FF60C553014201B7FAB094B7F8B09485
:10312000A5019401A5966CAD7DAD8EAD9FADA59723
:103130000E94652687FD14C0A5962CAD3DAD4EAD11
:103140005FADA597C301B2010E94652653014201FC
:1031500087FD06C0A5968CAC9DACAEACBFACA59768
:10316000D8019D962D913D914D915C91D097A5965A
:103170002CAF3DAF4EAF5FAFA59720E030E0A90187
:10318000A5966CAD7DAD8EAD9FADA5970E94C42771
:1031900018160CF00CC5A5019401A5966CAD7DAD7B
:1031A0008EAD9FADA5970E94C927F1012081318185
:1031B000428153810E94F925A5966CAF7DAF8EAFF9
:1031C0009FAFA5972DEC3CEC4CEC5DEB0E94652687
:1031D00087FDE2C42DEC3CEC4CEC5DE3A5966CADB8
:1031E0007DAD8EAD9FADA5970E94C427181654F4EF
:1031F0002DEC3CEC4CEC5DE3A5962CAF3DAF4EAF17
:103200005FAFA597A5962CAD3DAD4EAD5FADA59733
:10321000D1012D933D934D935C93139720E030E0C3
:10322000A901C501B4010E94C42718160CF4C5C435
:10323000A50194015058A5962CAF3DAF4EAF5FAF9E
:10324000A59720E030E040E85EE3C301B2010E94B0
:10325000C927A5962CAD3DAD4EAD5FADA5970E949B
:103260006526412C512C28EC622E22E4722E87FD1B
:1032700006C0412C512C90EF692E91E4792ED80193
:1032800099962D913D914D915C919C97C501B4010A
:103290000E94C927A30192010E94C927F101208140
:1032A0003181428153810E94F9254B015C0120E06C
:1032B00030E040E050EC0E94652687FD85C420E0A8
:1032C00030E040E050E4C501B4010E94C427181664
:1032D0002CF4812C912CA12C80E4B82EA501940112
:1032E0006F2D7E2D8D2D9C2D0E94F9254B015C01AB
:1032F000D8019596FC9095979696EC909697979610
:10330000DC9097979896CC902F2D3E2D4D2D5C2DCF
:103310000E94652687FD13C0F801F1A0E2A0D3A0AA
:10332000C4A02F2D3E2D4D2D5C2DB401C5010E9452
:10333000C427181624F0F82CE92CDA2CCB2C8F2D6E
:103340009E2DAD2DBC2DA796EEADFFADA79780832A
:103350009183A283B3836F2D7E2D8D2D9C2D0E9492
:10336000DC26072E000C880B990BF3C3843009F080
:10337000BCCC83EB91E00E941B0B86E193E00E94A2
:103380001B0B81E28093110516E001E0B1E2FB2EF8
:103390008091120581111DC08AE293E00E94290BE1
:1033A00000937106F092700610926F0610926E06EE
:1033B00087E197E00E94BF0691E0811190E0909331
:1033C000120564EF71E080E090E00E943803115034
:1033D000F9F680911205811128C080E280931105D1
:1033E00016E001E08091120581111FC08AE293E08E
:1033F0000E94290B8091110500937106809370063D
:1034000010926F0610926E0687E197E00E94BF0649
:1034100091E0811190E09093120564EF71E080E0FB
:1034200090E00E9438031150E9F683EB91E00E948E
:103430001B0B80911205882309F4A5C0809111050A
:1034400011E0109371068093700610926F0610922F
:103450006E0690E080E00E94BA0690E080E00E9454
:10346000BA0687E197E00E94BF061093710610929A
:103470006F0610926E0681E090E00E94BA0690E01E
:1034800080E00E94BA0687E197E00E94BF068CE2C6
:1034900093E071C0F80181918F018F3F19F061E0D5
:1034A0000E947A02E016F106A9F71FCC83EB91E0A7
:1034B0000E941B0B80EC92E00E941B0B16E001E0C7
:1034C00080E2F82E8091230581111DC08AE293E0ED
:1034D0000E94290B00937106F092700610926F06FD
:1034E00010926E0687E197E00E94BF0691E081117D
:1034F00090E09093230564EF71E080E090E00E94FB
:1035000038031150F9F683EB91E00E941B0B809178
:103510002305882399F182EE92E00E941B0B87E13C
:1035200097E0909342018093410180E280934301B0
:10353000109249011092480148E451E064E00E9471
:10354000A60710924B0110924A014AE451E066E04E
:10355000809143010E94A6078FEF9FEF9093470150
:103560008093460146E451E062E0809143010E946D
:10357000A60783EB91E00E941B0BB7CB8AEF92E08A
:103580000E941B0BF6CF8CE393E0F5CF61507109DD
:1035900007CC833009F456C0843009F059CC65E07B
:1035A000C7010E946605882309F4C9C0809193046D
:1035B000811108C088E30E94A304682F6E7F88E30E
:1035C0000E94890466ED75E086E796E00E94510B43
:1035D000E6EBF6E0970124563A4F69018F010E5F42
:1035E0001F4FB1808081863009F4FBC008F0BEC057
:1035F000813009F4ECC0833009F4EFC0F801EB0D21
:10360000F11DEC15FD0550F30E946A0360939C04C4
:1036100070939D0480939E0490939F048091F10485
:10362000882361F01092F6041092F50481E08093F3
:10363000F70461EF74E0CB010E94510B83E08093AB
:10364000A40406CC8090A0049090A104A090A204B1
:10365000B090A3043FEF83169306A306B30609F4C4
:10366000F7CB0E946A0300919C0410919D04209165
:103670009E0430919F04601B710B820B930B6815A5
:1036800079058A059B0508F4E3CB86E796E00E945E
:10369000480C84E08093A4040E946A036093980419
:1036A0007093990480939A0490939B04D1CB0E94C9
:1036B0006A036093940470939504809396049093A6
:1036C0009704E6E7F6E084E0DF011D928A95E9F7CA
:1036D00090E080E00E94480C88E30E94A304682FD9
:1036E000616088E30E94890481E0D4CF62E0C70171
:1036F0000E946605882319F166ED75E0CE010196FA
:103700000E94510BE6EBF6E0C70184569A4FBF01C9
:103710006E5F7F4F21813081363351F48FE894E022
:103720000E94510BCE0101960E94480C82E0B2CF5C
:10373000FB01E20FF11DE817F90748F3F3CF0E94F0
:103740006A03009198041091990420919A04309191
:103750009B04601B710B820B930B613177428105D7
:10376000910508F475CB1092A40472CB8A3331F022
:103770008F3F09F449CF833309F040CF1092A00462
:103780001092A1041092A2041092A304F801C8019F
:10379000049620E030E0A9016191542F432F322F8D
:1037A0002227260F311D411D511DE817F907A1F7EA
:1037B0002F3F8FEF380748075807B9F42093A0042C
:1037C0003093A1044093A2045093A30417CFB801EF
:1037D00082E796E00E94510B11CFB80181EF94E08F
:1037E000F9CFB8018CEE94E0F5CFA8EEB3E00E94DB
:1037F000F1296093A0047093A1048093A204909394
:10380000A304FCCE8EED94E065CBB9E2EB16F10497
:1038100008F4DFCB8091A805883009F0DACB8091DD
:10382000A905863011F00C94892544E050E066E744
:1038300076E082EC95E00E94252A892B09F0C9CB1D
:103840008091B105813029F582EA95E00E94460B0E
:103850001092B00582E08093B10562EB75E08CEBCD
:1038600095E00E943E0B65EA74E082EB95E00E94D1
:103870003E0B68EB75E082EC95E00E94510B66E729
:1038800076E088EB95E00E94510B8AE290E00E947E
:10389000D1048091F70483FF0DC01091B10512305F
:1038A00049F46EED74E081EF94E00E94A10B811168
:1038B0001093F7048091EB04811111C08091EA0408
:1038C000882369F068ED74E08CEE94E00E94A10B0F
:1038D000882329F081E08093EB041092EA04809120
:1038E000E504811176CB8091E404882309F471CB3F
:1038F00068ED74E086EE94E00E94A10B882309F441
:1039000068CB81E08093E5041092E40462CB90914F
:10391000D704911122C0E6E3EE16F10408F459CB66
:103920000091B305063009F054CB8091C0058B306F
:1039300009F0B3C044E050E066EE74E086EB95E039
:103940000E94252A892B09F044CB1091CB0512FF48
:1039500058C085E08093F0043CCB8131E1F67FEAEA
:10396000C72E74E0D72EB12CA12C20E08091D70473
:103970008A151B0409F00CF440C0D60112963C9144
:10398000129713969C9113978091C005AA969FAFAA
:10399000AA97AB961FAEAB97AB96EEADFFADAB97CC
:1039A0008E171F0619F58091C10583131FC0149649
:1039B0009C9014979920D1F00091C20510E0102F2F
:1039C00000272091C3052850330B020F131F40918D
:1039D000BE055091BF05542745275427ED91FC9112
:1039E00026EC35E066EB75E00995292DFFEFAF1A5F
:1039F000BF0A35E0C30ED11CB9CF222309F48BCF07
:103A0000E8CA0E9477032091F004223091F5212F1B
:103A100020711271123109F560E090E080E00E949F
:103A20006B0B88E18093CB0583E08093F0041092C8
:103A3000AC0588E28093AD050E9410041092CE057B
:103A40001092CF0522E04CE150E06AE182E30E944F
:103A5000BD0386E390E00C94D52531E03093F0046B
:103A60000196222311F090E080E064E00E946B0B4D
:103A7000B0CA253009F4ADCA10FF0AC0233009F4DA
:103A8000A8CA69E001960E946B0B0093F004A1CADA
:103A900060E0009709F49DCAE9CF81119ACA80912C
:103AA000C105803509F095CA1091CB0511FF3AC0C8
:103AB0001092AC058CE28093AD050E94590B82E117
:103AC0008093CB0560E081E090E00E949203109229
:103AD000C2051092C305809132018093C4051092F3
:103AE000C5058D5F8093320182E08093D20584E02A
:103AF0008093D30585E08093D4051092D50590E698
:103B00009093CA058093CC0588E78093CD0522E089
:103B100040E250E06AE182E30E94BD038AE390E064
:103B20000C94D52514FF55CA0E947703892B09F000
:103B300050CA10FF4ECA60E090E080E097CF60E08E
:103B4000A8968FADA8970E947708BC01990F880BA3
:103B5000990B0E941427D80118966D937D938D932D
:103B60009C931B97A9962EAD3FADA9972F5F3F4F12
:103B7000A9963FAF2EAFA9970B5C1F4FA7964EADEE
:103B80005FADA7974C5F5F4FA7965FAF4EAFA7970C
:103B900054E0250E311C34CA8DEC9CECACECBDEB32
:103BA000A5968CAF9DAFAEAFBFAFA5972BCBF10164
:103BB000108211821282138231CBA5968CAE9DAEFB
:103BC000AEAEBFAEA5973DCB812C912CA12CB0EC15
:103BD000BB2E84CBD1011D921D921D921C92139776
:103BE000AECBA796AEADBFADA7971D921D921D920D
:103BF0001C921397F1011082118212821382F12C10
:103C0000E12CD12CC12CA7CB8381882309F47EC160
:103C100020E030E0A901658976898789908D0E942E
:103C2000C42718160CF072C1A796AEADBFADA7970A
:103C30008D909D90AD90BC900E946A03A9962EAD88
:103C40003FADA997220F331F220F331FF901EF5FFA
:103C5000FA4F7F014080518062807380641975093A
:103C600086099709623371058105910508F41EC123
:103C70000E946A03D7016D937D938D939C93139754
:103C8000F80185889688A788B08C24813581468183
:103C90005781C501B4010E94F8252B013C0120E0A9
:103CA00030E0A9010E94C42773016201181624F0B4
:103CB000F7FAF094F7F8F0942FE832EC45E75CE37C
:103CC000C501B4010E94C927A70196010E9465267B
:103CD00087FF12C175016401F7FAF094F7F8F094C8
:103CE000A7019601C301B2010E94652687FD0CC0A1
:103CF000A3019201C501B4010E946526730162010E
:103D000087FF02C075016401D8019D964D905D90BA
:103D10006D907C90D09720E030E0A901C301B20102
:103D20000E94C42718160CF0E1C0A7019601C30138
:103D3000B2010E94C927F101208131814281538162
:103D40000E94F9252B013C0120E030E048EC52ECC8
:103D50000E94652687FDC3C020E030E048EC52E4B5
:103D6000C301B2010E94C427181634F4412C512C0F
:103D7000F8EC6F2EF2E47F2ED1014D925D926D92A0
:103D80007C92139720E030E0A901C701B6010E94A0
:103D9000C42726013701181624F077FA709477F8B3
:103DA000709420E030E040E85EE3C501B4010E9479
:103DB000C927A30192010E946526812C912C78ECE1
:103DC000A72E72E4B72E87FD06C0812C912C60EFE0
:103DD000A62E61E4B62ED80199962D913D914D9174
:103DE0005C919C97C701B6010E94C927A501940167
:103DF0000E94C927F10120813181428153810E94B3
:103E0000F9254B015C0120E030E0A9010E94C427A4
:103E1000412C512C50E8652E5FE3752E87FF06C0BC
:103E2000412C512C40E8642E4FEB742E20E030E002
:103E3000A901C501B4010E94C427181624F0B7FADD
:103E4000B094B7F8B094D8019596CC909597969683
:103E5000DC9096979796EC9097979896FC90A50192
:103E60009401B601C7010E94F9254B015C019B0139
:103E7000AC01B601C7010E94C42718167CF0F801F6
:103E8000C1A0D2A0E3A0F4A09601A701B401C5018E
:103E90000E94C427181614F0640175019601A70149
:103EA000C301B2010E94C9274B015C01A796AEADC8
:103EB000BFADA7978D929D92AD92BC921397C5010D
:103EC000B4010E94DC26072E000C880B990B0E947F
:103ED0001427F801608771878287938743CE412C2E
:103EE000512CE8EC6E2EE2EC7E2E46CFF1011082D2
:103EF00011821282138246CFD1011D921D921D9212
:103F00001C921397812C912C5401D0CFF101108277
:103F1000118212821382F6CF80915201821513040E
:103F200009F00CF45EC0D80150968C915097853002
:103F3000A9F461E0822D0E947708BC01990F880BDB
:103F4000990B0E941427F8016087718782879387F5
:103F5000FFEF2F1A3F0A0B5C1F4FDECF5D96CD900F
:103F6000DD90ED90FC909097F801C086D186E286B6
:103F7000F38620E030E0A901C701B6010E94652662
:103F8000412C512C30E8632E3FE3732E87FF06C08F
:103F9000412C512C20E8622E2FEB722E20E030E0D5
:103FA000A901C701B6010E94C427181624F0F7FA28
:103FB000F094F7F8F094D80191968D909D90AD9083
:103FC000BC909497A7019601C501B4010E94652693
:103FD00087FFBECFA3019201C501B4010E94C9278A
:103FE000B2CF0E946A030091390110913A012091E9
:103FF0003B0130913C01601B710B820B930B6233D0
:1040000071058105910508F4F6C30E946A03609367
:10401000390170933A0180933B0190933C0194E005
:10402000692E96E0792E8301F12CE12C80915201CA
:104030008E151F0409F00CF444C00E946A03D801D5
:104040001C968D909D90AD90BC901F976819790932
:104050008A099B09603A7F408105910580F5F80146
:1040600085889688A788B08C20E030E0A901C5013A
:10407000B4010E94C427181624F48091030681110C
:1040800014C0D80150968C91843049F420E030E07F
:10409000A901C501B4010E94C427181674F08091CB
:1040A000380181110CC080910306F8018383FFEF72
:1040B000EF1AFF0A0B5C1F4FB9CF81E0F6CF80E00B
:1040C000F4CF0E946A03009110061091110620910E
:1040D000120630911306601B710B820B930B603A32
:1040E0007F408105910508F06EC000912905E090A0
:1040F000280580916901823009F439C108F082C035
:10410000813009F4EFC07EE8C72E75E0D72E04E0B9
:1041100016E0F12CE12CC701880F991F9C012A564B
:104120003A4F5901D9018D919C91892B09F477C29D
:104130000E946A03F6016083718382839383F894FB
:10414000D5012D913C91F80181899289A389B48987
:10415000820F931FA11DB11D818B928BA38BB48BFA
:10416000D50111961C921E92F701E457FA4FB081C7
:10417000A896BFAFA8974B2E512CDE01D1969D017A
:1041800090E080E0ECE0EE9DB001EF9D700D112419
:10419000A896FFADA8978F1708F075C1FB01E80F2F
:1041A000F91FEE0FFF1FEE0FFF1FE45DFA4F808037
:1041B0009180A280B380F90181929192A192B192F3
:1041C0009F010196E5CF0E946A0300914506109178
:1041D00046062091470630914806601B710B820B02
:1041E000930B603A7F408105910508F47ECF0091E2
:1041F000270580912605082BE09025058091240550
:10420000E82A77CF833009F4E6C0843009F07BCF09
:1042100080911205882309F476CFF12CD12C90E0FF
:1042200080E021E030E010E06E2D70E0A901082E62
:1042300002C0440F551F0A94E2F7F801E423F52366
:104240004E175F0789F4FC01EF5AFE4FA085EA2F55
:10425000F0E0A83008F404C13897D90102C0AA0FD1
:10426000BB1FEA95E2F7FA2AFB01E423F5234E1778
:104270005F0781F4FC01EF5AFE4F4089E42FF0E024
:10428000483008F4F4C03897A90101C0440FEA95FA
:10429000EAF7F42A01968830910541F6809153019E
:1042A000882311F0D094F0948091110591E09093BF
:1042B00071068093700610926F0610926E0682E16E
:1042C00090E00E94BA066D2D87E197E00E948B0670
:1042D0006F2D87E197E00E948B0687E197E00E94AF
:1042E000BF0611CF89E5A82E81E0B82ED12CC12CB4
:1042F00010E0FF24F394D5018D915D018F3FD9F437
:10430000BFEFCB1ADB0AE8E0CE16D104A1F711E625
:10431000C12E11E0D12E10E000E0F12CBB24B394AB
:10432000D6018D916D018F3FA1F40F5F1F4F0830B3
:104330001105B1F7E8CE6091530198010C2C02C031
:10434000359527950A94E2F720FF6F250E944C02CD
:10435000D7CF609153019701002E02C03595279564
:104360000A94E2F720FF6B250E944C02DECF809179
:104370002305882309F4C7CEA3E1AA2EA5E0BA2E0F
:10438000B5E8CB2EB1E0DB2EF12CE12C10E098014A
:104390000E2C02C0359527950A94E2F7B22FB17022
:1043A0009B2EF50181915F01B81751F0D6018C91D8
:1043B00060E020FF61E00E94E507F50131979082FF
:1043C000BFEFEB1AFB0AEFEFCE1ADE0AF8E0EF16AA
:1043D000F104E9F698CE80912305882309F493CE61
:1043E000E3E18E2EE5E09E2EF5E7AF2EF1E0BF2E45
:1043F000D12CC12CF12C10E028E0C216D1042CF5F0
:10440000C8010C2C02C0959587950A94E2F7382FC5
:104410003170532ED4018D914D01851559F0F50160
:10442000808160E0511001C061E00E94E507F40165
:1044300031975082FFEFCF1ADF0A2FEFA21AB20A8C
:1044400030E1C316D104C1F65ECEC6010897A701BC
:1044500002C0559547958A95E2F74170542EDACF00
:10446000F90101C0EE0FAA95EAF7DE2AFDCEF901A7
:1044700002C0EE0FFF1F4A95E2F7DE2A0BCFEE24B3
:10448000E394F12C48CE78944114510409F4C7C048
:10449000FE01319690E080E01F018D909D90AD90DF
:1044A000BD9081929192A192B19201968415950549
:1044B000A4F3FE01359621E030E024153505ACF576
:1044C000DF018D909D90AD90BD90A796BFAFAEAF30
:1044D000A797C9010197DF017E916E915E914E9180
:1044E00084169506A606B70648F440835183628376
:1044F00073830197FD018F3F980769F7FC0131969F
:10450000EE0FFF1FEE0FFF1F41E050E04C0F5D1F4D
:10451000E40FF51F80829182A282B3822F5F3F4F0A
:10452000A796EEADFFADA797C8CF55944794F2017B
:10453000EE0FFF1FEE0FFF1FE20DF31D6081718173
:1045400082819381A8965FADA89750FD16C0A1E027
:104550004A1A5108440C551C440C551C420C531C5F
:10456000F20180809180A280B380680D791D8A1D40
:104570009B1D9695879577956795611571058105C2
:10458000910509F44CC00E9412279B01AC0160E028
:1045900074E284E799E40E946A262DEC3CEC4CE43A
:1045A0005FE30E94C9274B015C012DEC3CEC4CE41D
:1045B0005EE3D801D1966D917D918D919C91D497B8
:1045C0000E94C9279B01AC01C501B4010E94F925D5
:1045D0001B012C01F80121AA32AA43AA54AA818CFA
:1045E000928CA38CB48C20E030E0A901C501B40109
:1045F0000E94C42718169CF420E030E040E752E403
:10460000C201B1010E94C927A50194010E946A2636
:10461000D80114966D937D938D939C9317970E9468
:104620006A03F60181909190A190B1906F01681991
:1046300079098A099B09613A7F408105910528F42F
:10464000D80113968C9181112CC0F8011482158227
:104650001682178211AA12AA13AA14AAF894F701B3
:10466000E457FA4F1082F701E65DFA4F108290E0AE
:1046700080E0BCE0BE9D9001BF9D300D1124F9018A
:10468000E80FF91FEE0FFF1FEE0FFF1FE45DFA4F5B
:10469000108211821282138201968C30910579F773
:1046A00078940B5C1F4FEA94EF2809F0E8CEF12CC8
:1046B000E12CDD24D394809152018E151F0409F062
:1046C0000CF476C0D30118968D909D90AD90BC905F
:1046D0001B9720E030E04FE753ECC501B4010E9486
:1046E000652601E01FEF87FD11C020E030E04FE7B5
:1046F00053E4C501B4010E94C4270FEF10E018165F
:104700002CF0C501B4010E94DC268B01F3018089E5
:104710008230D9F158F48823D1F0813059F0BFEFBD
:10472000EB1AFB0AE5E36E0E711CC5CF843069F10C
:104730008530A9F760915401F30181819381992318
:10474000F1F017FD2AC00E944C02B80114C060911C
:104750005401818117FD08C00E944C02B801F30189
:1047600082810E94B602DBCF6D250E944C02662733
:104770007727601B710BD30112968C91F2CF6D25B8
:104780000E944C026FEF70E0F6CFF3018381882323
:1047900061F0609154018181D4CF6D250E944C025B
:1047A00066277727601B710BDACF70E060E0E3CFFC
:1047B000109202061092010680916D018F3FD9F090
:1047C0008E3008F08E508770806480937C008091DA
:1047D0007A00806480937A0080917A0086FDFCCF15
:1047E0009091780080917900892798278927909364
:1047F0000206809301060E946A0300913401109121
:1048000035012091360130913701601B710B820B0D
:10481000930B693C71058105910508F44BC10E9419
:104820006A0360933401709335018093360190934D
:10483000370194E0E92E96E0F92ED12CC12C8E019F
:10484000015F1F4F20E9B22E3EE7A32E8091510158
:10485000909152019C151D0409F00CF49EC0B98280
:10486000AA82F0E18F9FC00111248C298B8320E064
:1048700030E04AE754E4D70114966D917D918D9113
:104880009C9117970E94C9270E94E3266C837D8321
:104890008E83F701418C528C638C748C20E030E065
:1048A000A901C301B2010E94C42718160CF071C0FF
:1048B000D70151966D917D918D919C9154970E9455
:1048C000122720E030E040E251E40E94C927A30112
:1048D00092010E946A260E94E3266F837887898767
:1048E000F70160857185828593850E94DC266A8741
:1048F0007B871C860E946A03D7011C964D905D90B1
:104900006D907C901F976419750986099709603A24
:104910007F408105910518F48C8581608C8720E0AB
:1049200030E040E251E4F70161A972A983A994A99A
:104930000E94C9270E94E3266D877E87FE0131967B
:1049400090E080E02191820F911D0E171F07D1F793
:104950008F870E94BE0A8823A9F04FE255E76DE4D5
:1049600071E083E094E10E94EC0B8FE0FE01319650
:10497000A6ECB5E001900D928A95E1F78FE090E00A
:104980000E943105FFEFCF1ADF0A25E3E20EF11C8A
:104990005DCF1F8218861986A3CF91E999839EE780
:1049A0009A838B8390910106809102069C838D836C
:1049B0001E821F82188619861A8682E08B8785E7F9
:1049C0008C878EE48D871E8620916A012F3F09F423
:1049D00087C030E0F901EB5BFE4F8491F901EF5C99
:1049E000FE4FF490F901E35EFE4FE490EE2009F4EF
:1049F00071C081110E942302EE2DF0E0EE0FFF1F27
:104A0000ED5EFE4FA591B491EC91FE2231E020E0E5
:104A100009F430E0832F922F282F217030916B0101
:104A2000332309F45AC030919B05231751F0892B89
:104A300031F080919A0591E0892780939A0520931F
:104A40009B0580919A05882319F08E8581608E8759
:104A50000E94BE0A882319F08E8580618E8780911E
:104A60000006882319F08E8580628E87FE013196BC
:104A700090E080E02191820F911D0E171F07D1F762
:104A80008F870E94BE0A8823A9F04FE255E76DE4A4
:104A900071E083E094E10E94EC0B8FE0FE0131961F
:104AA000A6ECB5E001900D928A95E1F78FE090E0D9
:104AB0000E94310580E090E0892B11F40C94BD1622
:104AC0000E948001882311F40C94BD160E940000FE
:104AD0000C94BD1690E080E09FCF20939A05B1CF53
:104AE00010929A05AECF80916901813011F00C943B
:104AF0002613E9E5F1E029E631E081918651893E0E
:104B000010F40C94BD142E173F07B9F781E00C94F4
:104B1000BE1439E2E316F10411F40C94E917811183
:104B20000C94E9178091AA05853411F00C94E917CB
:104B300044E050E066E776E08AEB95E00E94252AA3
:104B4000892BB1F044E050E06BEA74E08AEB95E029
:104B50000E94252A892B61F044E050E06FE671E065
:104B60008AEB95E00E94252A892B11F00C94E91715
:104B70008091B305813011F00C94871C9091BE0593
:104B8000983011F00C94871C0E94590B1092BE05AE
:104B90008091C005883F28F09091C1059F5F909358
:104BA000C105885F8093C005C7010E94D1040C94A1
:104BB000E917FB01DC0102C005900D924150504005
:104BC000D8F70895F999FECF92BD81BDF89A99273B
:104BD00080B50895262FF999FECF1FBA92BD81BDE9
:104BE00020BD0FB6F894FA9AF99A0FBE019608956F
:104BF0005058BB27AA270E9410260C948A270E948F
:104C00007C2738F00E94832720F039F49F3F19F465
:104C100026F40C9479270EF4E095E7FB0C947327A7
:104C2000E92F0E949B2758F3BA176207730784077E
:104C3000950720F079F4A6F50C94BD270EF4E095C5
:104C40000B2EBA2FA02D0B01B90190010C01CA0146
:104C5000A0011124FF27591B99F0593F50F4503EF1
:104C600068F11A16F040A22F232F342F4427585FE3
:104C7000F3CF469537952795A795F0405395C9F7FB
:104C80007EF41F16BA0B620B730B840BBAF09150B3
:104C9000A1F0FF0FBB1F661F771F881FC2F70EC052
:104CA000BA0F621F731F841F48F487957795679525
:104CB000B795F7959E3F08F0B0CF9395880F08F011
:104CC0009927EE0F9795879508950E944F2708F42E
:104CD00081E008950E947E260C948A270E948327F3
:104CE00058F00E947C2740F029F45F3F29F00C9493
:104CF000732751110C94BE270C9479270E949B278F
:104D000068F39923B1F3552391F3951B550BBB27FA
:104D1000AA2762177307840738F09F5F5F4F220F3F
:104D2000331F441FAA1FA9F335D00E2E3AF0E0E836
:104D300032D091505040E695001CCAF72BD0FE2F80
:104D400029D0660F771F881FBB1F26173707480714
:104D5000AB07B0E809F0BB0B802DBF01FF279358CC
:104D60005F4F3AF09E3F510578F00C9473270C94F6
:104D7000BE275F3FE4F3983ED4F386957795679519
:104D8000B795F7959F5FC9F7880F911D9695879501
:104D900097F90895E1E0660F771F881FBB1F621720
:104DA00073078407BA0720F0621B730B840BBA0BDE
:104DB000EE1F88F7E09508950E94E3266894B111EC
:104DC0000C94BE2708950E94A32788F09F5798F05F
:104DD000B92F9927B751B0F0E1F0660F771F881F00
:104DE000991F1AF0BA95C9F714C0B13091F00E941A
:104DF000BD27B1E008950C94BD27672F782F882731
:104E0000B85F39F0B93FCCF3869577956795B39540
:104E1000D9F73EF490958095709561957F4F8F4FAF
:104E20009F4F0895E89409C097FB3EF490958095B4
:104E3000709561957F4F8F4F9F4F9923A9F0F92F60
:104E400096E9BB279395F695879577956795B795DE
:104E5000F111F8CFFAF4BB0F11F460FF1BC06F5FC4
:104E60007F4F8F4F9F4F16C0882311F096E911C0D6
:104E7000772321F09EE8872F762F05C0662371F0F7
:104E800096E8862F70E060E02AF09A95660F771F0B
:104E9000881FDAF7880F9695879597F90895990FE7
:104EA0000008550FAA0BE0E8FEEF16161706E807F4
:104EB000F907C0F012161306E407F50798F0621B15
:104EC000730B840B950B39F40A2661F0232B242BEA
:104ED000252B21F408950A2609F4A140A6958FEF09
:104EE000811D811D089597F99F6780E870E060E05B
:104EF00008959FEF80EC089500240A941616170673
:104F000018060906089500240A94121613061406BA
:104F100005060895092E0394000C11F4882352F01D
:104F2000BB0F40F4BF2B11F460FF04C06F5F7F4FD5
:104F30008F4F9F4F089557FD9058440F551F59F0BC
:104F40005F3F71F04795880F97FB991F61F09F3F76
:104F500079F087950895121613061406551FF2CF9F
:104F60004695F1DF08C0161617061806991FF1CFEF
:104F700086957105610508940895E894BB27662716
:104F80007727CB0197F908950E944F2708F48FEFF8
:104F900008950E94DC270C948A270E947C2738F011
:104FA0000E94832720F0952311F00C9473270C9412
:104FB000792711240C94BE270E949B2770F3959F9C
:104FC000C1F3950F50E0551F629FF001729FBB2700
:104FD000F00DB11D639FAA27F00DB11DAA1F649F9C
:104FE0006627B00DA11D661F829F2227B00DA11D4F
:104FF000621F739FB00DA11D621F839FA00D611DD5
:10500000221F749F3327A00D611D231F849F600DF5
:10501000211D822F762F6A2F11249F5750409AF01E
:10502000F1F088234AF0EE0FFF1FBB1F661F771FAA
:10503000881F91505040A9F79E3F510580F00C9475
:1050400073270C94BE275F3FE4F3983ED4F3869514
:1050500077956795B795F795E7959F5FC1F7FE2B15
:10506000880F911D9695879597F90895FA01EE0F8F
:10507000FF1F309621053105A1F16115710561F41D
:105080008038BFE39B0749F168949038810561F04F
:105090008038BFEF9B0741F099234AF5FF3FE105B8
:1050A0003105210519F1E8940894E795D901AA235F
:1050B00029F4AB2FBE2FF85FD0F310C0FF5F70F460
:1050C000A695E0F7F73950F019F0FF3A38F49F77DA
:1050D0009F930DD00F9007FC9058089546F00C94C4
:1050E000792760E070E080E89FE308954FE79F77BD
:1050F0005F934F933F932F930E9431292F913F91BC
:105100004F915F910E94C9270C948E2829F416F0C4
:105110000C9473270C94BD270C9479270E94A32725
:10512000A8F39638A0F707F80F92E8942BE33AEA31
:1051300048EB5FE70E94DF270F920F920F924DB767
:105140005EB70F920E947929E8E6F0E00E94C0283D
:105150004F915F91EF91FF91E595EE1FFF1F49F091
:10516000FE57E0684427EE0F441FFA95E1F741959A
:10517000550B0E94F3280F9007FE0C94E728089522
:10518000DF93CF931F930F93FF92EF92DF927B01F8
:105190008C01689406C0DA2EEF010E94DC27FE0124
:1051A000E894A5912591359145915591A6F3EF018C
:1051B0000E941026FE019701A801DA9469F7DF909A
:1051C000EF90FF900F911F91CF91DF9108959B0178
:1051D000AC0160E070E080E89FE30C946A260C94D8
:1051E00073270C94AD290E94A327D8F39923C9F300
:1051F000940F511DA3F39150504094F059F088231F
:1052000032F0660F771F881F91505040C1F79E3FC4
:1052100051052CF7880F911D9695879597F908955C
:105220005F3FACF0983E9CF0BB27869577956795DD
:10523000B79508F4B1609395C1F7BB0F58F711F417
:1052400060FFE8CF6F5F7F4F8F4F9F4FE3CF0C948E
:10525000BE2716F00C94AD290C94792768940C9411
:1052600073270E94A327A8F39923C1F3AEF3DF931A
:10527000CF931F930F93FF92C92FDD2788232AF026
:105280002197660F771F881FDAF720E030E040E8AB
:105290005FEB9FE3883920F0803E38F021968F77CE
:1052A0000E94F925E0E9F0E004C00E94F925EDEB49
:1052B000F0E00E94C0288B01BE01EC01FB2E6F576D
:1052C00071097595771F880B990B0E94142728E1A7
:1052D00032E741E35FE30E94DC27AF2D9801AE0186
:1052E000FF900F911F91CF91DF910E9410260C9497
:1052F0008A27FA01DC01AA0FBB1F9B01AC01BF5733
:1053000028F4222733274427507820C0B75190F43F
:10531000AB2F0024469537952795011CA395D2F312
:10532000002071F0220F331F441FB395DAF30ED023
:105330000C94F82561307105A0E88A07B94630F46D
:105340009B01AC016627772788279078309621F05B
:10535000208331834283538308959F3F31F09150DE
:1053600020F4879577956795B795880F911D969549
:10537000879597F9089597FB072E16F4009407D0A8
:1053800077FD09D00E94FC2907FC05D03EF49095DA
:1053900081959F4F0895709561957F4F0895A1E283
:1053A0001A2EAA1BBB1BFD010DC0AA1FBB1FEE1F9F
:1053B000FF1FA217B307E407F50720F0A21BB30BEA
:1053C000E40BF50B661F771F881F991F1A9469F766
:1053D00060957095809590959B01AC01BD01CF01C2
:1053E00008950E94162AA59F900DB49F900DA49F2A
:1053F000800D911D11240895AA1BBB1B51E107C00C
:10540000AA1FBB1FA617B70710F0A61BB70B881F54
:10541000991F5A95A9F780959095BC01CD010895E3
:10542000EE0FFF1F0590F491E02D0994A29FB001AB
:10543000B39FC001A39F700D811D1124911DB29FC8
:10544000700D811D1124911D0895FB01DC0104C024
:105450008D910190801921F441505040C8F7881B6C
:08546000990B0895F894FFCFA9
:1054680041726475696E6F2D454E4332386A363025
:105478002D30300000000000000000000000000097
:10548800FFFFFF0008080808000000010A0B420C93
:105498000D000A01C8000000013200000076037602
:1054A800030000200000FFFF0000FFFF00000000D5
:1054B800FF00020101C0A80132000F010E020D0316
:1054C8000C040B050A06090708040E00010F00FF6B
:1054D800FFFFFFFFFF0F0E0D0C0B0A09080001026A
:1054E800030405060707050301080A0C0E0000005F
:1054F80000B6011401430103027401520166010060
:105508000000008B065E060608340657064406357A
:10551800060D0A005570646174696E672073746FB4
:105528007265642073657474696E67732E004C6FBE
:105538006164696E672073746F7265642073657443
:1055480074696E67732E0053746F72656420736597
:105558007474696E6773206E6F742076616C696409
:105568002E004C6F6164696E672064656661756CB6
:10557800742073657474696E67732E0052436E618C
:105588006E6F004D6F64756C652056657273696F38
:105598006E3A2076004D6F64756C652049443A2058
:1055A800005374617274696E672045746865726E21
:1055B8006574202E2E2E0045746865726E65742001
:1055C800636F6E74726F6C6C657220666F756E6453
:1055D8002E00495020416464726573733A2020207C
:1055E80020200045746865726E6574206361626C82
:1055F80065206E6F7420636F6E6E65637465642ECC
:105608000045746865726E657420636F6E74726F9E
:105618006C6C6572206E6F7420666F756E642E00F8
:105628005374617274696E6720504341393535355A
:1056380020492F4F20457870616E646572202E2EA8
:105648002E005043413935353520657870616E64D8
:10565800657220666F756E642E005043413935358A
:105668003520657870616E646572206E6F7420668F
:105678006F756E642E005374617274696E67204D85
:1056880043503233303137202E2E2E004D435032C6
:105698003330313720666F756E642E004D435032BB
:1056A80033303137206E6F7420666F756E642E004C
:1056B800466C6F772050696E3A200044495220505A
:1056C800696E3A200050574D2050696E3A200057B5
:1056D8006F726B2050696E3A200050726573737553
:1056E80072652050696E3A200046696E6973686574
:0A56F800642073657475702E0000C5
:00000001FF
