:100000000C94AE000C94C1100C949A100C94D60071
:100010000C94D6000C94D6000C94D6000C94D60008
:100020000C94D6000C94D6000C94D6000C94D600F8
:100030000C94D6000C94D6000C94D6000C94D600E8
:100040000C9450100C94D6000C941E100C94F80FC5
:100050000C94D6000C94D6000C94D6000C94D600C8
:100060000C94E8100C94D60007634236B79BD8A7CF
:100070001A39685618AEBAAB558C1D3CB7CC5763CD
:10008000BD6DEDFD753EF6177231BF000000803F7B
:1000900008000000BE922449123EABAAAA2ABECD97
:1000A000CCCC4C3E00000080BEABAAAAAA3E000009
:1000B0000000BF000000803F000000000008417801
:1000C000D3BB4387D1133D190E3CC3BD4282AD2B38
:1000D0003E68EC8276BED98FE1A93E4C80EFFFBE30
:1000E00001C4FF7F3F0000000000638253630001F2
:1000F00008000604000100000000250028002B0075
:1001000000000000240027002A00450000820000B3
:100110004000200000000023002600290004040401
:1001200004040404040202020202020303030303A0
:10013000030102040810204080010204081020017D
:10014000020408102000000008000201000003045F
:1001500007000000000000000000071211241FBE6D
:10016000CFEFD8E0DEBFCDBF13E0A0E0B1E0E6E224
:10017000F2E502C005900D92A83AB107D9F727E041
:10018000A8EAB3E001C01D92A532B207E1F710E082
:10019000CEEAD0E004C02197FE010E94EF28CD3ABC
:1001A000D107C9F70E944F120C9411290C9400003A
:1001B000CF93DF93209178062223C1F0FC012081A8
:1001C0002223A1F0C8E7D6E0A4E7B6E09C012C5FAB
:1001D0003F4F899141919D918427892339F4E217FA
:1001E000F307B9F781E0DF91CF91089580E0FBCF6D
:1001F0008230C8F4E82FF0E0EE0FFF1FE35CFE4F03
:1002000071836083813041F0809169008C7F8260CE
:1002100080936900E89A089580916900837F8860DF
:1002200080936900E99A0895AF92BF92CF92DF92CE
:10023000EF92FF920F931F93CF93DF936C017B019B
:100240008B01040F151FEB015E01AE18BF08C0172C
:10025000D10759F06991D601ED91FC910190F0819F
:10026000E02DC6010995892B79F7C501DF91CF9162
:100270001F910F91FF90EF90DF90CF90BF90AF90C4
:10028000089508950895FC01538D448D252F30E085
:10029000842F90E0821B930B541710F0CF96089593
:1002A00001970895FC01918D828D981761F0A28DC0
:1002B000AE0FBF2FB11D5D968C91928D9F5F9F7386
:1002C000928F90E008958FEF9FEF0895FC01918D3C
:1002D000828D981731F0828DE80FF11D858D90E0A9
:1002E00008958FEF9FEF0895FC01918D228D892F46
:1002F00090E0805C9F4F821B91098F73992708952E
:100300008CE796E00E94740121E0892B09F420E03B
:10031000822F089580E090E0892B29F00E948001CF
:1003200081110C9400000895FC01A48DA80FB92F31
:10033000B11DA35ABF4F2C91848D90E001968F730D
:100340009927848FA689B7892C93A089B1898C912C
:10035000837080648C93938D848D981306C002887B
:10036000F389E02D80818F7D80830895EF92FF9245
:100370000F931F93CF93DF93EC0181E0888F9B8DC8
:100380008C8D98131AC0E889F989808185FF15C082
:100390009FB7F894EE89FF896083E889F9898081A5
:1003A0008370806480839FBF81E090E0DF91CF9174
:1003B0001F910F91FF90EF900895F62E0B8D10E096
:1003C0000F5F1F4F0F731127E02E8C8D8E110CC005
:1003D0000FB607FCFACFE889F989808185FFF5CF50
:1003E000CE010E949401F1CFEB8DEC0FFD2FF11D9A
:1003F000E35AFF4FF0829FB7F8940B8FEA89FB898D
:1004000080818062CFCFCF93DF93EC01888D8823EA
:10041000B9F0AA89BB89E889F9898C9185FD03C067
:10042000808186FD0DC00FB607FCF7CF8C9185FF4C
:10043000F2CF808185FFEDCFCE010E949401E9CFFC
:10044000DF91CF910895833081F028F4813099F0C5
:100450008230A9F008958730A9F08830C9F084303F
:10046000B1F4809180008F7D03C0809180008F77F0
:1004700080938000089584B58F7784BD089584B5F6
:100480008F7DFBCF8091B0008F778093B00008956F
:100490008091B0008F7DF9CF1F93CF93DF93282FEA
:1004A00030E0F901EB5BFE4F8491F901EF5CFE4F08
:1004B000D491F901E35EFE4FC491CC23A9F0162F2D
:1004C00081110E942302EC2FF0E0EE0FFF1FEA5093
:1004D000FF4FA591B4918FB7F894EC91111108C01A
:1004E000D095DE23DC938FBFDF91CF911F910895CC
:1004F000DE2BF8CFCF93DF9390E0FC01EF5CFE4F53
:100500002491835E9E4FFC0184918823C9F090E082
:10051000880F991FFC01E050FF4FA591B491FC0199
:10052000EA50FF4FC591D49161110DC09FB7F89467
:100530008C91209582238C938881282328839FBFC8
:10054000DF91CF910895623051F49FB7F8943C91B8
:10055000822F809583238C93E8812E2BEFCF8FB74A
:10056000F894EC912E2B2C938FBFEACF1F93CF934F
:10057000DF93182FEB0161E00E947A02209739F493
:1005800060E0812FDF91CF911F910C944C02CF3FFF
:10059000D10511F461E0F5CFE12FF0E0EB5BFE4F08
:1005A000E491E33031F140F4E130B1F0E230E1F0D8
:1005B000C038D1057CF7E4CFE73029F1E83059F1B4
:1005C000E430B1F780918000806280938000D09306
:1005D0008B00C0938A0004C084B5806884BDC7BD09
:1005E000DF91CF911F91089584B5806284BDC8BD0D
:1005F000F7CF80918000806880938000D09389003D
:10060000C0938800EDCF8091B00080688093B000E7
:10061000C093B300E5CF8091B00080628093B000BA
:10062000C093B400DDCF3FB7F894809172049091ED
:100630007304A0917404B091750426B5A89B05C0FD
:100640002F3F19F00196A11DB11D3FBFBA2FA92F51
:10065000982F8827BC01CD01620F711D811D911D4E
:1006600042E0660F771F881F991F4A95D1F70895BA
:100670008F929F92AF92BF92CF92DF92EF92FF92B2
:100680004B015C010E9413036B017C010E94130368
:100690006C197D098E099F09683E7340810591059B
:1006A000A8F321E0821A9108A108B10888EEC80ECB
:1006B00083E0D81EE11CF11C81149104A104B10453
:1006C00029F7FF90EF90DF90CF90BF90AF909F9071
:1006D0008F9008952FB7F89460916E0470916F0415
:1006E00080917004909171042FBF089508958091B6
:1006F000AD059091AE0598278927982744972091BA
:10070000CB0530E044E0359527954A95E1F7220F77
:10071000331F220F331F821B930B97FF02C090E001
:1007200080E008952091C1053091BF053093C10547
:100730002093BF052091C2053091C0053093C205BA
:100740002093C005EDE9F5E021A5820F911D25A5B7
:1007500085A7662381F021A7892F9927319725E066
:10076000E939F20789F71092CF051092D00580E59C
:100770008093CB05089511A6EFCF0F931F93CF93CE
:10078000DF9370E063567A4F8A01075F1F4F213075
:1007900029F0223031F48A010250110930E020E0C2
:1007A00003C000E010E09801EB01FA01E230F1052E
:1007B00058F0A991B991BA27AB27BA270A0F1B1F86
:1007C000211D311D3297F2CFFA01EE7F6E0F7F1F90
:1007D0004E175F0769F0FB01408150E070E060E078
:1007E000762F652F542F4427040F151F261F371F00
:1007F000A90166277727411551056105710519F093
:1008000022273327F1CF00951095E82FF0E0E3562B
:10081000FA4F10830183DF91CF911F910F910895BB
:10082000EDE9F5E0108E118E80E4848B158A868BBD
:1008300020E044E150E06EE088E10C94BD038EBD01
:100840000DB407FEFDCF089561E080917F040E9402
:100850004C0278940895F89460E080917F040C94A1
:100860004C020F931F93CF93DF93EC018B010E94F7
:100870002B042097B9F08AE30E941F041EBCF801E4
:10088000CE01019739F00DB407FEFDCF2EB51EBC89
:100890002193F7CF2197C00FD11F0DB407FEFDCFD5
:1008A0008EB58883DF91CF911F910F910C94240412
:1008B0001F93CF93DF93182FC62FD42F0E942B04A2
:1008C0008C2F8F71812B0E941F048D2F0E941F047B
:1008D000DF91CF911F910C942404CF93C82FC07641
:1008E00080916C048C1799F043E06FE180EA0E94DC
:1008F0005804C0936C044C2F50E085E05595479503
:100900008A95E1F76FE180E8CF910C945804CF917C
:100910000895CF93DF93C82FD62F0E946D044D2FDB
:100920006C2F80E4DF91CF910C945804CF93DF9328
:10093000C82FD72F0E9489046D2F81E08C0FDF9183
:10094000CF910C948904CF93C82F0E946D040E940C
:100950002B048C2F8F710E941F0480E00E941F04C3
:10096000C7FF03C080E00E941F04CEB50E9424048C
:100970008C2FCF91089561E184ED0E94890461E09C
:1009800082ED0E9489048AEE0E94A30480FDFBCFC1
:1009900060E082ED0E94890489ED0E94A30490E04A
:1009A0000895CF93DF93EC0140E86FE180E80E9467
:1009B000580440E86FE180EA0E9458044AE06CE184
:1009C00080EA0E94580460E07CE082E00E94960485
:1009D000BE01745F86E00E94960440E060E08AE712
:1009E0000E9458040E942B042097B1F08AE70E94CD
:1009F0001F0480919D058EBDEEE9F5E0C356DA4FE8
:100A0000EC17FD0731F081910DB407FEFDCF8EBDCF
:100A1000F7CF0DB407FEFDCF0E94240448E06FE13C
:100A200080E80E945804D0E0C0E08CE10E94A3045A
:100A30008A7029F42196C83E83E0D807B1F78CE18B
:100A40000E94A30481FD03C0C83ED34039F448E0AE
:100A50006FE180EADF91CF910C945804DF91CF9140
:100A600008950F931F93CF93DF93EC010DE915E0E9
:100A70004C96F801908B818B0E941004CE01089651
:100A8000F80196A387A3AE01405F5F4F21E06AE1C2
:100A900088E20E94BD03CE018A96DF91CF911F911B
:100AA0000F910C94D104CF93DF93EB01682F84ED69
:100AB0000E948904BE0186ED0E9496048AEE0E947F
:100AC000A30480FDFBCFDF91CF910895CF92DF92F9
:100AD000EF92FF920F931F938634910568F1209156
:100AE000C005233449F5C090CB05D090CC05E090EB
:100AF000CD05F090CE050091A2041091A3042091A1
:100B0000A4043091A504C016D106E206F306A1F4B0
:100B1000E7EBF6E083569A4F9F012E5F3F4F4181EE
:100B20005081553319F45281651771F0F901E40FC2
:100B3000F11DE817F90780F380E01F910F91FF90F6
:100B4000EF90DF90CF90089581E0F7CFE0916A04B5
:100B5000F0916B049F012F5F3F4F30936B04209304
:100B60006A0480830895FF920F931F93CF93DF93BE
:100B7000162FF42E052F0E94A605812F0E94A60590
:100B8000CF2DD02F115020F089910E94A605FACFC9
:100B9000DF91CF911F910F91FF9008952091200434
:100BA000260F3327331F21323105ECF42091440402
:100BB000FC0190E080E0243069F082E00895A0918B
:100BC00020042191AC0140505C4FA40FB52FB11D02
:100BD0002C930196861798F380912004680F6093F8
:100BE000200480E0089581E008951092440481E09B
:100BF000809346041092450461E082E10E944C0219
:100C000061E083E10E944C02E9EBF0E080818E7F9D
:100C1000808380818D7F808388E48093B80085E421
:100C20008093BC000895CF93DF9391E09093FF03EE
:100C30008823B9F0C091B800D091BA008091BC006F
:100C40008A7B8093BC0060E082E10E944C0260E0FD
:100C500083E10E944C020E94F505D093BA00C09334
:100C6000B800DF91CF9108950895E0917B048091C1
:100C70007A04E81730F4F0E0E652FC4F808190E00F
:100C800008958FEF9FEF089590917B0480917A04EF
:100C90002FEF3FEF981748F4E92FF0E0E652FC4FB2
:100CA000208130E09F5F90937B04C901089580917B
:100CB0007A0490917B04891B990B0895CF92DF925F
:100CC000EF92FF920F931F93CF93DF937C01CB01A1
:100CD0008A0120917306222389F0EB016B01C40E77
:100CE000D51ECC15DD0569F06991D701ED91FC9118
:100CF0000190F081E02DC7010995F3CF642F0E9488
:100D0000CE05C801DF91CF911F910F91FF90EF9019
:100D1000DF90CF900895CF93DF931F92CDB7DEB7CA
:100D20006983209173062223F9F020917006203206
:100D300058F021E030E0FC013383228390E080E032
:100D40000F90DF91CF91089580917106E82FF0E028
:100D5000E654FC4F998190838F5F80937106809356
:100D6000700681E090E0ECCF61E0CE0101960E9438
:100D7000CE05F7CF682F89E197E00C948B06CF92D0
:100D8000DF92EF92FF920F931F93CF93DF93D09157
:100D9000700681E0D13208F09CC0C09172060E94BA
:100DA00013036B017C018091440481116CC082E0CB
:100DB0008093440481E0809346048FEF8093430442
:100DC00010926804D0936704AAEBB3E0E7E4F4E080
:100DD00080E0D8138DC01092690480916904CC0F13
:100DE000C82BC093690480914504813009F084C008
:100DF000109245040E9413036B017C0180916904E9
:100E00008093BB008091FB039091FC03A091FD03B4
:100E1000B091FE03892B8A2B8B2BA1F00E94130328
:100E20000091FB031091FC032091FD033091FE0320
:100E30006C197D098E099F090617170728073907BE
:100E400008F442C08091BC0083FDD8CF85EC80932C
:100E5000BC000E9413036B017C018091440482302A
:100E600009F44CC0809143048F3F09F469C080911C
:100E70004304803209F466C080914304803309F44E
:100E800063C084E026C08091FB039091FC03A09195
:100E9000FD03B091FE03892B8A2B8B2B09F483CFA2
:100EA0000E9413030091FB031091FC032091FD03AA
:100EB0003091FE036C197D098E099F0906171707EB
:100EC0002807390708F06FCF8091FA030E941306B4
:100ED00085E0109271061092700610927306DF91F1
:100EE000CF911F910F91FF90EF90DF90CF900895D9
:100EF0009D9191938F5F6DCF85EEA9CF8091FB037C
:100F00009091FC03A091FD03B091FE03892B8A2BE5
:100F10008B2B09F4A2CF0E9413030091FB031091C5
:100F2000FC032091FD033091FE036C197D098E09AD
:100F30009F09061717072807390708F08ECFC4CF77
:100F400080E0C7CF82E0C5CF83E0C3CFCF93DF93EC
:100F5000EA01A0914101B091420191E090937306A2
:100F6000809372061092710610927006ED91FC91BA
:100F700011970190F081E02DCD01099580914101FB
:100F800090914201DC01ED91FC910190F081E02D06
:100F9000688109958091410190914201DC01ED91B8
:100FA000FC910190F081E02D6981099580914101CA
:100FB000909142010E94BF06982F80934C0181E0DE
:100FC000911180E0DF91CF910895409146015091B9
:100FD000470121E030E0F90102C0EE0FFF1F8A95C2
:100FE000E2F7CF01613069F4842B952B9093470190
:100FF0008093460146E451E062E0809143010C9405
:10100000A6078095909584239523F0CF90E080E00B
:1010100008954F925F926F927F92AF92BF92CF925C
:10102000DF92EF92FF920F931F93CF93DF93C82F1E
:10103000D0E00E9413038E01000F111F000F111F3B
:10104000F801EE54FC4FC080D180E280F3809B0118
:10105000AC012C193D094E095F0969017A013BEF8A
:10106000C316D104E104F10408F4A9C060837183BC
:1010700082839383A80144585A4F5A01FA01408051
:1010800051806280738083E0440C551C661C771C81
:101090008A95D1F7A3E0B0E0A70196010E94E42869
:1010A000640D751D861D971D2AE030E040E050E07C
:1010B0000E94C228F50120833183428353838081BB
:1010C0009181A281B381C816D906EA06FB0608F011
:1010D00076C09E01220F331FD901A856BA4F8D91B9
:1010E0009C911197019611969C938E93D901A858C3
:1010F000BA4F8D919C9111970C571A4FF80140816E
:10110000518162817381E3E0CC0FDD1FEA95E1F745
:101110008C0F9D1F880F991F880F991F885C9A4F0D
:10112000FC01408051806280738044195509660932
:101130007709F80140835183628373838D919C9179
:1011400011978C0F9D1F880F991F880F991F885C1E
:101150009A4FFC01C082D182E282F3828D919C91F0
:101160001197F8014081518162817381C80FD91FA5
:10117000CC0FDD1FCC0FDD1FC85CDA4FC880D980D3
:10118000EA80FB804C0D5D1D6E1D7F1D40835183E9
:10119000628373838D919C91119701968770992733
:1011A00011969C938E93F901E457FA4F80819181B7
:1011B00008972CF480819181019691838083DF913F
:1011C000CF911F910F91FF90EF90DF90CF90BF9044
:1011D000AF907F906F905F904F90089580E00C9457
:1011E000090881E00C9409082F923F924F925F9278
:1011F0006F927F928F929F92AF92BF92CF92DF9227
:10120000EF92FF920F931F93CF93DF93B62EC82FC9
:10121000D0E025E3829FF0011124EA5FF94F83813A
:10122000882359F020E030E0A90165897689878913
:10123000908D0E94CB26181634F0B11004C0C12C3A
:10124000D12C7601B5C085E38C9F80018D9F100D58
:1012500011240A5F194F2FE832EC45EF5CE3F801E7
:10126000658976898789908D0E94D0269B01AC0183
:10127000F80164817581868197810E946C258E01B9
:10128000000F111F000F111F9E0128553C4F7901BF
:1012900087FF0BC00E946A03F801E655FC4F60838C
:1012A000718382839383F7011082980126553C4F06
:1012B0006901F9014080518062807380F70180816B
:1012C0008823B1F00E946A03641975098609970999
:1012D000613971408105910508F4B1CF0E946A031C
:1012E000F6016083718382839383F7011082A7CF15
:1012F0000E946A03641975098609970961357105A9
:101300008105910558F00E946A03F601608371839C
:101310008283938381E0F701808391CF85E38C9F63
:10132000F0018D9FF00D1124EA5FF94FBB2009F405
:1013300057C0C58CD68CE78CF0A020E030E0A90126
:10134000C701B6010E946C25812C912C90E8A92E32
:101350009FE3B92E87FF06C0812C912C80E8A82E30
:101360008FEBB82E20E030E0A901C701B6010E9442
:10137000CB26A701960118160CF0505885E38C9FD8
:10138000F0018D9FF00D1124EA5FF94F41A052A0AA
:1013900063A074A0C301B2010E946C2587FF08C03E
:1013A000A5019401C301B2010E94D0266B017C010A
:1013B000C701B6010E94E325CB01DF91CF911F91B8
:1013C0000F91FF90EF90DF90CF90BF90AF909F90E4
:1013D0008F907F906F905F904F903F902F900895E7
:1013E00085889688A788B08C24813581468157816D
:1013F000C501B4010E94FF242B013C0120E030E034
:10140000A9010E94CB2673016201181624F0F7FA95
:10141000F094F7F8F0942FE832EC45E75CE3C5016F
:10142000B4010E94D026A70196010E946C2587FF77
:10143000D5C075016401F7FAF094F7F8F094A301B0
:101440009201C701B6010E94CB26181664F0A301D1
:101450009201C501B4010E946C257301620187FFEE
:1014600002C07501640120E030E0A901C701B601A6
:101470000E94CB2626013701181624F077FA7094C3
:1014800077F8709425E32C9FC0012D9F900D1124B7
:101490009C012A5F394F1901F90121A532A543A505
:1014A00054A5C701B6010E94D0266B017C0120E043
:1014B00030E040E85EE3C501B4010E94D026A301FC
:1014C00092010E946C2587FF49C020E030E048EC83
:1014D00052E4C701B6010E94D0264B015C0120E016
:1014E00030E0A9010E94CB2624013501181624F012
:1014F00077FA709477F8709425E32C9FC0012D9FA4
:10150000900D1124EC01CA5FD94FCDA0DEA0EFA051
:10151000F8A4A3019201C701B6010E94CB261816B8
:1015200074F0C9A0DAA0EBA0FCA0A3019201C7014E
:10153000B6010E946C2587FD02C07301620120E0A4
:1015400030E0A901C501B4010E94CB2618160CF4A5
:101550002FCFF7FAF094F7F8F0942ACFF10185A491
:1015600096A4A7A4B0A8A5019401C701B6010E9442
:10157000D026F801E95FFA4F208131814281538101
:101580000E9400252B013C0120E030E0A901C501AB
:10159000B4010E94CB2620E030E040E85FE318165B
:1015A0001CF020E030E0A901C301B2010E94D02666
:1015B0004B015C01F801E95FFA4F80829182A282BF
:1015C000B38220E030E040EF51E4C701B6010E9451
:1015D000D026A50194010E9400257FCFF801E95F84
:1015E000FA4F108211821282138229CE4FEF460FDA
:1015F000FC0130E020E050E0DF01A81BB90BA4178C
:10160000B50724F47191270F311DF6CFFC01E60FC9
:10161000F11D319781E09081921380E008958091CF
:101620008704882339F00E94BB0496958795969588
:10163000879581700895FC0101900020E9F73197AA
:10164000AF01481B590BBC018CE796E00C941401C8
:101650008F929F92AF92BF920F931F93CF93DF937E
:10166000CDB7DEB7A1970FB6F894DEBF0FBECDBFE2
:1016700019A2423008F44AE08E010F5D1F4F842EFC
:10168000912CB12CA12CA50194010E94C228E62F17
:10169000B901CA01EA30F4F4E05DD801EE938D019E
:1016A000232B242B252B79F790E080E0109719F05D
:1016B000CD010E941B0BA1960FB6F894DEBF0FBEA2
:1016C000CDBFDF91CF911F910F91BF90AF909F90B1
:1016D0008F900895E95CE1CFCF93DF930E941B0BBD
:1016E000EC0181EB91E00E941B0B8C0F9D1FDF91A1
:1016F000CF9108950C941B0BCF93DF93682F70E06C
:1017000090E080E04AE00E94280BEC0181EB91E040
:101710000E941B0B8C0F9D1FDF91CF910895DC0160
:1017200096E0FB0101900D929A95E1F70895BC01B6
:101730008DE995E00E948F0B63EB74E083EA95E0FE
:101740000C948F0BDC0194E0FB0101900D929A95B3
:10175000E1F7089583EA95E00E94970B67EB75E047
:101760008BEB95E00E94A20B68E776E087EB95E0B3
:101770000E94A20B0C941004262F20612093CC050C
:10178000643021F0009711F481E090E061E00E9464
:1017900092031092AD0588E28093AE050E94AA0BD9
:1017A00084E08093CD051092CE0522E04CE150E01C
:1017B0006AE182E30E94BD0386E390E00C94D104C9
:1017C000CF93DF93EB010E94970BBE018BEB95E06B
:1017D0000E94A20B68E776E087EB95E0DF91CF915E
:1017E0000C94A20BCF93DF93EB0144E050E0BC01DB
:1017F00089EB95E00E940429892B49F463EB75E09D
:10180000CE010E948F0B81E0DF91CF91089580E09F
:10181000FBCF0F931F93CF938C018FE691E00E9433
:10182000970BEDE9F5E088E08487C6E0C58748E0DE
:1018300050E06EEE70E08BEA95E00E94E024EDEB64
:10184000F5E0DF011D92CA95E9F763EB74E083EBE5
:1018500095E00E948F0BB80183EC95E00E94A20BEB
:1018600068E776E089EB95E00E94A20B8AE290E0BF
:10187000CF911F910F910C94D104EF92FF920F938F
:101880001F93CF93DF93182F092FEB01F42EE52E32
:10189000CB010E94D800BE01882309F447C086EE20
:1018A00094E00E94E00B8881807F803E91F08881E7
:1018B0009981AA81BB818F3F9F4FAF4FBF4F49F0A6
:1018C00044E050E0BE0189EB94E00E940429892B9A
:1018D00031F46FE671E08DE995E00E948F0B88E0AE
:1018E0008093A9051092AA0549E050E06AE071E0F2
:1018F0008BEA95E00E94E0241092AD0581E180938F
:10190000B405E092C105F092C2050093BF051093A3
:10191000C0051092C3051092C5051092C605DF914F
:10192000CF911F910F91FF90EF9008958CEE94E06E
:10193000B8CFEF92FF920F931F93CF938C01EDE9F5
:10194000F5E086E191E0DF019C011D9221503040DD
:10195000E1F78091B2046FE671E0833011F46DE934
:1019600074E043E450E084E490E00E943D0C6FE6B4
:1019700071E08DE995E00E948F0B81E08093C705AF
:101980008093C80586E08093C9058091A204909158
:10199000A304A091A404B091A5048093CB059093D7
:1019A000CC05A093CD05B093CE05C091B204C33051
:1019B00031F468E776E083ED95E00E94A20B63EBDB
:1019C00074E083EE95E00E948F0B83EB96E090939A
:1019D0006B0480936A04EAEEF0E084910E94A6050D
:1019E000EBEEF0E084910E94A605ECEEF0E084912D
:1019F0000E94A605EDEEF0E084910E94A60585E325
:101A00000E94A60581E00E94A60583E0C11101C0E5
:101A100081E00E94A6058DE30E94A60587E00E9452
:101A2000A60581E00E94A60583EBE82E84E0F82E4F
:101A3000C7E0C15031F0D7018D917D010E94A6050C
:101A4000F8CF80910001882371F060E071E0FB0124
:101A500001900020E9F7BF016150714040E051E082
:101A60008CE00E94B3050115110559F0A80164E04E
:101A700082E30E94B3054DE954E064E086E30E94EE
:101A8000B30587E30E94A60583E00E94A60581E0D6
:101A90000E94A60583E00E94A60586E00E94A60596
:101AA0008FEF0E94A60580916A0490916B04875C79
:101AB0009540CF911F910F91FF90EF900C943105BD
:101AC00085ED8093BC008091FB039091FC03A09175
:101AD000FD03B091FE030796A11DB11D23E0B6954D
:101AE000A795979587952A95D1F72091BC0024FD5D
:101AF00003C01092440408954091FB035091FC03ED
:101B00006091FD037091FE03452B462B472B69F333
:101B10000097A105B10541F025E32A95F1F70000F2
:101B20000197A109B109E1CF8091FA030C94130642
:101B3000FF920F931F93CF93DF93EC01F62E088152
:101B40001981C8010E94E924F81621F06F2DC801FF
:101B50000E94F124CE01DF91CF911F910F91FF9050
:101B60000895EF92FF920F931F93CF93DF9300D0CE
:101B7000CDB7DEB784EB91E00E946C0B1A8219821C
:101B800067E8CE0101960E94980D81E090E09A836B
:101B9000898366E4CE0101960E94980D84E090E06E
:101BA0009A83898362E0CE0101960E94980D21E517
:101BB000E22E21E0F22E0AE010E01A830983F701F9
:101BC00061917F01CE0101960E94980D0F5F1F4F1A
:101BD0000832110591F796E0E92E96E0F92E04E619
:101BE00010E01A830983F70161917F01CE0101960C
:101BF0000E94980D0F5F1F4F0939110591F78BE374
:101C0000E82E86E0F82E04EB10E01A830983F70132
:101C100061917F01CE0101960E94980D0F5F1F4FC9
:101C2000093E110591F70F900F90DF91CF911F9111
:101C30000F91FF90EF900895EF92FF920F931F93F3
:101C4000CF93DF93E90188819981863F2EE7920740
:101C500009F434C180F4843FFEE79F0709F462C0B1
:101C6000853F9E4709F405C1DF91CF911F910F91E8
:101C7000FF90EF900895873FEEE79E0709F499C122
:101C80008C3B9F4789F70132110570F361E2CE0169
:101C90000E94F60A882341F38A81809351018B8147
:101CA000809352018C81982F91709093530181FB06
:101CB000992790F99093540183FB992790F9909379
:101CC0006B0184FB992790F990936C0185FB882721
:101CD00080F980936E018D81809369018F8180935B
:101CE00006068885809307068985809308068A857D
:101CF00080933B068B8580933C068C8580933D06C4
:101D0000FE013D96A9E5B1E0CE014D9621912D93BE
:101D1000E817F907D9F78D8D80936A018E8D80932E
:101D20006D015BC10E30110508F49ECF6EE0CE014F
:101D30000E94F60A882309F497CF0A81902F929582
:101D40009F708091510198138FCF0F708091520135
:101D5000081708F089CFE02EF12C25E3029F8001BF
:101D600011240A5F194F2C816D8170E090E080E0B2
:101D7000CB0177276627722B2B81622B0E941926B5
:101D80002FE632E143E85AE30E94D026F801658B42
:101D9000768B878B908F2F81688570E090E080E054
:101DA000CB0177276627722B2E81622B0E94192682
:101DB0002FE632E143E85AE30E94D026F801618F12
:101DC000728F838F948F898580FF04C0118A128A55
:101DD000138A148A95E39E9DF0019F9DF00D1124B6
:101DE000EA5FF94F81FD42C0108A82FF0BC095E384
:101DF0009E9DF0019F9DF00D1124EA5FF94F90899F
:101E00009E5F908B83FF0BC095E39E9DF0019F9D8D
:101E1000F00D1124EA5FF94F90899C5F908B84FB51
:101E2000992790F99093050686FB882780F980937F
:101E3000380185E38E9D80018F9D100D11240A5F6E
:101E4000194F6A857B85072E000C880B990B0E9421
:101E50001B26F801658F768F878F90A30E946A03F7
:101E6000F8016487758786879787FECE91E0908B0F
:101E7000BCCF0A30110508F4F7CE6AE0CE010E940B
:101E8000F60A882309F4F0CE8A8182958F709091AA
:101E900051018913E9CE8B81809337058C81809322
:101EA00036058D81809335058E81809333058F8132
:101EB00080933405888580933205D6CE0A3011058B
:101EC00008F4D2CE6AE0CE010E94F60A882309F413
:101ED000CBCE0A81902F92959F70809151019813DB
:101EE000C3CE0F7080915201081708F0BDCEF5E304
:101EF0000F9F800111240A5F194F6B8170E090E001
:101F000080E00E941B2620E030E040E251E40E9485
:101F1000D02620E030E048EC52E40E947125F80120
:101F200065A776A787A790AB6E8170E090E080E010
:101F30000E941B2620E030E04FE753E40E94D026A9
:101F400020E030E048EC52E40E947125F80165A3DE
:101F500076A387A390A76F8170E090E080E00E9455
:101F60001B2620E030E04FE753E40E94D02620E01B
:101F700030E048EC52E40E947125F80161A372A39D
:101F800083A394A368856857770B072E000C880BF2
:101F9000990B0E941B269B01AC016DEC7CEC8CE83C
:101FA0009FE30E943D27F80161A772A783A794A72A
:101FB0005BCE0630110508F457CE66E0CE010E94D4
:101FC000F60A882309F450CE8A81809355018B81CB
:101FD000809356018C81809357010E94B10DF0E0EF
:101FE000E0E0DF91CF911F910F91FF90EF90099466
:101FF0001F920F920FB60F9211242F933F934F937E
:102000005F936F937F938F939F93AF93BF93EF9360
:10201000FF938CE796E00E949401FF91EF91BF91AE
:10202000AF919F918F917F916F915F914F913F9170
:102030002F910F900FBE0F901F9018951F920F9227
:102040000FB60F9211242F938F939F93EF93FF93CB
:10205000E0918C06F0918D068081E0919206F091DE
:10206000930682FD1BC09081809195068F5F8F73D0
:1020700020919606821741F0E0919506F0E0E45831
:10208000F94F958F80939506FF91EF919F918F91D6
:102090002F910F900FBE0F901F9018958081F4CF55
:1020A0001F920F920FB60F9211242F933F938F938D
:1020B0009F93AF93BF9380916E0490916F04A09112
:1020C0007004B091710430916D0423E0230F2D371B
:1020D00058F50196A11DB11D20936D0480936E04E7
:1020E00090936F04A0937004B09371048091720474
:1020F00090917304A0917404B09175040196A11D90
:10210000B11D8093720490937304A0937404B093F0
:102110007504BF91AF919F918F913F912F910F9037
:102120000FBE0F901F90189526E8230F0296A11D51
:10213000B11DD2CF1F920F920FB60F9211242F9381
:102140003F934F935F936F937F938F939F93AF933F
:10215000BF93EF93FF93E0913F01F0914001099508
:10216000FF91EF91BF91AF919F918F917F916F916F
:102170005F914F913F912F910F900FBE0F901F9045
:1021800018951F920F920FB60F9211242F933F9321
:102190004F935F936F937F938F939F93AF93BF936F
:1021A000EF93FF93E0913D01F0913E010995FF917E
:1021B000EF91BF91AF919F918F917F916F915F91BF
:1021C0004F913F912F910F900FBE0F901F90189538
:1021D0001F920F920FB60F9211242F933F934F939C
:1021E0005F936F937F938F939F93AF93BF93EF937F
:1021F000FF938091B900887F803609F44AC0F0F5DA
:10220000883209F4A7C018F5803109F49BC0B8F4EE
:10221000882309F4F9C0883009F494C0FF91EF9144
:10222000BF91AF919F918F917F916F915F914F91EE
:102230003F912F910F900FBE0F901F9018958831EE
:1022400009F488C0803251F78093430414C080346D
:1022500009F49DC040F48033B9F38833F9F68093D4
:10226000430485ECB0C0803509F485C0883509F495
:1022700096C0883499F60E94600DD0CF883909F451
:102280008CC038F5883729F050F4883611F0803743
:1022900029F683E0809344041092420457C08838A2
:1022A00009F47BC0803919F0803809F0B7CF8091EC
:1022B0004204803208F071C0E091420481E08E0F48
:1022C000809342048091BB00F0E0EE5DFB4F808381
:1022D0003DC0803B39F0E0F4803A09F479C0883A97
:1022E00009F09CCF84E08093440410922104109262
:1022F0002004E0917804F0917904099580912004FC
:1023000081110FC081E0809320041092000409C065
:10231000803C09F4A6CF883C09F4A3CF883B09F0A0
:102320007DCFE091210481E08E0F80932104F0E0C5
:10233000E050FC4F80818093BB00909121048091FC
:10234000200429C0809169048093BB0085EC8093B0
:10235000BC0064CF9091680480916704981758F589
:10236000E091680481E08E0F80936804F0E0E95BFF
:10237000FB4F8081E9CFE091680481E08E0F80936C
:1023800068048091BB00F0E0E95BFB4F8083909193
:102390006804809167049817C8F285E8D8CFE09167
:1023A000680481E08E0F809368048091BB00F0E0A8
:1023B000E95BFB4F80838091460481115CCF81E013
:1023C0008093450484EA8093BC001092440426CF95
:1023D00085EC8093BC0010924404809142048032CA
:1023E00030F4E0914204F0E0EE5DFB4F108260912A
:1023F000420470E0E0917604F091770482E294E088
:102400000995109242040ACF1092430434CFECE7AE
:10241000F6E01382128288EE93E0A0E0B0E08483BD
:102420009583A683B78321E931E03183208325ECAE
:1024300030E03587248724EC30E03787268720EC8E
:1024400030E0318B208B21EC30E0338B228B22EC7F
:1024500030E0358B248B26EC30E0378B268B118EC9
:10246000128E138E148EE9E1F7E0138212828483B8
:102470009583A683B78383EA91E091838083EDE41B
:10248000F1E0A1E5B1E014968C9114978083159644
:102490008C911597818316968C9182830895CF93A2
:1024A000DF93CDB7DEB7A0970FB6F894DEBF0FBEAF
:1024B000CDBF789484B5826084BD84B5816084BDCD
:1024C00085B5826085BD85B5816085BD80916E00D2
:1024D000816080936E001092810080918100826003
:1024E0008093810080918100816080938100809140
:1024F00080008160809380008091B100846080932F
:10250000B1008091B00081608093B00080917A002A
:10251000846080937A0080917A00826080937A0050
:1025200080917A00816080937A0080917A0080683F
:1025300080937A001092C1001092090610923E0614
:10254000E0918C06F0918D0682E08083E091880610
:10255000F09189061082E0918A06F0918B0683E360
:10256000808310929406E0919006F091910686E0A7
:102570008083E0918E06F0918F0680818061808358
:10258000E0918E06F0918F06808188608083E091D3
:102590008E06F0918F06808180688083E0918E06A0
:1025A000F0918F0680818F7D808368EB7BE080E0F7
:1025B00090E00E94380383EB91E00E946C0B83EB68
:1025C00091E00E946C0B83EB91E00E946C0B8EEC0F
:1025D00091E00E946C0B83EB91E00E946C0B90E009
:1025E00080E00E94E924898381E090E00E94E92450
:1025F0008A8384E090E00E94E92429813A81273887
:10260000364409F080C1823009F07DC184EE91E04A
:102610000E946C0BE1E5EE2EE1E0FE2E0AE010E0F8
:10262000C8010E94E924D7018D937D010F5F1F4FE0
:1026300008321105A9F706E016E0680174E6E72EF6
:10264000F12CC7010E94E924D6018D936D01BFEFE3
:10265000EB1AFB0AE9E9EE16F10499F75BE3C52EE4
:1026600056E0D52E64EBE62EF12CC7010E94E9243A
:10267000D6018D936D01BFEFEB1AFB0AE9EEEE1662
:10268000F10499F780916A018651893E08F435C1B9
:102690002091520130E090E080E08217930714F01F
:1026A0000C947B24F8014081463108F08AC14181B5
:1026B000463108F086C10B5C1F4F3296408146318F
:1026C00008F07FC10196E9CF81E0809301068091F7
:1026D0006A018F3F19F062E00E947A0280915201F4
:1026E000833018F082E08093520183EB91E00E94E6
:1026F0006C0B82E392E00E947A0B809151010E9460
:102700007C0B8EE392E00E947A0B4AE067E876E465
:1027100080E090E00E94280B81EB91E00E941B0B6F
:1027200083EB91E00E946C0B10927B0410927A0470
:1027300010927106109270060E94F50581E491E0F6
:10274000909379048093780482E491E090937704E5
:10275000809376048CE08093B8008FE492E00E942E
:102760006C0B809151018E5C809358013091550122
:102770003983209156012A83909157019B838C8342
:1027800040919004411105C08093310181E0809314
:10279000900480918804811109C03093280120930E
:1027A000290190932A0181E08093880430934D01A0
:1027B00020934E0190934F011FB7F89480917C04B1
:1027C000811127C0E7E2F1E08491EBE3F1E094911D
:1027D000E82FF0E0EE0FFF1FE050FF4FA591B491FE
:1027E000EC91E92321F461E08AE00E944C0261E06F
:1027F0008AE00E947A028CB580618CBD8CB58064C1
:102800008CBD61E08DE00E947A0261E08BE00E9465
:102810007A0280917C048F5F80937C041FBF1092AA
:102820007E0410927D0480917D0481113CC064EF90
:1028300071E080E090E00E94380388E393E00E941A
:102840007A0BF89460E08AE00E944C028FEF0E94BD
:102850001F048FEF0E941F0461E08AE00E944C0277
:10286000789462E070E080E090E00E943803F89491
:1028700060E08AE00E944C028DE10E941F0480E02B
:102880000E941F041EB561E08AE00E944C02789409
:10289000117010937D0480917E048F5F80937E047D
:1028A000863008F4C0CF80917D048093870488230C
:1028B00009F40CC21092060587E390E0C12CD12CDC
:1028C0007601C394009709F482C0FC0123E0F595DA
:1028D000E7952A95E1F7E058FB4F282F2770B701BD
:1028E000A60104C0440F551F661F771F2A95D2F713
:1028F0002081242B20830197E5CF109201068DEFD4
:1029000091E00E946C0B88E192E00E946C0B8EE0DB
:1029100080936A018FE080936D0183E080930606C7
:1029200084E08093070685E08093080682E0809328
:102930003B0686E080933C0689E080933D0640E0BC
:1029400050E06FE773E440932706509328066093A6
:10295000290670932A0680E090E0A0E2B1E480931B
:102960002B0690932C06A0932D06B0932E06409331
:102970005C0650935D0660935E0670935F068093DD
:10298000600690936106A0936206B0936306E9E542
:10299000F1E08FEF819331E0E936F307D9F782E078
:1029A0008093520184E08093690181E080936C01FF
:1029B00010926E0180935401809353010E94B10DD7
:1029C00086CE80E080930106811181CE98CF6CE2A3
:1029D00071E083EB94E00E948F0B84E690E090938B
:1029E0009904809398040CB406FC25C061E08AE049
:1029F0000E947A0261E08AE00E944C0261E08BE072
:102A00000E947A0261E08DE00E947A0260E08CE030
:102A10000E947A0261E08BE00E944C0260E08BE051
:102A20000E944C0260E08DE00E944C0280E58CBD6B
:102A30008DB581608DBD8AE080937F0461E00E9446
:102A40007A020E9424044FEF60E08FEF0E94580446
:102A500062E070E080E090E00E9438030E942B0466
:102A60008DE10E941F0480E00E941F041EB50E9499
:102A70002404112399F370E060E088E00E9496043A
:102A800070E060E08CE00E9496046FEF7BE08AE0EB
:102A90000E94960460E07CE084E00E9496046FEF60
:102AA00071E186E00E94960466E774E084E10E948A
:102AB000530561EB88E30E9489046FE370E388E2C9
:102AC0000E94960469EF77EF80E30E94960461E02C
:102AD00080EC0E94890442E362EC80E80E94580482
:102AE00062E17CE086EC0E94960462E184EC0E9444
:102AF00089046CED75E08AEC0E9496046091B30441
:102B000084EE0E9489046091B40485EE0E948904D9
:102B10006091B50482EE0E9489046091B60483EE50
:102B20000E9489046091B70480EE0E94890460913C
:102B3000B80481EE0E94890460E071E080E10E94A7
:102B400053058FE10E946D0440EC6BE180E80E9428
:102B5000580444E06FE180E80E94580482E70E9434
:102B6000A30483EB91E00E946C0B85E692E00E9447
:102B70006C0B10920605BE016F5F7F4F88E796E0F1
:102B80000E94A20B109204051092030581E080932D
:102B9000050568E271E08FEF94E00E94A20B64E209
:102BA00071E08AEF94E00E94A20B60E271E084E79A
:102BB00096E00E94A20B08E716E024E736E069EBF6
:102BC00074E04CE756E0F8019191D9018D919D0197
:102BD0008095892BDB018D93BD014E175F07A1F70F
:102BE0008091E504883098F4B5E08B9FF0011124C2
:102BF000E354FB4F2CE13EE03183208328ED30E7A6
:102C00003383228391E094838F5F8093E50464EFA4
:102C100071E080E090E00E9438030E940F0B88234F
:102C200009F44FC083EB91E00E946C0B80E892E0C6
:102C30000E947A0BF12CF80161918F0170E090E015
:102C400080E04AE00E94280BF3E0FF1629F06EE2D4
:102C50008CE796E00E94B601F39424E0F212EBCFE9
:102C600081EB91E00E941B0B10E000E095E3D92E70
:102C7000809152018017110609F00CF44CC0D09ECF
:102C8000C001D19E900D1124AC014A5F594F7A01C9
:102C900062E0DA018C910E947A0261E0F7018181A1
:102CA0000E947A0261E0D70112968C910E947A020A
:102CB0000115110591F001301105F9F00F5F1F4F5B
:102CC000D7CF81E992E00E946C0BCECF83EB91E0ED
:102CD0000E946C0B8FEA92E0F6CF8091060682305C
:102CE00041F0833041F481E06EEE78E00E94F8001C
:102CF000E5CF80E0F9CF8FEFF7CF80913B068230B0
:102D000031F0833031F481E061EF78E0EFCF80E0A3
:102D1000FBCF8FEFF9CF80916901843008F0C9C1F2
:102D2000823008F067C209E511E0813009F455C22C
:102D300083EB91E00E946C0B8EE593E00E947A0B8E
:102D4000809106060E947C0B89E693E00E947A0B34
:102D5000809107060E947C0B83E793E00E947A0B28
:102D60006091080670E090E080E04AE00E94280B45
:102D700083EB91E00E946C0B8DE793E00E947A0B4D
:102D800080916A010E947C0B88E893E00E947A0B94
:102D900060916D0170E090E080E04AE00E94280BB5
:102DA00083EB91E00E946C0B83EB91E00E946C0B33
:102DB00087E993E00E946C0B83EB91E00E946C0B1F
:102DC0009E01215F3F4F3E8B2D8B0E940F0B88236E
:102DD00009F427C180919C04882379F060919A04BA
:102DE00070919B046115710509F074C26FEF7BE06F
:102DF0008CE00E94960410929C0489E30E94A30434
:102E0000F12CE12C8823D9F160919A0470919B04F4
:102E100080E00E949604BE016F5F7F4F86E090E0E5
:102E20000E94310489819A8190939B0480939A0433
:102E30008D819E817C0130E8E322FF2487FF13C04F
:102E40008B819C810497E0909804F090990441E074
:102E5000E41AF1088E159F0508F47C016DE975E010
:102E6000C7010E943104F701E356FA4F108281E056
:102E700080939C0440E46EE180E80E9458048091B5
:102E80000605882369F08091B204823009F42BC2D0
:102E900008F023C2882309F4AEC2813009F4CAC203
:102EA000E114F10409F055C380910505857099F08E
:102EB0008091030590910405892B69F40E94BB045D
:102EC00082FF09C08FEF94E00E94090C80910505F4
:102ED0008860809305058091030590910405019613
:102EE00090930405809303058091FE04813009F0DE
:102EF0006EC08091050581FF6AC082E08093FE0468
:102F0000809133018F5F80933301182F1F7184EFFD
:102F100094E00E94D80064EF74E0882309F416C39B
:102F200086EE94E00E94E00B08E00093A905109261
:102F3000AA0549E050E06AE071E08BEA95E00E9462
:102F4000E0248CE28093AE0586E08093B4050E9475
:102F500010041092C1051092C2058BE08093BF054A
:102F60001093C005E3ECF5E0DF011D920A95E9F747
:102F7000809132018093C5058D5F8093320180E698
:102F80008093CB0582E08093CC0593E09093CD05B0
:102F90001092CE051092CF051092D0051092D10557
:102FA0001092D2058093D30594E09093D40580933A
:102FB000D50586E28093D60522E040E250E06AE142
:102FC00082E30E94BD038AE390E00E94D1048AEF6D
:102FD00094E00E94D800882379F08091F90481114F
:102FE0000BC08091F804811107C08AEF94E00E9421
:102FF000090C81E08093F80484EF94E00E94D800EB
:10300000882379F08091F30481110BC08091F20440
:10301000811107C084EF94E00E94090C81E0809345
:10302000F2048091380106E016E0312C212C88232F
:1030300009F422C466E0262E66E0362E47E155E00C
:10304000588F4F8B1E8E1D8E809152012D8D3E8D7F
:103050008217130609F00CF42FC7D10150968C91FA
:103060005097823008F4DBC5853008F46AC4853097
:1030700009F0D5C560E08D8D0E94F408BC01990F60
:10308000880B990B0E941B26F1016087718782874C
:1030900093872D8D3E8D2F5F3F4F3E8F2D8F35E3D4
:1030A000230E311C4F89588D4C5F5F4F588F4F8BCB
:1030B000CBCF843009F03CCE83EB91E00E946C0BC7
:1030C00084E293E00E946C0B81E280931F0516E07E
:1030D00001E0B1E2FB2E8091200581111DC088E343
:1030E00093E00E947A0B00937306F092720610929E
:1030F00071061092700689E197E00E94BF0691E088
:10310000811190E09093200564EF71E080E090E001
:103110000E9438031150F9F680912005811128C0D2
:1031200080E280931F0516E001E080912005811167
:103130001FC088E393E00E947A0B80911F050093E3
:10314000730680937206109271061092700689E1E0
:1031500097E00E94BF0691E0811190E090932005D6
:1031600064EF71E080E090E00E9438031150E9F6CE
:1031700083EB91E00E946C0B80912005882309F479
:10318000A6C080911F0511E010937306809372060C
:10319000109271061092700690E080E00E94BA06CC
:1031A00090E080E00E94BA0689E197E00E94BF06A5
:1031B00010937306109271061092700681E090E0F1
:1031C0000E94BA0690E080E00E94BA0689E197E08A
:1031D0000E94BF068AE393E072C0F80181918F01DB
:1031E0008F3F19F061E00E947A02F1E009361F0773
:1031F000A1F79ECD83EB91E00E946C0B8EEC92E0E8
:103200000E946C0B16E001E080E2F82E80913105FF
:1032100081111DC088E393E00E947A0B009373062E
:10322000F0927206109271061092700689E197E092
:103230000E94BF0691E0811190E09093310564EF08
:1032400071E080E090E00E9438031150F9F683EBC2
:1032500091E00E946C0B80913105882399F180EFF9
:1032600092E00E946C0B89E197E090934201809379
:10327000410180E28093430110924901109248017C
:1032800048E451E064E00E94A60710924B011092BE
:103290004A014AE451E066E0809143010E94A6079A
:1032A0008FEF9FEF909347018093460146E451E0F2
:1032B00062E0809143010E94A60783EB91E00E94A7
:1032C0006C0B36CD88E093E00E946C0BF6CF8AE45D
:1032D00093E0F5CF615071098BCD833009F456C06E
:1032E000843009F0DDCD65E0C7010E9466058823C2
:1032F00009F4C9C08091A104811108C088E30E942B
:10330000A304682F6E7F88E30E94890467ED75E04F
:1033100088E796E00E94A20BE7EBF6E097012356C0
:103320003A4F69018F010E5F1F4FB1808081863057
:1033300009F4FBC008F0BEC0813009F4ECC0833052
:1033400009F4EFC0F801EB0DF11DEC15FD0550F38C
:103350000E946A036093AA047093AB048093AC0448
:103360009093AD048091FF04882361F010920405CE
:103370001092030581E0809305056FEF74E0CB01A7
:103380000E94A20B83E08093B2048ACD8090AE04A9
:103390009090AF04A090B004B090B1045FEF851698
:1033A0009506A506B50609F47BCD0E946A03009137
:1033B000AA041091AB042091AC043091AD04601BC1
:1033C000710B820B930B681579058A059B0508F430
:1033D00067CD88E796E00E94990C84E08093B20460
:1033E0000E946A036093A6047093A7048093A804C4
:1033F0009093A90455CD0E946A036093A204709330
:10340000A3048093A4049093A504E8E7F6E084E085
:10341000DF011D928A95E9F790E080E00E94990C07
:1034200088E30E94A304682F616088E30E948904F6
:1034300081E0D4CF62E0C7010E946605882319F1BC
:1034400067ED75E0CE0101960E94A20BE7EBF6E076
:10345000C70183569A4FBF016E5F7F4F2181308134
:10346000363351F48DE994E00E94A20BCE0101960F
:103470000E94990C82E0B2CFFB01E20FF11DE81728
:10348000F90748F3F3CF0E946A030091A604109154
:10349000A7042091A8043091A904601B710B820B32
:1034A000930B613177428105910508F4F9CC1092B4
:1034B000B204F6CC8A3331F08F3F09F449CF83331D
:1034C00009F040CF1092AE041092AF041092B004F5
:1034D0001092B104F801C801049620E030E0A9017F
:1034E0006191542F432F322F2227260F311D411D6A
:1034F000511DE817F907A1F72F3F8FEF380748074D
:103500005807B9F42093AE043093AF044093B0044D
:103510005093B10417CFB80184E796E00E94A20B44
:1035200011CFB8018FEF94E0F9CFB8018AEF94E0A2
:10353000F5CFA8EEB3E00E94E4286093AE04709348
:10354000AF048093B0049093B104FCCE8CEE94E071
:10355000E9CCB9E2EB16F10408F463CD8091A9053A
:10356000883009F05ECD8091AA05863011F00C9468
:10357000902444E050E068E776E083EC95E00E9418
:103580000429892B09F04DCD8091B205813029F5B0
:1035900083EA95E00E94970B1092B10582E0809338
:1035A000B20563EB75E08DEB95E00E948F0B63EB4A
:1035B00074E083EB95E00E948F0B69EB75E083EC80
:1035C00095E00E94A20B68E776E089EB95E00E9407
:1035D000A20B8AE290E00E94D1048091050583FF4E
:1035E0000DC01091B205123049F46CEE74E08FEF0B
:1035F00094E00E94F20B8111109305058091F9046B
:10360000811111C08091F804882369F066EE74E09E
:103610008AEF94E00E94F20B882329F081E08093E6
:10362000F9041092F8048091F3048111FACC80918E
:10363000F204882309F4F5CC66EE74E084EF94E09C
:103640000E94F20B882309F4ECCC81E08093F30410
:103650001092F204E6CC9091E504911122C0E6E3C9
:10366000EE16F10408F4DDCC0091B405063009F043
:10367000D8CC8091C1058B3009F0ACC044E050E05B
:1036800064EF74E087EB95E00E940429892B09F030
:10369000C8CC1091CC0512FF51C085E08093FE0488
:1036A000C0CC8131E1F6EDEBCE2EE4E0DE2EB12C84
:1036B000A12C20E08091E5048A151B04D9F1D4F1F6
:1036C000D60112963C91129713969C911397809174
:1036D000C1059F8F18A2EF8DF8A18E171F0619F54F
:1036E0008091C20583131FC014969C901497992053
:1036F000D1F00091C30510E0102F00272091C405E0
:103700002850330B020F131F4091BF055091C00585
:10371000542745275427ED91FC9127EC35E067EBC2
:1037200075E00995292DFFEFAF1ABF0A35E0C30EEA
:10373000D11CC0CF222309F492CF73CC0E9477030F
:103740002091FE04223091F5212F20711271123147
:1037500009F560E090E080E00E94BC0B88E1809376
:10376000CC0583E08093FE041092AD0588E280933F
:10377000AE050E9410041092CF051092D00522E0F1
:103780004CE150E06AE182E30E94BD0386E390E0F1
:103790000C94DC2431E03093FE040196222311F0D6
:1037A00090E080E064E00E94BC0B3BCC253009F443
:1037B00038CC10FF0AC0233009F433CC69E00196FD
:1037C0000E94BC0B0093FE042CCC60E0009709F42F
:1037D00028CCE9CF811125CC8091C205803509F034
:1037E00020CC1091CC0511FF3AC01092AD058CE2AF
:1037F0008093AE050E94AA0B82E18093CC0560E025
:1038000081E090E00E9492031092C3051092C405DB
:10381000809132018093C5051092C6058D5F80931B
:10382000320182E08093D30584E08093D40585E063
:103830008093D5051092D60590E69093CB058093A2
:10384000CD0588E78093CE0522E040E250E06AE1B2
:1038500082E30E94BD038AE390E00C94DC2414FF11
:10386000E0CB0E947703892B09F0DBCB10FFD9CB8B
:1038700060E090E080E097CF8091520182151304C0
:1038800009F00CF419C3D80150968C9150978530EB
:10389000A9F461E0822D0E94F408BC01990F880B05
:1038A000990B0E941B26F801608771878287938796
:1038B000FFEF2F1A3F0A0B5C1F4FDECF5D96CD90B6
:1038C000DD90ED90FC909097F801C086D186E2865D
:1038D000F38620E030E0A901C701B6010E946C2503
:1038E000412C512C50E8652E5FE3752E87FF06C0F2
:1038F000412C512C40E8642E4FEB742E20E030E038
:10390000A901C701B6010E94CB26181624F0F7FAC8
:10391000F094F7F8F094D80191968D909D90AD9029
:10392000BC909497A7019601C501B4010E946C2533
:1039300087FFBECFA3019201C501B4010E94D0262A
:10394000B2CF13968C911397882309F45CC120E0C1
:1039500030E0A90155966D917D918D919C9158977C
:103960000E94CB2618160CF04EC1EF89F88DF0801E
:1039700001811281E3800E946A03CD8CDE8CCC0C25
:10398000DD1CCC0CDD1C9601215F3A4F5901D90199
:103990004D905D906D907C9064197509860997092A
:1039A0000E94192620E030E048E452E40E94CB2631
:1039B00087FDC0C00E946A03F50160837183828322
:1039C0009383D10155964D905D906D907C90589762
:1039D00014962D913D914D915C911797C301B201C1
:1039E0000E94FF24698F7A8F8B8F9C8F20E030E0BC
:1039F000A9010E94CB26898C9A8CAB8CBC8C1816A2
:103A000024F0B7FAB094B7F8B0942FE832EC45E759
:103A10005CE3C301B2010E94D026A50194010E947B
:103A20006C2587FFE8C053014201B7FAB094B7F89C
:103A3000B094A5019401698D7A8D8B8D9C8D0E9427
:103A40006C2587FD10C0298D3A8D4B8D5C8DC3018F
:103A5000B2010E946C255301420187FD04C0898C8C
:103A60009A8CAB8CBC8C20E030E0A901C501B4017C
:103A70000E94CB2618160CF472C0A5019401505870
:103A8000298F3A8F4B8F5C8FD10199962D913D9163
:103A90004D915C919C97C501B4010E94D0264B01C9
:103AA0005C0120E030E040E85EE3C301B2010E9427
:103AB000D026298D3A8D4B8D5C8D0E946C2587FF19
:103AC00053C020E030E048EC52E4C501B4010E944C
:103AD000D0262F2D302F412F5E2D0E9400255B0117
:103AE0006C01F101F5A006A117A1E0A49B01AC01B6
:103AF0006F2D702F812F9E2D0E94CB261816D4F08B
:103B0000D1019196FC90919792960C9192979396F1
:103B10001C9193979496EC902F2D302F412F5E2D72
:103B2000B501C6010E94CB26181624F0FA2C0B2DE5
:103B30001C2DED2C8F2D902FA12FBE2DEF89F88DF0
:103B400080839183A283B3836F2D702F812F9E2D4D
:103B50000E94E325072E000C880B990B93CA898ECF
:103B60009A8EAB8EBC8E90CFF601E95FFA4F6F0153
:103B7000D1019D964D905D906D907C90D097A30162
:103B80009201C501B4010E94D026F6012081318145
:103B9000428153810E940025698F7A8F8B8F9C8F81
:103BA00020E030E0A901C301B2010E94CB2620E051
:103BB00030E040E85FE318161CF020E030E0A90197
:103BC000698D7A8D8B8D9C8D0E94D0262B013C01B6
:103BD000D6014D925D926D927C92139720E030E079
:103BE00040EF51E4C501B4010E94D026A301920127
:103BF0000E9400256ECFF601E95FFA4F1082118214
:103C00001282138297CFAF89B88D1D921D921D929B
:103C10001C921397F12C00E010E0E12C95CFD1011C
:103C200013968C911397882309F442C120E030E069
:103C3000A90155966D917D918D919C9158970E9407
:103C4000CB2618160CF034C1EF89F88DC080D180D6
:103C5000E280F3800E946A030D8D1E8D000F111FFC
:103C6000000F111F9801215F3A4F5901D9014D9062
:103C70005D906D907C9064197509860997090E9482
:103C8000192620E030E048E452E40E94CB2687FD6C
:103C9000B5C00E946A03F5016083718382839383B8
:103CA000D10155968D909D90AD90BC9058971496EB
:103CB0002D913D914D915C911797C501B4010E94E2
:103CC000FF242B013C0120E030E0A9010E94CB261B
:103CD00073016201181624F0F7FAF094F7F8F094E3
:103CE0002FE832EC45E75CE3C501B4010E94D02621
:103CF000A70196010E946C2587FFD3C0750164015E
:103D0000F7FAF094F7F8F094A7019601C301B20115
:103D10000E946C2587FD0CC0A3019201C501B4016E
:103D20000E946C257301620187FF02C07501640166
:103D300020E030E0A901C701B6010E94CB26260190
:103D40003701181624F077FA709477F8709420E011
:103D500030E040E85EE3C501B4010E94D026A30133
:103D600092010E946C2587FF53C0F10121A532A565
:103D700043A554A5C701B6010E94D02620E030E03B
:103D800048EC52E40E94D0264B015C0120E030E078
:103D9000A9010E94CB2624013501181624F077FAD8
:103DA000709477F87094D1019596CD90DD90ED9058
:103DB000FC909897A3019201C701B6010E94CB26FF
:103DC00018167CF0F101C1A0D2A0E3A0F4A0A701D5
:103DD0009601C301B2010E94CB26181614F073019C
:103DE000620120E030E0A901C501B4010E94CB26A8
:103DF000181624F0F7FAF094F7F8F094AF89B88D1C
:103E0000CD92DD92ED92FC921397C701B601A0CE40
:103E1000095F1A4FD10199962D913D914D915C9179
:103E20009C97C701B6010E94D0266B017C01F1016D
:103E300085A496A4A7A4B0A8A50194010E94D026A9
:103E4000D8012D913D914D915C910E9400252B014F
:103E50003C0120E030E0A901C501B4010E94CB265D
:103E600020E030E040E85FE318161CF020E030E08E
:103E7000A901C301B2010E94D0264B015C01F801E7
:103E800080829182A282B38220E030E040EF51E450
:103E9000C701B6010E94D026A50194010E94002509
:103EA00073CFF801E95FFA4F1082118212821382F8
:103EB000C12CD12C7601A2CF0E946A030091390156
:103EC00010913A0120913B0130913C01601B710B34
:103ED000820B930B623371058105910508F4D4C3FD
:103EE0000E946A036093390170933A0180933B0109
:103EF00090933C0106E0602E06E0702E8301F12CC9
:103F0000E12C809152018E151F0409F00CF444C07D
:103F10000E946A03D8011C968D909D90AD90BC9034
:103F20001F97681979098A099B09603A7F408105C2
:103F3000910580F5F80185889688A788B08C20E0E7
:103F400030E0A901C501B4010E94CB26181624F463
:103F500080910506811114C0D80150968C9184304F
:103F600049F420E030E0A901C501B4010E94CB264C
:103F7000181674F08091380181110CC080910506EB
:103F8000F8018383FFEFEF1AFF0A0B5C1F4FB9CFD5
:103F900081E0F6CF80E0F4CF0E946A030091120620
:103FA000109113062091140630911506601B710BB9
:103FB000820B930B603A7F408105910508F021C187
:103FC00000913705E090360580916901823009F44F
:103FD000F0C108F035C1813009F4A6C128E335E00D
:103FE0003E8F2D8F40E955E0588F4F8B06E016E04D
:103FF000F12CE12C6701CC0CDD1CC60188569A4FD0
:104000005C01DC018D919C91892B09F486C020E034
:1040100030E0A901F801618D728D838D948D0E942D
:10402000CB2618160CF079C00E946A03AF89B88DB0
:104030006D937D938D939C931397F894F501208154
:104040003181F80181899289A389B489820F931FF4
:10405000A11DB11D818B928BA38BB48BD5011196C1
:104060001C921E92F601E457FA4F60817181F701AC
:10407000EE0FFF1FEE0FFF1FEC57FA4F208031802D
:1040800042805380789490E080E00E94192620E0DE
:1040900034E244E759E40E94D0264B015C01C2019E
:1040A000B1010E9419269B01AC01C501B4010E9417
:1040B00071252DEC3CEC4CE45FE30E94D0264B01D3
:1040C0005C012DEC3CEC4CE45EE3F80161A972A9C3
:1040D00083A994A90E94D0269B01AC01C501B4011B
:1040E0000E940025D801D1966D937D938D939C936A
:1040F000D49720E030E040E752E40E94D026F80157
:10410000218D328D438D548D0E947125D8011496D6
:104110006D937D938D939C9317970E946A03EF890B
:10412000F88D81909190A190B190F88FEF8B6819E4
:1041300079098A099B09613A7F408105910528F434
:10414000D80113968C91811131C0F8011482158227
:104150001682178211AA12AA13AA14AAC701880FDD
:10416000991F880F991FFC01E458FA4F20E231EAA9
:1041700047E050E02083318342835383F601E457C4
:10418000FA4F11821082F601E858FA4F118210821C
:104190008C579A4FDC011D921D921D921C92139711
:1041A000ED8DFE8D20E211922A95E9F70B5C1F4FF1
:1041B0004D8D5E8D405E5F4F5E8F4D8FEA94EF2890
:1041C00009F080C110E000E0EE24E39480915201F8
:1041D0008017110609F00CF4F7C1D30150968C91A9
:1041E000823009F4D7C108F071C1882309F49EC157
:1041F000813009F471C10F5F1F4FF5E36F0E711C21
:10420000E5CF0E946A03009147061091480620916D
:10421000490630914A06601B710B820B930B603A82
:104220007F408105910508F4CBCE00913505809142
:104230003405082BE090330580913205E82AC4CE7E
:10424000833009F4EAC0843009F0C8CE809120059B
:10425000882309F4C3CEF12CD12C90E080E010E04B
:104260006E2D70E021E030E0082E02C0220F331FD7
:104270000A94E2F7A801422353232417350799F43F
:10428000FC01EF5AFE4FE0854E2F50E0E83008F475
:1042900009C148505109A1E0B0E002C0AA0FBB1FFC
:1042A0004A95E2F7FA2AAB01422353232417350734
:1042B00099F4FC01EF5AFE4F4089242F30E048303A
:1042C00008F4F8C028503109E1E0F0E002C0EE0F38
:1042D000FF1F2A95E2F7FE2A01968830910511F614
:1042E00080915301882311F0D094F09480911F05A0
:1042F00091E090937306809372061092710610926B
:10430000700682E190E00E94BA066D2D89E197E087
:104310000E948B066F2D89E197E00E948B0689E150
:1043200097E00E94BF065ACE19E5A12E11E0B12EEA
:10433000D12CC12C10E0FF24F394D5018D915D01A7
:104340008F3FD9F4BFEFCB1ADB0AE8E0CE16D104D9
:10435000A1F7B1E6CB2EB1E0DB2E10E000E0F12CAE
:10436000BB24B394D6018D916D018F3FA1F40F5FF3
:104370001F4F08301105B1F731CE609153019801FC
:104380000C2C02C0359527950A94E2F720FF6F2583
:104390000E944C02D7CF609153019701002E02C0BA
:1043A000359527950A94E2F720FF6B250E944C0271
:1043B000DECF80913105882309F410CEF1E2AF2ED3
:1043C000F5E0BF2EA5E8CA2EA1E0DA2EF12CE12CF3
:1043D00010E098010E2C02C0359527950A94E2F75B
:1043E000B22FB1709B2EF50181915F01B81751F08A
:1043F000D6018C9160E020FF61E00E94E507F501A5
:1044000031979082BFEFEB1AFB0AEFEFCE1ADE0A6C
:10441000F8E0EF16F104E9F6E1CD8091310588234B
:1044200009F4DCCD71E2872E75E0972EE5E7AE2E1C
:10443000E1E0BE2ED12CC12CF12C10E028E0C216F8
:10444000D1042CF5C8010C2C02C0959587950A94CF
:10445000E2F7382F3170532ED4018D914D0185151F
:1044600059F0F501808160E0511001C061E00E94C7
:10447000E507F40131975082FFEFCF1ADF0A2FEFE3
:10448000A21AB20A30E1C316D104C1F6A7CDC60103
:104490000897A70102C0559547958A95E2F74170A4
:1044A000542EDACF41E050E001C0440FEA95EAF71C
:1044B000D42AF9CE21E030E001C0220F4A95EAF774
:1044C000D22A0ACFEE24E394F12C94CD843009F45F
:1044D00061C0853009F08FCEF0905401D301119660
:1044E000DC90119713968C911397882309F44AC096
:1044F00020E030E0A90118966D917D918D919C91FD
:104500001B970E94CB266F2D87FD50C08D2D0E94DA
:104510004C02F30160857185828593850E94E325B5
:10452000D30112968C910E94B60265CEF090540190
:10453000F301D18020E030E0A9016085718582859A
:1045400093850E94CB266F2D87FD0FC08D2D0E9475
:104550004C02D30118966D917D918D919C911B9782
:104560000E94E325F3018281DECF6E258D2D0E940E
:104570004C02D30118966D917D918D919C911B9762
:104580009058EECF6F2D6E258D2D0E944C026FEF4F
:1045900070E0E8CFD30113968C911397882389F0AC
:1045A000F09054011196DC901197A2CF6E258D2DBD
:1045B0000E944C02F3016085718582859385905835
:1045C000ADCF70E060E0CECF20916A012F3F09F4BB
:1045D0002BC130E0F901EB5BFE4F8491F901EF5CF8
:1045E000FE4F1491F901E35EFE4F0491002309F49C
:1045F00015C181110E942302E02FF0E0EE0FFF1F92
:10460000ED5EFE4FA591B491EC911E2331E020E0C8
:1046100009F430E0832F922F282F217030916B0105
:10462000332309F4FEC030919C05231751F0892BE8
:1046300031F08091020691E0892780930206209351
:104640009C05109204061092030680916D018F3F25
:10465000D9F08E3008F08E508770806480937C0093
:1046600080917A00806480937A0080917A0086FD40
:10467000FCCF90917800809179008927982789272D
:1046800090930406809303060E946A03009134010C
:10469000109135012091360130913701601B710B6B
:1046A000820B930B693C71058105910508F413C1D8
:1046B0000E946A0360933401709335018093360140
:1046C0009093370106E016E0F12CE12C80E9D82E1A
:1046D0009EE7C92E80915101909152019E151F04B1
:1046E00009F00CF4A8C0D982CA8220E1829FC001DF
:1046F00011248E298B8320E030E04AE754E4D8016E
:1047000014966D917D918D919C9117970E94D02662
:104710000E94EA256C837D838E83F801818C928CC4
:10472000A38CB48C20E030E0A901C501B4010E9443
:10473000CB2618160CF07BC0D80151966D917D9157
:104740008D919C9154970E94192620E030E040E220
:1047500051E40E94D026A50194010E9471250E9477
:10476000EA256F8378878987F8016085718582855E
:1047700093850E94E3256A877B871C860E946A03D3
:10478000D8011C968D909D90AD90BC901F97681994
:1047900079098A099B09603A7F408105910518F4DF
:1047A0008C8581608C8720E030E040E251E4F801A4
:1047B00061A972A983A994A90E94D0260E94EA2522
:1047C0006D877E87FE01319690E080E02191820F17
:1047D000911D2D893E892E173F07C1F78F870E94B3
:1047E0000F0B8823A9F04FE255E76DE471E083E0F9
:1047F00094E10E943D0C8FE0FE013196A7ECB5E0FC
:1048000001900D928A95E1F78FE090E00E943105CA
:104810003FEFE31AF30A0B5C1F4F5CCF90E080E0A0
:10482000FBCE209302060DCF109202060ACF1F8204
:104830001886198699CF91E999839EE79A838B838D
:1048400090910306809104069C838D831E821F82B3
:10485000188619861A861B8687E88C8786E48D87DA
:104860001E8680910206882311F081E08E870E94C7
:104870000F0B882319F08E8580618E878091010649
:10488000882319F08E8580628E87FE01319690E034
:1048900080E02191820F911D4D895E894E175F073F
:1048A000C1F78F870E940F0B8823A9F04FE255E7CD
:1048B0006DE471E083E094E10E943D0C8FE0FE0125
:1048C0003196A7ECB5E001900D928A95E1F78FE063
:1048D00090E00E94310580E090E0892B11F40C9467
:1048E000E5160E948001882311F40C94E5160E94BD
:1048F00000000C94E01680916901813011F00C9455
:104900006413E9E5F1E081918651893E10F40C943D
:10491000E11421E0E936F207B1F781E00C94E214EA
:1049200059E2E516F10411F40C94111881110C945C
:1049300011188091AB05853411F00C94111844E0E6
:1049400050E068E776E08BEB95E00E940429892B24
:10495000B1F044E050E069EB74E08BEB95E00E942D
:104960000429892B61F044E050E06FE671E08BEBA5
:1049700095E00E940429892B11F00C941118809164
:10498000B405813011F00C942B1B9091BF05983029
:1049900011F00C942B1B0E94AA0B1092BF05809162
:1049A000C105883F28F09091C2059F5F9093C20592
:1049B000885F8093C105C7010E94D1040C9411182F
:1049C000FB01DC0102C005900D9241505040D8F728
:1049D0000895F999FECF92BD81BDF89A992780B5C7
:1049E0000895262FF999FECF1FBA92BD81BD20BD33
:1049F0000FB6F894FA9AF99A0FBE01960895505896
:104A0000BB27AA270E9417250C9491260E94832673
:104A100038F00E948A2620F039F49F3F19F426F4DA
:104A20000C9480260EF4E095E7FB0C947A26E92F8F
:104A30000E94A22658F3BA176207730784079507E6
:104A400020F079F4A6F50C94C4260EF4E0950B2E14
:104A5000BA2FA02D0B01B90190010C01CA01A001D0
:104A60001124FF27591B99F0593F50F4503E68F12B
:104A70001A16F040A22F232F342F4427585FF3CF6C
:104A8000469537952795A795F0405395C9F77EF43D
:104A90001F16BA0B620B730B840BBAF09150A1F086
:104AA000FF0FBB1F661F771F881FC2F70EC0BA0F0C
:104AB000621F731F841F48F4879577956795B79594
:104AC000F7959E3F08F0B0CF9395880F08F099278F
:104AD000EE0F9795879508950E94562608F481E079
:104AE00008950E9485250C9491260E948A2658F0EC
:104AF0000E94832640F029F45F3F29F00C947A2627
:104B000051110C94C5260C9480260E94A22668F3AD
:104B10009923B1F3552391F3951B550BBB27AA2776
:104B200062177307840738F09F5F5F4F220F331FB0
:104B3000441FAA1FA9F335D00E2E3AF0E0E832D078
:104B400091505040E695001CCAF72BD0FE2F29D07B
:104B5000660F771F881FBB1F261737074807AB074D
:104B6000B0E809F0BB0B802DBF01FF2793585F4FC2
:104B70003AF09E3F510578F00C947A260C94C526A5
:104B80005F3FE4F3983ED4F3869577956795B795A4
:104B9000F7959F5FC9F7880F911D9695879597F9AF
:104BA0000895E1E0660F771F881FBB1F6217730728
:104BB0008407BA0720F0621B730B840BBA0BEE1F3D
:104BC00088F7E09508950E94EA256894B1110C9445
:104BD000C52608950E94AA2688F09F5798F0B92FFD
:104BE0009927B751B0F0E1F0660F771F881F991F22
:104BF0001AF0BA95C9F714C0B13091F00E94C426DA
:104C0000B1E008950C94C426672F782F8827B85FE9
:104C100039F0B93FCCF3869577956795B395D9F779
:104C20003EF490958095709561957F4F8F4F9F4F83
:104C30000895E89409C097FB3EF49095809570958F
:104C400061957F4F8F4F9F4F9923A9F0F92F96E9D8
:104C5000BB279395F695879577956795B795F1114D
:104C6000F8CFFAF4BB0F11F460FF1BC06F5F7F4FEA
:104C70008F4F9F4F16C0882311F096E911C07723FC
:104C800021F09EE8872F762F05C0662371F096E805
:104C9000862F70E060E02AF09A95660F771F881FD4
:104CA000DAF7880F9695879597F90895990F000878
:104CB000550FAA0BE0E8FEEF16161706E807F907EE
:104CC000C0F012161306E407F50798F0621B730B89
:104CD000840B950B39F40A2661F0232B242B252B0A
:104CE00021F408950A2609F4A140A6958FEF811DAD
:104CF000811D089597F99F6780E870E060E008954E
:104D00009FEF80EC089500240A94161617061806E3
:104D10000906089500240A941216130614060506BF
:104D20000895092E0394000C11F4882352F0BB0F50
:104D300040F4BF2B11F460FF04C06F5F7F4F8F4FB3
:104D40009F4F089557FD9058440F551F59F05F3FEE
:104D500071F04795880F97FB991F61F09F3F79F09D
:104D600087950895121613061406551FF2CF46951F
:104D7000F1DF08C0161617061806991FF1CF8695A1
:104D80007105610508940895E894BB276627772785
:104D9000CB0197F908950E94562608F48FEF0895E5
:104DA0000E94E3260C9491260E94832638F00E94EC
:104DB0008A2620F0952311F00C947A260C948026F4
:104DC00011240C94C5260E94A22670F3959FC1F36E
:104DD000950F50E0551F629FF001729FBB27F00DA9
:104DE000B11D639FAA27F00DB11DAA1F649F6627FE
:104DF000B00DA11D661F829F2227B00DA11D621F4D
:104E0000739FB00DA11D621F839FA00D611D221F06
:104E1000749F3327A00D611D231F849F600D211DEA
:104E2000822F762F6A2F11249F5750409AF0F1F06D
:104E300088234AF0EE0FFF1FBB1F661F771F881FD6
:104E400091505040A9F79E3F510580F00C947A266E
:104E50000C94C5265F3FE4F3983ED4F3869577958E
:104E60006795B795F795E7959F5FC1F7FE2B880F7C
:104E7000911D9695879597F90895FA01EE0FFF1FFA
:104E8000309621053105A1F16115710561F4803875
:104E9000BFE39B0749F168949038810561F0803841
:104EA000BFEF9B0741F099234AF5FF3FE10531052C
:104EB000210519F1E8940894E795D901AA2329F46A
:104EC000AB2FBE2FF85FD0F310C0FF5F70F4A69534
:104ED000E0F7F73950F019F0FF3A38F49F779F93D5
:104EE0000DD00F9007FC9058089546F00C94802642
:104EF00060E070E080E89FE308954FE79F775F935D
:104F00004F933F932F930E9438282F913F914F91B9
:104F10005F910E94D0260C94952729F416F00C94EA
:104F20007A260C94C4260C9480260E94AA26A8F304
:104F30009638A0F707F80F92E8942BE33AEA48EB8B
:104F40005FE70E94E6260F920F920F924DB75EB771
:104F50000F920E948028E8E6F0E00E94C7274F9158
:104F60005F91EF91FF91E595EE1FFF1F49F0FE570E
:104F7000E0684427EE0F441FFA95E1F74195550B81
:104F80000E94FA270F9007FE0C94EE270895DF93F6
:104F9000CF931F930F93FF92EF92DF927B018C01CF
:104FA000689406C0DA2EEF010E94E326FE01E89421
:104FB000A5912591359145915591A6F3EF010E9458
:104FC0001725FE019701A801DA9469F7DF90EF90A9
:104FD000FF900F911F91CF91DF9108959B01AC013C
:104FE00060E070E080E89FE30C9471250C947A26D1
:104FF0000C94B4280E94AA26D8F39923C9F3940FDD
:10500000511DA3F39150504094F059F0882332F091
:10501000660F771F881F91505040C1F79E3F510582
:105020002CF7880F911D9695879597F908955F3F06
:10503000ACF0983E9CF0BB27869577956795B79521
:1050400008F4B1609395C1F7BB0F58F711F460FFF6
:10505000E8CF6F5F7F4F8F4F9F4FE3CF0C94C526F4
:1050600016F00C94B4280C94802668940C947A263C
:105070000E94AA26A8F39923C1F3AEF3DF93CF933E
:105080001F930F93FF92C92FDD2788232AF02197C2
:10509000660F771F881FDAF720E030E040E85FEB0B
:1050A0009FE3883920F0803E38F021968F770E9468
:1050B0000025E0E9F0E004C00E940025EDEBF0E0FF
:1050C0000E94C7278B01BE01EC01FB2E6F577109AF
:1050D0007595771F880B990B0E941B2628E132E7F4
:1050E00041E35FE30E94E326AF2D9801AE01FF90FC
:1050F0000F911F91CF91DF910E9417250C9491265B
:10510000FA01DC01AA0FBB1F9B01AC01BF5728F4B9
:10511000222733274427507820C0B75190F4AB2F73
:105120000024469537952795011CA395D2F30020BE
:1051300071F0220F331F441FB395DAF30ED00C9495
:10514000FF2461307105A0E88A07B94630F49B015D
:10515000AC016627772788279078309621F0208346
:1051600031834283538308959F3F31F0915020F45F
:10517000879577956795B795880F911D9695879533
:1051800097F90895A1E21A2EAA1BBB1BFD010DC0C1
:10519000AA1FBB1FEE1FFF1FA217B307E407F507E7
:1051A00020F0A21BB30BE40BF50B661F771F881FC3
:1051B000991F1A9469F760957095809590959B0159
:1051C000AC01BD01CF0108950E94F528A59F900D67
:1051D000B49F900DA49F800D911D11240895EE0F92
:1051E000FF1F0590F491E02D0994A29FB001B39F99
:1051F000C001A39F700D811D1124911DB29F700DE0
:10520000811D1124911D0895FB01DC0104C08D91C5
:105210000190801921F441505040C8F7881B990B28
:065220000895F894FFCF91
:1052260041726475696E6F2D454E4332386A363069
:105236002D303000000000000000000000000000DB
:10524600FFFFFF0008080808000000010A0B420CD7
:105256000D000A01C8000000013200000076037646
:10526600030000200000FFFF0000FFFF0000000019
:10527600FF00020101C0A80132000F010E020D035A
:105286000C040B050A06090708040E00010F00FFAF
:10529600FFFFFFFFFF0F0E0D0C0B0A0908000102AE
:1052A600030405060707050301080A0C0E000000A3
:1052B60000B60114014301030274015201660100A4
:1052C6000000008B065E06060834065706440635BF
:1052D600060D0A005570646174696E672073746FF9
:1052E6007265642073657474696E67732E00524329
:1052F6006E616E6F203A202031382D4D61792D3246
:10530600303235004C6F6164696E672073746F725A
:1053160065642073657474696E67732E0053746FC9
:105326007265642073657474696E6773206E6F743A
:105336002076616C69642E004C6F6164696E67202B
:1053460064656661756C742073657474696E6773E1
:105356002E004D6F64756C652049443A20004D6FF0
:1053660064756C652056657273696F6E3A200053DA
:1053760074617274696E672045746865726E6574CF
:10538600202E2E2E0045746865726E657420636F3C
:105396006E74726F6C6C657220666F756E642E002B
:1053A600495020416464726573733A20202020209E
:1053B6000045746865726E6574206361626C652071
:1053C6006E6F7420636F6E6E65637465642E004540
:1053D600746865726E657420636F6E74726F6C6C40
:1053E6006572206E6F7420666F756E642E0053743E
:1053F600617274696E6720504341393535352049ED
:105406002F4F20457870616E646572202E2E2E0017
:105416005043413935353520657870616E64657263
:1054260020666F756E642E00504341393535352040
:10543600657870616E646572206E6F7420666F7534
:105446006E642E005374617274696E67204D43500A
:105456003233303137202E2E2E004D43503233302A
:10546600313720666F756E642E004D4350323330EF
:105476003137206E6F7420666F756E642E00466C31
:105486006F772050696E3A20004449522050696E69
:105496003A200050574D2050696E3A2000576F72DF
:1054A6006B2050696E3A2000507265737375726591
:1054B6002050696E3A200046696E697368656420FB
:0854C60073657475702E00007F
:00000001FF
