:100000000C946D000C9476170C944F170C9495007B
:100010000C9495000C9495000C9495000C9495000C
:100020000C9495000C9495000C9495000C949500FC
:100030000C9495000C9495000C9495000C949500EC
:100040000C9405170C9495000C94D3160C94AD16D3
:100050000C9495000C9495000C9495000C949500CC
:100060000C949D170C949500638253630001080063
:100070000604000100000000250028002B000000FD
:100080000000240027002A000000000023002600B2
:10009000290004040404040404040202020202020B
:1000A000030303030303010204081020408001023C
:1000B00004081020010204081020000000080002BB
:1000C00001000003040700000000000000004500DC
:1000D0000082000040002000BC1811241FBECFEF9A
:1000E000D8E0DEBFCDBF13E0A0E0B1E0E0E4F1E690
:1000F00002C005900D92A639B107D9F727E0A6E90D
:10010000B3E001C01D92A63BB207E1F710E0CDE6D7
:10011000D0E004C02197FE010E947C30CC36D1078C
:10012000C9F70E941B190C949E300C940000CF93C9
:10013000DF932091E1062223C1F0FC0120812223DC
:10014000A1F0C1EED6E0ADEDB6E09C012C5F3F4FD3
:10015000899141919D918427892339F4E217F3070E
:10016000B9F781E0DF91CF91089580E0FBCF08954A
:1001700008958230C8F4E82FF0E0EE0FFF1FE15C35
:10018000FE4F71836083813041F0809169008C7FE4
:10019000826080936900E89A089580916900837F66
:1001A000886080936900E99A0895AF92BF92CF92D8
:1001B000DF92EF92FF920F931F93CF93DF936C0127
:1001C0007B018B01040F151FEB015E01AE18BF0808
:1001D000C017D10759F06991D601ED91FC910190BA
:1001E000F081E02DC6010995892B79F7C501DF91D2
:1001F000CF911F910F91FF90EF90DF90CF90BF9024
:10020000AF900895FC01538D448D252F30E0842F4D
:1002100090E0821B930B541710F0CF96089501972E
:100220000895FC01918D828D981761F0A28DAE0F1B
:10023000BF2FB11D5D968C91928D9F5F9F73928FA2
:1002400090E008958FEF9FEF0895FC01918D828DCE
:10025000981731F0828DE80FF11D858D90E008959B
:100260008FEF9FEF0895FC01918D228D892F90E0F3
:10027000805C9F4F821B91098F739927089585EEAB
:1002800096E00E94330121E0892B09F420E0822FBF
:10029000089580E090E0892B29F00E943F018111B0
:1002A0000C9400000895FC01A48DA80FB92FB11D76
:1002B000A35ABF4F2C91848D90E001968F7399279C
:1002C000848FA689B7892C93A089B1898C9183707A
:1002D00080648C93938D848D981306C00288F38973
:1002E000E02D80818F7D80830895EF92FF920F93A0
:1002F0001F93CF93DF93EC0181E0888F9B8D8C8DD2
:1003000098131AC0E889F989808185FF15C09FB7C5
:10031000F894EE89FF896083E889F9898081837088
:10032000806480839FBF81E090E0DF91CF911F9137
:100330000F91FF90EF900895F62E0B8D10E00F5F58
:100340001F4F0F731127E02E8C8D8E110CC00FB62E
:1003500007FCFACFE889F989808185FFF5CFCE01C6
:100360000E945301F1CFEB8DEC0FFD2FF11DE35AED
:10037000FF4FF0829FB7F8940B8FEA89FB89808149
:100380008062CFCFCF93DF93EC01888D8823B9F0C3
:10039000AA89BB89E889F9898C9185FD03C0808190
:1003A00086FD0DC00FB607FCF7CF8C9185FFF2CF0D
:1003B000808185FFEDCFCE010E945301E9CFDF910F
:1003C000CF910895833081F028F4813099F0823004
:1003D000A9F008958730A9F08830C9F08430B1F4CD
:1003E000809180008F7D03C0809180008F77809303
:1003F0008000089584B58F7784BD089584B58F7D7E
:10040000FBCF8091B0008F778093B00008958091EA
:10041000B0008F7DF9CF1F93CF93DF93282F30E06B
:10042000F901E654FF4F8491F901EA55FF4FD49149
:10043000F901EE56FF4FC491CC23A9F0162F81117C
:100440000E94E201EC2FF0E0EE0FFF1FEC58FF4F8F
:10045000A591B4918FB7F894EC91111108C0D09583
:10046000DE23DC938FBFDF91CF911F910895DE2BA8
:10047000F8CFCF93DF9390E0FC01EA55FF4F249132
:100480008E569F4FFC0184918823C9F090E0880F1D
:10049000991FFC01E258FF4FA591B491FC01EC5863
:1004A000FF4FC591D49161110DC09FB7F8948C9105
:1004B000209582238C938881282328839FBFDF91F6
:1004C000CF910895623051F49FB7F8943C91822FF8
:1004D000809583238C93E8812E2BEFCF8FB7F894F0
:1004E000EC912E2B2C938FBFEACF1F93CF93DF93EA
:1004F000182FEB0161E00E943902209739F460E087
:10050000812FDF91CF911F910C940B02CF3FD1052A
:1005100011F461E0F5CFE12FF0E0E654FF4FE491F4
:10052000E33031F140F4E130B1F0E230E1F0C038D5
:10053000D1057CF7E4CFE73029F1E83059F1E43018
:10054000B1F780918000806280938000D0938B000F
:10055000C0938A0004C084B5806884BDC7BDDF91A4
:10056000CF911F91089584B5806284BDC8BDF7CF37
:1005700080918000806880938000D0938900C09330
:100580008800EDCF8091B00080688093B000C09368
:10059000B300E5CF8091B00080628093B000C0933B
:1005A000B400DDCF8230910538F0880F991F880F95
:1005B000991F05970197F1F708953FB7F894809137
:1005C0001E0490911F04A0912004B091210426B52F
:1005D000A89B05C02F3F19F00196A11DB11D3FBF7B
:1005E000BA2FA92F982F8827BC01CD01620F711D4A
:1005F000811D911D42E0660F771F881F991F4A9544
:10060000D1F708954F925F926F927F928F929F924F
:10061000AF92BF92CF92DF92EF92FF920E94DD02E3
:100620004B015C018091A0039091A103A091A203D2
:10063000B091A30375016401C81AD90AEA0AFB0A3A
:1006400081E8C81684E8D8068EE1E806F10408F4CB
:100650004CC01092A6031092A7031092A803109208
:10066000A90390E080E02091000130910101821700
:1006700093076CF4FC01EE0FFF1FEE0FFF1FE25813
:10068000FB4F10821182128213820196ECCF1092DE
:10069000A4031092DF041092DE048092A0039092D3
:1006A000A103A092A203B092A30380912005909190
:1006B0002105A0912205B09123050196A11DB11D30
:1006C0008093200590932105A0932205B0932305E4
:1006D000FF90EF90DF90CF90BF90AF909F908F9062
:1006E0007F906F905F904F9008954091550628EE4F
:1006F00033E0429FC001439F900D1124092E000C4E
:10070000AA0BBB0B8C159D05AE05BF0508F78091A4
:10071000A6039091A703A091A803B091A903892BE8
:100720008A2B8B2B41F4C092A603D092A703E092B0
:10073000A803F092A903C701B6010E94542E2B0111
:100740003C016091A6037091A7038091A80390914A
:10075000A9030E94542E20E030E040E250E40E94C1
:100760000B2F9B01AC01C301B2010E94062F18168A
:1007700024F56091A6037091A7038091A80390913E
:10078000A9030E94542E20E030E040E05FE30E9485
:100790000B2F6B017C0120E030E040E05FE3C30100
:1007A000B2010E940B2F9B01AC01C701B6010E9450
:1007B0003B2D0E94252E6B017C01C0921805D09222
:1007C0001905E0921A05F0921B05E091A40384E05C
:1007D000E89FF0011124E258FB4FC082D182E282EF
:1007E000F3826091DE047091DF044091000150912A
:1007F00001012091DE043091DF0481E090E0641774
:10080000750714F090E080E0820F931F9093DF044F
:100810008093DE048091A403882381F1E091A403F6
:10082000E150FF0BEE0FFF1FEE0FFF1FE258FB4FD3
:1008300080819181A281B3818C0D9D1DAE1DBF1D54
:100840006C017D01F694E794D794C794C092A603F7
:10085000D092A703E092A803F092A9038091A40389
:100860008F5F8093A40320910001309101018217D2
:1008700013060CF412CF1092A4030FCFE0910001E5
:10088000F0910101EE0FFF1FEE0FFF1FE658FB4F27
:10089000CFCF4F925F926F927F928F929F92AF9243
:1008A000BF92CF92DF92EF92FF920E94DD024B0146
:1008B0005C018091AE039091AF03A091B003B09121
:1008C000B10375016401C81AD90AEA0AFB0A81E872
:1008D000C81684E8D8068EE1E806F10408F44CC096
:1008E0001092AA031092AB031092AC031092AD03C6
:1008F00090E080E020910001309101018217930780
:100900006CF4FC01EE0FFF1FEE0FFF1FE255FB4FD3
:1009100010821182128213820196ECCF1092A503ED
:100920001092E1041092E0048092AE039092AF0323
:10093000A092B003B092B103809124059091250557
:10094000A0912605B09127050196A11DB11D8093A8
:10095000240590932505A0932605B0932705FF90C5
:10096000EF90DF90CF90BF90AF909F908F907F904F
:100970006F905F904F9008954091860628EE33E087
:10098000429FC001439F900D1124092E000CAA0B19
:10099000BB0B8C159D05AE05BF0508F78091AA031A
:1009A0009091AB03A091AC03B091AD03892B8A2B3E
:1009B0008B2B41F4C092AA03D092AB03E092AC031C
:1009C000F092AD03C701B6010E94542E2B013C01E9
:1009D0006091AA037091AB038091AC039091AD0339
:1009E0000E94542E20E030E040E250E40E940B2FA1
:1009F0009B01AC01C301B2010E94062F181624F519
:100A00006091AA037091AB038091AC039091AD0308
:100A10000E94542E20E030E040E05FE30E940B2F64
:100A20006B017C0120E030E040E05FE3C301B201F4
:100A30000E940B2F9B01AC01C701B6010E943B2D08
:100A40000E94252E6B017C01C0921C05D0921D05D1
:100A5000E0921E05F0921F05E091A50384E0E89F57
:100A6000F0011124E255FB4FC082D182E282F38271
:100A70006091E0047091E104409100015091010106
:100A80002091E0043091E10481E090E06417750763
:100A900014F090E080E0820F931F9093E104809324
:100AA000E0048091A503882371F1E091A50384E01F
:100AB000E89FF0011124E655FB4F80819181A281CE
:100AC000B3818C0D9D1DAE1DBF1D6C017D01F69483
:100AD000E794D794C794C092AA03D092AB03E09254
:100AE000AC03F092AD038091A5038F5F8093A503C3
:100AF0002091000130910101821713060CF414CFEC
:100B00001092A50311CFE0910001F0910101EE0FC9
:100B1000FF1FEE0FFF1FCFCF8F929F92AF92BF921A
:100B2000CF92DF92EF92FF924B015C010E94DD02B7
:100B30006B017C010E94DD026C197D098E099F0901
:100B4000683E734081059105A8F321E0821A91085F
:100B5000A108B10888EEC80E83E0D81EE11CF11C84
:100B600081149104A104B10429F7FF90EF90DF9064
:100B7000CF90BF90AF909F908F9008952FB7F8942B
:100B800060911A0470911B0480911C0490911D04C3
:100B90002FBF08950895809193059091940598270B
:100BA0008927982744972091B10530E044E0359596
:100BB00027954A95E1F7220F331F220F331F821B1F
:100BC000930B97FF02C090E080E008952091A70565
:100BD0003091A5053093A7052093A5052091A80580
:100BE0003091A6053093A8052093A605E3E8F5E02B
:100BF00021A5820F911D25A585A7662381F021A738
:100C0000892F9927319725E0EF37F20789F710925E
:100C1000B5051092B60580E58093B105089511A63B
:100C2000EFCF0F931F93CF93DF9370E06D577A4F01
:100C30008A01075F1F4F213029F0223031F48A01E9
:100C40000250110930E020E003C000E010E09801FC
:100C5000EB01FA01E230F10558F0A991B991BA27F8
:100C6000AB27BA270A0F1B1F211D311D3297F2CF68
:100C7000FA01EE7F6E0F7F1F4E175F0769F0FB01D1
:100C8000408150E070E060E0762F652F542F4427BC
:100C9000040F151F261F371FA90166277727411547
:100CA00051056105710519F022273327F1CF009511
:100CB0001095E82FF0E0ED57FA4F10830183DF9194
:100CC000CF911F910F910895E3E8F5E0108E118EFA
:100CD00080E4848B158A868B20E044E150E06EE04E
:100CE00088E10C9411068EBD0DB407FEFDCF08956A
:100CF00061E0809125040E940B0278940895F89495
:100D000060E0809125040C940B020F931F93CF9306
:100D1000DF93EC018B010E947F062097B9F08AE3F4
:100D20000E9473061EBCF801CE01019739F00DB484
:100D300007FEFDCF2EB51EBC2193F7CF2197C00F24
:100D4000D11F0DB407FEFDCF8EB58883DF91CF9103
:100D50001F910F910C9478061F93CF93DF93182F58
:100D6000C62FD42F0E947F068C2F8F71812B0E945B
:100D700073068D2F0E947306DF91CF911F910C9403
:100D80007806CF93C82FC076809118048C1799F0FD
:100D900043E06FE180EA0E94AC06C09318044C2F38
:100DA00050E085E0559547958A95E1F76FE180E839
:100DB000CF910C94AC06CF910895CF93DF93C82FB9
:100DC000D62F0E94C1064D2F6C2F80E4DF91CF916A
:100DD0000C94AC06CF93DF93C82FD72F0E94DD066B
:100DE0006D2F81E08C0FDF91CF910C94DD06CF93B6
:100DF000C82F0E94C1060E947F068C2F8F710E940F
:100E0000730680E00E947306C7FF03C080E00E9463
:100E10007306CEB50E9478068C2FCF91089561E1BC
:100E200084ED0E94DD0661E082ED0E94DD068AEE1F
:100E30000E94F70680FDFBCF60E082ED0E94DD0698
:100E400089ED0E94F70690E00895CF93DF93EC01BF
:100E500040E86FE180E80E94AC0640E86FE180EA7C
:100E60000E94AC064AE06CE180EA0E94AC0660E0B9
:100E70007CE082E00E94EA06BE01745F86E00E9488
:100E8000EA0640E060E08AE70E94AC060E947F0626
:100E90002097B1F08AE70E947306809183058EBD8A
:100EA000E4E8F5E0CD57DA4FEC17FD0731F081911A
:100EB0000DB407FEFDCF8EBDF7CF0DB407FEFDCFFD
:100EC0000E94780648E06FE180E80E94AC06D0E01E
:100ED000C0E08CE10E94F7068A7029F42196C83E92
:100EE00083E0D807B1F78CE10E94F70681FD03C0CB
:100EF000C83ED34039F448E06FE180EADF91CF91FA
:100F00000C94AC06DF91CF9108950F931F93CF936C
:100F1000DF93EC0103E815E04C96F801908B818B90
:100F20000E946406CE010896F80196A387A3AE013D
:100F3000405F5F4F21E06AE188E20E941106CE0126
:100F40008A96DF91CF911F910F910C942507CF9333
:100F5000DF93EB01682F84ED0E94DD06BE0186ED74
:100F60000E94EA068AEE0E94F70680FDFBCFDF9121
:100F7000CF910895CF92DF92EF92FF920F931F933C
:100F80008634910568F12091A605233449F5C09077
:100F9000B105D090B205E090B305F090B405009192
:100FA0003305109134052091350530913605C01672
:100FB000D106E206F306A1F4EDE9F6E08D579A4F6B
:100FC0009F012E5F3F4F41815081553319F452816B
:100FD000651771F0F901E40FF11DE817F90780F3C7
:100FE00080E01F910F91FF90EF90DF90CF900895D8
:100FF00081E0F7CFE0911604F09117049F012F5F75
:101000003F4F309317042093160480830895FF9276
:101010000F931F93CF93DF93162FF42E052F0E946B
:10102000FA07812F0E94FA07CF2DD02F115020F000
:1010300089910E94FA07FACFDF91CF911F910F910A
:10104000FF9008952091F303260F3327331F213299
:101050003105ECF42091B306FC0190E080E02430EF
:1010600069F082E00895A091F3032191AC014D5203
:101070005C4FA40FB52FB11D2C930196861798F3E2
:101080008091F303680F6093F30380E0089581E09B
:1010900008951092B30681E08093B20610928D06F7
:1010A00061E082E10E940B0261E083E10E940B0299
:1010B000E9EBF0E080818E7F808380818D7F80836B
:1010C00088E48093B80085E48093BC000895109272
:1010D0008C0610928B061092BA061092DC060E94C3
:1010E000490887EB90E090938A068093890688EB05
:1010F00090E090938806809387060895CF93DF93BE
:1011000091E09093D2038823B9F0C091B800D091B8
:10111000BA008091BC008A7B8093BC0060E082E1D1
:101120000E940B0260E083E10E940B020E944908CA
:10113000D093BA00C093B800DF91CF9108958F92F9
:101140009F92AF92BF92CF92DF92EF92FF920F9356
:101150001F93CF93DF93D091DC06D13208F0D7C034
:10116000182FC091DB060E94DD026B017C0180918B
:10117000B30681116BC082E08093B3061093B20670
:101180008FEF8093B1061092B006D093AF06ABEB11
:10119000B6E0EFE8F6E080E0D81391C010928E063A
:1011A00080918E06CC0FC82BC0938E0680918D0641
:1011B000813009F088C010928D060E94DD026B011B
:1011C0007C0180918E068093BB008091B506909142
:1011D000B606A091B706B091B806892B8A2B8B2B47
:1011E000A1F00E94DD020091B5061091B606209193
:1011F000B7063091B8066C197D098E099F0906174C
:1012000017072807390708F442C08091BC0083FD06
:10121000D8CF85EC8093BC000E94DD026B017C017D
:101220008091B306823009F450C08091B1068F3F9F
:1012300009F46FC08091B106803209F46CC08091CE
:10124000B106803309F469C084E026C08091B506F8
:101250009091B606A091B706B091B806892B8A2B5B
:101260008B2B09F484CF0E94DD028090B50690900C
:10127000B606A090B706B090B8066C197D098E0925
:101280009F0986169706A806B90608F070CF8091C8
:10129000B4060E947E0885E01092BA061092DC0621
:1012A0001092B906DF91CF911F910F91FF90EF90AF
:1012B000DF90CF90BF90AF909F908F9008959D91B9
:1012C00091938F5F69CF85EEA5CF8091B506909100
:1012D000B606A091B706B091B806892B8A2B8B2B46
:1012E00009F49ECF0E94DD020091B5061091B6066A
:1012F0002091B7063091B8066C197D098E099F09B7
:10130000061717072807390708F08ACFC0CF81E0F2
:10131000C3CF80E0C1CF82E0BFCF83E0BDCFCF930A
:10132000DF93EA01A0914301B091440191E09093D1
:10133000B9068093DB061092BA061092DC06ED9196
:10134000FC9111970190F081E02DCD0109958091DC
:10135000430190914401DC01ED91FC910190F081F9
:10136000E02D688109958091430190914401DC0151
:10137000ED91FC910190F081E02D6981099581E06A
:101380000E949F08982F80934E0181E0911180E088
:10139000DF91CF910895409148015091490121E09A
:1013A00030E0F90102C0EE0FFF1F8A95E2F7CF018E
:1013B000613069F4842B952B909349018093480107
:1013C00048E451E062E0809145010C948F098095DA
:1013D000909584239523F0CF0895E0918C06809119
:1013E0008B06E81730F4F0E0EE54FC4F808190E07B
:1013F00008958FEF9FEF089590918C0680918B0652
:101400002FEF3FEF981748F4E92FF0E0EE54FC4F30
:10141000208130E09F5F90938C06C90108958091F0
:101420008B0690918C06891B990B0895CF92DF92C1
:10143000EF92FF920F931F93CF93DF937C01CB0129
:101440008A012091B906222389F0EB016B01C40EB9
:10145000D51ECC15DD0569F06991D701ED91FC91A0
:101460000190F081E02DC7010995F3CF642F0E9410
:101470002208C801DF91CF911F910F91FF90EF904B
:10148000DF90CF900895CF93DF931F92CDB7DEB753
:1014900069832091B9062223F9F02091DC062032DD
:1014A00058F021E030E0FC013383228390E080E0BB
:1014B0000F90DF91CF9108958091BA06E82FF0E068
:1014C000E554F94F998190838F5F8093BA0680939A
:1014D000DC0681E090E0ECCF61E0CE0101960E9455
:1014E0002208F7CF90E080E00895FC0183858F3FCC
:1014F00019F061E00C940B020895FC018081918148
:10150000892B39F0A281B3819C9111968C919CBD5D
:101510008DBD83858F3F19F060E00C940B02089518
:10152000AF92BF92CF92DF92EF92FF920F931F93F1
:10153000CF93DF93EC0188819981892B89F06EBD6F
:101540000DB407FEFDCFBEB48B2DDF91CF911F915F
:101550000F91FF90EF90DF90CF90BF90AF900895E4
:101560008885998511E0892B09F010E8AA24A394B5
:10157000862F812309F0A12C062F2C813D814E81DD
:101580005F8160E271EA87E090E00E94782FF22E9E
:10159000B02EE12CC22ED12CFF2019F0C6010E94E2
:1015A000D2028A85877F09F042C08D858F3F89F0FE
:1015B000902F912381E009F480E08A1551F0EF85A6
:1015C000F8898F89992369F19081892B8083AA24D6
:1015D000A394E989FA898081998D892B8083FF20E2
:1015E00019F0C6010E94D2028E858F3F39F0EB8937
:1015F000FC898081988D892309F0E12AE989FA899B
:101600009081898D8095892380838E858F3F09F015
:10161000BE2C88859985892BB9F5110F1111BCCF86
:1016200093CF9081809589238083A12CD2CFE989A3
:10163000FA898081998D892B8083FF2019F0C6015A
:101640000E94D2028D858F3F49F0EF85F8898F89FE
:10165000902F9123A9F09081892B8083E989FA89C1
:101660009081898D8095892380838E858F3F69F253
:10167000EB89FC898081988D892339F2E12AC5CFD5
:10168000908180958923E9CF1695C8CF8F929F923C
:10169000AF92BF92CF92DF92EF92FF920F931F9380
:1016A000CF93DF937C014B016A01B22EA32E0E94DF
:1016B0007D0AE401C80CD91CCC15DD0569F4CB2DDD
:1016C000DA2D0C0F1D1FC017D10759F06FEFC7019E
:1016D0000E94900A8993F7CF6991C7010E94900AEE
:1016E000EBCFC7010E94750A81E0DF91CF911F9176
:1016F0000F91FF90EF90DF90CF90BF90AF909F90B1
:101700008F9008958F929F92AF92BF92CF92DF9267
:10171000EF92FF920F931F93CF93DF937C01B62E2E
:10172000A72E6A0149010E947D0AE401080D191DD6
:10173000C017D10761F4CB2DDA2DCC0EDD1ECC15F0
:10174000DD0551F06991C7010E94900AF8CF6991B7
:10175000C7010E94900AECCFC7010E94750A81E080
:10176000DF91CF911F910F91FF90EF90DF90CF907D
:10177000BF90AF909F908F9008951F93CF93DF936A
:10178000EA01122FDC0111968D919C91DC01ED9103
:10179000FC910280F381E02D0995C817D90729F43F
:1017A000812F0E949F0891E0811190E0892FDF91A5
:1017B000CF911F910895CF93DF93EC018B81882304
:1017C000A1F0888191E09093B9068093DB06109296
:1017D000BA061092DC0681E00E949F0891E0811118
:1017E00090E0892FDF91CF9108950E94670881E0F2
:1017F0008B83CE010E94DB0B982F8111E2CFF1CFBA
:101800002F923F924F925F926F927F928F929F9210
:10181000AF92BF92CF92DF92EF92FF920F931F93FE
:10182000CF93DF93CDB7DEB72F970FB6F894DEBF17
:101830000FBECDBF162F282E312C21E3829FF00141
:101840001124EB5DF94F8381D101AA0FBB1FAA0FB1
:10185000BB1FBF87AE87882309F4D8C120E030E0E2
:10186000A901658976898789908D0E94062F1816AF
:101870000CF0CCC1EE85FF85E25AFB4FC080D180D1
:10188000E280F3800E94BE05EE85FF85EA5AFB4F99
:1018900080809180A280B380681979098A099B09A8
:1018A0000E94542E20E030E048E452E40E94062FCB
:1018B00087FF03C0112309F46DC10E94BE05EE85A8
:1018C000FF85EA5AFB4F608371838283938381E3B0
:1018D000829DF001839DF00D1124EB5DF94F858809
:1018E0009688A788B08C84819581A681B7818A83E8
:1018F0009B83AC83BD839C01AD01C501B4010E94F3
:101900003A2D6B017C01C0925204D0925304E092B4
:101910005404F092550420E030E0A9010E94062F03
:10192000A701960118160CF47DC15058C501B401E9
:101930000E94A72D87FD55C1C0905204D09053043A
:10194000E0905404F090550420E030E0A901C70174
:10195000B6010E94062F26013701181624F077FAE7
:10196000709477F870942DEC3CEC4CE45EE3C50188
:10197000B4010E940B2FA30192010E94A72D87FFA3
:101980003CC180E090E0A0E8BFE380934E049093D8
:101990004F04A0935004B09351042AE037ED43E282
:1019A0005DE3C501B4010E940B2FA30192010E94C7
:1019B000A72D87FF27C181E3829DF001839DF00D54
:1019C0001124EB5DF94F85A096A0A7A0B0A4A501B6
:1019D0009401C701B6010E940B2FEE85FF85EA5BDB
:1019E000FB4F20813181428153810E943B2D2B018D
:1019F0003C0120E030E0A901C501B4010E94062F9E
:101A000020E030E040E85FE318161CF020E030E012
:101A1000A901C301B2010E940B2F2B013C01EE85ED
:101A2000FF85EA5BFB4F408251826282738281E3D1
:101A3000829D8001839D100D11240B5D194FD801EB
:101A40009D96BC91B9836B2F70E090E080E00E947E
:101A5000562E6E837F838887998780914E0490915C
:101A60004F04A0915004B09151048A879B87AC87A2
:101A7000BD872A813B814C815D81EE85FF85E25CDB
:101A8000FB4F60817181828193810E943A2DD80140
:101A900099962D913D914D915C919C970E940B2FB1
:101AA0004B015C01F80121A132A143A154A16A8537
:101AB0007B858C859D850E940B2FA70196010E9436
:101AC0000B2F2E813F81488559850E943B2DA30114
:101AD00092010E943B2D9B01AC01C501B4010E9403
:101AE0003B2D4B015C0120E030E0A9010E94062F54
:101AF00024013501181624F077FA709477F8709461
:101B000081E3829DF001839DF00D1124EB5DF94F7F
:101B100066A570E090E080E00E94562E2A853B8505
:101B20004C855D850E940B2F6B017C01A301920106
:101B30000E94A72D87FD02C073016201A7019601D3
:101B40006E817F81888599850E94062F18164CF436
:101B5000F9816F2F70E090E080E00E94542E6B01BD
:101B60007C0120E030E0A901C501B4010E94062FEC
:101B7000181624F0F7FAF094F7F8F094EE85FF8544
:101B8000E25CFB4F8A819B81AC81BD818083918324
:101B9000A283B383AE85BF85A25ABB4FFD01C0822D
:101BA000D182E282F382C701B6010E941E2ECB01D0
:101BB0002F960FB6F894DEBF0FBECDBFDF91CF9149
:101BC0001F910F91FF90EF90DF90CF90BF90AF905B
:101BD0009F908F907F906F905F904F903F902F904D
:101BE0000895D501C401B0588093520490935304D2
:101BF000A0935404B09355049FCE80E090E0A0E4FD
:101C0000BFE3C3CEC12CD12C7601B8CFEE85FF85C2
:101C1000EA5BFB4F1082118212821382C12CD12CFD
:101C20007601B8CFC501B4010E94A72D87FF84CEED
:101C30008092520490925304A0925404B09255049E
:101C40007BCE8F929F92AF92BF92CF92DF92EF9214
:101C5000FF920F931F93CF93DF93D82EC62E082F9A
:101C600010E0E801CC0FDD1FCC0FDD1FCA56DC4FA2
:101C700088809980AA80BB80C80182569C4F7C01D5
:101C8000FC0180818823B1F00E94BE0568197909A2
:101C90008A099B096D3271058105910540F00E940A
:101CA000BE05688379838A839B83F7011082D0E025
:101CB000C0E037C00E94BE05681979098A099B09EE
:101CC000603171058105910550F00E94BE05688361
:101CD00079838A839B8381E0F7018083E8CFCC20DE
:101CE00071F181E3809FF001819FF00D1124EB5D84
:101CF000F94F66A5C62FD0E020E030E0A901658D40
:101D0000768D878D90A10E94A72D87FF0AC0BE0106
:101D1000DD0F880B990B0E94562E90580E941E2EA4
:101D2000EB01CE01DF91CF911F910F91FF90EF90CA
:101D3000DF90CF90BF90AF909F908F90089561E01B
:101D40008D2DDF91CF911F910F91FF90EF90DF903C
:101D5000CF90BF90AF909F908F900C94000C4FEF5E
:101D6000460FFC0130E020E050E0DF01A81BB90B7A
:101D7000A417B50724F47191270F311DF6CFFC018C
:101D8000E60FF11D319781E09081921380E0089574
:101D900080912D04882339F00E940F07969587952E
:101DA0009695879581700895FC0101900020E9F7D0
:101DB0003197AF01481B590BBC0185EE96E00C949E
:101DC000D5008F929F92AF92BF920F931F93CF93A4
:101DD000DF93CDB7DEB7A1970FB6F894DEBF0FBE85
:101DE000CDBF19A2423008F44AE08E010F5D1F4FAB
:101DF000842E912CB12CA12CA50194010E94782F46
:101E0000E62FB901CA01EA30F4F4E05DD801EE939F
:101E10008D01232B242B252B79F790E080E0109760
:101E200019F0CD010E94D40EA1960FB6F894DEBF32
:101E30000FBECDBFDF91CF911F910F91BF90AF909B
:101E40009F908F900895E95CE1CFCF93DF930E943C
:101E5000D40EEC018BEA91E00E94D40E8C0F9D1FF2
:101E6000DF91CF910895682F70E090E080E04AE024
:101E70000C94E10E2F923F924F925F926F927F925D
:101E80008F929F92AF92BF92CF92DF92EF92FF928A
:101E90000F931F93CF93DF93CDB7DEB72A970FB67B
:101EA000F894DEBF0FBECDBF9C838B834F835887D2
:101EB00069877A87DC01ED90FC90F7010085C70106
:101EC0000B969E838D839681878199838A83608018
:101ED00071806114710409F420C1418550E0D3017F
:101EE00014968D919C9115978417950708F468C1F5
:101EF0008C9191E09093B9068093DB061092BA061C
:101F00001092DC0620E0BE016F5F7F4FC3010E948C
:101F1000BD0B882309F454C1402E512C312C212CA7
:101F20002414350408F01AC1F301848195818201DB
:101F3000021913098017910708F48C01D301CC9082
:101F40000E94DD024B015C018091B306811175C0D6
:101F5000D02EB0E2B01710F470E2D72EE1E0E0939B
:101F6000B30621E0C201801B910B2816390608F444
:101F700020E02093B206FFEFF093B1061092B00676
:101F80008FEF8D0D8093AF0681E080938E06809158
:101F90008E06CC0CC82AC0928E0680918D068130A8
:101FA00009F092C010928D060E94DD024B015C0187
:101FB00080918E068093BB008091B5069091B60605
:101FC000A091B706B091B806892B8A2B8B2BA1F074
:101FD0000E94DD022091B5063091B6064091B70609
:101FE0005091B806681979098A099B09261737079D
:101FF0004807590708F442C08091BC0083FDD8CF40
:1020000095EC9093BC000E94DD024B015C01809135
:10201000B306813009F45CC08091B0068D1510F4D0
:10202000D090B006AFE8B6E0E2EBF3E080E08D15CB
:1020300051F19D9191938F5FFACF8091B506909168
:10204000B606A091B706B091B806892B8A2B8B2BC8
:1020500009F47ACF0E94DD022091B5063091B606D0
:102060004091B7065091B806681979098A099B0909
:10207000261737074807590708F066CF8091B4063E
:102080000E947E08D12C10928C06D0928B06D0161E
:10209000110609F095C0AD80BE80A20CB31C65018D
:1020A000C6018A199B0980179107A0F5F301818168
:1020B0009281DC01ED91FC910284F385E02D09957C
:1020C000F60181936F01ECCFA5EEA093BC009BCFEE
:1020D0008091B5069091B606A091B706B091B8066A
:1020E000892B8A2B8B2B09F492CF0E94DD02209141
:1020F000B5063091B6064091B7065091B8066819FA
:1021000079098A099B09261737074807590708F0F4
:102110007ECFB4CF200E311E03CFD7010280F381D2
:10212000E02D309709F44CC014962D913C911597F1
:1021300010E019964C9150E02330310561F5816033
:1021400089839A834F5F5F4F2D813E81BE016F5F10
:102150007F4FCF010E94460B882391F1F701408504
:1021600050E090E080E000E010E0980184179507CF
:1021700054F5322F212F102F0027D7011A966C917A
:10218000611119C0FA01E81BF90BEE0DFF1D628504
:10219000062B0196EBCF2115310519F49068998330
:1021A000D3CF2230310511F49F77F9CF213031059B
:1021B00059F6906CF4CFF701E80FF91F6385E8CF6B
:1021C0000FEF1FEF9801EB81FC81A081B181189680
:1021D0008C911897853008F078C0928141E050E0EA
:1021E00002C0440F551F9A95E2F741505109052E40
:1021F000000C660B770B93816A017B01092E04C0EA
:10220000CC0CDD1CEE1CFF1C0A94D2F7C094D094B9
:10221000E094F0940C211D212E213F214F80588401
:1022200069847A84442255226622772204C0440CB1
:10223000551C661C771C9A95D2F7402A512A622AAF
:10224000732A1F964D925D926D927C92529730E068
:1022500020E0E82EF12C2E153F05BCF41A968C9147
:102260001A9781110BC0FD01E20FF31F4386452C25
:10227000562C672C77242F5F3F4FEDCFF701E21BE1
:10228000F30BEA0FFB1F4286F2CF6D01FBE0CF0E8E
:10229000D11C16969C91169717968C911797998337
:1022A0008A83AD90BC901197A114B10409F44DC07C
:1022B00019960C9110E098012E0D3F1DD501149632
:1022C0008D919C918217930710F480E016C0F50160
:1022D00081819281208131E03093B9062093DB0621
:1022E0001092BA061092DC0601151105F9F421E0EE
:1022F000A701B601C5010E94BD0B2A960FB6F8943E
:10230000DEBF0FBECDBFDF91CF911F910F91FF9028
:10231000EF90DF90CF90BF90AF909F908F907F9085
:102320006F905F904F903F902F900895DC01ED915A
:10233000FC910280F381E02DA801BE016F5F7F4F09
:1023400009950817190709F6D2CF1296ED91FC915D
:102350001397309709F4B9CF14962D913C911597A6
:1023600019960C9110E02330310571F48E7F89832A
:102370009A830F5F1F4F9E012F5F3F4FA701B6014A
:10238000CF010E94820BB9CF2115310519F49F7737
:102390009983F1CF2230310511F49068F9CF2130C3
:1023A000310549F79F779064F3CFCF93DF93CDB793
:1023B000DEB767970FB6F894DEBF0FBECDBFA62F6E
:1023C0009091920729E030E0993030F021E0883098
:1023D00008F420E0226130E0E0919007F09191074D
:1023E000309749F04091930750E0542F4427550F00
:1023F0005064242B352B40918E0750918F07188AFB
:10240000198A1A8A1B8AFC83EB835A83498343E027
:1024100050E05E834D8391E09A8738872F831B8637
:1024200099879E012F5F3F4F3D8B2C8B9E8B877032
:102430008F8B41E050E060E070E0A11103C040E00C
:1024400050E0BA01CE0144960E943A0F67960FB64B
:10245000F894DEBF0FBECDBFDF91CF910895DC01B0
:1024600096E0FB0101900D929A95E1F70895CF93C4
:10247000DF93EB0144E050E0BC018FE995E00E945E
:102480009130892B49F469E975E0CE010E942F1241
:1024900081E0DF91CF91089580E0FBCFBC0183E81C
:1024A00095E00E942F1264E475E089E895E00C94B1
:1024B0002F12DC0194E0FB0101900D929A95E1F757
:1024C00008950F931F93CF938C0181E891E00E94B0
:1024D0004E12E3E8F5E088E08487C6E0C58748E06F
:1024E00050E06CE670E081E995E00E941B2DE3EA84
:1024F000F5E0DF011D92CA95E9F764E475E089E92A
:1025000095E00E942F12B80189EA95E00E945912C5
:1025100061EE76E08FE995E00E9459128AE290E040
:10252000CF911F910F910C94250789E895E00E94A7
:102530004E126DE975E081EA95E00E94591261EE54
:1025400076E08DE995E00E9459120C946406262FDE
:1025500020612093B205643021F0009711F481E0EE
:1025600090E061E00E94E6051092930588E2809376
:1025700094050E94951284E08093B3051092B405EF
:1025800022E04CE150E06AE182E30E94110686E31A
:1025900090E00C942507CF93DF93EB010E944E123D
:1025A000BE0181EA95E00E94591261EE76E08DE964
:1025B00095E0DF91CF910C945912EF92FF920F9317
:1025C0001F93CF93DF93182F092FEB01F42EE52EE5
:1025D000CB010E949700BE01882309F447C087E71A
:1025E00095E00E94CB128881807F803E91F08881A7
:1025F0009981AA81BB818F3F9F4FAF4FBF4F49F059
:1026000044E050E0BE018AE495E00E949130892BBD
:1026100031F461E871E083E895E00E942F1288E0D0
:1026200080938F051092900549E050E06EEC70E0C9
:1026300081E995E00E941B2D1092930581E1809322
:102640009A05E092A705F092A8050093A5051093BE
:10265000A6051092A9051092AB051092AC05DF916A
:10266000CF911F910F91FF90EF9008958DE795E026
:10267000B8CFEF92FF920F931F93CF938C01E3E8B3
:10268000F5E086E191E0DF019C011D922150304090
:10269000E1F78091430561E871E0833011F46EE267
:1026A00075E043E450E084E490E00E94DD1261E8CC
:1026B00071E083E895E00E942F1281E08093AD05E0
:1026C0008093AE0586E08093AF05809133059091AD
:1026D0003405A0913505B09136058093B1059093EE
:1026E000B205A093B305B093B405C0914305C330C0
:1026F00031F461EE76E089EB95E00E94591264E4D2
:1027000075E089EC95E00E942F1289E996E090939C
:10271000170480931604E8E6F0E084910E94FA071B
:10272000E9E6F0E084910E94FA07EAE6F0E084919D
:102730000E94FA07EBE6F0E084910E94FA0785E335
:102740000E94FA0781E00E94FA0783E0C11101C0EC
:1027500081E00E94FA078DE30E94FA0787E00E9459
:10276000FA0781E00E94FA0784E4E82E85E0F82E5B
:10277000C7E0C15031F0D7018D917D010E94FA0769
:10278000F8CF80910201882371F062E071E0FB01D3
:1027900001900020E9F7BF016350714042E051E031
:1027A0008CE00E9407080115110559F0A80164E0AA
:1027B00082E30E9407084EE255E064E086E30E944F
:1027C000070887E30E94FA0783E00E94FA0781E086
:1027D0000E94FA0783E00E94FA0786E00E94FA0747
:1027E0008FEF0E94FA0780911604909117048D5A7A
:1027F0009540CF911F910F91FF90EF900C9485071A
:1028000085ED8093BC008091B5069091B606A091AD
:10281000B706B091B8060796A11DB11D23E0B69585
:10282000A795979587952A95D1F72091BC0024FD0F
:1028300003C01092B30608954091B5065091B606B4
:102840006091B7067091B806452B462B472B69F36C
:102850000097A105B10541F025E32A95F1F70000A5
:102860000197A109B109E1CF8091B4060C947E08CB
:10287000FF920F931F93CF93DF93EC01F62E088105
:102880001981C8010E94242DF81621F06F2DC8016E
:102890000E942C2DCE01DF91CF911F910F91FF90BF
:1028A0000895EF92FF920F931F93CF93DF9300D081
:1028B000CDB7DEB78EEA91E00E94250F1A82198209
:1028C00062ECCE0101960E94381481E090E09A8378
:1028D00089836FE0CE0101960E94381484E090E075
:1028E0009A83898362E0CE0101960E94381428E918
:1028F000E22E27E0F22E0AE010E01A830983F701A6
:1029000061917F01CE0101960E9438140F5F1F4F25
:102910000432110591F795E2E92E96E0F92E04E6CE
:1029200010E01A830983F70161917F01CE010196BE
:102930000E9438140F5F1F4F0539110591F786E586
:10294000E82E86E0F82E04EB10E01A830983F701E5
:1029500061917F01CE0101960E9438140F5F1F4FD5
:10296000053E110591F70F900F90DF91CF911F91C8
:102970000F91FF90EF9008950F931F93CF93DF93E4
:10298000E9010E94C80E882349F1012B39F18881A1
:10299000803821F58981813809F58A818F37F1F4F2
:1029A0008B81893CD9F48C818530C1F48D81893C3F
:1029B000A9F48E81893C91F48F8180939C0788854E
:1029C00080939D07898580939E070E945114F0E0B3
:1029D000E0E0DF91CF911F910F910994DF91CF91AA
:1029E0001F910F910895EF92FF920F931F93CF9332
:1029F000DF93EC0188819981863F2EE7920709F4E5
:102A000028C180F4843FFEE79F0709F451C0853F49
:102A10009E4709F4F9C0DF91CF911F910F91FF906C
:102A2000EF900895873FEEE79E0709F469C18C3B5C
:102A30009F4789F76F31710570F36FE1CE010E94F6
:102A4000AF0E882341F38A81809398078B8180930E
:102A500099078C8180FF73C191E090939A0781FF61
:102A600071C181E080939B078D818093A0078F8146
:102A7000809325068885809326068985809327067E
:102A80008A85809356068B85809357068C85809324
:102A90005806FE013D96A1EAB7E0CE014D96219180
:102AA0002D93E817F907D9F78D8D8093B1073CC1B5
:102AB0006E30710508F4AFCF6EE0CE010E94AF0E0C
:102AC000882309F4A8CF0A81902F92959F70809156
:102AD00098079813A0CF0F7080919907081708F0F6
:102AE0009ACFE02EF12C21E3029F800111240B5D8F
:102AF000194F2C816D8170E090E080E0CB01772749
:102B00006627722B2B81622B0E94542E2FE632E116
:102B100043E85AE30E940B2FF801658B768B878B75
:102B2000908F2F81688570E090E080E0CB0177275F
:102B30006627722B2E81622B0E94542E2FE632E1E3
:102B400043E85AE30E940B2FF801618F728F838F45
:102B5000948F898580FF04C0118A128A138A148A8F
:102B600091E39E9DF0019F9DF00D1124EB5DF94FC7
:102B700081FD47C0108A82FF0BC091E39E9DF0014A
:102B80009F9DF00D1124EB5DF94F90899E5F908B16
:102B900083FF0BC091E39E9DF0019F9DF00D1124DA
:102BA000EB5DF94F90899C5F908B84FB992790F99E
:102BB0009093240691E39E9D80019F9D100D11240A
:102BC0000B5D194F85FB992790F9F80197A786FBB4
:102BD000882780F980933A016A857B85072E000C4F
:102BE000880B990B0E94562EF801658F768F878F80
:102BF00090A30E94BE05F801648775878687978732
:102C00000ACF91E0908BB7CF6A30710508F403CFFB
:102C10006AE0CE010E94AF0E882309F4FCCE8A81BF
:102C200082958F70909198078913F5CE8B81809350
:102C30007D048C8180937C048D81809379048E81C6
:102C4000809378048F8180937B04888580937A04B5
:102C5000E2CE6331710508F4DECE63E1CE010E945D
:102C6000AF0E882309F4D7CE0A81902F92959F70DA
:102C7000809198079813CFCE0F708091990708170D
:102C800008F0C9CEF1E30F9F800111240B5D194FAD
:102C90006B817C818D819E810E94542E27E137EBD0
:102CA00041ED58E30E940B2FF80161A372A383A3A7
:102CB00094A36F81788589859A850E94542E27E197
:102CC00037EB41ED58E30E940B2FF80165A376A383
:102CD00087A390A76B857C858D859E850E94542E49
:102CE00027E137EB41ED58E30E940B2FF80161A774
:102CF00072A783A794A78F8585A7888986A78BCE7F
:102D00006630710508F487CE66E0CE010E94AF0EF2
:102D1000882309F480CE8A8180939C078B818093DD
:102D20009D078C8180939E070E945114F0E0E0E0A3
:102D3000DF91CF911F910F91FF90EF900994109226
:102D40009A078DCE10929B078FCE0F931F93C901C8
:102D5000B8011F910F910C94F3141F920F920FB6AC
:102D60000F9211242F933F934F935F936F937F9311
:102D70008F939F93AF93BF93EF93FF9385EE96E06E
:102D80000E945301FF91EF91BF91AF919F918F915D
:102D90007F916F915F914F913F912F910F900FBE57
:102DA0000F901F9018951F920F920FB60F9211243B
:102DB0002F938F939F93EF93FF93E091F506F091FC
:102DC000F6068081E091FB06F091FC0682FD1BC0B7
:102DD00090818091FE068F5F8F732091FF0682178E
:102DE00041F0E091FE06F0E0EB51F94F958F8093B2
:102DF000FE06FF91EF919F918F912F910F900FBE43
:102E00000F901F9018958081F4CF1F920F920FB6EC
:102E10000F9211242F933F938F939F93AF93BF9360
:102E200080911A0490911B04A0911C04B0911D0480
:102E30003091190423E0230F2D3758F50196A11D79
:102E4000B11D2093190480931A0490931B04A0933E
:102E50001C04B0931D0480911E0490911F04A09146
:102E60002004B09121040196A11DB11D80931E0480
:102E700090931F04A0932004B0932104BF91AF91BD
:102E80009F918F913F912F910F900FBE0F901F90A8
:102E9000189526E8230F0296A11DB11DD2CF1F92CF
:102EA0000F920FB60F9211242F933F934F935F937E
:102EB0006F937F938F939F93AF93BF93EF93FF9302
:102EC000E0914101F09142010995FF91EF91BF918D
:102ED000AF919F918F917F916F915F914F913F91B2
:102EE0002F910F900FBE0F901F9018951F920F9269
:102EF0000FB60F9211242F933F934F935F936F93CD
:102F00007F938F939F93AF93BF93EF93FF93E09142
:102F10003F01F09140010995FF91EF91BF91AF9171
:102F20009F918F917F916F915F914F913F912F91E1
:102F30000F900FBE0F901F9018951F920F920FB613
:102F40000F9211242F933F934F935F936F937F932F
:102F50008F939F93AF93BF93EF93FF938091B900AB
:102F6000887F803609F44AC0F0F5883209F4A7C09A
:102F700018F5803109F49BC0B8F4882309F4F9C02E
:102F8000883009F494C0FF91EF91BF91AF919F9168
:102F90008F917F916F915F914F913F912F910F9002
:102FA0000FBE0F901F901895883109F488C08032A9
:102FB00051F78093B10614C0803409F49DC040F4E9
:102FC0008033B9F38833F9F68093B10685ECB0C04D
:102FD000803509F485C0883509F496C0883499F69F
:102FE0000E940014D0CF883909F48CC038F5883796
:102FF00029F050F4883611F0803729F683E0809369
:10300000B3061092150457C0883809F47BC0803984
:1030100019F0803809F0B7CF80911504803208F09C
:1030200071C0E091150481E08E0F809315048091AA
:10303000BB00F0E0EB50FC4F80833DC0803B39F09B
:10304000E0F4803A09F479C0883A09F09CCF84E032
:103050008093B3061092F4031092F303E091890673
:10306000F0918A0609958091F30381110FC081E0E8
:103070008093F3031092D30309C0803C09F4A6CFD8
:10308000883C09F4A3CF883B09F07DCFE091F4039D
:1030900081E08E0F8093F403F0E0ED52FC4F8081CD
:1030A0008093BB009091F4038091F30329C0809139
:1030B0008E068093BB0085EC8093BC0064CF90911A
:1030C000B0068091AF06981758F5E091B00681E000
:1030D0008E0F8093B006F0E0E157F94F8081E9CF81
:1030E000E091B00681E08E0F8093B0068091BB0026
:1030F000F0E0E157F94F80839091B0068091AF06E0
:103100009817C8F285E8D8CFE091B00681E08E0F1D
:103110008093B0068091BB00F0E0E157F94F8083C7
:103120008091B20681115CCF81E080938D0684EAA4
:103130008093BC001092B30626CF85EC8093BC0030
:103140001092B30680911504803230F4E09115049A
:10315000F0E0EB50FC4F10826091150470E0E091BC
:103160008706F091880685EF93E009951092150483
:103170000ACF1092B10634CFE5EEF6E01382128248
:1031800088EE93E0A0E0B0E084839583A683B783C4
:103190002BE831E03183208325EC30E0358724872C
:1031A00024EC30E03787268720EC30E0318B208B11
:1031B00021EC30E0338B228B22EC30E0358B248BFA
:1031C00026EC30E0378B268B118E128E138E148EE8
:1031D000E2E8F7E01382128284839583A683B783A3
:1031E0008DE991E091838083E8E9F7E0108232E095
:1031F00031831282138220EC248398EA958381E044
:10320000868342E34783308730E1E9E5F1E0A1EAD4
:10321000B7E001900D923A95E1F7EFE4F1E02083F9
:1032200091838283EEE8F7E011821082138212828A
:1032300080E184830895CF93DF93CDB7DEB7C55483
:10324000D1090FB6F894DEBF0FBECDBF789484B518
:10325000826084BD84B5816084BD85B5826085BD92
:1032600085B5816085BD80916E00816080936E0020
:103270001092810080918100826080938100809112
:1032800081008160809381008091800081608093C3
:1032900080008091B10084608093B1008091B00083
:1032A00081608093B00080917A00846080937A007E
:1032B00080917A00826080937A0080917A008160A8
:1032C00080937A0080917A00806880937A001092CF
:1032D000C1001092280610925906E091F506F0916F
:1032E000F60682E08083E091F106F091F20610820A
:1032F000E091F306F091F40683E380831092FD06DB
:10330000E091F906F091FA0686E08083E091F706F5
:10331000F091F806808180618083E091F706F0915A
:10332000F806808188608083E091F706F091F806C6
:10333000808180688083E091F706F091F8068081B3
:103340008F7D808368EB7BE080E090E00E948C05BD
:103350008DEA91E00E94250F8DEA91E00E94250FF1
:103360008DEA91E00E94250F88EC91E00E94250FE4
:103370008DEA91E00E94250F90E080E00E94242DCC
:10338000898381E090E00E94242D8A8384E090E08C
:103390000E94242D29813A81223C3F4009F070C1CE
:1033A000823009F06DC18EED91E00E94250FF8E9A1
:1033B000EF2EF7E0FF2E0AE010E0C8010E94242D56
:1033C000D7018D937D010F5F1F4F04321105A9F7BF
:1033D00005E216E06801E4E6EE2EF12CC7010E943A
:1033E000242DD6018D936D01BFEFEB1AFB0AE5E9A1
:1033F000EE16F10499F766E5C62E66E0D62E74EB5C
:10340000E72EF12CC7010E94242DD6018D936D016A
:10341000BFEFEB1AFB0AE5EEEE16F10499F7809187
:10342000B1078651893E08F425C12091990730E003
:1034300090E080E08217930714F00C94862BF8013B
:103440004081463108F081C14181463108F07DC19B
:103450000F5C1F4F32964081463108F076C10196CD
:10346000E9CF81E0809328058091B1078F3F19F063
:1034700062E00E94390280919907833018F082E05F
:10348000809399078DEA91E00E94250F8CE292E0EB
:103490000E94D40E809198070E94330F8BEA91E02E
:1034A0000E94D40E88E392E00E94D40E4AE062ECBF
:1034B0007FE080E090E00E94E10E8BEA91E00E94C4
:1034C000D40E8DEA91E00E94250F0E9467088CE0DF
:1034D0008093B80089E492E00E94250F80919807BC
:1034E0008E5C80939F0730919C0738AB20919D079D
:1034F00029AB90919E079AAB8BAB4091360441115A
:1035000005C08093330181E08093360480912E04BE
:10351000811109C030932A0120932B0190932C0133
:1035200081E080932E0430934F01209350019093BB
:1035300051011FB7F89480912204811127C0ECE952
:10354000F0E08491E0EBF0E09491E82FF0E0EE0FF2
:10355000FF1FE258FF4FA591B491EC91E92321F4AC
:1035600061E08AE00E940B0261E08AE00E94390279
:103570008CB580618CBD8CB580648CBD61E08DE0C4
:103580000E94390261E08BE00E943902809122049E
:103590008F5F809322041FBF109224041092230493
:1035A0008091230481113CC064EF71E080E090E0E1
:1035B0000E948C058DE593E00E94D40EF89460E0A3
:1035C0008AE00E940B028FEF0E9473068FEF0E9429
:1035D000730661E08AE00E940B02789462E070E07A
:1035E00080E090E00E948C05F89460E08AE00E9400
:1035F0000B028DE10E94730680E00E9473061EB5E7
:1036000061E08AE00E940B02789411701093230409
:10361000809124048F5F80932404863008F4C0CF07
:103620008091230480932D04882309F42CC21092E6
:10363000FB0587E390E0C12CD12C7601C394009761
:1036400009F489C0FC0133E0F595E7953A95E1F777
:10365000EA5DFB4F282F2770B701A60104C0440F75
:10366000551F661F771F2A95D2F72081242B2083B0
:103670000197E5CF1092280587EF91E00E94250F72
:1036800082E192E00E94250F8FEF8093B10783E0E3
:103690008093250696E09093260699E0909327065E
:1036A00092E09093560694E09093570695E090939D
:1036B000580640E050E060EA70E4409346065093BC
:1036C0004706609348067093490610924A06109286
:1036D0004B0610924C0610924D0610924E06109218
:1036E0004F0610925006109251069093520622E314
:1036F000209353068093550640937706509378069F
:103700006093790670937A0610927B0610927C067D
:1037100010927D0610927E0610927F06109280060F
:10372000109281061092820690938306209384065D
:1037300080938606E1EAF7E08FEF819337E0E13B83
:10374000F307D9F70E9451148FCE80E080932805AB
:1037500081118ACE91CF6EE271E084E495E00E94FF
:103760002F1284E690E090932A05809329050CB4EB
:1037700006FC25C061E08AE00E94390261E08AE02F
:103780000E940B0261E08BE00E94390261E08DE053
:103790000E94390260E08CE00E94390261E08BE017
:1037A0000E940B0260E08BE00E940B0260E08DE063
:1037B0000E940B0280E58CBD8DB581608DBD8AE0D5
:1037C0008093250461E00E9439020E9478064FEF41
:1037D00060E08FEF0E94AC0662E070E080E090E075
:1037E0000E948C050E947F068DE10E94730680E096
:1037F0000E9473061EB50E947806112399F370E0AB
:1038000060E088E00E94EA0670E060E08CE00E94E0
:10381000EA066FEF7BE08AE00E94EA0660E07CE067
:1038200084E00E94EA066FEF71E186E00E94EA06FA
:1038300066E774E084E10E94A70761EB88E30E94D9
:10384000DD066FE370E388E20E94EA0669EF77EF36
:1038500080E30E94EA0661E080EC0E94DD0642E31C
:1038600062EC80E80E94AC0662E17CE086EC0E949B
:10387000EA0662E184EC0E94DD066CED75E08AECFC
:103880000E94EA066091440584EE0E94DD06609184
:10389000450585EE0E94DD066091460582EE0E9498
:1038A000DD066091470583EE0E94DD0660914805C4
:1038B00080EE0E94DD066091490581EE0E94DD06E2
:1038C00060E071E080E10E94A7078FE10E94C106DD
:1038D00040EC6BE180E80E94AC0644E06FE180E8D8
:1038E0000E94AC0682E70E94F7068DEA91E00E94F2
:1038F000250F8FE592E00E94250F1092FB05BE0177
:10390000605D7F4F81EE96E00E9459121092F9059A
:103910001092F80581E08093FA056AE271E084EF85
:1039200095E00E94591266E271E08FEE95E00E94E8
:10393000591262E271E08DED96E00E94591201EE9B
:1039400016E02DED36E06AE475E045EE56E0F8014C
:103950009191D9018D919D018095892BDB018D93EA
:10396000BD014E175F07A1F780917605883098F466
:10397000B5E08B9FF0011124E25BFA4F25EA36E1B6
:103980003183208328ED30E73383228391E09483D1
:103990008F5F8093760580917605883098F425E0D6
:1039A000829FF0011124E25BFA4F2CEB34E131836A
:1039B000208328EB32E23383228391E094838F5F6C
:1039C0008093760564EF71E080E090E00E948C05C2
:1039D0000E94C80E882309F44FC08DEA91E00E942E
:1039E000250F8AE792E00E94D40EF12CD8018D9128
:1039F0008D010E94330FB3E0FB1629F06EE285EED5
:103A000096E00E947501F394E4E0FE12EFCF8BEA9A
:103A100091E00E94D40E8BE892E00E94250F10E006
:103A200000E021E3D22E809199078017110609F05A
:103A30000CF452C0D09EC001D19E900D11249C0167
:103A40002B5D394F790162E0D9018C910E943902D6
:103A500061E0F70181810E94390261E0D70112968D
:103A60008C910E94390201151105C1F00130110538
:103A700029F10F5F1F4FD7CF81EA92E00E94250FF7
:103A80008FEB92E0CACF8DEA91E00E94250F84ED82
:103A900092E00E94250F8DEA91E0F0CF80912506FB
:103AA000823041F0833041F481E062E073E00E94B3
:103AB000B900DFCF80E0F9CF8FEFF7CF80915606C6
:103AC000823031F0833031F481E069E474E0EFCF8B
:103AD00080E0FBCF8FEFF9CF8091A007843008F012
:103AE00040C0823008F025C101EA17E0813009F4B6
:103AF00013C18DEA91E00E94250F83E893E00E94B4
:103B0000250F8DEA91E00E94250F80913A0105E290
:103B100016E0312C212C882309F47DC175E2272E73
:103B200076E0372E1DAA1CAA80919907ECA9FDA961
:103B30008E171F0609F00CF492C3D10150968C9198
:103B4000823030F0853008F4C8C1853009F46FC385
:103B500060E08CA90E94000CBC01990F880B990BA6
:103B600038C3843031F68DEA91E00E94250F89E454
:103B700093E00E94250F16E001E080E2F82E80918C
:103B8000660481111CC08DE593E00E94D40E009361
:103B9000B906F092DB061092BA061092DC0681E0BC
:103BA0000E949F0891E0811190E09093660464EF79
:103BB00071E080E090E00E948C05115001F78DEAE1
:103BC00091E00E94250F80916604882309F420C1AA
:103BD0008FE593E00E94250F86E090E00E94F62B8F
:103BE0008C0180E2D8018C9382E897E012969C9336
:103BF0008E93119713961C92139780E290E015967E
:103C00009C938E93149710938F0700938E070E94B6
:103C1000670881E0F8018383C8010E94DB0B01EA99
:103C200017E099249394B3E0EB2EF12C5E01F5E1BB
:103C3000AF0EB11C9E012F5F3F4F6901D801ED917E
:103C40008D0181E0E83008F480E090919207282F00
:103C5000993008F420E030E04091900750919107AE
:103C60004115510549F06091930770E0762F662762
:103C7000770F7064262B372B60918E0770918F071A
:103C80001CA21DA21EA21FA2588F4F8B7E8B6D8B74
:103C9000FA8EE98E9E8E3C8F2B8F1F8E9D8E9930D3
:103CA00008F4B3C090E08C604115510549F02091B3
:103CB000930730E0322F2227330F3064822B932B6F
:103CC000188A198A1A8A1B8A5C834B837A836983D0
:103CD000FE82ED829A8698878F831B869986E7708D
:103CE000BDA6ACA69EA6EFA7D9A6C8A69AA6EBA786
:103CF00040E050E0BA01CE018C960E943A0F40E0BD
:103D000050E0BA01CE0188960E943A0FB7E0013B1D
:103D10001B0709F093CFEDCEF80181918F018F3F02
:103D200019F061E00E943902F7E0013B1F07A1F79B
:103D3000E0CE8DEA91E00E94250F83EF92E00E9491
:103D4000250F16E001E090E2F92E809177048111B1
:103D50001CC08DE593E00E94D40E0093B906F0924A
:103D6000DB061092BA061092DC0681E00E949F08E2
:103D700091E0811190E09093770464EF71E080E02E
:103D800090E00E948C05115001F78DEA91E00E94AD
:103D9000250F80917704882399F185E193E00E94B3
:103DA000250F82E897E0909344018093430180E2DD
:103DB0008093450110924B0110924A014AE451E070
:103DC00064E00E948F0910924D0110924C014CE466
:103DD00051E066E0809145010E948F098FEF9FEFCF
:103DE000909349018093480148E451E062E080915A
:103DF00045010E948F098DEA91E00E94250F79CE3E
:103E00008DE293E00E94250FF6CF86E090E04CCF44
:103E10008FE693E0F2CF809199078215130409F0A1
:103E20000CF41DC2F80180898530B9F461E0822D5F
:103E30000E94210EBC01990F880B990B0E94562EEF
:103E4000D80118966D937D938D939C931B97BFEF2C
:103E50002B1A3B0A0F5C1F4FDECFC58CD68CE78C2C
:103E6000F0A0C086D186E286F38620E030E0A9018A
:103E7000C701B6010E94A72D412C512C60E8662E87
:103E80006FE3762E87FF06C0412C512C50E8652E3B
:103E90005FEB752E20E030E0A901C701B6010E945A
:103EA000062F181624F0F7FAF094F7F8F094F801BA
:103EB00066A570E090E080E00E94562E4B015C0108
:103EC000A70196010E94A72D87FFC1CFA3019201F0
:103ED000C501B4010E940B2FB3CFF10183810CA95E
:103EE0001DA9000F111F000F111F882309F494C191
:103EF00020E030E0A901658976898789908D0E944C
:103F0000062F18160CF088C1F801E25AFB4FC0804A
:103F1000D180E280F3800E94BE0598012A5A3B4F6F
:103F20003901D9018D909D90AD90BC9068197909A7
:103F30008A099B090E94542E20E030E048E452E4B4
:103F40000E94062F87FD36C10E94BE05F3016083E3
:103F5000718382839383D10155968D909D90AD900E
:103F6000BC90589714962D913D914D915C91179767
:103F70002AAF3BAF4CAF5DAFC501B4010E943A2DF3
:103F80002B013C014092520450925304609254041D
:103F90007092550420E030E0A9010E94062FA30191
:103FA0009201181614F40C949B2B5058C501B401BF
:103FB0000E94A72D87FD17C1209152043091530410
:103FC00040915404509155042EAB3FAB48AF59AFCC
:103FD00020E030E0A9016EA97FA988AD99AD0E94CB
:103FE000062F4EA85FA868AC79AC181624F077FAB3
:103FF000709477F870942DEC3CEC4CE45EE3C501D2
:10400000B4010E940B2FA30192010E94A72D87FFEC
:10401000F6C080E090E0A0E8BFE380934E04909368
:104020004F04A0935004B09351042AE037ED43E2CB
:104030005DE3C501B4010E940B2F9B01AC01C301DC
:10404000B2010E94062F18160CF0A9C0A8014A5B05
:104050005B4F5FAF4EAFD10195968D909D90AD9027
:10406000BC909897A50194016EA97FA988AD99ADE0
:104070000E940B2FEEADFFAD208131814281538133
:104080000E943B2D2B013C0120E030E0A901C5013D
:10409000B4010E94062F20E030E040E85FE31816EC
:1040A0001CF020E030E0A901C301B2010E940B2FF7
:1040B0004B015C01AEADBFAD8D929D92AD92BC92B5
:1040C00013972AAD3BAD4CAD5DADF801E25CFB4F03
:1040D00060817181828193810E943A2DF10121A535
:1040E00032A543A554A50E940B2F2B013C01209122
:1040F0004E0430914F044091500450915104D1012D
:1041000091966D917D918D919C9194970E940B2F2A
:104110002EA93FA948AD59AD0E940B2FA5019401CE
:104120000E943B2D9B01AC01C301B2010E943B2DBB
:104130009B01AC01C701B6010E943B2D6B017C01C4
:10414000F101B6A46B2D70E090E080E00E94562E45
:104150009B01AC01C701B6010E94062F181644F45A
:104160006B2D70E090E080E00E94542E6B017C018A
:10417000D1019D96BC906B2D70E090E080E00E9494
:10418000562EA70196010E94062F181644F46B2D97
:1041900070E090E080E00E94542E6B017C01F801F9
:1041A000E25CFB4F2AAD3BAD4CAD5DAD208331836E
:1041B00042835383F801E25AFB4FC082D182E282EC
:1041C000F382C701B6010E941E2E072E000C880B39
:1041D000990B0E94562ED10118966D937D938D9365
:1041E0009C931B9733C0D501C401B05880935204EF
:1041F00090935304A0935404B0935504DDCE20E073
:1042000030E040E45FE320934E0430934F0440934A
:1042100050045093510409CFF801EA5BFB4F108220
:10422000118212821382C12CD12C7601C3CF60E09F
:104230008CA90E94210EBC01990F880B990B0E943A
:10424000562EF1016087718782879387ECA9FDA9BB
:104250003196FDABECABF1E32F0E311C65CC0E9427
:10426000BE0500913B0110913C0120913D01309130
:104270003E01601B710B820B930B6233710581054C
:10428000910508F418C40E94BE0560933B01709329
:104290003C0180933D0190933E0135E2632E36E070
:1042A000732E8301F12CE12C809199078E151F0448
:1042B00009F00CF444C00E94BE05D8011C968D90F4
:1042C0009D90AD90BC901F97681979098A099B0948
:1042D000603A7F408105910580F5F80185889688D0
:1042E000A788B08C20E030E0A901C501B4010E948C
:1042F000062F181624F480912406811114C0D801C9
:1043000050968C91843049F420E030E0A901C50139
:10431000B4010E94062F181674F080913A018111A1
:104320000CC080912406F8018383FFEFEF1AFF0A87
:104330000F5C1F4FB9CF81E0F6CF80E0F4CF8091C2
:104340002806811108C08091590600917B04E090F5
:104350007A04882321F000917D04E0907C04809110
:104360007904082B80917804E82A8091A007823094
:1043700009F4EBC008F06EC0813009F49DC0E4EF91
:10438000F4E0FFAFEEAF2AEE34E03FAB2EAB42EEEF
:1043900054E05DAB4CAB8CEF94E09BAF8AAF5CE03C
:1043A000452E55E0552EA4E0B5E02296BFAFAEAF46
:1043B000229762EF262E64E0362E75E2872E76E095
:1043C000972ED101A25FB440809199078A171B06EE
:1043D00009F00CF4D4C2F4018089833009F052C191
:1043E0002085318542855385618D728D838D948DB5
:1043F0000E940B2FD40114966D937D938D939C9303
:104400001797F1E38F0E911C2EAD3FAD2C5F3F4F00
:104410003FAF2EAF3FEF231A330A4EA95FA94C5F7F
:104420005F4F5FAB4EAB8CA99DA904969DAB8CAB47
:10443000AAADBBAD1496BBAFAAAFB4E04B0E511CF6
:104440002296EEADFFAD229734962296FFAFEEAFE7
:104450002297B7CF833009F4ACC0843009F08FCFF6
:1044600080916604882309F48ACFF1EAAF2EF7E041
:10447000BF2ED12CC12C10E0D5018D915D01803172
:1044800008F4DCC0BFEFCB1ADB0AE8E0CE16D1049B
:1044900099F7E9EACE2EE7E0DE2E10E000E0F12CFD
:1044A000D6018D916D01803108F4DAC00F5F1F4F86
:1044B00008301105A9F763CF21EAA22E27E0B22E1A
:1044C000D12CC12C10E0D5018D915D018F3FC9F435
:1044D000BFEFCB1ADB0AE8E0CE16D104A1F799EAC8
:1044E000C92E97E0D92E10E000E0F12CD6018D9175
:1044F0006D018F3FC1F40F5F1F4F08301105B1F7F9
:104500003ECF90919A0798010C2C02C035952795C3
:104510000A94E2F7692F20FD03C061E0911160E089
:104520000E940B02D5CF90919A079701002E02C0EE
:10453000359527950A94E2F7692F20FD03C061E0C5
:10454000911160E00E940B02D6CF809177048823FE
:1045500009F415CF17E6A12E14E0B12E89E7C82E75
:1045600081E0D82EF12CE12C10E098010E2C02C035
:10457000359527950A94E2F7B22FB1709B2EF5017D
:1045800081915F01B81751F0D6018C9160E020FF56
:1045900061E00E94CB09F50131979082BFEFEB1AE1
:1045A000FB0AEFEFCE1ADE0AF8E0EF16F104E9F6A7
:1045B000E6CE80917704882309F4E1CEA7E68A2E1F
:1045C000A4E09A2EB9E6AB2EB1E0BB2ED12CC12CC3
:1045D000F12C10E028E0C216D1042CF5C8010C2CF7
:1045E00002C0959587950A94E2F7382F3170532EC3
:1045F000D4018D914D01851559F0F501808160E060
:10460000511001C061E00E94CB09F4013197508242
:10461000FFEFCF1ADF0A2FEFA21AB20A30E1C3165A
:10462000D104C1F6ACCEC6010897A70102C05595CA
:1046300047958A95E2F74170542EDACF90919A0708
:1046400098010C2C02C0359527950A94E2F7692F42
:1046500020FD03C061E0911160E00E94D51112CFEE
:1046600090919A079701002E02C0359527950A94DC
:10467000E2F7692F20FD03C061E0911160E00E9424
:10468000D51114CFCD01880F991F880F991FFC01F8
:10469000E05EFA4F7F014081518162817381452B39
:1046A000462B472B09F48FC0F89400811181228199
:1046B0003381F4014189528963897489400F511F04
:1046C000621F731F418B528B638B748BF7011082B7
:1046D000118212821382885E9A4FFC0140815181BF
:1046E00062817381409314055093150560931605FC
:1046F000709317057894F40187A5882309F446C0C0
:10470000F894FD01EE0FFF1FE252FB4F8081918173
:1047100020E030E0A901181619067CF510E000E051
:1047200060E070E0CB01AF012CE0F22EFA9E900128
:10473000FB9E300D1124DA01ED90FC900E151F0543
:10474000A4F4D901A00FB11FAA0FBB1FAA0FBB1F52
:10475000A258BB4FCD90DD90ED90FC906C0D7D1D6F
:104760008E1D9F1D0F5F1F4FE6CF20813181032ECD
:10477000000C440B550B0E94782F7894209314055D
:1047800030931505409316055093170500911405B5
:104790001091150520911605309117050115110589
:1047A0002105310509F0CAC0F2011082118212827E
:1047B00013820E94BE052296EEADFFAD2297608364
:1047C0007183828393830E94BE052296AEADBFADF6
:1047D00022970D911D912D913C91601B710B820BC5
:1047E000930B613A7F4081059105A0F0F2011082A0
:1047F000118212821382AAADBBAD1D921D921D9231
:104800001C921397EEADFFAD1082118212821382BB
:10481000D1011C92F2010081118122813381AAAD64
:10482000BBAD6D917D918D919C911397600F711F20
:10483000821F931FFD016083718382839383AEA9DE
:10484000BFA9CD90DD90ED90FC901397C016D106D6
:10485000E206F30628F4FD010083118322833383EB
:10486000ACA9BDA9CD90DD90ED90FC9013970C15EF
:104870001D052E053F0528F4FD01008311832283C9
:104880003383D1012C912F5F2C932530E0F1EEA9D9
:10489000FFA90081118122813381601B710B820B82
:1048A000930BACA9BDA90D911D912D913C91601B5D
:1048B000710B820B930B0E94542E20E030E046E9EE
:1048C00053E40E94AC2DEEADFFAD60837183828313
:1048D0009383AAADBBAD1D921D921D921C9213979E
:1048E000EEA9FFA9108211821282138220E032EF1A
:1048F00045E05AE2ACA9BDA92D933D934D935C933D
:104900001397F1011082D4015996CD90DD90ED906E
:10491000FC905C9720E030E0A901C701B6010E943D
:10492000062F181634F5A7019601EEADFFAD608194
:104930007181828193810E94AC2D5CCD5801690107
:10494000E12CF12C00E010E020E03CEB40EA55E6E1
:1049500061E070E080E090E00E94A72FD2012C93EC
:1049600011963C93119712964C93129713965C9361
:1049700020CFF401148215821682178242CD10E0F6
:1049800000E0809199078017110609F00CF493C09C
:10499000D30150968C91823009F471C050F4882371
:1049A000B9F1813059F00F5F1F4FF1E36F0E711CA9
:1049B000E8CF843009F463C08530A9F7E0909B0705
:1049C000D3011196FC90119713968C91139788231D
:1049D00009F44CC020E030E0A90118966D917D915A
:1049E0008D919C911B970E94062F87FD54C06E2DC0
:1049F0008F2D0E940B02F30160857185828593855E
:104A00000E941E2ED30112968C910E947502CBCF6C
:104A1000E0909B07F301F18020E030E0A901608580
:104A20007185828593850E94062F87FD10C06E2DAB
:104A30008F2D0E940B02D30118966D917D918D915F
:104A40009C911B970E941E2EF3018281DECF61E0B4
:104A5000E11060E08F2D0E940B02D30118966D913A
:104A60007D918D919C911B979058ECCF61E0E11066
:104A700060E08F2D0E940B026FEF70E0E5CFD30155
:104A800013968C911397882399F0E0909B071196C9
:104A9000FC9011979FCF61E0E11060E08F2D0E94A4
:104AA0000B02F30160857185828593859058A8CFAC
:104AB00070E060E0C9CF0E94BE0500913601109100
:104AC00037012091380130913901601B710B820B45
:104AD000930B693C71058105910508F456C10E944C
:104AE000BE0560933601709337018093380190932F
:104AF000390105E216E0F12CE12CB0E93B2E8EE7FE
:104B0000282E5E012DE0A20EB11C88248394912CE6
:104B10008C0E9D1E3DE0830E911C80919807909114
:104B200099079E151F0409F00CF4D1C039822A821E
:104B300040E1849FC00111248E298B8320E030E066
:104B40004AE754E4D80114966D917D918D919C9122
:104B500017970E940B2F0E94252E6C837D838E83D6
:104B6000F801418C528C638C748C20E030E0A901F8
:104B7000C301B2010E94062F18160CF08CC0D80198
:104B800051966D917D918D919C9154970E94542ED8
:104B900020E030E040E251E40E940B2FA30192019B
:104BA0000E94AC2D0E94252E6F8378878987F8019B
:104BB0004084518462847384C301B2010E94252E13
:104BC0006A87C301B2010E941E2E7B871C860E9449
:104BD000BE054090310650903206609033067090CA
:104BE00034066419750986099709603A7F40810582
:104BF000910518F48C8581608C870E94BE054090D9
:104C000062065090630660906406709065066419B1
:104C1000750986099709603A7F408105910518F466
:104C20008C8582608C870E94C80E882319F08C8541
:104C300080648C8780912805882319F08C85806892
:104C40008C87FE01319690E080E02191820F911DCA
:104C5000AE16BF06D1F78D870E94C80E8823F9F0E3
:104C60004FE255E76FE471E083E094E10E94DD12CA
:104C70008DE0FE013196ADEAB5E001900D928A9586
:104C8000E1F78DE090E00E948507BFEFEB1AFB0A89
:104C90000F5C1F4F42CF1F821886198688CF8981EB
:104CA0000E94330F6E0132E0C30ED11C83E993E002
:104CB0000E94D40ED6018D916D010E94330F8C1489
:104CC0009D04A1F78DEA91E00E94250FDECF91E9C6
:104CD00099839EE79A838B831C821D821E821F828A
:104CE000188619861A861B8682EC8C878FE08D8742
:104CF0001E862091B1072F3F01F130E0F901E65403
:104D0000FF4F8491F901EA55FF4F1491F901EE56D6
:104D1000FF4F0491002389F081110E94E201E02FEE
:104D2000F0E0EE0FFF1FE857FF4FA591B491EC9113
:104D30001E2319F08E8581608E879E01215F3F4F73
:104D4000FE01319690E080E04191840F911D2E1775
:104D50003F07D1F78F870E94C80E882309F451C1FD
:104D60004FE255E76FE471E083E094E10E94DD12C9
:104D70008FE0FE013196ADEAB5E001900D928A9583
:104D8000E1F78FE090E00E9485070E94C80E88231B
:104D900009F42CC480912D05882379F060912B05AE
:104DA00070912C056115710509F04AC16FEF7BE028
:104DB0008CE00E94EA0610922D0589E30E94F70616
:104DC000F12CE12C8823D9F160912B0570912C05F1
:104DD00080E00E94EA06BE016F5F7F4F86E090E0B0
:104DE0000E94850689819A8190932C0580932B05DA
:104DF0008D819E817C01B0E8EB22FF2487FF13C0E8
:104E00008B819C810497E0902905F0902A05E1E0D0
:104E1000EE1AF1088E159F0508F47C0163E875E031
:104E2000C7010E948506F701ED57FA4F108281E015
:104E300080932D0540E46EE180E80E94AC068091ED
:104E4000FB05882369F080914305823009F401C194
:104E500008F0F9C0882309F484C1813009F4A0C1A5
:104E6000E114F10409F02BC28091FA05857099F0E4
:104E70008091F8059091F905892B69F40E940F073C
:104E800082FF09C084EF95E00E9461128091FA05CB
:104E900088608093FA058091F8059091F905019654
:104EA0009093F9058093F8058091F305813009F01E
:104EB0006EC08091FA0581FF6AC082E08093F3059D
:104EC000809135018F5F80933501182F1F7189EE16
:104ED00095E00E94970069EE75E0882309F4ECC123
:104EE00087E795E00E94CB1208E000938F051092AF
:104EF000900549E050E06EEC70E081E995E00E9499
:104F00001B2D8CE28093940586E080939A050E9485
:104F100064061092A7051092A8058BE08093A50562
:104F20001093A605E9EAF5E0DF011D920A95E9F77D
:104F3000809134018093AB058D5F8093340180E6CE
:104F40008093B10582E08093B20593E09093B3051E
:104F50001092B4051092B5051092B6051092B705DF
:104F60001092B8058093B90594E09093BA058093A8
:104F7000BB0586E28093BC0522E040E250E06AE196
:104F800082E30E9411068AE390E00E9425078FEEDB
:104F900095E00E949700882379F08091EE058111B9
:104FA0000BC08091ED05811107C08FEE95E00E9446
:104FB000611281E08093ED0589EE95E00E949700F3
:104FC000882379F08091E80581110BC08091E70575
:104FD000811107C089EE95E00E94611281E0809303
:104FE000E70580E090E0892B11F40C94851D0E9468
:104FF0003F01882311F40C94851D0E9400000C943D
:10500000851D89810E94330F8E010E5F1F4FEE2494
:10501000E394F12CEC0EFD1EEFE0EE0EF11C83E9A3
:1050200093E00E94D40ED8018D918D010E94330F20
:10503000E016F106A1F78DEA91E00E94250FA5CEBA
:1050400061507109B5CE833009F456C0843009F03F
:1050500007CF65E0C7010E94BA07882309F4C9C0D9
:1050600080913205811108C088E30E94F706682FFD
:105070006E7F88E30E94DD066DEB75E081EE96E0C1
:105080000E945912EDE9F6E097012D573A4F690158
:105090008F010E5F1F4FB1808081863009F4FBC005
:1050A00008F0BEC0813009F4ECC0833009F4EFC0D1
:1050B000F801EB0DF11DEC15FD0550F30E94BE0546
:1050C00060933B0570933C0580933D0590933E05AE
:1050D0008091F405882361F01092F9051092F8058B
:1050E00081E08093FA0564EF75E0CB010E945912CC
:1050F00083E080934305B4CE80903F0590904005B7
:10510000A0904105B0904205FFEF8F169F06AF06B5
:10511000BF0609F4A5CE0E94BE0500913B05109183
:105120003C0520913D0530913E05601B710B820BC3
:10513000930B681579058A059B0508F491CE81EEDD
:1051400096E00E94391384E0809343050E94BE05D7
:1051500060933705709338058093390590933A052D
:105160007FCE0E94BE056093330570933405809313
:10517000350590933605E1EEF6E084E0DF011D92FF
:105180008A95E9F790E080E00E94391388E30E9455
:10519000F706682F616088E30E94DD0681E0D4CFC6
:1051A00062E0C7010E94BA07882319F16DEB75E030
:1051B000CE0101960E945912EDE9F6E0C7018D5724
:1051C0009A4FBF016E5F7F4F21813081363351F49A
:1051D0008EE295E00E945912CE0101960E94391389
:1051E00082E0B2CFFB01E20FF11DE817F90748F3A7
:1051F000F3CF0E94BE05009137051091380520912C
:10520000390530913A05601B710B820B930B6131AC
:1052100077428105910508F423CE1092430520CEF4
:105220008A3331F08F3F09F449CF833309F040CFFF
:1052300010923F05109240051092410510924205D0
:10524000F801C801049620E030E0A9016191542FD3
:10525000432F322F2227260F311D411D511D8E173E
:105260009F07A1F72F3F8FEF380748075807B9F47A
:1052700020933F05309340054093410550934205EC
:1052800017CFB8018DED96E00E94591211CFB801E9
:1052900084EF95E0F9CFB8018FEE95E0F5CFA8EE59
:1052A000B3E00E949A2F60933F057093400580936E
:1052B000410590934205FCCE8DE795E013CEB9E20F
:1052C000EB16F10408F48DCE80918F05883009F03B
:1052D00088CE80919005863009F03FC244E050E0CE
:1052E00061EE76E089EA95E00E949130892B09F021
:1052F00078CE80919805813029F589E895E00E9463
:105300004E121092970582E08093980569E975E046
:1053100083EA95E00E942F1264E475E089E995E044
:105320000E942F126FE975E089EA95E00E945912F8
:1053300061EE76E08FE995E00E9459128AE290E0F2
:105340000E9425078091FA0583FF0DC010919805F2
:10535000123049F46DE775E084EF95E00E94371252
:1053600081111093FA058091EE05811111C0809191
:10537000ED05882369F067E775E08FEE95E00E9400
:105380003712882329F081E08093EE051092ED0515
:105390008091E805811125CE8091E705882309F4E5
:1053A00020CE67E775E089EE95E00E9437128823EA
:1053B00009F417CE81E08093E8051092E70511CE3D
:1053C00090917605911122C0E6E3EE16F10408F4FF
:1053D00008CE00919A05063009F003CE8091A7050A
:1053E0008B3009F0B2C044E050E069EE75E08DE921
:1053F00095E00E949130892B09F0F3CD1091B20510
:1054000012FF58C085E08093F305EBCD8131E1F6C2
:105410003EE4C32E35E0D32EB12CA12C20E08091A8
:1054200076058A151B0409F00CF440C0D6011296CB
:105430003C91129713969C9113978091A705239600
:105440009FAF239724961FAE24972496EEADFFAD11
:1054500024978E171F0619F58091A80583131FC086
:1054600014969C9014979920D1F00091A90510E012
:10547000102F00272091AA052850330B020F131F6D
:105480004091A5055091A605542745275427ED9135
:10549000FC912DEA35E06DE975E00995292DFFEFC6
:1054A000AF1ABF0A35E0C30ED11CB9CF222309F4CD
:1054B0008BCF97CD0E94CB052091F305223089F543
:1054C000212F20711271123101F560E090E080E02F
:1054D0000E94A71288E18093B20583E08093F305D0
:1054E0001092930588E2809394050E9464061092BE
:1054F000B5051092B60522E04CE150E06AE182E386
:105500000E94110686E390E06EC131E03093F3050E
:105510000196222311F090E080E064E00E94A7123F
:1055200060CD253009F45DCD10FF0AC0233009F4A9
:1055300058CD69E001960E94A7120093F30551CD62
:1055400060E0009709F44DCDE9CF81114ACD8091FB
:10555000A805803509F045CD1091B20511FF39C07D
:10556000109293058CE2809394050E94951282E13B
:105570008093B20560E081E090E00E94E605109221
:10558000A9051092AA05809134018093AB05109271
:10559000AC058D5F8093340182E08093B90584E08F
:1055A0008093BA0585E08093BB051092BC0590E618
:1055B0009093B1058093B30588E78093B40522E00A
:1055C00040E250E06AE182E30E9411068AE390E043
:1055D0000AC114FF06CD0E94CB05892B09F001CD2D
:1055E00010FFFFCC60E090E080E098CF85EE96E081
:1055F0000E943301892B09F4F4CC85EE96E00E94D9
:105600003301C3978CF085EE96E00E943301892B1D
:1056100029F085EE96E00E941101F5CF1092230645
:10562000109222061092210680912106882361F1B2
:105630000091200610E085EE96E00E94330198016B
:1056400022503109821793070CF4CBCC8FEFE82E50
:1056500085E0F82EC7018D5F95408017910744F4CF
:1056600085EE96E00E941101D7018D937D01F2CF66
:10567000B8018DEF95E00E94F3141092230610926A
:10568000220610922106ADCC80912206909123062D
:10569000863FBEE79B07B1F118F5843FFEE79F0701
:1056A00041F1853F9E4761F185EE96E00E94110130
:1056B0009091FC0526968FAF269725961FAE2597CD
:1056C00026962EAD3FAD2697292B309323062093A7
:1056D00022069093FD058093FE058093FC0581CC06
:1056E000873F3EE7930781F08C3B9F47E9F68FE1C8
:1056F00001C08EE08093200681E08093210671CC6A
:105700008AE0F8CF83E1F6CF86E0F4CF8091A0075E
:10571000813011F00C94311AE1EAF7E08191865161
:10572000893E10F40C94A51B27E0E13BF207B1F78A
:1057300081E00C94A61BC501B4010E94A72D87FD32
:1057400002C00C94DC1F8092520490925304A092E9
:105750005404B09255040C94DC1F59E2E516F10490
:1057600009F43FCC81113DCC80919105853409F03D
:1057700038CC44E050E061EE76E081EA95E00E94AA
:105780009130892BA9F044E050E06AE475E081EAA9
:1057900095E00E949130892B59F044E050E061E897
:1057A00071E081EA95E00E949130892B09F019CCD3
:1057B00080919A05813009F003CE9091A50598302B
:1057C00009F0FECD0E9495121092A5058091A705C3
:1057D000883F28F09091A8059F5F9093A805885F67
:1057E0008093A705C7010E942507FBCB0F931F934A
:1057F000CF93DF938230910510F482E090E0E09146
:10580000B407F091B50730E020E0B0E0A0E03097B9
:1058100099F42115310509F44AC0281B390B2430AD
:105820003105D8F58A819B816115710589F1FB01EC
:1058300093838283FE0111C04081518102811381D3
:1058400048175907E0F04817590799F4109761F085
:1058500012960C93129713961C933296CF01DF91F8
:10586000CF911F910F9108950093B4071093B5073E
:10587000F4CF2115310551F04217530738F0A90133
:10588000DB019A01BD01DF01F801C1CFEF01F9CFC2
:105890009093B5078093B407CDCFFE01E20FF31FBD
:1058A000819391932250310939832883D7CF209156
:1058B000B2073091B307232B41F420915501309169
:1058C00056013093B3072093B207209153013091D2
:1058D00054012115310541F42DB73EB740915701D0
:1058E00050915801241B350BE091B207F091B3079A
:1058F000E217F307A0F42E1B3F0B2817390778F0A7
:10590000AC014E5F5F4F2417350748F04E0F5F1F05
:105910005093B3074093B207819391939FCFF0E0E8
:10592000E0E09CCFCF93DF930097E9F0FC01329742
:1059300013821282A091B407B091B507ED0130E057
:1059400020E01097A1F420813181820F931F2091D4
:10595000B2073091B3072817390709F061C0F093F7
:10596000B307E093B207DF91CF910895EA01CE1714
:10597000DF07E8F54A815B819E0141155105B1F7CA
:10598000E901FB83EA8349915991C40FD51FEC17B4
:10599000FD0761F4808191810296840F951FE901D2
:1059A00099838883828193819B838A83F0E0E0E0FE
:1059B00012968D919C9113970097B9F52D913C917A
:1059C0001197CD010296820F931F2091B20730915B
:1059D000B3072817390739F6309751F51092B507F4
:1059E0001092B407B093B307A093B207BCCFD38390
:1059F000C28340815181840F951FC817D90761F474
:105A00004E5F5F4F88819981480F591F51834083B2
:105A10008A819B81938382832115310509F0B0CF60
:105A2000F093B507E093B4079ECFFD01DC01C0CF32
:105A300013821282D7CFFB01DC0102C005900D92C8
:105A400041505040D8F70895F999FECF92BD81BDDD
:105A5000F89A992780B50895262FF999FECF1FBA95
:105A600092BD81BD20BD0FB6F894FA9AF99A0FBE87
:105A7000019608955058BB27AA270E94522D0C94D6
:105A8000CC2E0E94BE2E38F00E94C52E20F039F494
:105A90009F3F19F426F40C94BB2E0EF4E095E7FB1F
:105AA0000C94B52EE92F0E94DD2E58F3BA17620729
:105AB00073078407950720F079F4A6F50C94FF2E60
:105AC0000EF4E0950B2EBA2FA02D0B01B901900119
:105AD0000C01CA01A0011124FF27591B99F0593F5D
