:100000000C94AE000C94AF100C9488100C94D60095
:100010000C94D6000C94D6000C94D6000C94D60008
:100020000C94D6000C94D6000C94D6000C94D600F8
:100030000C94D6000C94D6000C94D6000C94D600E8
:100040000C943E100C94D6000C940C100C94E60FFB
:100050000C94D6000C94D6000C94D6000C94D600C8
:100060000C94D6100C94D60007634236B79BD8A7E1
:100070001A39685618AEBAAB558C1D3CB7CC5763CD
:10008000BD6DEDFD753EF6177231BF000000803F7B
:1000900008000000BE922449123EABAAAA2ABECD97
:1000A000CCCC4C3E00000080BEABAAAAAA3E000009
:1000B0000000BF000000803F000000000008417801
:1000C000D3BB4387D1133D190E3CC3BD4282AD2B38
:1000D0003E68EC8276BED98FE1A93E4C80EFFFBE30
:1000E00001C4FF7F3F0000000000638253630001F2
:1000F00008000604000100000000250028002B0075
:1001000000000000240027002A00450000820000B3
:100110004000200000000023002600290004040401
:1001200004040404040202020202020303030303A0
:10013000030102040810204080010204081020017D
:10014000020408102000000008000201000003045F
:1001500007000000000000000000F51111241FBE80
:10016000CFEFD8E0DEBFCDBF13E0A0E0B1E0E0ED1F
:10017000F1E502C005900D92AA3DB107D9F727E03D
:10018000AAEDB3E001C01D92A735B207E1F710E078
:10019000CEEAD0E004C02197FE010E94C428CD3AE7
:1001A000D107C9F70E943D120C94E6280C94000078
:1001B000CF93DF932091AA062223C1F0FC01208176
:1001C0002223A1F0CAEAD6E0A6EAB6E09C012C5FA1
:1001D0003F4F899141919D918427892339F4E217FA
:1001E000F307B9F781E0DF91CF91089580E0FBCF6D
:1001F0008230C8F4E82FF0E0EE0FFF1FEB5BFE4FFC
:1002000071836083813041F0809169008C7F8260CE
:1002100080936900E89A089580916900837F8860DF
:1002200080936900E99A0895AF92BF92CF92DF92CE
:10023000EF92FF920F931F93CF93DF936C017B019B
:100240008B01040F151FEB015E01AE18BF08C0172C
:10025000D10759F06991D601ED91FC910190F0819F
:10026000E02DC6010995892B79F7C501DF91CF9162
:100270001F910F91FF90EF90DF90CF90BF90AF90C4
:10028000089508950895FC01538D448D252F30E085
:10029000842F90E0821B930B541710F0CF96089593
:1002A00001970895FC01918D828D981761F0A28DC0
:1002B000AE0FBF2FB11D5D968C91928D9F5F9F7386
:1002C000928F90E008958FEF9FEF0895FC01918D3C
:1002D000828D981731F0828DE80FF11D858D90E0A9
:1002E00008958FEF9FEF0895FC01918D228D892F46
:1002F00090E0805C9F4F821B91098F73992708952E
:100300008EEA96E00E94740121E0892B09F420E036
:10031000822F089580E090E0892B29F00E948001CF
:1003200081110C9400000895FC01A48DA80FB92F31
:10033000B11DA35ABF4F2C91848D90E001968F730D
:100340009927848FA689B7892C93A089B1898C912C
:10035000837080648C93938D848D981306C002887B
:10036000F389E02D80818F7D80830895EF92FF9245
:100370000F931F93CF93DF93EC0181E0888F9B8DC8
:100380008C8D98131AC0E889F989808185FF15C082
:100390009FB7F894EE89FF896083E889F9898081A5
:1003A0008370806480839FBF81E090E0DF91CF9174
:1003B0001F910F91FF90EF900895F62E0B8D10E096
:1003C0000F5F1F4F0F731127E02E8C8D8E110CC005
:1003D0000FB607FCFACFE889F989808185FFF5CF50
:1003E000CE010E949401F1CFEB8DEC0FFD2FF11D9A
:1003F000E35AFF4FF0829FB7F8940B8FEA89FB898D
:1004000080818062CFCFCF93DF93EC01888D8823EA
:10041000B9F0AA89BB89E889F9898C9185FD03C067
:10042000808186FD0DC00FB607FCF7CF8C9185FF4C
:10043000F2CF808185FFEDCFCE010E949401E9CFFC
:10044000DF91CF910895833081F028F4813099F0C5
:100450008230A9F008958730A9F08830C9F084303F
:10046000B1F4809180008F7D03C0809180008F77F0
:1004700080938000089584B58F7784BD089584B5F6
:100480008F7DFBCF8091B0008F778093B00008956F
:100490008091B0008F7DF9CF1F93CF93DF93282FEA
:1004A00030E0F901EB5BFE4F8491F901EF5CFE4F08
:1004B000D491F901E35EFE4FC491CC23A9F0162F2D
:1004C00081110E942302EC2FF0E0EE0FFF1FEA5093
:1004D000FF4FA591B4918FB7F894EC91111108C01A
:1004E000D095DE23DC938FBFDF91CF911F910895CC
:1004F000DE2BF8CFCF93DF9390E0FC01EF5CFE4F53
:100500002491835E9E4FFC0184918823C9F090E082
:10051000880F991FFC01E050FF4FA591B491FC0199
:10052000EA50FF4FC591D49161110DC09FB7F89467
:100530008C91209582238C938881282328839FBFC8
:10054000DF91CF910895623051F49FB7F8943C91B8
:10055000822F809583238C93E8812E2BEFCF8FB74A
:10056000F894EC912E2B2C938FBFEACF1F93CF934F
:10057000DF93182FEB0161E00E947A02209739F493
:1005800060E0812FDF91CF911F910C944C02CF3FFF
:10059000D10511F461E0F5CFE12FF0E0EB5BFE4F08
:1005A000E491E33031F140F4E130B1F0E230E1F0D8
:1005B000C038D1057CF7E4CFE73029F1E83059F1B4
:1005C000E430B1F780918000806280938000D09306
:1005D0008B00C0938A0004C084B5806884BDC7BD09
:1005E000DF91CF911F91089584B5806284BDC8BD0D
:1005F000F7CF80918000806880938000D09389003D
:10060000C0938800EDCF8091B00080688093B000E7
:10061000C093B300E5CF8091B00080628093B000BA
:10062000C093B400DDCF3FB7F8948091A4049091BB
:10063000A504A091A604B091A70426B5A89B05C067
:100640002F3F19F00196A11DB11D3FBFBA2FA92F51
:10065000982F8827BC01CD01620F711D811D911D4E
:1006600042E0660F771F881F991F4A95D1F70895BA
:100670008F929F92AF92BF92CF92DF92EF92FF92B2
:100680004B015C010E9413036B017C010E94130368
:100690006C197D098E099F09683E7340810591059B
:1006A000A8F321E0821A9108A108B10888EEC80ECB
:1006B00083E0D81EE11CF11C81149104A104B10453
:1006C00029F7FF90EF90DF90CF90BF90AF909F9071
:1006D0008F9008952FB7F8946091A0047091A104B1
:1006E0008091A2049091A3042FBF08950895809152
:1006F000CF059091D0059827892798274497209176
:10070000ED0530E044E0359527954A95E1F7220F55
:10071000331F220F331F821B930B97FF02C090E001
:1007200080E008952091E3053091E1053093E305E1
:100730002093E1052091E4053091E2053093E40532
:100740002093E205EFEBF5E021A5820F911D25A591
:1007500085A7662381F021A7892F9927319725E066
:10076000EB3BF20789F71092F1051092F20580E554
:100770008093ED05089511A6EFCF0F931F93CF93AC
:10078000DF9370E061547A4F8A01075F1F4F213079
:1007900029F0223031F48A010250110930E020E0C2
:1007A00003C000E010E09801EB01FA01E230F1052E
:1007B00058F0A991B991BA27AB27BA270A0F1B1F86
:1007C000211D311D3297F2CFFA01EE7F6E0F7F1F90
:1007D0004E175F0769F0FB01408150E070E060E078
:1007E000762F652F542F4427040F151F261F371F00
:1007F000A90166277727411551056105710519F093
:1008000022273327F1CF00951095E82FF0E0E1542F
:10081000FA4F10830183DF91CF911F910F910895BB
:10082000EFEBF5E0108E118E80E4848B158A868BB9
:1008300020E044E150E06EE088E10C94BD038EBD01
:100840000DB407FEFDCF089561E08091B1040E94D0
:100850004C0278940895F89460E08091B1040C946F
:100860004C020F931F93CF93DF93EC018B010E94F7
:100870002B042097B9F08AE30E941F041EBCF801E4
:10088000CE01019739F00DB407FEFDCF2EB51EBC89
:100890002193F7CF2197C00FD11F0DB407FEFDCFD5
:1008A0008EB58883DF91CF911F910F910C94240412
:1008B0001F93CF93DF93182FC62FD42F0E942B04A2
:1008C0008C2F8F71812B0E941F048D2F0E941F047B
:1008D000DF91CF911F910C942404CF93C82FC07641
:1008E00080919E048C1799F043E06FE180EA0E94AA
:1008F0005804C0939E044C2F50E085E055954795D1
:100900008A95E1F76FE180E8CF910C945804CF917C
:100910000895CF93DF93C82FD62F0E946D044D2FDB
:100920006C2F80E4DF91CF910C945804CF93DF9328
:10093000C82FD72F0E9489046D2F81E08C0FDF9183
:10094000CF910C948904CF93C82F0E946D040E940C
:100950002B048C2F8F710E941F0480E00E941F04C3
:10096000C7FF03C080E00E941F04CEB50E9424048C
:100970008C2FCF91089561E184ED0E94890461E09C
:1009800082ED0E9489048AEE0E94A30480FDFBCFC1
:1009900060E082ED0E94890489ED0E94A30490E04A
:1009A0000895CF93DF93EC0140E86FE180E80E9467
:1009B000580440E86FE180EA0E9458044AE06CE184
:1009C00080EA0E94580460E07CE082E00E94960485
:1009D000BE01745F86E00E94960440E060E08AE712
:1009E0000E9458040E942B042097B1F08AE70E94CD
:1009F0001F048091BF058EBDE0ECF5E0C154DA4FD5
:100A0000EC17FD0731F081910DB407FEFDCF8EBDCF
:100A1000F7CF0DB407FEFDCF0E94240448E06FE13C
:100A200080E80E945804D0E0C0E08CE10E94A3045A
:100A30008A7029F42196C83E83E0D807B1F78CE18B
:100A40000E94A30481FD03C0C83ED34039F448E0AE
:100A50006FE180EADF91CF910C945804DF91CF9140
:100A600008950F931F93CF93DF93EC010FEB15E0E5
:100A70004C96F801908B818B0E941004CE01089651
:100A8000F80196A387A3AE01405F5F4F21E06AE1C2
:100A900088E20E94BD03CE018A96DF91CF911F911B
:100AA0000F910C94D104CF93DF93EB01682F84ED69
:100AB0000E948904BE0186ED0E9496048AEE0E947F
:100AC000A30480FDFBCFDF91CF910895CF92DF92F9
:100AD000EF92FF920F931F938634910568F1209156
:100AE000E205233449F5C090ED05D090EE05E09085
:100AF000EF05F090F0050091D4041091D5042091F9
:100B0000D6043091D704C016D106E206F306A1F44C
:100B1000E9EDF6E081549A4F9F012E5F3F4F4181EE
:100B20005081553319F45281651771F0F901E40FC2
:100B3000F11DE817F90780F380E01F910F91FF90F6
:100B4000EF90DF90CF90089581E0F7CFE0919C0483
:100B5000F0919D049F012F5F3F4F30939D042093A0
:100B60009C0480830895FF920F931F93CF93DF938C
:100B7000162FF42E052F0E94A605812F0E94A60590
:100B8000CF2DD02F115020F089910E94A605FACFC9
:100B9000DF91CF911F910F91FF9008952091520402
:100BA000260F3327331F21323105ECF420917604D0
:100BB000FC0190E080E0243069F082E00895A0918B
:100BC00052042191AC014E5C5B4FA40FB52FB11DB7
:100BD0002C930196861798F380915204680F6093C6
:100BE000520480E0089581E008951092760481E037
:100BF000809378041092770461E082E10E944C02B5
:100C000061E083E10E944C02E9EBF0E080818E7F9D
:100C1000808380818D7F808388E48093B80085E421
:100C20008093BC000895CF93DF9391E090933104BB
:100C30008823B9F0C091B800D091BA008091BC006F
:100C40008A7B8093BC0060E082E10E944C0260E0FD
:100C500083E10E944C020E94F505D093BA00C09334
:100C6000B800DF91CF9108950895E091AD0480918F
:100C7000AC04E81730F4F0E0E45FFB4F808190E0D3
:100C800008958FEF9FEF08959091AD048091AC048B
:100C90002FEF3FEF981748F4E92FF0E0E45FFB4FA8
:100CA000208130E09F5F9093AD04C9010895809149
:100CB000AC049091AD04891B990B0895CF92DF92FB
:100CC000EF92FF920F931F93CF93DF937C01CB01A1
:100CD0008A012091A506222389F0EB016B01C40E45
:100CE000D51ECC15DD0569F06991D701ED91FC9118
:100CF0000190F081E02DC7010995F3CF642F0E9488
:100D0000CE05C801DF91CF911F910F91FF90EF9019
:100D1000DF90CF900895CF93DF931F92CDB7DEB7CA
:100D200069832091A5062223F9F02091A2062032A2
:100D300058F021E030E0FC013383228390E080E032
:100D40000F90DF91CF9108958091A306E82FF0E0F6
:100D5000E451FC4F998190838F5F8093A306809329
:100D6000A20681E090E0ECCF61E0CE0101960E9406
:100D7000CE05F7CF682F8BE497E00C948B06CF92CB
:100D8000DF92EF92FF920F931F93CF93DF93D09157
:100D9000A20681E0D13208F09CC0C091A4060E9456
:100DA00013036B017C018091760481116CC082E099
:100DB0008093760481E0809378048FEF80937504AC
:100DC00010929A04D0939904ACEEB3E0E9E7F4E012
:100DD00080E0D8138DC010929B0480919B04CC0FAF
:100DE000C82BC0939B0480917704813009F084C0A4
:100DF000109277040E9413036B017C0180919B0485
:100E00008093BB0080912D0490912E04A0912F041B
:100E1000B0913004892B8A2B8B2BA1F00E941303F5
:100E200000912D0410912E0420912F043091300454
:100E30006C197D098E099F090617170728073907BE
:100E400008F442C08091BC0083FDD8CF85EC80932C
:100E5000BC000E9413036B017C01809176048230F8
:100E600009F44CC0809175048F3F09F469C08091EA
:100E70007504803209F466C080917504803309F4EA
:100E800063C084E026C080912D0490912E04A0912F
:100E90002F04B0913004892B8A2B8B2B09F483CF3C
:100EA0000E94130300912D0410912E0420912F0411
:100EB000309130046C197D098E099F0906171707B8
:100EC0002807390708F06FCF80912C040E94130681
:100ED00085E01092A3061092A2061092A506DF915B
:100EE000CF911F910F91FF90EF90DF90CF900895D9
:100EF0009D9191938F5F6DCF85EEA9CF80912D0449
:100F000090912E04A0912F04B0913004892B8A2B4C
:100F10008B2B09F4A2CF0E94130300912D04109192
:100F20002E0420912F04309130046C197D098E0914
:100F30009F09061717072807390708F08ECFC4CF77
:100F400080E0C7CF82E0C5CF83E0C3CFCF93DF93EC
:100F5000EA01A0914901B0914A0191E09093A50660
:100F60008093A4061092A3061092A206ED91FC9124
:100F700011970190F081E02DCD01099580914901F3
:100F800090914A01DC01ED91FC910190F081E02DFE
:100F9000688109958091490190914A01DC01ED91A8
:100FA000FC910190F081E02D6981099580914901C2
:100FB00090914A010E94BF06982F8093540181E0CE
:100FC000911180E0DF91CF91089540914E015091B1
:100FD0004F0121E030E0F90102C0EE0FFF1F8A95BA
:100FE000E2F7CF01613069F4842B952B90934F0188
:100FF00080934E014EE451E062E080914B010C94ED
:10100000A6078095909584239523F0CF90E080E00B
:1010100008958F929F92AF92BF92CF92DF92EF92FC
:10102000FF92CF93DF93C82FD0E00E941303FE01FD
:10103000EE0FFF1FEE0FFF1FDF01AC51BC4FCD9035
:10104000DD90ED90FC9013979B01AC012C193D09AC
:101050004E095F0969017A013BEFC316D104E1042F
:10106000F10408F487C06D937D938D939C9313973F
:10107000DF01AC5CBE4F8D919D910D90BC91A02D78
:10108000C816D906EA06FB0608F074C09E01220FB6
:10109000331FD901A654BA4F8D919C911197019697
:1010A00011969C938E93A9014E555A4FDA018D915A
:1010B0009C91EA55FA4F80809180A280B38063E0D2
:1010C000CC0FDD1F6A95E1F7DC01AC0FBD1FAA0F45
:1010D000BB1FAA0FBB1FAE59BA4F8D919D910D90AA
:1010E000BC91A02D881A990AAA0ABB0A8082918213
:1010F000A282B382DA018D919C91DC01AC0FBD1FFD
:10110000AA0FBB1FAA0FBB1FAE59BA4FCD92DD92DB
:10111000ED92FC921397DA016D917C91808191811F
:10112000A281B381C60FD71FCC0FDD1FCC0FDD1FEF
:10113000CE59DA4FC880D980EA80FB808C0D9D1D86
:10114000AE1DBF1D80839183A283B383FA0180818A
:10115000918101968770992791838083F901E255E7
:10116000FA4F8081918108972CF4808191810196BA
:1011700091838083DF91CF91FF90EF90DF90CF90AC
:10118000BF90AF909F908F90089580E00C940908D5
:1011900081E00C9409084F925F926F927F928F9238
:1011A0009F92AF92BF92CF92DF92EF92FF920F93F6
:1011B0001F93CF93DF9300D000D000D0CDB7DEB720
:1011C000D62E282F30E03E832D833DE3839FF00110
:1011D0001124E85DF94F8381882359F020E030E045
:1011E000A901658976898789908D0E94A0261816A5
:1011F0000CF1D1101FC0C12CD12C7601C701B60152
:101200000E94B825CB0126960FB6F894DEBF0FBE1C
:10121000CDBFDF91CF911F910F91FF90EF90DF90A5
:10122000CF90BF90AF909F908F907F906F905F9086
:101230004F9008958DE34D815E81849F8001859F4D
:10124000100D1124085D194F2FE832EC45EF5CE3D7
:10125000D80155966D917D918D919C9158970E94E2
:10126000A5269B01AC01F801648175818681978177
:101270000E9441250D811E81000F111F000F111FBB
:101280002D813E8126523C4F790187FF0BC00E9481
:101290006A03F801E452FC4F608371838283938375
:1012A000D7011C9204521C4FF80180809180A280CB
:1012B000B380D7018C918823B1F00E946A0368192A
:1012C00079098A099B09613971408105910508F402
:1012D00092CF0E946A03F8016083718382839383B3
:1012E000D7011C9288CF0E946A03681979098A097C
:1012F0009B09613571058105910558F00E946A03CB
:10130000F801608371838283938381E0D7018C939A
:1013100072CF8DE3DD2009F44BC02D813E81829F89
:10132000F001839FF00D1124E85DF94FC58CD68C38
:10133000E78CF0A020E030E0A901C701B6010E94CF
:101340004125812C912C90E8A92E9FE3B92E87FF8F
:1013500006C0812C912C80E8A82E8FEBB82E20E0BF
:1013600030E0A901C701B6010E94A026A70196019D
:1013700018160CF050588DE36D817E81869FF00128
:10138000879FF00D1124E85DF94F45A456A467A48A
:1013900070A8C301B2010E94412587FF2FCFA5018C
:1013A0009401C301B2010E94A5266B017C0126CFE6
:1013B000AD81BE818A9FF0018B9FF00D1124E85D05
:1013C000F94F85889688A788B08C2481358146811D
:1013D0005781C501B4010E94D4242B013C0120E0B7
:1013E00030E0A9010E94A02673016201181624F0C2
:1013F000F7FAF094F7F8F0942FE832EC45E75CE365
:10140000C501B4010E94A526A70196010E944125AD
:1014100087FFF1CE75016401F7FAF094F7F8F094C4
:10142000A3019201C701B6010E94A026181664F01C
:10143000A3019201C501B4010E944125730162011B
:1014400087FF02C07501640120E030E0A901C701F7
:10145000B6010E94A02618160CF481C0A7019601BF
:10146000505829833A834B835C838DE34D815E81A1
:10147000849F8001859F100D1124085D194FD801AC
:10148000D5964D905D906D907C90D89799962D91C2
:101490003D914D915C919C97C501B4010E94A52698
:1014A00029813A814B815C810E94412587FF5CC084
:1014B000F80121A132A143A154A1C701B6010E94A4
:1014C000A526A30192010E94A5264B015C0120E004
:1014D00030E0A9010E94A02624013501181624F04D
:1014E00077FA709477F870942DE3ED81FE812E9F4A
:1014F000C0012F9F900D11249C01285D394F3A8324
:101500002983D901D196CD90DD90ED90FC90D497B0
:10151000A3019201C701B6010E94A026181684F00B
:10152000E981FA81C5A4D6A4E7A4F0A8A301920199
:10153000C701B6010E94412587FD02C07301620107
:1015400020E030E0A901C501B4010E94A0261816D0
:101550000CF454CEF7FAF094F7F8F0944FCEC98219
:10156000DA82EB82FC8281CFD80195962D913D9154
:101570004D915C919897A1CF4FEF460FFC0130E061
:1015800020E050E0DF01A81BB90BA417B50724F435
:101590007191270F311DF6CFFC01E60FF11D319738
:1015A00081E09081921380E008958091B9048823AE
:1015B00039F00E94BB049695879596958795817022
:1015C0000895FC0101900020E9F73197AF01481B15
:1015D000590BBC018EEA96E00C9414018F929F92F5
:1015E000AF92BF920F931F93CF93DF93CDB7DEB728
:1015F000A1970FB6F894DEBF0FBECDBF19A242303F
:1016000008F44AE08E010F5D1F4F842E912CB12CFF
:10161000A12CA50194010E949728E62FB901CA01C7
:10162000EA30F4F4E05DD801EE938D01232B242BF6
:10163000252B79F790E080E0109719F0CD010E94FA
:10164000E10AA1960FB6F894DEBF0FBECDBFDF91C1
:10165000CF911F910F91BF90AF909F908F90089561
:10166000E95CE1CFCF93DF930E94E10AEC0189EBC3
:1016700091E00E94E10A8C0F9D1FDF91CF910895A8
:101680000C94E10ACF93DF93682F70E090E080E044
:101690004AE00E94EE0AEC0189EB91E00E94E10A27
:1016A0008C0F9D1FDF91CF910895DC0196E0FB0127
:1016B00001900D929A95E1F70895BC018FEB95E0AA
:1016C0000E94550B65EE74E085EC95E00C94550B8B
:1016D000DC0194E0FB0101900D929A95E1F70895E9
:1016E00085EC95E00E945D0B69ED75E08DED95E070
:1016F0000E94680B6AEA76E089ED95E00E94680B2B
:101700000C941004262F20612093EE05643021F004
:10171000009711F481E090E061E00E949203109242
:10172000CF0588E28093D0050E94700B84E08093FF
:10173000EF051092F00522E04CE150E06AE182E30F
:101740000E94BD0386E390E00C94D104CF93DF9315
:10175000EB010E945D0BBE018DED95E00E94680BD0
:101760006AEA76E089ED95E0DF91CF910C94680B01
:10177000CF93DF93EB0144E050E0BC018BED95E0AB
:101780000E94D928892B49F465ED75E0CE010E94AD
:10179000550B81E0DF91CF91089580E0FBCF0F934F
:1017A0001F93CF938C0187E791E00E945D0BEFEBD5
:1017B000F5E088E08487C6E0C58748E050E06EEE3B
:1017C00070E08DEC95E00E94B524EFEDF5E0DF01CF
:1017D0001D92CA95E9F765EE74E085ED95E00E94EB
:1017E000550BB80185EE95E00E94680B6AEA76E039
:1017F0008BED95E00E94680B8AE290E0CF911F91FB
:101800000F910C94D104EF92FF920F931F93CF93FB
:10181000DF93182F092FEB01F42EE52ECB010E9448
:10182000D800BE01882309F447C088E195E00E94F2
:10183000A60B8881807F803E91F088819981AA8162
:10184000BB818F3F9F4FAF4FBF4F49F044E050E007
:10185000BE018BEE94E00E94D928892B31F467E712
:1018600071E08FEB95E00E94550B88E08093CB05EB
:101870001092CC0549E050E06AE071E08DEC95E013
:101880000E94B5241092CF0581E18093D605E092A5
:10189000E305F092E4050093E1051093E205109250
:1018A000E5051092E7051092E805DF91CF911F91B1
:1018B0000F91FF90EF9008958EE195E0B8CFEF92F1
:1018C000FF920F931F93CF938C01EFEBF5E086E12E
:1018D00091E0DF019C011D9221503040E1F78091A1
:1018E000E40467E771E0833011F46FEC74E043E4E3
:1018F00050E084E490E00E94030C67E771E08FEB16
:1019000095E00E94550B81E08093E9058093EA05FC
:1019100086E08093EB058091D4049091D504A0914A
:10192000D604B091D7048093ED059093EE05A09373
:10193000EF05B093F005C091E404C33031F46AEAD6
:1019400076E085EF95E00E94680B65EE74E085E037
:1019500096E00E94550B85ED96E090939D04809350
:101960009C04EAEEF0E084910E94A605EBEEF0E024
:1019700084910E94A605ECEEF0E084910E94A605F9
:10198000EDEEF0E084910E94A60585E30E94A60595
:1019900081E00E94A60583E0C11101C081E00E94A0
:1019A000A6058DE30E94A60587E00E94A60581E0BA
:1019B0000E94A60585EEE82E84E0F82EC7E0C1500F
:1019C00031F0D7018D917D010E94A605F8CF80915D
:1019D0000001882371F060E071E0FB0101900020BC
:1019E000E9F7BF016150714040E051E08CE00E9496
:1019F000B3050115110559F0A80164E082E30E94C6
:101A0000B3054FEC54E064E086E30E94B30587E33E
:101A10000E94A60583E00E94A60581E00E94A6051B
:101A200083E00E94A60586E00E94A6058FEF0E9433
:101A3000A60580919C0490919D04895E9540CF916C
:101A40001F910F91FF90EF900C94310585ED8093DD
:101A5000BC0080912D0490912E04A0912F04B09190
:101A600030040796A11DB11D23E0B695A795979563
:101A700087952A95D1F72091BC0024FD03C01092D0
:101A80007604089540912D0450912E0460912F0406
:101A900070913004452B462B472B69F30097A10525
:101AA000B10541F025E32A95F1F700000197A1095E
:101AB000B109E1CF80912C040C941306FF920F938F
:101AC0001F93CF93DF93EC01F62E08811981C80193
:101AD0000E94BE24F81621F06F2DC8010E94C62472
:101AE000CE01DF91CF911F910F91FF900895EF925A
:101AF000FF920F931F93CF93DF9300D0CDB7DEB744
:101B00008CEB91E00E94320B1A82198265E6CE01BD
:101B100001960E945E0D81E090E09A8389836AE4D9
:101B2000CE0101960E945E0D84E090E09A83898345
:101B300062E0CE0101960E945E0D29E5E22E21E0D1
:101B4000F22E0AE010E01A830983F70161917F0108
:101B5000CE0101960E945E0D0F5F1F4F08321105E6
:101B600091F798E2E92E96E0F92E04E610E01A8348
:101B70000983F70161917F01CE0101960E945E0DFC
:101B80000F5F1F4F013A110591F785E6E82E86E0B9
:101B9000F82E04EB10E01A830983F70161917F01AD
:101BA000CE0101960E945E0D0F5F1F4F013F110590
:101BB00091F70F900F90DF91CF911F910F91FF90B0
:101BC000EF900895EF92FF920F931F93CF93DF93BF
:101BD000E90188819981863F2EE7920709F434C193
:101BE00080F4843FFEE79F0709F462C0853F9E476B
:101BF00009F405C1DF91CF911F910F91FF90EF90F4
:101C00000895873FEEE79E0709F4C1C18C3B9F47CB
:101C100089F70132110570F361E2CE010E94BC0A1E
:101C2000882341F38A81809359018B8180935A01E3
:101C30008C81982F917090935B0181FB992790F98B
:101C400090935C0183FB992790F99093730184FB37
:101C5000992790F99093740185FB882780F98093E8
:101C600076018D81809371018F818093280688850C
:101C700080932906898580932A068A858093650644
:101C80008B85809366068C8580936706FE013D9662
:101C9000A1E6B1E0CE014D9621912D93E817F90709
:101CA000D9F78D8D809372018E8D8093750183C1DC
:101CB0000E30110508F49ECF6EE0CE010E94BC0AE2
:101CC000882309F497CF0A81902F92959F70809175
:101CD000590198138FCF0F7080915A01081708F09F
:101CE00089CFE02EF12C2DE3029F80011124085DA5
:101CF000194F2C816D8170E090E080E0CB01772757
:101D00006627722B2B81622B0E94EE252FE632E193
:101D100043E85AE30E94A526F801658B768B878BF2
:101D2000908F2F81688570E090E080E0CB0177276D
:101D30006627722B2E81622B0E94EE252FE632E160
:101D400043E85AE30E94A526F801618F728F838FC2
:101D5000948F898580FF04C0118A128A138A148A9D
:101D60009DE39E9DF0019F9DF00D1124E85DF94FCC
:101D700081FD42C0108A82FF0BC09DE39E9DF00151
:101D80009F9DF00D1124E85DF94F90899E5F908B27
:101D900083FF0BC09DE39E9DF0019F9DF00D1124DC
:101DA000E85DF94F90899C5F908B84FB992790F9AF
:101DB0009093270686FB882780F9809340018DE366
:101DC0008E9D80018F9D100D1124085D194F6A852D
:101DD0007B85072E000C880B990B0E94F025F801DB
:101DE000658F768F878F90A30E946A03F8016487BE
:101DF000758786879787FECE91E0908BBCCF0A309F
:101E0000110508F4F7CE6AE0CE010E94BC0A8823CF
:101E100009F4F0CE8A8182958F70909159018913CF
:101E2000E9CE8B81809361058C81809360058D81E3
:101E300080935F058E8180935D058F8180935E0521
:101E4000888580935C05D6CE0A30110508F4D2CE81
:101E50006AE0CE010E94BC0A882309F4CBCE0A8135
:101E6000902F92959F70809159019813C3CE0F7057
:101E700080915A01081708F0BDCEFDE30F9F800145
:101E80001124085D194F6B8170E090E080E00E94A2
:101E9000F02520E030E04FE753E40E94A52620E043
:101EA00030E048EC52E40E944625F80161A372A399
:101EB00083A394A36C8170E090E080E00E94F02501
:101EC00020E030E04FE753E40E94A52620E030E018
:101ED00048EC52E40E944625F80165A376A387A347
:101EE00090A76D8170E090E080E00E94F02520E0F6
:101EF00030E048EC52E40E944625F80161A772A741
:101F000083A794A76E8170E090E080E00E94F025A6
:101F100020E030E04FE753E40E94A52620E030E0C7
:101F200048EC52E40E944625F80161AB72AB83ABEA
:101F300094AB6F8170E090E080E00E94F02520E09B
:101F400030E04FE753E40E94A52620E030E048EC63
:101F500052E40E944625F80165A776A787A790ABB3
:101F600068856156770B072E000C880B990B0E9431
:101F7000F0259B01AC0163E373E383E99FE30E94D7
:101F80001227F80165AB76AB87AB90AF33CE063046
:101F9000110508F42FCE66E0CE010E94BC0A88230A
:101FA00009F428CE8A8180935D018B8180935E0144
:101FB0008C8180935F010E94770DF0E0E0E0DF917B
:101FC000CF911F910F91FF90EF9009941F920F9264
:101FD0000FB60F9211242F933F934F935F936F93FC
:101FE0007F938F939F93AF93BF93EF93FF938EEA6B
:101FF00096E00E949401FF91EF91BF91AF919F9164
:102000008F917F916F915F914F913F912F910F90A1
:102010000FBE0F901F9018951F920F920FB60F9240
:1020200011242F938F939F93EF93FF93E091BE061C
:10203000F091BF068081E091C406F091C50682FD53
:102040001BC090818091C7068F5F8F732091C80657
:10205000821741F0E091C706F0E0E255F94F958F05
:102060008093C706FF91EF919F918F912F910F90D1
:102070000FBE0F901F9018958081F4CF1F920F9282
:102080000FB60F9211242F933F938F939F93AF938B
:10209000BF938091A0049091A104A091A204B0915B
:1020A000A30430919F0423E0230F2D3758F50196A8
:1020B000A11DB11D20939F048093A0049093A104BF
:1020C000A093A204B093A3048091A4049091A504CA
:1020D000A091A604B091A7040196A11DB11D809303
:1020E000A4049093A504A093A604B093A704BF9161
:1020F000AF919F918F913F912F910F900FBE0F90B5
:102100001F90189526E8230F0296A11DB11DD2CF6E
:102110001F920F920FB60F9211242F933F934F935C
:102120005F936F937F938F939F93AF93BF93EF933F
:10213000FF93E0914701F09148010995FF91EF91DC
:10214000BF91AF919F918F917F916F915F914F91CF
:102150003F912F910F900FBE0F901F9018951F92D7
:102160000F920FB60F9211242F933F934F935F93CB
:102170006F937F938F939F93AF93BF93EF93FF934F
:10218000E0914501F09146010995FF91EF91BF91D2
:10219000AF919F918F917F916F915F914F913F91FF
:1021A0002F910F900FBE0F901F9018951F920F92B6
:1021B0000FB60F9211242F933F934F935F936F931A
:1021C0007F938F939F93AF93BF93EF93FF938091F0
:1021D000B900887F803609F44AC0F0F5883209F4E6
:1021E000A7C018F5803109F49BC0B8F4882309F41E
:1021F000F9C0883009F494C0FF91EF91BF91AF917D
:102200009F918F917F916F915F914F913F912F910E
:102210000F900FBE0F901F901895883109F488C059
:10222000803251F78093750414C0803409F49DC046
:1022300040F48033B9F38833F9F68093750485EC64
:10224000B0C0803509F485C0883509F496C088345B
:1022500099F60E94260DD0CF883909F48CC038F544
:10226000883729F050F4883611F0803729F683E05A
:10227000809376041092740457C0883809F47BC0A8
:10228000803919F0803809F0B7CF8091740480321A
:1022900008F071C0E091740481E08E0F80937404A3
:1022A0008091BB00F0E0EC5AFB4F80833DC0803B47
:1022B00039F0E0F4803A09F479C0883A09F09CCF0B
:1022C00084E0809376041092530410925204E091BB
:1022D000AA04F091AB0409958091520481110FC0BA
:1022E00081E0809352041092320409C0803C09F4CA
:1022F000A6CF883C09F4A3CF883B09F07DCFE091BD
:10230000530481E08E0F80935304F0E0EE5CFB4FAA
:1023100080818093BB00909153048091520429C026
:1023200080919B048093BB0085EC8093BC0064CFBC
:1023300090919A0480919904981758F5E0919A0425
:1023400081E08E0F80939A04F0E0E758FB4F808184
:10235000E9CFE0919A0481E08E0F80939A048091F6
:10236000BB00F0E0E758FB4F808390919A04809186
:1023700099049817C8F285E8D8CFE0919A0481E0D3
:102380008E0F80939A048091BB00F0E0E758FB4FDA
:1023900080838091780481115CCF81E08093770401
:1023A00084EA8093BC001092760426CF85EC80935B
:1023B000BC001092760480917404803230F4E09175
:1023C0007404F0E0EC5AFB4F10826091740470E0EA
:1023D000E091A804F091A90484E594E00995109295
:1023E00074040ACF1092750434CFEEEAF6E013823B
:1023F000128288EE93E0A0E0B0E084839583A68308
:10240000B78329E931E03183208325EC30E035873B
:10241000248724EC30E03787268720EC30E0318BAE
:10242000208B21EC30E0338B228B22EC30E0358B9B
:10243000248B26EC30E0378B268B118E128E138E78
:10244000148EEBE4F7E01382128284839583A683D3
:10245000B7838BEA91E091838083E5E5F1E0A9E51C
:10246000B1E014968C911497808315968C911597F2
:10247000818316968C9182830895CF93DF93CDB795
:10248000DEB7A4970FB6F894DEBF0FBECDBF789429
:1024900084B5826084BD84B5816084BD85B5826069
:1024A00085BD85B5816085BD80916E00816080931A
:1024B0006E00109281008091810082608093810083
:1024C0008091810081608093810080918000816093
:1024D000809380008091B10084608093B1008091EE
:1024E000B00081608093B00080917A008460809316
:1024F0007A0080917A00826080937A0080917A00DD
:10250000816080937A0080917A00806880937A005D
:102510001092C10010922B0610926806E091BE0640
:10252000F091BF0682E08083E091BA06F091BB068D
:102530001082E091BC06F091BD0683E38083109287
:10254000C606E091C206F091C30686E08083E09162
:10255000C006F091C106808180618083E091C00651
:10256000F091C106808188608083E091C006F0917F
:10257000C106808180688083E091C006F091C10629
:1025800080818F7D808368EB7BE080E090E00E941B
:1025900038038BEB91E00E94320B8BEB91E00E94B1
:1025A000320B8BEB91E00E94320B86ED91E00E94A2
:1025B000320B8BEB91E00E94320B90E080E00E94A6
:1025C000BE24898381E090E00E94BE248A8384E057
:1025D00090E00E94BE2429813A8125363A4409F0D0
:1025E00080C1823009F07DC18CEE91E00E94320BF7
:1025F000B9E5EB2EB1E0FB2E0AE010E0C8010E9425
:10260000BE24D7018D937D010F5F1F4F0832110546
:10261000A9F708E216E06801A4E6EA2EF12CC7014A
:102620000E94BE24D6018D936D01BFEFEB1AFB0A09
:10263000E1EAEE16F10499F7E5E6CE2EE6E0DE2EAD
:10264000F4EBEF2EF12CC7010E94BE24D6018D932E
:102650006D01BFEFEB1AFB0AE1EFEE16F10499F7FB
:10266000809172018651893E08F435C120915A014A
:1026700030E090E080E08217930714F00C944F2430
:10268000F8014081463108F0CBC14181463108F064
:10269000C7C1035C1F4F32964081463108F0C0C16C
:1026A0000196E9CF81E080932306809172018F3FEC
:1026B00019F062E00E947A0280915A01833018F08A
:1026C00082E080935A018BEB91E00E94320B8AE307
:1026D00092E00E94400B809159010E94420B86E4D7
:1026E00092E00E94400B4AE065E67AE480E090E0E8
:1026F0000E94EE0A89EB91E00E94E10A8BEB91E0E7
:102700000E94320B1092AD041092AC041092A306FA
:102710001092A2060E94F50581E491E09093AB042B
:102720008093AA0482E491E09093A9048093A80482
:102730008CE08093B80087E592E00E94320B809194
:1027400059018E5C8093600130915D013983209145
:102750005E012A8390915F019B838C834091C20428
:10276000411105C08093310181E08093C2048091C2
:10277000BA04811109C03093280120932901909354
:102780002A0181E08093BA043093550120935601C9
:10279000909357011FB7F8948091AE04811127C020
:1027A000E7E2F1E08491EBE3F1E09491E82FF0E0CF
:1027B000EE0FFF1FE050FF4FA591B491EC91E9237C
:1027C00021F461E08AE00E944C0261E08AE00E940C
:1027D0007A028CB580618CBD8CB580648CBD61E063
:1027E0008DE00E947A0261E08BE00E947A02809183
:1027F000AE048F5F8093AE041FBF1092B00410929E
:10280000AF048091AF0481113CC064EF71E080E0BF
:1028100090E00E9438038BE693E00E94400BF8940E
:1028200060E08AE00E944C028FEF0E941F048FEF4D
:102830000E941F0461E08AE00E944C02789462E0EA
:1028400070E080E090E00E943803F89460E08AE055
:102850000E944C028DE10E941F0480E00E941F0430
:102860001EB561E08AE00E944C02789411701093CA
:10287000AF048091B0048F5F8093B004863008F479
:10288000C0CF8091AF048093B904882309F452C269
:102890001092380587E390E0C12CD12C7601C394C7
:1028A000009709F4C3C0FC0133E0F595E7953A952C
:1028B000E1F7EE54FB4F282F2770B701A60104C0A3
:1028C000440F551F661F771F2A95D2F72081242BAE
:1028D00020830197E5CF1092230685E092E00E94C5
:1028E000320B80E292E00E94320B8EE08093720104
:1028F0008FE08093750183E08093280684E08093C5
:10290000290685E080932A0682E08093650686E0AA
:102910008093660689E080936706812C912C68E499
:10292000A62E62E4B62E8092490690924A06A092A4
:102930004B06B0924C06C12CD12C70EAE72E71E404
:10294000F72EC0924D06D0924E06E0924F06F092BE
:10295000500600E010E020E83EE30093510610939B
:102960005206209353063093540640E050E06FE740
:1029700073E4409355065093560660935706709340
:10298000580680E090E0A0E2B1E48093590690936D
:102990005A06A0935B06B0935C06809286069092DE
:1029A0008706A0928806B0928906C0928A06D092C5
:1029B0008B06E0928C06F0928D0600938E061093A3
:1029C0008F06209390063093910640939206509381
:1029D0009306609394067093950680939606909361
:1029E0009706A0939806B0939906E1E6F1E081E797
:1029F00091E02FEF21938E179F07E1F782E08093FC
:102A00005A0184E08093710181E0809374011092F7
:102A1000760180935C0180935B010E94770D45CE27
:102A200080E080932306811140CE57CF6CE271E0A5
:102A300085EE94E00E94550B84E690E09093CB04E1
:102A40008093CA040CB406FC25C061E08AE00E94B1
:102A50007A0261E08AE00E944C0261E08BE00E9411
:102A60007A0261E08DE00E947A0260E08CE00E94D0
:102A70007A0261E08BE00E944C0260E08BE00E94F1
:102A80004C0260E08DE00E944C0280E58CBD8DB56B
:102A900081608DBD8AE08093B10461E00E947A027A
:102AA0000E9424044FEF60E08FEF0E94580462E020
:102AB00070E080E090E00E9438030E942B048DE1DA
:102AC0000E941F0480E00E941F041EB50E9424047F
:102AD000112399F370E060E088E00E94960470E0B2
:102AE00060E08CE00E9496046FEF7BE08AE00E9439
:102AF000960460E07CE084E00E9496046FEF71E150
:102B000086E00E94960466E774E084E10E94530523
:102B100061EB88E30E9489046FE370E388E20E941E
:102B2000960469EF77EF80E30E94960461E080EC01
:102B30000E94890442E362EC80E80E94580462E14A
:102B40007CE086EC0E94960462E184EC0E94890499
:102B50006CED75E08AEC0E9496046091E50484EEC9
:102B60000E9489046091E60485EE0E9489046091C8
:102B7000E70482EE0E9489046091E80483EE0E94DB
:102B800089046091E90480EE0E9489046091EA045E
:102B900081EE0E94890460E071E080E10E945305AB
:102BA0008FE10E946D0440EC6BE180E80E945804C4
:102BB00044E06FE180E80E94580482E70E94A30489
:102BC0008BEB91E00E94320B8DE692E00E94320B7B
:102BD00010923805BE016F5F7F4F8AEA96E00E942F
:102BE000680B109236051092350581E08093370509
:102BF00068E271E081E395E00E94680B64E271E0B5
:102C00008CE295E00E94680B60E271E086EA96E053
:102C10000E94680B0AEA16E026EA36E04BEE54E022
:102C2000F8019191D9018D919D018095892BDA014F
:102C30008D93AD01B6E0EE3AFB0799F78091170549
:102C4000883098F425E0829FF0011124E151FB4F78
:102C500022EE3DE03183208328ED30E73383228369
:102C600091E094838F5F8093170564EF71E080E0BB
:102C700090E00E9438030E94D50A882309F453C0CB
:102C80008BEB91E00E94320B88E892E00E94400BAF
:102C9000F12CD8016D918D0170E090E080E04AE068
:102CA0000E94EE0AB3E0FB1629F06EE28EEA96E08F
:102CB0000E94B601F394E4E0FE12EBCF89EB91E0C1
:102CC0000E94E10A89E992E00E94320B10E000E0E4
:102CD0002DE3D22E80915A018017110609F00CF4D1
:102CE00052C0D09EC001D19E900D11249C01285D40
:102CF000394F790162E0D9018C910E947A0261E03A
:102D0000F70181810E947A0261E0D70112968C91CD
:102D10000E947A0201151105C1F00130110529F157
:102D20000F5F1F4FD7CF8FEA92E00E94320B8DECDE
:102D300092E0CACF8BEB91E00E94320B82EE92E0E0
:102D40000E94320B8BEB91E0F0CF8091280682300D
:102D500041F0833041F481E065EC78E00E94F800B6
:102D6000DFCF80E0F9CF8FEFF7CF8091650682301B
:102D700031F0833031F481E068EC78E0EFCF80E02F
:102D8000FBCF8FEFF9CF80917101843008F0BEC185
:102D9000823008F05BC201E611E091E7E92E91E094
:102DA000F92E813009F446C28BEB91E00E94320B80
:102DB00081E993E00E94400B809128060E94420B1B
:102DC0008CE993E00E94400B809129060E94420BFF
:102DD00086EA93E00E94400B60912A0670E090E042
:102DE00080E04AE00E94EE0A8BEB91E00E94320BF9
:102DF00080EB93E00E94400B809172010E94420B95
:102E00008BEB93E00E94400B6091750170E090E0C5
:102E100080E04AE00E94EE0A8BEB91E00E94320BC8
:102E20008BEB91E00E94320B8AEC93E00E94320B14
:102E30008BEB91E00E94320B9E01215F3F4F3E8B56
:102E40002D8B0E94D50A882309F427C18091CE04D6
:102E5000882379F06091CC047091CD0461157105DF
:102E600009F064C26FEF7BE08CE00E949604109240
:102E7000CE0489E30E94A304F12CE12C8823D9F12C
:102E80006091CC047091CD0480E00E949604BE0154
:102E90006F5F7F4F86E090E00E94310489819A81C4
:102EA0009093CD048093CC048D819E817C0130E889
:102EB000E322FF2487FF13C08B819C810497E0905D
:102EC000CA04F090CB0441E0E41AF1088E159F0586
:102ED00008F47C016FEB75E0C7010E943104F70133
:102EE000E154FA4F108281E08093CE0440E46EE119
:102EF00080E80E94580480913805882369F0809109
:102F0000E404823009F41BC208F013C2882309F4D8
:102F10009EC2813009F4BAC2E114F10409F045C33C
:102F200080913705857099F080913505909136052F
:102F3000892B69F40E94BB0482FF09C081E395E0FC
:102F40000E94CF0B80913705886080933705809170
:102F50003505909136050196909336058093350599
:102F600080913005813009F06EC08091370581FF76
:102F70006AC082E080933005809133018F5F809337
:102F80003301182F1F7186E295E00E94D80066E297
:102F900075E0882309F406C388E195E00E94A60B3A
:102FA00008E00093CB051092CC0549E050E06AE0C0
:102FB00071E08DEC95E00E94B5248CE28093D00501
:102FC00086E08093D6050E9410041092E3051092CB
:102FD000E4058BE08093E1051093E205E5EEF5E072
:102FE000DF011D920A95E9F7809132018093E70590
:102FF0008D5F8093320180E68093ED0582E08093BF
:10300000EE0593E09093EF051092F0051092F10514
:103010001092F2051092F3051092F4058093F505D5
:1030200094E09093F6058093F70586E28093F80587
:1030300022E040E250E06AE182E30E94BD038AE3BD
:1030400090E00E94D1048CE295E00E94D800882391
:1030500079F080912B0581110BC080912A05811197
:1030600007C08CE295E00E94CF0B81E080932A0597
:1030700086E295E00E94D800882379F080912505AA
:1030800081110BC080912405811107C086E295E073
:103090000E94CF0B81E0809324058091400108E2DB
:1030A00016E0312C212C882309F412C478E2272E53
:1030B00076E0372E41E455E05C8F4B8F1E8E1D8EDF
:1030C00080915A012D8D3E8D8217130609F00CF464
:1030D0009CC6D10150968C915097823008F48EC5D1
:1030E000853008F45AC4853009F088C560E08D8DBC
:1030F0000E94CB08BC01990F880B990B0E94F02508
:10310000F101608771878287938756C5843009F003
:103110004BCE8BEB91E00E94320B87E593E00E944F
:10312000320B81E28093490516E001E0B1E2FB2E0B
:1031300080914A0581111DC08BE693E00E94400BEF
:103140000093A506F092A4061092A3061092A20680
:103150008BE497E00E94BF0691E0811190E090938C
:103160004A0564EF71E080E090E00E94380311505E
:10317000F9F680914A05811128C080E280934905C3
:1031800016E001E080914A0581111FC08BE693E0B3
:103190000E94400B809149050093A5068093A406E8
:1031A0001092A3061092A2068BE497E00E94BF063D
:1031B00091E0811190E090934A0564EF71E080E026
:1031C00090E00E9438031150E9F68BEB91E00E94E9
:1031D000320B80914A05882309F4A5C080914905E6
:1031E00011E01093A5068093A4061092A3061092F6
:1031F000A20690E080E00E94BA0690E080E00E9483
:10320000BA068BE497E00E94BF061093A5061092C1
:10321000A3061092A20681E090E00E94BA0690E018
:1032200080E00E94BA068BE497E00E94BF068DE61C
:1032300093E071C0F80181918F018F3F19F061E037
:103240000E947A02E016F106A9F7AECD8BEB91E071
:103250000E94320B81E093E00E94320B16E001E005
:1032600080E2F82E80915B0581111DC08BE693E012
:103270000E94400B0093A506F092A4061092A306AC
:103280001092A2068BE497E00E94BF0691E08111A4
:1032900090E090935B0564EF71E080E090E00E9425
:1032A00038031150F9F68BEB91E00E94320B8091BC
:1032B0005B05882399F183E293E00E94320B8BE453
:1032C00097E090934A018093490180E280934B01FB
:1032D000109251011092500140E551E064E00E94CB
:1032E000A607109253011092520142E551E066E0A8
:1032F00080914B010E94A6078FEF9FEF90934F01A3
:1033000080934E014EE451E062E080914B010E94B7
:10331000A6078BEB91E00E94320B46CD8BE393E046
:103320000E94320BF6CF8DE793E0F5CF6150710923
:103330009BCD833009F456C0843009F0EDCD65E0B3
:10334000C7010E946605882309F4C9C08091D3048F
:10335000811108C088E30E94A304682F6E7F88E370
:103360000E94890469EF75E08AEA96E00E94680B82
:10337000E9EDF6E0970121543A4F69018F010E5FA4
:103380001F4FB1808081863009F4FBC008F0BEC0B9
:10339000813009F4ECC0833009F4EFC0F801EB0D83
:1033A000F11DEC15FD0550F30E946A036093DC04E7
:1033B0007093DD048093DE049093DF0480913105E7
:1033C000882361F0109236051092350581E08093D4
:1033D000370561E375E0CB010E94680B83E08093C1
:1033E000E4049ACD8090E0049090E104A090E2047F
:1033F000B090E3045FEF85169506A506B50609F4BF
:103400008BCD0E946A030091DC041091DD042091B1
:10341000DE043091DF04601B710B820B930B681587
:1034200079058A059B0508F477CD8AEA96E00E9423
:103430005F0C84E08093E4040E946A036093D804E4
:103440007093D9048093DA049093DB0465CD0E94D5
:103450006A036093D4047093D5048093D604909348
:10346000D704EAEAF6E084E0DF011D928A95E9F7E5
:1034700090E080E00E945F0C88E30E94A304682F24
:10348000616088E30E94890481E0D4CF62E0C701D3
:103490000E946605882319F169EF75E0CE01019657
:1034A0000E94680BE9EDF6E0C70181549A4FBF0115
:1034B0006E5F7F4F21813081363351F48FEC94E081
:1034C0000E94680BCE0101960E945F0C82E0B2CF91
:1034D000FB01E20FF11DE817F90748F3F3CF0E9453
:1034E0006A030091D8041091D9042091DA04309134
:1034F000DB04601B710B820B930B613177428105FA
:10350000910508F409CD1092E40406CD8A3331F018
:103510008F3F09F449CF833309F040CF1092E00484
:103520001092E1041092E2041092E304F801C80141
:10353000049620E030E0A9016191542F432F322FEF
:103540002227260F311D411D511D8E179F07A1F700
:103550002F3F8FEF380748075807B9F42093E0044E
:103560003093E1044093E2045093E30417CFB80191
:1035700086EA96E00E94680B11CFB80181E395E0DE
:10358000F9CFB8018CE295E0F5CFA8EEB3E00E9448
:10359000B9286093E0047093E1048093E20490936F
:1035A000E304FCCE8EE195E0F9CCB9E2EB16F10430
:1035B00008F473CD8091CB05883009F06ECD8091F1
:1035C000CC05863011F00C94652444E050E06AEAA2
:1035D00076E085EE95E00E94D928892B09F05DCD33
:1035E0008091D405813029F585EC95E00E945D0B32
:1035F0001092D30582E08093D40565ED75E08FEDE0
:1036000095E00E94550B65EE74E085ED95E00E9413
:10361000550B6BED75E085EE95E00E94680B6AEA4C
:1036200076E08BED95E00E94680B8AE290E00E94C4
:10363000D1048091370583FF0DC01091D40512305D
:1036400049F46EE175E081E395E00E94B80B8111C9
:103650001093370580912B05811111C080912A05A7
:10366000882369F068E175E08CE295E00E94B80B70
:10367000882329F081E080932B0510922A05809100
:10368000250581110ACD80912405882309F405CDF3
:1036900068E175E086E295E00E94B80B882309F4A2
:1036A000FCCC81E08093250510922405F6CC909106
:1036B0001705911122C0E6E3EE16F10408F4EDCCF3
:1036C0000091D605063009F0E8CC8091E3058B30F7
:1036D00009F0ACC044E050E066E275E089ED95E0A9
:1036E0000E94D928892B09F0D8CC1091EE0512FF41
:1036F00051C085E080933005D0CC8131E1F6FFEEFA
:10370000CF2EF4E0DF2EB12CA12C20E08091170504
:103710008A151B04D9F1D4F1D60112963C91129767
:1037200013969C9113978091E3059BA31CA2EBA198
:10373000FCA18E171F0619F58091E40583131FC0A5
:1037400014969C9014979920D1F00091E50510E013
:10375000102F00272091E6052850330B020F131F6E
:103760004091E1055091E205542745275427ED91FA
:10377000FC9129EE35E069ED75E00995292DFFEF03
:10378000AF1ABF0A35E0C30ED11CC0CF222309F403
:1037900092CF83CC0E94770320913005223091F59F
:1037A000212F20711271123109F560E090E080E064
:1037B0000E94820B88E18093EE0583E080933005C0
:1037C0001092CF0588E28093D0050E9410041092D9
:1037D000F1051092F20522E04CE150E06AE182E34B
:1037E0000E94BD0386E390E00C94B12431E0309355
:1037F00030050196222311F090E080E064E00E9401
:10380000820B4BCC253009F448CC10FF0AC0233082
:1038100009F443CC69E001960E94820B00933005C5
:103820003CCC60E0009709F438CCE9CF811135CC6D
:103830008091E405803509F030CC1091EE0511FF40
:103840003AC01092CF058CE28093D0050E94700B95
:1038500082E18093EE0560E081E090E00E949203B7
:103860001092E5051092E605809132018093E705FC
:103870001092E8058D5F8093320182E08093F50518
:1038800084E08093F60585E08093F7051092F805B3
:1038900090E69093ED058093EF0588E78093F0051F
:1038A00022E040E250E06AE182E30E94BD038AE345
:1038B00090E00C94B12414FFF0CB0E947703892B85
:1038C00009F0EBCB10FFE9CB60E090E080E097CF10
:1038D00080915A018215130409F00CF496C2D801A4
:1038E00050968C9150978530A9F461E0822D0E940A
:1038F000CB08BC01990F880B990B0E94F025F801A9
:103900006087718782879387FFEF2F1A3F0A035CD6
:103910001F4FDECF5D96CD90DD90ED90FC9090979F
:10392000F801C086D186E286F38620E030E0A90166
:10393000C701B6010E944125412C512C60E8662E3A
:103940006FE3762E87FF06C0412C512C50E8652E80
:103950005FEB752E20E030E0A901C701B6010E949F
:10396000A026181624F0F7FAF094F7F8F094D8018E
:103970009D968D909D90AD90BC90D097A70196019B
:10398000C501B4010E94412587FFBECFA30192016A
:10399000C501B4010E94A526B2CF13968C9113974E
:1039A000882309F426C120E030E0A90155966D91E5
:1039B0007D918D919C9158970E94A02618160CF02D
:1039C00018C1EB8DFC8D10810181F281FF8BAB8DD5
:1039D000BC8D1396BC91B98F0E946A032D8D3E8DCC
:1039E000220F331F220F331FF901E75CFA4F7F01CB
:1039F00080809180A280B380681979098A099B0927
:103A00000E94EE2520E030E048E452E40E94A02627
:103A100087FDB5C00E946A03D7016D937D938D9396
:103A20009C931397F101458856886788708C248190
:103A3000358146815781C301B2010E94D4244B01D4
:103A40005C0120E030E0A9010E94A026750164011C
:103A5000181624F0F7FAF094F7F8F0942FE832EC07
:103A600045E75CE3C301B2010E94A526A7019601C8
:103A70000E94412587FF83C073016201F7FAF09429
:103A8000F7F8F094A7019601C501B4010E94412501
:103A900087FD0CC0A5019401C301B2010E9441251C
:103AA0007501640187FF02C07301620120E030E00C
:103AB000A901C701B6010E94A02618160CF48CC0FB
:103AC000A701960150582F8F38A349A35AA3D101BB
:103AD000D5968D909D90AD90BC90D89799962D914C
:103AE0003D914D915C919C97C301B2010E94A52626
:103AF0002F8D38A149A15AA10E94412587FF71C08D
:103B0000F10121A132A143A154A1C701B6010E9434
:103B1000A526A50194010E94A526212F302F4F89AB
:103B2000598D0E94D5246B017C01F10111A902A9D4
:103B3000F3A9FF8BD101D496BC91B98F9B01AC0145
:103B4000612F702F8F2F9B2F0E94A0261816BCF07C
:103B5000F10115A506A5F7A5FF8BD101D096BC9163
:103B6000B98F212F302F4F2F5B2FB601C7010E9435
:103B7000A026181624F01C2D0D2DEF8AF98E812F0A
:103B8000902FAF89B98DEB8DFC8D80839183A283BB
:103B9000B383612F702F8F89998D0E94B825072ECE
:103BA000000C880B990B0E94F025D10118966D939B
:103BB0007D938D939C931B972D8D3E8D2F5F3F4F53
:103BC0003E8F2D8F3DE3230E311C4B8D5C8D4C5F62
:103BD0005F4F5C8F4B8F74CACF8ED8A2E9A2FAA236
:103BE00076CFD10195962D913D914D915C9198970D
:103BF0008CCF10E000E01F8A198ECBCFF1018381BA
:103C0000811113C0C12CD12C7601AB8DBC8DCD920E
:103C1000DD92ED92FC921397C701B6010E94B82580
:103C2000072E000C880B990B69CA20E030E0A9012F
:103C3000658976898789908D0E94A026181614F7C9
:103C4000EB8DFC8DC080D180E280F3800E946A03FE
:103C50000D8D1E8D000F111F000F111F075C1A4FD5
:103C6000D8018D909D90AD90BC90681979098A0912
:103C70009B090E94EE2520E030E048E452E40E94D7
:103C8000A02687FDC2CF0E946A03F801608371837A
:103C900082839383D10155968D909D90AD90BC9079
:103CA000589714962D913D914D915C911797C501B0
:103CB000B4010E94D4242B013C0120E030E0A90192
:103CC0000E94A02673016201181624F0F7FAF094FE
:103CD000F7F8F0942FE832EC45E75CE3C501B40156
:103CE0000E94A526A70196010E94412587FF8ACF41
:103CF00075016401F7FAF094F7F8F094A7019601C2
:103D0000C301B2010E94412587FD0CC0A3019201AD
:103D1000C501B4010E9441257301620187FF02C001
:103D20007501640120E030E0A901C701B6010E94DD
:103D3000A02626013701181624F077FA709477F838
:103D40007094F10121A532A543A554A5C501B40184
:103D50000E94A526A30192010E944125D10187FF5F
:103D60004DC091962D913D914D915C919497C701D5
:103D7000B6010E94A526F10125A936A947A950AD93
:103D80000E94A5264B015C0120E030E0A9010E94C1
:103D9000A02624013501181624F077FA709477F8DC
:103DA0007094D101D196CD90DD90ED90FC90D49798
:103DB000A3019201C701B6010E94A02618167CF04B
:103DC000F101C5A4D6A4E7A4F0A8A7019601C301F8
:103DD000B2010E94A026181614F07301620120E0BF
:103DE00030E0A901C501B4010E94A02618160CF408
:103DF0000CCFF7FAF094F7F8F09407CF95962D9141
:103E00003D914D915C919897B2CF0E946A030091C9
:103E10004101109142012091430130914401601B06
:103E2000710B820B930B623371058105910508F4C8
:103E3000FFC30E946A036093410170934201809323
:103E400043019093440198E2692E96E0792E830114
:103E5000F12CE12C80915A018E151F0409F00CF40D
:103E600044C00E946A03D8011C968D909D90AD902D
:103E7000BC901F97681979098A099B09603A7F40AD
:103E80008105910580F5F80185889688A788B08C12
:103E900020E030E0A901C501B4010E94A026181657
:103EA00024F480912706811114C0D80150968C917A
:103EB000843049F420E030E0A901C501B4010E943A
:103EC000A026181674F08091400181110CC08091D9
:103ED0002706F8018383FFEFEF1AFF0A035C1F4FE9
:103EE000B9CF81E0F6CF80E0F4CF0E946A03009161
:103EF0003406109135062091360630913706601B46
:103F0000710B820B930B603A7F408105910508F09D
:103F100046C100916105E090600580917101823099
:103F200009F413C208F05AC1813009F4C9C122EB67
:103F300035E0388F2F8B08E216E0F12CE12C670179
:103F4000CC0CDD1CA60146545A4F5A01DA018D9162
:103F50009C91892B09F4B3C020E030E0A901F8015D
:103F6000618D728D838D948D0E94A02618160CF0A1
:103F7000A6C00E946A03AF89B88D6D937D938D931F
:103F80009C931397F894F50120813181F801818980
:103F90009289A389B489820F931FA11DB11D818BC2
:103FA000928BA38BB48BD50111961C921E92F601B5
:103FB000E255FA4F60817181F701EE0FFF1FEE0F9E
:103FC000FF1FFA8FE98FEA55FA4F20803180428037
:103FD0005380789490E080E00E94EE2520E034E267
:103FE00044E759E40E94A5264B015C01C201B101DE
:103FF0000E94EE259B01AC01C501B4010E9446253B
:104000002DEC3CEC4CE45FE30E94A5264B015C01E7
:104010002DEC3CEC4CE45EE3D801D9966D917D919A
:104020008D919C91DC970E94A5269B01AC01C50156
:10403000B4010E94D5244B015C01F80181AE92AE1F
:10404000A3AEB4AE20E030E040E752E40E94A526E3
:10405000D80159962D913D914D915C915C970E94AC
:104060004625F8016483758386839783A5019401AF
:1040700060E07BE187EB99E40E9446254B015C01FF
:1040800020E030E44CE955E40E94412587FDE8C179
:1040900020E03BE147EB59E4C501B4010E94A026B2
:1040A00018160CF4E2C1C501B4010E94BF25E98DC8
:1040B000FA8DEC5CFE4F60837183828393830E9450
:1040C0006A03AF89B88D8D909D90AD90BD90B88FEB
:1040D000AF8B681979098A099B09613A7F4081058C
:1040E0009105C0F1F801148215821682178211AE73
:1040F00012AE13AE14AEC701880F991F880F991F17
:10410000FC01EC5CFE4F20E231EA47E050E0208306
:10411000318342835383F601E255FA4F11821082B4
:10412000F601EE55FA4F118210828A559A4FDC0142
:104130001D921D921D921C921397F70145E0EE0F00
:10414000FF1F4A95E1F7EE59FA4FDF0120E21D9279
:104150002A95E9F7035C1F4FEA94EF2809F07CC128
:1041600010E000E0EE24E39480915A0180171106DC
:1041700009F00CF4FDC1D30150968C91823009F402
:10418000DDC108F077C1882309F4A4C1813009F4A6
:1041900077C10F5F1F4FFDE36F0E711CE5CF0E94CB
:1041A0006A03009171061091720620917306309196
:1041B0007406601B710B820B930B603A7F40810584
:1041C000910508F4A6CE00915F0580915E05082B4D
:1041D000E0905D0580915C05E82A9FCE833009F46C
:1041E000E8C0843009F0A3CE80914A05882309F401
:1041F0009ECEF12CD12C90E080E021E030E010E068
:104200006E2D70E0A901082E02C0440F551F0A94BC
:10421000E2F7F801E423F5234E175F0789F4FC0168
:10422000E75AFE4FA085EA2FF0E0A83008F406C157
:104230003897D90102C0AA0FBB1FEA95E2F7FA2A04
:10424000FB01E423F5234E175F0791F4FC01E75AC5
:10425000FE4FE0894E2F50E0E83008F4F6C0485099
:104260005109F90102C0EE0FFF1F4A95E2F7FE2A3D
:1042700001968830910531F680915B01882311F019
:10428000D094F0948091490591E09093A506809395
:10429000A4061092A3061092A20682E190E00E946A
:1042A000BA066D2D8BE497E00E948B066F2D8BE490
:1042B00097E00E948B068BE497E00E94BF0637CE02
:1042C00081E6A82E81E0B82ED12CC12C10E0FF246D
:1042D000F394D5018D915D018F3FD9F4BFEFCB1AD7
:1042E000DB0AE8E0CE16D104A1F719E6C12E11E0F1
:1042F000D12E10E000E0F12CBB24B394D6018D91B7
:104300006D018F3FA1F40F5F1F4F08301105B1F70A
:104310000ECE60915B0198010C2C02C0359527955B
:104320000A94E2F720FF6F250E944C02D7CF6091DC
:104330005B019701002E02C0359527950A94E2F79C
:1043400020FF6B250E944C02DECF80915B05882305
:1043500009F4EDCDABE4AA2EA5E0BA2EBDE8CB2E34
:10436000B1E0DB2EF12CE12C10E098010E2C02C004
:10437000359527950A94E2F7B22FB1709B2EF5017F
:1043800081915F01B81751F0D6018C9160E020FF58
:1043900061E00E94E507F50131979082BFEFEB1ACB
:1043A000FB0AEFEFCE1ADE0AF8E0EF16F104E9F6A9
:1043B000BECD80915B05882309F4B9CDEBE48E2E48
:1043C000E5E09E2EFDE7AF2EF1E0BF2ED12CC12CF3
:1043D000F12C10E028E0C216D1042CF5C8010C2CF9
:1043E00002C0959587950A94E2F7382F3170532EC5
:1043F000D4018D914D01851559F0F501808160E062
:10440000511001C061E00E94E507F401319750822C
:10441000FFEFCF1ADF0A2FEFA21AB20A30E1C3165C
:10442000D104C1F684CDC6010897A70102C05595F5
:1044300047958A95E2F74170542EDACFF90101C011
:10444000EE0FAA95EAF7DE2AFBCEA90101C0440FC0
:10445000EA95EAF7D42A0CCFEE24E394F12C6FCD41
:1044600068E873E180E090E022CE60E673EE86E1DA
:1044700090E01DCE843009F461C0853009F089CE0A
:10448000F0905C01D3011196DC90119713968C91FA
:104490001397882309F44AC020E030E0A901189658
:1044A0006D917D918D919C911B970E94A0266F2DFF
:1044B00087FD50C08D2D0E944C02F30160857185EF
:1044C000828593850E94B825D30112968C910E9413
:1044D000B6025FCEF0905C01F301D18020E030E0C5
:1044E000A90160857185828593850E94A0266F2D24
:1044F00087FD0FC08D2D0E944C02D30118966D913F
:104500007D918D919C911B970E94B825F30182812A
:10451000DECF6E258D2D0E944C02D30118966D9131
:104520007D918D919C911B979058EECF6F2D6E25AC
:104530008D2D0E944C026FEF70E0E8CFD3011396EF
:104540008C911397882389F0F0905C011196DC9090
:104550001197A2CF6E258D2D0E944C02F30160852C
:104560007185828593859058ADCF70E060E0CECFA5
:10457000209172012F3F09F42BC130E0F901EB5B70
:10458000FE4F8491F901EF5CFE4F1491F901E35E57
:10459000FE4F0491002309F415C181110E942302EA
:1045A000E02FF0E0EE0FFF1FED5EFE4FA591B491FE
:1045B000EC911E2331E020E009F430E0832F922FAC
:1045C000282F217030917301332309F4FEC03091FC
:1045D000BE05231751F0892B31F08091240691E01C
:1045E0008927809324062093BE05109226061092F8
:1045F0002506809175018F3FD9F08E3008F08E50DE
:104600008770806480937C0080917A0080648093BE
:104610007A0080917A0086FDFCCF9091780080919D
:104620007900892798278927909326068093250665
:104630000E946A0300913C0110913D0120913E01CE
:1046400030913F01601B710B820B930B693C71052C
:104650008105910508F413C10E946A0360933C012F
:1046600070933D0180933E0190933F0108E216E074
:10467000F12CE12C80E9D82E9EE7C92E80915901BA
:1046800090915A019E151F0409F00CF4A8C0D9821C
:10469000CA8220E1829FC00111248E298B8320E0F1
:1046A00030E04AE754E4D80114966D917D918D91E4
:1046B0009C9117970E94A5260E94BF256C837D833D
:1046C0008E83F801818C928CA38CB48C20E030E036
:1046D000A901C501B4010E94A02618160CF07BC0E8
:1046E000D80151966D917D918D919C9154970E9426
:1046F000EE2520E030E040E251E40E94A526A5012D
:1047000094010E9446250E94BF256F837887898780
:10471000F80160857185828593850E94B8256A8736
:104720007B871C860E946A03D8011C968D909D9001
:10473000AD90BC901F97681979098A099B09603A66
:104740007F408105910518F48C8581608C8720E07D
:1047500030E040E251E4F80161AD72AD83AD94AD5B
:104760000E94A5260E94BF256D877E87FE01319697
:1047700090E080E02191820F911D2D893E892E17B6
:104780003F07C1F78F870E94D50A8823A9F04FE21F
:1047900055E765E571E083E094E10E94030C8FE04A
:1047A000FE013196A9EEB5E001900D928A95E1F7F0
:1047B0008FE090E00E9431053FEFE31AF30A035CBB
:1047C0001F4F5CCF90E080E0FBCE209324060DCFFE
:1047D000109224060ACF1F821886198699CF91E974
:1047E00099839EE79A838B83909125068091260674
:1047F0009C838D831E821F82188619861A861B86CB
:1048000085E68C878AE48D871E868091240688231E
:1048100011F081E08E870E94D50A882319F08E85D9
:1048200080618E8780912306882319F08E858062AF
:104830008E87FE01319690E080E02191820F911DDC
:104840004D895E894E175F07C1F78F870E94D50A91
:104850008823A9F04FE255E765E571E083E094E134
:104860000E94030C8FE0FE013196A9EEB5E00190A5
:104870000D928A95E1F78FE090E00E94310580E08B
:1048800090E0892B11F40C9421170E948001882359
:1048900011F40C9421170E9400000C941C178091B5
:1048A0007101813011F00C945213E1E6F1E021E73F
:1048B00031E081918651893E10F40C9410152E1729
:1048C0003F07B9F781E00C94111559E2E516F104A0
:1048D00011F40C944D1881110C944D188091CD0554
:1048E000853411F00C944D1844E050E06AEA76E00B
:1048F0008DED95E00E94D928892BB1F044E050E07D
:104900006BEE74E08DED95E00E94D928892B61F063
:1049100044E050E067E771E08DED95E00E94D92812
:10492000892B11F00C944D188091D605813011F02F
:104930000C94571B9091E105983011F00C94571B83
:104940000E94700B1092E1058091E305883F28F0EA
:104950009091E4059F5F9093E405885F8093E30561
:10496000C7010E94D1040C944D18FB01DC0102C068
:1049700005900D9241505040D8F70895F999FECF17
:1049800092BD81BDF89A992780B50895262FF9998F
:10499000FECF1FBA92BD81BD20BD0FB6F894FA9A22
:1049A000F99A0FBE019608955058BB27AA270E9476
:1049B000EC240C9466260E94582638F00E945F264C
:1049C00020F039F49F3F19F426F40C9455260EF488
:1049D000E095E7FB0C944F26E92F0E94772658F3C9
:1049E000BA17620773078407950720F079F4A6F5D4
:1049F0000C9499260EF4E0950B2EBA2FA02D0B01E6
:104A0000B90190010C01CA01A0011124FF27591B13
:104A100099F0593F50F4503E68F11A16F040A22F19
:104A2000232F342F4427585FF3CF4695379527958A
:104A3000A795F0405395C9F77EF41F16BA0B620B89
:104A4000730B840BBAF09150A1F0FF0FBB1F661FD0
:104A5000771F881FC2F70EC0BA0F621F731F841F13
:104A600048F4879577956795B795F7959E3F08F039
:104A7000B0CF9395880F08F09927EE0F97958795FB
:104A800008950E942B2608F481E008950E945A257B
:104A90000C9466260E945F2658F00E94582640F02B
:104AA00029F45F3F29F00C944F2651110C949A265B
:104AB0000C9455260E94772668F39923B1F3552369
:104AC00091F3951B550BBB27AA2762177307840721
:104AD00038F09F5F5F4F220F331F441FAA1FA9F3B7
:104AE00035D00E2E3AF0E0E832D091505040E695A5
:104AF000001CCAF72BD0FE2F29D0660F771F881F06
:104B0000BB1F261737074807AB07B0E809F0BB0BF8
:104B1000802DBF01FF2793585F4F3AF09E3F51050C
:104B200078F00C944F260C949A265F3FE4F3983E5D
:104B3000D4F3869577956795B795F7959F5FC9F7F5
:104B4000880F911D9695879597F90895E1E0660F76
:104B5000771F881FBB1F621773078407BA0720F0EF
:104B6000621B730B840BBA0BEE1F88F7E095089558
:104B70000E94BF256894B1110C949A2608950E9452
:104B80007F2688F09F5798F0B92F9927B751B0F03A
:104B9000E1F0660F771F881F991F1AF0BA95C9F7C1
:104BA00014C0B13091F00E949926B1E008950C94A0
:104BB0009926672F782F8827B85F39F0B93FCCF353
:104BC000869577956795B395D9F73EF4909580953E
:104BD000709561957F4F8F4F9F4F0895E89409C05E
:104BE00097FB3EF490958095709561957F4F8F4F20
:104BF0009F4F9923A9F0F92F96E9BB279395F69536
:104C0000879577956795B795F111F8CFFAF4BB0FB3
:104C100011F460FF1BC06F5F7F4F8F4F9F4F16C017
:104C2000882311F096E911C0772321F09EE8872FA1
:104C3000762F05C0662371F096E8862F70E060E05D
:104C40002AF09A95660F771F881FDAF7880F9695D6
:104C5000879597F90895990F0008550FAA0BE0E87A
:104C6000FEEF16161706E807F907C0F0121613062E
:104C7000E407F50798F0621B730B840B950B39F46E
:104C80000A2661F0232B242B252B21F408950A26D4
:104C900009F4A140A6958FEF811D811D089597F914
:104CA0009F6780E870E060E008959FEF80EC0895D2
:104CB00000240A94161617061806090608950024FB
:104CC0000A9412161306140605060895092E039475
:104CD000000C11F4882352F0BB0F40F4BF2B11F4E9
:104CE00060FF04C06F5F7F4F8F4F9F4F089557FD48
:104CF0009058440F551F59F05F3F71F04795880F4A
:104D000097FB991F61F09F3F79F0879508951216E0
:104D100013061406551FF2CF4695F1DF08C016168C
:104D200017061806991FF1CF86957105610508943D
:104D30000895E894BB2766277727CB0197F9089554
:104D40000E942B2608F48FEF08950E94B8260C9439
:104D500066260E94582638F00E945F2620F0952390
:104D600011F00C944F260C94552611240C949A267D
:104D70000E94772670F3959FC1F3950F50E0551F61
:104D8000629FF001729FBB27F00DB11D639FAA27A0
:104D9000F00DB11DAA1F649F6627B00DA11D661FEF
:104DA000829F2227B00DA11D621F739FB00DA11D10
:104DB000621F839FA00D611D221F749F3327A00DCA
:104DC000611D231F849F600D211D822F762F6A2F66
:104DD00011249F5750409AF0F1F088234AF0EE0FCB
:104DE000FF1FBB1F661F771F881F91505040A9F7F8
:104DF0009E3F510580F00C944F260C949A265F3FFD
:104E0000E4F3983ED4F3869577956795B795F79533
:104E1000E7959F5FC1F7FE2B880F911D96958795AB
:104E200097F90895FA01EE0FFF1F3096210531051D
:104E3000A1F16115710561F48038BFE39B0749F169
:104E400068949038810561F08038BFEF9B0741F08E
:104E500099234AF5FF3FE1053105210519F1E89451
:104E60000894E795D901AA2329F4AB2FBE2FF85F48
:104E7000D0F310C0FF5F70F4A695E0F7F73950F05B
:104E800019F0FF3A38F49F779F930DD00F9007FCED
:104E90009058089546F00C94552660E070E080E844
:104EA0009FE308954FE79F775F934F933F932F932F
:104EB0000E940D282F913F914F915F910E94A5264E
:104EC0000C946A2729F416F00C944F260C9499261A
:104ED0000C9455260E947F26A8F39638A0F707F871
:104EE0000F92E8942BE33AEA48EB5FE70E94BB2677
:104EF0000F920F920F924DB75EB70F920E945528F6
:104F0000E8E6F0E00E949C274F915F91EF91FF91BE
:104F1000E595EE1FFF1F49F0FE57E0684427EE0FAE
:104F2000441FFA95E1F74195550B0E94CF270F904A
:104F300007FE0C94C3270895DF93CF931F930F931D
:104F4000FF92EF92DF927B018C01689406C0DA2E0B
:104F5000EF010E94B826FE01E894A59125913591B4
:104F600045915591A6F3EF010E94EC24FE019701B3
:104F7000A801DA9469F7DF90EF90FF900F911F91ED
:104F8000CF91DF9108959B01AC0160E070E080E873
:104F90009FE30C9446250C944F260C9489280E947C
:104FA0007F26D8F39923C9F3940F511DA3F3915091
:104FB000504094F059F0882332F0660F771F881F15
:104FC00091505040C1F79E3F51052CF7880F911D1D
:104FD0009695879597F908955F3FACF0983E9CF0C1
:104FE000BB27869577956795B79508F4B16093953B
:104FF000C1F7BB0F58F711F460FFE8CF6F5F7F4F29
:105000008F4F9F4FE3CF0C949A2616F00C9489286B
:105010000C94552668940C944F260E947F26A8F382
:105020009923C1F3AEF3DF93CF931F930F93FF92B6
:10503000C92FDD2788232AF02197660F771F881F45
:10504000DAF720E030E040E85FEB9FE3883920F0BA
:10505000803E38F021968F770E94D524E0E9F0E079
:1050600004C00E94D524EDEBF0E00E949C278B0148
:10507000BE01EC01FB2E6F5771097595771F880BE8
:10508000990B0E94F02528E132E741E35FE30E949B
:10509000B826AF2D9801AE01FF900F911F91CF91CF
:1050A000DF910E94EC240C946626FA01DC01AA0F21
:1050B000BB1F9B01AC01BF5728F42227332744278D
:1050C000507820C0B75190F4AB2F00244695379507
:1050D0002795011CA395D2F3002071F0220F331FF6
:1050E000441FB395DAF30ED00C94D42461307105CB
:1050F000A0E88A07B94630F49B01AC016627772700
:1051000088279078309621F020833183428353831F
:1051100008959F3F31F0915020F4879577956795DA
:10512000B795880F911D9695879597F90895A1E2F7
:105130001A2EAA1BBB1BFD010DC0AA1FBB1FEE1F11
:10514000FF1FA217B307E407F50720F0A21BB30B5C
:10515000E40BF50B661F771F881F991F1A9469F7D8
:1051600060957095809590959B01AC01BD01CF0134
:1051700008950E94CA28A59F900DB49F900DA49FEA
:10518000800D911D11240895EE0FFF1F0590F491DD
:10519000E02D0994A29FB001B39FC001A39F700DA1
:1051A000811D1124911DB29F700D811D1124911D2F
:1051B0000895FB01DC0104C08D910190801921F458
:1051C00041505040C8F7881B990B0895F894FFCFC1
:1051D00041726475696E6F2D454E4332386A3630C0
:1051E0002D30300000000000000000000000000032
:1051F000FFFFFF0008080808000000010A0B420C2E
:105200000D000A0150C3000050C30000C800000098
:105210000132000000760376030000200000FFFF4B
:105220000000FFFF00000000FF00020101C0A80114
:1052300032000F010E020D030C040B050A060907CC
:1052400008040E00010F00FFFFFFFFFFFF0F0E0D10
:105250000C0B0A09080001020304050607070503F1
:1052600001080A0C0E00000000B6011401430103FE
:1052700002740152016601000000008B065E060602
:105280000834065706440635060D0A005570646159
:1052900074696E672073746F7265642073657474CB
:1052A000696E67732E0052436E616E6F203A202044
:1052B00031392D4170722D32303235004C6F6164BE
:1052C000696E672073746F726564207365747469A6
:1052D0006E67732E0053746F726564207365747407
:1052E000696E6773206E6F742076616C69642E003E
:1052F0004C6F6164696E672064656661756C7420CB
:1053000073657474696E67732E004D6F64756C6598
:105310002049443A20004D6F64756C6520566572D3
:1053200073696F6E3A20005374617274696E6720FE
:1053300045746865726E6574202E2E2E0045746863
:1053400065726E657420636F6E74726F6C6C6572DB
:1053500020666F756E642E0049502041646472654A
:1053600073733A20202020200053657269616C20FD
:10537000646174612064697361626C65642E0045C8
:10538000746865726E6574206361626C65206E6F0F
:105390007420636F6E6E65637465642E005365726E
:1053A00069616C206461746120656E61626C656422
:1053B0002E0045746865726E657420636F6E74723A
:1053C0006F6C6C6572206E6F7420666F756E642EE4
:1053D000005374617274696E6720504341393535EA
:1053E0003520492F4F20457870616E646572202EFC
:1053F0002E2E005043413935353520657870616E69
:1054000064657220666F756E642E005043413935B5
:10541000353520657870616E646572206E6F74201A
:10542000666F756E642E005374617274696E6720C6
:105430004D43503233303137202E2E2E004D435005
:10544000323330313720666F756E642E004D435015
:105450003233303137206E6F7420666F756E642E74
:1054600000466C6F772050696E3A20004449522004
:1054700050696E3A200050574D2050696E3A200016
:10548000576F726B2050696E3A20005072657373CB
:105490007572652050696E3A200046696E697368BE
:0A54A00065642073657475702E00BA
:00000001FF
