:100000000C94AE000C94A4150C947D150C94D600A1
:100010000C94D6000C94D6000C94D6000C94D60008
:100020000C94D6000C94D6000C94D6000C94D600F8
:100030000C94D6000C94D6000C94D6000C94D600E8
:100040000C9433150C94D6000C9401150C94DB140D
:100050000C94D6000C94D6000C94D6000C94D600C8
:100060000C94CB150C94D60007634236B79BD8A7E7
:100070001A39685618AEBAAB558C1D3CB7CC5763CD
:10008000BD6DEDFD753EF6177231BF000000803F7B
:1000900008000000BE922449123EABAAAA2ABECD97
:1000A000CCCC4C3E00000080BEABAAAAAA3E000009
:1000B0000000BF000000803F000000000008417801
:1000C000D3BB4387D1133D190E3CC3BD4282AD2B38
:1000D0003E68EC8276BED98FE1A93E4C80EFFFBE30
:1000E00001C4FF7F3F0000000000638253630001F2
:1000F00008000604000100000000250028002B0075
:1001000000000000240027002A00450000820000B3
:100110004000200000000023002600290004040401
:1001200004040404040202020202020303030303A0
:10013000030102040810204080010204081020017D
:10014000020408102000000008000201000003045F
:1001500007000000000000000000EA1611241FBE86
:10016000CFEFD8E0DEBFCDBF13E0A0E0B1E0ECE61A
:10017000FEE502C005900D92A63AB107D9F727E037
:10018000A6EAB3E001C01D92AE3CB207E1F710E071
:10019000CEEAD0E004C02197FE010E94ED2DCD3AB9
:1001A000D107C9F70E943A170C94342F0C94000021
:1001B000CF93DF93209113072223C1F0FC0120810C
:1001C0002223A1F0C3E1D7E0AFE0B7E09C012C5FB0
:1001D0003F4F899141919D918427892339F4E217FA
:1001E000F307B9F781E0DF91CF91089580E0FBCF6D
:1001F000089508958230C8F4E82FF0E0EE0FFF1F55
:10020000EB5BFE4F71836083813041F08091690028
:100210008C7F826080936900E89A089580916900DC
:10022000837F886080936900E99A0895AF92BF92B6
:10023000CF92DF92EF92FF920F931F93CF93DF93B2
:100240006C017B018B01040F151FEB015E01AE18E1
:10025000BF08C017D10759F06991D601ED91FC9103
:100260000190F081E02DC6010995892B79F7C50130
:10027000DF91CF911F910F91FF90EF90DF90CF9082
:10028000BF90AF900895FC01538D448D252F30E031
:10029000842F90E0821B930B541710F0CF96089593
:1002A00001970895FC01918D828D981761F0A28DC0
:1002B000AE0FBF2FB11D5D968C91928D9F5F9F7386
:1002C000928F90E008958FEF9FEF0895FC01918D3C
:1002D000828D981731F0828DE80FF11D858D90E0A9
:1002E00008958FEF9FEF0895FC01918D228D892F46
:1002F00090E0805C9F4F821B91098F73992708952E
:1003000087E197E00E94740121E0892B09F420E045
:10031000822F089580E090E0892B29F00E948001CF
:1003200081110C9400000895FC01A48DA80FB92F31
:10033000B11DA35ABF4F2C91848D90E001968F730D
:100340009927848FA689B7892C93A089B1898C912C
:10035000837080648C93938D848D981306C002887B
:10036000F389E02D80818F7D80830895EF92FF9245
:100370000F931F93CF93DF93EC0181E0888F9B8DC8
:100380008C8D98131AC0E889F989808185FF15C082
:100390009FB7F894EE89FF896083E889F9898081A5
:1003A0008370806480839FBF81E090E0DF91CF9174
:1003B0001F910F91FF90EF900895F62E0B8D10E096
:1003C0000F5F1F4F0F731127E02E8C8D8E110CC005
:1003D0000FB607FCFACFE889F989808185FFF5CF50
:1003E000CE010E949401F1CFEB8DEC0FFD2FF11D9A
:1003F000E35AFF4FF0829FB7F8940B8FEA89FB898D
:1004000080818062CFCFCF93DF93EC01888D8823EA
:10041000B9F0AA89BB89E889F9898C9185FD03C067
:10042000808186FD0DC00FB607FCF7CF8C9185FF4C
:10043000F2CF808185FFEDCFCE010E949401E9CFFC
:10044000DF91CF910895833081F028F4813099F0C5
:100450008230A9F008958730A9F08830C9F084303F
:10046000B1F4809180008F7D03C0809180008F77F0
:1004700080938000089584B58F7784BD089584B5F6
:100480008F7DFBCF8091B0008F778093B00008956F
:100490008091B0008F7DF9CF1F93CF93DF93282FEA
:1004A00030E0F901EB5BFE4F8491F901EF5CFE4F08
:1004B000D491F901E35EFE4FC491CC23A9F0162F2D
:1004C00081110E942302EC2FF0E0EE0FFF1FEA5093
:1004D000FF4FA591B4918FB7F894EC91111108C01A
:1004E000D095DE23DC938FBFDF91CF911F910895CC
:1004F000DE2BF8CFCF93DF9390E0FC01EF5CFE4F53
:100500002491835E9E4FFC0184918823C9F090E082
:10051000880F991FFC01E050FF4FA591B491FC0199
:10052000EA50FF4FC591D49161110DC09FB7F89467
:100530008C91209582238C938881282328839FBFC8
:10054000DF91CF910895623051F49FB7F8943C91B8
:10055000822F809583238C93E8812E2BEFCF8FB74A
:10056000F894EC912E2B2C938FBFEACF1F93CF934F
:10057000DF93182FEB0161E00E947A02209739F493
:1005800060E0812FDF91CF911F910C944C02CF3FFF
:10059000D10511F461E0F5CFE12FF0E0EB5BFE4F08
:1005A000E491E33031F140F4E130B1F0E230E1F0D8
:1005B000C038D1057CF7E4CFE73029F1E83059F1B4
:1005C000E430B1F780918000806280938000D09306
:1005D0008B00C0938A0004C084B5806884BDC7BD09
:1005E000DF91CF911F91089584B5806284BDC8BD0D
:1005F000F7CF80918000806880938000D09389003D
:10060000C0938800EDCF8091B00080688093B000E7
:10061000C093B300E5CF8091B00080628093B000BA
:10062000C093B400DDCF8230910538F0880F991F58
:10063000880F991F05970197F1F708953FB7F89430
:100640008091240490912504A0912604B091270460
:1006500026B5A89B05C02F3F19F00196A11DB11D1D
:100660003FBFBA2FA92F982F8827BC01CD01620F59
:10067000711D811D911D42E0660F771F881F991F14
:100680004A95D1F70895CF92DF92EF92FF920F93A0
:100690001F930E941E030091B0031091B10320919B
:1006A000B2033091B3036B017C01C01AD10AE20A94
:1006B000F30A2BEFC216D104E104F10408F488C058
:1006C0006093B0037093B1038093B2039093B3032C
:1006D000409134015091350160913601709137019C
:1006E000C416D506E606F70608F072C02091EF059D
:1006F0003091F0052F5F3F4F3093F0052093EF05C9
:10070000E091C305F091C4054091D7055091D805FB
:100710006091D9057091DA05EE0FFF1FEE0FFF1FF4
:10072000ED5FFA4F0081118122813381401B510B13
:10073000620B730B4093D7055093D8056093D9058E
:100740007093DA05E091C305F091C405EE0FFF1F29
:10075000EE0FFF1FED5FFA4FC082D182E282F3827B
:10076000E091C305F091C4058091D7059091D8051B
:10077000A091D905B091DA05EE0FFF1FEE0FFF1F14
:10078000ED5FFA4F4081518162817381840F951F23
:10079000A61FB71F8093D7059093D805A093D905BE
:1007A000B093DA058091C3059091C405019668E184
:1007B00070E00E94AC2D9093C4058093C305809196
:1007C000E3059091E40501969093E4058093E30599
:1007D0001F910F91FF90EF90DF90CF900895CF92EF
:1007E000DF92EF92FF920F931F930E941E030091DE
:1007F000B4031091B5032091B6033091B7036B0198
:100800007C01C01AD10AE20AF30A2BEFC216D10406
:10081000E104F10408F488C06093B4037093B50355
:100820008093B6039093B7034091380150913901FA
:1008300060913A0170913B01C416D506E606F706B1
:1008400008F072C02091F1053091F2052F5F3F4F03
:100850003093F2052093F105E091C505F091C605AE
:100860004091DB055091DC056091DD057091DE055E
:10087000EE0FFF1FEE0FFF1FED59FA4F00811181A0
:1008800022813381401B510B620B730B4093DB05BC
:100890005093DC056093DD057093DE05E091C5059E
:1008A000F091C605EE0FFF1FEE0FFF1FED59FA4F37
:1008B000C082D182E282F382E091C505F091C60543
:1008C0008091DB059091DC05A091DD05B091DE05FE
:1008D000EE0FFF1FEE0FFF1FED59FA4F40815181C0
:1008E00062817381840F951FA61FB71F8093DB055C
:1008F0009093DC05A093DD05B093DE058091C505DE
:100900009091C605019668E170E00E94AC2D90932D
:10091000C6058093C5058091E5059091E605019691
:100920009093E6058093E5051F910F91FF90EF905E
:10093000DF90CF9008958F929F92AF92BF92CF9207
:10094000DF92EF92FF924B015C010E941E036B014C
:100950007C010E941E036C197D098E099F09683E67
:10096000734081059105A8F321E0821A9108A1083E
:10097000B10888EEC80E83E0D81EE11CF11C81147A
:100980009104A104B10429F7FF90EF90DF90CF907C
:10099000BF90AF909F908F9008952FB7F89460917B
:1009A00020047091210480912204909123042FBF90
:1009B0000895089580910506909106069827892745
:1009C000982744972091230630E044E035952795F9
:1009D0004A95E1F7220F331F220F331F821B930B1F
:1009E00097FF02C090E080E00895209119063091B1
:1009F0001706309319062093170620911A06309196
:100A0000180630931A0620931806E5EFF5E021A5A5
:100A1000820F911D25A585A7662381F021A7892F27
:100A20009927319725E0E13FF20789F710922706D1
:100A30001092280680E580932306089511A6EFCF33
:100A40000F931F93CF93DF9370E06B507A4F8A011F
:100A5000075F1F4F213029F0223031F48A01025004
:100A6000110930E020E003C000E010E09801EB0144
:100A7000FA01E230F10558F0A991B991BA27AB27F4
:100A8000BA270A0F1B1F211D311D3297F2CFFA0121
:100A9000EE7F6E0F7F1F4E175F0769F0FB014081ED
:100AA00050E070E060E0762F652F542F4427040F4C
:100AB000151F261F371FA9016627772741155105E6
:100AC0006105710519F022273327F1CF00951095A4
:100AD000E82FF0E0EB50FA4F10830183DF91CF91C4
:100AE0001F910F910895E5EFF5E0108E118E80E4CF
:100AF000848B158A868B20E044E150E06EE088E12B
:100B00000C9420058EBD0DB407FEFDCF089561E065
:100B100080912B040E944C0278940895F89460E030
:100B200080912B040C944C020F931F93CF93DF936F
:100B3000EC018B010E948E052097B9F08AE30E9498
:100B400082051EBCF801CE01019739F00DB407FEF5
:100B5000FDCF2EB51EBC2193F7CF2197C00FD11F1B
:100B60000DB407FEFDCF8EB58883DF91CF911F9125
:100B70000F910C9487051F93CF93DF93182FC62FE7
:100B8000D42F0E948E058C2F8F71812B0E9482059D
:100B90008D2F0E948205DF91CF911F910C948705C4
:100BA000CF93C82FC07680911E048C1799F043E034
:100BB0006FE180EA0E94BB05C0931E044C2F50E0F9
:100BC00085E0559547958A95E1F76FE180E8CF91EB
:100BD0000C94BB05CF910895CF93DF93C82FD62FE8
:100BE0000E94D0054D2F6C2F80E4DF91CF910C94A3
:100BF000BB05CF93DF93C82FD72F0E94EC056D2F35
:100C000081E08C0FDF91CF910C94EC05CF93C82F2E
:100C10000E94D0050E948E058C2F8F710E94820544
:100C200080E00E948205C7FF03C080E00E94820529
:100C3000CEB50E9487058C2FCF91089561E184ED98
:100C40000E94EC0561E082ED0E94EC058AEE0E94B4
:100C5000060680FDFBCF60E082ED0E94EC0589ED89
:100C60000E94060690E00895CF93DF93EC0140E8E0
:100C70006FE180E80E94BB0540E86FE180EA0E94D6
:100C8000BB054AE06CE180EA0E94BB0560E07CE0C5
:100C900082E00E94F905BE01745F86E00E94F905BA
:100CA00040E060E08AE70E94BB050E948E05209725
:100CB000B1F08AE70E9482058091F5058EBDE6EFCE
:100CC000F5E0CB50DA4FEC17FD0731F081910DB410
:100CD00007FEFDCF8EBDF7CF0DB407FEFDCF0E94FE
:100CE000870548E06FE180E80E94BB05D0E0C0E0E6
:100CF0008CE10E9406068A7029F42196C83E83E0A2
:100D0000D807B1F78CE10E94060681FD03C0C83EFA
:100D1000D34039F448E06FE180EADF91CF910C9441
:100D2000BB05DF91CF9108950F931F93CF93DF936E
:100D3000EC0105EF15E04C96F801908B818B0E9439
:100D40007305CE010896F80196A387A3AE01405F14
:100D50005F4F21E06AE188E20E942005CE018A9679
:100D6000DF91CF911F910F910C943406CF93DF93B5
:100D7000EB01682F84ED0E94EC05BE0186ED0E9418
:100D8000F9058AEE0E94060680FDFBCFDF91CF9128
:100D90000895CF92DF92EF92FF920F931F938634C4
:100DA000910568F120911806233449F5C090230677
:100DB000D0902406E0902506F090260600914E047F
:100DC00010914F042091500430915104C016D10667
:100DD000E206F306A1F4EFE0F7E08B509A4F9F0193
:100DE0002E5F3F4F41815081553319F45281651771
:100DF00071F0F901E40FF11DE817F90780F380E0C5
:100E00001F910F91FF90EF90DF90CF90089581E0B8
:100E1000F7CFE0911C04F0911D049F012F5F3F4F1D
:100E200030931D0420931C0480830895FF920F9338
:100E30001F93CF93DF93162FF42E052F0E940907DF
:100E4000812F0E940907CF2DD02F115020F08991BA
:100E50000E940907FACFDF91CF911F910F91FF9068
:100E600008952091F903260F3327331F21323105CE
:100E7000ECF42091E506FC0190E080E0243069F07C
:100E800082E00895A091F9032191AC0147525C4F93
:100E9000A40FB52FB11D2C930196861798F380915E
:100EA000F903680F6093F90380E0089581E00895E5
:100EB0001092E50681E08093E4061092BF0661E09F
:100EC00082E10E944C0261E083E10E944C02E9EB66
:100ED000F0E080818E7F808380818D7F808388E4B5
:100EE0008093B80085E48093BC0008951092BE06FC
:100EF0001092BD061092EC0610920E070E94580741
:100F000088EF90E09093BC068093BB0689EF90E059
:100F10009093BA068093B9060895CF93DF9391E03A
:100F20009093D8038823B9F0C091B800D091BA004B
:100F30008091BC008A7B8093BC0060E082E10E94CB
:100F40004C0260E083E10E944C020E945807D0935B
:100F5000BA00C093B800DF91CF9108958F929F920D
:100F6000AF92BF92CF92DF92EF92FF920F931F93B7
:100F7000CF93DF93D0910E07D13208F0D7C0182F4E
:100F8000C0910D070E941E036B017C018091E50654
:100F900081116BC082E08093E5061093E4068FEF29
:100FA0008093E3061092E206D093E106ADEEB6E040
:100FB000E1ECF6E080E0D81391C01092C006809179
:100FC000C006CC0FC82BC093C0068091BF068130ED
:100FD00009F088C01092BF060E941E036B017C01BD
:100FE0008091C0068093BB008091E7069091E8064F
:100FF000A091E906B091EA06892B8A2B8B2BA1F0F0
:101000000E941E030091E7061091E8062091E90670
:101010003091EA066C197D098E099F09061717079A
:101020002807390708F442C08091BC0083FDD8CF5F
:1010300085EC8093BC000E941E036B017C018091B3
:10104000E506823009F450C08091E3068F3F09F431
:101050006FC08091E306803209F46CC08091E30692
:10106000803309F469C084E026C08091E70690913E
:10107000E806A091E906B091EA06892B8A2B8B2B12
:1010800009F484CF0E941E038090E7069090E80642
:10109000A090E906B090EA066C197D098E099F09B7
:1010A00086169706A806B90608F070CF8091E60666
:1010B0000E948D0785E01092EC0610920E071092A8
:1010C000EB06DF91CF911F910F91FF90EF90DF9092
:1010D000CF90BF90AF909F908F9008959D919193E6
:1010E0008F5F69CF85EEA5CF8091E7069091E806E6
:1010F000A091E906B091EA06892B8A2B8B2B09F483
:101100009ECF0E941E030091E7061091E8062091F1
:10111000E9063091EA066C197D098E099F090617C8
:1011200017072807390708F08ACFC0CF81E0C3CF5F
:1011300080E0C1CF82E0BFCF83E0BDCFCF93DF930C
:10114000EA01A0914901B0914A0191E09093EB0628
:1011500080930D071092EC0610920E07ED91FC9112
:1011600011970190F081E02DCD0109958091490101
:1011700090914A01DC01ED91FC910190F081E02D0C
:10118000688109958091490190914A01DC01ED91B6
:10119000FC910190F081E02D6981099581E00E9428
:1011A000AE07982F8093540181E0911180E0DF9188
:1011B000CF91089540914E0150914F0121E030E0D0
:1011C000F90102C0EE0FFF1F8A95E2F7CF016130EF
:1011D00069F4842B952B90934F0180934E014EE43C
:1011E00051E062E080914B010C949E0880959095AF
:1011F00084239523F0CF0895E091BE068091BD062B
:10120000E81730F4F0E0E854FC4F808190E0089556
:101210008FEF9FEF08959091BE068091BD062FEF4E
:101220003FEF981748F4E92FF0E0E854FC4F208195
:1012300030E09F5F9093BE06C90108958091BD067E
:101240009091BE06891B990B0895CF92DF92EF9281
:10125000FF920F931F93CF93DF937C01CB018A0101
:101260002091EB06222389F0EB016B01C40ED51E01
:10127000CC15DD0569F06991D701ED91FC910190E4
:10128000F081E02DC7010995F3CF642F0E9431074B
:10129000C801DF91CF911F910F91FF90EF90DF90E8
:1012A000CF900895CF93DF931F92CDB7DEB76983B8
:1012B0002091EB062223F9F020910E07203258F0FE
:1012C00021E030E0FC013383228390E080E00F9046
:1012D000DF91CF9108958091EC06E82FF0E0E35183
:1012E000F94F998190838F5F8093EC0680930E076E
:1012F00081E090E0ECCF61E0CE0101960E943107E1
:10130000F7CF90E080E00895FC0183858F3F19F0CE
:1013100061E00C944C020895FC0180819181892B3D
:1013200039F0A281B3819C9111968C919CBD8DBDA9
:1013300083858F3F19F060E00C944C020895AF92C2
:10134000BF92CF92DF92EF92FF920F931F93CF93B2
:10135000DF93EC0188819981892B89F06EBD0DB4F2
:1013600007FEFDCFBEB48B2DDF91CF911F910F9162
:10137000FF90EF90DF90CF90BF90AF900895888559
:10138000998511E0892B09F010E8AA24A394862FEF
:10139000812309F0A12C062F2C813D814E815F8194
:1013A00060E271EA87E090E00E94C02DF22EB02E3C
:1013B000E12CC22ED12CFF2019F0C6010E9413038C
:1013C0008A85877F09F042C08D858F3F89F0902FF5
:1013D000912381E009F480E08A1551F0EF85F889C6
:1013E0008F89992369F19081892B8083AA24A39402
:1013F000E989FA898081998D892B8083FF2019F0F2
:10140000C6010E9413038E858F3F39F0EB89FC895A
:101410008081988D892309F0E12AE989FA899081F0
:10142000898D8095892380838E858F3F09F0BE2C1E
:1014300088859985892BB9F5110F1111BCCF93CFF0
:101440009081809589238083A12CD2CFE989FA8964
:101450008081998D892B8083FF2019F0C6010E941D
:1014600013038D858F3F49F0EF85F8898F89902F81
:101470009123A9F09081892B8083E989FA89908151
:10148000898D8095892380838E858F3F69F2EB89D2
:10149000FC898081988D892339F2E12AC5CF90811A
:1014A00080958923E9CF1695C8CF8F929F92AF92EE
:1014B000BF92CF92DF92EF92FF920F931F93CF9341
:1014C000DF937C014B016A01B22EA32E0E948C098E
:1014D000E401C80CD91CCC15DD0569F4CB2DDA2D3F
:1014E0000C0F1D1FC017D10759F06FEFC7010E94E5
:1014F0009F098993F7CF6991C7010E949F09EBCF9C
:10150000C7010E94840981E0DF91CF911F910F9163
:10151000FF90EF90DF90CF90BF90AF909F908F9013
:1015200008958F929F92AF92BF92CF92DF92EF92E7
:10153000FF920F931F93CF93DF937C01B62EA72EBC
:101540006A0149010E948C09E401080D191DC017A8
:10155000D10761F4CB2DDA2DCC0EDD1ECC15DD05C7
:1015600051F06991C7010E949F09F8CF6991C701A5
:101570000E949F09ECCFC7010E94840981E0DF919E
:10158000CF911F910F91FF90EF90DF90CF90BF9080
:10159000AF909F908F9008951F93CF93DF93EA01B0
:1015A000122FDC0111968D919C91DC01ED91FC9143
:1015B0000280F381E02D0995C817D90729F4812FFE
:1015C0000E94AE0791E0811190E0892FDF91CF91C9
:1015D0001F910895CF93DF93EC018B818823A1F0B5
:1015E000888191E09093EB0680930D071092EC06B2
:1015F00010920E0781E00E94AE0791E0811190E009
:10160000892FDF91CF9108950E94760781E08B8327
:10161000CE010E94EA0A982F8111E2CFF1CF4F92BA
:101620005F926F927F928F929F92AF92BF92CF9272
:10163000DF92EF92FF920F931F93CF93DF9300D02F
:1016400000D000D0CDB7DEB7D62E282F30E03E83B5
:101650002D833FE2839FF0011124E55AF94F8381E6
:10166000882359F020E030E0A901658976898789CF
:10167000908D0E94B52B18160CF1D1101FC0C12CF3
:10168000D12C7601C701B6010E94CD2ACB01269646
:101690000FB6F894DEBF0FBECDBFDF91CF911F9183
:1016A0000F91FF90EF90DF90CF90BF90AF909F9001
:1016B0008F907F906F905F904F9008958FE24D8153
:1016C0005E81849F8001859F100D1124055A194F5A
:1016D0002FE832EC45EF5CE3D80155966D917D9192
:1016E0008D919C9158970E94BA2B9B01AC01F801F7
:1016F00064817581868197810E94562A0D811E81A1
:10170000000F111F000F111F2D813E812A553C4FE4
:10171000790187FF0BC00E94CD04F801E855FC4F0A
:101720006083718382839383D7011C9208551C4F79
:10173000F80180809180A280B380D7018C918823AA
:10174000B1F00E94CD04681979098A099B096139B1
:1017500071408105910508F492CF0E94CD04F801F3
:101760006083718382839383D7011C9288CF0E9408
:10177000CD04681979098A099B09613571058105CC
:10178000910558F00E94CD04F80160837183828333
:10179000938381E0D7018C9372CF8FE22D813E81BC
:1017A000829FF001839FF00D1124E55AF94FDD204F
:1017B00009F451C0C58CD68CE78CF0A020E030E055
:1017C000A901C701B6010E94562A412C512C90E86C
:1017D000692E9FE3792E87FF06C0412C512C80E8AB
:1017E000682E8FEB782E20E030E0A901C701B6010A
:1017F0000E94B52B181654F1D701C601B058898341
:101800009A83AB83BC838FE2AD81BE818A9FF00156
:101810008B9FF00D1124E55AF94F66A570E090E01A
:1018200080E00E94052B4B015C0129813A814B81AC
:101830005C810E94562A87FF25CFA3019201C50132
:10184000B4010E94BA2B6B017C011CCFC982DA82E1
:10185000EB82FC82D8CFC588D688E788F08C2481BB
:10186000358146815781C701B6010E94E9292B01C4
:101870003C0120E030E0A9010E94B52B5301420158
:10188000181624F0B7FAB094B7F8B0942FE832ECF9
:1018900045EF5CE3C701B6010E94BA2BA501940194
:1018A0000E94562A87FFEBCE46015701B7FAB09443
:1018B000B7F8B094A5019401C301B2010E94562A61
:1018C00087FD0CC0A3019201C701B6010E94562AF0
:1018D0004601570187FD02C05301420120E030E07C
:1018E000A901C501B4010E94B52B240135011816C8
:1018F00024F077FA709477F870948FE24D815E81CE
:10190000849FF001859FF00D1124E55AF94F21A124
:1019100032A143A154A1C501B4010E94BA2B4B01CD
:101920005C012AE939E949E95EE3C701B6010E9491
:10193000BA2BA30192010E94562A87FD0AC020E01B
:1019400030E040E45FE3C501B4010E94BA2B4B01D3
:101950005C0120E030E0A901C501B4010E94B52B73
:1019600075016401181624F0F7FAF094F7F8F09472
:101970002FE2AD81BE812A9FC0012B9F900D1124C3
:10198000FC01E55AF94FFA83E98315A5612F70E050
:1019900090E080E00E94052BA70196010E94B52BE4
:1019A000612F18169CF0A981BA819E96BC91B983CB
:1019B0006B2F70E090E080E00E94052BA70196015C
:1019C0000E94562A87FF09C0E9816E2F70E090E0DF
:1019D00080E00E94032B6B017C0120E030E0A90134
:1019E000C501B4010E94B52B18160CF44BCEF7FAC2
:1019F000F094F7F8F09446CE4FEF460FFC0130E03C
:101A000020E050E0DF01A81BB90BA417B50724F4B0
:101A10007191270F311DF6CFFC01E60FF11D3197B3
:101A200081E09081921380E00895809133048823AF
:101A300039F00E941E069695879596958795817038
:101A40000895FC0101900020E9F73197AF01481B90
:101A5000590BBC0187E197E00C9416018F929F927D
:101A6000AF92BF920F931F93CF93DF93CDB7DEB7A3
:101A7000A1970FB6F894DEBF0FBECDBF19A24230BA
:101A800008F44AE08E010F5D1F4F842E912CB12C7B
:101A9000A12CA50194010E94C02DE62FB901CA0115
:101AA000EA30F4F4E05DD801EE938D01232B242B72
:101AB000252B79F790E080E0109719F0CD010E9476
:101AC000210DA1960FB6F894DEBF0FBECDBFDF91FA
:101AD000CF911F910F91BF90AF909F908F900895DD
:101AE000E95CE1CFCF93DF930E94210DEC018CEBF9
:101AF00091E00E94210D8C0F9D1FDF91CF910895E1
:101B0000682F70E090E080E04AE00C942E0D2F9258
:101B10003F924F925F926F927F928F929F92AF927D
:101B2000BF92CF92DF92EF92FF920F931F93CF93CA
:101B3000DF93CDB7DEB72A970FB6F894DEBF0FBE9E
:101B4000CDBF9C838B834F83588769877A87DC015D
:101B5000ED90FC90F7010085C7010B969E838D8365
:101B60009681878199838A83608071806114710472
:101B700009F420C1418550E0D30114968D919C91C8
:101B800015978417950708F468C18C9191E090939C
:101B9000EB0680930D071092EC0610920E0720E0E2
:101BA000BE016F5F7F4FC3010E94CC0A882309F4F6
:101BB00054C1402E512C312C212C2414350408F012
:101BC0001AC1F301848195818201021913098017DA
:101BD000910708F48C01D301CC900E941E034B01A5
:101BE0005C018091E506811175C0D02EB0E2B0177E
:101BF00010F470E2D72EE1E0E093E50621E0C201A7
:101C0000801B910B2816390608F420E02093E40687
:101C1000FFEFF093E3061092E2068FEF8D0D8093B5
:101C2000E10681E08093C0068091C006CC0CC82AF2
:101C3000C092C0068091BF06813009F092C0109218
:101C4000BF060E941E034B015C018091C006809379
:101C5000BB008091E7069091E806A091E906B0915B
:101C6000EA06892B8A2B8B2BA1F00E941E03209160
:101C7000E7063091E8064091E9065091EA066819B6
:101C800079098A099B09261737074807590708F475
:101C900042C08091BC0083FDD8CF95EC9093BC00EE
:101CA0000E941E034B015C018091E506813009F41E
:101CB0005CC08091E2068D1510F4D090E206A1EC94
:101CC000B6E0E8EBF3E080E08D1551F19D91919342
:101CD0008F5FFACF8091E7069091E806A091E90620
:101CE000B091EA06892B8A2B8B2B09F47ACF0E94BC
:101CF0001E032091E7063091E8064091E9065091D5
:101D0000EA06681979098A099B09261737074807DF
:101D1000590708F066CF8091E6060E948D07D12C06
:101D20001092BE06D092BD06D016110609F095C0DD
:101D3000AD80BE80A20CB31C6501C6018A199B0947
:101D400080179107A0F5F30181819281DC01ED916B
:101D5000FC910284F385E02D0995F60181936F01D2
:101D6000ECCFA5EEA093BC009BCF8091E7069091AD
:101D7000E806A091E906B091EA06892B8A2B8B2B05
:101D800009F492CF0E941E032091E7063091E806E5
:101D90004091E9065091EA06681979098A099B0978
:101DA000261737074807590708F07ECFB4CF200E13
:101DB000311E03CFD7010280F381E02D309709F463
:101DC0004CC014962D913C91159710E019964C91AA
:101DD00050E02330310561F5816089839A834F5F3C
:101DE0005F4F2D813E81BE016F5F7F4FCF010E940B
:101DF000550A882391F1F701408550E090E080E09A
:101E000000E010E098018417950754F5322F212F38
:101E1000102F0027D7011A966C91611119C0FA0191
:101E2000E81BF90BEE0DFF1D6285062B0196EBCF2B
:101E30002115310519F490689983D3CF22303105EB
:101E400011F49F77F9CF2130310559F6906CF4CF1A
:101E5000F701E80FF91F6385E8CF0FEF1FEF980137
:101E6000EB81FC81A081B18118968C911897853007
:101E700008F078C0928141E050E002C0440F551F45
:101E80009A95E2F741505109052E000C660B770B2D
:101E900093816A017B01092E04C0CC0CDD1CEE1C71
:101EA000FF1C0A94D2F7C094D094E094F0940C21D3
:101EB0001D212E213F214F80588469847A84442239
:101EC00055226622772204C0440C551C661C771CE0
:101ED0009A95D2F7402A512A622A732A1F964D9268
:101EE0005D926D927C92529730E020E0E82EF12CCA
:101EF0002E153F05BCF41A968C911A9781110BC0D0
:101F0000FD01E20FF31F4386452C562C672C7724E6
:101F10002F5F3F4FEDCFF701E21BF30BEA0FFB1FE3
:101F20004286F2CF6D01FBE0CF0ED11C16969C913C
:101F3000169717968C91179799838A83AD90BC90CA
:101F40001197A114B10409F44DC019960C9110E039
:101F500098012E0D3F1DD50114968D919C918217ED
:101F6000930710F480E016C0F501818192812081F1
:101F700031E03093EB0620930D071092EC0610929F
:101F80000E0701151105F9F421E0A701B601C501FD
:101F90000E94CC0A2A960FB6F894DEBF0FBECDBFC2
:101FA000DF91CF911F910F91FF90EF90DF90CF9035
:101FB000BF90AF909F908F907F906F905F904F9069
:101FC0003F902F900895DC01ED91FC910280F38108
:101FD000E02DA801BE016F5F7F4F09950817190713
:101FE00009F6D2CF1296ED91FC911397309709F430
:101FF000B9CF14962D913C91159719960C9110E03C
:102000002330310571F48E7F89839A830F5F1F4FD0
:102010009E012F5F3F4FA701B601CF010E94910A99
:10202000B9CF2115310519F49F779983F1CF22306B
:10203000310511F49068F9CF2130310549F79F77C8
:102040009064F3CFCF93DF93CDB7DEB767970FB62A
:10205000F894DEBF0FBECDBFA62F9091C40729E034
:1020600030E0993030F021E0883008F420E022613F
:1020700030E0E091C207F091C307309749F04091FA
:10208000C50750E0542F4427550F5064242B352B9F
:102090004091C0075091C107188A198A1A8A1B8A71
:1020A000FC83EB835A83498343E050E05E834D8396
:1020B00091E09A8738872F831B8699879E012F5F2F
:1020C0003F4F3D8B2C8B9E8B87708F8B41E050E078
:1020D00060E070E0A11103C040E050E0BA01CE0121
:1020E00044960E94870D67960FB6F894DEBF0FBE28
:1020F000CDBFDF91CF910895DC0196E0FB01019007
:102100000D929A95E1F70895BC0185EF95E00E9444
:102110007C106FE574E08BEF95E00C947C10DC0193
:1021200094E0FB0101900D929A95E1F708958BEFF1
:1021300095E00E9484106FE076E083E196E00E94D3
:102140008F1063E177E08FE096E00E948F100C948F
:102150007305262F206120932406643021F0009718
:1021600011F481E090E061E00E94F5041092050610
:1021700088E2809306060E94971084E080932506EB
:102180001092260622E04CE150E06AE182E30E94D0
:10219000200586E390E00C943406CF93DF93EB01A7
:1021A0000E948410BE0183E196E00E948F1063E1DB
:1021B00077E08FE096E0DF91CF910C948F10CF9372
:1021C000DF93EB0144E050E0BC0181E196E00E9426
:1021D000272F892B49F46BE076E0CE010E947C101A
:1021E00081E0DF91CF91089580E0FBCF0F931F93A3
:1021F000CF938C018AE791E00E948410E5EFF5E02F
:1022000088E08487C6E0C58748E050E06EEE70E065
:1022100083E096E00E94CA29E5E1F6E0DF011D9225
:10222000CA95E9F76FE574E08BE096E00E947C10B8
:10223000B8018BE196E00E948F1063E177E081E1C5
:1022400096E00E948F108AE290E0CF911F910F914B
:102250000C943406EF92FF920F931F93CF93DF936A
:10226000182F092FEB01F42EE52ECB010E94D80088
:10227000BE01882309F447C082E994E00E94CD1092
:102280008881807F803E91F088819981AA81BB817D
:102290008F3F9F4FAF4FBF4F49F044E050E0BE012A
:1022A00085E694E00E94272F892B31F46AE771E0DC
:1022B00085EF95E00E947C1088E0809301061092E3
:1022C000020649E050E06AE071E083E096E00E9497
:1022D000CA291092050681E180930C06E092190646
:1022E000F0921A06009317061093180610921B0618
:1022F00010921D0610921E06DF91CF911F910F9133
:10230000FF90EF90089588E994E0B8CFEF92FF92A4
:102310000F931F93CF938C01E5EFF5E086E191E0F9
:10232000DF019C011D9221503040E1F780915E0455
:102330006AE771E0833011F469E474E043E450E04B
:1023400084E490E00E942A116AE771E085EF95E04D
:102350000E947C1081E080931F068093200686E017
:102360008093210680914E0490914F04A0915004D7
:10237000B09151048093230690932406A0932506E0
:10238000B0932606C0915E04C33031F463E177E078
:102390008BE296E00E948F106FE574E08BE396E08D
:1023A0000E947C108BE097E090931D0480931C04A6
:1023B000EAEEF0E084910E940907EBEEF0E08491F0
:1023C0000E940907ECEEF0E084910E940907EDEE0F
:1023D000F0E084910E94090785E30E94090781E0EB
:1023E0000E94090783E0C11101C081E00E94090732
:1023F0008DE30E94090787E00E94090781E00E949F
:1024000009078FE5E82E84E0F82EC7E0C15031F0CF
:10241000D7018D917D010E940907F8CF80910001BD
:10242000882371F060E071E0FB0101900020E9F782
:10243000BF016150714040E051E08CE00E941607FE
:102440000115110559F0A80164E082E30E94160706
:1024500049E454E064E086E30E94160787E30E94A3
:10246000090783E00E94090781E00E94090783E0D1
:102470000E94090786E00E9409078FEF0E94090762
:1024800080911C0490911D048F519640CF911F9113
:102490000F91FF90EF900C94940685ED8093BC0013
:1024A0008091E7069091E806A091E906B091EA06CE
:1024B0000796A11DB11D23E0B695A7959795879521
:1024C0002A95D1F72091BC0024FD03C01092E506A7
:1024D00008954091E7065091E8066091E9067091F1
:1024E000EA06452B462B472B69F30097A105B1055A
:1024F00041F025E32A95F1F700000197A109B10900
:10250000E1CF8091E6060C948D07FF920F931F9305
:10251000CF93DF93EC01F62E08811981C8010E9448
:10252000D329F81621F06F2DC8010E94DB29CE01B6
:10253000DF91CF911F910F91FF900895EF92FF923D
:102540000F931F93CF93DF9300D0CDB7DEB78FEB00
:1025500091E00E94720D1A8219826AE1CE01019601
:102560000E94851281E090E09A83898362E6CE0121
:1025700001960E94851284E090E09A83898362E04C
:10258000CE0101960E94851229E5E22E21E0F22E6D
:102590000AE010E01A830983F70161917F01CE01FF
:1025A00001960E9485120F5F1F4F0532110591F7AA
:1025B0009BE5E92E96E0F92E04E610E01A830983E4
:1025C000F70161917F01CE0101960E9485120F5F94
:1025D0001F4F0339110591F78AE8E82E86E0F82E9F
:1025E00004EB10E01A830983F70161917F01CE01AA
:1025F00001960E9485120F5F1F4F033E110591F750
:102600000F900F90DF91CF911F910F91FF90EF905E
:102610000895CF92DF92EF92FF920F931F93CF9383
:10262000DF93EC0188819981863F2EE7920709F4B8
:102630002AC190F4843FFEE79F0709F458C0853F04
:102640009E4709F4FBC0DF91CF911F910F91FF903E
:10265000EF90DF90CF900895873FEEE79E0709F453
:1026600078C18C3B9F4779F76132710560F361E275
:10267000CE010E94FC0C882331F38A81809359019A
:102680008B8180935A018C8180FF84C191E090936B
:102690005B0181FF82C191E090935C0183FF80C167
:1026A00081E0809373018D81809361018F8180939C
:1026B0005B06888580935C06898580935D068A85A4
:1026C00080938A068B8580938B068C8580938C06FD
:1026D000FE013D96A2E6B1E0CE014D9621912D93EB
:1026E000E817F907D9F78D8D8093720146C16E30D6
:1026F000710508F4A8CF6EE0CE010E94FC0C88237F
:1027000009F4A1CF0A81902F92959F708091590171
:10271000981399CF0F7080915A01081708F093CF42
:10272000E02EF12C2FE2029F80011124055A194F4F
:102730002C816D8170E090E080E0CB0177276627E7
:10274000722B2B81622B0E94032B2FE632E143E890
:102750005AE30E94BA2BF801658B768B878B908F9A
:102760002F81688570E090E080E0CB0177276627B5
:10277000722B2E81622B0E94032B2FE632E143E85D
:102780005AE30E94BA2BF801618F728F838F948F66
:10279000898580FF04C0118A128A138A148A9FE2F5
:1027A0009E9DF0019F9DF00D1124E55AF94F81FD8A
:1027B00042C0108A82FF0BC09FE29E9DF0019F9D48
:1027C000F00D1124E55AF94F90899E5F908B83FF9D
:1027D0000BC09FE29E9DF0019F9DF00D1124E55AD4
:1027E000F94F90899C5F908B84FB992790F9909387
:1027F0005A0686FB882780F9809340018FE28E9DE0
:1028000080018F9D100D1124055A194F6A857B8513
:10281000072E000C880B990B0E94052BF801658F81
:10282000768F878F90A30E94CD04F8016487758707
:102830008687978708CF91E0908BBCCF6A3071056F
:1028400008F401CF6AE0CE010E94FC0C882309F451
:10285000FACE8A8182958F70909159018913F3CEB7
:102860008B81809302058C81809301058D818093FB
:1028700000058E818093FE048F818093FF048885FC
:102880008093FD04E0CE6A30710508F4DCCE6AE086
:10289000CE010E94FC0C882309F4D5CE0A81902F2A
:1028A00092959F70809159019813CDCE0F708091B1
:1028B0005A01081708F0C7CE688570E071956195D8
:1028C0007109072E000C880B990B0E94052B9B01A8
:1028D000AC0160E070E080E291E40E94272C6B0183
:1028E0007C01FFE20F9F80011124055A194F6B8173
:1028F00070E090E080E00E94052BA70196010E9405
:10290000BA2BF80161A372A383A394A36C8170E036
:1029100090E080E00E94052BA70196010E94BA2B4F
:10292000F80165A376A387A390A76D8170E090E07E
:1029300080E00E94052BA70196010E94BA2BF801A6
:1029400061A772A783A794A78E8185A78F8186A789
:102950007ACE6630710508F476CE66E0CE010E942C
:10296000FC0C882309F46FCE8A8180935D018B81F2
:1029700080935E018C8180935F010E949E12F0E043
:10298000E0E0DF91CF911F910F91FF90EF90DF90EA
:10299000CF90099410925B017CCE10925C017ECEA8
:1029A0001092730180CE0F931F93C901B8011F913C
:1029B0000F910C9409131F920F920FB60F921124CE
:1029C0002F933F934F935F936F937F938F939F9337
:1029D000AF93BF93EF93FF9387E197E00E94940139
:1029E000FF91EF91BF91AF919F918F917F916F91E7
:1029F0005F914F913F912F910F900FBE0F901F90BD
:102A000018951F920F920FB60F9211242F938F9348
:102A10009F93EF93FF93E0912707F0912807808120
:102A2000E0912D07F0912E0782FD1BC090818091CF
:102A300030078F5F8F7320913107821741F0E0914B
:102A40003007F0E0E95EF84F958F80933007FF91F3
:102A5000EF919F918F912F910F900FBE0F901F902C
:102A600018958081F4CF1F920F920FB60F92112408
:102A70002F933F938F939F93AF93BF9380912004A5
:102A800090912104A0912204B091230430911F045D
:102A900023E0230F2D3758F50196A11DB11D20937A
:102AA0001F048093200490932104A0932204B093E8
:102AB00023048091240490912504A0912604B091D0
:102AC00027040196A11DB11D809324049093250431
:102AD000A0932604B0932704BF91AF919F918F914B
:102AE0003F912F910F900FBE0F901F90189526E8E1
:102AF000230F0296A11DB11DD2CF1F920F920FB6C8
:102B00000F9211242F933F934F935F936F937F9373
:102B10008F939F93AF93BF93EF93FF93E091470100
:102B2000F09148010995FF91EF91BF91AF919F916D
:102B30008F917F916F915F914F913F912F910F9066
:102B40000FBE0F901F9018951F920F920FB60F9205
:102B500011242F933F934F935F936F937F938F93A2
:102B60009F93AF93BF93EF93FF93E0914501F09153
:102B700046010995FF91EF91BF91AF919F918F9180
:102B80007F916F915F914F913F912F910F900FBE69
:102B90000F901F9018951F920F920FB60F9211244D
:102BA0002F933F934F935F936F937F938F939F9355
:102BB000AF93BF93EF93FF938091B900887F8036E6
:102BC00009F44AC0F0F5883209F4A7C018F580313D
:102BD00009F49BC0B8F4882309F4F9C0883009F4DB
:102BE00094C0FF91EF91BF91AF919F918F917F9191
:102BF0006F915F914F913F912F910F900FBE0F906A
:102C00001F901895883109F488C0803251F780935D
:102C1000E30614C0803409F49DC040F48033B9F356
:102C20008833F9F68093E30685ECB0C0803509F46B
:102C300085C0883509F496C0883499F60E944D12F3
:102C4000D0CF883909F48CC038F5883729F050F492
:102C5000883611F0803729F683E08093E5061092DC
:102C60001B0457C0883809F47BC0803919F08038BC
:102C700009F0B7CF80911B04803208F071C0E09159
:102C80001B0481E08E0F80931B048091BB00F0E059
:102C9000E550FC4F80833DC0803B39F0E0F4803A42
:102CA00009F479C0883A09F09CCF84E08093E50666
:102CB0001092FA031092F903E091BB06F091BC0662
:102CC00009958091F90381110FC081E08093F90388
:102CD0001092D90309C0803C09F4A6CF883C09F4BE
:102CE000A3CF883B09F07DCFE091FA0381E08E0FFE
:102CF0008093FA03F0E0E752FC4F80818093BB00A1
:102D00009091FA038091F90329C08091C0068093C5
:102D1000BB0085EC8093BC0064CF9091E20680916B
:102D2000E106981758F5E091E20681E08E0F809356
:102D3000E206F0E0EF53F94F8081E9CFE091E2063F
:102D400081E08E0F8093E2068091BB00F0E0EF53AC
:102D5000F94F80839091E2068091E1069817C8F2BE
:102D600085E8D8CFE091E20681E08E0F8093E206FD
:102D70008091BB00F0E0EF53F94F80838091E4062F
:102D800081115CCF81E08093BF0684EA8093BC0010
:102D90001092E50626CF85EC8093BC001092E506E4
:102DA00080911B04803230F4E0911B04F0E0E55088
:102DB000FC4F108260911B0470E0E091B906F09125
:102DC000BA068BEF93E0099510921B040ACF10927C
:102DD000E30634CFE7E1F7E01382128288EE93E056
:102DE000A0E0B0E084839583A683B7832CE931E02B
:102DF0003183208325EC30E03587248724EC30E0D4
:102E00003787268720EC30E0318B208B21EC30E0B7
:102E1000338B228B22EC30E0358B248B26EC30E098
:102E2000378B268B118E128E138E148EE4EBF7E007
:102E30001382128284839583A683B7838EEA91E0FE
:102E400091838083E5E5F1E0A9E5B1E014968C91EA
:102E50001497808315968C911597818316968C9183
:102E60008283E0ECF7E0118210821382128280E10B
:102E700084830895CF93DF93CDB7DEB7C154D109D2
:102E80000FB6F894DEBF0FBECDBF789484B58260D4
:102E900084BD84B5816084BD85B5826085BD85B5FE
:102EA000816085BD80916E00816080936E0010927C
:102EB00081008091810082608093810080918100F7
:102EC0008160809381008091800081608093800088
:102ED0008091B10084608093B1008091B0008160E6
:102EE0008093B00080917A00846080937A00809112
:102EF0007A00826080937A0080917A00816080936A
:102F00007A0080917A00806880937A001092C100E4
:102F100010925E0610928D06E0912707F091280727
:102F200082E08083E0912307F09124071082E091F2
:102F30002507F091260783E3808310922F07E09105
:102F40002B07F0912C0786E08083E0912907F09110
:102F50002A07808180618083E0912907F0912A0708
:102F6000808188608083E0912907F0912A07808121
:102F700080688083E0912907F0912A0780818F7D06
:102F8000808368EB7BE080E090E00E949B048EEB06
:102F900091E00E94720D8EEB91E00E94720D8EEB1B
:102FA00091E00E94720D89ED91E00E94720D8EEB0E
:102FB00091E00E94720D90E080E00E94D329898305
:102FC00081E090E00E94D3298A8384E090E00E940F
:102FD000D32929813A812A31324609F070C18230E1
:102FE00009F06DC18FEE91E00E94720DA9E5EA2E05
:102FF000A1E0FA2E0AE010E0C8010E94D329D7010F
:103000008D937D010F5F1F4F05321105A9F70BE569
:1030100016E06801F4E6EF2EF12CC7010E94D329D7
:10302000D6018D936D01BFEFEB1AFB0AE3E9EE16B3
:10303000F10499F77AE8C72E76E0D72EE4EBEE2E6E
:10304000F12CC7010E94D329D6018D936D01BFEFEA
:10305000EB1AFB0AE3EEEE16F10499F78091720188
:103060008651893E08F425C120915A0130E090E054
:1030700080E08217930714F00C946429F8014081D2
:10308000463108F07DC14181463108F079C1015DCA
:103090001F4F32964081463108F072C10196E9CF48
:1030A00081E080935906809172018F3F19F062E0B0
:1030B0000E947A0280915A01833018F082E0809356
:1030C0005A018EEB91E00E94720D8DE392E00E9416
:1030D000210D809159010E94800D8CEB91E00E949E
:1030E000210D89E492E00E94210D4AE06AE172E636
:1030F00080E090E00E942E0D8CEB91E00E94210D6B
:103100008EEB91E00E94720D0E9476078CE0809316
:10311000B8008AE592E00E94720D809159018E5CA0
:103120008093600130915D0138AB20915E0129AB45
:1031300090915F019AAB8BAB40913C04411105C06B
:103140008093310181E080933C04809134048111AB
:1031500009C0309328012093290190932A0181E02E
:103160008093340430935501209356019093570176
:103170001FB7F89480912804811127C0E7E2F1E09D
:103180008491EBE3F1E09491E82FF0E0EE0FFF1F64
:10319000E050FF4FA591B491EC91E92321F461E057
:1031A0008AE00E944C0261E08AE00E947A028CB5BB
:1031B00080618CBD8CB580648CBD61E08DE00E9427
:1031C0007A0261E08BE00E947A02809128048F5F8E
:1031D000809328041FBF10922A0410922904809122
:1031E000290481113CC064EF71E080E090E00E940E
:1031F0009B048EE693E00E94210DF89460E08AE043
:103200000E944C028FEF0E9482058FEF0E94820580
:1032100061E08AE00E944C02789462E070E080E015
:1032200090E00E949B04F89460E08AE00E944C02C7
:103230008DE10E94820580E00E9482051EB561E05A
:103240008AE00E944C0278941170109329048091B6
:103250002A048F5F80932A04863008F4C0CF8091BF
:10326000290480933304882309F410C21092B20415
:1032700087E390E0C12CD12C7601C394009709F428
:1032800085C0FC0143E0F595E7954A95E1F7E45DDB
:10329000FB4F282F2770B701A60104C0440F551F0C
:1032A000661F771F2A95D2F72081242B2083019750
:1032B000E5CF1092590688E092E00E94720D83E2F9
:1032C00092E00E94720D8FEF8093720183E08093F1
:1032D0005B0686E080935C0689E080935D0682E071
:1032E00080938A0684E080938B0685E080938C0629
:1032F00040E050E060EA70E440937C0650937D0625
:1033000060937E0670937F0610928006109281066D
:1033100010928206109283061092840610928506FF
:1033200010928606109287068093880692E3909307
:1033300089064093AB065093AC066093AD0670933C
:10334000AE061092AF061092B0061092B10610921F
:10335000B2061092B3061092B4061092B5061092FF
:10336000B6068093B7069093B806E2E6F1E08FEFD9
:10337000819321E0E237F207D9F70E949E1293CEA3
:1033800080E08093590681118ECE95CF6CE271E07A
:103390008FE594E00E947C1084E690E090934504D1
:1033A000809344040CB406FC25C061E08AE00E94CE
:1033B0007A0261E08AE00E944C0261E08BE00E94A8
:1033C0007A0261E08DE00E947A0260E08CE00E9467
:1033D0007A0261E08BE00E944C0260E08BE00E9488
:1033E0004C0260E08DE00E944C0280E58CBD8DB502
:1033F00081608DBD8AE080932B0461E00E947A0297
:103400000E9487054FEF60E08FEF0E94BB0562E0EE
:1034100070E080E090E00E949B040E948E058DE1A8
:103420000E94820580E00E9482051EB50E948705E9
:10343000112399F370E060E088E00E94F90570E0E4
:1034400060E08CE00E94F9056FEF7BE08AE00E946B
:10345000F90560E07CE084E00E94F9056FEF71E11E
:1034600086E00E94F90566E774E084E10E94B606F2
:1034700061EB88E30E94EC056FE370E388E20E9451
:10348000F90569EF77EF80E30E94F90561E080ECD0
:103490000E94EC0542E362EC80E80E94BB0562E119
:1034A0007CE086EC0E94F90562E184EC0E94EC0568
:1034B0006CED75E08AEC0E94F90560915F0484EE82
:1034C0000E94EC056091600485EE0E94EC0560911D
:1034D000610482EE0E94EC056091620483EE0E941A
:1034E000EC056091630480EE0E94EC056091640439
:1034F00081EE0E94EC0560E071E080E10E94B6067A
:103500008FE10E94D00540EC6BE180E80E94BB0592
:1035100044E06FE180E80E94BB0582E70E94060656
:103520008EEB91E00E94720D80E792E00E94720D96
:103530001092B204BE01605D7F4F83E197E00E946C
:103540008F101092B0041092AF0481E08093B10408
:1035500068E271E08BEA94E00E948F1064E271E00F
:1035600086EA94E00E948F1060E271E08FE097E0BD
:103570000E948F1003E117E02FE037E045E654E0AA
:10358000F8019191D9018D919D018095892BDA01E6
:103590008D93AD01B7E0E731FB0799F78091910476
:1035A000883098F425E0829FF0011124E759FB4F01
:1035B00023ED34E13183208328ED30E73383228308
:1035C00091E094838F5F8093910464EF71E080E0D9
:1035D00090E00E949B040E94150D882309F44FC0BF
:1035E0008EEB91E00E94720D8BE892E00E94210D1B
:1035F000F12CD8018D918D010E94800DB3E0FB1656
:1036000029F06EE287E197E00E94B601F394E4E0CE
:10361000FE12EFCF8CEB91E00E94210D8CE992E03D
:103620000E94720DF12CE12C3FE2D32E80915A01C1
:103630008E151F0409F00CF452C0DE9C8001DF9C43
:10364000100D1124055A194F62E0D8018C910E9487
:103650007A0261E0F80181810E947A0261E0D8017A
:1036600012968C910E947A02E114F104D1F0B1E03B
:10367000EB16F10431F1EFEFEE1AFE0AD7CF82EB31
:1036800092E00E94720D80ED92E0CACF8EEB91E045
:103690000E94720D85EE92E00E94720D8EEB91E019
:1036A000F0CF80915B06823041F0833041F481E0BD
:1036B00063E473E00E94FA00DECF80E0F9CF8FEF81
:1036C000F7CF80918A06823031F0833031F481E087
:1036D0006FEE73E0EFCF80E0FBCF8FEFF9CF8091FB
:1036E0006101843008F08BC1823008F06AC202E6C2
:1036F00011E022E7E22E21E0F22E813009F455C2DA
:103700008EEB91E00E94720D84E993E00E94720DAD
:103710008EEB91E00E94720DFE013D96FDABECAB8D
:103720009E01225F3F4F3FAB2EAB0E94150D8823B9
:1037300009F48BC580914804882379F06091460490
:10374000709147046115710509F0ADC26FEF7BE020
:103750008CE00E94F9051092480489E30E94060655
:10376000F12CE12C8823D9F1609146047091470433
:1037700080E00E94F905BE016F5F7F4F86E090E018
:103780000E94940589819A8190934704809346040E
:103790008D819E817C0130E8E322FF2487FF13C0E6
:1037A0008B819C810497E0904404F090450441E0B3
:1037B000E41AF1088E159F0508F47C0165EF75E0A9
:1037C000C7010E949405F701EB50FA4F108281E087
:1037D0008093480440E46EE180E80E94BB0580913C
:1037E000B204882369F080915E04823009F464C2D7
:1037F00008F05CC2882309F4E7C2813009F403C3EE
:10380000E114F10409F08EC38091B104857099F040
:103810008091AF049091B004892B69F40E941E0638
:1038200082FF09C08BEA94E00E94F6108091B104F7
:1038300088608093B1048091AF049091B0040196A8
:103840009093B0048093AF048091AA04813009F072
:103850006EC08091B10481FF6AC082E08093AA04A7
:10386000809133018F5F80933301182F1F7180EA9D
:1038700094E00E94D80060EA74E0882309F44FC302
:1038800082E994E00E94CD1008E0009301061092B6
:10389000020649E050E06AE071E083E096E00E94B1
:1038A000CA298CE28093060686E080930C060E946B
:1038B00073051092190610921A068BE08093170672
:1038C00010931806EBE1F6E0DF011D920A95E9F787
:1038D0008091320180931D068D5F8093320180E6D6
:1038E0008093230682E08093240693E0909325063C
:1038F000109226061092270610922806109229068A
:1039000010922A0680932B0694E090932C068093C5
:103910002D0686E280932E0622E040E250E06AE126
:1039200082E30E9420058AE390E00E94340686EA42
:1039300094E00E94D800882379F08091A504811139
:103940000BC08091A404811107C086EA94E00E9414
:10395000F61081E08093A40480EA94E00E94D800ED
:10396000882379F080919F0481110BC080919E047F
:10397000811107C080EA94E00E94F61081E08093F4
:103980009E04809140010BE516E0312C212C882308
:1039900009F4E8C443EE54E05DAF4CAF312C212C68
:1039A00080915A018215130409F00CF457C7D8010D
:1039B00050968C915097823008F447C6853008F4B1
:1039C00037C5853009F041C660E0822D0E940F0B9B
:1039D000BC01990F880B990B0E94052BF801608799
:1039E000718782879387FFEF2F1A3F0A015D1F4F70
:1039F0002CAD3DAD2C5F3F4F3DAF2CAFD1CF8430D0
:103A000009F07ECE8EEB91E00E94720D8AE593E084
:103A10000E94720D16E001E080E2F82E8091EB0426
:103A200081111CC08EE693E00E94210D0093EB06ED
:103A3000F0920D071092EC0610920E0781E00E94A2
:103A4000AE0791E0811190E09093EB0464EF71E098
:103A500080E090E00E949B04115001F78EEB91E012
:103A60000E94720D8091EB04882309F419C180E74C
:103A700093E00E94720D86E090E00E94022E8C017D
:103A800080E2F801808384EB97E092838183138244
:103A900080E290E0958384831093C1070093C00770
:103AA0000E94760781E0D80113968C93C8010E948A
:103AB000EA0A02E611E099249394B3E0EB2EF12C8C
:103AC0005E01B5E1AB0EB11CFE0131966F01D8016C
:103AD000ED918D0181E0E83008F480E09091C40719
:103AE000682F993008F460E070E02091C2073091AF
:103AF000C3072115310549F04091C50750E0542F07
:103B00004427550F5064642B752B4091C00750918A
:103B1000C1071CA21DA21EA21FA2388F2F8B5E8B75
:103B20004D8BFA8EE98E9E8E7C8F6B8F1F8E9D8EB5
:103B3000993008F4B2C090E08C602115310549F04D
:103B40006091C50770E0762F6627770F7064862B2B
:103B5000972B188A198A1A8A1B8A3C832B835A83CB
:103B60004983FE82ED829A8698878F831B86998689
:103B7000E770BDA6ACA69EA6EFA7D9A6C8A69AA632
:103B8000EBA740E050E0BA01CE018C960E94870D71
:103B900040E050E0BA01CE0188960E94870DB1E066
:103BA00002371B0709F093CFABCDD8018D918D0162
:103BB0008F3F19F061E00E947A02E016F106A9F742
:103BC0009FCD8EEB91E00E94720D84E093E00E9405
:103BD000720D16E001E090E2F92E8091FC04811153
:103BE0001CC08EE693E00E94210D0093EB06F0923C
:103BF0000D071092EC0610920E0781E00E94AE07AE
:103C000091E0811190E09093FC0464EF71E080E01A
:103C100090E00E949B04115001F78EEB91E00E940E
:103C2000720D8091FC04882399F186E293E00E9452
:103C3000720D84EB97E090934A018093490180E2F2
:103C400080934B01109251011092500140E551E0D8
:103C500064E00E949E08109253011092520142E5C6
:103C600051E066E080914B010E949E088FEF9FEF2C
:103C700090934F0180934E014EE451E062E08091B9
:103C80004B010E949E088EEB91E00E94720D38CD90
:103C90008EE393E00E94720DF6CF86E090E04DCF68
:103CA00080E893E0F2CF6150710952CD833009F47E
:103CB00056C0843009F0A4CD65E0C7010E94C90652
:103CC000882309F4C9C080914D04811108C088E39C
:103CD0000E940606682F6E7F88E30E94EC056FE263
:103CE00076E083E197E00E948F10EFE0F7E0970124
:103CF0002B503A4F69018F010E5F1F4FB1808081B9
:103D0000863009F4FBC008F0BEC0813009F4ECC075
:103D1000833009F4EFC0F801EB0DF11DEC15FD0542
:103D200050F30E94CD04609356047093570480931F
:103D30005804909359048091AB04882361F0109249
:103D4000B0041092AF0481E08093B1046BEA74E098
:103D5000CB010E948F1083E080935E0451CD809050
:103D60005A0490905B04A0905C04B0905D045FEFF7
:103D700085169506A506B50609F442CD0E94CD0428
:103D80000091560410915704209158043091590421
:103D9000601B710B820B930B681579058A059B05D7
:103DA00008F42ECD83E197E00E94861184E0809391
:103DB0005E040E94CD046093520470935304809378
:103DC0005404909355041CCD0E94CD0460934E047E
:103DD00070934F048093500490935104E3E1F7E013
:103DE00084E0DF011D928A95E9F790E080E00E946F
:103DF000861188E30E940606682F616088E30E94AE
:103E0000EC0581E0D4CF62E0C7010E94C906882397
:103E100019F16FE276E0CE0101960E948F10EFE07B
:103E2000F7E0C7018B509A4FBF016E5F7F4F218132
:103E30003081363351F489E494E00E948F10CE0132
:103E400001960E94861182E0B2CFFB01E20FF11DC4
:103E5000E817F90748F3F3CF0E94CD04009152040C
:103E6000109153042091540430915504601B710B40
:103E7000820B930B613177428105910508F4C0CC28
:103E800010925E04BDCC8A3331F08F3F09F449CFE4
:103E9000833309F040CF10925A0410925B041092C1
:103EA0005C0410925D04F801C801049620E030E043
:103EB000A9016191542F432F322F2227260F311D44
:103EC000411D511DE817F907A1F72F3F8FEF380764
:103ED00048075807B9F420935A0430935B04409381
:103EE0005C0450935D0417CFB8018FE097E00E9407
:103EF0008F1011CFB8018BEA94E0F9CFB80186EAB0
:103F000094E0F5CFA8EEB3E00E94E22D60935A044E
:103F100070935B0480935C0490935D04FCCE88E90D
:103F200094E0B0CCB9E2EB16F10408F42ACD80910C
:103F30000106883009F025CD80910206863011F007
:103F40000C947A2944E050E063E177E08BE196E05D
:103F50000E94272F892B09F014CD80910A06813009
:103F600029F58BEF95E00E9484101092090682E0FB
:103F700080930A066BE076E085E196E00E947C1073
:103F80006FE574E08BE096E00E947C1061E176E0E2
:103F90008BE196E00E948F1063E177E081E196E08B
:103FA0000E948F108AE290E00E9434068091B10452
:103FB00083FF0DC010910A06123049F468E974E0DD
:103FC0008BEA94E00E94DF1081111093B10480917C
:103FD000A504811111C08091A404882369F062E9CD
:103FE00074E086EA94E00E94DF10882329F081E0E3
:103FF0008093A5041092A40480919F048111C1CCE8
:1040000080919E04882309F4BCCC62E974E080EAC4
:1040100094E00E94DF10882309F4B3CC81E0809300
:104020009F0410929E04ADCC90919104911122C0F6
:10403000E6E3EE16F10408F4A4CC00910C06063079
:1040400009F09FCC809119068B3009F0ACC044E098
:1040500050E060EA74E08FE096E00E94272F892B01
:1040600009F08FCC1091240612FF51C085E0809397
:10407000AA0487CC8131E1F639E6C32E34E0D32E91
:10408000B12CA12C20E0809191048A151B04D9F158
:10409000D4F1D60112963C91129713969C911397E6
:1040A000809119069EAF1FAEEEADFFAD8E171F06B5
:1040B00019F580911A0683131FC014969C901497CB
:1040C0009920D1F000911B0610E0102F00272091BD
:1040D0001C062850330B020F131F409117065091F6
:1040E0001806542745275427ED91FC912FE136E01F
:1040F0006FE076E00995292DFFEFAF1ABF0A35E092
:10410000C30ED11CC0CF222309F492CF3ACC0E9417
:10411000DA042091AA04223091F5212F2071127126
:10412000123109F560E090E080E00E94A91088E17A
:104130008093240683E08093AA041092050688E207
:10414000809306060E947305109227061092280697
:1041500022E04CE150E06AE182E30E94200586E320
:1041600090E00C94C62931E03093AA0401962223F2
:1041700011F090E080E064E00E94A91002CC2530AC
:1041800009F4FFCB10FF0AC0233009F4FACB69E031
:1041900001960E94A9100093AA04F3CB60E0009757
:1041A00009F4EFCBE9CF8111ECCB80911A06803571
:1041B00009F0E7CB1091240611FF3AC010920506D2
:1041C0008CE2809306060E94971082E18093240679
:1041D00060E081E090E00E94F50410921B061092CE
:1041E0001C068091320180931D0610921E068D5F81
:1041F0008093320182E080932B0684E080932C062A
:1042000085E080932D0610922E0690E6909323066B
:104210008093250688E78093260622E040E250E05E
:104220006AE182E30E9420058AE390E00C94C629AB
:1042300014FFA7CB0E94DA04892B09F0A2CB10FF50
:10424000A0CB60E090E080E097CF87E197E00E940C
:104250007401892B09F495CB87E197E00E947401E2
:10426000C3978CF087E197E00E947401892B29F0B5
:1042700087E197E00E945201F5CF1092DA04109284
:10428000D9041092D8048091D804882361F1009158
:10429000D70410E087E197E00E9474019801225052
:1042A0003109821793070CF46CCB86EBE82E84E07F
:1042B000F82EC701845B94408017910744F487E18E
:1042C00097E00E945201D7018D937D01F2CFB80192
:1042D00084EB94E00E9409131092DA041092D9043E
:1042E0001092D8044ECB8091D9049091DA04873F84
:1042F000BEE79B0718F5853FEEE79E0778F5843FFC
:104300009E4729F187E197E00E9452019091B30402
:1043100022968FAF229721961FAE219722962EAD1F
:104320003FAD2297292B3093DA042093D904909340
:10433000B4048093B5048093B30423CB873F2EE766
:10434000920771F08C3B9F47E9F681E201C08EE055
:104350008093D70481E08093D80413CB8AE0F8CF10
:1043600086E0F6CF80915A018215130409F00CF40F
:1043700075C2D80150968C9150978530A9F461E0B0
:10438000822D0E940F0BBC01990F880B990B0E9484
:10439000052BF8016087718782879387FFEF2F1ABB
:1043A0003F0A015D1F4FDECF5D96CD90DD90ED9011
:1043B000FC909097F801C086D186E286F38620E0D3
:1043C00030E0A901C701B6010E94562A412C512CA8
:1043D000B0E86B2EBFE37B2E87FF06C0412C512C2B
:1043E000A0E86A2EAFEB7A2E20E030E0A901C701E9
:1043F000B6010E94B52B181624F0F7FAF094F7F8DE
:10440000F094D8019E966C9170E090E080E00E945C
:10441000052B4B015C01A70196010E94562A87FFDC
:10442000BDCFA3019201C501B4010E94BA2BB1CF47
:1044300013968C911397882309F403C120E030E090
:10444000A90155966D917D918D919C9158970E94EF
:10445000B52B18160CF0F5C0ECADFDADC080D180C9
:10446000E280F3800E94CD049101220F331F220FBE
:10447000331FA90145525B4F5A01DA014D905D90FF
:104480006D907C9064197509860997090E94032B29
:1044900020E030E048E452E40E94B52B87FDC1C023
:1044A0000E94CD04F5016083718382839383D801D8
:1044B00055962D913D914D915C91589728AF39AF0C
:1044C0004AAF5BAF14962D913D914D915C9117973A
:1044D00068AD79AD8AAD9BAD0E94E9292B013C0105
:1044E00020E030E0A9010E94B52B530142011816CB
:1044F00024F0B7FAB094B7F8B0942FE832EC45EF57
:104500005CE368AD79AD8AAD9BAD0E94BA2BA50185
:1045100094010E94562A87FF84C088AC99ACAAAC4B
:10452000BBACB7FAB094B7F8B094A5019401C3013D
:10453000B2010E94562A87FD10C0A301920168AD06
:1045400079AD8AAD9BAD0E94562A5301420187FF87
:1045500004C088AC99ACAAACBBAC20E030E0A901A7
:10456000C501B4010E94B52B24013501181624F0B1
:1045700077FA709477F87094F80121A132A143A1E1
:1045800054A1C501B4010E94BA2B4B015C012AE978
:1045900039E949E95EE368AD79AD8AAD9BAD0E942A
:1045A000BA2BA30192010E94562AA501940187FD0E
:1045B0000AC020E030E040E45FE3C501B4010E949E
:1045C000BA2B9B01AC01C701B6010E94EA296B011D
:1045D0007C01D8019D96BC906B2D70E090E080E04E
:1045E0000E94052BA70196010E94B52B18164CF4CA
:1045F0006B2D70E090E080E00E94032B6B017C014A
:1046000010C0F801B6A46B2D70E090E080E00E942D
:10461000052B9B01AC01C701B6010E94B52B1816F2
:104620003CF3ACADBDADCD92DD92ED92FC92139713
:10463000C701B6010E94CD2A072E000C880B990BEA
:10464000CBC9C12CD12C7601F3CFD80113968C9114
:1046500081110DC0812C912C5401ACADBDAD8D925A
:104660009D92AD92BC921397C501B401E3CF20E0B7
:1046700030E0A901F801658976898789908D0E94CB
:10468000B52B18163CF7ACADBDAD8D909D90AD909F
:10469000BC900E94CD049101220F331F220F331FC3
:1046A000F901E552FB4F7F014080518062807380A9
:1046B00064197509860997090E94032B20E030E0F0
:1046C00048E452E40E94B52B87FDC7CF0E94CD0479
:1046D000D7016D937D938D939C931397F8018588F3
:1046E0009688A788B08C2481358146815781C50181
:1046F000B4010E94E9292B013C0120E030E0A9012E
:104700000E94B52B73016201181624F0F7FAF09499
:10471000F7F8F0942FE832EC45EF5CE3C501B40103
:104720000E94BA2BA70196010E94562A87FF92CFBA
:1047300075016401F7FAF094F7F8F094A701960177
:10474000C301B2010E94562A87FD0CC0A301920149
:10475000C501B4010E94562A7501640187FD02C09B
:104760007301620120E030E0A901C701B6010E9497
:10477000B52B26013701181624F077FA709477F8D4
:1047800070942AE939E949E95EE3C501B4010E9460
:10479000BA2BA30192010E94562A87FF32C0D8018A
:1047A00091962D913D914D915C919497C701B601E1
:1047B0000E94BA2B6B017C0120E030E0A9010E942D
:1047C000B52B46015701181624F0B7FAB094B7F884
:1047D000B094D8019D967C90672D70E090E080E0C9
:1047E0000E94052BA50194010E94B52B1816BCF45C
:1047F000672D70E090E080E00E94032B4B015C018C
:104800001EC0F80121A132A143A154A1C701B601E4
:104810000E94BA2B20E030E040E45FE3C9CFF8010A
:1048200076A4672D70E090E080E00E94052B9B014C
:10483000AC01C501B4010E94B52B1816CCF220E0E2
:1048400030E0A901C701B6010E94B52B18160CF47F
:1048500004CFB7FAB094B7F8B094FFCE0E94CD045D
:104860000091410110914201209143013091440196
:10487000601B710B820B930B6233710581059105EF
:1048800008F486C30E94CD046093410170934201F5
:1048900080934301909344017BE5672E76E0772E69
:1048A0008301F12CE12C80915A018E151F0409F02F
:1048B0000CF444C00E94CD04D8011C968D909D90AC
:1048C000AD90BC901F97681979098A099B09603AD5
:1048D0007F408105910580F5F80185889688A78835
:1048E000B08C20E030E0A901C501B4010E94B52BD5
:1048F000181624F480915A06811114C0D8015096DC
:104900008C91843049F420E030E0A901C501B40164
:104910000E94B52B181674F08091400181110CC0D3
:1049200080915A06F8018383FFEFEF1AFF0A015DB9
:104930001F4FB9CF81E0F6CF80E0F4CF0E94CD04C5
:1049400000916706109168062091690630916A0609
:10495000601B710B820B930B603A7F4081059105C0
:1049600008F059C100910205E090010580916101B4
:10497000823009F4EAC108F06DC1813009F49CC1AC
:10498000E7EEF5E0F9AFE8AFFFED8F2EF5E09F2EF3
:10499000AFEC2A2EA5E03A2EB7EC4B2EB5E05B2EFD
:1049A0001BE5E12E16E0F12E10E000E06801CC0CD2
:1049B000DD1C960121513A4F5901D9018D919C91ED
:1049C000892B09F4B0C020E030E0A901F701618D26
:1049D000728D838D948D0E94B52B18160CF0A3C098
:1049E0000E94CD04A8ADB9AD6D937D938D939C933A
:1049F0001397F894F50120813181F701818992891B
:104A0000A389B489820F931FA11DB11D818B928B45
:104A1000A38BB48BD50111961C921E92F601ED5119
:104A2000FA4F80819181499724F028E130E0318369
:104A30002083F801EE0FFF1FED51FA4F8081918125
:104A4000D4018D939C93F801EE0FFF1FEE0FFF1F13
:104A5000FDAFECAFE952FA4F80819181A281B38121
:104A6000F10180839183A283B38378946081718103
:104A7000828193810E94032B5B016C01F4016081B0
:104A8000718190E080E00E94032B9B01AC01C60184
:104A9000B5010E945B2A2DEC3CEC4CE45FE30E94E4
:104AA000BA2B5B016C012DEC3CEC4CE45EE3D201D3
:104AB0006D917D918D919C910E94BA2B9B01AC01CF
:104AC000C601B5010E94EA295B016C01F201A082D6
:104AD000B182C282D382AC019B0160EC71EE84E6AC
:104AE0009CE40E945B2AD70159962D913D914D91EE
:104AF0005C915C970E945B2AF701648375838683CF
:104B0000978320E030E040EC5FE3C601B5010E94EE
:104B1000BA2B0E94D42AECADFDADEC5CFE4F608355
:104B20007183828393830E94CD04A8ADB9AD2D918A
:104B30003D914D915D91B9AFA8AF621B730B840B92
:104B4000950B613A7F4081059105C0F1F701148210
:104B5000158216821782F801EE0FFF1FEE0FFF1F5E
:104B6000DF01AC5CBE4F20E231EA47E050E02D931C
:104B70003D934D935C931397C801880F991FDC01F7
:104B8000AD51BA4F11961C921E928D539A4FDC0173
:104B900011961C921E92E952FA4F108211821282D3
:104BA0001382B0E6B09FF001B19FF00D1124ED5FCC
:104BB000FA4FDF0120E61D922A95E9F73FE2E30E66
:104BC000F11C42E0840E911C54E0250E311C84E05F
:104BD000480E511C0130110509F054C110E000E0ED
:104BE00080915A018017110609F00CF4D1C1D3014C
:104BF00050968C91823009F4AFC108F046C18823E9
:104C000009F473C1813009F446C10F5F1F4FFFE201
:104C10006F0E711CE5CF0E94CD0400919606109195
:104C200097062091980630919906601B710B820BB4
:104C3000930B603A7F408105910508F493CE009173
:104C400000058091FF04082BE090FE048091FD0494
:104C5000E82A8CCE833009F4ACC0843009F090CEC1
:104C60008091EB04882309F48BCE82E6A82E81E0A4
:104C7000B82ED12CC12C10E0D5018D915D01803171
:104C800008F4DCC0BFEFCB1ADB0AE8E0CE16D10493
:104C900099F70AE6C02E01E0D02E10E000E0F12CDA
:104CA000D6018D916D01803108F4DAC00F5F1F4F7E
:104CB00008301105A9F764CE62E6A62E61E0B62E93
:104CC000D12CC12C10E0D5018D915D018F3FC9F42D
:104CD000BFEFCB1ADB0AE8E0CE16D104A1F75AE603
:104CE000C52E51E0D52E10E000E0F12CD6018D91BB
:104CF0006D018F3FC1F40F5F1F4F08301105B1F7F1
:104D00003FCE90915B0198010C2C02C03595279500
:104D10000A94E2F7692F20FD03C061E0911160E081
:104D20000E944C02D5CF90915B019701002E02C0EA
:104D3000359527950A94E2F7692F20FD03C061E0BD
:104D4000911160E00E944C02D6CF8091FC04882330
:104D500009F416CE3CEEA32E34E0B32E40E9C42E67
:104D600041E0D42EF12CE12C10E098010E2C02C071
:104D7000359527950A94E2F7B22FB1709B2EF50175
:104D800081915F01B81751F0D6018C9160E020FF4E
:104D900061E00E94DA08F50131979082BFEFEB1ACB
:104DA000FB0AEFEFCE1ADE0AF8E0EF16F104E9F69F
:104DB000E7CD8091FC04882309F4E2CD9CEE892E96
:104DC00094E0992E20E8A22E21E0B22ED12CC12C05
:104DD000F12C10E028E0C216D1042CF5C8010C2CEF
:104DE00002C0959587950A94E2F7382F3170532EBB
:104DF000D4018D914D01851559F0F501808160E058
:104E0000511001C061E00E94DA08F401319750822C
:104E1000FFEFCF1ADF0A2FEFA21AB20A30E1C31652
:104E2000D104C1F6ADCDC6010897A70102C05595C2
:104E300047958A95E2F74170542EDACF90915B0145
:104E400098010C2C02C0359527950A94E2F7692F3A
:104E500020FD03C061E0911160E00E94221012CF9A
:104E600090915B019701002E02C0359527950A9419
:104E7000E2F7692F20FD03C061E0911160E00E941C
:104E8000221014CF01E010E091CD843009F464C009
:104E9000853009F0BACEE0905C01D3011196FC9008
:104EA000119713968C911397882309F44CC020E036
:104EB00030E0A90118966D917D918D919C911B9781
:104EC0000E94B52B87FD54C06E2D8F2D0E944C0281
:104ED000F30160857185828593850E94CD2AD30177
:104EE00012968C910E94B60290CEE0905C01F30184
:104EF000F18020E030E0A90160857185828593858D
:104F00000E94B52B87FD10C06E2D8F2D0E944C0284
:104F1000D30118966D917D918D919C911B970E9464
:104F2000CD2AF3018281DECF61E0E11060E08F2DB8
:104F30000E944C02D30118966D917D918D919C91A8
:104F40001B979058ECCF61E0E11060E08F2D0E943C
:104F50004C026FEF70E0E5CFD30113968C9113975D
:104F6000882399F0E0905C011196FC9011979FCFF7
:104F700061E0E11060E08F2D0E944C02F30160853A
:104F80007185828593859058A8CF70E060E0C9CF85
:104F90000E94CD0400913C0110913D0120913E0101
:104FA00030913F01601B710B820B930B693C7105C3
:104FB0008105910508F450C10E94CD0460933C0125
:104FC00070933D0180933E0190933F010BE516E005
:104FD000D12CC12C20E9722E3EE7632E809159011D
:104FE00090915A019C151D0409F00CF4AAC0798215
:104FF0006A8220E1829FC00111248C298B8320E0EA
:1050000030E04AE754E4D80114966D917D918D917A
:105010009C9117970E94BA2B0E94D42A6C837D839F
:105020008E83F801818C928CA38CB48C20E030E0CC
:10503000A901C501B4010E94B52B18160CF063C07C
:10504000D80151966D917D918D919C9154970E94BC
:10505000032B20E030E040E251E40E94BA2BA5018E
:1050600094010E945B2A0E94D42A6F8378878987E3
:10507000F80160857185828593850E94CD2A6A87B3
:105080007B871C860E94CD04D8011C968D909D9034
:10509000AD90BC901F97681979098A099B09603AFD
:1050A0007F408105910518F48C8581608C87FE0115
:1050B000319690E080E02191820F911D2CA93DA9AD
:1050C0002E173F07C1F78D870E94150D8823F9F031
:1050D0004FE255E765E571E083E094E10E942A1113
:1050E0008DE0FE013196AFE1B6E001900D928A9518
:1050F000E1F78DE090E00E949406FFEFCF1ADF0AFF
:10510000015D1F4F6BCF1F8218861986B1CF898131
:105110000E94800D7E0132E0E30EF11C84EA93E0F0
:105120000E94210DD7018D917D010E94800DEEA975
:10513000FFA9EE15FF0591F78EEB91E00E94720D2D
:10514000DCCF91E999839EE79A838B831C821D8231
:105150001E821F82188619861A861B868AE18C8712
:1051600082E68D871E86209172012F3F09F48AC046
:1051700030E0F901EB5BFE4F8491F901EF5CFE4FEB
:105180001491F901E35EFE4F0491002309F474C009
:1051900081110E942302E02FF0E0EE0FFF1FED5E71
:1051A000FE4FA591B491EC911E2331E020E009F46B
:1051B00030E0832F922F282F2170309173013323F9
:1051C00009F45DC03091F405231751F0892B31F0BB
:1051D0008091F30591E089278093F3052093F405EE
:1051E0008091F305882319F08E8581608E870E9457
:1051F000150D882319F08E8580618E878091590660
:10520000882319F08E8580628E879E01215F3F4F33
:10521000FE01319690E080E04191840F911D2E17A0
:105220003F07D1F78F870E94150D882371F14FE258
:1052300055E765E571E083E094E10E942A118FE073
:10524000FE013196AFE1B6E001900D928A95E1F74B
:105250008FE090E00E94940680E090E0892B11F4AA
:105260000C94951B0E948001882311F40C94951BCB
:105270000E9400000C94951B90E080E09CCF20934E
:10528000F305AECF1092F305ABCF89810E94800D5C
:105290008E010E5F1F4FEE24E394F12CEC0EFD1EE9
:1052A0002FE0E20EF11C84EA93E00E94210DD80168
:1052B0008D918D010E94800DE016F106A1F78EEB15
:1052C00091E00E94720DC8CF80916101813011F090
:1052D0000C945018E2E6F1E022E731E0819186512A
:1052E000893E10F40C94C0192E173F07B9F781E0DE
:1052F0000C94C119B9E2EB16F10411F40C94C11C21
:1053000081110C94C11C80910306853411F00C941A
:10531000C11C44E050E063E177E083E196E00E9445
:10532000272F892BB1F044E050E065E674E083E17B
:1053300096E00E94272F892B61F044E050E06AE755
:1053400071E083E196E00E94272F892B11F00C94E5
:10535000C11C80910C06813011F00C9414209091A6
:105360001706983011F00C9414200E949710109298
:10537000170680911906883F28F090911A069F5FC2
:1053800090931A06885F80931906C7010E9434061D
:105390000C94C11CFB01DC0102C005900D92415030
:1053A0005040D8F70895F999FECF92BD81BDF89A83
:1053B000992780B50895262FF999FECF1FBA92BD7F
:1053C00081BD20BD0FB6F894FA9AF99A0FBE0196E6
:1053D00008955058BB27AA270E94012A0C947B2BC2
:1053E0000E946D2B38F00E94742B20F039F49F3FFF
:1053F00019F426F40C946A2B0EF4E095E7FB0C9458
:10540000642BE92F0E948C2B58F3BA17620773079D
:105410008407950720F079F4A6F50C94AE2B0EF4D2
:10542000E0950B2EBA2FA02D0B01B90190010C01B4
:10543000CA01A0011124FF27591B99F0593F50F4CC
:10544000503E68F11A16F040A22F232F342F442724
:10545000585FF3CF469537952795A795F04053951C
:10546000C9F77EF41F16BA0B620B730B840BBAF0EC
:105470009150A1F0FF0FBB1F661F771F881FC2F757
:105480000EC0BA0F621F731F841F48F4879577956B
:105490006795B795F7959E3F08F0B0CF9395880F25
:1054A00008F09927EE0F9795879508950E94402B55
:1054B00008F481E008950E946F2A0C947B2B0E94CF
:1054C000742B58F00E946D2B40F029F45F3F29F0B7
:1054D0000C94642B51110C94AF2B0C946A2B0E94EA
:1054E0008C2B68F39923B1F3552391F3951B550B3E
:1054F000BB27AA2762177307840738F09F5F5F4FA7
:10550000220F331F441FAA1FA9F335D00E2E3AF0E5
:10551000E0E832D091505040E695001CCAF72BD0FD
:10552000FE2F29D0660F771F881FBB1F261737074E
:105530004807AB07B0E809F0BB0B802DBF01FF2780
:1055400093585F4F3AF09E3F510578F00C94642BCE
:105550000C94AF2B5F3FE4F3983ED4F38695779598
:105560006795B795F7959F5FC9F7880F911D969539
:10557000879597F90895E1E0660F771F881FBB1F95
:10558000621773078407BA0720F0621B730B840B42
:10559000BA0BEE1F88F7E09508950E94D42A68940C
:1055A000B1110C94AF2B08950E94942B88F09F5753
:1055B00098F0B92F9927B751B0F0E1F0660F771F37
:1055C000881F991F1AF0BA95C9F714C0B13091F02D
:1055D0000E94AE2BB1E008950C94AE2B672F782F6C
:1055E0008827B85F39F0B93FCCF3869577956795F2
:1055F000B395D9F73EF490958095709561957F4F5E
:105600008F4F9F4F0895E89409C097FB3EF4909503
:105610008095709561957F4F8F4F9F4F9923A9F08B
:10562000F92F96E9BB279395F6958795779567951A
:10563000B795F111F8CFFAF4BB0F11F460FF1BC05E
:105640006F5F7F4F8F4F9F4F16C0882311F096E9F1
:1056500011C0772321F09EE8872F762F05C066239F
:1056600071F096E8862F70E060E02AF09A95660F58
:10567000771F881FDAF7880F9695879597F9089511
:10568000990F0008550FAA0BE0E8FEEF1616170653
:10569000E807F907C0F012161306E407F50798F0BB
:1056A000621B730B840B950B39F40A2661F0232BD4
:1056B000242B252B21F408950A2609F4A140A69550
:1056C0008FEF811D811D089597F99F6780E870E035
:1056D00060E008959FEF80EC089500240A94161668
:1056E000170618060906089500240A9412161306D0
:1056F000140605060895092E0394000C11F488235E
:1057000052F0BB0F40F4BF2B11F460FF04C06F5F79
:105710007F4F8F4F9F4F089557FD9058440F551F4F
:1057200059F05F3F71F04795880F97FB991F61F023
:105730009F3F79F087950895121613061406551F9A
:10574000F2CF4695F1DF08C0161617061806991F06
:10575000F1CF86957105610508940895E894BB27FB
:1057600066277727CB0197F908950E94402B08F40C
:105770008FEF08950E94CD2B0C947B2B0E946D2BF4
:1057800038F00E94742B20F0952311F00C94642BB8
:105790000C946A2B11240C94AF2B0E948C2B70F369
:1057A000959FC1F3950F50E0551F629FF001729FC6
:1057B000BB27F00DB11D639FAA27F00DB11DAA1FD5
:1057C000649F6627B00DA11D661F829F2227B00D22
:1057D000A11D621F739FB00DA11D621F839FA00DAD
:1057E000611D221F749F3327A00D611D231F849FFD
:1057F000600D211D822F762F6A2F11249F57504054
:105800009AF0F1F088234AF0EE0FFF1FBB1F661FCE
:10581000771F881F91505040A9F79E3F510580F097
:105820000C94642B0C94AF2B5F3FE4F3983ED4F3BD
:10583000869577956795B795F795E7959F5FC1F73B
:10584000FE2B880F911D9695879597F90895FA017B
:10585000EE0FFF1F309621053105A1F1611571058D
:1058600061F48038BFE39B0749F168949038810563
:1058700061F08038BFEF9B0741F099234AF5FF3F65
:10588000E1053105210519F1E8940894E795D9015E
:10589000AA2329F4AB2FBE2FF85FD0F310C0FF5F0F
:1058A00070F4A695E0F7F73950F019F0FF3A38F4A4
:1058B0009F779F930DD00F9007FC9058089546F066
:1058C0000C946A2B60E070E080E89FE308954FE756
:1058D0009F775F934F933F932F930E94222D2F9199
:1058E0003F914F915F910E94BA2B0C947F2C29F429
:1058F00016F00C94642B0C94AE2B0C946A2B0E9423
:10590000942BA8F39638A0F707F80F92E8942BE3AE
:105910003AEA48EB5FE70E94D02B0F920F920F926A
:105920004DB75EB70F920E946A2DE8E6F0E00E9444
:10593000B12C4F915F91EF91FF91E595EE1FFF1F05
:1059400049F0FE57E0684427EE0F441FFA95E1F74F
:105950004195550B0E94E42C0F9007FE0C94D82C17
:105960000895DF93CF931F930F93FF92EF92DF92EF
:105970007B018C01689406C0DA2EEF010E94CD2BCA
:10598000FE01E894A5912591359145915591A6F395
:10599000EF010E94012AFE019701A801DA9469F73C
:1059A000DF90EF90FF900F911F91CF91DF910895BD
:1059B0009B01AC0160E070E080E89FE30C945B2AFF
:1059C0000C94642B0C949E2D0E94942BD8F3992355
:1059D000C9F3940F511DA3F39150504094F059F026
:1059E000882332F0660F771F881F91505040C1F70F
:1059F0009E3F51052CF7880F911D9695879597F935
:105A000008955F3FACF0983E9CF0BB278695779554
:105A10006795B79508F4B1609395C1F7BB0F58F738
:105A200011F460FFE8CF6F5F7F4F8F4F9F4FE3CF41
:105A30000C94AF2B16F00C949E2D0C946A2B68944A
:105A40000C94642B0E94942BA8F39923C1F3AEF31A
:105A5000DF93CF931F930F93FF92C92FDD278823E6
:105A60002AF02197660F771F881FDAF720E030E0D1
:105A700040E85FEB9FE3883920F0803E38F02196C4
:105A80008F770E94EA29E0E9F0E004C00E94EA2949
:105A9000EDEBF0E00E94B12C8B01BE01EC01FB2E7E
:105AA0006F5771097595771F880B990B0E94052B0D
:105AB00028E132E741E35FE30E94CD2BAF2D98014F
:105AC000AE01FF900F911F91CF91DF910E94012AAB
:105AD0000C947B2BFA01DC01AA0FBB1F9B01AC01CC
