:100000000C94AE000C94C6150C949F150C94D6005D
:100010000C94D6000C94D6000C94D6000C94D60008
:100020000C94D6000C94D6000C94D6000C94D600F8
:100030000C94D6000C94D6000C94D6000C94D600E8
:100040000C9455150C94D6000C9423150C94FD14A7
:100050000C94D6000C94D6000C94D6000C94D600C8
:100060000C94ED150C94D60007634236B79BD8A7C5
:100070001A39685618AEBAAB558C1D3CB7CC5763CD
:10008000BD6DEDFD753EF6177231BF000000803F7B
:1000900008000000BE922449123EABAAAA2ABECD97
:1000A000CCCC4C3E00000080BEABAAAAAA3E000009
:1000B0000000BF000000803F000000000008417801
:1000C000D3BB4387D1133D190E3CC3BD4282AD2B38
:1000D0003E68EC8276BED98FE1A93E4C80EFFFBE30
:1000E00001C4FF7F3F0000000000638253630001F2
:1000F00008000604000100000000250028002B0075
:1001000000000000240027002A0000000000230057
:100110002600290004040404040404040202020268
:1001200002020303030303030102040810204080BA
:100130000102040810200102040810200000000839
:10014000000201000003040700000000000000009E
:10015000450000820000400020000C1711241FBE43
:10016000CFEFD8E0DEBFCDBF13E0A0E0B1E0E4EF19
:10017000F3E602C005900D92A439B107D9F727E044
:10018000A4E9B3E001C01D92A735B207E1F710E082
:10019000CEEAD0E004C02197FE010E94B130CD3AF2
:1001A000D107C9F70E9470170C94F8310C94000025
:1001B000CF93DF93209181062223C1F0FC0120819F
:1001C0002223A1F0C1E8D6E0ADE7B6E09C012C5FA8
:1001D0003F4F899141919D918427892339F4E217FA
:1001E000F307B9F781E0DF91CF91089580E0FBCF6D
:1001F000089508958230C8F4E82FF0E0EE0FFF1F55
:10020000E35CFE4F71836083813041F0809169002F
:100210008C7F826080936900E89A089580916900DC
:10022000837F886080936900E99A0895AF92BF92B6
:10023000CF92DF92EF92FF920F931F93CF93DF93B2
:100240006C017B018B01040F151FEB015E01AE18E1
:10025000BF08C017D10759F06991D601ED91FC9103
:100260000190F081E02DC6010995892B79F7C50130
:10027000DF91CF911F910F91FF90EF90DF90CF9082
:10028000BF90AF900895FC01538D448D252F30E031
:10029000842F90E0821B930B541710F0CF96089593
:1002A00001970895FC01918D828D981761F0A28DC0
:1002B000AE0FBF2FB11D5D968C91928D9F5F9F7386
:1002C000928F90E008958FEF9FEF0895FC01918D3C
:1002D000828D981731F0828DE80FF11D858D90E0A9
:1002E00008958FEF9FEF0895FC01918D228D892F46
:1002F00090E0805C9F4F821B91098F73992708952E
:1003000085E896E00E94740121E0892B09F420E041
:10031000822F089580E090E0892B29F00E948001CF
:1003200081110C9400000895FC01A48DA80FB92F31
:10033000B11DA35ABF4F2C91848D90E001968F730D
:100340009927848FA689B7892C93A089B1898C912C
:10035000837080648C93938D848D981306C002887B
:10036000F389E02D80818F7D80830895EF92FF9245
:100370000F931F93CF93DF93EC0181E0888F9B8DC8
:100380008C8D98131AC0E889F989808185FF15C082
:100390009FB7F894EE89FF896083E889F9898081A5
:1003A0008370806480839FBF81E090E0DF91CF9174
:1003B0001F910F91FF90EF900895F62E0B8D10E096
:1003C0000F5F1F4F0F731127E02E8C8D8E110CC005
:1003D0000FB607FCFACFE889F989808185FFF5CF50
:1003E000CE010E949401F1CFEB8DEC0FFD2FF11D9A
:1003F000E35AFF4FF0829FB7F8940B8FEA89FB898D
:1004000080818062CFCFCF93DF93EC01888D8823EA
:10041000B9F0AA89BB89E889F9898C9185FD03C067
:10042000808186FD0DC00FB607FCF7CF8C9185FF4C
:10043000F2CF808185FFEDCFCE010E949401E9CFFC
:10044000DF91CF910895833081F028F4813099F0C5
:100450008230A9F008958730A9F08830C9F084303F
:10046000B1F4809180008F7D03C0809180008F77F0
:1004700080938000089584B58F7784BD089584B5F6
:100480008F7DFBCF8091B0008F778093B00008956F
:100490008091B0008F7DF9CF1F93CF93DF93282FEA
:1004A00030E0F901E45CFE4F8491F901E85DFE4F14
:1004B000D491F901EC5EFE4FC491CC23A9F0162F24
:1004C00081110E942302EC2FF0E0EE0FFF1FEA5093
:1004D000FF4FA591B4918FB7F894EC91111108C01A
:1004E000D095DE23DC938FBFDF91CF911F910895CC
:1004F000DE2BF8CFCF93DF9390E0FC01E85DFE4F59
:1005000024918C5E9E4FFC0184918823C9F090E079
:10051000880F991FFC01E050FF4FA591B491FC0199
:10052000EA50FF4FC591D49161110DC09FB7F89467
:100530008C91209582238C938881282328839FBFC8
:10054000DF91CF910895623051F49FB7F8943C91B8
:10055000822F809583238C93E8812E2BEFCF8FB74A
:10056000F894EC912E2B2C938FBFEACF1F93CF934F
:10057000DF93182FEB0161E00E947A02209739F493
:1005800060E0812FDF91CF911F910C944C02CF3FFF
:10059000D10511F461E0F5CFE12FF0E0E45CFE4F0E
:1005A000E491E33031F140F4E130B1F0E230E1F0D8
:1005B000C038D1057CF7E4CFE73029F1E83059F1B4
:1005C000E430B1F780918000806280938000D09306
:1005D0008B00C0938A0004C084B5806884BDC7BD09
:1005E000DF91CF911F91089584B5806284BDC8BD0D
:1005F000F7CF80918000806880938000D09389003D
:10060000C0938800EDCF8091B00080688093B000E7
:10061000C093B300E5CF8091B00080628093B000BA
:10062000C093B400DDCF8230910538F0880F991F58
:10063000880F991F05970197F1F708953FB7F89430
:100640008091120490911304A0911404B0911504A8
:1006500026B5A89B05C02F3F19F00196A11DB11D1D
:100660003FBFBA2FA92F982F8827BC01CD01620F59
:10067000711D811D911D42E0660F771F881F991F14
:100680004A95D1F708958F929F92AF92BF92CF92E1
:10069000DF92EF92FF924B015C010E941E036B01FF
:1006A0007C010E941E036C197D098E099F09683E1A
:1006B000734081059105A8F321E0821A9108A108F1
:1006C000B10888EEC80E83E0D81EE11CF11C81142D
:1006D0009104A104B10429F7FF90EF90DF90CF902F
:1006E000BF90AF909F908F9008952FB7F89460912E
:1006F0000E0470910F0480911004909111042FBF8B
:100700000895089580913505909136059827892799
:10071000982744972091530530E044E0359527957C
:100720004A95E1F7220F331F220F331F821B930BD1
:1007300097FF02C090E080E0089520914905309134
:100740004705309349052093470520914A0530918C
:10075000480530934A0520934805E5E2F5E021A5D8
:10076000820F911D25A585A7662381F021A7892FDA
:100770009927319725E0E132F20789F71092570562
:100780001092580580E580935305089511A6EFCF88
:100790000F931F93CF93DF9370E06B5D7A4F8A01C5
:1007A000075F1F4F213029F0223031F48A010250B7
:1007B000110930E020E003C000E010E09801EB01F7
:1007C000FA01E230F10558F0A991B991BA27AB27A7
:1007D000BA270A0F1B1F211D311D3297F2CFFA01D4
:1007E000EE7F6E0F7F1F4E175F0769F0FB014081A0
:1007F00050E070E060E0762F652F542F4427040FFF
:10080000151F261F371FA901662777274115510598
:100810006105710519F022273327F1CF0095109556
:10082000E82FF0E0EB5DFA4F10830183DF91CF9169
:100830001F910F910895E5E2F5E0108E118E80E48E
:10084000848B158A868B20E044E150E06EE088E1DD
:100850000C94C8038EBD0DB407FEFDCF089561E072
:10086000809119040E944C0278940895F89460E0F5
:10087000809119040C944C020F931F93CF93DF9334
:10088000EC018B010E9436042097B9F08AE30E94A4
:100890002A041EBCF801CE01019739F00DB407FE01
:1008A000FDCF2EB51EBC2193F7CF2197C00FD11FCE
:1008B0000DB407FEFDCF8EB58883DF91CF911F91D8
:1008C0000F910C942F041F93CF93DF93182FC62FF3
:1008D000D42F0E9436048C2F8F71812B0E942A0402
:1008E0008D2F0E942A04DF91CF911F910C942F0429
:1008F000CF93C82FC07680910C048C1799F043E0F9
:100900006FE180EA0E946304C0930C044C2F50E016
:1009100085E0559547958A95E1F76FE180E8CF919D
:100920000C946304CF910895CF93DF93C82FD62FF3
:100930000E9478044D2F6C2F80E4DF91CF910C94AE
:100940006304CF93DF93C82FD72F0E9494046D2F99
:1009500081E08C0FDF91CF910C949404CF93C82F3A
:100960000E9478040E9436048C2F8F710E942A0402
:1009700080E00E942A04C7FF03C080E00E942A048E
:10098000CEB50E942F048C2FCF91089561E184EDA4
:100990000E94940461E082ED0E9494048AEE0E9419
:1009A000AE0480FDFBCF60E082ED0E94940489EDEF
:1009B0000E94AE0490E00895CF93DF93EC0140E8ED
:1009C0006FE180E80E94630440E86FE180EA0E94E2
:1009D00063044AE06CE180EA0E94630460E07CE02A
:1009E00082E00E94A104BE01745F86E00E94A1041F
:1009F00040E060E08AE70E9463040E94360420978A
:100A0000B1F08AE70E942A04809125058EBDE6E2B6
:100A1000F5E0CB5DDA4FEC17FD0731F081910DB4B5
:100A200007FEFDCF8EBDF7CF0DB407FEFDCF0E94B0
:100A30002F0448E06FE180E80E946304D0E0C0E04A
:100A40008CE10E94AE048A7029F42196C83E83E0AE
:100A5000D807B1F78CE10E94AE0481FD03C0C83E07
:100A6000D34039F448E06FE180EADF91CF910C94F4
:100A70006304DF91CF9108950F931F93CF93DF937A
:100A8000EC0105E215E04C96F801908B818B0E94F9
:100A90001B04CE010896F80196A387A3AE01405F20
:100AA0005F4F21E06AE188E20E94C803CE018A9686
:100AB000DF91CF911F910F910C94DC04CF93DF93C2
:100AC000EB01682F84ED0E949404BE0186ED0E9424
:100AD000A1048AEE0E94AE0480FDFBCFDF91CF918E
:100AE0000895CF92DF92EF92FF920F931F93863477
:100AF000910568F120914805233449F5C0905305CC
:100B0000D0905405E0905505F09056050091D5041D
:100B10001091D6042091D7043091D804C016D10684
:100B2000E206F306A1F4EFE3F6E08B5D9A4F9F0136
:100B30002E5F3F4F41815081553319F45281651723
:100B400071F0F901E40FF11DE817F90780F380E077
:100B50001F910F91FF90EF90DF90CF90089581E06B
:100B6000F7CFE0910A04F0910B049F012F5F3F4FF4
:100B700030930B0420930A0480830895FF920F930F
:100B80001F93CF93DF93162FF42E052F0E94B105EC
:100B9000812F0E94B105CF2DD02F115020F08991C7
:100BA0000E94B105FACFDF91CF911F910F91FF9075
:100BB00008952091E703260F3327331F2132310593
:100BC000ECF420915306FC0190E080E0243069F0C1
:100BD00082E00895A091E7032191AC0149535C4F55
:100BE000A40FB52FB11D2C930196861798F3809111
:100BF000E703680F6093E70380E0089581E00895BC
:100C00001092530681E08093520610922D0661E007
:100C100082E10E944C0261E083E10E944C02E9EB18
:100C2000F0E080818E7F808380818D7F808388E467
:100C30008093B80085E48093BC00089510922C0640
:100C400010922B0610925A0610927C060E94000603
:100C500088EF90E090932A068093290689EF90E030
:100C600090932806809327060895CF93DF9391E011
:100C70009093C6038823B9F0C091B800D091BA0010
:100C80008091BC008A7B8093BC0060E082E10E947E
:100C90004C0260E083E10E944C020E940006D09367
:100CA000BA00C093B800DF91CF9108958F929F92C0
:100CB000AF92BF92CF92DF92EF92FF920F931F936A
:100CC000CF93DF93D0917C06D13208F0D7C0182F94
:100CD000C0917B060E941E036B017C01809153062C
:100CE00081116BC082E080935306109352068FEF00
:100CF0008093510610925006D0934F06ABE5B6E0B4
:100D0000EFE2F6E080E0D81391C010922E068091B9
:100D10002E06CC0FC82BC0932E0680912D06813055
:100D200009F088C010922D060E941E036B017C0101
:100D300080912E068093BB008091550690915606B7
:100D4000A0915706B0915806892B8A2B8B2BA1F0C6
:100D50000E941E03009155061091560620915706D9
:100D6000309158066C197D098E099F0906171707DF
:100D70002807390708F442C08091BC0083FDD8CF12
:100D800085EC8093BC000E941E036B017C01809166
:100D90005306823009F450C0809151068F3F09F408
:100DA0006FC080915106803209F46CC08091510669
:100DB000803309F469C084E026C080915506909183
:100DC0005606A0915706B0915806892B8A2B8B2B7B
:100DD00009F484CF0E941E03809055069090560619
:100DE000A0905706B09058066C197D098E099F098E
:100DF00086169706A806B90608F070CF80915406AB
:100E00000E94350685E010925A0610927C061092D8
:100E10005906DF91CF911F910F91FF90EF90DF90D6
:100E2000CF90BF90AF909F908F9008959D91919398
:100E30008F5F69CF85EEA5CF8091550690915606BC
:100E4000A0915706B0915806892B8A2B8B2B09F459
:100E50009ECF0E941E0300915506109156062091C8
:100E60005706309158066C197D098E099F0906179F
:100E700017072807390708F08ACFC0CF81E0C3CF12
:100E800080E0C1CF82E0BFCF83E0BDCFCF93DF93BF
:100E9000EA01A0914101B091420191E0909359067D
:100EA00080937B0610925A0610927C06ED91FC917D
:100EB00011970190F081E02DCD01099580914101BC
:100EC00090914201DC01ED91FC910190F081E02DC7
:100ED000688109958091410190914201DC01ED9179
:100EE000FC910190F081E02D6981099581E00E94DB
:100EF0005606982F80934C0181E0911180E0DF919C
:100F0000CF910895409146015091470121E030E092
:100F1000F90102C0EE0FFF1F8A95E2F7CF016130A1
:100F200069F4842B952B909347018093460146E406
:100F300051E062E0809143010C94460780959095C2
:100F400084239523F0CF0895E0912C0680912B0601
:100F5000E81730F4F0E0EA55FC4F808190E0089506
:100F60008FEF9FEF089590912C0680912B062FEF25
:100F70003FEF981748F4E92FF0E0EA55FC4F208145
:100F800030E09F5F90932C06C901089580912B0655
:100F900090912C06891B990B0895CF92DF92EF92C6
:100FA000FF920F931F93CF93DF937C01CB018A01B4
:100FB00020915906222389F0EB016B01C40ED51E46
:100FC000CC15DD0569F06991D701ED91FC91019097
:100FD000F081E02DC7010995F3CF642F0E94D90558
:100FE000C801DF91CF911F910F91FF90EF90DF909B
:100FF000CF900895CF93DF931F92CDB7DEB769836B
:10100000209159062223F9F020917C06203258F0D5
:1010100021E030E0FC013383228390E080E00F90F8
:10102000DF91CF91089580915A06E82FF0E0E55ABC
:10103000F94F998190838F5F80935A0680937C0645
:1010400081E090E0ECCF61E0CE0101960E94D905ED
:10105000F7CF90E080E00895FC0183858F3F19F081
:1010600061E00C944C020895FC0180819181892BF0
:1010700039F0A281B3819C9111968C919CBD8DBD5C
:1010800083858F3F19F060E00C944C020895AF9275
:10109000BF92CF92DF92EF92FF920F931F93CF9365
:1010A000DF93EC0188819981892B89F06EBD0DB4A5
:1010B00007FEFDCFBEB48B2DDF91CF911F910F9115
:1010C000FF90EF90DF90CF90BF90AF90089588850C
:1010D000998511E0892B09F010E8AA24A394862FA2
:1010E000812309F0A12C062F2C813D814E815F8147
:1010F00060E271EA87E090E00E948430F22EB02E28
:10110000E12CC22ED12CFF2019F0C6010E9413033E
:101110008A85877F09F042C08D858F3F89F0902FA7
:10112000912381E009F480E08A1551F0EF85F88978
:101130008F89992369F19081892B8083AA24A394B4
:10114000E989FA898081998D892B8083FF2019F0A4
:10115000C6010E9413038E858F3F39F0EB89FC890D
:101160008081988D892309F0E12AE989FA899081A3
:10117000898D8095892380838E858F3F09F0BE2CD1
:1011800088859985892BB9F5110F1111BCCF93CFA3
:101190009081809589238083A12CD2CFE989FA8917
:1011A0008081998D892B8083FF2019F0C6010E94D0
:1011B00013038D858F3F49F0EF85F8898F89902F34
:1011C0009123A9F09081892B8083E989FA89908104
:1011D000898D8095892380838E858F3F69F2EB8985
:1011E000FC898081988D892339F2E12AC5CF9081CD
:1011F00080958923E9CF1695C8CF8F929F92AF92A1
:10120000BF92CF92DF92EF92FF920F931F93CF93F3
:10121000DF937C014B016A01B22EA32E0E94340899
:10122000E401C80CD91CCC15DD0569F4CB2DDA2DF1
:101230000C0F1D1FC017D10759F06FEFC7010E9497
:1012400047088993F7CF6991C7010E944708EBCF00
:10125000C7010E942C0881E0DF91CF911F910F916F
:10126000FF90EF90DF90CF90BF90AF909F908F90C6
:1012700008958F929F92AF92BF92CF92DF92EF929A
:10128000FF920F931F93CF93DF937C01B62EA72E6F
:101290006A0149010E943408E401080D191DC017B4
:1012A000D10761F4CB2DDA2DCC0EDD1ECC15DD057A
:1012B00051F06991C7010E944708F8CF6991C701B1
:1012C0000E944708ECCFC7010E942C0881E0DF9103
:1012D000CF911F910F91FF90EF90DF90CF90BF9033
:1012E000AF909F908F9008951F93CF93DF93EA0163
:1012F000122FDC0111968D919C91DC01ED91FC91F6
:101300000280F381E02D0995C817D90729F4812FB0
:101310000E94560691E0811190E0892FDF91CF91D4
:101320001F910895CF93DF93EC018B818823A1F067
:10133000888191E09093590680937B0610925A061B
:1013400010927C0681E00E94560691E0811190E0A7
:10135000892FDF91CF9108950E941E0681E08B8333
:10136000CE010E949209982F8111E2CFF1CFCF9246
:10137000DF92EF92FF920E941E03C090A203D090D2
:10138000A303E090A403F090A5036C197D098E09D6
:101390009F096B3F710581059105E8F00E941E03CE
:1013A0006C197D098E099F096093BE047093BF0478
:1013B0008093C0049093C1040E941E036093A20313
:1013C0007093A3038093A4039093A5038091C70413
:1013D0008F5F8093C704FF90EF90DF90CF900895C8
:1013E000CF92DF92EF92FF920E941E03C0909E0365
:1013F000D0909F03E090A003F090A1036C197D09A9
:101400008E099F096B3F710581059105E8F00E94E7
:101410001E036C197D098E099F096093BA047093AD
:10142000BB048093BC049093BD040E941E03609390
:101430009E0370939F038093A0039093A1038091D8
:10144000C6048F5F8093C604FF90EF90DF90CF902B
:1014500008954F925F926F927F928F929F92AF9278
:10146000BF92CF92DF92EF92FF920F931F93CF9391
:10147000DF93CDB7DEB72A970FB6F894DEBF0FBE65
:10148000CDBFB62E282F30E03A87298730E3839FDF
:10149000F0011124E953FA4F838109851A85000F61
:1014A000111F000F111F882359F020E030E0A9011F
:1014B000658976898789908D0E948D2E18161CF07B
:1014C000BB2009F477C220E349855A85249FC001D7
:1014D000259F900D1124DC01A953BA4F7D012FE8FF
:1014E00032EC45EF5CE355966D917D918D919C9129
:1014F00058970E94922E9B01AC01F701648175817F
:10150000868197810E942E2D29853A852C563C4F45
:10151000790187FF0BC00E947503F801EA56FC4F62
:101520006083718382839383D7011C92F801EA560A
:10153000FC4F6F014080518062807380D7018C9195
:10154000882301F10E947503AB01BC0144195509C0
:101550006609770980915A0490E0B0E0A0E0841712
:101560009507A607B70720F0C12CD12C760180C0C3
:101570000E947503F6016083718382839383D70190
:101580001C92F2CF0E947503AB01BC0144195509AE
:101590006609770980915B0490E0B0E0A0E08417D1
:1015A0009507A607B70758F40E947503F6016083F4
:1015B00071838283938381E0D7018C93D5CF80E3BD
:1015C00029853A85829FF001839FF00D1124E9530C
:1015D000FA4FBB2009F46DC0C58CD68CE78CF0A007
:1015E00020E030E0A901C701B6010E942E2D412C58
:1015F000512C90E8692E9FE3792E87FF06C0412C7D
:10160000512C80E8682E8FEB782E20E030E0A90185
:10161000C701B6010E948D2E18160CF445C0D701E3
:10162000C601B05889839A83AB83BC8380E3A985C4
:10163000BA858A9FF0018B9FF00D1124E953FA4F70
:1016400066A570E090E080E00E94DD2D4B015C011A
:1016500029813A814B815C810E942E2D87FF08C031
:10166000A3019201C501B4010E94922E6B017C017D
:10167000C701B6010E94A52DCB012A960FB6F8949A
:10168000DEBF0FBECDBFDF91CF911F910F91FF90B5
:10169000EF90DF90CF90BF90AF909F908F907F9012
:1016A0006F905F904F900895C982DA82EB82FC823E
:1016B000BDCFC588D688E788F08C84819581A681C6
:1016C000B78189839A83AB83BC839C01AD01C70139
:1016D000B6010E94C12C4B015C018092460490929D
:1016E0004704A0924804B092490420E030E0A901E8
:1016F0000E948D2E24013501181624F077FA70947B
:1017000077F870942AE037ED43EA5CE3C701B6014D
:101710000E94922EA30192010E942E2D87FF24CFBA
:10172000A3019201C701B6010E942E2D87FF12C0AE
:1017300020E030E0A901C501B4010E948D2E1816E9
:101740000CF027C1C0924604D0924704E0924804AE
:10175000F09249048090460490904704A090480479
:10176000B090490420E030E0A901C501B4010E9415
:101770008D2E24013501181624F077FA709477F82D
:1017800070942DEC3CEC4CE45EE3C701B6010E9482
:10179000922EA30192010E942E2D87FF06C180E0A8
:1017A00090E0A0E8BFE38093420490934304A093A9
:1017B0004404B093450480E3A985BA858A9FF0016B
:1017C0008B9FF00D1124E953FA4F45A056A067A056
:1017D00070A4A3019201C501B4010E94922E20E0E1
:1017E00030E04AE754E40E94332DF801E65CFB4FF9
:1017F00020813181428153810E94C22C6B017C0186
:1018000020E030E0A901C301B2010E948D2E20E04A
:1018100030E040E85FE318161CF020E030E0A9015A
:10182000C701B6010E94922E6B017C01F801E65CB3
:10183000FB4FC082D182E282F38220914204309138
:10184000430440914404509145042D833E834F83CB
:101850005887F801EE5CFB4F29813A814B815C810E
:1018600060817181828193810E94C12C20E349852E
:101870005A85249F8001259F100D112409531A4F6A
:10188000D80199962D913D914D915C919C970E9424
:10189000922E20E030E040E251E40E94922E2B0193
:1018A0003C01F80121A132A143A154A16D817E81A7
:1018B0008F8198850E94922EA50194010E94922EFC
:1018C000A70196010E94C22C9B01AC01C301B20189
:1018D0000E94C22C4B015C0120E030E0A9010E9473
:1018E0008D2E24013501181624F077FA709477F8BC
:1018F000709480E329853A85829FF001839FF00DE3
:101900001124E953FA4F66A570E090E080E00E9450
:10191000DD2D2D813E814F8158850E94922E6B01D5
:101920007C01A30192010E942E2D87FD02C073014C
:10193000620180E349855A85849FF001859FF00DFF
:101940001124E953FA4F55A55983652F70E090E0B3
:1019500080E00E94DD2DA70196010E948D2E1816B1
:101960004CF4A9816A2F70E090E080E00E94DB2DAA
:101970006B017C0120E030E0A901C501B4010E94A7
:101980008D2E18160CF474CEF7FAF094F7F8F09444
:101990006FCED701C601B058809346049093470498
:1019A000A0934804B0934904D5CE80E090E0A0E431
:1019B000BFE3F9CEF801E65CFB4F10821182128280
:1019C0001382D2CD4FEF460FFC0130E020E050E013
:1019D000DF01A81BB90BA417B50724F47191270FD9
:1019E000311DF6CFFC01E60FF11D319781E09081AA
:1019F000921380E0089580912104882339F00E9499
:101A0000C604969587959695879581700895FC01F3
:101A100001900020E9F73197AF01481B590BBC0139
:101A200085E896E00C9416018F929F92AF92BF9238
:101A30000F931F93CF93DF93CDB7DEB7A1970FB668
:101A4000F894DEBF0FBECDBF19A2423008F44AE0C1
:101A50008E010F5D1F4F842E912CB12CA12CA5015E
:101A600094010E948430E62FB901CA01EA30F4F4EF
:101A7000E05DD801EE938D01232B242B252B79F7E4
:101A800090E080E0109719F0CD010E94070DA1961B
:101A90000FB6F894DEBF0FBECDBFDF91CF911F917F
:101AA0000F91BF90AF909F908F900895E95CE1CF28
:101AB000CF93DF930E94070DEC0189EA91E00E9429
:101AC000070D8C0F9D1FDF91CF910895682F70E057
:101AD00090E080E04AE00C94140D2F923F924F92D8
:101AE0005F926F927F928F929F92AF92BF92CF92AE
:101AF000DF92EF92FF920F931F93CF93DF93CDB7B7
:101B0000DEB72A970FB6F894DEBF0FBECDBF9C8319
:101B10008B834F83588769877A87DC01ED90FC902F
:101B2000F7010085C7010B969E838D83968187817F
:101B300099838A83608071806114710409F420C1E3
:101B4000418550E0D30114968D919C91159784178F
:101B5000950708F468C18C9191E0909359068093A1
:101B60007B0610925A0610927C0620E0BE016F5F41
:101B70007F4FC3010E947409882309F454C1402E89
:101B8000512C312C212C2414350408F01AC1F301F6
:101B9000848195818201021913098017910708F445
:101BA0008C01D301CC900E941E034B015C018091FB
:101BB0005306811175C0D02EB0E2B01710F470E258
:101BC000D72EE1E0E093530621E0C201801B910B88
:101BD0002816390608F420E020935206FFEFF09310
:101BE0005106109250068FEF8D0D80934F0681E0C5
:101BF00080932E0680912E06CC0CC82AC0922E0609
:101C000080912D06813009F092C010922D060E941D
:101C10001E034B015C0180912E068093BB008091D6
:101C2000550690915606A0915706B0915806892BFB
:101C30008A2B8B2BA1F00E941E0320915506309118
:101C400056064091570650915806681979098A0935
:101C50009B09261737074807590708F442C08091A7
:101C6000BC0083FDD8CF95EC9093BC000E941E036E
:101C70004B015C0180915306813009F45CC0809176
:101C800050068D1510F4D0905006AFE2B6E0E6EAAB
:101C9000F3E080E08D1551F19D9191938F5FFACF24
:101CA0008091550690915606A0915706B09158061E
:101CB000892B8A2B8B2B09F47ACF0E941E0320914B
:101CC00055063091560640915706509158066819AE
:101CD00079098A099B09261737074807590708F029
:101CE00066CF809154060E943506D12C10922C06A6
:101CF000D0922B06D016110609F095C0AD80BE809B
:101D0000A20CB31C6501C6018A199B0980179107B3
:101D1000A0F5F30181819281DC01ED91FC910284B7
:101D2000F385E02D0995F60181936F01ECCFA5EEC7
:101D3000A093BC009BCF8091550690915606A09130
:101D40005706B0915806892B8A2B8B2B09F492CF1A
:101D50000E941E0320915506309156064091570669
:101D600050915806681979098A099B09261737077F
:101D70004807590708F07ECFB4CF200E311E03CF9D
:101D8000D7010280F381E02D309709F44CC01496FE
:101D90002D913C91159710E019964C9150E023300D
:101DA000310561F5816089839A834F5F5F4F2D8193
:101DB0003E81BE016F5F7F4FCF010E94FD088823E7
:101DC00091F1F701408550E090E080E000E010E004
:101DD00098018417950754F5322F212F102F0027D3
:101DE000D7011A966C91611119C0FA01E81BF90B21
:101DF000EE0DFF1D6285062B0196EBCF21153105F7
:101E000019F490689983D3CF2230310511F49F776C
:101E1000F9CF2130310559F6906CF4CFF701E80F76
:101E2000F91F6385E8CF0FEF1FEF9801EB81FC816D
:101E3000A081B18118968C911897853008F078C0F0
:101E4000928141E050E002C0440F551F9A95E2F79D
:101E500041505109052E000C660B770B93816A01E6
:101E60007B01092E04C0CC0CDD1CEE1CFF1C0A9467
:101E7000D2F7C094D094E094F0940C211D212E212F
:101E80003F214F80588469847A84442255226622F7
:101E9000772204C0440C551C661C771C9A95D2F717
:101EA000402A512A622A732A1F964D925D926D92A2
:101EB0007C92529730E020E0E82EF12C2E153F0561
:101EC000BCF41A968C911A9781110BC0FD01E20F98
:101ED000F31F4386452C562C672C77242F5F3F4FEA
:101EE000EDCFF701E21BF30BEA0FFB1F4286F2CFA7
:101EF0006D01FBE0CF0ED11C16969C91169717969C
:101F00008C91179799838A83AD90BC901197A114F7
:101F1000B10409F44DC019960C9110E098012E0DF2
:101F20003F1DD50114968D919C918217930710F453
:101F300080E016C0F50181819281208131E03093EB
:101F4000590620937B0610925A0610927C060115C2
:101F50001105F9F421E0A701B601C5010E94740939
:101F60002A960FB6F894DEBF0FBECDBFDF91CF919A
:101F70001F910F91FF90EF90DF90CF90BF90AF90A7
:101F80009F908F907F906F905F904F903F902F9099
:101F90000895DC01ED91FC910280F381E02DA80110
:101FA000BE016F5F7F4F09950817190709F6D2CF59
:101FB0001296ED91FC911397309709F4B9CF1496CE
:101FC0002D913C91159719960C9110E02330310515
:101FD00071F48E7F89839A830F5F1F4F9E012F5F5D
:101FE0003F4FA701B601CF010E943909B9CF211592
:101FF000310519F49F779983F1CF2230310511F41F
:102000009068F9CF2130310549F79F779064F3CF7D
:10201000CF93DF93CDB7DEB767970FB6F894DEBFE7
:102020000FBECDBFA62F9091320729E030E0993046
:1020300030F021E0883008F420E0226130E0E091C7
:102040003007F0913107309749F04091330750E065
:10205000542F4427550F5064242B352B40912E07C5
:1020600050912F07188A198A1A8A1B8AFC83EB83DE
:102070005A83498343E050E05E834D8391E09A8721
:1020800038872F831B8699879E012F5F3F4F3D8B9B
:102090002C8B9E8B87708F8B41E050E060E070E06E
:1020A000A11103C040E050E0BA01CE0144960E9465
:1020B0006D0D67960FB6F894DEBF0FBECDBFDF91F2
:1020C000CF910895DC0196E0FB0101900D929A9565
:1020D000E1F70895CF93DF93EB0144E050E0BC01BA
:1020E00081E495E00E94EB31892B49F46BE375E0C4
:1020F000CE010E94621081E0DF91CF91089580E0CF
:10210000FBCFBC0185E295E00E94621066EE74E0B0
:102110008BE295E00C946210DC0194E0FB010190ED
:102120000D929A95E1F708950F931F93CF938C0129
:102130008FE791E00E948110E5E2F5E088E0848776
:10214000C6E0C58748E050E06EEE70E083E395E0BE
:102150000E94A22CE5E4F5E0DF011D92CA95E9F7A3
:1021600066EE74E08BE395E00E946210B8018BE4A8
:1021700095E00E948C1061E876E081E495E00E9491
:102180008C108AE290E0CF911F910F910C94DC04A7
:102190008BE295E00E9481106FE375E083E495E0A7
:1021A0000E948C1061E876E08FE395E00E948C102D
:1021B0000C941B04262F206120935405643021F0D9
:1021C000009711F481E090E061E00E949D0310927D
:1021D000350588E2809336050E94C81084E080931C
:1021E00055051092560522E04CE150E06AE182E389
:1021F0000E94C80386E390E00C94DC04CF93DF9345
:10220000EB010E948110BE0183E495E00E948C10D6
:1022100061E876E08FE395E0DF91CF910C948C102C
:10222000EF92FF920F931F93CF93DF93182F092FF5
:10223000EB01F42EE52ECB010E94D800BE018823CD
:1022400009F447C089E195E00E94FE108881807FF3
:10225000803E91F088819981AA81BB818F3F9F4FF9
:10226000AF4FBF4F49F044E050E0BE018CEE94E028
:102270000E94EB31892B31F46FE771E085E295E044
:102280000E94621088E0809331051092320549E087
:1022900050E060E571E083E395E00E94A22C10928B
:1022A000350581E180933C05E0924905F0924A05AD
:1022B000009347051093480510924B0510924D0569
:1022C00010924E05DF91CF911F910F91FF90EF90EB
:1022D00008958FE195E0B8CFEF92FF920F931F938F
:1022E000CF938C01E5E2F5E086E191E0DF019C010E
:1022F0001D9221503040E1F78091E5046FE771E0D5
:10230000833011F460ED74E043E450E084E490E045
:102310000E9410116FE771E085E295E00E94621063
:1023200081E080934F058093500586E080935105AE
:102330008091D5049091D604A091D704B091D8048F
:102340008093530590935405A0935505B09356057B
:10235000C091E504C33031F461E876E08BE595E0A7
:102360000E948C1066EE74E08BE695E00E9462108D
:102370008BE396E090930B0480930A04EAEEF0E07E
:1023800084910E94B105EBEEF0E084910E94B105CA
:10239000ECEEF0E084910E94B105EDEEF0E0849166
:1023A0000E94B10585E30E94B10581E00E94B1055C
:1023B00083E0C11101C081E00E94B1058DE30E945C
:1023C000B10587E00E94B10581E00E94B10586EE6B
:1023D000E82E84E0F82EC7E0C15031F0D7018D918E
:1023E0007D010E94B105F8CF80910001882371F032
:1023F00060E071E0FB0101900020E9F7BF0161504E
:10240000714040E051E08CE00E94BE0501151105CD
:1024100059F0A80164E082E30E94BE0540ED54E05B
:1024200064E086E30E94BE0587E30E94B10583E075
:102430000E94B10581E00E94B10583E00E94B105D0
:1024400086E00E94B1058FEF0E94B10580910A04D9
:1024500090910B048F549540CF911F910F91FF9055
:10246000EF900C943C0585ED8093BC00809155065F
:1024700090915606A0915706B09158060796A11D57
:10248000B11D23E0B695A795979587952A95D1F725
:102490002091BC0024FD03C0109253060895409182
:1024A0005506509156066091570670915806452B77
:1024B000462B472B69F30097A105B10541F025E3B1
:1024C0002A95F1F700000197A109B109E1CF8091A8
:1024D00054060C943506FF920F931F93CF93DF930E
:1024E000EC01F62E08811981C8010E94AB2CF81668
:1024F00021F06F2DC8010E94B32CCE01DF91CF9146
:102500001F910F91FF900895EF92FF920F931F93E9
:10251000CF93DF9300D0CDB7DEB78CEA91E00E9475
:10252000580D1A82198260E5CE0101960E946B1245
:1025300081E090E09A83898367E2CE0101960E9450
:102540006B1284E090E09A83898362E0CE01019669
:102550000E946B1228E3E22E27E0F22E0AE010E040
:102560001A830983F70161917F01CE0101960E94D0
:102570006B120F5F1F4F0532110591F797ECE92E93
:1025800095E0F92E04E610E01A830983F7016191C2
:102590007F01CE0101960E946B120F5F1F4F04391D
:1025A000110591F787EFE82E85E0F82E04EB10E097
:1025B0001A830983F70161917F01CE0101960E9480
:1025C0006B120F5F1F4F043E110591F70F900F9094
:1025D000DF91CF911F910F91FF90EF9008950F938E
:1025E0001F93CF93DF93E9010E94FB0C882349F1ED
:1025F000012B39F18881803821F58981813809F5ED
:102600008A818F37F1F48B81893CD9F48C818530B4
:10261000C1F48D81893CA9F48E81893C91F48F812C
:1026200080933C07888580933D07898580933E078A
:102630000E948412F0E0E0E0DF91CF911F910F91B2
:102640000994DF91CF911F910F910895CF92DF925E
:10265000EF92FF920F931F93CF93DF93EC0188814A
:102660009981863F2EE7920709F42FC190F4843FA9
:10267000FEE79F0709F458C0853F9E4709F400C153
:10268000DF91CF911F910F91FF90EF90DF90CF904E
:102690000895873FEEE79E0709F47DC18C3B9F4775
:1026A00079F76F31710560F36FE1CE010E94E20CA2
:1026B000882331F38A81809338078B81809339078F
:1026C0008C8180FF89C191E090933A0781FF87C197
:1026D00091E090933B0783FF85C181E0809352078F
:1026E0008D81809340078F818093C7058885809373
:1026F000C80589858093C9058A858093F7058B85F0
:102700008093F8058C858093F905FE013D96A1E440
:10271000B7E0CE014D9621912D93E817F907D9F72F
:102720008D8D809351074BC16E30710508F4A8CF91
:102730006EE0CE010E94E20C882309F4A1CF0A8149
:10274000902F92959F7080913807981399CF0F70B2
:1027500080913907081708F093CFE02EF12C20E381
:10276000029F8001112409531A4F2C816D8170E062
:1027700090E080E0CB0177276627722B2B81622BBC
:102780000E94DB2D2FE632E143E85AE30E94922EAD
:10279000F801658B768B878B908F2F81688570E031
:1027A00090E080E0CB0177276627722B2E81622B89
:1027B0000E94DB2D2FE632E143E85AE30E94922E7D
:1027C000F801618F728F838F948F898580FF04C099
:1027D000118A128A138A148A90E39E9DF0019F9DAC
:1027E000F00D1124E953FA4F81FD47C0108A82FF92
:1027F0000BC090E39E9DF0019F9DF00D1124E953C5
:10280000FA4F90899E5F908B83FF0BC090E39E9D53
:10281000F0019F9DF00D1124E953FA4F90899C5FC0
:10282000908B84FB992790F99093C60590E39E9D29
:1028300080019F9D100D112409531A4F85FB992784
:1028400090F9F80197A786FB882780F980933801D3
:102850006A857B85072E000C880B990B0E94DD2D65
:10286000F801658F768F878F90A30E947503F8011A
:10287000648775878687978703CF91E0908BB7CF62
:102880006A30710508F4FCCE6AE0CE010E94E20CC9
:10289000882309F4F5CE8A8182958F70909138074C
:1028A0008913EECE8B81809373048C8180937204A4
:1028B0008D81809371048E8180936F048F818093CA
:1028C0007004888580936E04DBCE6A30710508F44D
:1028D000D7CE6AE0CE010E94E20C882309F4D0CE64
:1028E0000A81902F92959F70809138079813C8CED7
:1028F0000F7080913907081708F0C2CE688570E024
:10290000719561957109072E000C880B990B0E9437
:10291000DD2D9B01AC0160E070E080E291E40E945B
:10292000FF2E6B017C01F0E30F9F800111240953FE
:102930001A4F6B8170E090E080E00E94DD2DA701CE
:1029400096010E94922EF80161A372A383A394A31F
:102950006C8170E090E080E00E94DD2DA70196017F
:102960000E94922EF80165A376A387A390A76D819C
:1029700070E090E080E00E94DD2DA70196010E94AA
:10298000922EF80161A772A783A794A78E8185A7CD
:102990008F8186A775CE6630710508F471CE66E02A
:1029A000CE010E94E20C882309F46ACE8A818093CA
:1029B0003C078B8180933D078C8180933E070E946A
:1029C0008412F0E0E0E0DF91CF911F910F91FF9032
:1029D000EF90DF90CF90099410923A0777CE109243
:1029E0003B0779CE109252077BCE0F931F93C901FC
:1029F000B8011F910F910C9426131F920F920FB6DE
:102A00000F9211242F933F934F935F936F937F9374
:102A10008F939F93AF93BF93EF93FF9385E896E0D7
:102A20000E949401FF91EF91BF91AF919F918F917F
:102A30007F916F915F914F913F912F910F900FBEBA
:102A40000F901F9018951F920F920FB60F9211249E
:102A50002F938F939F93EF93FF93E0919506F091BF
:102A600096068081E0919B06F0919C0682FD1BC03A
:102A7000908180919E068F5F8F7320919F068217B1
:102A800041F0E0919E06F0E0EB57F94F958F80936F
:102A90009E06FF91EF919F918F912F910F900FBE06
:102AA0000F901F9018958081F4CF1F920F920FB650
:102AB0000F9211242F933F938F939F93AF93BF93C4
:102AC00080910E0490910F04A0911004B091110414
:102AD00030910D0423E0230F2D3758F50196A11DE9
:102AE000B11D20930D0480930E0490930F04A093C6
:102AF0001004B09311048091120490911304A091DA
:102B00001404B09115040196A11DB11D8093120407
:102B100090931304A0931404B0931504BF91AF9144
:102B20009F918F913F912F910F900FBE0F901F900B
:102B3000189526E8230F0296A11DB11DD2CF1F9232
:102B40000F920FB60F9211242F933F934F935F93E1
:102B50006F937F938F939F93AF93BF93EF93FF9365
:102B6000E0913F01F09140010995FF91EF91BF91F4
:102B7000AF919F918F917F916F915F914F913F9115
:102B80002F910F900FBE0F901F9018951F920F92CC
:102B90000FB60F9211242F933F934F935F936F9330
:102BA0007F938F939F93AF93BF93EF93FF93E091A6
:102BB0003D01F0913E010995FF91EF91BF91AF91D9
:102BC0009F918F917F916F915F914F913F912F9145
:102BD0000F900FBE0F901F9018951F920F920FB677
:102BE0000F9211242F933F934F935F936F937F9393
:102BF0008F939F93AF93BF93EF93FF938091B9000F
:102C0000887F803609F44AC0F0F5883209F4A7C0FD
:102C100018F5803109F49BC0B8F4882309F4F9C091
:102C2000883009F494C0FF91EF91BF91AF919F91CB
:102C30008F917F916F915F914F913F912F910F9065
:102C40000FBE0F901F901895883109F488C080320C
:102C500051F78093510614C0803409F49DC040F4AC
:102C60008033B9F38833F9F68093510685ECB0C010
:102C7000803509F485C0883509F496C0883499F602
:102C80000E943312D0CF883909F48CC038F58837C8
:102C900029F050F4883611F0803729F683E08093CC
:102CA00053061092090457C0883809F47BC0803954
:102CB00019F0803809F0B7CF80910904803208F00C
:102CC00071C0E091090481E08E0F80930904809126
:102CD000BB00F0E0E751FC4F80833DC0803B39F002
:102CE000E0F4803A09F479C0883A09F09CCF84E096
:102CF000809353061092E8031092E703E0912906AF
:102D0000F0912A0609958091E70381110FC081E0B7
:102D10008093E7031092C70309C0803C09F4A6CF53
:102D2000883C09F4A3CF883B09F07DCFE091E8030C
:102D300081E08E0F8093E803F0E0E953FC4F80813F
:102D40008093BB009091E8038091E70329C08091B4
:102D50002E068093BB0085EC8093BC0064CF9091DD
:102D6000500680914F06981758F5E091500681E083
:102D70008E0F80935006F0E0E15DF94F8081E9CF3E
:102D8000E091500681E08E0F809350068091BB0049
:102D9000F0E0E15DF94F80839091500680914F06FD
:102DA0009817C8F285E8D8CFE091500681E08E0FE1
:102DB000809350068091BB00F0E0E15DF94F808385
:102DC0008091520681115CCF81E080932D0684EAC8
:102DD0008093BC001092530626CF85EC8093BC00F4
:102DE0001092530680910904803230F4E091090476
:102DF000F0E0E751FC4F10826091090470E0E0912F
:102E00002706F091280689EE93E0099510920904AF
:102E10000ACF1092510634CFCF93DF93E5E8F6E066
:102E20001382128288EE93E0A0E0B0E08483958361
:102E3000A683B78329E831E03183208325EC30E095
:102E40003587248724EC30E03787268720EC30E074
:102E5000318B208B21EC30E0338B228B22EC30E065
:102E6000358B248B26EC30E0378B268B118E128E1F
:102E7000138E148EE2E2F7E013821282848395832C
:102E8000A683B7838BE991E091838083C8E3D7E081
:102E9000188232E039831A821B8220EC2C8398EA54
:102EA0009D8381E08E8342E34F83388730E1E7E5FD
:102EB000F1E0A1E4B7E001900D923A95E1F71A8EA6
:102EC000EDE4F1E0208391838283EEE2F7E011826A
:102ED00010821382128280E18483DF91CF91089562
:102EE000CF93DF93CDB7DEB7CD54D1090FB6F894A9
:102EF000DEBF0FBECDBF789484B5826084BD84B53B
:102F0000816084BD85B5826085BD85B5816085BDE4
:102F100080916E00816080936E001092810080919C
:102F20008100826080938100809181008160809324
:102F30008100809180008160809380008091B10049
:102F400084608093B1008091B00081608093B00074
:102F500080917A00846080937A0080917A00826008
:102F600080937A0080917A00816080937A008091CA
:102F70007A00806880937A001092C1001092CA058E
:102F80001092FA05E0919506F091960682E0808312
:102F9000E0919106F09192061082E0919306F091F3
:102FA000940683E3808310929D06E0919906F09148
:102FB0009A0686E08083E0919706F09198068081DA
:102FC00080618083E0919706F09198068081886007
:102FD0008083E0919706F0919806808180688083D5
:102FE000E0919706F091980680818F7D808368EB51
:102FF0007BE080E090E00E9443038BEA91E00E9436
:10300000580D8BEA91E00E94580D8BEA91E00E94E6
:10301000580D86EC91E00E94580D8BEA91E00E94D9
:10302000580D90E080E00E94AB2C898381E090E015
:103030000E94AB2C8A8384E090E00E94AB2C298113
:103040003A812035374209F070C1823009F06DC1F4
:103050008CED91E00E94580DA8E3EA2EA7E0FA2E2D
:103060000AE010E0C8010E94AB2CD7018D937D01CE
:103070000F5F1F4F05321105A9F707EC15E0680136
:10308000F4E6EF2EF12CC7010E94AB2CD6018D93F4
:103090006D01BFEFEB1AFB0AE4E9EE16F10499F7B4
:1030A00077EFC72E75E0D72EE4EBEE2EF12CC7019B
:1030B0000E94AB2CD6018D936D01BFEFEB1AFB0A7A
:1030C000E4EEEE16F10499F7809151078651893E9E
:1030D00008F425C12091390730E090E080E08217A4
:1030E000930714F00C94442CF8014081463108F009
:1030F0007DC14181463108F079C1005D1F4F329694
:103100004081463108F072C10196E9CF81E0809399
:10311000CA04809151078F3F19F062E00E947A0241
:1031200080913907833018F082E0809339078BEA69
:1031300091E00E94580D8AE292E00E94070D809172
:1031400038070E94660D89EA91E00E94070D86E328
:1031500092E00E94070D4AE060E577E280E090E0AF
:103160000E94140D89EA91E00E94070D8BEA91E01C
:103170000E94580D0E941E068CE08093B80087E4E0
:1031800092E00E94580D809138078E5C80933F0733
:1031900030913C0738AB20913D0729AB90913E0719
:1031A0009AAB8BAB40912A04411105C08093310149
:1031B00081E080932A0480912204811109C0309318
:1031C00028012093290190932A0181E08093220411
:1031D00030934D0120934E0190934F011FB7F89407
:1031E00080911604811127C0EEE1F1E08491E2E3C1
:1031F000F1E09491E82FF0E0EE0FFF1FE050FF4F59
:10320000A591B491EC91E92321F461E08AE00E9458
:103210004C0261E08AE00E947A028CB580618CBD2C
:103220008CB580648CBD61E08DE00E947A0261E023
:103230008BE00E947A02809116048F5F80931604BF
:103240001FBF109218041092170480911704811167
:103250003CC064EF71E080E090E00E9443038BE5A6
:1032600093E00E94070DF89460E08AE00E944C020F
:103270008FEF0E942A048FEF0E942A0461E08AE007
:103280000E944C02789462E070E080E090E00E943E
:103290004303F89460E08AE00E944C028DE10E94B2
:1032A0002A0480E00E942A041EB561E08AE00E94A0
:1032B0004C027894117010931704809118048F5F5A
:1032C00080931804863008F4C0CF8091170480934F
:1032D0002104882309F427C210929D0587E390E01A
:1032E000C12CD12C7601C394009709F485C0FC0150
:1032F00043E0F595E7954A95E1F7E65EFB4F282F09
:103300002770B701A60104C0440F551F661F771F21
:103310002A95D2F72081242B20830197E5CF1092A4
:10332000CA0485EF91E00E94580D80E192E00E946E
:10333000580D8FEF8093510783E08093C70586E097
:103340008093C80589E08093C90582E08093F705E2
:1033500084E08093F80585E08093F90540E050E033
:1033600060EA70E44093E8055093E9056093EA054C
:103370007093EB051092EC051092ED051092EE059E
:103380001092EF051092F0051092F1051092F205DF
:103390001092F3058093F40592E39093F505409322
:1033A00018065093190660931A0670931B06109224
:1033B0001C0610921D0610921E0610921F061092F7
:1033C0002006109221061092220610922306809366
:1033D000240690932506E1E4F7E08FEF819337E030
:1033E000E135F307D9F70E94841293CE80E08093F1
:1033F000CA0481118ECE95CF6CE271E086EE94E026
:103400000E94621084E690E09093CC048093CB04F9
:103410000CB406FC25C061E08AE00E947A0261E0FB
:103420008AE00E944C0261E08BE00E947A0261E037
:103430008DE00E947A0260E08CE00E947A0261E0F6
:103440008BE00E944C0260E08BE00E944C0260E046
:103450008DE00E944C0280E58CBD8DB581608DBDF4
:103460008AE08093190461E00E947A020E942F048E
:103470004FEF60E08FEF0E94630462E070E080E055
:1034800090E00E9443030E9436048DE10E942A04CA
:1034900080E00E942A041EB50E942F04112399F394
:1034A00070E060E088E00E94A10470E060E08CE0E1
:1034B0000E94A1046FEF7BE08AE00E94A10460E01B
:1034C0007CE084E00E94A1046FEF71E186E00E943D
:1034D000A10466E774E084E10E945E0561EB88E385
:1034E0000E9494046FE370E388E20E94A10469EFF4
:1034F00077EF80E30E94A10461E080EC0E949404D5
:1035000042E362EC80E80E94630462E17CE086ECC6
:103510000E94A10462E184EC0E9494046CED75E0C9
:103520008AEC0E94A1046091E60484EE0E94940457
:103530006091E70485EE0E9494046091E80482EEB5
:103540000E9494046091E90483EE0E9494046091C7
:10355000EA0480EE0E9494046091EB0481EE0E94E4
:10356000940460E071E080E10E945E058FE10E94BA
:10357000780440EC6BE180E80E94630444E06FE172
:1035800080E80E94630482E70E94AE048BEA91E027
:103590000E94580D8DE592E00E94580D10929D05F5
:1035A000BE01605D7F4F81E896E00E948C10109212
:1035B0009B0510929A0581E080939C0568E271E07A
:1035C00086E995E00E948C1064E271E081E995E063
:1035D0000E948C1060E271E08DE796E00E948C10F2
:1035E00001E816E02DE736E04CEE54E0F801919149
:1035F000D9018D919D018095892BDA018D93AD01C3
:10360000B6E0E538FB0799F780911805883098F403
:1036100025E0829FF0011124E051FB4F25EF34E1BA
:103620003183208328ED30E73383228391E0948334
:103630008F5F8093180580911805883098F435E0E5
:10364000839FF0011124E051FB4F2FEE32E13183D3
:10365000208328EB32E23383228391E094838F5FCF
:103660008093180564EF71E080E090E00E944303CE
:103670000E94FB0C882309F44FC08BEA91E00E9462
:10368000580D88E792E00E94070DF12CD8018D912A
:103690008D010E94660DB3E0FB1629F06EE285E80D
:1036A00096E00E94B601F394E4E0FE12EFCF89EABF
:1036B00091E00E94070D89E892E00E94580DF12CDC
:1036C000E12C30E3D32E809139078E151F0409F0C9
:1036D0000CF452C0DE9C8001DF9C100D11240953B4
:1036E0001A4F62E0D8018C910E947A0261E0F801E1
:1036F00081810E947A0261E0D80112968C910E9429
:103700007A02E114F104D1F0B1E0EB16F10431F1E9
:10371000EFEFEE1AFE0AD7CF8FE992E00E94580D24
:103720008DEB92E0CACF8BEA91E00E94580D82EDBA
:1037300092E00E94580D8BEA91E0F0CF8091C7058E
:10374000823041F0833041F481E060EF79E00E9403
:10375000FA00DECF80E0F9CF8FEFF7CF8091F70549
:10376000823031F0833031F481E067EB79E0EFCFE4
:1037700080E0FBCF8FEFF9CF80914007843008F0D5
:1037800075C0823008F054C101E417E021E5E22E53
:1037900027E0F22E813009F43FC18BEA91E00E94CC
:1037A000580D81E893E00E94580D8BEA91E00E9449
:1037B000580DFE013D96FDABECAB9E01225F3F4FE5
:1037C0003FAB2EAB8091380107EC15E0312C212C5A
:1037D000882309F49FC14AE354E05DAF4CAF2496BF
:1037E0001FAE1EAE2497809139072496EEADFFAD33
:1037F00024978E171F0609F00CF499C5D80150962E
:103800008C91823008F4CAC3853008F4F0C1853049
:1038100009F0C4C3B4E1B0935B04E8ECE0935A044C
:1038200060E023968FAD23970E94290ABC01990F6F
:10383000880B990B0E94DD2DD80118966D937D930E
:103840008D939C931B9724962EAD3FAD24972F5FAD
:103850003F4F24963FAF2EAF2497005D1F4F4CADD6
:103860005DAD4C5F5F4F5DAF4CAFBDCF843009F0B5
:1038700094CF8BEA91E00E94580D87E493E00E9478
:10388000580D16E001E080E2F82E80915C04811171
:103890001CC08BE593E00E94070D00935906F0923F
:1038A0007B0610925A0610927C0681E00E94560612
:1038B00091E0811190E090935C0464EF71E080E00E
:1038C00090E00E944303115001F78BEA91E00E94BF
:1038D000580D80915C04882309F419C18DE593E0AB
:1038E0000E94580D86E090E00E94C6308C0180E274
:1038F000F801808382E297E092838183138280E2E1
:1039000090E09583848310932F0700932E070E94E5
:103910001E0681E0D80113968C93C8010E9492097B
:1039200001E417E099249394B3E0EB2EF12C5E01AF
:10393000B5E1AB0EB11CFE0131966F01D801ED91DE
:103940008D0181E0E83008F480E090913207682F23
:10395000993008F460E070E0209130073091310731
:103960002115310549F04091330750E0542F442789
:10397000550F5064642B752B40912E0750912F07E3
:103980001CA21DA21EA21FA2388F2F8B5E8B4D8BF7
:10399000FA8EE98E9E8E7C8F6B8F1F8E9D8E993056
:1039A00008F4B2C090E08C602115310549F06091B7
:1039B000330770E0762F6627770F7064862B972B7E
:1039C000188A198A1A8A1B8A3C832B835A83498353
:1039D000FE82ED829A8698878F831B869986E77090
:1039E000BDA6ACA69EA6EFA7D9A6C8A69AA6EBA789
:1039F00040E050E0BA01CE018C960E946D0D40E08F
:103A000050E0BA01CE0188960E946D0DB7E00135F5
:103A10001B0709F093CFC1CED8018D918D018F3F47
:103A200019F061E00E947A02E016F106A9F7B5CE1E
:103A30008BEA91E00E94580D81EF92E00E94580DB0
:103A400016E001E090E2F92E80916D0481111CC016
:103A50008BE593E00E94070D00935906F0927B06D8
:103A600010925A0610927C0681E00E94560691E060
:103A7000811190E090936D0464EF71E080E090E03C
:103A80000E944303115001F78BEA91E00E94580D08
:103A900080916D04882399F183E193E00E94580D91
:103AA00082E297E0909342018093410180E280930B
:103AB0004301109249011092480148E451E064E04A
:103AC0000E94460710924B0110924A014AE451E0CD
:103AD00066E0809143010E9446078FEF9FEF90932D
:103AE00047018093460146E451E062E08091430142
:103AF0000E9446078BEA91E00E94580D4ECE8BE261
:103B000093E00E94580DF6CF86E090E04DCF8DE611
:103B100093E0F2CF809139078215130409F00CF479
:103B200006C4D80150968C9150978530E9F4B4E6DC
:103B3000B0935B04E2E3E0935A0461E0822D0E94BB
:103B4000290ABC01990F880B990B0E94DD2DD80121
:103B500018966D937D938D939C931B97BFEF2B1AB3
:103B60003B0A005D1F4FD6CFF801C58CD68CE78C81
:103B7000F0A01896CD92DD92ED92FC921B9720E07A
:103B800030E0A901C701B6010E942E2D412C512C15
:103B900040E8642E4FE3742E87FF06C0412C512C61
:103BA00030E8632E3FEB732E20E030E0A901C7011F
:103BB000B6010E948D2E181624F0F7FAF094F7F84B
:103BC000F094F80166A570E090E080E00E94DD2DA1
:103BD0004B015C01A70196010E942E2D87FFBECFED
:103BE000A3019201C501B4010E94922EB0CFF80149
:103BF0008381882309F4C6C120E030E0A9016589EA
:103C000076898789908D0E948D2E18160CF0BAC186
:103C100024962EAC3FAC2497220C331C220C331C70
:103C200091012E5A3B4F26963FAF2EAF2697D901D2
:103C30008D919D910D90BC91A02D88AF99AFAAAFA9
:103C4000BBAF0E947503F101E65BFB4F7F018080F3
:103C50009180A280B380681979098A099B090E9422
:103C6000DB2D20E030E048E452E40E948D2E87FDF9
:103C700052C10E947503D7016D937D938D939C93E0
:103C80001397F801C588D688E788F08C24813581A0
:103C90004681578122962CAF3DAF4EAF5FAF229742
:103CA000C701B6010E94C12C4B015C018092460401
:103CB00090924704A0924804B092490420E030E07A
:103CC000A9010E948D2E24013501181624F077FADF
:103CD000709477F870942AE037ED43EA5CE3C7010B
:103CE000B6010E94922EA30192010E942E2D87FF01
:103CF00005C1A3019201C701B6010E942E2D87FFC5
:103D000012C020E030E0A901C501B4010E948D2E4F
:103D100018160CF01EC1C0924604D0924704E092DF
:103D20004804F09249044090460450904704609043
:103D300048047090490420E030E0A901C301B201B9
:103D40000E948D2E53014201181624F0B7FAB09448
:103D5000B7F8B0942DEC3CEC4CE45EE3C701B6013F
:103D60000E94922EA50194010E942E2D87FFFDC076
:103D700020E030E040E85FE32093420430934304C6
:103D80004093440450934504D8019596CD90DD901E
:103D9000ED90FC909897A7019601C301B2010E9493
:103DA000922E20E030E04AE754E40E94332DECAD3F
:103DB000FDAD20813181428153810E94C22C4B0193
:103DC0005C0120E030E0A901C701B6010E948D2E00
:103DD00020E030E040E85FE318161CF020E030E01F
:103DE000A901C501B4010E94922E6B017C01ACAD0A
:103DF000BDADCD92DD92ED92FC92139722962CAD43
:103E00003DAD4EAD5FAD2297F101EE5CFB4F6081A1
:103E10007181828193810E94C12CF80121A532A574
:103E200043A554A50E94922E20E030E040E251E4E8
:103E30000E94922E4B015C01209142043091430478
:103E40004091440450914504D80191966D917D9123
:103E50008D919C9194970E94922EA30192010E94B1
:103E6000922EA70196010E94C22C9B01AC01C501B4
:103E7000B4010E94C22C9B01AC0168AD79AD8AAD42
:103E80009BAD0E94C22C68AF79AF8AAF9BAFF8019F
:103E9000F6A46F2D70E090E080E00E94DD2D9B0184
:103EA000AC0168AD79AD8AAD9BAD0E948D2E181620
:103EB00054F46F2D70E090E080E00E94DB2D68AF3D
:103EC00079AF8AAF9BAFD8019D96FC906F2D70E0C3
:103ED00090E080E00E94DD2D28AD39AD4AAD5BADAC
:103EE0000E948D2E181654F46F2D70E090E080E043
:103EF0000E94DB2D68AF79AF8AAF9BAFF101EE5C1A
:103F0000FB4F22962CAD3DAD4EAD5FAD2297208389
:103F100031834283538388AD99ADAAADBBAD26965C
:103F2000EEADFFAD269780839183A283B38368AD06
:103F300079AD8AAD9BAD0E94A52D072E000C880B94
:103F4000990B0E94DD2DF801608771878287938726
:103F50007ACCD701C601B0588093460490934704A9
:103F6000A0934804B0934904DECE80E090E0A0E442
:103F7000BFE38093420490934304A0934404B0931E
:103F8000450402CFACADBDAD1D921D921D921C9299
:103F9000139718AE19AE1AAE1BAEC9CFD80113963F
:103FA0008C91139724962EAC3FAC2497220C331C93
:103FB000220C331C882309F4AFC120E030E0A901B2
:103FC00055966D917D918D919C9158970E948D2E63
:103FD00018160CF0A1C1F101EE5AFB4FC080D18040
:103FE000E280F3800E947503F101E65BFB4F5F0105
:103FF0004080518062807380641975098609970931
:104000000E94DB2D20E030E048E452E40E948D2E37
:1040100087FD5BC10E947503D5016D937D938D93E0
:104020009C931397F801C588D688E788F08C248183
:1040300035814681578128AF39AF4AAF5BAFC701A1
:10404000B6010E94C12C4B015C0180924604909203
:104050004704A0924804B092490420E030E0A9014E
:104060000E948D2E24013501181624F077FA7094E1
:1040700077F870942AE037ED43EA5CE3C701B601B4
:104080000E94922EA30192010E942E2D87FF40C113
:10409000A3019201C701B6010E942E2D87FF12C015
:1040A00020E030E0A901C501B4010E948D2E181650
:1040B0000CF015C1C0924604D0924704E092480427
:1040C000F0924904409046045090470460904804A0
:1040D0007090490420E030E0A901C301B2010E94C0
:1040E0008D2E53014201181624F0B7FAB094B7F898
:1040F000B0942DEC3CEC4CE45EE3C701B6010E94A9
:10410000922EA50194010E942E2D87FFF4C020E07D
:1041100030E040E85FE3209342043093430440934F
:10412000440450934504D8019596CD90DD90ED90D0
:10413000FC909897A7019601C301B2010E94922EAC
:1041400020E030E04AE754E40E94332DECADFDADB1
:1041500020813181428153810E94C22C4B015C013C
:1041600020E030E0A901C701B6010E948D2E20E0B9
:1041700030E040E85FE318161CF020E030E0A901D1
:10418000C501B4010E94922E4B015C01ACADBDADE6
:104190008D929D92AD92BC921397C0904204D090A4
:1041A0004304E0904404F090450428AD39AD4AAD95
:1041B0005BADF101EE5CFB4F608171818281938187
:1041C0000E94C12CF80121A532A543A554A50E9447
:1041D000922E20E030E040E251E40E94922E22969E
:1041E0006CAF7DAF8EAF9FAF2297D80191962D9186
:1041F0003D914D915C919497C701B6010E94922E1A
:10420000A30192010E94922EA50194010E94C22C4A
:104210009B01AC0122966CAD7DAD8EAD9FAD22971A
:104220000E94C22C4B015C0120E030E0A9010E94F9
:104230008D2E24013501181624F077FA709477F842
:104240007094F80166A570E090E080E00E94DD2D9A
:10425000A70196010E94922E6B017C01A30192019D
:104260000E942E2D87FD02C073016201D8019D9628
:104270007C90672D70E090E080E00E94DD2DA7012A
:1042800096010E948D2E181644F4672D70E090E080
:1042900080E00E94DB2D6B017C0120E030E0A90171
:1042A000C501B4010E948D2E181624F0F7FAF0947F
:1042B000F7F8F094F101EE5CFB4F28AD39AD4AAD53
:1042C0005BAD2083318342835383F101EE5AFB4F70
:1042D000C082D182E282F382C701B6012CCED7011F
:1042E000C601B0588093460490934704A0934804B5
:1042F000B0934904E7CE80E090E0A0E4BFE3809370
:10430000420490934304A0934404B09345040BCF1C
:10431000C12CD12C7601CECFACADBDAD1D921D927E
:104320001D921C921397C12CD12C7601CECF0E94E6
:1043300075030091390110913A0120913B013091B0
:104340003C01601B710B820B930B6233710581057D
:10435000910508F457C40E94750360933901709366
:104360003A0180933B0190933C0107EC602E05E0FD
:10437000702E8301F12CE12C809139078E151F04DA
:1043800009F00CF444C00E947503D8011C968D906E
:104390009D90AD90BC901F97681979098A099B0977
:1043A000603A7F408105910580F5F80185889688FF
:1043B000A788B08C20E030E0A901C501B4010E94BB
:1043C0008D2E181624F48091C605811114C0D801D1
:1043D00050968C91843049F420E030E0A901C50169
:1043E000B4010E948D2E181674F08091380181114D
:1043F0000CC08091C605F8018383FFEFEF1AFF0A16
:10440000005D1F4FB9CF81E0F6CF80E0F4CF0E946E
:1044100075030091D3051091D4052091D5053091F5
:10442000D605601B710B820B930B603A7F408105B0
:10443000910508F009C200917304E0907204809124
:104440004007823009F49AC208F01DC2813009F495
:104450004CC2E6E8F4E02896FFAFEEAF289724E8D8
:1044600034E026963FAF2EAF26974CE754E05FAF7F
:104470004EAF84E794E024969FAF8EAF2497AEE8CA
:10448000B4E0BDAFACAFEEE9F4E0F9AFE8AF26E9D8
:1044900034E02A963FAF2EAF2A9747EC842E45E0B2
:1044A000942E10E000E0809139078017110609F082
:1044B0000CF418C3F801EA53FB4F8081882309F4F8
:1044C000AEC0F894808190E0B0E0A0E08093C20498
:1044D0009093C304A093C404B093C5041082580100
:1044E000AA0CBB1CAA0CBB1CF501E654FB4F608157
:1044F0007181828193810E94DB2D6093B604709359
:10450000B7048093B8049093B90478944091C2049E
:104510005091C3046091C4047091C504F401818971
:104520009289A389B489840F951FA61FB71F818B19
:10453000928BA38BB48B87A5882309F44DC0C80147
:10454000880F991F9C012E543B4F6901D901ED90B2
:10455000FC901197E40EF51EED92FC920E941E0352
:10456000F501E655FB4F5F01208131814281538186
:104570001B012C01221A330A440A550A2092A60470
:104580003092A7044092A8045092A904F1E22F1699
:10459000F1EA3F06F7E04F065104F0F00E941E03D7
:1045A000D5016D937D938D939C931397970150E064
:1045B00040E0C201B1010E948430CA01B9010E94E9
:1045C000DB2D6093B6047093B7048093B804909386
:1045D000B904F60111821082C090B604D090B704DD
:1045E000E090B804F090B90420E030E0A901C701E0
:1045F000B6010E942E2D81115EC2A8ADB9AD1D92EB
:104600001D921D921C9213970E9475032A96AEADBF
:10461000BFAD2A976D937D938D939C9313970E94C2
:1046200075032A96EEADFFAD2A97C190D190E19027
:10463000F1902A96FFAFEEAF2A976C197D098E098B
:104640009F09613A7F4081059105D8F0A8ADB9ADC9
:104650001D921D921D921C921397ECADFDAD108220
:104660001182128213822896AEADBFAD28971D929B
:104670001D921D921C9213972696EEADFFAD2697C4
:104680001082A8ADB9ADCD90DD90ED90FC90ECAD71
:10469000FDAD2081318142815381C701B6010E9465
:1046A000C22C1B012C01ACADBDAD2D923D924D92A3
:1046B0005C921397EEADFFAD208131814281538131
:1046C000C701B6010E948D2E18163CF4AEADBFADE9
:1046D000CD92DD92ED92FC9213972496EEADFFAD54
:1046E00024972081318142815381C701B6010E9404
:1046F0002E2D87FF09C02496AEADBFAD2497CD9275
:10470000DD92ED92FC9213972696EEADFFAD2697C3
:1047100080818F5F81932696FFAFEEAF269785301D
:1047200008F443C0AEADBFAD2D913D914D915C916C
:10473000C201B1010E94C12C2496EEADFFAD2497B9
:1047400020813181428153810E94C12C20E030E0E0
:1047500040E450E40E94332D2896AEADBFAD2897BB
:104760006D937D938D939C931397ECADFDAD10826B
:10477000118212821382AEADBFAD1D921D921D92A9
:104780001C92139720E836E948E95AE42496AEAD26
:10479000BFAD24972D933D934D935C93139726962D
:1047A000EEADFFAD269731971082F401C18CD28C0B
:1047B000E38CF48C20E030E0A901C701B6010E942F
:1047C0008D2E18160CF086C120E030E040E752E450
:1047D0002896AEADBFAD28976D917D918D919C913E
:1047E0000E94922EA70196010E94332DF40164834A
:1047F0007583868397830F5F1F4F2896EEADFFADBD
:10480000289734962896FFAFEEAF2897F0E38F0EE7
:10481000911C2EAD3FAD2C5F3F4F3FAF2EAF249686
:104820004EAD5FAD24974C5F5F4F24965FAF4EAFA8
:1048300024978CAD9DAD04969DAF8CAFA8ADB9AD5E
:104840001496B9AFA8AF2FCE0E947503009103064E
:10485000109104062091050630910606601B710B2D
:10486000820B930B603A7F408105910508F4E3CDFC
:104870000091710480917004082BE0906F04809186
:104880006E04E82ADCCD833009F4ACC0843009F032
:10489000E0CD80915C04882309F4DBCD61E4A62E91
:1048A00067E0B62ED12CC12C10E0D5018D915D01B1
:1048B000803108F4DCC0BFEFCB1ADB0AE8E0CE168B
:1048C000D10499F759E4C52E57E0D52E10E000E049
:1048D000F12CD6018D916D01803108F4DAC00F5FA3
:1048E0001F4F08301105A9F7B4CD11E4A12E17E030
:1048F000B12ED12CC12C10E0D5018D915D018F3FDF
:10490000C9F4BFEFCB1ADB0AE8E0CE16D104A1F759
:10491000B9E4CB2EB7E0DB2E10E000E0F12CD6019D
:104920008D916D018F3FC1F40F5F1F4F083011054E
:10493000B1F78FCD90913A0798010C2C02C03595B4
:1049400027950A94E2F7692F20FD03C061E09111D9
:1049500060E00E944C02D5CF90913A079701002E5B
:1049600002C0359527950A94E2F7692F20FD03C010
:1049700061E0911160E00E944C02D6CF80916D04FD
:10498000882309F466CDFDE5AF2EF4E0BF2EA7E73E
:10499000CA2EA1E0DA2EF12CE12C10E098010E2CA9
:1049A00002C0359527950A94E2F7B22FB1709B2E7D
:1049B000F50181915F01B81751F0D6018C9160E04B
:1049C00020FF61E00E948207F50131979082BFEFDE
:1049D000EB1AFB0AEFEFCE1ADE0AF8E0EF16F1044D
:1049E000E9F637CD80916D04882309F432CD7DE559
:1049F000872E74E0972EE7E6AE2EE1E0BE2ED12C96
:104A0000C12CF12C10E028E0C216D1042CF5C8010D
:104A10000C2C02C0959587950A94E2F7382F3170D7
:104A2000532ED4018D914D01851559F0F5018081EA
:104A300060E0511001C061E00E948207F4013197EB
:104A40005082FFEFCF1ADF0A2FEFA21AB20A30E12D
:104A5000C316D104C1F6FDCCC6010897A70102C058
:104A6000559547958A95E2F74170542EDACF90918B
:104A70003A0798010C2C02C0359527950A94E2F765
:104A8000692F20FD03C061E0911160E00E940810D1
:104A900012CF90913A079701002E02C035952795C5
:104AA0000A94E2F7692F20FD03C061E0911160E0F4
:104AB0000E94081014CFA701960160E074E284E719
:104AC00099E40E94332DE8ADF9AD60837183828350
:104AD00093839ACDD40114961D921D921D921C921F
:104AE000179789CE10E000E08091390780171106F2
:104AF00009F00CF487C0F3018089823009F468C0A2
:104B000050F4882391F1813059F00F5F1F4FB0E3CB
:104B10006B0E711CE9CF843009F45AC08530A9F7B7
:104B2000E0903B07F301F1808381882309F447C0BB
:104B300020E030E0A90160857185828593850E941F
:104B40008D2E87FD4DC06E2D8F2D0E944C02D301FE
:104B500018966D917D918D919C911B970E94A52D2A
:104B6000F30182810E94B602D0CFE0903B07F18032
:104B700020E030E0A90160857185828593850E94DF
:104B80008D2E87FD0FC06E2D8F2D0E944C02F301DC
:104B900060857185828593850E94A52DD30112962B
:104BA0008C91E0CF61E0E11060E08F2D0E944C021B
:104BB000F30160857185828593859058EDCF61E022
:104BC000E11060E08F2D0E944C026FEF70E0E6CFA5
:104BD000F3018381882399F0E0903B07F180A8CF0F
:104BE00061E0E11060E08F2D0E944C02D301189625
:104BF0006D917D918D919C911B979058AFCF70E0F6
:104C000060E0CCCF0E947503009134011091350112
:104C10002091360130913701601B710B820B930B91
:104C2000693C71058105910508F470C12091510717
:104C30002F3F09F40AC130E0F901E45CFE4F849192
:104C4000F901E85DFE4F1491F901EC5EFE4F04910D
:104C5000002309F4F4C081110E942302E02FF0E048
:104C6000EE0FFF1FE65FFE4FA591B491EC911E235E
:104C700031E020E009F430E0832F922F282F2170BB
:104C800030915207332309F4DDC03091C804231753
:104C900051F0892B31F08091C90491E089278093EC
:104CA000C9042093C8040E94750360933401709373
:104CB0003501809336019093370107EC15E0D12C34
:104CC000C12CF0E97F2EAEE76A2E809138079091D3
:104CD00039079C151D0409F00CF4D8C079826A824A
:104CE000E0E18E9FC00111248C298B8320E030E00D
:104CF0004AE754E4D80114966D917D918D919C9171
:104D000017970E94922E0E94AC2D6C837D838E8318
:104D1000F801818C928CA38CB48C20E030E0A90146
:104D2000C501B4010E948D2E18160CF091C0D80157
:104D300051966D917D918D919C9154970E94DB2DA0
:104D400020E030E040E251E40E94922EA50194015F
:104D50000E94332D0E94AC2D6F8378878987F801DC
:104D600060857185828593850E94A52D6A877B87E2
:104D70001C860E9475038090D3059090D405A09066
:104D8000D505B090D605681979098A099B09603A5A
:104D90007F408105910518F48C8581608C870E9485
:104DA00075038090030690900406A0900506B090CD
:104DB0000606681979098A099B09603A7F408105CE
:104DC000910518F48C8582608C870E94FB0C8823E7
:104DD00019F08C8580648C878091CA04882319F02F
:104DE0008C8580688C87FE01319690E080E021916F
:104DF000820F911D4CA95DA94E175F07C1F78D87E2
:104E00000E94FB0C882341F14FE255E76DE471E00D
:104E100083E094E10E9410118DE0FE013196AFE431
:104E2000B5E001900D928A95E1F78DE090E00E9447
:104E30003C05FFEFCF1ADF0A005D1F4F46CF90E021
:104E400080E01CCF2093C9042ECF1092C9042BCF31
:104E50001F821886198683CF89810E94660D7E0184
:104E600052E0E50EF11C81E993E00E94070DD701A5
:104E70008D917D010E94660DEEA9FFA9EE15FF053B
:104E800091F78BEA91E00E94580DD3CF91E9998375
:104E90009EE79A838B831C821D821E821F82188646
:104EA00019861A861B8680E58C8787E28D871E8689
:104EB0008091C904882311F081E08E879E01215FD3
:104EC0003F4FFE01319690E080E04191840F911DAB
:104ED0002E173F07D1F78F870E94FB0C882309F418
:104EE00051C14FE255E76DE471E083E094E10E9427
:104EF00010118FE0FE013196AFE4B5E001900D9204
:104F00008A95E1F78FE090E00E943C050E94FB0C3F
:104F1000882309F42CC48091CF04882379F0609110
:104F2000CD047091CE046115710509F04AC16FEF8F
:104F30007BE08CE00E94A1041092CF0489E30E94E0
:104F4000AE04F12CE12C8823D9F16091CD0470914D
:104F5000CE0480E00E94A104BE016F5F7F4F86E017
:104F600090E00E943C0489819A819093CE048093C2
:104F7000CD048D819E817C01B0E8EB22FF2487FF68
:104F800013C08B819C810497E090CB04F090CC04FB
:104F9000E1E0EE1AF1088E159F0508F47C0165E248
:104FA00075E0C7010E943C04F701EB5DFA4F1082E7
:104FB00081E08093CF0440E46EE180E80E946304C6
:104FC00080919D05882369F08091E504823009F481
:104FD00001C108F0F9C0882309F484C1813009F4C3
:104FE000A0C1E114F10409F02BC280919C058570E9
:104FF00099F080919A0590919B05892B69F40E9404
:10500000C60482FF09C086E995E00E949410809151
:105010009C05886080939C0580919A0590919B05E2
:10502000019690939B0580939A0580919505813018
:1050300009F06EC080919C0581FF6AC082E0809378
:105040009505809133018F5F80933301182F1F7175
:105050008BE895E00E94D8006BE875E0882309F49E
:10506000ECC189E195E00E94FE1008E00093310553
:105070001092320549E050E060E571E083E395E08D
:105080000E94A22C8CE28093360586E080933C053A
:105090000E941B041092490510924A058BE08093F0
:1050A000470510934805EBE4F5E0DF011D920A95F2
:1050B000E9F78091320180934D058D5F8093320135
:1050C00080E68093530582E08093540593E09093AB
:1050D00055051092560510925705109258051092DA
:1050E000590510925A0580935B0594E090935C05F6
:1050F00080935D0586E280935E0522E040E250E009
:105100006AE182E30E94C8038AE390E00E94DC0423
:1051100081E995E00E94D800882379F0809190057C
:1051200081110BC080918F05811107C081E995E045
:105130000E94941081E080938F058BE895E00E9497
:10514000D800882379F080918A0581110BC0809165
:105150008905811107C08BE895E00E94941081E0D9
:105160008093890580E090E0892B11F40C94E21B78
:105170000E948001882311F40C94E21B0E9400001D
:105180000C94DD1B89810E94660D8E010E5F1F4FFE
:10519000EE24E394F12CEC0EFD1E2FE0E20EF11C48
:1051A00081E993E00E94070DD8018D918D010E9445
:1051B000660DE016F106A1F78BEA91E00E94580D0A
:1051C000A5CE61507109B5CE833009F456C0843044
:1051D00009F007CF65E0C7010E947105882309F433
:1051E000C9C08091D404811108C088E30E94AE0434
:1051F000682F6E7F88E30E9494046FE575E081E874
:1052000096E00E948C10EFE3F6E097012B5D3A4F99
:1052100069018F010E5F1F4FB1808081863009F4D4
:10522000FBC008F0BEC0813009F4ECC0833009F443
:10523000EFC0F801EB0DF11DEC15FD0550F30E94D8
:1052400075036093DD047093DE048093DF04909314
:10525000E00480919605882361F010929B051092DE
:105260009A0581E080939C0566E975E0CB010E9478
:105270008C1083E08093E504B4CE8090E10490909C
:10528000E204A090E304B090E404FFEF8F169F06C1
:10529000AF06BF0609F4A5CE0E9475030091DD0498
:1052A0001091DE042091DF043091E004601B710B4B
:1052B000820B930B681579058A059B0508F491CE3E
:1052C00081E896E00E946C1184E08093E5040E94DE
:1052D00075036093D9047093DA048093DB04909390
:1052E000DC047FCE0E9475036093D5047093D604CE
:1052F0008093D7049093D804E1E8F6E084E0DF01DE
:105300001D928A95E9F790E080E00E946C1188E395
:105310000E94AE04682F616088E30E94940481E0DB
:10532000D4CF62E0C7010E947105882319F16FE5AF
:1053300075E0CE0101960E948C10EFE3F6E0C70104
:105340008B5D9A4FBF016E5F7F4F21813081363375
:1053500051F480ED94E00E948C10CE0101960E94E1
:105360006C1182E0B2CFFB01E20FF11DE817F907E3
:1053700048F3F3CF0E9475030091D9041091DA0429
:105380002091DB043091DC04601B710B820B930BCA
:10539000613177428105910508F423CE1092E5042E
:1053A00020CE8A3331F08F3F09F449CF833309F09F
:1053B00040CF1092E1041092E2041092E3041092A4
:1053C000E404F801C801049620E030E0A9016191ED
:1053D000542F432F322F2227260F311D411D511DDF
:1053E0008E179F07A1F72F3F8FEF38074807580701
:1053F000B9F42093E1043093E2044093E304509322
:10540000E40417CFB8018DE796E00E948C1011CF0D
:10541000B80186E995E0F9CFB80181E995E0F5CFCB
:10542000A8EEB3E00E94A6306093E1047093E2041A
:105430008093E3049093E404FCCE8FE195E013CED7
:10544000B9E2EB16F10408F48DCE80913105883075
:1054500009F088CE80913205863009F02AC244E0F6
:1054600050E061E876E08BE495E00E94EB31892B17
:1054700009F078CE80913A05813029F58BE295E0EC
:105480000E9481101092390582E080933A056BE307
:1054900075E085E495E00E94621066EE74E08BE3AF
:1054A00095E00E94621061E475E08BE495E00E9453
:1054B0008C1061E876E081E495E00E948C108AE22D
:1054C00090E00E94DC0480919C0583FF0DC0109148
:1054D0003A05123049F46FE175E086E995E00E94E3
:1054E0006A10811110939C0580919005811111C063
:1054F00080918F05882369F069E175E081E995E085
:105500000E946A10882329F081E080939005109210
:105510008F0580918A05811125CE80918905882388
:1055200009F420CE69E175E08BE895E00E946A10ED
:10553000882309F417CE81E080938A0510928905AB
:1055400011CE90911805911122C0E6E3EE16F104F8
:1055500008F408CE00913C05063009F003CE809196
:1055600049058B3009F0B2C044E050E06BE875E0CB
:105570008FE395E00E94EB31892B09F0F3CD109178
:10558000540512FF58C085E080939505EBCD81311D
:10559000E1F630EFC32E34E0D32EB12CA12C20E065
:1055A000809118058A151B0409F00CF440C0D6013F
:1055B00012963C91129713969C91139780914905EE
:1055C0002B969FAF2B972C961FAE2C972C96EEAD5B
:1055D000FFAD2C978E171F0619F580914A0583138E
:1055E0001FC014969C9014979920D1F000914B0500
:1055F00010E0102F002720914C052850330B020F8C
:10560000131F4091470550914805542745275427BB
:10561000ED91FC912FE435E06FE375E00995292DBC
:10562000FFEFAF1ABF0A35E0C30ED11CB9CF22235A
:1056300009F48BCF97CD0E948203209195052230EB
:1056400089F5212F20711271123101F560E090E08F
:1056500080E00E94DA1088E18093540583E0809313
:1056600095051092350588E2809336050E941B044B
:10567000109257051092580522E04CE150E06AE183
:1056800082E30E94C80386E390E059C131E0309381
:1056900095050196222311F090E080E064E00E94DD
:1056A000DA1060CD253009F45DCD10FF0AC023303B
:1056B00009F458CD69E001960E94DA10009395052F
:1056C00051CD60E0009709F44DCDE9CF81114ACD6D
:1056D00080914A05803509F045CD1091540511FFA0
:1056E00039C0109235058CE2809336050E94C810AF
:1056F00082E18093540560E081E090E00E949D0388
:1057000010924B0510924C058091320180934D050B
:1057100010924E058D5F8093320182E080935B058D
:1057200084E080935C0585E080935D0510925E05C2
:1057300090E6909353058093550588E7809356052E
:1057400022E040E250E06AE182E30E94C8038AE37B
:1057500090E0F5C014FF06CD0E948203892B09F06A
:1057600001CD10FFFFCC60E090E080E098CF85E8AD
:1057700096E00E947401892B09F4F4CC85E896E048
:105780000E947401C3978CF085E896E00E94740132
:10579000892B29F085E896E00E945201F5CF1092FE
:1057A000C5051092C4051092C3058091C3058823D6
:1057B00061F10091C20510E085E896E00E94740155
:1057C000980122503109821793070CF4CBCC81EA5F
:1057D000E82E85E0F82EC7018F5995408017910774
:1057E00044F485E896E00E945201D7018D937D0133
:1057F000F2CFB8018FE995E00E9426131092C505FB
:105800001092C4051092C305ADCC8091C40590914F
:10581000C505873FBEE79B0718F5853FEEE79E0766
:1058200078F5843F9E4729F185E896E00E94520171
:1058300090919E052E968FAF2E972D961FAE2D9789
:105840002E962EAD3FAD2E97292B3093C505209374
:10585000C40590939F058093A00580939E0582CCFC
:10586000873F2EE7920771F08C3B9F47E9F68FE167
:1058700001C08EE08093C20581E08093C30572CCA5
:105880008AE0F8CF86E0F6CF80914007813011F0B2
:105890000C948618E1E4F7E081918651893E10F47A
:1058A0000C94F61927E0E135F207B1F781E00C948A
:1058B000F71949E2E416F10409F454CC811152CCF1
:1058C00080913305853409F04DCC44E050E061E827
:1058D00076E083E495E00E94EB31892BA9F044E067
:1058E00050E06CEE74E083E495E00E94EB31892B8C
:1058F00059F044E050E06FE771E083E495E00E94E6
:10590000EB31892B09F02ECC80913C05813009F0D8
:1059100018CE90914705983009F013CE0E94C81018
:105920001092470580914905883F28F090914A05DB
:105930009F5F90934A05885F80934905C7010E9445
:10594000DC0410CCFB01DC0102C005900D9241503B
:105950005040D8F70895F999FECF92BD81BDF89ACD
:10596000992780B50895262FF999FECF1FBA92BDC9
:1059700081BD20BD0FB6F894FA9AF99A0FBE019630
:1059800008955058BB27AA270E94D92C0C94532E57
:105990000E94452E38F00E944C2E20F039F49F3F93
:1059A00019F426F40C94422E0EF4E095E7FB0C94C7
:1059B0003C2EE92F0E94642E58F3BA176207730732
:1059C0008407950720F079F4A6F50C94862E0EF442
:1059D000E0950B2EBA2FA02D0B01B90190010C01FF
:1059E000CA01A0011124FF27591B99F0593F50F417
:1059F000503E68F11A16F040A22F232F342F44276F
:105A0000585FF3CF469537952795A795F040539566
:105A1000C9F77EF41F16BA0B620B730B840BBAF036
:105A20009150A1F0FF0FBB1F661F771F881FC2F7A1
:105A30000EC0BA0F621F731F841F48F487957795B5
:105A40006795B795F7959E3F08F0B0CF9395880F6F
:105A500008F09927EE0F9795879508950E94182EC4
:105A600008F481E008950E94472D0C94532E0E9463
:105A70004C2E58F00E94452E40F029F45F3F29F04B
:105A80000C943C2E51110C94872E0C94422E0E94A3
:105A9000642E68F39923B1F3552391F3951B550BAD
:105AA000BB27AA2762177307840738F09F5F5F4FF1
:105AB000220F331F441FAA1FA9F335D00E2E3AF030
:105AC000E0E832D091505040E695001CCAF72BD048
:105AD000FE2F29D0660F771F881FBB1F2617370799
