:100000000C94F8010C9428160C9401160C94200200
:100010000C9420020C9420020C9420020C942002D8
:100020000C9420020C9420020C9420020C942002C8
:100030000C9420020C9420020C9420020C942002B8
:100040000C94B7150C9420020C9485150C945F1534
:100050000C9420020C9420020C9420020C94200298
:100060000C944F160C94200207634236B79BD8A716
:100070001A39685618AEBAAB558C1D3CB7CC5763CD
:10008000BD6DEDFD753EF6177231BF000000803F7B
:1000900008000000BE922449123EABAAAA2ABECD97
:1000A000CCCC4C3E00000080BEABAAAAAA3E000009
:1000B0000000BF000000803F000000000008417801
:1000C000D3BB4387D1133D190E3CC3BD4282AD2B38
:1000D0003E68EC8276BED98FE1A93E4C80EFFFBE30
:1000E00001C4FF7F3F000000000055706461746927
:1000F0006E672073746F7265642073657474696EC3
:1001000067732E0063825363000108000604000138
:1001100000000000250028002B004C6F6164696E10
:10012000672064656661756C742073657474696EAC
:1001300067732E0053746F726564207365747469FD
:100140006E6773206E6F742076616C69642E004C4C
:100150006F6164696E672073746F72656420736584
:100160007474696E67732E0000000000240027007D
:100170002A0046696E6973686564207365747570DA
:100180002E00414453313131353A20446973616264
:100190006C6564200044697361626C65640065721B
:1001A000726F722C206475706C696361746520666F
:1001B0006C6F772070696E00576865656C205370AE
:1001C0006565642050696E3A2000507265737375DE
:1001D00072652050696E3A2000576F726B2053771A
:1001E000697463682050696E3A200050574D205062
:1001F000696E3A20004449522050696E3A20004608
:100200006C6F772050696E3A200053656E736F7281
:1002100020323A200050574D2050696E3A20004459
:1002200049522050696E3A2000466C6F7720506921
:100230006E3A200053656E736F7220313A2000537E
:10024000656E736F727320656E61626C65643A20CF
:10025000004D43503233303137206E6F7420666F5B
:10026000756E642E004D4350323330313720666F47
:10027000756E642E002E002E005374617274696EC8
:1002800067204D43503233303137202E2E2E005010
:1002900043413935353520657870616E646572206B
:1002A0006E6F7420666F756E642E00504341393551
:1002B000353520657870616E64657220666F756E85
:1002C000642E002E005374617274696E672050436F
:1002D000413935353520492F4F20457870616E649E
:1002E0006572202E2E2E0045746865726E6574202E
:1002F000636F6E74726F6C6C6572206E6F742066C3
:100300006F756E642E0045746865726E6574206347
:1003100061626C65206E6F7420636F6E6E656374CE
:1003200065642E00495020416464726573733A20FD
:10033000202020200045746865726E657420636F0C
:100340006E74726F6C6C657220666F756E642E00D1
:100350005374617274696E672045746865726E6566
:1003600074202E2E2E004D6F64756C652049443A22
:1003700020004669726D77617265205665727369F7
:100380006F6E3A2076004500008200004000200F8A
:100390000E0D0C0B0A0908000102030405060707ED
:1003A000050301080A0C0E000000002300260029A6
:1003B000000404040404040404020202020202030E
:1003C0000303030303010204081020408001020418
:1003D000081020010204081020000000080002019B
:1003E00000000304070000000000000000006E177A
:1003F00011241FBECFEFD8E0DEBFCDBF11E0A0E0DB
:10040000B1E0E2E8FCE502C005900D92A23BB10725
:10041000D9F727E0A2EBB1E001C01D92A536B207E3
:10042000E1F711E0C8EFD1E004C02197FE010E947E
:100430001D2EC73FD107C9F70E94B6170C943F2E57
:100440000C940000CF93DF932091B8062223C1F0D3
:10045000FC0120812223A1F0C8EBD6E0A4EBB6E09A
:100460009C012C5F3F4F899141919D918427892365
:1004700039F4E217F307B9F781E0DF91CF910895DE
:1004800080E0FBCF8230C8F4E82FF0E0EE0FFF1FD2
:10049000E55AFE4F71836083813041F0809169009D
:1004A0008C7F826080936900E89A0895809169004A
:1004B000837F886080936900E99A0895AF92BF9224
:1004C000CF92DF92EF92FF920F931F93CF93DF9320
:1004D0006C017B018B01040F151FEB015E01AE184F
:1004E000BF08C017D10759F06991D601ED91FC9171
:1004F0000190F081E02DC6010995892B79F7C5019E
:10050000DF91CF911F910F91FF90EF90DF90CF90EF
:10051000BF90AF90089508950895FC01538D448DC8
:10052000252F30E0842F90E0821B930B541710F09E
:10053000CF96089501970895FC01918D828D9817AB
:1005400061F0A28DAE0FBF2FB11D5D968C91928D83
:100550009F5F9F73928F90E008958FEF9FEF0895B4
:10056000FC01918D828D981731F0828DE80FF11D7D
:10057000858D90E008958FEF9FEF0895FC01918D98
:10058000228D892F90E0805C9F4F821B91098F7391
:10059000992708958CEB96E00E94BE0221E0892BFA
:1005A00009F420E0822F089580E090E0892B29F063
:1005B0000E94CA0281110C9400000895FC01A48DD0
:1005C000A80FB92FB11DA35ABF4F2C91848D90E075
:1005D00001968F739927848FA689B7892C93A08958
:1005E000B1898C91837080648C93938D848D9813E2
:1005F00006C00288F389E02D80818F7D8083089575
:10060000EF92FF920F931F93CF93DF93EC0181E062
:10061000888F9B8D8C8D98131AC0E889F989808109
:1006200085FF15C09FB7F894EE89FF896083E8893C
:10063000F98980818370806480839FBF81E090E02E
:10064000DF91CF911F910F91FF90EF900895F62EBB
:100650000B8D10E00F5F1F4F0F731127E02E8C8D55
:100660008E110CC00FB607FCFACFE889F98980819A
:1006700085FFF5CFCE010E94DE02F1CFEB8DEC0FAE
:10068000FD2FF11DE35AFF4FF0829FB7F8940B8FB7
:10069000EA89FB8980818062CFCF0F931F93CF932C
:1006A000DF938C01D0E0C0E0F801EC0FFD1F6491F6
:1006B000662341F08CEB96E00E940003892B11F039
:1006C0002196F2CFCE01DF91CF911F910F91089526
:1006D000CF93DF93EC01888D8823B9F0AA89BB8979
:1006E000E889F9898C9185FD03C0808186FD0DC064
:1006F0000FB607FCF7CF8C9185FFF2CF808185FF85
:10070000EDCFCE010E94DE02E9CFDF91CF910895B7
:10071000833081F028F4813099F08230A9F0089577
:100720008730A9F08830C9F08430B1F4809180001E
:100730008F7D03C0809180008F7780938000089523
:1007400084B58F7784BD089584B58F7DFBCF80916C
:10075000B0008F778093B00008958091B0008F7DB6
:10076000F9CF1F93CF93DF93282F30E0F901E752A1
:10077000FC4F8491F901EB53FC4FD491F901EF54F4
:10078000FC4FC491CC23A9F0162F81110E9488033D
:10079000EC2FF0E0EE0FFF1FE05FFE4FA591B4914C
:1007A0008FB7F894EC91111108C0D095DE23DC933B
:1007B0008FBFDF91CF911F910895DE2BF8CFCF939C
:1007C000DF9390E0FC01EB53FC4F24918F549C4F3E
:1007D000FC0184918823C9F090E0880F991FFC01E7
:1007E000E859FE4FA591B491FC01E05FFE4FC59121
:1007F000D49161110DC09FB7F8948C9120958223FC
:100800008C938881282328839FBFDF91CF910895FF
:10081000623051F49FB7F8943C91822F80958323E6
:100820008C93E8812E2BEFCF8FB7F894EC912E2B81
:100830002C938FBFEACF3FB7F894809188029091B4
:100840008902A0918A02B0918B0226B5A89B05C0AF
:100850002F3F19F00196A11DB11D3FBFBA2FA92F3F
:10086000982F8827BC01CD01620F711D811D911D3C
:1008700042E0660F771F881F991F4A95D1F70895A8
:100880008F929F92AF92BF92CF92DF92EF92FF92A0
:100890004B015C010E941B046B017C010E941B0444
:1008A0006C197D098E099F09683E73408105910589
:1008B000A8F321E0821A9108A108B10888EEC80EB9
:1008C00083E0D81EE11CF11C81149104A104B10441
:1008D00029F7FF90EF90DF90CF90BF90AF909F905F
:1008E0008F9008952FB7F8946091840270918502DB
:1008F00080918602909187022FBF0895089580917C
:10090000FB039091FC03982789279827449720910F
:10091000190430E044E0359527954A95E1F7220F18
:10092000331F220F331F821B930B97FF02C090E0EF
:1009300080E0089520910F0430910D0430930F044E
:1009400020930D042091100430910E043093100474
:1009500020930E04EBEEF3E021A5820F911D25A557
:1009600085A7662381F021A7892F9927319723E056
:10097000E73EF20789F710921D0410921E0480E5ED
:1009800080931904089511A6EFCF0F931F93CF936F
:10099000DF9370E065517C4F8A01075F1F4F213064
:1009A00029F0223031F48A010250110930E020E0B0
:1009B00003C000E010E09801EB01FA01E230F1051C
:1009C00058F0A991B991BA27AB27BA270A0F1B1F74
:1009D000211D311D3297F2CFFA01EE7F6E0F7F1F7E
:1009E0004E175F0769F0FB01408150E070E060E066
:1009F000762F652F542F4427040F151F261F371FEE
:100A0000A90166277727411551056105710519F080
:100A100022273327F1CF00951095E82FF0E0E5511C
:100A2000FC4F10830183DF91CF911F910F910895A7
:100A3000EBEEF3E0108E118E80E4848B158A868BAA
:100A400020E044E150E06EE088E10C94C5048EBDE6
:100A50000DB407FEFDCF089561E0809195020E94DC
:100A6000B10378940895F89460E0809195020C9415
:100A7000B1030F931F93CF93DF93EC018B010E947F
:100A800033052097B9F08AE30E9427051EBCF801C0
:100A9000CE01019739F00DB407FEFDCF2EB51EBC77
:100AA0002193F7CF2197C00FD11F0DB407FEFDCFC3
:100AB0008EB58883DF91CF911F910F910C942C05F7
:100AC0001F93CF93DF93182FC62FD42F0E94330587
:100AD0008C2F8F71812B0E9427058D2F0E94270557
:100AE000DF91CF911F910C942C05CF93C82FC07626
:100AF000809182028C1799F043E06FE180EA0E94B6
:100B00006005C09382024C2F50E085E055954795D3
:100B10008A95E1F76FE180E8CF910C946005CF9161
:100B20000895CF93DF93C82FD62F0E9475054D2FC0
:100B30006C2F80E4DF91CF910C946005CF93DF930D
:100B4000C82FD72F0E9491056D2F81E08C0FDF9168
:100B5000CF910C949105CF93C82F0E9475050E94E8
:100B600033058C2F8F710E94270580E00E94270596
:100B7000C7FF03C080E00E942705CEB50E942C0568
:100B80008C2FCF91089561E184ED0E94910561E081
:100B900082ED0E9491058AEE0E94AB0580FDFBCF9D
:100BA00060E082ED0E94910589ED0E94AB0590E026
:100BB0000895CF93DF93EC0140E86FE180E80E9455
:100BC000600540E86FE180EA0E9460054AE06CE160
:100BD00080EA0E94600560E07CE082E00E949E0561
:100BE000BE01745F86E00E949E0540E060E08AE7F7
:100BF0000E9460050E9433052097B1F08AE70E94A9
:100C000027058091EB038EBDECEEF3E0C551DC4F80
:100C1000EC17FD0731F081910DB407FEFDCF8EBDBD
:100C2000F7CF0DB407FEFDCF0E942C0548E06FE121
:100C300080E80E946005D0E0C0E08CE10E94AB0536
:100C40008A7029F42196C83E83E0D807B1F78CE179
:100C50000E94AB0581FD03C0C83ED34039F448E093
:100C60006FE180EADF91CF910C946005DF91CF9125
:100C700008950F931F93CF93DF93EC010BEE13E0D6
:100C80004C96F801908B818B0E941805CE01089636
:100C9000F80196A387A3AE01405F5F4F21E06AE1B0
:100CA00088E20E94C504CE018A96DF91CF911F9100
:100CB0000F910C94D905CF93DF93EB01682F84ED4E
:100CC0000E949105BE0186ED0E949E058AEE0E945B
:100CD000AB0580FDFBCFDF91CF910895CF92DF92DE
:100CE000EF92FF920F931F938634910568F1209144
:100CF0000E04233449F5C0901904D0901A04E090F2
:100D00001B04F0901C040091B8021091B9022091CC
:100D1000BA023091BB02C016D106E206F306A1F476
:100D2000E5E0F5E085519C4F9F012E5F3F4F4181EB
:100D30005081553319F45281651771F0F901E40FB0
:100D4000F11DE817F90780F380E01F910F91FF90E4
:100D5000EF90DF90CF90089581E0F7CFE09180028F
:100D6000F09181029F012F5F3F4F309381022093CA
:100D7000800280830895FF920F931F93CF93DF9398
:100D8000162FF42E052F0E94AE06812F0E94AE066C
:100D9000CF2DD02F115020F089910E94AE06FACFAE
:100DA000DF91CF911F910F91FF900895209136020E
:100DB000260F3327331F21323105ECF420915A02DC
:100DC000FC0190E080E0243069F082E00895A09179
:100DD00036022191AC014A5E5D4FA40FB52FB11DC3
:100DE0002C930196861798F380913602680F6093D2
:100DF000360280E0089581E0089510925A0281E061
:100E000080935C0210925B0261E082E10E94B10378
:100E100061E083E10E94B103E9EBF0E080818E7F25
:100E2000808380818D7F808388E48093B80085E40F
:100E30008093BC000895CF93DF9391E090931502C7
:100E40008823B9F0C091B800D091BA008091BC005D
:100E50008A7B8093BC0060E082E10E94B10360E085
:100E600083E10E94B1030E94FD06D093BA00C093B3
:100E7000B800DF91CF9108950895E091910280919B
:100E80009002E81730F4F0E0E051FE4F808190E0EE
:100E900008958FEF9FEF08959091910280919002B5
:100EA0002FEF3FEF981748F4E92FF0E0E051FE4FA5
:100EB000208130E09F5F90939102C9010895809155
:100EC000900290919102891B990B0895CF92DF9225
:100ED000EF92FF920F931F93CF93DF937C01CB018F
:100EE0008A012091B306222389F0EB016B01C40E25
:100EF000D51ECC15DD0569F06991D701ED91FC9106
:100F00000190F081E02DC7010995F3CF642F0E9475
:100F1000D606C801DF91CF911F910F91FF90EF90FE
:100F2000DF90CF900895CF93DF931F92CDB7DEB7B8
:100F300069832091B3062223F9F02091B006203274
:100F400058F021E030E0FC013383228390E080E020
:100F50000F90DF91CF9108958091B106E82FF0E0D6
:100F6000E053FE4F998190838F5F8093B106809309
:100F7000B00681E090E0ECCF61E0CE0101960E94E6
:100F8000D606F7CF682F89E597E00C949307CF92A8
:100F9000DF92EF92FF920F931F93CF93DF93D09145
:100FA000B00681E0D13208F09CC0C091B2060E9428
:100FB0001B046B017C0180915A0281116CC082E09C
:100FC00080935A0281E080935C028FEF80935902F4
:100FD00010927E02D0937D02A0EDB1E0EDE5F2E04B
:100FE00080E0D8138DC010927F0280917F02CC0FD9
:100FF000C82BC0937F0280915B02813009F084C0CE
:1010000010925B020E941B046B017C0180917F02A5
:101010008093BB008091110290911202A091130263
:10102000B0911402892B8A2B8B2BA1F00E941B04F8
:1010300000911102109112022091130230911402BA
:101040006C197D098E099F090617170728073907AC
:1010500008F442C08091BC0083FDD8CF85EC80931A
:10106000BC000E941B046B017C0180915A028230FB
:1010700009F44CC0809159028F3F09F469C08091F6
:101080005902803209F466C080915902803309F414
:1010900063C084E026C08091110290911202A09159
:1010A0001302B0911402892B8A2B8B2B09F483CF66
:1010B0000E941B0400911102109112022091130250
:1010C000309114026C197D098E099F0906171707C4
:1010D0002807390708F06FCF809110020E941B0784
:1010E00085E01092B1061092B0061092B306DF911F
:1010F000CF911F910F91FF90EF90DF90CF900895C7
:101100009D9191938F5F6DCF85EEA9CF8091110254
:1011100090911202A0911302B0911402892B8A2B94
:101120008B2B09F4A2CF0E941B0400911102109195
:10113000120220911302309114026C197D098E095C
:101140009F09061717072807390708F08ECFC4CF65
:1011500080E0C7CF82E0C5CF83E0C3CFCF93DF93DA
:10116000EA01A0915F01B091600191E09093B30614
:101170008093B2061092B1061092B006ED91FC91E8
:1011800011970190F081E02DCD01099580915F01CB
:1011900090916001DC01ED91FC910190F081E02DD6
:1011A0006881099580915F0190916001DC01ED916A
:1011B000FC910190F081E02D6981099580915F019A
:1011C000909160010E94C707982F80936A0181E087
:1011D000911180E0DF91CF91089540916401509189
:1011E000650121E030E0F90102C0EE0FFF1F8A9592
:1011F000E2F7CF01613069F4842B952B9093650160
:101200008093640144E651E062E0809161010C94B6
:10121000AE088095909584239523F0CF90E080E0F0
:1012200008956F927F928F929F92AF92BF92CF92CA
:10123000DF92EF92FF920F931F93CF93DF93CDB77F
:10124000DEB7AC970FB6F894DEBF0FBECDBFFE0180
:10125000319630E020E08F012617370794F1FE0128
:10126000359621E030E026173707C4F5DF01CD9031
:10127000DD90ED90FD903D01C9010197DF01BE9029
:10128000AE909E908E90C814D904EA04FB0448F4F2
:1012900080829182A282B3820197FD018F3F9807DD
:1012A00069F7FC013196EE0FFF1FEE0FFF1FE00FF5
:1012B000F11FC082D182E282F3822F5F3F4FF301A0
:1012C000D2CFDC01CD90DD90ED90FD90CD01C192AB
:1012D000D192E192F1922F5F3F4FBECF9B0177FFFA
:1012E00002C02F5F3F4F35952795F901EE0FFF1F85
:1012F000EE0FFF1FE00FF11FC080D180E280F3806E
:10130000CB0162E070E00E94A92D0197B9F0215055
:101310003109220F331F220F331F200F311FF90114
:1013200080819181A281B3818C0D9D1DAE1DBF1D59
:101330006C017D01F694E794D794C794C701B60178
:10134000AC960FB6F894DEBF0FBECDBFDF91CF9144
:101350001F910F91FF90EF90DF90CF90BF90AF90D3
:101360009F908F907F906F900895CF92DF92EF9231
:10137000FF920F931F930E941B040091CC011091C8
:10138000CD012091CE013091CF016B017C01C01ABB
:10139000D10AE20AF30A970186016093CC017093A7
:1013A000CD018093CE019093CF01D701C6018B5F11
:1013B0009109A109B10985349144AF40B10540F5C7
:1013C0008091E7039091E80301969093E80380935E
:1013D000E703E091DD0384E0E89FF0011124EF547E
:1013E000FC4F00831183228333838091DD0390E0DF
:1013F00001966BE070E00E94A92D8093DD0380913F
:10140000DE038B3028F48091DE038F5F8093DE0350
:101410001F910F91FF90EF90DF90CF9008958F92E2
:101420009F92AF92BF92CF92DF92EF92FF92CF93B3
:10143000DF9390914803911105C090914703992340
:1014400009F470C0C82F0E941B042C2F30E0F90152
:10145000EE0FFF1FEE0FFF1FEC53FE4FC080D18039
:10146000E280F3804B015C018C189D08AE08BF0838
:10147000608371838283938363E6629FA001639F8D
:10148000500D112446515A4FFA01E75AFF4FC080C0
:10149000D180E280F380C814D904EA04FB0408F088
:1014A00041C03496C080D180E280F3808C149D04CA
:1014B000AE04BF04B8F5F901EE0FFF1FE355FC4F72
:1014C000608171816F5F7F4F71836083E901C75BCA
:1014D000DC4FE881FBE0F29FB001F39F700D112417
:1014E000E60FF72FF11DEE0FFF1FEE0FFF1FE55B5D
:1014F000FC4F80829182A282B38288814F595F4FD4
:10150000FA01408190E00196642F70E00E94A92DBD
:101510008883F901ED55FC4F8081841718F4808190
:101520008F5F8083DF91CF91FF90EF90DF90CF901E
:10153000BF90AF909F908F90089580E00C940F0A19
:1015400081E00C940F0A2F923F924F925F926F921C
:101550007F928F929F92AF92BF92CF92DF92EF9243
:10156000FF920F931F93CF93DF93CDB7DEB72D97E5
:101570000FB6F894DEBF0FBECDBF282F30E03A87FC
:10158000298793E6899FA001112446515A4F5E8313
:101590004D83DA0113968C911397220F331F220F7C
:1015A000331F3C832B83882309F45BC26D8720E0C3
:1015B00030E0A90155966D917D918D919C91589740
:1015C0000E94C02B18160CF04CC20B811C810B5DC5
:1015D0001C4FF80130802180F281F983D8011396E5
:1015E000BC91BA830E947204EB81FC81E35EFC4FE4
:1015F0007F0180809180A280B380681979098A096F
:101600009B09ED81FE81EB5AFF4F80809180A28083
:10161000B380681579058A059B0508F4EAC10E9424
:101620007204D7016D937D938D939C931397ED81F5
:10163000FE81458856886788708C24813581468173
:101640005781C301B2010E949C296B017C014B01AF
:101650005C01E894B7F8AD81BE81D5962D913D919E
:101660004D915C91D897C301B2010E94C52B9B019B
:10167000AC01C501B4010E94C02B18160CF0DBC1EF
:1016800053014201B7FAB094B7F8B094A70196019C
:10169000C501B4010E94C02B181664F0A701960181
:1016A000C301B2010E94092A5301420187FD02C011
:1016B0004601570183E629853A85829FF001839F81
:1016C000F00D1124E651FA4FFE83ED83C1A8D2A894
:1016D000E3A8F4A820E030E0A901C701B6010E9408
:1016E000C02B18160CF00DC1A5019401C701B6015D
:1016F0000E94C52BEB81FC81EE54FE4F208131818D
:10170000428153810E949D29162F072F8B879C872A
:101710004D815E814B5B5F4FDA018D919D910D9004
:10172000BC91A02D8D839E83AF83B8876C017D0112
:10173000F7FAF094F7F8F094A7019601612F702F53
:101740008B859C850E94092A87FD11C02D813E81D1
:101750004F815885612F702F8B859C850E94C02BEF
:1017600018160CF4C9C0C12ED02EEB84FC84EB817A
:10177000FC81EE54FE4FC082D182E282F38283E686
:1017800029853A85829FF001839FF00D1124E6514F
:10179000FA4FFE83ED8321AD32AD43AD54ADC301AD
:1017A000B2010E94C52B9B01AC01C501B4019F771A
:1017B0000E94C02B18160CF4ADC04D815E81435CB5
:1017C0005F4FDA01CD90DD90ED90FC9083E62985A6
:1017D0003A85829FF001839FF00D1124E651FA4F64
:1017E000FE83ED8325A536A547A550A9C501B40103
:1017F0000E94C52BA70196010E94C52B20E030E076
:1018000048EC52E40E94C52BEB81FC81EE54FE4F64
:1018100020813181428153810E949D295B018C018D
:101820004D815E814F5B5F4FDA014D905D906D9011
:101830007C9073016201F7FAF094F7F8F0949B0141
:10184000AC01C701B6010E94C02B181664F09501C7
:10185000A801C301B2010E94092A7301620187FD38
:1018600002C065017801BD85BB2309F45AC0232D50
:10187000322D49815A81C701B6010E949D297B0101
:101880008C0183E629853A85829FF001839FF00DC4
:101890001124E651FA4FFE83ED8331A422A433A52F
:1018A000398344A54A839701A801632D722D89814C
:1018B0009A810E94C02B18160CF48FC0AD81BE8196
:1018C00095963C90959796962C9096979796BC9166
:1018D000B983ED81FE81F0A5FA839701A801632DFC
:1018E000722D8B2F9F2F0E94092A87FD76C03E2CD8
:1018F0002F2C09831A8371C0CD80DE80EF80F8849D
:1019000036CFEB81FC81EE54FE4F108211821282A1
:10191000138235CFC12CD12C80E8E82E8FE3F82E2E
:1019200055CF20E030E0A901C701B6010E94092A85
:10193000882309F47BC083E649855A85849F9001FA
:10194000859F300D112426513A4F3E832D83D901B6
:101950009996AC9099979A96BC909A979B960C9171
:101960009B979C961C919501A801C701B6019F7792
:101970000E949D293B014C019B01AC01B501C801AE
:101980000E94C02B181684F0ED81FE81A5A0B6A0A0
:1019900007A110A59501A801B301C4010E94C02BA5
:1019A000181614F05301840120E030E0A901C701AA
:1019B000B6010E94C02B20E030E040E85FEB87FDDD
:1019C00004C020E030E040E85FE3B501C8010E94B8
:1019D000C52B362E272E89839A83EB81FC81EB5D04
:1019E000FC4F832D922DA981BA8180839183A2839C
:1019F000B383632D722D89819A812D960FB6F89449
:101A0000DEBF0FBECDBFDF91CF911F910F91FF9031
:101A1000EF90DF90CF90BF90AF909F908F907F908E
:101A20006F905F904F903F902F900895312C212C14
:101A300019821A82D2CFFD85F1110AC0D8011D92F8
:101A40001D921D921C921397312C212C19821A82FF
:101A5000EB81FC81EE54FE4F1082118212821382C0
:101A6000C8CFEB81FC81EE54FE4F108211821282AE
:101A70001382312C212C19821A82BBCF4F925F9294
:101A80006F927F928F929F92AF92BF92CF92DF928E
:101A9000EF92FF920F931F93CF93DF93F82EE62ED2
:101AA000C82FD0E023E6829FD0011124A651BA4F5F
:101AB00013968C9113976E01CC0CDD1CCC0CDD1CA5
:101AC000882369F020E030E0A90155966D917D9161
:101AD0008D919C9158970E94C02B18161CF0EE20F7
:101AE00009F4E9C083E68C9F80018D9F100D1124BD
:101AF00006511A4FF801E75BFF4FD80155962D911B
:101B00003D914D915C915897608171818281938163
:101B10000E94C52B9B01AC01F8016481758186810F
:101B200097810E94092A9E0126543E4F590187FF42
:101B30000BC00E947204F601E454FE4F608371836F
:101B400082839383D5011C92860104541E4FF801B1
:101B50004080518062807380D5018C91882321F16F
:101B60000E947204641975098609970923E62C9F5F
:101B7000F0012D9FF00D1124E55CF94FC080D1805C
:101B8000E280F380C616D706E806F90648F40E94FC
:101B90007204F8016083718382839383D5011C9260
:101BA000C12CD12C760160C00E94720464197509A1
:101BB0008609970923E62C9FD0012D9FB00D112493
:101BC000A651BA4FFD01E35BFF4F40805180628018
:101BD0007380461657066806790658F40E94720408
:101BE000F801608371838283938381E0D5018C93B4
:101BF000D7CFEE2009F44BC05D96CD90DD90ED90EF
:101C0000FC90909720E030E0A901C701B6010E9446
:101C1000092A412C512C90E8692E9FE3792E87FFE9
:101C200006C0412C512C80E8682E8FEB782E83E67D
:101C30008C9FF0018D9FF00D1124E651FA4F85A085
:101C400096A0A7A0B0A4A5019401C701B6019F77F3
:101C50000E94C02B181644F4A3019201C501B401DF
:101C60000E94C52B6B017C01C701B601DF91CF91AA
:101C70001F910F91FF90EF90DF90CF90BF90AF90AA
:101C80009F908F907F906F905F904F90089560E04D
:101C90008F2DDF91CF911F910F91FF90EF90DF90EB
:101CA000CF90BF90AF909F908F907F906F905F90FC
:101CB0004F900C94A30AF601EE54FE4F108211824D
:101CC000128213826DCFFC012FEF260FDC0190E012
:101CD00030E0AD014E1B5F0B421753071CF48D9192
:101CE000980FF7CFE60FF11D319781E0208129137E
:101CF00080E0089580919D02882339F00E94C305F9
:101D0000969587959695879581700895FC01019029
:101D10000020E9F73197AF01481B590BBC018CEB50
:101D200096E00C945E02CF93DF930E944D03EC018A
:101D300085EA91E00E94860E8C0F9D1FDF91CF9166
:101D400008958F929F92AF92BF920F931F93CF935C
:101D5000DF93CDB7DEB7A1970FB6F894DEBF0FBE05
:101D6000CDBF19A2423008F44AE08E010F5D1F4F2B
:101D7000842E912CB12CA12CA50194010E94BD2D83
:101D8000E62FB901CA01EA30F4F4E05DD801EE9320
:101D90008D01232B242B252B79F790E080E01097E1
:101DA00019F0CD010E94860EA1960FB6F894DEBF01
:101DB0000FBECDBFDF91CF911F910F91BF90AF901C
:101DC0009F908F900895E95CE1CFCF93DF930E94BD
:101DD000860EEC0185EA91E00E94860E8C0F9D1F15
:101DE000DF91CF910895CF93DF93682F70E090E05B
:101DF00080E04AE00E94A10EEC0185EA91E00E9499
:101E0000860E8C0F9D1FDF91CF910895DC0196E027
:101E1000FB0101900D929A95E1F70895BC018BEEBC
:101E200093E00E94060F69EC72E081EF93E00C945E
:101E3000060FDC0194E0FB0101900D929A95E1F709
:101E4000089581EF93E00E940E0F65E074E089E051
:101E500094E00E94190F68EB76E085E094E00E9420
:101E6000190F0C941805262F206120931A04643052
:101E700021F0009711F481E090E061E00E949A0463
:101E80001092FB0388E28093FC030E94210F84E000
:101E900080931B0410921C0422E04CE150E06AE1A4
:101EA00082E30E94C50486E390E00C94D905CF93A9
:101EB000DF93EB010E940E0FBE0189E094E00E94C7
:101EC000190F68EB76E085E094E0DF91CF910C94F8
:101ED000190FCF93DF93EB0144E050E0BC0187E0A2
:101EE00094E00E94322E892B49F461E074E0CE0127
:101EF0000E94060F81E0DF91CF91089580E0FBCF33
:101F00000F931F93CF938C018BE791E00E940E0FEC
:101F1000EBEEF3E088E08487C6E0C58748E050E058
:101F200068E071E089EF93E00E947D29EBE0F4E046
:101F3000DF011D92CA95E9F769EC72E081E094E057
:101F40000E94060FB80181E194E00E94190F68EB2E
:101F500076E087E094E00E94190F8AE290E0CF914A
:101F60001F910F910C94D905EF92FF920F931F933D
:101F7000CF93DF93182F092FEB01F42EE52ECB0121
:101F80000E942202BE01882309F447C08CEF92E030
:101F90000E94570F8881807F803E91F088819981CF
:101FA000AA81BB818F3F9F4FAF4FBF4F49F044E0A5
:101FB00050E0BE018FEC92E00E94322E892B31F46A
:101FC0006BE771E08BEE93E00E94060F88E0809350
:101FD000F7031092F80349E050E066E873E089EFF8
:101FE00093E00E947D291092FB0381E1809302041B
:101FF000E0920F04F092100400930D0410930E046D
:10200000109211041092130410921404DF91CF91D6
:102010001F910F91FF90EF90089582E093E0B8CF69
:10202000EF92FF920F931F93CF938C01EBEEF3E0AF
:1020300086E191E0DF019C011D9221503040E1F7E3
:102040008091C8026BE771E0833011F463EB72E0BA
:1020500043E450E084E490E00E94B40F6BE771E049
:102060008BEE93E00E94060F81E08093150480932D
:10207000160486E0809317048091B8029091B9020B
:10208000A091BA02B091BB028093190490931A04F4
:10209000A0931B04B0931C04C091C802C33031F458
:1020A00068EB76E081E294E00E94190F69EC72E03F
:1020B00081E394E00E94060F81E095E09093810215
:1020C00080938002E4E0F1E084910E94AE06E5E0B6
:1020D000F1E084910E94AE06E6E0F1E084910E9476
:1020E000AE06E7E0F1E084910E94AE0685E30E942F
:1020F000AE0681E00E94AE0683E0C11101C081E01E
:102100000E94AE068DE30E94AE0687E00E94AE06F6
:1021100081E00E94AE0689ECE82E82E0F82EC7E04E
:10212000C15031F0D7018D917D010E94AE06F8CFEC
:1021300080910001882371F060E071E0FB01019063
:102140000020E9F7BF016150714040E051E08CE0B0
:102150000E94BB060115110559F0A80164E082E355
:102160000E94BB0643EB52E064E086E30E94BB069C
:1021700087E30E94AE0683E00E94AE0681E00E94E3
:10218000AE0683E00E94AE0686E00E94AE068FEFA8
:102190000E94AE0680918002909181028551944008
:1021A000CF911F910F91FF90EF900C94390685ED20
:1021B0008093BC008091110290911202A0911302B1
:1021C000B09114020796A11DB11D23E0B695A79505
:1021D000979587952A95D1F72091BC0024FD03C0DF
:1021E00010925A020895409111025091120260918A
:1021F000130270911402452B462B472B69F300976D
:10220000A105B10541F025E32A95F1F700000197FA
:10221000A109B109E1CF809110020C941B074F92E4
:102220005F926F927F92BF92CF92DF92EF92FF9276
:102230000F931F93CF93DF93082F2A013B01CB010C
:10224000BA019F7720E030E04FE753E40E94C52BAE
:1022500020E030E04FE753E40E940E2A0E94F32A68
:102260000E94802A6B01EB01BB24B39420E030E094
:10227000A901C301B2010E94C02B87FDB12C80913E
:102280003B01882311F081E0B82683E6089F800196
:10229000112406511A4F6B2DF80181810E94B10360
:1022A000F801128161E0812F0E94DF03209789F4F9
:1022B00060E0812FDF91CF911F910F91FF90EF9000
:1022C000DF90CF90BF907F906F905F904F900C9475
:1022D000B103CF3FD10511F461E0EBCFE12FF0E086
:1022E000E752FC4FE491E33081F140F4E130B1F08A
:1022F000E23031F1C038D1057CF7DACFE73079F13F
:10230000E830A9F1E430B1F78091800080628093D9
:102310008000D0928B00C0928A0004C084B580688F
:1023200084BDC7BCDF91CF911F910F91FF90EF90BB
:10233000DF90CF90BF907F906F905F904F90089507
:1023400084B5806284BDC8BCEDCF80918000806878
:1023500080938000D0928900C0928800E3CF809162
:10236000B00080688093B000C092B300DBCF809152
:10237000B00080628093B000C092B400D3CFFF92CF
:102380000F931F93CF93DF93EC01F62E08811981F1
:10239000C8010E948629F81621F06F2DC8010E94FD
:1023A0008E29CE01DF91CF911F910F91FF9008955B
:1023B000EF92FF920F931F93CF93DF9300D0CDB78F
:1023C000DEB78FE6E82E81E0F82E08EA10E01A83E7
:1023D0000983F70161917F01CE0101960E94BF112F
:1023E0000F5F1F4F0E3A110591F70F900F90DF917D
:1023F000CF911F910F91FF90EF900895EF92FF9270
:102400000F931F93CF93DF9300D0CDB7DEB78AEE43
:1024100090E00E94930E1A82198263E2CE01019627
:102420000E94BF1181E090E09A83898367E3CE0127
:1024300001960E94BF1182E090E09A83898362E056
:10244000CE0101960E94BF1128E3E22E21E0F22E78
:1024500007E110E01A830983F70161917F01CE0142
:1024600001960E94BF110F5F1F4F0633110591F7B0
:102470009AEEE92E95E0F92E0DEF10E01A8309830C
:10248000F70161917F01CE0101960E94BF110F5F9C
:102490001F4F0036F1E01F0789F78DE4E82E86E034
:1024A000F82E09E711E01A830983F70161917F0192
:1024B000CE0101960E94BF110F5F1F4F0C3DF1E04E
:1024C0001F0789F70F900F90DF91CF911F910F9108
:1024D000FF90EF900895EF92FF920F931F93CF9389
:1024E000DF93E90188819981863F2EE7920709F4FD
:1024F0003AC180F4843FFEE79F0709F466C0853F38
:102500009E4709F40BC1DF91CF911F910F91FF906E
:10251000EF900895883FEEE79E0709F494C208F40F
:1025200073C28C3B9F4779F70132110560F361E27A
:10253000CE010E94630E882331F38A818093380193
:102540008B81809339018C81982F917090933A01FF
:1025500081FB992790F990933B0183FB992790F990
:1025600090934E0184FB992790F990934F0185FB3E
:10257000882780F9809351018D8180934C018F8150
:102580008093EA0588858093EB0589858093EC0527
:102590008A8580934D068B8580934E068C8580932B
:1025A0004F06FE013D96ACE3B1E0CE014D96219180
:1025B0002D93E817F907D9F78D8D80934D018E8DF6
:1025C000809350010E94FE1135C20E30110508F4AF
:1025D0009ACF6EE0CE010E94630E882309F493CF58
:1025E0000A81902F92959F708091380198138BCF1C
:1025F0000F7080913901081708F085CFE02EF12C7B
:1026000083E6089F8001112406511A4F2C816D81A9
:1026100070E090E080E0CB0177276627722B2B815A
:10262000622B0E94B62A2FE632E143E85AE30E9469
:10263000C52BF801658B768B878B908F2F816885F2
:1026400070E090E080E0CB0177276627722B2E8127
:10265000622B0E94B62A2FE632E143E85AE30E9439
:10266000C52BF801618F728F838F948F898580FFCE
:1026700004C0118A128A138A148A93E69E9DF0017F
:102680009F9DF00D1124E651FA4F81FD44C0108A40
:1026900082FF0BC093E69E9DF0019F9DF00D1124DB
:1026A000E651FA4F90899E5F908B83FF0BC093E6B3
:1026B0009E9DF0019F9DF00D1124E651FA4F9089E7
:1026C0009C5F908B84FB992790F990932F0393E65E
:1026D0009E9D80019F9D100D112406511A4FF801F7
:1026E000EE59FF4F86FB882780F980836A857B85BA
:1026F000072E000C880B990B0E94B82AF801658FF1
:10270000768F878F90A30E947204F8016487758783
:1027100086879787F8CE91E0908BBACF0A30110563
:1027200008F4F1CE6AE0CE010E94630E882309F41A
:10273000EACE8A8182958F70909138018913E3CE19
:102740008B81809348038C81809347038D81809394
:1027500046038E81809344038F818093450388854F
:1027600080934303D0CE0831110508F4CCCE68E144
:10277000CE010E94630E882309F4C5CE0A81902FF2
:1027800092959F70809138019813BDCE0F70809103
:102790003901081708F0B7CEE02EF12CF3E60F9FB1
:1027A0008001112406511A4F6B8170E090E080E0A7
:1027B0000E94B82A20E030E04FE753E40E94C52B86
:1027C00020E030E048EC52E40E940E2AF80165A3B4
:1027D00076A387A390A76C8170E090E080E00E94D0
:1027E000B82A20E030E04FE753E40E94C52B20E0F8
:1027F00030E048EC52E40E940E2AF80161A772A76B
:1028000083A794A76D816857770B072E000C880B60
:10281000990B0E94B82A9B01AC016DEC7CEC8CE812
:102820009FE30E94322CF80165A776A787A790AB9B
:102830006E81662309F4E1C06857770B072E000C00
:10284000880B990B0E94B82A9B01AC0164E17EEAD7
:1028500087E89FE30E94322CF80161AB72AB83AB37
:1028600094AB83E68E9D80018F9D100D112406513F
:102870001A4F6F8170E090E080E00E94B82A20E05B
:1028800030E04AE754E40E940E2AF80165AB76ABCB
:1028900087AB90AF688570E090E080E00E94B82A36
:1028A00020E030E048EC52E40E940E2AF80161AFCB
:1028B00072AF83AF94AF7801FDE3EF0EF11C698531
:1028C00070E090E080E00E94B82A20E030E048EC20
:1028D00052E40E940E2AF7016083718382839383FE
:1028E0007801F1E4EF0EF11C6A8570E090E080E081
:1028F0000E94B62AF70160837183828393837801F3
:10290000F5E4EF0EF11C6B8570E090E080E00E9432
:10291000B82A20E030E040E251E40E940E2AF7019C
:1029200060837183828393837801F9E4EF0EF11C55
:102930006D8570E090E080E00E94B82A20E030E0F1
:1029400048EC52E40E940E2AF7016083718382836F
:10295000938334968E859F85092E000CAA0BBB0BA2
:1029600080839183A283B383349688899989092EC1
:10297000000CAA0BBB0B80839183A283B383349694
:102980008A8990E0B0E0A0E080839183A283B38342
:102990007801FDE5EF0EF11C2B8930E050E040E0BE
:1029A00060E876E988E990E00E94DF2DF701208356
:1029B0003183428353837801F9E5EF0EF11C2C89B2
:1029C0003D89032E000C440B550B60E472E48FE04C
:1029D00090E00E94BD2DF701208331834283538311
:1029E0008E8938968C3070F48083DF91CF911F915F
:1029F0000F91FF90EF900C94FE1111AA12AA13AA46
:102A000014AA2FCF8BE0F0CF0630110508F47BCD50
:102A100066E0CE010E94630E882309F474CD8A819A
:102A2000809371018B81809372018C8180937301FB
:102A30000E94D811F0E0E0E0DF91CF911F910F915B
:102A4000FF90EF9009940930110508F45CCD69E01E
:102A5000CE010E94630E882309F455CD8A818295A8
:102A60008F709091380189134ECD1B8100915201D6
:102A7000109352012D816E8170E090E080E0CB01D7
:102A800077276627722B2C81622B0E94B62A6093CF
:102A900053017093540180935501909356018F8197
:102AA00080FF08C01092E0051092E1051092E20547
:102AB0001092E3050E94FE111013BCCF24CD1F928B
:102AC0000F920FB60F9211242F933F934F935F9362
:102AD0006F937F938F939F93AF93BF93EF93FF93E6
:102AE0008CEB96E00E94DE02FF91EF91BF91AF91D7
:102AF0009F918F917F916F915F914F913F912F9116
:102B00000F900FBE0F901F9018951F920F920FB647
:102B10000F9211242F938F939F93EF93FF93E09144
:102B2000CC06F091CD068081E091D206F091D306DB
:102B300082FD1BC090818091D5068F5F8F7320919D
:102B4000D606821741F0E091D506F0E0E454F94F43
:102B5000958F8093D506FF91EF919F918F912F9143
:102B60000F900FBE0F901F9018958081F4CF1F9289
:102B70000F920FB60F9211242F933F938F939F9331
:102B8000AF93BF938091840290918502A0918602B9
:102B9000B09187023091830223E0230F2D3758F53F
:102BA0000196A11DB11D209383028093840290930E
:102BB0008502A0938602B09387028091880290914B
:102BC0008902A0918A02B0918B020196A11DB11DCC
:102BD0008093880290938902A0938A02B0938B021B
:102BE000BF91AF919F918F913F912F910F900FBE09
:102BF0000F901F90189526E8230F0296A11DB11D76
:102C0000D2CF1F920F920FB60F9211242F933F93A2
:102C10004F935F936F937F938F939F93AF93BF93E4
:102C2000EF93FF93E0915D01F0915E010995FF91B3
:102C3000EF91BF91AF919F918F917F916F915F9134
:102C40004F913F912F910F900FBE0F901F901895AD
:102C50001F920F920FB60F9211242F933F934F9311
:102C60005F936F937F938F939F93AF93BF93EF93F4
:102C7000FF93E0915B01F0915C010995FF91EF9169
:102C8000BF91AF919F918F917F916F915F914F9184
:102C90003F912F910F900FBE0F901F9018951F928C
:102CA0000F920FB60F9211242F933F934F935F9380
:102CB0006F937F938F939F93AF93BF93EF93FF9304
:102CC0008091B900887F803609F44AC0F0F58832D7
:102CD00009F4A7C018F5803109F49BC0B8F4882323
:102CE00009F4F9C0883009F494C0FF91EF91BF91C5
:102CF000AF919F918F917F916F915F914F913F9194
:102D00002F910F900FBE0F901F901895883109F4E6
:102D100088C0803251F78093590214C0803409F47E
:102D20009DC040F48033B9F38833F9F6809359029B
:102D300085ECB0C0803509F485C0883509F496C0AB
:102D4000883499F60E94D710D0CF883909F48CC006
:102D500038F5883729F050F4883611F0803729F695
:102D600083E080935A021092580257C0883809F4C1
:102D70007BC0803919F0803809F0B7CF80915802B4
:102D8000803208F071C0E091580281E08E0F80938C
:102D900058028091BB00F0E0E85CFD4F80833DC0AD
:102DA000803B39F0E0F4803A09F479C0883A09F0C0
:102DB0009CCF84E080935A02109237021092360220
:102DC000E0918E02F0918F02099580913602811177
:102DD0000FC081E0809336021092160209C0803C39
:102DE00009F4A6CF883C09F4A3CF883B09F07DCF36
:102DF000E091370281E08E0F80933702F0E0EA5EC7
:102E0000FD4F80818093BB00909137028091360204
:102E100029C080917F028093BB0085EC8093BC0029
:102E200064CF90917E0280917D02981758F5E091D1
:102E30007E0281E08E0F80937E02F0E0E35AFD4F28
:102E40008081E9CFE0917E0281E08E0F80937E0247
:102E50008091BB00F0E0E35AFD4F808390917E02A9
:102E600080917D029817C8F285E8D8CFE0917E0264
:102E700081E08E0F80937E028091BB00F0E0E35AE8
:102E8000FD4F808380915C0281115CCF81E0809353
:102E90005B0284EA8093BC0010925A0226CF85EC34
:102EA0008093BC0010925A0280915802803230F414
:102EB000E0915802F0E0E85CFD4F1082609158020A
:102EC00070E0E0918C02F0918D0288E392E0099528
:102ED000109258020ACF1092590234CFECEBF6E070
:102EE0001382128288EE93E0A0E0B0E084839583A1
:102EF000A683B78325E831E03183208325EC30E0D9
:102F00003587248724EC30E03787268720EC30E0B3
:102F1000318B208B21EC30E0338B228B22EC30E0A4
:102F2000358B248B26EC30E0378B268B118E128E5E
:102F3000138E148EE9E5F7E0138212828483958361
:102F4000A683B78387E991E091838083EBE6F1E084
:102F5000AFE6B1E012968C911297808313968C9114
:102F60001397818314968C9182830895CF93DF9376
:102F7000CDB7DEB7E0970FB6F894DEBF0FBECDBF7A
:102F8000789484B5826084BD84B5816084BD85B544
:102F9000826085BD85B5816085BD80916E00816050
:102FA00080936E00109281008091810082608093F6
:102FB00081008091810081608093810080918000F8
:102FC0008160809380008091B10084608093B10023
:102FD0008091B00081608093B00080917A0084601D
:102FE00080937A0080917A00826080937A00809149
:102FF0007A00816080937A0080917A008068809363
:103000007A001092C1001092ED0510925006E091E6
:10301000CC06F091CD0682E08083E091C806F09165
:10302000C9061082E091CA06F091CB0683E3808343
:103030001092D406E091D006F091D10686E080830C
:10304000E091CE06F091CF06808180618083E0918F
:10305000CE06F091CF06808188608083E091CE0615
:10306000F091CF06808180688083E091CE06F09158
:10307000CF0680818F7D808368EB7BE080E090E0ED
:103080000E94400487EA91E00E94E50E87EA91E001
:103090000E94E50E87EA91E00E94E50E90E080E054
:1030A0000E948629898381E090E00E9486298A8394
:1030B00082E090E00E94862929813A8123323743B9
:1030C00009F0D6C1823009F0D3C18FE491E00E94AB
:1030D000930E68E3E62E61E0F62E07E110E0C801EA
:1030E0000E948629D7018D937D010F5F1F4F063304
:1030F0001105A9F70AEE15E068015DEFE52EF12C48
:10310000C7010E948629D6018D936D01BFEFEB1A8E
:10311000FB0AE0E6EE16E1E0FE0691F73DE4C32E81
:1031200036E0D32E49E7E42EFF24F394C7010E9432
:103130008629D6018D936D01BFEFEB1AFB0AECEDEA
:10314000EE16E1E0FE0691F790914D01965181E077
:10315000993E08F480E0909150019651993E30F1EB
:10316000909152019651993E08F480C1882309F448
:103170007DC14091390150E030E020E0241735074F
:1031800014F00C941529F8019081963108F04FC283
:103190009181963108F04BC20D591F4F32969081A4
:1031A000963108F044C22F5F3F4FE8CF80E0D8CF80
:1031B00081E08093DF0586E0E5E7F1E0DE0111962E
:1031C00001900D928A95E1F79E012F5F3F4F7901A3
:1031D00008EA10E0C8010E948629D7018D937D017D
:1031E0000F5F1F4F0E3A1105A9F789819A81843923
:1031F000964209F01FC286E0FE013196AFE6B1E0CB
:1032000001900D928A95E1F787EA91E00E94E50E20
:1032100088EA91E00E94E50E82E793E00E944D0368
:103220004AE069EE77E080E090E00E94A10E6EE255
:103230008CEB96E00E9400034AE06BE070E080E0D7
:1032400090E00E94A10E6EE28CEB96E00E940003DB
:103250004AE06EE070E080E090E00E94A10E85EA16
:1032600091E00E94860E86E693E00E944D038091D5
:1032700038010E94F30E87EA91E00E94E50E8091EA
:103280004D018F3F19F062E00E94DF038091390108
:10329000833018F082E080933901109291021092ED
:1032A00090021092B1061092B0060E94FD068BE8C3
:1032B00092E090938F0280938E028CE892E090933C
:1032C0008D0280938C028CE08093B80080E593E0BF
:1032D0000E94930E809138018E5C8093740130912E
:1032E00071013983209172012A83909173019B832C
:1032F0008C834091A602411105C08093310181E089
:103300008093A60280919E02811109C0309328010A
:103310002093290190932A0181E080939E023093AB
:103320006B0120936C0190936D011FB7F89480910D
:103330009202811127C0EBEBF3E08491EFECF3E014
:103340009491E82FF0E0EE0FFF1FE859FE4FA59192
:10335000B491EC91E92321F461E08AE00E94B10389
:1033600061E08AE00E94DF038CB580618CBD8CB582
:1033700080648CBD61E08DE00E94DF0361E08BE042
:103380000E94DF03809192028F5F809392021FBFA1
:1033900010929402109293028091930281113CC08A
:1033A00064EF71E080E090E00E9440048FEA91E0D9
:1033B0000E94860EF89460E08AE00E94B1038FEFCD
:1033C0000E9427058FEF0E94270561E08AE00E9496
:1033D000B103789462E070E080E090E00E944004E5
:1033E000F89460E08AE00E94B1038DE10E94270515
:1033F00080E00E9427051EB561E08AE00E94B103CB
:103400007894117010939302809194028F5F80934F
:103410009402863008F4C0CF8091930280939D027D
:10342000882309F49CC210921C0387E390E0C12C0E
:10343000D12C7601C394009709F411C1FC0143E03B
:10344000F595E7954A95E1F7EA56FD4F282F277045
:10345000B701A60104C0440F551F661F771F2A95A8
:10346000D2F72081242B20830197E5CF1092DF052E
:1034700084E391E00E94930E8AE191E00E94930E12
:1034800083E08093EA0584E08093EB0585E08093F8
:10349000EC0582E080934D0686E080934E0689E03D
:1034A00080934F06EFE0F6E080E5882E912CA12C6A
:1034B000B12C90E9C92EDD24D394E12CF12C4AEFF4
:1034C00050E060E070E080E492E4AFE0B0E02CE037
:1034D000222E33243394412C512C1FE7612E13E408
:1034E000712E408251826282738200E010E020E2FD
:1034F00031E4048315832683378302E5402E09E4F3
:10350000502E0DE9602E09E3702E408651866286AA
:10351000738604EF17E321EA3AE3048715872687C9
:1035200037872FE8422E22EC522E25E7622E2CE31D
:10353000722E408A518A628A738A03E313E323EB73
:103540003EE3048B158B268B378B3AE9432E39E902
:10355000532E652C3EE3732E408E518E628E738EF9
:1035600000E010E020EC30E4048F158F268F378FB9
:103570001DEC412E1CEC512E652C1DE3712E40A23A
:1035800051A262A273A20FE812EC25EF3CE304A360
:1035900015A326A337A380A691A6A2A6B3A6C4A668
:1035A000D5A6E6A6F7A604E6402E512C612C712C78
:1035B00040AA51AA62AA73AA44AB55AB66AB77ABDB
:1035C00080AF91AFA2AFB3AF24AE35AEED59FF4F90
:1035D00006E0E53DF00709F07ECFECE3F1E02CE4F6
:1035E00031E09FEF91932E173F07E1F781E0809341
:1035F000390124E020934C0180934F011092510136
:1036000080933B0180933A018EE080934D018FE0DF
:1036100080935001909352011092530110925401E3
:1036200010925501109256010E94FE11C4CD80E007
:103630000C94272984E996E29093700180936F019E
:1036400080EC8093710188EA8093720181E080931D
:10365000730182E3809374010E94D811D5CD6CE28E
:1036600071E089EC92E00E94060F84EF91E0909364
:10367000AF028093AE020CB406FC25C061E08AE084
:103680000E94DF0361E08AE00E94B10361E08BE009
:103690000E94DF0361E08DE00E94DF0360E08CE0C8
:1036A0000E94DF0361E08BE00E94B10360E08BE0E9
:1036B0000E94B10360E08DE00E94B10380E58CBD03
:1036C0008DB581608DBD8AE08093950261E00E9496
:1036D000DF030E942C054FEF60E08FEF0E94600532
:1036E00062E070E080E090E00E9440040E943305B8
:1036F0008DE10E94270580E00E9427051EB50E94EB
:103700002C05112399F370E060E088E00E949E058B
:1037100070E060E08CE00E949E056FEF7BE08AE045
:103720000E949E0560E07CE084E00E949E056FEFB1
:1037300071E186E00E949E0566E774E084E10E94E4
:103740005B0661EB88E30E9491056FE370E388E21A
:103750000E949E0569EF77EF80E30E949E0561E07D
:1037600080EC0E94910542E362EC80E80E946005D3
:1037700062E17CE086EC0E949E0562E184EC0E949E
:1037800091056CED75E08AEC0E949E056091C9027E
:1037900084EE0E9491056091CA0285EE0E94910517
:1037A0006091CB0282EE0E9491056091CC0283EE83
:1037B0000E9491056091CD0280EE0E94910560917A
:1037C000CE0281EE0E94910560E071E080E10E94EE
:1037D0005B068FE10E94750540EC6BE180E80E947A
:1037E000600544E06FE180E80E94600582E70E9486
:1037F000AB0587EA91E00E94E50E85E393E00E9425
:10380000930E10921C03BE016F5F7F4F88EB96E012
:103810000E94190F10921A031092190381E08093ED
:103820001B0368E271E085E193E00E94190F64E2F6
:1038300071E080E193E00E94190F60E271E084EB97
:1038400096E00E94190F08EB16E024EB36E06FECCF
:1038500072E04CEB56E0F8019191D9018D919D01F8
:103860008095892BDB018D93BD014E175F07A1F772
:103870008091FB02883098F4B5E08B9FF001112411
:10388000ED52FD4F2BE632E13183208328ED30E706
:103890003383228391E094838F5F8093FB0264EFF4
:1038A00071E080E090E00E9440040E947A0E88233C
:1038B00009F450C084E293E00E944D03F12CF8011A
:1038C00061918F0170E090E080E04AE00E94A10EDB
:1038D000F3E0FF1629F06EE28CEB96E00E94000305
:1038E000F39434E0432EF410EACF85EA91E00E948D
:1038F000860E0AEE15E0F12CE12CD12C80913901D5
:103900008E151F0409F00CF44FC062E0D8018C91B1
:103910000E94DF0361E0F80181810E94DF0361E022
:10392000D80112968C910E94DF03E114F104F1F0AA
:10393000B1E0EB16F10451F1F80190818091520150
:10394000981302C0DD24D394FFEFEF1AFF0A0D593C
:103950001F4FD4CF86E093E00E94930ECACF87EA30
:1039600091E00E94E50E87EE92E0F6CF8091EA05A5
:10397000823041F0833041F481E06DE97AE00E94C9
:103980004202DACF80E0F9CF8FEFF7CF80914D067A
:10399000823031F0833031F481E060EA7AE0EFCFB9
:1039A00080E0FBCF8FEFF9CF809152018F3F91F0F4
:1039B000D11010C062E00E94DF038091520182307A
:1039C00009F4F9C1833009F0F8C181E065EB79E0D1
:1039D0000E94420280914C01843008F0F0C1823094
:1039E00008F08FC20CE311E02CE4E22E21E0F22E6D
:1039F000813009F47AC287EA91E00E94E50E8FE3F4
:103A000092E00E944D03809139010E94F30E87EAF3
:103A100091E00E94E50E84E392E00E94930E89E219
:103A200092E00E944D038091EA050E94F30E8FE11F
:103A300092E00E944D038091EB050E94F30E85E118
:103A400092E00E944D038091EC050E94F30E87EAFC
:103A500091E00E94E50E8AE092E00E94930E8FEFC3
:103A600091E00E944D0380914D060E94F30E85EF78
:103A700091E00E944D0380914E060E94F30E8BEE62
:103A800091E00E944D0380914F060E94F30E87EA59
:103A900091E00E94E50E89ED91E00E944D03809136
:103AA0004D010E94F30E8AEC91E00E944D0360915B
:103AB000500170E090E080E04AE00E94A10E87EAA9
:103AC00091E00E94E50E88EB91E00E944D038EE9A3
:103AD00091E0D11007C0809152018F3F09F081C25F
:103AE00085E991E00E94930E82E891E00E94930E96
:103AF00087EA91E00E94E50E82E791E00E94930E32
:103B000087EA91E00E94E50EFE013F96FEA7EDA731
:103B10000E947A0E882309F427C18091B20288237B
:103B200079F06091B0027091B1026115710509F0F0
:103B30005BC26FEF7BE08CE00E949E051092B202A8
:103B400089E30E94AB05F12CE12C8823D9F1609127
:103B5000B0027091B10280E00E949E05BE016F5FCD
:103B60007F4F86E090E00E94390589819A81909389
:103B7000B1028093B0028D819E817C01F0E8EF223A
:103B8000FF2487FF13C08B819C810497E090AE02D5
:103B9000F090AF0201E0E01AF1088E159F0508F4DD
:103BA0007C016BEE73E0C7010E943905F701E55116
:103BB000FC4F108281E08093B20240E46EE180E825
:103BC0000E94600580911C03882369F08091C802DF
:103BD000823009F412C208F00AC2882309F495C29F
:103BE000813009F4B1C2E114F10409F03CC38091C1
:103BF0001B03857099F08091190390911A03892B0A
:103C000069F40E94C30582FF09C085E193E00E9428
:103C1000800F80911B03886080931B0380911903A0
:103C200090911A03019690931A038093190380913F
:103C30001403813009F06EC080911B0381FF6AC0BC
:103C400082E080931403809133018F5F809333016E
:103C5000182F1F718AE093E00E9422026AE073E04D
:103C6000882309F4FDC28CEF92E00E94570F08E010
:103C70000093F7031092F80349E050E066E873E020
:103C800089EF93E00E947D298CE28093FC0386E01B
:103C9000809302040E94180510920F0410921004E1
:103CA0008BE080930D0410930E04E1E1F4E0DF015A
:103CB0001D920A95E9F780913201809313048D5F7C
:103CC0008093320180E68093190482E080931A0485
:103CD00093E090931B0410921C0410921D04109208
:103CE0001E0410921F04109220048093210494E07B
:103CF000909322048093230486E28093240422E09C
:103D000040E250E06AE182E30E94C5048AE390E069
:103D10000E94D90580E193E00E942202882379F075
:103D200080910F0381110BC080910E03811107C098
:103D300080E193E00E94800F81E080930E038AE08F
:103D400093E00E942202882379F080910903811177
:103D50000BC080910803811107C08AE093E00E94A4
:103D6000800F81E0809308030AEE15E0312C212CAE
:103D7000809139018215130409F00CF495C4D8011F
:103D800050969C915097F801EE59FF4F80818823FF
:103D900009F446C4822DF101E35DFC4F7F019430AC
:103DA00031F0953009F4F0C3923009F01CC461E0A1
:103DB0000E94A30A07C480E009CE8FEF07CE8430AB
:103DC00009F019CE87EA91E00E94E50E89E792E0BA
:103DD0000E94930E81E28093300316E001E081E2BD
:103DE000F82E8091310381111DC087E792E00E9477
:103DF0004D030093B306F092B2061092B1061092F2
:103E0000B00689E597E00E94C70791E0811190E034
:103E10009093310364EF71E080E090E00E944004F1
:103E20001150F9F680913103811128C080E280930E
:103E3000300316E001E0B0E2FB2E809131038111E6
:103E40001DC085E792E00E944D030093B306F092F7
:103E5000B2061092B1061092B00689E597E00E9472
:103E6000C70791E0811190E09093310364EF71E016
:103E700080E090E00E9440041150F9F687EA91E05A
:103E80000E94E50E80913103882309F4A7C0809138
:103E9000300311E01093B3068093B2061092B1067E
:103EA0001092B00690E080E00E94C20790E080E0AF
:103EB0000E94C20789E597E00E94C7071093B306E6
:103EC0001092B1061092B00681E090E00E94C20705
:103ED00090E080E00E94C20789E597E00E94C70752
:103EE00085E692E00E94930E86CDD8018D918D01DA
:103EF0008F3F19F061E00E94DF03E016F106A9F799
:103F00007ACD87EA91E00E94E50E85EC92E00E946E
:103F1000930E16E001E090E2F92E809142038111A8
:103F20001DC083EC92E00E944D030093B306F09213
:103F3000B2061092B1061092B00689E597E00E9491
:103F4000C70791E0811190E09093420364EF71E024
:103F500080E090E00E9440041150F9F687EA91E079
:103F60000E94E50E80914203882399F18BEA92E04A
:103F70000E94930E89E597E09093600180935F0122
:103F800080E280936101109267011092660146E61B
:103F900051E064E00E94AE0810926901109268013D
:103FA00048E651E066E0809161010E94AE088FEF23
:103FB0009FEF909365018093640144E651E062E0D5
:103FC000809161010E94AE0887EA91E00E94E50EAF
:103FD00012CD8FE892E00E94930EF6CF81E592E039
:103FE00081CF0E94F30E80CD61507109A4CD833042
:103FF00009F456C0843009F0F6CD65E0C7010E948F
:104000006E06882309F4C9C08091B702811108C0E7
:1040100088E30E94AB05682F6E7F88E30E949105BC
:1040200065E274E088EB96E00E94190FE5E0F5E0A8
:10403000870105511C4F68018F010E5F1F4FB18032
:104040008081863009F4FBC008F0BEC0813009F4DD
:10405000ECC0833009F4EFC0F801EB0DF11DEC1555
:10406000FD0550F30E9472046093C0027093C10278
:104070008093C2029093C30280911503882361F05C
:1040800010921A031092190381E080931B0365E1DB
:1040900073E0CB010E94190F83E08093C802A3CD87
:1040A0008090C4029090C502A090C602B090C70252
:1040B0001FEF81169106A106B10609F494CD0E9466
:1040C00072040091C0021091C1022091C20230918D
:1040D000C302601B710B820B930B681579058A056F
:1040E0009B0508F480CD88EB96E00E94101084E0D8
:1040F0008093C8020E9472046093BC027093BD0258
:104100008093BE029093BF026ECD0E9472046093B2
:10411000B8027093B9028093BA029093BB02E8EBA5
:10412000F6E084E0DF011D928A95E9F790E080E0F7
:104130000E94101088E30E94AB05682F616088E33D
:104140000E94910581E0D4CF62E0C7010E946E0613
:10415000882319F165E274E0CE0101960E94190FDF
:10416000E5E0F5E0C70185519C4FBF016E5F7F4FD1
:1041700021813081363351F483EB92E00E94190F94
:10418000CE0101960E94101082E0B2CFFB01E20F37
:10419000F11DE817F90748F3F3CF0E94720400916C
:1041A000BC021091BD022091BE023091BF02601B83
:1041B000710B820B930B613177428105910508F4F5
:1041C00012CD1092C8020FCD8A3331F08F3F09F41F
:1041D00049CF833309F040CF1092C4021092C50238
:1041E0001092C6021092C702F801C801049620E09E
:1041F00030E0A9016191542F432F322F2227260F3F
:10420000311D411D511DE817F907A1F72F3F8FEF11
:10421000380748075807B9F42093C4023093C50201
:104220004093C6025093C70217CFB80184EB96E0C3
:104230000E94190F11CFB80185E193E0F9CFB801C1
:1042400080E193E0F5CFA8EEB3E00E94FE2D6093ED
:10425000C4027093C5028093C6029093C702FCCE3D
:1042600082E093E002CDB9E2EB16F10408F47CCDD4
:104270008091F703883009F077CD8091F80386307C
:1042800011F00C942F2944E050E068EB76E081E1D6
:1042900094E00E94322E892B09F066CD80910004B3
:1042A000813029F581EF93E00E940E0F1092FF03F9
:1042B00082E08093000461E074E08BE094E00E946F
:1042C000060F69EC72E081E094E00E94060F67E05F
:1042D00074E081E194E00E94190F68EB76E087E0DA
:1042E00094E00E94190F8AE290E00E94D905809123
:1042F0001B0383FF0DC010910004123049F462E0EB
:1043000073E085E193E00E94690F811110931B0314
:1043100080910F03811111C080910E03882369F0F1
:104320006CEF72E080E193E00E94690F882329F02E
:1043300081E080930F0310920E0380910903811195
:1043400013CD80910803882309F40ECD6CEF72E041
:104350008AE093E00E94690F882309F405CD81E08B
:104360008093090310920803FFCC9091FB029111F6
:1043700022C0E6E3EE16F10408F4F6CC0091020444
:10438000063009F0F1CC80910F048B3009F0ABC0FE
:1043900044E050E06AE073E085E094E00E94322E51
:1043A000892B09F0E1CC10911A0412FF51C085E06D
:1043B00080931403D9CC8131E1F673EDC72E72E0FE
:1043C000D72EB12CA12C20E08091FB028A151B0472
:1043D000D9F1D4F1D60112963C91129713969C9183
:1043E000139780910F049FA718AA4FA458A884156B
:1043F000150419F58091100483131FC014969C9026
:1044000014979920D1F00091110410E0102F00278B
:10441000209112042850330B020F131F40910D04FA
:1044200050910E04542745275427ED91FC9125E126
:1044300034E065E074E00995292D0FEFA01AB00A69
:1044400015E0C10ED11CC0CF222309F492CF8CCC31
:104450000E947F0420911403223089F5212F2071BE
:104460001271123101F560E090E080E00E94330F9C
:1044700088E180931A0483E0809314031092FB0375
:1044800088E28093FC030E94180510921D0410928C
:104490001E0422E04CE150E06AE182E30E94C50480
:1044A00086E390E026C731E030931403019622237F
:1044B00011F090E080E064E00E94330F55CC25308D
:1044C00009F452CC10FF0AC0233009F44DCC69E046
:1044D00001960E94330F0093140346CC60E00097CE
:1044E00009F442CCE9CF81113FCC80911004803592
:1044F00009F03ACC10911A0411FF39C01092FB0355
:104500008CE28093FC030E94210F82E180931A04C5
:1045100060E081E090E00E949A04109211041092F1
:1045200012048091320180931304109214048D5F61
:104530008093320182E08093210484E080932204FE
:1045400085E0809323041092240490E6909319044C
:1045500080931B0488E780931C0422E040E250E033
:104560006AE182E30E94C5048AE390E0C2C614FFB8
:10457000FBCB0E947F04892B09F0F6CB10FFF4CB14
:1045800060E090E080E098CFF80193819923B9F042
:10459000D7019C91911113C09101220F331F220F5B
:1045A000331FF901EB5DFC4F1082118212821382DE
:1045B000235E3C4FF901108211821282138260E067
:1045C0000E943E0DD80118966D937D938D939C9318
:1045D0001B97F8018381D7018C93FFEF2F1A3F0AB5
:1045E0000D591F4FC5CBF80193819923B9F0D7011D
:1045F0009C91911113C09101220F331F220F331F81
:10460000F901EB5DFC4F1082118212821382235E4E
:104610003C4FF901108211821282138260E0C8CBF4
:10462000953051F461E0822D0E943E0DF8016087C3
:10463000718782879387D1CF5D96CD90DD90ED9085
:10464000FC909097F801C086D186E286F38620E040
:1046500030E0A901C701B6010E94092A412C512C62
:1046600090E8692E9FE3792E87FF06C0412C512CDC
:1046700080E8682E8FEB782ED80195968D909D90CE
:10468000AD90BC909897C701B6019F77A5019401A2
:104690000E94C02B18160CF0A0CFA3019201C501F7
:1046A000B4010E94C52BC2CF0E9472040091570131
:1046B000109158012091590130915A01601B710BE2
:1046C000820B930B623371058105910508F4F8C3E1
:1046D0000E947204609357017093580180935901AE
:1046E00090935A010AEE15E0D12CC12C809139012A
:1046F0008C151D0409F00CF446C00E947204D80108
:104700001C968D909D90AD90BC901F97681979096B
:104710008A099B09683873418105910510F5F801F4
:1047200085889688A788B08CF0902F0320E030E031
:10473000A901C501B4010E94C02B1816A4F4F11000
:104740001AC0D80150968C91843059F4FF24F39408
:1047500020E030E0A901C501B4010E94C02B181669
:1047600054F0F12C08C0FF2061F3F801EE59FF4F1F
:1047700080818111E6CFF801F382FFEFCF1ADF0AC3
:104780000D591F4FB3CF0E9472040091F60510918E
:10479000F7052091F8053091F905601B710B820B2C
:1047A000930B603A7F408105910508F066C0009147
:1047B0004803E090470380914C01823009F435C1F1
:1047C00008F07AC0813009F4EBC075EAC72E73E0B7
:1047D000D72E0AEE15E0F12CE12CEBE03E2EC701BE
:1047E000880F991F9C0123553C4F5901D9018D9188
:1047F0009C91892B09F43FC20E947204F6016083E8
:10480000718382839383F894D5012D913C91F801B3
:1048100081899289A389B489820F931FA11DB11D3B
:10482000818B928BA38BB48BD50111961C921E9217
:10483000F701ED55FC4F608170E0DE01119690E0CC
:1048400080E03E9C90013F9C300D11248617970715
:1048500008F06EC1F901E80FF91FEE0FFF1FEE0F10
:10486000FF1FE55BFC4F80809180A280B3808D921A
:104870009D92AD92BD920196E9CF0E947204009183
:10488000590610915A0620915B0630915C06601B18
:10489000710B820B930B603A7F408105910508F400
:1048A00086CF0091460380914503082BE090440396
:1048B00080914303E82A7FCF833009F4E5C0843038
:1048C00009F083CF80913103882309F47ECFF12C46
:1048D000D12C90E080E010E06E2D70E021E030E01F
:1048E000082E02C0220F331F0A94E2F7A8014223C8
:1048F00053232417350799F4FC01E85CFE4FE4814B
:104900004E2F50E0E83008F4FFC048505109A1E0B4
:10491000B0E002C0AA0FBB1F4A95E2F7FA2AAB012A
:10492000422353232417350799F4FC01E85CFE4F1A
:104930004485242F30E0483008F4EEC02850310977
:10494000E1E0F0E002C0EE0FFF1F2A95E2F7FE2A39
:1049500001968830910511F680913A01882311F073
:10496000D094F0948091300391E09093B3068093BB
:10497000B2061092B1061092B00682E190E00E9459
:10498000C2076D2D89E597E00E9493076F2D89E599
:1049900097E00E94930789E597E00E94C70715CF2B
:1049A0001CE3A12E11E0B12ED12CC12C10E0FF246C
:1049B000F394D5018D915D018F3FD9F4BFEFCB1AF0
:1049C000DB0AE8E0CE16D104A1F7B4E4CB2EB1E0C7
:1049D000DB2E10E000E0F12CBB24B394D6018D91C6
:1049E0006D018F3FA1F40F5F1F4F08301105B1F724
:1049F000ECCE60913A0198010C2C02C035952795B8
:104A00000A94E2F720FF6F250E94B103D7CF60918F
:104A10003A019701002E02C0359527950A94E2F7D6
:104A200020FF6B250E94B103DECF809142038823D3
:104A300009F4CBCEA2E3CA2EA3E0DA2EF12CE12CAE
:104A400010E098010E2C02C0359527950A94E2F7E4
:104A5000B22FB170BB2EF60181916F01B81761F0D2
:104A6000F701E156FC4F849160E020FF61E00E9475
:104A7000ED08F6013197B082FFEFEF1AFF0A28E048
:104A8000E216F104F1F6A1CE80914203882309F4E5
:104A90009CCEF2E3AF2EF3E0BF2ED12CC12CF12C33
:104AA00010E038E0C316D10424F5C8010C2C02C074
:104AB000959587950A94E2F7482F4170942EF50159
:104AC00081915F01891569F0F601E157FC4F8491EE
:104AD00060E0911001C061E00E94ED08F50131979E
:104AE0009082FFEFCF1ADF0A20E1C216D104C9F687
:104AF0006CCEC6010897D70102C0B595A7958A95D7
:104B0000E2F7A1709A2EDBCF41E050E001C0440FE4
:104B1000EA95EAF7D42A03CF21E030E001C0220F62
:104B20004A95EAF7D22A14CFEE24E394F12C57CE1B
:104B300078946115710509F456C0CE0101960E9462
:104B40001109611571058105910509F44CC00E9498
:104B5000B62A9B01AC0160E074E284E799E40E940C
:104B60000E2A2DEC3CEC4CE45FE30E94C52B4B017C
:104B70005C012DEC3CEC4CE45EE3F80161A172A118
:104B800083A194A10E94C52B9B01AC01C501B40176
:104B90000E949D292B013C01D80191964D925D9276
:104BA0006D927C92949759968D909D90AD90BC900B
:104BB0005C9720E030E0A901C501B4010E94C02B40
:104BC00018168CF420E030E040E752E4C301B20153
:104BD0000E94C52BA50194010E940E2AF80164834E
:104BE0007583868397830D591F4FF4E0CF0ED11C38
:104BF000EA94EF2809F098CF0AEE15E0F12CE12CA9
:104C0000809139018E151F0409F00CF483C0D8017E
:104C100018968D909D90AD90BC901B9720E030E051
:104C20004FE753ECC501B4010E94092A87FD4EC02D
:104C300020E030E04FE753E4C501B4010E94C02BEF
:104C4000181634F4812C912C7FE7A72E73E4B72E2D
:104C5000F8018089823009F44FC008F03EC08823F3
:104C600009F44AC0813009F43CC0FFEFEF1AFF0A93
:104C70000D591F4FC5CF0E947204D6018D909D9093
:104C8000AD90BC90681979098A099B09613A7F4007
:104C90008105910520F4F80183818111A4CFD80109
:104CA00014961D921D921D921C921797F80111A245
:104CB00012A213A214A2F894F701ED55FC4F108232
:104CC000F701E75BFC4F108278948DCF812C912CFB
:104CD0006FE7A62E63ECB62EBBCF843069F085302B
:104CE00021F6F801838181110FC0812C912C5FE79F
:104CF000A52E53ECB52E08C0D80113968C918111C6
:104D000003C0812C912C5401B501A4018E2D0E9469
:104D10000F11ABCF1092E9051092E8058091500178
:104D20008F3FD9F08E3008F08E508770806480936A
:104D30007C0080917A00806480937A0080917A0070
:104D400086FDFCCF90917800809179008927982783
:104D500089279093E9058093E805809152018F3F60
:104D600009F4AEC08091E7039091E803892B09F420
:104D70006FC10E9472046093E3037093E403809315
:104D8000E5039093E603F8942091E7033091E8035C
:104D90008091E0059091E105A091E205B091E305D5
:104DA000820F931FA11DB11D8093E0059093E10533
:104DB000A093E205B093E3051092E8031092E70395
:104DC0006091DE0370E0FE01319630E020E0CF011B
:104DD0002617370790F4D901AA0FBB1FAA0FBB1FD4
:104DE000AF54BC4FCD90DD90ED90FC90C192D1922C
:104DF000E192F1922F5F3F4FEBCF789461157105EF
:104E000009F45EC00E9411094B015C0181149104F8
:104E1000A104B10409F454C0C0905301D0905401CE
:104E2000E0905501F090560120E030E0A901C70163
:104E3000B6010E94C02B18160CF042C02DEC3CECC1
:104E40004CE45FE36091DF037091E0038091E10344
:104E50009091E2030E94C52B2B013C01C501B401D6
:104E60000E94B62A9B01AC0160E074E284E799E4F9
:104E70000E940E2A2DEC3CEC4CE45EE30E94C52B14
:104E80009B01AC01C301B2010E949D296093DF0325
:104E90007093E0038093E1039093E20320E030E01D
:104EA00041E655E40E94C52BA70196010E940E2AF7
:104EB0006093E4057093E5058093E6059093E7051C
:104EC0000E94720400913401109135012091360145
:104ED00030913701601B710B820B930B693C71059C
:104EE0008105910508F486C10E9472046093340123
:104EF0007093350180933601909337010AEE15E0E7
:104F0000F12CE12C20E9D22E3EE7C32E809138010E
:104F1000909139019E151F0409F00CF4C8C0D98284
:104F2000CA8220E1829FC00111248E298B8320E058
:104F300030E04AE754E4D80114966D917D918D914B
:104F40009C9117970E94C52B0E94872A6C837D83B2
:104F50008E83F801818C928CA38CB48C20E030E09D
:104F6000A901C501B4010E94C02B18160CF09BC00A
:104F7000D80151966D917D918D919C9154970E948D
:104F8000B62A20E030E040E251E40E94C52BA501A2
:104F900094010E940E2A0E94872A6F83788789874E
:104FA000F80160857185828593850E94802A6A87D1
:104FB0007B871C860E947204D8011C968D909D9060
:104FC000AD90BC901F97681979098A099B09603ACE
:104FD0007F408105910518F48C8581608C8720E0E5
:104FE00030E040E251E4F80161A172A183A194A1F3
:104FF0000E94C52B0E94872A6D877E87FE0131960D
:1050000080E09191890F4DA45EA44E165F06C9F70A
:105010008F870E947A0E8823A9F04FE255E76BE64E
:1050200071E083E094E10E94B40F8FE0FE013196BD
:10503000A5E1B4E001900D928A95E1F78FE090E050
:105040000E9439062FEFE21AF20A0D591F4F5ECF68
:105050000E9472040091E3031091E4032091E503A0
:105060003091E603601B710B820B930B613A7F401A
:105070008105910508F424CF1092DF031092E0031C
:105080001092E1031092E2031092E4051092E505FC
:105090001092E6051092E705F8941092DE03109244
:1050A000DD0378940DCF1F821886198679CF91E998
:1050B00099839EE79A838B839091E8058091E90517
:1050C0009C838D8320E030E040E251E46091E40570
:1050D0007091E5058091E6059091E7050E94C52B4A
:1050E0000E94872A6E837F832091E0059091E105DD
:1050F0008091E205288799878A8782E08B8783E2FF
:105100008C8787E38D871E8620914D012F3F09F400
:1051100089C030E0F901E752FC4F8491F901EB536B
:10512000FC4F1491F901EF54FC4F0491002309F452
:1051300073C081110E948803E02FF0E0EE0FFF1F83
:10514000E955FC4FA591B491EC911E2331E020E08C
:1051500009F430E0832F922F282F217030914E01D7
:10516000332309F45CC03091EA03231751F0892BF3
:1051700031F08091E90391E089278093E90320933E
:10518000EA038091E903882319F08E8581608E8778
:105190000E947A0E882319F08E8580618E87809117
:1051A000DF05882319F08E8580628E87FE01319697
:1051B00080E09191890F4DA45EA44E165F06C9F759
:1051C0008F870E947A0E8823A9F04FE255E76BE69D
:1051D00071E083E094E10E94B40F8FE0FE0131960C
:1051E000A5E1B4E001900D928A95E1F78FE090E09F
:1051F0000E94390680E0682E80E0782E672811F43E
:105200000C94881D0E94CA02882311F40C94881DF6
:105210000E9400000C94841D90E080E09DCF2093BC
:10522000E903AFCF1092E903ACCF90914C019130DC
:1052300011F00C94D818ECE3F1E091919651993E5D
:1052400010F40C94171B01E0EC34F007B1F78093D5
:10525000DF05882311F40C94381A0C94DB1809E24A
:10526000E016F10411F40C94B41E81110C94B41ED8
:105270008091F903853411F00C94B41E44E050E0A1
:1052800068EB76E089E094E00E94322E892BB1F041
:1052900044E050E06FEC72E089E094E00E94322E2E
:1052A000892B61F044E050E06BE771E089E094E025
:1052B0000E94322E892B11F00C94B41E80910204AE
:1052C000813009F052C890910D04983009F04DC812
:1052D0000E94210F10920D0480910F04883F28F046
:1052E000909110049F5F90931004885F80930F0447
:1052F000C7010E94D9050C94B41EFB01DC0102C059
:1053000005900D9241505040D8F70895F999FECF7D
:1053100092BD81BDF89A992780B50895262FF999F5
:10532000FECF1FBA92BD81BD20BD0FB6F894FA9A88
:10533000F99A0FBE019608955058BB27AA270E94DC
:10534000B4290C946E2B0E94602B38F00E94672BBE
:1053500020F039F49F3F19F426F40C945D2B0EF4E1
:10536000E095E7FB0C942E2BE92F0E947F2B58F33E
:10537000BA17620773078407950720F079F4A6F53A
:105380000C94B92B0EF4E0950B2EBA2FA02D0B0127
:10539000B90190010C01CA01A0011124FF27591B7A
:1053A00099F0593F50F4503E68F11A16F040A22F80
:1053B000232F342F4427585FF3CF469537952795F1
:1053C000A795F0405395C9F77EF41F16BA0B620BF0
:1053D000730B840BBAF09150A1F0FF0FBB1F661F37
:1053E000771F881FC2F70EC0BA0F621F731F841F7A
:1053F00048F4879577956795B795F7959E3F08F0A0
:10540000B0CF9395880F08F09927EE0F9795879561
:1054100008950E940A2B08F481E008950E94222A30
:105420000C946E2B0E94672B58F00E94602B40F06A
:1054300029F45F3F29F00C942E2B51110C94BA2BB8
:105440000C945D2B0E947F2B68F39923B1F35523B5
:1054500091F3951B550BBB27AA2762177307840787
:1054600038F09F5F5F4F220F331F441FAA1FA9F31D
:1054700035D00E2E3AF0E0E832D091505040E6950B
:10548000001CCAF72BD0FE2F29D0660F771F881F6C
:10549000BB1F261737074807AB07B0E809F0BB0B5F
:1054A000802DBF01FF2793585F4F3AF09E3F510573
:1054B00078F00C942E2B0C94BA2B5F3FE4F3983EBB
:1054C000D4F3869577956795B795F7959F5FC9F75C
:1054D000880F911D9695879597F90895E1E0660FDD
:1054E000771F881FBB1F621773078407BA0720F056
:1054F000621B730B840BBA0BEE1F88F7E0950895BF
:105500000E94872A6894B1110C94BA2B08950E94C6
:10551000872B88F09F5798F0B92F9927B751B0F093
:10552000E1F0660F771F881F991F1AF0BA95C9F727
:1055300014C0B13091F00E94B92BB1E008950C94E1
:10554000B92B672F782F8827B85F39F0B93FCCF394
:10555000869577956795B395D9F73EF490958095A4
:10556000709561957F4F8F4F9F4F0895E89409C0C4
:1055700097FB3EF490958095709561957F4F8F4F86
:105580009F4F9923A9F0F92F96E9BB279395F6959C
:10559000879577956795B795F111F8CFFAF4BB0F1A
:1055A00011F460FF1BC06F5F7F4F8F4F9F4F16C07E
:1055B000882311F096E911C0772321F09EE8872F08
:1055C000762F05C0662371F096E8862F70E060E0C4
:1055D0002AF09A95660F771F881FDAF7880F96953D
:1055E000879597F908950E94A12B90F09F3748F472
:1055F000911116F00C94BA2B60E070E080E89FEBFC
:10560000089526F41B16611D711D811D0C94342B09
:105610000C944F2B990F0008550FAA0BE0E8FEEFF2
:1056200016161706E807F907C0F012161306E40766
:10563000F50798F0621B730B840B950B39F40A265F
:1056400061F0232B242B252B21F408950A2609F43D
:10565000A140A6958FEF811D811D089597F99F6741
:1056600080E870E060E00895882371F4772321F0EA
:105670009850872B762F07C0662311F499270DC009
:105680009051862B70E060E02AF09A95660F771FA4
:10569000881FDAF7880F9695879597F908959F3FA9
:1056A00031F0915020F4879577956795B795880FDD
:1056B000911D9695879597F908959FEF80EC089531
:1056C00000240A94161617061806090608950024E1
:1056D0000A9412161306140605060895092E03945B
:1056E000000C11F4882352F0BB0F40F4BF2B11F4CF
:1056F00060FF04C06F5F7F4F8F4F9F4F089557FD2E
:105700009058440F551F59F05F3F71F04795880F2F
:1057100097FB991F61F09F3F79F0879508951216C6
:1057200013061406551FF2CF4695F1DF08C0161672
:1057300017061806991FF1CF869571056105089423
:1057400008950E94872BA0F0BEE7B91788F4BB2705
:105750009F3860F41616B11D672F782F8827985F41
:10576000F7CF869577956795B11D93959639C8F3D0
:105770000895E894BB2766277727CB0197F908950A
:105780000E940A2B08F48FEF08950E94D82B0C94E6
:105790006E2B0E94602B38F00E94672B20F095231F
:1057A00011F00C942E2B0C945D2B11240C94BA2B1D
:1057B0000E947F2B70F3959FC1F3950F50E0551F0A
:1057C000629FF001729FBB27F00DB11D639FAA2756
:1057D000F00DB11DAA1F649F6627B00DA11D661FA5
:1057E000829F2227B00DA11D621F739FB00DA11DC6
:1057F000621F839FA00D611D221F749F3327A00D80
:10580000611D231F849F600D211D822F762F6A2F1B
:1058100011249F5750409AF0F1F088234AF0EE0F80
:10582000FF1FBB1F661F771F881F91505040A9F7AD
:105830009E3F510580F00C942E2B0C94BA2B5F3FA9
:10584000E4F3983ED4F3869577956795B795F795E9
:10585000E7959F5FC1F7FE2B880F911D9695879561
:1058600097F90895FA01EE0FFF1F309621053105D3
:10587000A1F16115710561F48038BFE39B0749F11F
:1058800068949038810561F08038BFEF9B0741F044
:1058900099234AF5FF3FE1053105210519F1E89407
:1058A0000894E795D901AA2329F4AB2FBE2FF85FFE
:1058B000D0F310C0FF5F70F4A695E0F7F73950F011
:1058C00019F0FF3A38F49F779F930DD00F9007FCA3
:1058D0009058089546F00C945D2B60E070E080E8ED
:1058E0009FE308954FE79F775F934F933F932F93E5
:1058F0000E942D2D2F913F914F915F910E94C52BBA
:105900000C948A2C29F416F00C942E2B0C94B92BA1
:105910000C945D2B0E94872BA8F39638A0F707F80C
:105920000F92E8942BE33AEA48EB5FE70E94DB2B07
:105930000F920F920F924DB75EB70F920E94752D86
:10594000E8E6F0E00E94BC2C4F915F91EF91FF914F
:10595000E595EE1FFF1F49F0FE57E0684427EE0F64
:10596000441FFA95E1F74195550B0E94EF2C0F90DB
:1059700007FE0C94E32C0895DF93CF931F930F93AE
:10598000FF92EF92DF927B018C01689406C0DA2EC1
:10599000EF010E94D82BFE01E894A5912591359145
:1059A00045915591A6F3EF010E94B429FE0197019C
:1059B000A801DA9469F7DF90EF90FF900F911F91A3
:1059C000CF91DF9108959B01AC0160E070E080E829
:1059D0009FE30C940E2A0C942E2B0C944F2B0E94B8
:1059E000872BD8F39923C9F3940F511DA3F391503A
:1059F000504094F059F0882332F0660F771F881FCB
:105A000091505040C1F79E3F51052CF7880F911DD2
:105A10009695879597F908955F3FACF0983E9CF076
:105A2000BB27869577956795B79508F4B1609395F0
:105A3000C1F7BB0F58F711F460FFE8CF6F5F7F4FDE
:105A40008F4F9F4FE3CF0C94BA2B16F00C944F2B33
:105A50000C945D2B68940C942E2B0E94872BA8F33A
:105A60009923C1F3AEF3DF93CF931F930F93FF926C
:105A7000C92FDD2788232AF02197660F771F881FFB
:105A8000DAF720E030E040E85FEB9FE3883920F070
:105A9000803E38F021968F770E949D29E0E9F0E062
:105AA00004C00E949D29EDEBF0E00E94BC2C8B010C
:105AB000BE01EC01FB2E6F5771097595771F880B9E
:105AC000990B0E94B82A28E132E741E35FE30E9484
:105AD000D82BAF2D9801AE01FF900F911F91CF9160
