:100000000C94E5010C94C7140C94A0140C940D02EC
:100010000C940D020C940D020C940D020C940D0224
:100020000C940D020C940D020C940D020C940D0214
:100030000C940D020C940D020C940D020C940D0204
:100040000C9456140C940D020C9424140C94FE136E
:100050000C940D020C940D020C940D020C940D02E4
:100060000C94EE140C940D0207634236B79BD8A78C
:100070001A39685618AEBAAB558C1D3CB7CC5763CD
:10008000BD6DEDFD753EF6177231BF000000803F7B
:1000900008000000BE922449123EABAAAA2ABECD97
:1000A000CCCC4C3E00000080BEABAAAAAA3E000009
:1000B0000000BF000000803F000000000008417801
:1000C000D3BB4387D1133D190E3CC3BD4282AD2B38
:1000D0003E68EC8276BED98FE1A93E4C80EFFFBE30
:1000E00001C4FF7F3F000000000055706461746927
:1000F0006E672073746F7265642073657474696EC3
:1001000067732E0063825363000108000604000138
:1001100000000000250028002B004C6F6164696E10
:10012000672064656661756C742073657474696EAC
:1001300067732E0053746F726564207365747469FD
:100140006E6773206E6F742076616C69642E004C4C
:100150006F6164696E672073746F72656420736584
:100160007474696E67732E0000000000240027007D
:100170002A0046696E6973686564207365747570DA
:100180002E0066616C736500414453313131352076
:10019000656E61626C65643A2000507265737375B8
:1001A00072652050696E3A2000576F726B2053774A
:1001B000697463682050696E3A200050574D205092
:1001C000696E3A20004449522050696E3A20004638
:1001D0006C6F772050696E3A200053656E736F72B2
:1001E00020323A200050574D2050696E3A2000448A
:1001F00049522050696E3A2000466C6F7720506952
:100200006E3A2000456E61626C65643A2000536569
:100210006E736F7220313A200053656E736F727384
:1002200020656E61626C65643A20004D4350323344
:10023000303137206E6F7420666F756E642E004DFE
:100240004350323330313720666F756E642E002E86
:10025000002E005374617274696E67204D435032F2
:1002600033303137202E2E2E00504341393535356D
:1002700020657870616E646572206E6F7420666FA1
:10028000756E642E005043413935353520657870E0
:10029000616E64657220666F756E642E002E005369
:1002A00074617274696E6720504341393535352069
:1002B000492F4F20457870616E646572202E2E2E76
:1002C0000045746865726E657420636F6E74726F3A
:1002D0006C6C6572206E6F7420666F756E642E0094
:1002E00045746865726E6574206361626C65206E2A
:1002F0006F7420636F6E6E65637465642E00495081
:1003000020416464726573733A20202020200045E8
:10031000746865726E657420636F6E74726F6C6C56
:10032000657220666F756E642E0053746172746915
:100330006E672045746865726E6574202E2E2E00DF
:100340004D6F64756C652049443A20004669726DB2
:10035000776172652056657273696F6E3A20760018
:100360004500008200004000200F0E0D0C0B0A0912
:1003700008000102030405060707050301080A0C2B
:100380000E000000002300260029000404040404D9
:100390000404040202020202020303030303030132
:1003A0000204081020408001020408102001020409
:1003B00008102000000008000201000003040700EC
:1003C00000000000000000000D1611241FBECFEF3A
:1003D000D8E0DEBFCDBF11E0A0E0B1E0ECEEF7E584
:1003E00002C005900D92AC3AB107D9F727E0ACEA0C
:1003F000B1E001C01D92A933B207E1F711E0C5EEEB
:10040000D1E004C02197FE010E94D22BC43ED10747
:10041000C9F70E9455160C94F42B0C940000CF934E
:10042000DF9320918C062223C1F0FC01208122233E
:10043000A1F0CCE8D6E0A8E8B6E09C012C5F3F4FE5
:10044000899141919D918427892339F4E217F3071B
:10045000B9F781E0DF91CF91089580E0FBCF823042
:10046000C8F4E82FF0E0EE0FFF1FEA5AFE4F718349
:100470006083813041F0809169008C7F826080933D
:100480006900E89A089580916900837F886080936D
:100490006900E99A0895AF92BF92CF92DF92EF92EE
:1004A000FF920F931F93CF93DF936C017B018B011E
:1004B000040F151FEB015E01AE18BF08C017D1076E
:1004C00059F06991D601ED91FC910190F081E02DF8
:1004D000C6010995892B79F7C501DF91CF911F914D
:1004E0000F91FF90EF90DF90CF90BF90AF90089565
:1004F00008950895FC01538D448D252F30E0842FFD
:1005000090E0821B930B541710F0CF96089501973B
:100510000895FC01918D828D981761F0A28DAE0F28
:10052000BF2FB11D5D968C91928D9F5F9F73928FAF
:1005300090E008958FEF9FEF0895FC01918D828DDB
:10054000981731F0828DE80FF11D858D90E00895A8
:100550008FEF9FEF0895FC01918D228D892F90E000
:10056000805C9F4F821B91098F739927089580E9C2
:1005700096E00E94AB0221E0892B09F420E0822F53
:10058000089580E090E0892B29F00E94B702811144
:100590000C9400000895FC01A48DA80FB92FB11D83
:1005A000A35ABF4F2C91848D90E001968F739927A9
:1005B000848FA689B7892C93A089B1898C91837087
:1005C00080648C93938D848D981306C00288F38980
:1005D000E02D80818F7D80830895EF92FF920F93AD
:1005E0001F93CF93DF93EC0181E0888F9B8D8C8DDF
:1005F00098131AC0E889F989808185FF15C09FB7D3
:10060000F894EE89FF896083E889F9898081837095
:10061000806480839FBF81E090E0DF91CF911F9144
:100620000F91FF90EF900895F62E0B8D10E00F5F65
:100630001F4F0F731127E02E8C8D8E110CC00FB63B
:1006400007FCFACFE889F989808185FFF5CFCE01D3
:100650000E94CB02F1CFEB8DEC0FFD2FF11DE35A81
:10066000FF4FF0829FB7F8940B8FEA89FB89808156
:100670008062CFCF0F931F93CF93DF938C01D0E095
:10068000C0E0F801EC0FFD1F6491662341F080E9A2
:1006900096E00E94ED02892B11F02196F2CFCE0157
:1006A000DF91CF911F910F910895CF93DF93EC01CC
:1006B000888D8823B9F0AA89BB89E889F9898C914A
:1006C00085FD03C0808186FD0DC00FB607FCF7CF06
:1006D0008C9185FFF2CF808185FFEDCFCE010E9406
:1006E000CB02E9CFDF91CF910895833081F028F4D8
:1006F000813099F08230A9F008958730A9F08830D0
:10070000C9F08430B1F4809180008F7D03C0809166
:1007100080008F7780938000089584B58F7784BDA3
:10072000089584B58F7DFBCF8091B0008F77809343
:10073000B00008958091B0008F7DF9CF1F93CF93C3
:10074000DF93282F30E0F901ED54FC4F8491F9013B
:10075000E156FC4FD491F901E557FC4FC491CC23ED
:10076000A9F0162F81110E947503EC2FF0E0EE0F17
:10077000FF1FE05FFE4FA591B4918FB7F894EC9105
:10078000111108C0D095DE23DC938FBFDF91CF918C
:100790001F910895DE2BF8CFCF93DF9390E0FC01FB
:1007A000E156FC4F249185579C4FFC01849188238E
:1007B000C9F090E0880F991FFC01E859FE4FA59100
:1007C000B491FC01E05FFE4FC591D49161110DC061
:1007D0009FB7F8948C91209582238C93888128234D
:1007E00028839FBFDF91CF910895623051F49FB766
:1007F000F8943C91822F809583238C93E8812E2B53
:10080000EFCF8FB7F894EC912E2B2C938FBFEACFBC
:100810003FB7F89480918E0290918F02A091900240
:10082000B091910226B5A89B05C02F3F19F0019603
:10083000A11DB11D3FBFBA2FA92F982F8827BC013A
:10084000CD01620F711D811D911D42E0660F771F62
:10085000881F991F4A95D1F708958F929F92AF9262
:10086000BF92CF92DF92EF92FF924B015C010E9408
:1008700008046B017C010E9408046C197D098E0933
:100880009F09683E734081059105A8F321E0821A13
:100890009108A108B10888EEC80E83E0D81EE11CBB
:1008A000F11C81149104A104B10429F7FF90EF9089
:1008B000DF90CF90BF90AF909F908F9008952FB70B
:1008C000F89460918A0270918B0280918C029091D1
:1008D0008D022FBF089508958091D7039091D8037A
:1008E00098278927982744972091F50330E044E022
:1008F000359527954A95E1F7220F331F220F331FB5
:10090000821B930B97FF02C090E080E00895209136
:10091000EB033091E9033093EB032093E90320913B
:10092000EC033091EA033093EC032093EA03E7EC05
:10093000F3E021A5820F911D25A585A7662381F0EF
:1009400021A7892F9927319723E0E33CF20789F704
:100950001092F9031092FA0380E58093F50308954D
:1009600011A6EFCF0F931F93CF93DF9370E06953DE
:100970007C4F8A01075F1F4F213029F0223031F46C
:100980008A010250110930E020E003C000E010E0CD
:100990009801EB01FA01E230F10558F0A991B99103
:1009A000BA27AB27BA270A0F1B1F211D311D32970B
:1009B000F2CFFA01EE7F6E0F7F1F4E175F0769F0CF
:1009C000FB01408150E070E060E0762F652F542FEE
:1009D0004427040F151F261F371FA90166277727F5
:1009E000411551056105710519F022273327F1CF13
:1009F00000951095E82FF0E0E953FC4F1083018338
:100A0000DF91CF911F910F910895E7ECF3E0108EE5
:100A1000118E80E4848B158A868B20E044E150E0BF
:100A20006EE088E10C94B2048EBD0DB407FEFDCFDC
:100A3000089561E080919B020E949E03789408953E
:100A4000F89460E080919B020C949E030F931F9397
:100A5000CF93DF93EC018B010E9420052097B9F022
:100A60008AE30E9414051EBCF801CE01019739F0FB
:100A70000DB407FEFDCF2EB51EBC2193F7CF2197F5
:100A8000C00FD11F0DB407FEFDCF8EB58883DF9157
:100A9000CF911F910F910C9419051F93CF93DF9362
:100AA000182FC62FD42F0E9420058C2F8F71812BD9
:100AB0000E9414058D2F0E941405DF91CF911F9184
:100AC0000C941905CF93C82FC076809188028C179B
:100AD00099F043E06FE180EA0E944D05C0938802DF
:100AE0004C2F50E085E0559547958A95E1F76FE1E9
:100AF00080E8CF910C944D05CF910895CF93DF936B
:100B0000C82FD62F0E9462054D2F6C2F80E4DF91F5
:100B1000CF910C944D05CF93DF93C82FD72F0E9410
:100B20007E056D2F81E08C0FDF91CF910C947E05B7
:100B3000CF93C82F0E9462050E9420058C2F8F71D1
:100B40000E94140580E00E941405C7FF03C080E0E6
:100B50000E941405CEB50E9419058C2FCF910895DF
:100B600061E184ED0E947E0561E082ED0E947E05D8
:100B70008AEE0E94980580FDFBCF60E082ED0E9426
:100B80007E0589ED0E94980590E00895CF93DF934C
:100B9000EC0140E86FE180E80E944D0540E86FE11C
:100BA00080EA0E944D054AE06CE180EA0E944D0512
:100BB00060E07CE082E00E948B05BE01745F86E00D
:100BC0000E948B0540E060E08AE70E944D050E948C
:100BD00020052097B1F08AE70E9414058091C70391
:100BE0008EBDE8ECF3E0C953DC4FEC17FD0731F0A4
:100BF00081910DB407FEFDCF8EBDF7CF0DB407FE7A
:100C0000FDCF0E94190548E06FE180E80E944D0584
:100C1000D0E0C0E08CE10E9498058A7029F421960A
:100C2000C83E83E0D807B1F78CE10E94980581FDAA
:100C300003C0C83ED34039F448E06FE180EADF9159
:100C4000CF910C944D05DF91CF9108950F931F9391
:100C5000CF93DF93EC0107EC13E04C96F801908BF7
:100C6000818B0E940505CE010896F80196A387A303
:100C7000AE01405F5F4F21E06AE188E20E94B2046A
:100C8000CE018A96DF91CF911F910F910C94C605EA
:100C9000CF93DF93EB01682F84ED0E947E05BE01A8
:100CA00086ED0E948B058AEE0E94980580FDFBCFA1
:100CB000DF91CF910895CF92DF92EF92FF920F9341
:100CC0001F938634910568F12091EA03233449F596
:100CD000C090F503D090F603E090F703F090F8038E
:100CE0000091BE021091BF022091C0023091C1025A
:100CF000C016D106E206F306A1F4E1EEF4E0895352
:100D00009C4F9F012E5F3F4F41815081553319F415
:100D10005281651771F0F901E40FF11DE817F90729
:100D200080F380E01F910F91FF90EF90DF90CF90C4
:100D3000089581E0F7CFE0918602F09187029F014C
:100D40002F5F3F4F30938702209386028083089560
:100D5000FF920F931F93CF93DF93162FF42E052F3F
:100D60000E949B06812F0E949B06CF2DD02F1150F1
:100D700020F089910E949B06FACFDF91CF911F91BD
:100D80000F91FF90089520913C02260F3327331FC7
:100D900021323105ECF420916002FC0190E080E00A
:100DA000243069F082E00895A0913C022191AC01C9
:100DB000445E5D4FA40FB52FB11D2C93019686178D
:100DC00098F380913C02680F60933C0280E00895A4
:100DD00081E008951092600281E080936202109297
:100DE000610261E082E10E949E0361E083E10E9472
:100DF0009E03E9EBF0E080818E7F808380818D7F90
:100E0000808388E48093B80085E48093BC000895D3
:100E1000CF93DF9391E090931B028823B9F0C091A8
:100E2000B800D091BA008091BC008A7B8093BC004E
:100E300060E082E10E949E0360E083E10E949E03E5
:100E40000E94EA06D093BA00C093B800DF91CF9118
:100E500008950895E091970280919602E81730F482
:100E6000F0E0EA50FE4F808190E008958FEF9FEF11
:100E7000089590919702809196022FEF3FEF981777
:100E800048F4E92FF0E0EA50FE4F208130E09F5F08
:100E900090939702C90108958091960290919702CC
:100EA000891B990B0895CF92DF92EF92FF920F93D7
:100EB0001F93CF93DF937C01CB018A01209187069A
:100EC000222389F0EB016B01C40ED51ECC15DD0584
:100ED00069F06991D701ED91FC910190F081E02DCD
:100EE000C7010995F3CF642F0E94C306C801DF91A3
:100EF000CF911F910F91FF90EF90DF90CF900895C9
:100F0000CF93DF931F92CDB7DEB769832091870619
:100F10002223F9F020918406203258F021E030E0BD
:100F2000FC013383228390E080E00F90DF91CF912A
:100F3000089580918506E82FF0E0EA52FE4F9981EE
:100F400090838F5F809385068093840681E090E094
:100F5000ECCF61E0CE0101960E94C306F7CF682F67
:100F60008DE297E00C948007CF92DF92EF92FF9290
:100F70000F931F93CF93DF93D091840681E0D132FA
:100F800008F09CC0C09186060E9408046B017C0199
:100F90008091600281116CC082E08093600281E0E8
:100FA000809362028FEF80935F0210928402D0934D
:100FB0008302A6EDB1E0E3E6F2E080E0D8138DC055
:100FC0001092850280918502CC0FC82BC0938502B8
:100FD00080916102813009F084C0109261020E9408
:100FE00008046B017C01809185028093BB00809195
:100FF000170290911802A0911902B0911A02892B40
:101000008A2B8B2BA1F00E940804009117021091EB
:1010100018022091190230911A026C197D098E096B
:101020009F09061717072807390708F442C080915F
:10103000BC0083FDD8CF85EC8093BC000E940804DF
:101040006B017C0180916002823009F44CC0809178
:101050005F028F3F09F469C080915F02803209F41A
:1010600066C080915F02803309F463C084E026C0CB
:101070008091170290911802A0911902B0911A0262
:10108000892B8A2B8B2B09F483CF0E9408040091B3
:101090001702109118022091190230911A026C194E
:1010A0007D098E099F09061717072807390708F0D9
:1010B0006FCF809116020E94080785E01092850686
:1010C0001092840610928706DF91CF911F910F91A5
:1010D000FF90EF90DF90CF9008959D9191938F5F57
:1010E0006DCF85EEA9CF8091170290911802A09143
:1010F0001902B0911A02892B8A2B8B2B09F4A2CFEB
:101100000E94080400911702109118022091190200
:1011100030911A026C197D098E099F09061717076D
:101120002807390708F08ECFC4CF80E0C7CF82E010
:10113000C5CF83E0C3CFCF93DF93EA01A0915A01DB
:10114000B0915B0191E090938706809386061092A0
:10115000850610928406ED91FC9111970190F08123
:10116000E02DCD01099580915A0190915B01DC0140
:10117000ED91FC910190F081E02D688109958091BD
:101180005A0190915B01DC01ED91FC910190F0819D
:10119000E02D6981099580915A0190915B010E942F
:1011A000B407982F8093650181E0911180E0DF9171
:1011B000CF91089540915F015091600121E030E0AE
:1011C000F90102C0EE0FFF1F8A95E2F7CF016130EF
:1011D00069F4842B952B9093600180935F014FE518
:1011E00051E062E080915C010C949B0880959095A1
:1011F00084239523F0CF90E080E008958F929F9212
:10120000AF92BF92CF92DF92EF92FF92CF93DF9394
:1012100090913C03911105C090913B03992309F4EF
:1012200070C0C82F0E9408042C2F30E0F901EE0F87
:10123000FF1FEE0FFF1FE253FE4FC080D180E28000
:10124000F3804B015C018C189D08AE08BF086083D9
:1012500071838283938363E6629FA001639F500D35
:10126000112442545A4FFA01E75AFF4FC080D180EF
:10127000E280F380C814D904EA04FB0408F041C0FA
:101280003496C080D180E280F3808C149D04AE043B
:10129000BF04B8F5F901EE0FFF1FEF53FC4F60815B
:1012A00071816F5F7F4F71836083E901C35CDC4FA5
:1012B000E881FFE0F29FB001F39F700D1124E60F6B
:1012C000F72FF11DEE0FFF1FEE0FFF1FE15CFC4F2C
:1012D00080829182A282B38288814F595F4FFA0146
:1012E000408190E00196642F70E00E945E2B88831D
:1012F000F901E954FC4F8081841718F480818F5FD5
:101300008083DF91CF91FF90EF90DF90CF90BF90DF
:10131000AF909F908F90089580E00C94FE0881E03C
:101320000C94FE082F923F924F925F926F927F92A1
:101330008F929F92AF92BF92CF92DF92EF92FF92E5
:101340000F931F93CF93DF93CDB7DEB72D970FB6D3
:10135000F894DEBF0FBECDBF282F30E03A87298733
:1013600093E6899FA001112442545A4F5E834D8316
:10137000DA0113968C911397220F331F220F331F1C
:101380003C832B83882309F45BC26D8720E030E027
:10139000A90155966D917D918D919C9158970E94D0
:1013A000752918160CF04CC20B811C8104541E4F79
:1013B000F80130802180F281F983D8011396BC9125
:1013C000BA830E945F04EB81FC81EC54FE4F7F01E5
:1013D00080809180A280B380681979098A099B096D
:1013E000ED81FE81EB5AFF4F80809180A280B38017
:1013F000681579058A059B0508F4EAC10E945F0417
:10140000D7016D937D938D939C931397ED81FE810E
:10141000458856886788708C24813581468157813C
:10142000C301B2010E9451276B017C014B015C0199
:10143000E894B7F8AD81BE81D5962D913D914D913F
:101440005C91D897C301B2010E947A299B01AC013B
:10145000C501B4010E94752918160CF0DBC15301B7
:101460004201B7FAB094B7F8B094A7019601C5014C
:10147000B4010E947529181664F0A7019601C301F2
:10148000B2010E94BE275301420187FD02C04601FE
:10149000570183E629853A85829FF001839FF00DED
:1014A0001124E254FA4FFE83ED83C1A8D2A8E3A829
:1014B000F4A820E030E0A901C701B6010E94752917
:1014C00018160CF00DC1A5019401C701B6010E94C8
:1014D0007A29EB81FC81E455FE4F208131814281E4
:1014E00053810E945227162F072F8B879C874D818F
:1014F0005E814B5B5F4FDA018D919D910D90BC91A8
:10150000A02D8D839E83AF83B8876C017D01F7FA90
:10151000F094F7F8F094A7019601612F702F8B8556
:101520009C850E94BE2787FD11C02D813E814F8181
:101530005885612F702F8B859C850E947529181600
:101540000CF4C9C0C12ED02EEB84FC84EB81FC814D
:10155000E455FE4FC082D182E282F38283E6298580
:101560003A85829FF001839FF00D1124E254FA4FD7
:10157000FE83ED8321AD32AD43AD54ADC301B20165
:101580000E947A299B01AC01C501B4019F770E949A
:10159000752918160CF4ADC04D815E81435C5F4F18
:1015A000DA01CD90DD90ED90FC9083E629853A85B7
:1015B000829FF001839FF00D1124E254FA4FFE83C5
:1015C000ED8325A536A547A550A9C501B4010E9404
:1015D0007A29A70196010E947A2920E030E048ECA0
:1015E00052E40E947A29EB81FC81E455FE4F208170
:1015F0003181428153810E9452275B018C014D81D0
:101600005E814F5B5F4FDA014D905D906D907C90F5
:1016100073016201F7FAF094F7F8F0949B01AC01C2
:10162000C701B6010E947529181664F09501A8013A
:10163000C301B2010E94BE277301620187FD02C08F
:1016400065017801BD85BB2309F45AC0232D322DD5
:1016500049815A81C701B6010E9452277B018C0142
:1016600083E629853A85829FF001839FF00D11243E
:10167000E254FA4FFE83ED8331A422A433A53983CB
:1016800044A54A839701A801632D722D89819A810F
:101690000E94752918160CF48FC0AD81BE819596F5
:1016A0003C90959796962C9096979796BC91B98377
:1016B000ED81FE81F0A5FA839701A801632D722DBB
:1016C0008B2F9F2F0E94BE2787FD76C03E2C2F2C8C
:1016D00009831A8371C0CD80DE80EF80F88436CF15
:1016E000EB81FC81E455FE4F10821182128213823D
:1016F00035CFC12CD12C80E8E82E8FE3F82E55CFC2
:1017000020E030E0A901C701B6010E94BE2788236E
:1017100009F47BC083E649855A85849F9001859FA3
:10172000300D112422543A4F3E832D83D9019996CE
:10173000AC9099979A96BC909A979B960C919B9790
:101740009C961C919501A801C701B6019F770E9444
:1017500052273B014C019B01AC01B501C8010E941D
:101760007529181684F0ED81FE81A5A0B6A007A109
:1017700010A59501A801B301C4010E94752918168E
:1017800014F05301840120E030E0A901C701B60143
:101790000E94752920E030E040E85FEB87FD04C03F
:1017A00020E030E040E85FE3B501C8010E947A29FB
:1017B000362E272E89839A83EB81FC81E454FE4FD9
:1017C000832D922DA981BA8180839183A283B383D3
:1017D000632D722D89819A812D960FB6F894DEBF04
:1017E0000FBECDBFDF91CF911F910F91FF90EF9072
:1017F000DF90CF90BF90AF909F908F907F906F9031
:101800005F904F903F902F900895312C212C19829A
:101810001A82D2CFFD85F1110AC0D8011D921D9206
:101820001D921C921397312C212C19821A82EB8164
:10183000FC81E455FE4F1082118212821382C8CFC0
:10184000EB81FC81E455FE4F1082118212821382DB
:10185000312C212C19821A82BBCF4F925F926F924A
:101860007F928F929F92AF92BF92CF92DF92EF9230
:10187000FF920F931F93CF93DF93D82EC62EC82FBE
:10188000D0E023E6829FF0011124E254FA4F8381D5
:10189000882359F020E030E0A9016589768987899D
:1018A000908D0E9475291816C4F0C11016C0C12C65
:1018B000D12C7601C701B601DF91CF911F910F9115
:1018C000FF90EF90DF90CF90BF90AF909F908F9060
:1018D0007F906F905F904F90089583E68C9F80017A
:1018E0008D9F100D112402541A4FF801E75BFF4F32
:1018F000D80155962D913D914D915C9158976081FD
:101900007181828193810E947A299B01AC01F80147
:1019100064817581868197810E94BE278E01000FA8
:10192000111F000F111F9E012C533E4F790187FF9D
:101930000BC00E945F04F801EA53FE4F608371837D
:1019400082839383D7011C920A531E4FF801808033
:101950009180A280B380D7018C91882311F10E94DD
:101960005F04681979098A099B0923E62C9FF00115
:101970002D9FF00D1124E15FF94F80809180A280AE
:10198000B38086169706A806B90608F090CF0E9485
:101990005F04F8016083718382839383D7011C9273
:1019A00086CF0E945F04681979098A099B0923E69A
:1019B0002C9FF0012D9FF00D1124E254FA4FDF010E
:1019C000A35BBF4F8D909D90AD90BC9086169706FF
:1019D000A806B90658F40E945F04F8016083718379
:1019E0008283938381E0D7018C9361CFCC20C1F1B6
:1019F000C58CD68CE78CF0A020E030E0A901C701AF
:101A0000B6010E94BE27412C512C90E8692E9FE31D
:101A1000792E87FF06C0412C512C80E8682E8FEB71
:101A2000782E83E68C9FF0018D9FF00D1124E254F7
:101A3000FA4F85A096A0A7A0B0A4A5019401C70164
:101A4000B6019F770E94752918160CF033CFA301B9
:101A50009201C501B4010E947A296B017C012ACF51
:101A600060E08D2DDF91CF911F910F91FF90EF904E
:101A7000DF90CF90BF90AF909F908F907F906F90AE
:101A80005F904F900C949209FC012FEF260FDC0120
:101A900090E030E0AD014E1B5F0B421753071CF482
:101AA0008D91980FF7CFE60FF11D319781E02081DE
:101AB000291380E008958091A302882339F00E94C1
:101AC000B005969587959695879581700895FC0148
:101AD00001900020E9F73197AF01481B590BBC0179
:101AE00080E996E00C944B02CF93DF930E943A0377
:101AF000EC0180EA91E00E94670D8C0F9D1FDF9141
:101B0000CF9108958F929F92AF92BF920F931F93A0
:101B1000CF93DF93CDB7DEB7A1970FB6F894DEBFB2
:101B20000FBECDBF19A2423008F44AE08E010F5D0E
:101B30001F4F842E912CB12CA12CA50194010E9441
:101B4000722BE62FB901CA01EA30F4F4E05DD80146
:101B5000EE938D01232B242B252B79F790E080E049
:101B6000109719F0CD010E94670DA1960FB6F89459
:101B7000DEBF0FBECDBFDF91CF911F910F91BF9000
:101B8000AF909F908F900895E95CE1CFCF93DF9362
:101B90000E94670DEC0180EA91E00E94670D8C0FB6
:101BA0009D1FDF91CF910895CF93DF93682F70E051
:101BB00090E080E04AE00E94820DEC0180EA91E032
:101BC0000E94670D8C0F9D1FDF91CF910895DC015E
:101BD00096E0FB0101900D929A95E1F70895BC0102
:101BE00087EC93E00E94E70D6FEC72E08DEC93E0E0
:101BF0000C94E70DDC0194E0FB0101900D929A95A5
:101C0000E1F708958DEC93E00E94EF0D61EE73E033
:101C100085EE93E00E94FA0D6CE876E081EE93E0A9
:101C20000E94FA0D0C940505262F20612093F603DF
:101C3000643021F0009711F481E090E061E00E94AF
:101C400087041092D70388E28093D8030E94020E83
:101C500084E08093F7031092F80322E04CE150E017
:101C60006AE182E30E94B20486E390E00C94C60528
:101C7000CF93DF93EB010E94EF0DBE0185EE93E061
:101C80000E94FA0D6CE876E081EE93E0DF91CF914F
:101C90000C94FA0DCF93DF93EB0144E050E0BC01CC
:101CA00083EE93E00E94E72B892B49F46DED73E0FE
:101CB000CE010E94E70D81E0DF91CF91089580E091
:101CC000FBCF0F931F93CF938C0186E791E00E9487
:101CD000EF0DE7ECF3E088E08487C6E0C58748E0D5
:101CE00050E068E071E085ED93E00E943227E7EE76
:101CF000F3E0DF011D92CA95E9F76FEC72E08DED1C
:101D000093E00E94E70DB8018DEE93E00E94FA0D7A
:101D10006CE876E083EE93E00E94FA0D8AE290E0B0
:101D2000CF911F910F910C94C605EF92FF920F93E4
:101D30001F93CF93DF93182F092FEB01F42EE52E7D
:101D4000CB010E940F02BE01882309F447C082E044
:101D500093E00E94380E8881807F803E91F08881D8
:101D60009981AA81BB818F3F9F4FAF4FBF4F49F0F1
:101D700044E050E0BE0185ED92E00E94E72B892B04
:101D800031F466E771E087EC93E00E94E70D88E0AC
:101D90008093D3031092D40349E050E060E673E0EF
:101DA00085ED93E00E9432271092D70381E1809362
:101DB000DE03E092EB03F092EC030093E90310934F
:101DC000EA031092ED031092EF031092F003DF91FB
:101DD000CF911F910F91FF90EF90089588E093E0CD
:101DE000B8CFEF92FF920F931F93CF938C01E7EC44
:101DF000F3E086E191E0DF019C011D92215030402B
:101E0000E1F78091CE0266E771E0833011F469EB6F
:101E100072E043E450E084E490E00E94950E66E7AF
:101E200071E087EC93E00E94E70D81E08093F1037D
:101E30008093F20386E08093F3038091BE02909139
:101E4000BF02A091C002B091C1028093F5039093AC
:101E5000F603A093F703B093F803C091CE02C3300A
:101E600031F46CE876E08DEF93E00E94FA0D6FECB0
:101E700072E08DE094E00E94E70D8DED94E0909388
:101E8000870280938602E4E0F1E084910E949B0641
:101E9000E5E0F1E084910E949B06E6E0F1E08491A8
:101EA0000E949B06E7E0F1E084910E949B0685E397
:101EB0000E949B0681E00E949B0683E0C11101C045
:101EC00081E00E949B068DE30E949B0687E00E94B2
:101ED0009B0681E00E949B068FECE82E82E0F82EA4
:101EE000C7E0C15031F0D7018D917D010E949B0662
:101EF000F8CF80910001882371F060E071E0FB0170
:101F000001900020E9F7BF016150714040E051E0CD
:101F10008CE00E94A8060115110559F0A80164E0A3
:101F200082E30E94A80649EB52E064E086E30E9447
:101F3000A80687E30E949B0683E00E949B0681E03F
:101F40000E949B0683E00E949B0686E00E949B06FF
:101F50008FEF0E949B068091860290918702815F9D
:101F60009340CF911F910F91FF90EF900C94260614
:101F700085ED8093BC008091170290911802A0918A
:101F80001902B0911A020796A11DB11D23E0B69562
:101F9000A795979587952A95D1F72091BC0024FDA8
:101FA00003C01092600208954091170250911802E8
:101FB0006091190270911A02452B462B472B69F349
:101FC0000097A105B10541F025E32A95F1F700003E
:101FD0000197A109B109E1CF809116020C9408077D
:101FE0004F925F926F927F92BF92CF92DF92EF9269
:101FF000FF920F931F93CF93DF93082F2A013B018A
:10200000CB01BA019F7720E030E04FE753E40E9414
:102010007A2920E030E04FE753E40E94C3270E9472
:10202000A8280E9435286B01EB01BB24B39420E063
:1020300030E0A901C301B2010E94752987FDB12CCE
:1020400080913701882311F081E0B82683E6089F4C
:102050008001112402541A4F6B2DF80181810E94D6
:102060009E03F801128161E0812F0E94CC0320972A
:1020700089F460E0812FDF91CF911F910F91FF9044
:10208000EF90DF90CF90BF907F906F905F904F90D8
:102090000C949E03CF3FD10511F461E0EBCFE12F0B
:1020A000F0E0ED54FC4FE491E33081F140F4E13095
:1020B000B1F0E23031F1C038D1057CF7DACFE7304A
:1020C00079F1E830A9F1E430B1F7809180008062C5
:1020D00080938000D0928B00C0928A0004C084B5A7
:1020E000806884BDC7BCDF91CF911F910F91FF9095
:1020F000EF90DF90CF90BF907F906F905F904F9068
:10210000089584B5806284BDC8BCEDCF8091800005
:10211000806880938000D0928900C0928800E3CFCD
:102120008091B00080688093B000C092B300DBCF94
:102130008091B00080628093B000C092B400D3CF91
:10214000FF920F931F93CF93DF93EC01F62E08813C
:102150001981C8010E943B27F81621F06F2DC80194
:102160000E944327CE01DF91CF911F910F91FF90E5
:102170000895EF92FF920F931F93CF93DF9300D0B8
:10218000CDB7DEB78AE6E82E81E0F82E08EA10E047
:102190001A830983F70161917F01CE0101960E94A4
:1021A000A0100F5F1F4F0E3A110591F70F900F907F
:1021B000DF91CF911F910F91FF90EF900895EF92D3
:1021C000FF920F931F93CF93DF9300D0CDB7DEB76D
:1021D0008AEE90E00E94740D1A82198261E7CE01A6
:1021E00001960E94A01081E090E09A83898362E5C5
:1021F000CE0101960E94A01082E090E09A8389832C
:1022000062E0CE0101960E94A01024E3E22E21E0BC
:10221000F22E07E110E01A830983F70161917F0133
:10222000CE0101960E94A0100F5F1F4F01331105D0
:1022300091F79EEBE92E95E0F92E0DEF10E01A8351
:102240000983F70161917F01CE0101960E94A010E0
:102250000F5F1F4F0036F1E01F0789F781E2E82E7C
:1022600086E0F82E09E711E01A830983F7016191EE
:102270007F01CE0101960E94A0100F5F1F4F0C3D01
:10228000F1E01F0789F70F900F90DF91CF911F9119
:102290000F91FF90EF900895EF92FF920F931F938D
:1022A000CF93DF93E90188819981863F2EE79207DA
:1022B00009F438C180F4843FFEE79F0709F464C045
:1022C000853F9E4709F409C1DF91CF911F910F917E
:1022D000FF90EF900895873FEEE79E0709F46FC2E5
:1022E0008C3B9F4789F70132110570F361E2CE0103
:1022F0000E94440D882341F38A81809334018B81AD
:10230000809335018C81982F91709093360181FBD9
:10231000992790F99093370183FB992790F990932F
:102320004A0184FB992790F990934B0185FB8827FC
:1023300080F980934D018D81809348018F81809336
:10234000BE0588858093BF0589858093C0058A85F1
:10235000809321068B85809322068C8580932306AB
:10236000FE013D96A8E3B1E0CE014D9621912D935B
:10237000E817F907D9F78D8D809349018E8D8093E9
:102380004C010E94DF1031C20E30110508F49CCFC1
:102390006EE0CE010E94440D882309F495CF0A8196
:1023A000902F92959F708091340198138DCF0F706C
:1023B00080913501081708F087CFE02EF12C23E635
:1023C000029F8001112402541A4F2C816D8170E00C
:1023D00090E080E0CB0177276627722B2B81622B60
:1023E0000E946B282FE632E143E85AE30E947A29E3
:1023F000F801658B768B878B908F2F81688570E0D5
:1024000090E080E0CB0177276627722B2E81622B2C
:102410000E946B282FE632E143E85AE30E947A29B2
:10242000F801618F728F838F948F898580FF04C03C
:10243000118A128A138A148A93E69E9DF0019F9D49
:10244000F00D1124E254FA4F81FD44C0108A82FF3E
:102450000BC093E69E9DF0019F9DF00D1124E25468
:10246000FA4F90899E5F908B83FF0BC093E69E9DF1
:10247000F0019F9DF00D1124E254FA4F90899C5F6A
:10248000908B84FB992790F99093230393E69E9D6C
:1024900080019F9D100D112402541A4FF801EE592E
:1024A000FF4F86FB882780F980836A857B85072E0E
:1024B000000C880B990B0E946D28F801658F768FB0
:1024C000878F90A30E945F04F801648775878687D1
:1024D0009787FACE91E0908BBACF0A30110508F4B5
:1024E000F3CE6AE0CE010E94440D882309F4ECCEBD
:1024F0008A8182958F70909134018913E5CE8B810A
:1025000080933C038C8180933B038D8180933A03BD
:102510008E81809338038F818093390388858093DF
:102520003703D2CE0831110508F4CECE68E1CE01D2
:102530000E94440D882309F4C7CE0A81902F9295FA
:102540009F70809134019813BFCE0F708091350138
:10255000081708F0B9CEE02EF12CF3E60F9F8001AA
:10256000112402541A4F6B8170E090E080E00E94C9
:102570006D2820E030E04FE753E40E947A2920E004
:1025800030E048EC52E40E94C327F80165A376A32B
:1025900087A390A76C8170E090E080E00E946D2896
:1025A00020E030E04FE753E40E947A2920E030E059
:1025B00048EC52E40E94C327F80161A772A783A7E1
:1025C00094A76D816857770B072E000C880B990B29
:1025D0000E946D289B01AC016DEC7CEC8CE89FE3C4
:1025E0000E94E729F80165A776A787A790AB6E81BF
:1025F000662309F4DFC06857770B072E000C880BA1
:10260000990B0E946D289B01AC0164E17EEA87E88A
:102610009FE30E94E729F80161AB72AB83AB94ABF7
:1026200083E68E9D80018F9D100D112402541A4F58
:102630006F8170E090E080E00E946D2820E030E043
:102640004AE754E40E94C327F80165AB76AB87AB39
:1026500090AF688570E090E080E00E946D2820E0F7
:1026600030E048EC52E40E94C327F80161AF72AF3A
:1026700083AF94AF7801FDE3EF0EF11C698570E044
:1026800090E080E00E946D2820E030E048EC52E4C9
:102690000E94C327F701608371838283938378014B
:1026A000F1E4EF0EF11C6A8570E090E080E00E949A
:1026B0006B28F70160837183828393837801F5E44B
:1026C000EF0EF11C6B8570E090E080E00E946D28B9
:1026D00020E030E040E251E40E94C327F70160832C
:1026E0007183828393837801F9E4EF0EF11C6D8589
:1026F00070E090E080E00E946D2820E030E048EC3F
:1027000052E40E94C327F70160837183828393831D
:1027100034968E859F85092E000CAA0BBB0B8083F7
:102720009183A283B383349688899989092E000CFA
:10273000AA0BBB0B80839183A283B38334968A89CF
:1027400090E0B0E0A0E080839183A283B38378011E
:10275000FDE5EF0EF11C2B8930E050E040E060E831
:1027600076E988E990E00E94942BF7012083318379
:10277000428353837801F9E5EF0EF11C2C893D89E2
:10278000032E000C440B550B60E472E48FE090E0E4
:102790000E94722BF70120833183428353838E89F9
:1027A00038968083DF91CF911F910F91FF90EF902A
:1027B0000C94DF1011AA12AA13AA14AA31CF063062
:1027C000110508F481CD66E0CE010E94440D8823F6
:1027D00009F47ACD8A8180936C018B8180936D019D
:1027E0008C8180936E010E94B910F0E0E0E0DF91EF
:1027F000CF911F910F91FF90EF9009941F920F922C
:102800000FB60F9211242F933F934F935F936F93C3
:102810007F938F939F93AF93BF93EF93FF9380E941
:1028200096E00E94CB02FF91EF91BF91AF919F91F3
:102830008F917F916F915F914F913F912F910F9069
:102840000FBE0F901F9018951F920F920FB60F9208
:1028500011242F938F939F93EF93FF93E091A00602
:10286000F091A1068081E091A606F091A70682FD75
:102870001BC090818091A9068F5F8F732091AA065B
:10288000821741F0E091A906F0E0E057F94F958FEB
:102890008093A906FF91EF919F918F912F910F90B7
:1028A0000FBE0F901F9018958081F4CF1F920F924A
:1028B0000FB60F9211242F933F938F939F93AF9353
:1028C000BF9380918A0290918B02A0918C02B0916B
:1028D0008D023091890223E0230F2D3758F50196A0
:1028E000A11DB11D2093890280938A0290938B02CF
:1028F000A0938C02B0938D0280918E0290918F02F2
:10290000A0919002B09191020196A11DB11D8093FA
:102910008E0290938F02A0939002B0939102BF9188
:10292000AF919F918F913F912F910F900FBE0F907C
:102930001F90189526E8230F0296A11DB11DD2CF36
:102940001F920F920FB60F9211242F933F934F9324
:102950005F936F937F938F939F93AF93BF93EF9307
:10296000FF93E0915801F09159010995FF91EF9182
:10297000BF91AF919F918F917F916F915F914F9197
:102980003F912F910F900FBE0F901F9018951F929F
:102990000F920FB60F9211242F933F934F935F9393
:1029A0006F937F938F939F93AF93BF93EF93FF9317
:1029B000E0915601F09157010995FF91EF91BF9178
:1029C000AF919F918F917F916F915F914F913F91C7
:1029D0002F910F900FBE0F901F9018951F920F927E
:1029E0000FB60F9211242F933F934F935F936F93E2
:1029F0007F938F939F93AF93BF93EF93FF938091B8
:102A0000B900887F803609F44AC0F0F5883209F4AD
:102A1000A7C018F5803109F49BC0B8F4882309F4E5
:102A2000F9C0883009F494C0FF91EF91BF91AF9144
:102A30009F918F917F916F915F914F913F912F91D6
:102A40000F900FBE0F901F901895883109F488C021
:102A5000803251F780935F0214C0803409F49DC026
:102A600040F48033B9F38833F9F680935F0285EC44
:102A7000B0C0803509F485C0883509F496C0883423
:102A800099F60E94B80FD0CF883909F48CC038F578
:102A9000883729F050F4883611F0803729F683E022
:102AA0008093600210925E0257C0883809F47BC0A0
:102AB000803919F0803809F0B7CF80915E028032FA
:102AC00008F071C0E0915E0281E08E0F80935E029B
:102AD0008091BB00F0E0E25CFD4F80833DC0803B15
:102AE00039F0E0F4803A09F479C0883A09F09CCFD3
:102AF00084E08093600210923D0210923C02E091CB
:102B00009402F0919502099580913C0281110FC0C9
:102B100081E080933C0210921C0209C0803C09F4C1
:102B2000A6CF883C09F4A3CF883B09F07DCFE09184
:102B30003D0281E08E0F80933D02F0E0E45EFD4FA8
:102B400080818093BB0090913D0280913C0229C01E
:102B5000809185028093BB0085EC8093BC0064CF9C
:102B60009091840280918302981758F5E091840235
:102B700081E08E0F80938402F0E0ED59FD4F80815B
:102B8000E9CFE091840281E08E0F809384028091EE
:102B9000BB00F0E0ED59FD4F80839091840280915D
:102BA00083029817C8F285E8D8CFE091840281E0CB
:102BB0008E0F809384028091BB00F0E0ED59FD4FB1
:102BC00080838091620281115CCF81E080936102F9
:102BD00084EA8093BC001092600226CF85EC80933B
:102BE000BC001092600280915E02803230F4E0916D
:102BF0005E02F0E0E25CFD4F108260915E0270E0E8
:102C0000E0919202F09193028EE392E00995109286
:102C10005E020ACF10925F0234CFE0E9F6E0138241
:102C2000128288EE93E0A0E0B0E084839583A683CF
:102C3000B78320E831E03183208325EC30E035870D
:102C4000248724EC30E03787268720EC30E0318B76
:102C5000208B21EC30E0338B228B22EC30E0358B63
:102C6000248B26EC30E0378B268B118E128E138E40
:102C7000148EEDE2F7E01382128284839583A6839B
:102C8000B78382E991E091838083E6E6F1E0AAE6EA
:102C9000B1E012968C911297808313968C911397C2
:102CA000818314968C9182830895CF93DF93CDB75F
:102CB000DEB7CF57D1090FB6F894DEBF0FBECDBF38
:102CC000789484B5826084BD84B5816084BD85B507
:102CD000826085BD85B5816085BD80916E00816013
:102CE00080936E00109281008091810082608093B9
:102CF00081008091810081608093810080918000BB
:102D00008160809380008091B10084608093B100E5
:102D10008091B00081608093B00080917A008460DF
:102D200080937A0080917A00826080937A0080910B
:102D30007A00816080937A0080917A008068809325
:102D40007A001092C1001092C10510922406E09101
:102D5000A006F091A10682E08083E0919C06F091AC
:102D60009D061082E0919E06F0919F0683E380838A
:102D70001092A806E091A406F091A50686E0808353
:102D8000E091A206F091A306808180618083E091AA
:102D9000A206F091A306808188608083E091A2065C
:102DA000F091A306808180688083E091A206F09173
:102DB000A30680818F7D808368EB7BE080E090E0DC
:102DC0000E942D0482EA91E00E94C60D82EA91E001
:102DD0000E94C60D82EA91E00E94C60D90E080E05C
:102DE0000E943B27898381E090E00E943B278A83F1
:102DF00082E090E00E943B2729813A8121373245C9
:102E000009F0C4C1823009F0C1C18FE491E00E9491
:102E1000740D64E3E62E61E0F62E07E110E0C801D0
:102E20000E943B27D7018D937D010F5F1F4F013318
:102E30001105A9F70EEB15E068015DEFE52EF12C09
:102E4000C7010E943B27D6018D936D01BFEFEB1A9E
:102E5000FB0AE0E6EE16E1E0FE0691F731E2C32E52
:102E600036E0D32E49E7E42EFF24F394C7010E94F5
:102E70003B27D6018D936D01BFEFEB1AFB0AECEDFA
:102E8000EE16E1E0FE0691F7809149018651893EF8
:102E900008F47AC12091350130E090E080E082179B
:102EA000930714F00C94CF26F8014081463108F0C6
:102EB00041C24181463108F03DC20D591F4F329643
:102EC0004081463108F036C20196E9CF81E0809317
:102ED000BB0586E0E0E7F1E0DE01119601900D927E
:102EE0008A95E1F79E012F5F3F4F790108EA10E0D4
:102EF000C8010E943B27D7018D937D010F5F1F4FB3
:102F00000E3A1105A9F789819A818439964209F010
:102F100018C286E0FE013196AAE6B1E001900D925A
:102F20008A95E1F782EA91E00E94C60D83EA91E07A
:102F30000E94C60D8CE493E00E943A034AE069EED9
:102F400077E080E090E00E94820D6EE280E996E0FA
:102F50000E94ED024AE06AE070E080E090E00E94AA
:102F6000820D6EE280E996E00E94ED024AE065E1A2
:102F700070E080E090E00E94820D80EA91E00E9483
:102F8000670D80E493E00E943A03809134010E942F
:102F9000D40D82EA91E00E94C60D809149018F3FD5
:102FA00019F062E00E94CC0380913501833018F063
:102FB00082E080933501109297021092960210924F
:102FC0008506109284060E94EA0688E792E09093B4
:102FD00095028093940289E792E090939302809304
:102FE00092028CE08093B8008AE293E00E94740D14
:102FF000809134018E5C80936F0130916C01398334
:1030000020916D012A8390916E019B838C83409166
:10301000AC02411105C08093310181E08093AC0284
:103020008091A402811109C03093280120932901C5
:1030300090932A0181E08093A4023093660120934B
:103040006701909368011FB7F894809198028111ED
:1030500027C0E5E9F3E08491E9EAF3E09491E82FF1
:10306000F0E0EE0FFF1FE859FE4FA591B491EC91EF
:10307000E92321F461E08AE00E949E0361E08AE096
:103080000E94CC038CB580618CBD8CB580648CBDF6
:1030900061E08DE00E94CC0361E08BE00E94CC03F4
:1030A000809198028F5F809398021FBF10929A02BE
:1030B000109299028091990281113CC064EF71E0F5
:1030C00080E090E00E942D048AEA91E00E94670D62
:1030D000F89460E08AE00E949E038FEF0E9414053E
:1030E0008FEF0E94140561E08AE00E949E037894AD
:1030F00062E070E080E090E00E942D04F89460E0CF
:103100008AE00E949E038DE10E94140580E00E94E7
:1031100014051EB561E08AE00E949E037894117048
:103120001093990280919A028F5F80939A02863061
:1031300008F4C0CF809199028093A302882309F4F8
:103140008FC21092220387E390E0C12CD12C76012C
:10315000C394009709F40AC1FC0123E0F595E795B3
:103160002A95E1F7E456FD4F282F2770B701A601F5
:1031700004C0440F551F661F771F2A95D2F7208180
:10318000242B20830197E5CF1092BB0584E391E0C7
:103190000E94740D8AE191E00E94740D8EE080938C
:1031A00049018FE080934C0183E08093BE0584E069
:1031B0008093BF0585E08093C00582E0809321065F
:1031C00086E08093220689E080932306E3EEF5E013
:1031D00080E5882E912CA12CB12C90E9C92EDD24FC
:1031E000D394E12CF12C4AEF50E060E070E080E4F1
:1031F00092E4AFE0B0E02CE0222E33243394412C53
:10320000512C1FE7612E13E4712E4082518262829D
:10321000738200E010E020E231E40483158326830A
:10322000378302E5402E09E4502E0DE9602E09E3B4
:10323000702E408651866286738604EF17E321EA7A
:103240003AE304871587268737872FE8422E22EC3A
:10325000522E25E7622E2CE3722E408A518A628A12
:10326000738A03E313E323EB3EE3048B158B268B76
:10327000378B3AE9432E39E9532E652C3EE3732E02
:10328000408E518E628E738E00E010E020EC30E4B0
:10329000048F158F268F378F1DEC412E1CEC512E7D
:1032A000652C1DE3712E40A251A262A273A20FE809
:1032B00012EC25EF3CE304A315A326A337A380A6B5
:1032C00091A6A2A6B3A6C4A6D5A6E6A6F7A604E62E
:1032D000402E512C612C712C40AA51AA62AA73AACB
:1032E00044AB55AB66AB77AB80AF91AFA2AFB3AF9A
:1032F00024AE35AEED59FF4F06E0E93AF00709F08C
:103300007ECFE8E3F1E08FEF819311E0E834F1073D
:10331000D9F781E08093350194E090934801809340
:103320004B0110924D0180933701809336010E942A
:10333000DF10CFCD80E08093BB05882309F426CF32
:10334000C8CD84E996E290936B0180936A0180EC8A
:1033500080936C0188EA80936D0181E080936E0117
:1033600082E380936F010E94B910DCCD6CE271E0C2
:103370008FEC92E00E94E70D84EF91E09093B5020C
:103380008093B4020CB406FC25C061E08AE00E9480
:10339000CC0361E08AE00E949E0361E08BE00E9422
:1033A000CC0361E08DE00E94CC0360E08CE00E94E1
:1033B000CC0361E08BE00E949E0360E08BE00E9402
:1033C0009E0360E08DE00E949E0380E58CBD8DB57C
:1033D00081608DBD8AE080939B0261E00E94CC03F6
:1033E0000E9419054FEF60E08FEF0E944D0562E0EB
:1033F00070E080E090E00E942D040E9420058DE1A5
:103400000E94140580E00E9414051EB50E94190553
:10341000112399F370E060E088E00E948B0570E072
:1034200060E08CE00E948B056FEF7BE08AE00E94F9
:103430008B0560E07CE084E00E948B056FEF71E11A
:1034400086E00E948B0566E774E084E10E944806EE
:1034500061EB88E30E947E056FE370E388E20E94DF
:103460008B0569EF77EF80E30E948B0561E080ECCC
:103470000E947E0542E362EC80E80E944D0562E115
:103480007CE086EC0E948B0562E184EC0E947E0564
:103490006CED75E08AEC0E948B056091CF0284EEA2
:1034A0000E947E056091D00285EE0E947E056091AB
:1034B000D10282EE0E947E056091D20283EE0E94CC
:1034C0007E056091D30280EE0E947E056091D40259
:1034D00081EE0E947E0560E071E080E10E94480676
:1034E0008FE10E94620540EC6BE180E80E944D058F
:1034F00044E06FE180E80E944D0582E70E94980554
:1035000082EA91E00E94C60D8FE093E00E94740D64
:1035100010922203BE016F5F7F4F8CE896E00E94FD
:10352000FA0D1092200310921F0381E08093210373
:1035300068E271E08BE193E00E94FA0D64E271E0D1
:1035400086E193E00E94FA0D60E271E088E896E07F
:103550000E94FA0D0CE816E028E836E045ED52E04E
:10356000F8019191D9018D919D018095892BDA0106
:103570008D93AD01B6E0E039FB0799F78091010327
:10358000883098F425E0829FF0011124E752FD4F26
:103590002CE431E13183208328ED30E7338322832B
:1035A00091E094838F5F8093010364EF71E080E08A
:1035B00090E00E942D040E945B0D882309F44BC00B
:1035C0008EEF92E00E943A03F12CD8016D918D01AB
:1035D00070E090E080E04AE00E94820DB3E0FB16CC
:1035E00029F06EE280E996E00E94ED02F394E4E0B7
:1035F000FE12EBCF80EA91E00E94670D10E000E040
:1036000083E6D82E809135018017110609F00CF45D
:103610004CC0D09EC001D19E900D11249C0122541B
:103620003A4F790162E0D9018C910E94CC0361E0AC
:10363000F70181810E94CC0361E0D70112968C9141
:103640000E94CC030115110591F001301105F9F02C
:103650000F5F1F4FD7CF80EE92E00E94740DCECF48
:1036600082EA91E00E94C60D81EC92E0F6CF809153
:10367000BE05823041F0833041F481E06CE879E0AE
:103680000E942F02E5CF80E0F9CF8FEFF7CF809136
:103690002106823031F0833031F481E06FE879E047
:1036A000EFCF80E0FBCF8FEFF9CF809148018430DE
:1036B00008F0ECC1823008F08BC208E311E0B8E4F6
:1036C000EB2EB1E0FB2E813009F476C282EA91E064
:1036D0000E94C60D89E192E00E943A038091350173
:1036E0000E94D40D82EA91E00E94C60D8EE092E025
:1036F0000E94740D84E092E00E943A0389EF91E009
:103700000E943A038091BE050E94D40D8FEE91E095
:103710000E943A038091BF050E94D40D85EE91E08E
:103720000E943A038091C0050E94D40D82EA91E084
:103730000E94C60D8AED91E00E94740D8FEC91E01D
:103740000E943A03809121060E94D40D85EC91E0FD
:103750000E943A03809122060E94D40D8BEB91E0E7
:103760000E943A03809123060E94D40D82EA91E0E0
:103770000E94C60D89EA91E00E943A0380914901B6
:103780000E94D40D8AE991E00E943A0380914C0195
:103790000E94D40D82EA91E00E94C60D88E891E073
:1037A0000E943A0382E891E00E94740D82EA91E05F
:1037B0000E94C60D82E791E00E94740D82EA91E0BA
:1037C0000E94C60D8E01015F1F4FEB961FAF0EAF1B
:1037D000EB970E945B0D882309F427C18091B80202
:1037E000882379F06091B6027091B7026115710576
:1037F00009F05EC26FEF7BE08CE00E948B051092B7
:10380000B80289E30E949805F12CE12C8823D9F1B4
:103810006091B6027091B70280E00E948B05BE01F4
:103820006F5F7F4F86E090E00E94260589819A8134
:103830009093B7028093B6028D819E817C0110E83F
:10384000E122FF2487FF13C08B819C810497E090C5
:10385000B402F090B50221E0E21AF1088E159F053E
:1038600008F47C0167EC73E0C7010E942605F701AC
:10387000E953FC4F108281E08093B80240E46EE18E
:1038800080E80E944D0580912203882369F0809191
:10389000CE02823009F415C208F00DC2882309F463
:1038A00098C2813009F4B4C2E114F10409F03FC3B5
:1038B00080912103857099F080911F0390912003DE
:1038C000892B69F40E94B00582FF09C08BE193E067
:1038D0000E94610E80912103886080932103809172
:1038E0001F039091200301969093200380931F0360
:1038F00080911A03813009F06EC08091210381FF0D
:103900006AC082E080931A03809133018F5F8093B5
:103910003301182F1F7180E193E00E940F0260E1D4
:1039200073E0882309F400C382E093E00E94380E1C
:1039300008E00093D3031092D40349E050E060E61E
:1039400073E085ED93E00E9432278CE28093D803E8
:1039500086E08093DE030E9405051092EB0310922F
:10396000EC038BE08093E9031093EA03EDEEF3E0C0
:10397000DF011D920A95E9F7809132018093EF03F0
:103980008D5F8093320180E68093F50382E080931F
:10399000F60393E09093F7031092F8031092F90363
:1039A0001092FA031092FB031092FC038093FD0324
:1039B00094E09093FE038093FF0386E280930004DB
:1039C00022E040E250E06AE182E30E94B2048AE32E
:1039D00090E00E94C60586E193E00E940F028823D2
:1039E00079F08091150381110BC08091140381112E
:1039F00007C086E193E00E94610E81E0809314038A
:103A000080E193E00E940F02882379F080910F03F8
:103A100081110BC080910E03811107C080E193E0FA
:103A20000E94610E81E080930E030EEB15E0ED968F
:103A30001FAF0EAFED97312C212C809135018215EF
:103A4000130409F00CF455C4D80150969C9150977A
:103A5000F801EE59FF4F8081882309F410C4822DAC
:103A6000943031F0953009F4FCC3923009F005C46C
:103A700061E00E949209F8016087718782879387CD
:103A8000BFEF2B1A3B0A0D591F4FD7CF843009F0D7
:103A90001DCE82EA91E00E94C60D83E592E00E946D
:103AA000740D81E28093240316E001E0F1E2FF2E21
:103AB0008091250381111DC081E592E00E943A03A7
:103AC00000938706F092860610928506109284066F
:103AD0008DE297E00E94B40791E0811190E090930D
:103AE000250364EF71E080E090E00E942D04115006
:103AF000F9F680912503811128C080E28093240388
:103B000016E001E0E0E2FE2E8091250381111DC048
:103B10008FE492E00E943A0300938706F0928606B3
:103B200010928506109284068DE297E00E94B407F9
:103B300091E0811190E09093250364EF71E080E0C3
:103B400090E00E942D041150F9F682EA91E00E9463
:103B5000C60D80912503882309F4A7C08091240312
:103B600011E01093870680938606109285061092C6
:103B7000840690E080E00E94AF0790E080E00E9421
:103B8000AF078DE297E00E94B4071093870610926A
:103B900085061092840681E090E00E94AF0790E0D5
:103BA00080E00E94AF078DE297E00E94B4078FE3A8
:103BB00092E00E94740D8ACDF80181918F018F3FB0
:103BC00019F061E00E94CC03E016F106A9F77ECD62
:103BD00082EA91E00E94C60D8FE992E00E94740D86
:103BE00016E001E0A0E2FA2E8091360381111DC09B
:103BF0008DE992E00E943A0300938706F0928606D0
:103C000010928506109284068DE297E00E94B40718
:103C100091E0811190E09093360364EF71E080E0D1
:103C200090E00E942D041150F9F682EA91E00E9482
:103C3000C60D80913603882399F185E892E00E94B1
:103C4000740D8DE297E090935B0180935A0180E2BE
:103C500080935C01109262011092610141E651E093
:103C600064E00E949B08109264011092630143E695
:103C700051E066E080915C010E949B088FEF9FEF0E
:103C80009093600180935F014FE551E062E0809185
:103C90005C010E949B0882EA91E00E94C60D16CD4D
:103CA00089E692E00E94740DF6CF8BE292E081CF1C
:103CB00061507109A1CD833009F456C0843009F0F8
:103CC000F3CD65E0C7010E945B06882309F4C9C0F3
:103CD0008091BD02811108C088E30E949805682F79
:103CE0006E7F88E30E947E0561E074E08CE896E0D8
:103CF0000E94FA0DE1EEF4E0870109531C4F6801C0
:103D00008F010E5F1F4FB1808081863009F4FBC0A8
:103D100008F0BEC0813009F4ECC0833009F4EFC074
:103D2000F801EB0DF11DEC15FD0550F30E945F0449
:103D30006093C6027093C7028093C8029093C90231
:103D400080911B03882361F01092200310921F03BF
:103D500081E0809321036BE173E0CB010E94FA0DB7
:103D600083E08093CE02A0CD8090CA029090CB02D7
:103D7000A090CC02B090CD023FEF83169306A3062D
:103D8000B30609F491CD0E945F040091C602109120
:103D9000C7022091C8023091C902601B710B820BCF
:103DA000930B681579058A059B0508F47DCD8CE891
:103DB00096E00E94F10E84E08093CE020E945F04A0
:103DC0006093C2027093C3028093C4029093C502B1
:103DD0006BCD0E945F046093BE027093BF0280931C
:103DE000C0029093C102ECE8F6E084E0DF011D928E
:103DF0008A95E9F790E080E00E94F10E88E30E9446
:103E00009805682F616088E30E947E0581E0D4CF29
:103E100062E0C7010E945B06882319F161E074E04B
:103E2000CE0101960E94FA0DE1EEF4E0C70189533C
:103E30009C4FBF016E5F7F4F21813081363351F43B
:103E400089EB92E00E94FA0DCE0101960E94F10EDC
:103E500082E0B2CFFB01E20FF11DE817F90748F34A
:103E6000F3CF0E945F040091C2021091C30220911F
:103E7000C4023091C502601B710B820B930B613140
:103E800077428105910508F40FCD1092CE020CCD3A
:103E90008A3331F08F3F09F449CF833309F040CFA3
:103EA0001092CA021092CB021092CC021092CD0254
:103EB000F801C801049620E030E0A9016191542F77
:103EC000432F322F2227260F311D411D511D8E17E2
:103ED0009F07A1F72F3F6FEF360746075607B9F444
:103EE0002093CA023093CB024093CC025093CD0270
:103EF00017CFB80188E896E00E94FA0D11CFB801FB
:103F00008BE193E0F9CFB80186E193E0F5CFA8EE1D
:103F1000B3E00E94B32B6093CA027093CB028093EC
:103F2000CC029093CD02FCCE88E093E0FFCCB9E2C6
:103F3000EB16F10408F479CD8091D303883009F0B1
:103F400074CD8091D403863009F03EC744E050E040
:103F50006CE876E08DEE93E00E94E72B892B09F068
:103F600064CD8091DC03813029F58DEC93E00E94D3
:103F7000EF0D1092DB0382E08093DC036DED73E0C4
:103F800087EE93E00E94E70D6FEC72E08DED93E019
:103F90000E94E70D63EE73E08DEE93E00E94FA0D50
:103FA0006CE876E083EE93E00E94FA0D8AE290E0FE
:103FB0000E94C6058091210383FF0DC01091DC0390
:103FC000123049F468E073E08BE193E00E944A0EFE
:103FD00081111093210380911503811111C08091EB
:103FE0001403882369F062E073E086E193E00E94A5
:103FF0004A0E882329F081E0809315031092140360
:1040000080910F03811111CD80910E03882309F453
:104010000CCD62E073E080E193E00E944A0E8823B9
:1040200009F403CD81E080930F0310920E03FDCCC1
:1040300090910103911122C0E6E3EE16F10408F419
:10404000F4CC0091DE03063009F0EFCC8091EB0355
:104050008B3009F0B5C044E050E060E173E081EEE0
:1040600093E00E94E72B892B09F0DFCC1091F60337
:1040700012FF5CC085E080931A03D7CC8131E1F652
:1040800049EDC42E42E0D42EB12CA12C20E0809129
:1040900001038A151B0409F00CF444C0D6011296E2
:1040A0003C91129713969C9113978091EB03EF9696
:1040B0009FAFEF97C158DF4F1882CF57D040C258FB
:1040C000DF4F48805980CE57D0408415150419F52C
:1040D0008091EC0383131FC014969C901497992031
:1040E000D1F00091ED0310E0102F00272091EE0396
:1040F0002850330B020F131F4091E9035091EA033C
:10410000542745275427ED91FC9121EF33E061EED0
:1041100073E00995292D0FEFA01AB00A15E0C10E22
:10412000D11CB5CF222309F487CF7FCC0E946C0429
:1041300020911A03223081F5212F2271223101F5BD
:1041400060E090E080E00E94140E88E18093F60326
:1041500083E080931A031092D70388E28093D803F8
:104160000E9405051092F9031092FA0322E04CE137
:1041700050E06AE182E30E94B20486E390E06EC6FA
:1041800021E020931A03019614FF02C090E080E022
:1041900064E00E94140E49CC253009F446CC10FF8F
:1041A0000AC0233009F441CC69E001960E94140E44
:1041B00000931A033ACC60E0009709F436CCE9CFBB
:1041C000811133CC8091EC03803509F02ECC109115
:1041D000F60311FF39C01092D7038CE28093D80305
:1041E0000E94020E82E18093F60360E081E090E09D
:1041F0000E9487041092ED031092EE038091320129
:104200008093EF031092F0038D5F8093320182E080
:104210008093FD0384E08093FE0385E08093FF0399
:104220001092000490E69093F5038093F70388E7DB
:104230008093F80322E040E250E06AE182E30E94CA
:10424000B2048AE390E00AC614FFEFCB0E946C042C
:10425000892B09F0EACB10FFE8CB60E090E080E02A
:1042600098CF60E0822D0E942D0CD80118966D9396
:104270007D938D939C931B9703CC60E0FACB953094
:1042800011F461E0EFCFF801C58CD68CE78CF0A07B
:104290001896CD92DD92ED92FC921B9720E030E0D3
:1042A000A901C701B6010E94BE27412C512C20E86C
:1042B000622E2FE3722E87FF06C0412C512C90E80E
:1042C000692E9FEB792EF80185A096A0A7A0B0A437
:1042D000C701B6019F77A50194010E9475291816A0
:1042E0000CF0CECBA3019201C501B4010E947A2942
:1042F000BCCF0E945F0400915201109153012091A4
:10430000540130915501601B710B820B930B62338A
:1043100071058105910508F4B5C30E945F0460939F
:1043200052017093530180935401909355010EEB09
:1043300015E0D12CC12C809135018C151D0409F09C
:104340000CF446C00E945F04F80184849584A6841E
:10435000B784681979098A099B096838734181050E
:10436000910518F5D80155968D909D90AD90BC9013
:104370005897F090230320E030E0A901C501B40173
:104380000E94752918169CF4F11019C0F801808953
:10439000843059F4FF24F39420E030E0A901C501F2
:1043A000B4010E947529181654F0F12C08C0FF20A2
:1043B00069F3F801EE59FF4F80818111E7CFD801F1
:1043C0001396FC92BFEFCB1ADB0A0D591F4FB3CFE8
:1043D0000E945F040091CA051091CB052091CC0585
:1043E0003091CD05601B710B820B930B603A7F40BF
:1043F0008105910508F06DC000913C03E0903B03FE
:1044000080914801823009F43DC108F081C08130BB
:1044100009F4F3C0F9EB2F2EF3E03F2E0EEB15E07D
:10442000F12CE12CC701880F991F9C012F533C4FA1
:104430006901D9018D919C91892B09F4B3C20E9425
:104440005F04F1016083718382839383F894D601C2
:104450002D913C91F80181899289A389B489820FB9
:10446000931FA11DB11D818B928BA38BB48BD601A1
:1044700011961C921E92F701E954FC4FB081EE9602
:10448000BFAFEE978B2F90E0DE01DD96AD0130E0FF
:1044900020E0EFE0EE9D6001EF9DD00C1124281785
:1044A000390708F070C1F601E20FF31FEE0FFF1F8E
:1044B000EE0FFF1FE15CFC4F80809180A280B380F3
:1044C000FA0181929192A192B192AF012F5F3F4F79
:1044D000E6CF0E945F0400912D0610912E062091D8
:1044E0002F0630913006601B710B820B930B603AE4
:1044F0007F408105910508F47FCF00913A038091B8
:104500003903082BE090380380913703E82A78CFED
:10451000833009F4E6C0843009F07CCF8091250314
:10452000882309F477CFF12CD12C90E080E021E0B2
:1045300030E010E0EE2DF0E0A901082E02C0440F9B
:10454000551F0A94E2F7B8016423752346175707ED
:1045500099F4DC01AC5CBE4F1496AC916A2F70E00C
:10456000A83008F4FEC068507109290102C0440C4B
:10457000551C6A95E2F7F428BF016423752346179A
:10458000570799F4DC01AC5CBE4F1C966C91462F2A
:1045900050E0683008F4ECC048505109390102C0BD
:1045A000660C771C4A95E2F7F6280196883091054B
:1045B00019F680913601882311F0D094F0948091FF
:1045C000240391E0909387068093860610928506D7
:1045D0001092840682E190E00E94AF076D2D8DE27B
:1045E00097E00E9480076F2D8DE297E00E94800780
:1045F0008DE297E00E94B4070DCF88E3A82E81E0FA
:10460000B82ED12CC12C10E0FF24F394D5018D914C
:104610005D018F3FD9F4BFEFCB1ADB0AE8E0CE167D
:10462000D104A1F710E4C12E11E0D12E10E000E07A
:10463000F12CBB24B394D6018D916D018F3FA1F471
:104640000F5F1F4F08301105B1F7E4CE60913601BE
:1046500098010C2C02C0359527950A94E2F720FFAB
:104660006F250E949E03D7CF609136019701002EDF
:1046700002C0359527950A94E2F720FF6B250E942A
:104680009E03DECF80913603882309F4C3CEB6E2C1
:10469000CB2EB3E0DB2EF12CE12C10E098010E2C98
:1046A00002C0359527950A94E2F7B22FB170BB2E60
:1046B000F60181916F01B81761F0F701E758FC4FDF
:1046C000849160E020FF61E00E94DA08F6013197F2
:1046D000B082FFEFEF1AFF0A28E0E216F104F1F6CC
:1046E00099CE80913603882309F494CEA6E2AA2EAF
:1046F000A3E0BA2ED12CC12CF12C10E038E0C31667
:10470000D10424F5C8010C2C02C0959587950A9414
:10471000E2F7482F4170942ED5018D915D018915E6
:1047200069F0F601E759FC4F849160E0911001C0F7
:1047300061E00E94DA08F50131979082BFEFCB1A51
:10474000DB0AE0E1CE16D104C9F664CEC6010897B3
:10475000B70102C0759567958A95E2F76170962E4C
:10476000DBCFB90101C0660FAA95EAF7D62A04CFBC
:10477000A90101C0440F6A95EAF7D42A16CFEE24A6
:10478000E394F12C4FCE7894009709F4C5C0FE0154
:10479000319630E020E0BF018D909D90AD90BD90AE
:1047A00081929192A192B1922F5F3F4F28173907C2
:1047B0009CF3FE01359641E050E04817590794F507
:1047C000DF018D909D90AD90BD906D019A012150BB
:1047D0003109DF017E906E905E904E9084149504B6
:1047E000A604B70450F44082518262827382215041
:1047F0003109FD012F3F320761F7F9013196EE0FC4
:10480000FF1FEE0FFF1F44244394512C4C0E5D1EDE
:10481000E40DF51D80829182A282B3824F5F5F4FCB
:10482000F601CBCF95958795FC01EE0FFF1FEE0F9C
:10483000FF1FE60FF71F80809180A280B380EE9665
:104840005FACEE9750FC14C00197880F991F880F3A
:10485000991F860F971FFC0180819181A281B381EE
:10486000880E991EAA1EBB1EB694A794979487948F
:1048700081149104A104B10409F44EC0C501B4012E
:104880000E946B289B01AC0160E074E284E799E42C
:104890000E94C3272DEC3CEC4CE45FE30E947A2994
:1048A0004B015C012DEC3CEC4CE45EE3D8019196AD
:1048B0006D917D918D919C9194970E947A299B0195
:1048C000AC01C501B4010E9452272B013C01F80143
:1048D00041A252A263A274A2818C928CA38CB48C4C
:1048E00020E030E0A901C501B4010E947529181625
:1048F0009CF420E030E040E752E4C301B2010E94A2
:104900007A29A50194010E94C327D80114966D93BA
:104910007D938D939C9317970D591F4FB4E02B0EE9
:10492000311CEA94EF2809F02ACF0EEB15E0F12CA8
:10493000E12C809135018E151F0409F00CF47FC025
:10494000D80118968D909D90AD90BC901B9720E05B
:1049500030E04FE753ECC501B4010E94BE2787FD4C
:104960004AC020E030E04FE753E4C501B4010E94A3
:104970007529181634F4812C912C5FE7A52E53E489
:10498000B52EF8018089823009F44BC0D8F5882310
:1049900009F447C08130D1F1FFEFEF1AFF0A0D593A
:1049A0001F4FC7CF0E945F04F10180809180A280D9
:1049B000B380681979098A099B09613A7F408105AA
:1049C000910528F4D80113968C918111A5CFF80197
:1049D000148215821682178211A212A213A214A2A7
:1049E000F894F701E954FC4F1082F701E35CFC4FA7
:1049F0001082789491CF812C912C4FE7A42E43EC18
:104A0000B42EBFCF843069F0853031F6F801838150
:104A100081110FC0812C912C3FE7A32E33ECB32ED4
:104A200008C0D80113968C91811103C0812C912C60
:104A30005401B501A4018E2D0E94F00FADCF10924C
:104A4000BD051092BC0580914C018F3FD9F08E308E
:104A500008F08E508770806480937C0080917A008B
:104A6000806480937A0080917A0086FDFCCF9091DB
:104A70007800809179008927982789279093BD0530
:104A80008093BC050E945F0400914E0110914F017C
:104A90002091500130915101601B710B820B930BDF
:104AA000693C71058105910508F460C10E945F04AD
:104AB00060934E0170934F01809350019093510188
:104AC00010E000E090E9F92E2EE7E22E809134010B
:104AD000909135019017110609F00CF4B8C0F982D5
:104AE000EA8220E1829FC0011124802B8B8320E089
:104AF00030E04AE754E4ED96AEADBFADED971496C5
:104B00006D917D918D919C9117970E947A290E94B9
:104B10003C286C837D838E83ED96EEADFFADED97E3
:104B2000818C928CA38CB48C20E030E0A901C5016B
:104B3000B4010E94752918160CF085C0ED96AEAD33
:104B4000BFADED9751966D917D918D919C9154974C
:104B50000E946B2820E030E040E251E40E947A2974
:104B6000A50194010E94C3270E943C286F83788787
:104B70008987ED96EEADFFADED97608571858285F5
:104B800093850E9435286A877B871C860E945F0474
:104B9000ED96AEADBFADED971C968D909D90AD900E
:104BA000BC901F97681979098A099B09603A7F4070
:104BB0008105910518F48C8581608C8720E030E0B8
:104BC00040E251E4ED96EEADFFADED9761A172A12B
:104BD00083A194A10E947A290E943C286D877E8738
:104BE000FE01319680E09191890FEB964EAC5FAC5F
:104BF000EB974E165F06B9F78F870E945B0D8823EF
:104C0000A9F04FE255E766E671E083E094E10E9487
:104C1000950E8FE0FE013196A1EFB3E001900D9269
:104C20008A95E1F78FE090E00E9426060F5F1F4F04
:104C3000ED962EAD3FADED972D593F4FED963FAF21
:104C40002EAFED9743CF1F821886198692CF91E938
:104C500099839EE79A838B839091BC058091BD05D3
:104C60009C838D831E821F82188619861A8682E095
:104C70008B8781E78C8782E58D871E86209149018D
:104C80002F3F09F489C030E0F901ED54FC4F8491C5
:104C9000F901E156FC4F1491F901E557FC4F0491DD
:104CA000002309F473C081110E947503E02FF0E026
:104CB000EE0FFF1FEF57FC4FA591B491EC911E230F
:104CC00031E020E009F430E0832F922F282F21706B
:104CD00030914A01332309F45CC03091C603231795
:104CE00051F0892B31F08091C50391E089278093A1
:104CF000C5032093C6038091C503882319F08E85D0
:104D000081608E870E945B0D882319F08E858061FB
:104D10008E878091BB05882319F08E8580628E87EF
:104D2000FE01319680E09191890FEB964EAC5FAC1D
:104D3000EB974E165F06B9F78F870E945B0D8823AD
:104D4000A9F04FE255E766E671E083E094E10E9446
:104D5000950E8FE0FE013196A1EFB3E001900D9228
:104D60008A95E1F78FE090E00E94260680E090E0CF
:104D7000892B11F40C94E91B0E94B702882311F4CB
:104D80000C94E91B0E9400000C94E91B90E080E069
:104D90009DCF2093C503AFCF1092C503ACCF8091B8
:104DA0004801813011F00C946617E8E3F1E081913D
:104DB0008651893E10F40C949A1901E0E834F0070A
:104DC000B1F781E00C949B1909E2E016F10411F4AB
:104DD0000C94151D81110C94151D8091D5038534FB
:104DE00011F00C94151D44E050E06CE876E085EE7F
:104DF00093E00E94E72B892BB1F044E050E065ED91
:104E000072E085EE93E00E94E72B892B61F044E08D
:104E100050E066E771E085EE93E00E94E72B892B76
:104E200011F00C94151D8091DE03813009F000C94A
:104E30009091E903983009F0FBC80E94020E10928D
:104E4000E9038091EB03883F28F09091EC039F5F8A
:104E50009093EC03885F8093EB03C7010E94C60523
:104E60000C94151DFB01DC0102C005900D92415010
:104E70005040D8F70895F999FECF92BD81BDF89AB8
:104E8000992780B50895262FF999FECF1FBA92BDB4
:104E900081BD20BD0FB6F894FA9AF99A0FBE01961B
:104EA00008955058BB27AA270E9469270C942329EC
:104EB0000E94152938F00E941C2920F039F49F3FE8
:104EC00019F426F40C9412290EF4E095E7FB0C94E7
:104ED000E328E92F0E94342958F3BA1762077307B1
:104EE0008407950720F079F4A6F50C946E290EF44A
:104EF000E0950B2EBA2FA02D0B01B90190010C01EA
:104F0000CA01A0011124FF27591B99F0593F50F401
:104F1000503E68F11A16F040A22F232F342F442759
:104F2000585FF3CF469537952795A795F040539551
:104F3000C9F77EF41F16BA0B620B730B840BBAF021
:104F40009150A1F0FF0FBB1F661F771F881FC2F78C
:104F50000EC0BA0F621F731F841F48F487957795A0
:104F60006795B795F7959E3F08F0B0CF9395880F5A
:104F700008F09927EE0F9795879508950E94BF280E
:104F800008F481E008950E94D7270C9423290E94F9
:104F90001C2958F00E94152940F029F45F3F29F0A0
:104FA0000C94E32851110C946F290C9412290E943F
:104FB000342968F39923B1F3552391F3951B550BCD
:104FC000BB27AA2762177307840738F09F5F5F4FDC
:104FD000220F331F441FAA1FA9F335D00E2E3AF01B
:104FE000E0E832D091505040E695001CCAF72BD033
:104FF000FE2F29D0660F771F881FBB1F2617370784
:105000004807AB07B0E809F0BB0B802DBF01FF27B5
:1050100093585F4F3AF09E3F510578F00C94E32887
:105020000C946F295F3FE4F3983ED4F3869577950F
:105030006795B795F7959F5FC9F7880F911D96956E
:10504000879597F90895E1E0660F771F881FBB1FCA
:10505000621773078407BA0720F0621B730B840B77
:10506000BA0BEE1F88F7E09508950E943C286894DB
:10507000B1110C946F2908950E943C2988F09F5724
:1050800098F0B92F9927B751B0F0E1F0660F771F6C
:10509000881F991F1AF0BA95C9F714C0B13091F062
:1050A0000E946E29B1E008950C946E29672F782F25
:1050B0008827B85F39F0B93FCCF386957795679527
:1050C000B395D9F73EF490958095709561957F4F93
:1050D0008F4F9F4F0895E89409C097FB3EF4909539
:1050E0008095709561957F4F8F4F9F4F9923A9F0C1
:1050F000F92F96E9BB279395F69587957795679550
:10510000B795F111F8CFFAF4BB0F11F460FF1BC093
:105110006F5F7F4F8F4F9F4F16C0882311F096E926
:1051200011C0772321F09EE8872F762F05C06623D4
:1051300071F096E8862F70E060E02AF09A95660F8D
:10514000771F881FDAF7880F9695879597F9089546
:105150000E94562990F09F3748F4911116F00C9454
:105160006F2960E070E080E89FEB089526F41B163D
:10517000611D711D811D0C94E9280C940429990F5F
:105180000008550FAA0BE0E8FEEF16161706E80711
:10519000F907C0F012161306E407F50798F0621B32
:1051A000730B840B950B39F40A2661F0232B242B07
:1051B000252B21F408950A2609F4A140A6958FEF26
:1051C000811D811D089597F99F6780E870E060E078
:1051D0000895882371F4772321F09850872B762F38
:1051E00007C0662311F499270DC09051862B70E0FB
:1051F00060E02AF09A95660F771F881FDAF7880F0C
:105200009695879597F908959F3F31F0915020F436
:10521000879577956795B795880F911D9695879592
:1052200097F908959FEF80EC089500240A941616CC
:10523000170618060906089500240A941216130684
:10524000140605060895092E0394000C11F4882312
:1052500052F0BB0F40F4BF2B11F460FF04C06F5F2E
:105260007F4F8F4F9F4F089557FD9058440F551F04
:1052700059F05F3F71F04795880F97FB991F61F0D8
:105280009F3F79F087950895121613061406551F4F
:10529000F2CF4695F1DF08C0161617061806991FBB
:1052A000F1CF869571056105089408950E943C2907
:1052B000A0F0BEE7B91788F4BB279F3860F4161634
:1052C000B11D672F782F8827985FF7CF8695779540
:1052D0006795B11D93959639C8F30895E894BB2757
:1052E00066277727CB0197F908950E94BF2808F415
:1052F0008FEF08950E948D290C9423290E9415296F
:1053000038F00E941C2920F0952311F00C94E3281A
:105310000C94122911240C946F290E94342970F3E3
:10532000959FC1F3950F50E0551F629FF001729F4A
:10533000BB27F00DB11D639FAA27F00DB11DAA1F59
:10534000649F6627B00DA11D661F829F2227B00DA6
:10535000A11D621F739FB00DA11D621F839FA00D31
:10536000611D221F749F3327A00D611D231F849F81
:10537000600D211D822F762F6A2F11249F575040D8
:105380009AF0F1F088234AF0EE0FFF1FBB1F661F53
:10539000771F881F91505040A9F79E3F510580F01C
:1053A0000C94E3280C946F295F3FE4F3983ED4F308
:1053B000869577956795B795F795E7959F5FC1F7C0
:1053C000FE2B880F911D9695879597F90895FA0100
:1053D000EE0FFF1F309621053105A1F16115710512
:1053E00061F48038BFE39B0749F1689490388105E8
:1053F00061F08038BFEF9B0741F099234AF5FF3FEA
:10540000E1053105210519F1E8940894E795D901E2
:10541000AA2329F4AB2FBE2FF85FD0F310C0FF5F93
:1054200070F4A695E0F7F73950F019F0FF3A38F428
:105430009F779F930DD00F9007FC9058089546F0EA
:105440000C94122960E070E080E89FE308954FE734
:105450009F775F934F933F932F930E94E22A2F9160
:105460003F914F915F910E947A290C943F2A29F431
:1054700016F00C94E3280C946E290C9412290E94C7
:105480003C29A8F39638A0F707F80F92E8942BE38D
:105490003AEA48EB5FE70E9490290F920F920F9231
:1054A0004DB75EB70F920E942A2BE8E6F0E00E940B
:1054B000712A4F915F91EF91FF91E595EE1FFF1FCC
:1054C00049F0FE57E0684427EE0F441FFA95E1F7D4
:1054D0004195550B0E94A42A0F9007FE0C94982A20
:1054E0000895DF93CF931F930F93FF92EF92DF9274
:1054F0007B018C01689406C0DA2EEF010E948D2991
:10550000FE01E894A5912591359145915591A6F319
:10551000EF010E946927FE019701A801DA9469F75B
:10552000DF90EF90FF900F911F91CF91DF91089541
:105530009B01AC0160E070E080E89FE30C94C3271E
:105540000C94E3280C9404290E943C29D8F3992355
:10555000C9F3940F511DA3F39150504094F059F0AA
:10556000882332F0660F771F881F91505040C1F793
:105570009E3F51052CF7880F911D9695879597F9B9
:1055800008955F3FACF0983E9CF0BB2786957795D9
:105590006795B79508F4B1609395C1F7BB0F58F7BD
:1055A00011F460FFE8CF6F5F7F4F8F4F9F4FE3CFC6
:1055B0000C946F2916F00C9404290C941229689409
:1055C0000C94E3280E943C29A8F39923C1F3AEF37D
:1055D000DF93CF931F930F93FF92C92FDD2788236B
:1055E0002AF02197660F771F881FDAF720E030E056
:1055F00040E85FEB9FE3883920F0803E38F0219649
:105600008F770E945227E0E9F0E004C00E94522701
:10561000EDEBF0E00E94712A8B01BE01EC01FB2E44
:105620006F5771097595771F880B990B0E946D282C
:1056300028E132E741E35FE30E948D29AF2D980115
:10564000AE01FF900F911F91CF91DF910E946927CA
:105650000C942329FA01DC01AA0FBB1F9B01AC01AA
:10566000BF5728F4222733274427507820C0B7514A
:1056700090F4AB2F0024469537952795011CA395F0
:10568000D2F3002071F0220F331F441FB395DAF3D9
:105690000ED00C94512761307105A0E88A07B946F5
:1056A00030F49B01AC0166277727882790783096E5
:1056B00021F02083318342835383089597FB072E83
:1056C00016F4009407D077FD09D00E94BE2B07FC8A
:1056D00005D03EF4909581959F4F08957095619502
:1056E0007F4F0895A1E21A2EAA1BBB1BFD010DC01E
:1056F000AA1FBB1FEE1FFF1FA217B307E407F50782
:1057000020F0A21BB30BE40BF50B661F771F881F5D
:10571000991F1A9469F760957095809590959B01F3
:10572000AC01BD01CF010895052E97FB1EF4009436
:105730000E94AB2B57FD07D00E94722B07FC03D0B1
:105740004EF40C94AB2B50954095309521953F4FDE
:105750004F4F5F4F089590958095709561957F4F5D
:105760008F4F9F4F08950E94D82BA59F900DB49FF7
:10577000900DA49F800D911D11240895AA1BBB1BA1
:1057800051E107C0AA1FBB1FA617B70710F0A61B41
:10579000B70B881F991F5A95A9F780959095BC0162
:1057A000CD010895EE0FFF1F0590F491E02D0994AF
:1057B000A29FB001B39FC001A39F700D811D112452
:1057C000911DB29F700D811D1124911D0895FB0143
:1057D000DC0104C08D910190801921F441505040AA
:0C57E000C8F7881B990B0895F894FFCFC0
:1057EC0041726475696E6F2D454E4332386A36309E
:1057FC002D30300000000000000000000000000010
:10580C00FFFFFF0008080808000000010A0B420C0B
:10581C000D000A0100020101000F010E020D030C24
:10582C00040B050A06090708040E00010F00C80046
:10583C000000320000006B046B040000200000FF2D
:10584C00FF0000FFFF00000000FF9426C0A80132FB
:10585C009426C0A80132FFFFFFFFFFFF00000000ED
:10586C00ED024B027A025503AB0289029D02000045
:10587C00000080075307FB0829074C0739072A0744
:0C588C000D0A0052436E616E6F002E008A
:00000001FF
