:100000000C94AE000C94FD140C94D6140C94D600F1
:100010000C94D6000C94D6000C94D6000C94D60008
:100020000C94D6000C94D6000C94D6000C94D600F8
:100030000C94D6000C94D6000C94D6000C94D600E8
:100040000C948C140C94D6000C945A140C94341404
:100050000C94D6000C94D6000C94D6000C94D600C8
:100060000C9424150C94D60007634236B79BD8A78E
:100070001A39685618AEBAAB558C1D3CB7CC5763CD
:10008000BD6DEDFD753EF6177231BF000000803F7B
:1000900008000000BE922449123EABAAAA2ABECD97
:1000A000CCCC4C3E00000080BEABAAAAAA3E000009
:1000B0000000BF000000803F000000000008417801
:1000C000D3BB4387D1133D190E3CC3BD4282AD2B38
:1000D0003E68EC8276BED98FE1A93E4C80EFFFBE30
:1000E00001C4FF7F3F0000000000638253630001F2
:1000F00008000604000100000000250028002B0075
:1001000000000000240027002A0000000000230057
:100110002600290004040404040404040202020268
:1001200002020303030303030102040810204080BA
:100130000102040810200102040810200000000839
:10014000000201000003040700000000000000009E
:1001500045000082000040002000431611241FBE0D
:10016000CFEFD8E0DEBFCDBF13E0A0E0B1E0E8E420
:10017000F1E602C005900D92A439B107D9F727E046
:10018000A4E9B3E001C01D92AB3AB207E1F710E079
:10019000CEEAD0E004C02197FE010E945B2FCD3A49
:1001A000D107C9F70E94A2160C94A2300C9400004B
:1001B000CF93DF932091D5062223C1F0FC0120814B
:1001C0002223A1F0C5EDD6E0A1EDB6E09C012C5FA5
:1001D0003F4F899141919D918427892339F4E217FA
:1001E000F307B9F781E0DF91CF91089580E0FBCF6D
:1001F000089508958230C8F4E82FF0E0EE0FFF1F55
:10020000E35CFE4F71836083813041F0809169002F
:100210008C7F826080936900E89A089580916900DC
:10022000837F886080936900E99A0895AF92BF92B6
:10023000CF92DF92EF92FF920F931F93CF93DF93B2
:100240006C017B018B01040F151FEB015E01AE18E1
:10025000BF08C017D10759F06991D601ED91FC9103
:100260000190F081E02DC6010995892B79F7C50130
:10027000DF91CF911F910F91FF90EF90DF90CF9082
:10028000BF90AF900895FC01538D448D252F30E031
:10029000842F90E0821B930B541710F0CF96089593
:1002A00001970895FC01918D828D981761F0A28DC0
:1002B000AE0FBF2FB11D5D968C91928D9F5F9F7386
:1002C000928F90E008958FEF9FEF0895FC01918D3C
:1002D000828D981731F0828DE80FF11D858D90E0A9
:1002E00008958FEF9FEF0895FC01918D228D892F46
:1002F00090E0805C9F4F821B91098F73992708952E
:1003000089ED96E00E94740121E0892B09F420E038
:10031000822F089580E090E0892B29F00E948001CF
:1003200081110C9400000895FC01A48DA80FB92F31
:10033000B11DA35ABF4F2C91848D90E001968F730D
:100340009927848FA689B7892C93A089B1898C912C
:10035000837080648C93938D848D981306C002887B
:10036000F389E02D80818F7D80830895EF92FF9245
:100370000F931F93CF93DF93EC0181E0888F9B8DC8
:100380008C8D98131AC0E889F989808185FF15C082
:100390009FB7F894EE89FF896083E889F9898081A5
:1003A0008370806480839FBF81E090E0DF91CF9174
:1003B0001F910F91FF90EF900895F62E0B8D10E096
:1003C0000F5F1F4F0F731127E02E8C8D8E110CC005
:1003D0000FB607FCFACFE889F989808185FFF5CF50
:1003E000CE010E949401F1CFEB8DEC0FFD2FF11D9A
:1003F000E35AFF4FF0829FB7F8940B8FEA89FB898D
:1004000080818062CFCFCF93DF93EC01888D8823EA
:10041000B9F0AA89BB89E889F9898C9185FD03C067
:10042000808186FD0DC00FB607FCF7CF8C9185FF4C
:10043000F2CF808185FFEDCFCE010E949401E9CFFC
:10044000DF91CF910895833081F028F4813099F0C5
:100450008230A9F008958730A9F08830C9F084303F
:10046000B1F4809180008F7D03C0809180008F77F0
:1004700080938000089584B58F7784BD089584B5F6
:100480008F7DFBCF8091B0008F778093B00008956F
:100490008091B0008F7DF9CF1F93CF93DF93282FEA
:1004A00030E0F901E45CFE4F8491F901E85DFE4F14
:1004B000D491F901EC5EFE4FC491CC23A9F0162F24
:1004C00081110E942302EC2FF0E0EE0FFF1FEA5093
:1004D000FF4FA591B4918FB7F894EC91111108C01A
:1004E000D095DE23DC938FBFDF91CF911F910895CC
:1004F000DE2BF8CFCF93DF9390E0FC01E85DFE4F59
:1005000024918C5E9E4FFC0184918823C9F090E079
:10051000880F991FFC01E050FF4FA591B491FC0199
:10052000EA50FF4FC591D49161110DC09FB7F89467
:100530008C91209582238C938881282328839FBFC8
:10054000DF91CF910895623051F49FB7F8943C91B8
:10055000822F809583238C93E8812E2BEFCF8FB74A
:10056000F894EC912E2B2C938FBFEACF1F93CF934F
:10057000DF93182FEB0161E00E947A02209739F493
:1005800060E0812FDF91CF911F910C944C02CF3FFF
:10059000D10511F461E0F5CFE12FF0E0E45CFE4F0E
:1005A000E491E33031F140F4E130B1F0E230E1F0D8
:1005B000C038D1057CF7E4CFE73029F1E83059F1B4
:1005C000E430B1F780918000806280938000D09306
:1005D0008B00C0938A0004C084B5806884BDC7BD09
:1005E000DF91CF911F91089584B5806284BDC8BD0D
:1005F000F7CF80918000806880938000D09389003D
:10060000C0938800EDCF8091B00080688093B000E7
:10061000C093B300E5CF8091B00080628093B000BA
:10062000C093B400DDCF8230910538F0880F991F58
:10063000880F991F05970197F1F708953FB7F89430
:100640008091120490911304A0911404B0911504A8
:1006500026B5A89B05C02F3F19F00196A11DB11D1D
:100660003FBFBA2FA92F982F8827BC01CD01620F59
:10067000711D811D911D42E0660F771F881F991F14
:100680004A95D1F708954F925F926F927F928F9221
:100690009F92AF92BF92CF92DF92EF92FF92CF9351
:1006A000DF9300D000D0CDB7DEB70E941E034B0110
:1006B0005C018091940390919503A0919603B09171
:1006C000970375016401C81AD90AEA0AFB0A81E88E
:1006D000C81684E8D8068EE1E806F10408F44DC097
:1006E00010929A0310929B0310929C0310929D0308
:1006F00090E080E0FC01EE0FFF1FEE0FFF1FEE58B1
:10070000FB4F108211821282138201968C30910568
:1007100089F7109298031092D3041092D204809219
:10072000940390929503A0929603B09297038091C0
:10073000140590911505A0911605B0911705019625
:10074000A11DB11D8093140590931505A093160566
:10075000B09317050F900F900F900F90DF91CF91EE
:10076000FF90EF90DF90CF90BF90AF909F908F90D1
:100770007F906F905F904F90089585EFC81681E04D
:10078000D806E104F10430F380919A0390919B0321
:10079000A0919C03B0919D03892B8A2B8B2B41F454
:1007A000C0929A03D0929B03E0929C03F0929D0327
:1007B000C701B6010E94852C69837A838B839C8351
:1007C00060919A0370919B0380919C0390919D038B
:1007D0000E94852C2B013C0120E030E040E250E4F7
:1007E0000E943C2D9B01AC0169817A818B819C81A7
:1007F0000E94372D1816F4F420E030E040E05FE36B
:10080000C301B2010E943C2D6B017C0120E030E06D
:1008100040E05FE369817A818B819C810E943C2D5D
:100820009B01AC01C701B6010E946C2B0E94562CA3
:100830006B017C01C0920C05D0920D05E0920E0573
:10084000F0920F0580919803282F30E0F901EE0F08
:10085000FF1FEE0FFF1FEE58FB4FC082D182E282D6
:10086000F382E091D204F091D3046091D2047091AC
:10087000D30441E050E03C9710F050E040E0460FD8
:10088000571F5093D3044093D204882309F1220FB9
:10089000331F220F331FF901E259FB4F4081518171
:1008A00062817381C40ED51EE61EF71EF694E7948E
:1008B000D794C794C0929A03D0929B03E0929C0372
:1008C000F0929D038F5F8C3060F48093980327CF64
:1008D00040919E0450919F046091A0047091A104E6
:1008E000E1CF109298031BCF4F925F926F927F924D
:1008F0008F929F92AF92BF92CF92DF92EF92FF9230
:10090000CF93DF9300D000D0CDB7DEB70E941E0397
:100910004B015C018091A2039091A303A091A403D9
:10092000B091A50375016401C81AD90AEA0AFB0A45
:1009300081E8C81684E8D8068EE1E806F10408F4D8
:100940004DC010929E0310929F031092A00310922C
:10095000A10390E080E0FC01EE0FFF1FEE0FFF1FF0
:10096000EE55FB4F108211821282138201968C3059
:10097000910589F7109299031092D5041092D4042E
:100980008092A2039092A303A092A403B092A50325
:100990008091180590911905A0911A05B0911B0539
:1009A0000196A11DB11D8093180590931905A09380
:1009B0001A05B0931B050F900F900F900F90DF91C9
:1009C000CF91FF90EF90DF90CF90BF90AF909F902E
:1009D0008F907F906F905F904F90089585EFC8162D
:1009E00081E0D806E104F10430F380919E039091F8
:1009F0009F03A091A003B091A103892B8A2B8B2B7D
:100A000041F4C0929E03D0929F03E092A003F09223
:100A1000A103C701B6010E94852C69837A838B8369
:100A20009C8360919E0370919F038091A00390919D
:100A3000A1030E94852C2B013C0120E030E040E224
:100A400050E40E943C2D9B01AC0169817A818B812D
:100A50009C810E94372D1816F4F420E030E040E02D
:100A60005FE3C301B2010E943C2D6B017C0120E0D9
:100A700030E040E05FE369817A818B819C810E9454
:100A80003C2D9B01AC01C701B6010E946C2B0E945A
:100A9000562C6B017C01C0921005D0921105E0929A
:100AA0001205F092130580919903282F30E0F90187
:100AB000EE0FFF1FEE0FFF1FEE55FB4FC082D182DE
:100AC000E282F382E091D404F091D5046091D404E1
:100AD0007091D50441E050E03C9710F050E040E0C8
:100AE000460F571F5093D5044093D404882309F12F
:100AF000220F331F220F331FF901E256FB4F4081B3
:100B0000518162817381C40ED51EE61EF71EF694D4
:100B1000E794D794C794C0929E03D0929F03E0922B
:100B2000A003F092A1038F5F8C3060F4809399034F
:100B300027CF4091CE045091CF046091D0047091A2
:100B4000D104E1CF109299031BCF8F929F92AF9265
:100B5000BF92CF92DF92EF92FF924B015C010E9415
:100B60001E036B017C010E941E036C197D098E0916
:100B70009F09683E734081059105A8F321E0821A20
:100B80009108A108B10888EEC80E83E0D81EE11CC8
:100B9000F11C81149104A104B10429F7FF90EF9096
:100BA000DF90CF90BF90AF909F908F9008952FB718
:100BB000F89460910E0470910F048091100490914C
:100BC00011042FBF089508958091890590918A0599
:100BD00098278927982744972091A70530E044E07B
:100BE000359527954A95E1F7220F331F220F331FC2
:100BF000821B930B97FF02C090E080E00895209144
:100C00009D0530919B0530939D0520939B05209178
:100C10009E0530919C0530939E0520939C05E9E745
:100C2000F5E021A5820F911D25A585A7662381F0FA
:100C300021A7892F9927319725E0E537F20789F712
:100C40001092AB051092AC0580E58093A70508953E
:100C500011A6EFCF0F931F93CF93DF9370E06758E8
:100C60007A4F8A01075F1F4F213029F0223031F47B
:100C70008A010250110930E020E003C000E010E0DA
:100C80009801EB01FA01E230F10558F0A991B99110
:100C9000BA27AB27BA270A0F1B1F211D311D329718
:100CA000F2CFFA01EE7F6E0F7F1F4E175F0769F0DC
:100CB000FB01408150E070E060E0762F652F542FFB
:100CC0004427040F151F261F371FA9016627772702
:100CD000411551056105710519F022273327F1CF20
:100CE00000951095E82FF0E0E758FA4F1083018344
:100CF000DF91CF911F910F910895E9E7F5E0108EF4
:100D0000118E80E4848B158A868B20E044E150E0CC
:100D10006EE088E10C942A068EBD0DB407FEFDCF6F
:100D2000089561E0809119040E944C02789408951E
:100D3000F89460E0809119040C944C020F931F9377
:100D4000CF93DF93EC018B010E9498062097B9F0B6
:100D50008AE30E948C061EBCF801CE01019739F08F
:100D60000DB407FEFDCF2EB51EBC2193F7CF219702
:100D7000C00FD11F0DB407FEFDCF8EB58883DF9164
:100D8000CF911F910F910C9491061F93CF93DF93F6
:100D9000182FC62FD42F0E9498068C2F8F71812B6D
:100DA0000E948C068D2F0E948C06DF91CF911F919F
:100DB0000C949106CF93C82FC07680910C048C17A9
:100DC00099F043E06FE180EA0E94C506C0930C04ED
:100DD0004C2F50E085E0559547958A95E1F76FE1F6
:100DE00080E8CF910C94C506CF910895CF93DF93FF
:100DF000C82FD62F0E94DA064D2F6C2F80E4DF918A
:100E0000CF910C94C506CF93DF93C82FD72F0E94A4
:100E1000F6066D2F81E08C0FDF91CF910C94F606D2
:100E2000CF93C82F0E94DA060E9498068C2F8F71EC
:100E30000E948C0680E00E948C06C7FF03C080E001
:100E40000E948C06CEB50E9491068C2FCF910895FA
:100E500061E184ED0E94F60661E082ED0E94F606F3
:100E60008AEE0E94100780FDFBCF60E082ED0E94B9
:100E7000F60689ED0E94100790E00895CF93DF9366
:100E8000EC0140E86FE180E80E94C50640E86FE1B0
:100E900080EA0E94C5064AE06CE180EA0E94C5062D
:100EA00060E07CE082E00E940307BE01745F86E0A0
:100EB0000E94030740E060E08AE70E94C5060E94A6
:100EC00098062097B1F08AE70E948C0680917905F8
:100ED0008EBDEAE7F5E0C758DA4FEC17FD0731F0B1
:100EE00081910DB407FEFDCF8EBDF7CF0DB407FE87
:100EF000FDCF0E94910648E06FE180E80E94C506A0
:100F0000D0E0C0E08CE10E9410078A7029F421969D
:100F1000C83E83E0D807B1F78CE10E94100781FD3D
:100F200003C0C83ED34039F448E06FE180EADF9166
:100F3000CF910C94C506DF91CF9108950F931F9325
:100F4000CF93DF93EC0109E715E04C96F801908B05
:100F5000818B0E947D06CE010896F80196A387A397
:100F6000AE01405F5F4F21E06AE188E20E942A06FD
:100F7000CE018A96DF91CF911F910F910C943E077D
:100F8000CF93DF93EB01682F84ED0E94F606BE013C
:100F900086ED0E9403078AEE0E94100780FDFBCFBA
:100FA000DF91CF910895CF92DF92EF92FF920F934E
:100FB0001F938634910568F120919C05233449F5EF
:100FC000C090A705D090A805E090A905F090AA05CB
:100FD0000091290510912A0520912B0530912C05AF
:100FE000C016D106E206F306A1F4E3E9F6E087585D
:100FF0009A4F9F012E5F3F4F41815081553319F425
:101000005281651771F0F901E40FF11DE817F90736
:1010100080F380E01F910F91FF90EF90DF90CF90D1
:10102000089581E0F7CFE0910A04F0910B049F014D
:101030002F5F3F4F30930B0420930A048083089561
:10104000FF920F931F93CF93DF93162FF42E052F4C
:101050000E941308812F0E941308CF2DD02F11500A
:1010600020F089910E941308FACFDF91CF911F9150
:101070000F91FF9008952091E703260F3327331F28
:1010800021323105ECF42091A706FC0190E080E0CC
:10109000243069F082E00895A091E7032191AC012A
:1010A00049535C4FA40FB52FB11D2C9301968617A1
:1010B00098F38091E703680F6093E70380E0089559
:1010C00081E008951092A70681E08093A606109211
:1010D000810661E082E10E944C0261E083E10E94AE
:1010E0004C02E9EBF0E080818E7F808380818D7FF0
:1010F000808388E48093B80085E48093BC000895E1
:101100001092800610927F061092AE061092D006C2
:101110000E94620888EF90E090937E0680937D069F
:1011200089EF90E090937C0680937B060895CF939F
:10113000DF9391E09093C6038823B9F0C091B80083
:10114000D091BA008091BC008A7B8093BC0060E0A3
:1011500082E10E944C0260E083E10E944C020E9406
:101160006208D093BA00C093B800DF91CF91089580
:101170008F929F92AF92BF92CF92DF92EF92FF92A7
:101180000F931F93CF93DF93D091D006D13208F005
:10119000D7C0182FC091CF060E941E036B017C019F
:1011A0008091A70681116BC082E08093A7061093FF
:1011B000A6068FEF8093A5061092A406D093A306EF
:1011C000AFEAB6E0E3E8F6E080E0D81391C0109211
:1011D000820680918206CC0FC82BC0938206809134
:1011E0008106813009F088C0109281060E941E039A
:1011F0006B017C01809182068093BB008091A906DF
:101200009091AA06A091AB06B091AC06892B8A2BCF
:101210008B2BA1F00E941E030091A9061091AA0633
:101220002091AB063091AC066C197D098E099F099F
:10123000061717072807390708F442C08091BC0039
:1012400083FDD8CF85EC8093BC000E941E036B0108
:101250007C018091A706823009F450C08091A506D8
:101260008F3F09F46FC08091A506803209F46CC0ED
:101270008091A506803309F469C084E026C080917E
:10128000A9069091AA06A091AB06B091AC06892B55
:101290008A2B8B2B09F484CF0E941E038090A90611
:1012A0009090AA06A090AB06B090AC066C197D0990
:1012B0008E099F0986169706A806B90608F070CF12
:1012C0008091A8060E94970885E01092AE061092C1
:1012D000D0061092AD06DF91CF911F910F91FF9034
:1012E000EF90DF90CF90BF90AF909F908F90089538
:1012F0009D9191938F5F69CF85EEA5CF8091A906CF
:101300009091AA06A091AB06B091AC06892B8A2BCE
:101310008B2B09F49ECF0E941E030091A906109109
:10132000AA062091AB063091AC066C197D098E0996
:101330009F09061717072807390708F08ACFC0CF7B
:1013400081E0C3CF80E0C1CF82E0BFCF83E0BDCFDB
:10135000CF93DF93EA01A0914101B091420191E066
:101360009093AD068093CF061092AE061092D006F1
:10137000ED91FC9111970190F081E02DCD0109953F
:101380008091410190914201DC01ED91FC9101902D
:10139000F081E02D68810995809141019091420191
:1013A000DC01ED91FC910190F081E02D69810995BE
:1013B00081E00E94B808982F80934C0181E0911140
:1013C00080E0DF91CF91089540914601509147010F
:1013D00021E030E0F90102C0EE0FFF1F8A95E2F72D
:1013E000CF01613069F4842B952B90934701809352
:1013F000460146E451E062E0809143010C94A80963
:101400008095909584239523F0CF0895E0918006F0
:1014100080917F06E81730F4F0E0EA55FC4F8081B8
:1014200090E008958FEF9FEF08959091800680914E
:101430007F062FEF3FEF981748F4E92FF0E0EA55C9
:10144000FC4F208130E09F5F90938006C901089592
:1014500080917F0690918006891B990B0895CF9209
:10146000DF92EF92FF920F931F93CF93DF937C0154
:10147000CB018A012091AD06222389F0EB016B019B
:10148000C40ED51ECC15DD0569F06991D701ED912B
:10149000FC910190F081E02DC7010995F3CF642FF5
:1014A0000E943B08C801DF91CF911F910F91FF90DF
:1014B000EF90DF90CF900895CF93DF931F92CDB739
:1014C000DEB769832091AD062223F9F02091D00682
:1014D000203258F021E030E0FC013383228390E099
:1014E00080E00F90DF91CF9108958091AE06E82FB4
:1014F000F0E0E155F94F998190838F5F8093AE06BC
:101500008093D00681E090E0ECCF61E0CE010196BF
:101510000E943B08F7CF90E080E00895FC018385AE
:101520008F3F19F061E00C944C020895FC0180811A
:101530009181892B39F0A281B3819C9111968C9174
:101540009CBD8DBD83858F3F19F060E00C944C02EB
:101550000895AF92BF92CF92DF92EF92FF920F93D6
:101560001F93CF93DF93EC0188819981892B89F0B8
:101570006EBD0DB407FEFDCFBEB48B2DDF91CF91B4
:101580001F910F91FF90EF90DF90CF90BF90AF90A1
:1015900008958885998511E0892B09F010E8AA241F
:1015A000A394862F812309F0A12C062F2C813D8145
:1015B0004E815F8160E271EA87E090E00E942E2F09
:1015C000F22EB02EE12CC22ED12CFF2019F0C60134
:1015D0000E9413038A85877F09F042C08D858F3F63
:1015E00089F0902F912381E009F480E08A1551F071
:1015F000EF85F8898F89992369F19081892B808300
:10160000AA24A394E989FA898081998D892B808302
:10161000FF2019F0C6010E9413038E858F3F39F019
:10162000EB89FC898081988D892309F0E12AE98979
:10163000FA899081898D8095892380838E858F3F5B
:1016400009F0BE2C88859985892BB9F5110F1111E8
:10165000BCCF93CF9081809589238083A12CD2CF5A
:10166000E989FA898081998D892B8083FF2019F07F
:10167000C6010E9413038D858F3F49F0EF85F889DD
:101680008F89902F9123A9F09081892B8083E989FC
:10169000FA899081898D8095892380838E858F3FFB
:1016A00069F2EB89FC898081988D892339F2E12ADE
:1016B000C5CF908180958923E9CF1695C8CF8F92A9
:1016C0009F92AF92BF92CF92DF92EF92FF920F93D1
:1016D0001F93CF93DF937C014B016A01B22EA32E9F
:1016E0000E94960AE401C80CD91CCC15DD0569F4EA
:1016F000CB2DDA2D0C0F1D1FC017D10759F06FEF3E
:10170000C7010E94A90A8993F7CF6991C7010E9476
:10171000A90AEBCFC7010E948E0A81E0DF91CF9129
:101720001F910F91FF90EF90DF90CF90BF90AF90FF
:101730009F908F9008958F929F92AF92BF92CF9279
:10174000DF92EF92FF920F931F93CF93DF937C0171
:10175000B62EA72E6A0149010E94960AE401080DDF
:10176000191DC017D10761F4CB2DDA2DCC0EDD1E6B
:10177000CC15DD0551F06991C7010E94A90AF8CF87
:101780006991C7010E94A90AECCFC7010E948E0A85
:1017900081E0DF91CF911F910F91FF90EF90DF904B
:1017A000CF90BF90AF909F908F9008951F93CF934D
:1017B000DF93EA01122FDC0111968D919C91DC01DF
:1017C000ED91FC910280F381E02D0995C817D907AE
:1017D00029F4812F0E94B80891E0811190E0892FAF
:1017E000DF91CF911F910895CF93DF93EC018B810F
:1017F0008823A1F0888191E09093AD068093CF0675
:101800001092AE061092D00681E00E94B80891E0D6
:10181000811190E0892FDF91CF9108950E94800877
:1018200081E08B83CE010E94F40B982F8111E2CFCF
:10183000F1CF4FEF460FFC0130E020E050E0DF0138
:10184000A81BB90BA417B50724F47191270F311DFC
:10185000F6CFFC01E60FF11D319781E090819213E4
:1018600080E0089580912104882339F00E942807A0
:10187000969587959695879581700895FC010190BE
:101880000020E9F73197AF01481B590BBC0189EDE6
:1018900096E00C9416018F929F92AF92BF920F9395
:1018A0001F93CF93DF93CDB7DEB7A1970FB6F89410
:1018B000DEBF0FBECDBF19A2423008F44AE08E0150
:1018C0000F5D1F4F842E912CB12CA12CA5019401EA
:1018D0000E942E2FE62FB901CA01EA30F4F4E05D30
:1018E000D801EE938D01232B242B252B79F790E043
:1018F00080E0109719F0CD010E943E0CA1960FB622
:10190000F894DEBF0FBECDBFDF91CF911F910F9135
:10191000BF90AF909F908F900895E95CE1CFCF93F7
:10192000DF930E943E0CEC0189EA91E00E943E0C9C
:101930008C0F9D1FDF91CF910895682F70E090E08C
:1019400080E04AE00C944B0C2F923F924F925F92B2
:101950006F927F928F929F92AF92BF92CF92DF92BF
:10196000EF92FF920F931F93CF93DF93CDB7DEB724
:101970002A970FB6F894DEBF0FBECDBF9C838B8332
:101980004F83588769877A87DC01ED90FC90F701D7
:101990000085C7010B969E838D83968187819983ED
:1019A0008A83608071806114710409F420C14185CB
:1019B00050E0D30114968D919C911597841795074B
:1019C00008F468C18C9191E09093AD068093CF06A6
:1019D0001092AE061092D00620E0BE016F5F7F4FDE
:1019E000C3010E94D60B882309F454C1402E512C08
:1019F000312C212C2414350408F01AC1F301848100
:101A000095818201021913098017910708F48C014E
:101A1000D301CC900E941E034B015C018091A7066C
:101A2000811175C0D02EB0E2B01710F470E2D72E3D
:101A3000E1E0E093A70621E0C201801B910B28168C
:101A4000390608F420E02093A606FFEFF093A506E0
:101A50001092A4068FEF8D0D8093A30681E08093F2
:101A6000820680918206CC0CC82AC09282068091A0
:101A70008106813009F092C0109281060E941E03F7
:101A80004B015C01809182068093BB008091A90686
:101A90009091AA06A091AB06B091AC06892B8A2B37
:101AA0008B2BA1F00E941E032091A9063091AA065B
:101AB0004091AB065091AC06681979098A099B09D7
:101AC000261737074807590708F442C08091BC0021
:101AD00083FDD8CF95EC9093BC000E941E034B0170
:101AE0005C018091A706813009F45CC08091A40656
:101AF0008D1510F4D090A406A3E8B6E0E6EAF3E072
:101B000080E08D1551F19D9191938F5FFACF809177
:101B1000A9069091AA06A091AB06B091AC06892BBC
:101B20008A2B8B2B09F47ACF0E941E032091A906E1
:101B30003091AA064091AB065091AC06681979091C
:101B40008A099B09261737074807590708F066CF07
:101B50008091A8060E949708D12C10928006D092FE
:101B60007F06D016110609F095C0AD80BE80A20C8C
:101B7000B31C6501C6018A199B0980179107A0F55E
:101B8000F30181819281DC01ED91FC910284F38566
:101B9000E02D0995F60181936F01ECCFA5EEA0939E
:101BA000BC009BCF8091A9069091AA06A091AB069C
:101BB000B091AC06892B8A2B8B2B09F492CF0E9413
:101BC0001E032091A9063091AA064091AB065091C0
:101BD000AC06681979098A099B092617370748074F
:101BE000590708F07ECFB4CF200E311E03CFD701A6
:101BF0000280F381E02D309709F44CC014962D91AA
:101C00003C91159710E019964C9150E02330310526
:101C100061F5816089839A834F5F5F4F2D813E819B
:101C2000BE016F5F7F4FCF010E945F0B882391F150
:101C3000F701408550E090E080E000E010E098017E
:101C40008417950754F5322F212F102F0027D70125
:101C50001A966C91611119C0FA01E81BF90BEE0D8F
:101C6000FF1D6285062B0196EBCF2115310519F476
:101C700090689983D3CF2230310511F49F77F9CF43
:101C80002130310559F6906CF4CFF701E80FF91FB8
:101C90006385E8CF0FEF1FEF9801EB81FC81A081F6
:101CA000B18118968C911897853008F078C0928190
:101CB00041E050E002C0440F551F9A95E2F74150B1
:101CC0005109052E000C660B770B93816A017B018D
:101CD000092E04C0CC0CDD1CEE1CFF1C0A94D2F7AC
:101CE000C094D094E094F0940C211D212E213F212A
:101CF0004F80588469847A84442255226622772250
:101D000004C0440C551C661C771C9A95D2F7402AD7
:101D1000512A622A732A1F964D925D926D927C928F
:101D2000529730E020E0E82EF12C2E153F05BCF450
:101D30001A968C911A9781110BC0FD01E20FF31FC7
:101D40004386452C562C672C77242F5F3F4FEDCFD1
:101D5000F701E21BF30BEA0FFB1F4286F2CF6D0186
:101D6000FBE0CF0ED11C16969C91169717968C917E
:101D7000179799838A83AD90BC901197A114B104F1
:101D800009F44DC019960C9110E098012E0D3F1DDD
:101D9000D50114968D919C918217930710F480E0E1
:101DA00016C0F50181819281208131E03093AD062A
:101DB0002093CF061092AE061092D00601151105A1
:101DC000F9F421E0A701B601C5010E94D60B2A96BD
:101DD0000FB6F894DEBF0FBECDBFDF91CF911F913C
:101DE0000F91FF90EF90DF90CF90BF90AF909F90BA
:101DF0008F907F906F905F904F903F902F900895BD
:101E0000DC01ED91FC910280F381E02DA801BE017F
:101E10006F5F7F4F09950817190709F6D2CF129601
:101E2000ED91FC911397309709F4B9CF14962D9149
:101E30003C91159719960C9110E02330310571F4FF
:101E40008E7F89839A830F5F1F4F9E012F5F3F4FC5
:101E5000A701B601CF010E949B0BB9CF2115310517
:101E600019F49F779983F1CF2230310511F49068EE
:101E7000F9CF2130310549F79F779064F3CFCF93A5
:101E8000DF93CDB7DEB767970FB6F894DEBF0FBE0E
:101E9000CDBFA62F9091860729E030E0993030F031
:101EA00021E0883008F420E0226130E0E0918407EE
:101EB000F0918507309749F04091870750E0542F03
:101EC0004427550F5064242B352B409182075091A5
:101ED0008307188A198A1A8A1B8AFC83EB835A8320
:101EE000498343E050E05E834D8391E09A873887D1
:101EF0002F831B8699879E012F5F3F4F3D8B2C8B35
:101F00009E8B87708F8B41E050E060E070E0A11104
:101F100003C040E050E0BA01CE0144960E94A40CF8
:101F200067960FB6F894DEBF0FBECDBFDF91CF919D
:101F30000895DC0196E0FB0101900D929A95E1F77E
:101F40000895CF93DF93EB0144E050E0BC0185E9B5
:101F500095E00E949530892B49F46FE875E0CE0139
:101F60000E94990F81E0DF91CF91089580E0FBCF2F
:101F7000BC0189E795E00E94990F6AE375E08FE75D
:101F800095E00C94990FDC0194E0FB0101900D9217
:101F90009A95E1F708950F931F93CF938C018FE7E4
:101FA00091E00E94B80FE9E7F5E088E08487C6E099
:101FB000C58748E050E06EEE70E087E895E00E944B
:101FC0004C2BE9E9F5E0DF011D92CA95E9F76AE3D8
:101FD00075E08FE895E00E94990FB8018FE995E0D0
:101FE0000E94C30F65ED76E085E995E00E94C30F7E
:101FF0008AE290E0CF911F910F910C943E078FE7FA
:1020000095E00E94B80F63E975E087E995E00E94CA
:10201000C30F65ED76E083E995E00E94C30F0C9451
:102020007D06262F20612093A805643021F00097BB
:1020300011F481E090E061E00E94FF0510928905B3
:1020400088E280938A050E94FF0F84E08093A905AF
:102050001092AA0522E04CE150E06AE182E30E947E
:102060002A0686E390E00C943E07CF93DF93EB01C2
:102070000E94B80FBE0187E995E00E94C30F65ED8D
:1020800076E083E995E0DF91CF910C94C30FEF9256
:10209000FF920F931F93CF93DF93182F092FEB011C
:1020A000F42EE52ECB010E94D800BE01882309F44E
:1020B00047C08DE695E00E9435108881807F803E84
:1020C00091F088819981AA81BB818F3F9F4FAF4F4B
:1020D000BF4F49F044E050E0BE0180E495E00E942B
:1020E0009530892B31F46FE771E089E795E00E9424
:1020F000990F88E0809385051092860549E050E0AD
:1021000060E571E087E895E00E944C2B109289050C
:1021100081E180939005E0929D05F0929E050093E9
:102120009B0510939C0510929F051092A10510929B
:10213000A205DF91CF911F910F91FF90EF9008952D
:1021400083E795E0B8CFEF92FF920F931F93CF9361
:102150008C01E9E7F5E086E191E0DF019C011D9249
:1021600021503040E1F7809139056FE771E083300D
:1021700011F464E275E043E450E084E490E00E94EE
:1021800047106FE771E089E795E00E94990F81E0C1
:102190008093A3058093A40586E08093A505809194
:1021A000290590912A05A0912B05B0912C058093CB
:1021B000A7059093A805A093A905B093AA05C0917F
:1021C0003905C33031F465ED76E08FEA95E00E9481
:1021D000C30F6AE375E08FEB95E00E94990F8FE8DB
:1021E00096E090930B0480930A04EAEEF0E0849169
:1021F0000E941308EBEEF0E084910E941308ECEECD
:10220000F0E084910E941308EDEEF0E084910E94CA
:10221000130885E30E94130881E00E94130883E0FD
:10222000C11101C081E00E9413088DE30E941308D0
:1022300087E00E94130881E00E9413088AE3E82ED9
:1022400085E0F82EC7E0C15031F0D7018D917D01B6
:102250000E941308F8CF80910001882371F060E09C
:1022600071E0FB0101900020E9F7BF01615071406E
:1022700040E051E08CE00E9420080115110559F062
:10228000A80164E082E30E94200844E255E064E093
:1022900086E30E94200887E30E94130883E00E94DF
:1022A000130881E00E94130883E00E94130886E06F
:1022B0000E9413088FEF0E94130880910A049091E6
:1022C0000B04835A9540CF911F910F91FF90EF908F
:1022D0000C949E0785ED8093BC008091A906909197
:1022E000AA06A091AB06B091AC060796A11DB11D40
:1022F00023E0B695A795979587952A95D1F72091D4
:10230000BC0024FD03C01092A70608954091A906C1
:102310005091AA066091AB067091AC06452B462BF6
:10232000472B69F30097A105B10541F025E32A95F4
:10233000F1F700000197A109B109E1CF8091A8064A
:102340000C949708FF920F931F93CF93DF93EC01A8
:10235000F62E08811981C8010E94552BF81621F02C
:102360006F2DC8010E945D2BCE01DF91CF911F918F
:102370000F91FF900895EF92FF920F931F93CF93C9
:10238000DF9300D0CDB7DEB78CEA91E00E948F0CCE
:102390001A82198262E8CE0101960E94A21181E0A0
:1023A00090E09A8389836DE6CE0101960E94A21186
:1023B00084E090E09A83898362E0CE0101960E94D6
:1023C000A2112CE8E22E27E0F22E0AE010E01A8398
:1023D0000983F70161917F01CE0101960E94A2114C
:1023E0000F5F1F4F0532110591F79BE1E92E96E033
:1023F000F92E04E610E01A830983F70161917F0149
:10240000CE0101960E94A2110F5F1F4F04391105E2
:1024100091F78BE4E82E86E0F82E04EB10E01A83A7
:102420000983F70161917F01CE0101960E94A211FB
:102430000F5F1F4F043E110591F70F900F90DF9132
:10244000CF911F910F91FF90EF9008950F931F93DD
:10245000CF93DF93E9010E94320C882349F1012BCD
:1024600039F18881803821F58981813809F58A819F
:102470008F37F1F48B81893CD9F48C818530C1F49C
:102480008D81893CA9F48E81893C91F48F81809360
:1024900090078885809391078985809392070E9491
:1024A000BB11F0E0E0E0DF91CF911F910F91099413
:1024B000DF91CF911F910F910895CF92DF92EF920C
:1024C000FF920F931F93CF93DF93EC018881998143
:1024D000863F2EE7920709F42FC190F4843FFEE770
:1024E0009F0709F458C0853F9E4709F400C1DF915A
:1024F000CF911F910F91FF90EF90DF90CF900895B3
:10250000873FEEE79E0709F47DC18C3B9F4779F733
:102510006F31710560F36FE1CE010E94190C8823C1
:1025200031F38A8180938C078B8180938D078C8116
:1025300080FF89C191E090938E0781FF87C191E070
:1025400090938F0783FF85C181E08093A6078D81DB
:10255000809394078F8180931B06888580931C0647
:10256000898580931D068A8580934B068B85809391
:102570004C068C8580934D06FE013D96A5E9B7E09B
:10258000CE014D9621912D93E817F907D9F78D8D3E
:102590008093A5074BC16E30710508F4A8CF6EE09B
:1025A000CE010E94190C882309F4A1CF0A81902F33
:1025B00092959F7080918C07981399CF0F7080919E
:1025C0008D07081708F093CFE02EF12C20E3029F2F
:1025D00080011124055E194F2C816D8170E090E01F
:1025E00080E0CB0177276627722B2B81622B0E941C
:1025F000852C2FE632E143E85AE30E943C2DF80196
:10260000658B768B878B908F2F81688570E090E04B
:1026100080E0CB0177276627722B2E81622B0E94E8
:10262000852C2FE632E143E85AE30E943C2DF80165
:10263000618F728F838F948F898580FF04C0118A88
:10264000128A138A148A90E39E9DF0019F9DF00DDB
:102650001124E55EF94F81FD47C0108A82FF0BC04F
:1026600090E39E9DF0019F9DF00D1124E55EF94FD2
:1026700090899E5F908B83FF0BC090E39E9DF0013D
:102680009F9DF00D1124E55EF94F90899C5F908B22
:1026900084FB992790F990931A0690E39E9D800100
:1026A0009F9D100D1124055E194F85FB992790F908
:1026B000F80197A786FB882780F9809338016A85FF
:1026C0007B85072E000C880B990B0E94872CF80144
:1026D000658F768F878F90A30E94D705F801648756
:1026E00075878687978703CF91E0908BB7CF6A3045
:1026F000710508F4FCCE6AE0CE010E94190C882313
:1027000009F4F5CE8A8182958F7090918C07891398
:10271000EECE8B81809371048C81809370048D81C7
:1027200080936D048E8180936C048F8180936F04FD
:10273000888580936E04DBCE6A30710508F4D7CEAD
:102740006AE0CE010E94190C882309F4D0CE0A81D8
:10275000902F92959F7080918C079813C8CE0F7020
:1027600080918D07081708F0C2CE688570E07195DA
:1027700061957109072E000C880B990B0E94872C1C
:102780009B01AC0160E070E080E291E40E94A92D21
:102790006B017C01F0E30F9F80011124055E194F4E
:1027A0006B8170E090E080E00E94872CA701960189
:1027B0000E943C2DF80161A372A383A394A36C81B2
:1027C00070E090E080E00E94872CA70196010E94B3
:1027D0003C2DF80165A376A387A390A76D8170E0D7
:1027E00090E080E00E94872CA70196010E943C2D7A
:1027F000F80161A772A783A794A78E8185A78F810F
:1028000086A775CE6630710508F471CE66E0CE01FC
:102810000E94190C882309F46ACE8A81809390075C
:102820008B81809391078C81809392070E94BB11CA
:10283000F0E0E0E0DF91CF911F910F91FF90EF90DA
:10284000DF90CF90099410928E0777CE10928F0769
:1028500079CE1092A6077BCE0F931F93C901B801C2
:102860001F910F910C945D121F920F920FB60F9251
:1028700011242F933F934F935F936F937F938F9385
:102880009F93AF93BF93EF93FF9389ED96E00E94E0
:102890009401FF91EF91BF91AF919F918F917F91A3
:1028A0006F915F914F913F912F910F900FBE0F90BD
:1028B0001F9018951F920F920FB60F9211242F930D
:1028C0008F939F93EF93FF93E091E906F091EA06CF
:1028D0008081E091EF06F091F00682FD1BC09081AF
:1028E0008091F2068F5F8F732091F306821741F07B
:1028F000E091F206F0E0E752F94F958F8093F206EF
:10290000FF91EF919F918F912F910F900FBE0F909C
:102910001F9018958081F4CF1F920F920FB60F92DF
:1029200011242F933F938F939F93AF93BF938091E5
:102930000E0490910F04A0911004B09111043091F5
:102940000D0423E0230F2D3758F50196A11DB11D6D
:1029500020930D0480930E0490930F04A093100411
:10296000B09311048091120490911304A091140467
:10297000B09115040196A11DB11D8093120490938E
:102980001304A0931404B0931504BF91AF919F91C9
:102990008F913F912F910F900FBE0F901F90189520
:1029A00026E8230F0296A11DB11DD2CF1F920F92D0
:1029B0000FB60F9211242F933F934F935F936F9312
:1029C0007F938F939F93AF93BF93EF93FF93E09188
:1029D0003F01F09140010995FF91EF91BF91AF91B7
:1029E0009F918F917F916F915F914F913F912F9127
:1029F0000F900FBE0F901F9018951F920F920FB659
:102A00000F9211242F933F934F935F936F937F9374
:102A10008F939F93AF93BF93EF93FF93E0913D010B
:102A2000F0913E010995FF91EF91BF91AF919F9178
:102A30008F917F916F915F914F913F912F910F9067
:102A40000FBE0F901F9018951F920F920FB60F9206
:102A500011242F933F934F935F936F937F938F93A3
:102A60009F93AF93BF93EF93FF938091B900887FBB
:102A7000803609F44AC0F0F5883209F4A7C018F589
:102A8000803109F49BC0B8F4882309F4F9C0883078
:102A900009F494C0FF91EF91BF91AF919F918F91F5
:102AA0007F916F915F914F913F912F910F900FBE4A
:102AB0000F901F901895883109F488C0803251F723
:102AC0008093A50614C0803409F49DC040F480337F
:102AD000B9F38833F9F68093A50685ECB0C080354C
:102AE00009F485C0883509F496C0883499F60E94A7
:102AF0006A11D0CF883909F48CC038F5883729F0AD
:102B000050F4883611F0803729F683E08093A706C9
:102B10001092090457C0883809F47BC0803919F035
:102B2000803809F0B7CF80910904803208F071C075
:102B3000E091090481E08E0F809309048091BB002D
:102B4000F0E0E751FC4F80833DC0803B39F0E0F47A
:102B5000803A09F479C0883A09F09CCF84E08093E8
:102B6000A7061092E8031092E703E0917D06F0912A
:102B70007E0609958091E70381110FC081E0809363
:102B8000E7031092C70309C0803C09F4A6CF883C34
:102B900009F4A3CF883B09F07DCFE091E80381E001
:102BA0008E0F8093E803F0E0E953FC4F808180931F
:102BB000BB009091E8038091E70329C080918206D1
:102BC0008093BB0085EC8093BC0064CF9091A406F9
:102BD0008091A306981758F5E091A40681E08E0F26
:102BE0008093A406F0E0ED57F94F8081E9CFE091A2
:102BF000A40681E08E0F8093A4068091BB00F0E0D4
:102C0000ED57F94F80839091A4068091A306981701
:102C1000C8F285E8D8CFE091A40681E08E0F8093BA
:102C2000A4068091BB00F0E0ED57F94F80838091BE
:102C3000A60681115CCF81E08093810684EA8093AF
:102C4000BC001092A70626CF85EC8093BC001092A2
:102C5000A70680910904803230F4E0910904F0E085
:102C6000E751FC4F10826091090470E0E0917B060F
:102C7000F0917C0689EE93E00995109209040ACF41
:102C80001092A50634CFE9EDF6E01382128288EEA9
:102C900093E0A0E0B0E084839583A683B78329E81E
:102CA00031E03183208325EC30E03587248724EC24
:102CB00030E03787268720EC30E0318B208B21EC09
:102CC00030E0338B228B22EC30E0358B248B26ECEA
:102CD00030E0378B268B118E128E138E148EE6E722
:102CE000F7E01382128284839583A683B7838BE9EE
:102CF00091E091838083ECE8F7E0108232E0318349
:102D00001282138220EC248398EA958381E08683E3
:102D100042E34783308730E1E7E5F1E0A5E9B7E03A
:102D200001900D923A95E1F7EDE4F1E02083918373
:102D30008283E2E8F7E0118210821382128280E13E
:102D400084830895CF93DF93CDB7DEB7CF54D109F5
:102D50000FB6F894DEBF0FBECDBF789484B5826005
:102D600084BD84B5816084BD85B5826085BD85B52F
:102D7000816085BD80916E00816080936E001092AD
:102D80008100809181008260809381008091810028
:102D900081608093810080918000816080938000B9
:102DA0008091B10084608093B1008091B000816017
:102DB0008093B00080917A00846080937A00809143
:102DC0007A00826080937A0080917A00816080939B
:102DD0007A0080917A00806880937A001092C10016
:102DE00010921E0610924E06E091E906F091EA0656
:102DF00082E08083E091E506F091E6061082E091A2
:102E0000E706F091E80683E380831092F106E091F3
:102E1000ED06F091EE0686E08083E091EB06F091FE
:102E2000EC06808180618083E091EB06F091EC06F6
:102E3000808188608083E091EB06F091EC068081D0
:102E400080688083E091EB06F091EC0680818F7DB5
:102E5000808368EB7BE080E090E00E94A5058BEA30
:102E600091E00E948F0C8BEA91E00E948F0C8BEA1C
:102E700091E00E948F0C86EC91E00E948F0C8BEA0F
:102E800091E00E948F0C90E080E00E94552B898396
:102E900081E090E00E94552B8A8384E090E00E94BC
:102EA000552B29813A8122383D4609F070C1823084
:102EB00009F06DC18CED91E00E948F0CBCE8EB2E07
:102EC000B7E0FB2E0AE010E0C8010E94552BD701A5
:102ED0008D937D010F5F1F4F05321105A9F70BE19F
:102EE00016E06801A4E6EA2EF12CC7010E94552BDA
:102EF000D6018D936D01BFEFEB1AFB0AE4E9EE16E4
:102F0000F10499F7EBE4CE2EE6E0DE2EF4EBEF2EA3
:102F1000F12CC7010E94552BD6018D936D01BFEF97
:102F2000EB1AFB0AE4EEEE16F10499F78091A5077F
:102F30008651893E08F425C120918D0730E090E04C
:102F400080E08217930714F00C94CA2AF80140819C
:102F5000463108F07DC14181463108F079C1005DFC
:102F60001F4F32964081463108F072C10196E9CF79
:102F700081E080931E058091A5078F3F19F062E0E4
:102F80000E947A0280918D07833018F082E080934E
:102F90008D078BEA91E00E948F0C8AE292E00E94FA
:102FA0003E0C80918C070E949D0C89EA91E00E9462
:102FB0003E0C86E392E00E943E0C4AE062E87DE629
:102FC00080E090E00E944B0C89EA91E00E943E0C68
:102FD0008BEA91E00E948F0C0E9480088CE0809325
:102FE000B80087E492E00E948F0C80918C078E5C81
:102FF000809393073091900738AB2091910729ABCC
:10300000909192079AAB8BAB40912A04411105C075
:103010008093310181E080932A0480912204811100
:1030200009C0309328012093290190932A0181E05F
:103030008093220430934D0120934E0190934F01D1
:103040001FB7F89480911604811127C0EEE1F1E0DA
:103050008491E2E3F1E09491E82FF0E0EE0FFF1F9E
:10306000E050FF4FA591B491EC91E92321F461E088
:103070008AE00E944C0261E08AE00E947A028CB5EC
:1030800080618CBD8CB580648CBD61E08DE00E9458
:103090007A0261E08BE00E947A02809116048F5FD1
:1030A000809316041FBF1092180410921704809189
:1030B000170481113CC064EF71E080E090E00E9451
:1030C000A5058BE593E00E943E0CF89460E08AE051
:1030D0000E944C028FEF0E948C068FEF0E948C069C
:1030E00061E08AE00E944C02789462E070E080E047
:1030F00090E00E94A505F89460E08AE00E944C02EE
:103100008DE10E948C0680E00E948C061EB561E075
:103110008AE00E944C0278941170109317048091F9
:1031200018048F5F80931804863008F4C0CF809114
:10313000170480932104882309F427C21092F10513
:1031400087E390E0C12CD12C7601C394009709F459
:1031500085C0FC0153E0F595E7955A95E1F7E65EE9
:10316000FB4F282F2770B701A60104C0440F551F3D
:10317000661F771F2A95D2F72081242B2083019781
:10318000E5CF10921E0585EF91E00E948F0C80E143
:1031900092E00E948F0C8FEF8093A50783E08093CD
:1031A0001B0686E080931C0689E080931D0682E062
:1031B00080934B0684E080934C0685E080934D0617
:1031C00040E050E060EA70E440933C0650933D06D6
:1031D00060933E0670933F0610924006109241069F
:1031E0001092420610924306109244061092450631
:1031F00010924606109247068093480692E39093F9
:10320000490640936C0650936D0660936E0670936A
:103210006F0610927006109271061092720610924C
:10322000730610927406109275061092760610922C
:1032300077068093780690937906E5E9F7E08FEFBB
:10324000819337E0E53AF307D9F70E94BB1193CE9B
:1032500080E080931E0581118ECE95CF6CE271E0E7
:103260008AE395E00E94990F84E690E09093200510
:1032700080931F050CB406FC25C061E08AE00E9423
:103280007A0261E08AE00E944C0261E08BE00E94D9
:103290007A0261E08DE00E947A0260E08CE00E9498
:1032A0007A0261E08BE00E944C0260E08BE00E94B9
:1032B0004C0260E08DE00E944C0280E58CBD8DB533
:1032C00081608DBD8AE08093190461E00E947A02DA
:1032D0000E9491064FEF60E08FEF0E94C50662E00A
:1032E00070E080E090E00E94A5050E9498068DE1C4
:1032F0000E948C0680E00E948C061EB50E949106FA
:10330000112399F370E060E088E00E94030770E009
:1033100060E08CE00E9403076FEF7BE08AE00E9490
:10332000030760E07CE084E00E9403076FEF71E137
:1033300086E00E94030766E774E084E10E94C0070C
:1033400061EB88E30E94F6066FE370E388E20E9477
:10335000030769EF77EF80E30E94030761E080ECE9
:103360000E94F60642E362EC80E80E94C50662E134
:103370007CE086EC0E94030762E184EC0E94F60682
:103380006CED75E08AEC0E94030760913A0584EECB
:103390000E94F60660913B0585EE0E94F60660915C
:1033A0003C0582EE0E94F60660913D0583EE0E9488
:1033B000F60660913E0580EE0E94F60660913F059C
:1033C00081EE0E94F60660E071E080E10E94C00795
:1033D0008FE10E94DA0640EC6BE180E80E94C506AE
:1033E00044E06FE180E80E94C50682E70E94100772
:1033F0008BEA91E00E948F0C8DE592E00E948F0C89
:103400001092F105BE01605D7F4F85ED96E00E9450
:10341000C30F1092EF051092EE0581E08093F00546
:1034200068E271E08AEE95E00E94C30F64E271E009
:1034300085EE95E00E94C30F60E271E081ED96E0B9
:103440000E94C30F05ED16E021ED36E040E455E0A3
:10345000F8019191D9018D919D018095892BDA0117
:103460008D93AD01B6E0E93DFB0799F780916C05BE
:10347000883098F425E0829FF0011124EC5BFA4F2C
:103480002CE234E13183208328ED30E7338322833B
:1034900091E094838F5F80936C0580916C058830F8
:1034A00098F435E0839FF0011124EC5BFA4F26E29B
:1034B00032E13183208328EB32E23383228391E0AF
:1034C00094838F5F80936C0564EF71E080E090E0FF
:1034D0000E94A5050E94320C882309F44FC08BEA94
:1034E00091E00E948F0C88E792E00E943E0CF12C44
:1034F000D8018D918D010E949D0CB3E0FB1629F03F
:103500006EE289ED96E00E94B601F394E4E0FE12CB
:10351000EFCF89EA91E00E943E0C89E892E00E9498
:103520008F0CF12CE12C40E3D42E80918D078E1569
:103530001F0409F00CF452C0DE9C8001DF9C100DCA
:103540001124055E194F62E0D8018C910E947A0225
:1035500061E0F80181810E947A0261E0D80112964F
:103560008C910E947A02E114F104D1F0B1E0EB16E3
:10357000F10431F1EFEFEE1AFE0AD7CF8FE992E0B6
:103580000E948F0C8DEB92E0CACF8BEA91E00E94F3
:103590008F0C82ED92E00E948F0C8BEA91E0F0CFCD
:1035A00080911B06823041F0833041F481E063E476
:1035B00073E00E94FA00DECF80E0F9CF8FEFF7CF03
:1035C00080914B06823031F0833031F481E064E742
:1035D00074E0EFCF80E0FBCF8FEFF9CF80919407BD
:1035E000843008F0E2C1823008F0C4C205E917E077
:1035F00035EAE32E37E0F32E813009F4AFC28BEACF
:1036000091E00E948F0C81E893E00E948F0C8BEA7E
:1036100091E00E948F0CE1E0F0E0EC0FFD1F3D9681
:103620006096FFAFEEAF609780913801882309F470
:1036300013C36BE1262E66E0362E22E534E03FAB65
:103640002EAB4AE354E05DAB4CAB1DAE1CAE80919B
:103650008D072CAD3DAD8217130609F00CF44DC556
:10366000D10113969C91139750968C91509782504C
:10367000833008F084C3992309F477C320E030E055
:10368000A90155966D917D918D919C9158970E94BD
:10369000372D18160CF069C3EEA9FFA9C080D180A0
:1036A000E280F3800E94D7050CAD1DAD000F111F05
:1036B000000F111F9801265B3B4F5901D9014D9016
:1036C0005D906D907C9064197509860997090E9438
:1036D000852C20E030E048E452E40E94372D87FD3D
:1036E00037C10E94D705F50160837183828393837C
:1036F000D10155968D909D90AD90BC9058971496A1
:103700002D913D914D915C91179722962CAF3DAF35
:103710004EAF5FAF2297C501B4010E946B2B2B0106
:103720003C014092460450924704609248047092D3
:10373000490420E030E0A9010E94372DA301920145
:10374000181614F40C94DF2A5058C501B4010E94D5
:10375000D82B87FDF1C22091460430914704409157
:1037600048045091490428AF39AF4AAF5BAF20E01D
:1037700030E0A90168AD79AD8AAD9BAD0E94372DCF
:1037800048AC59AC6AAC7BAC181624F077FA70944C
:1037900077F870942DEC3CEC4CE45EE3C501B40189
:1037A0000E943C2DA30192010E94D82B87FFD0C21A
:1037B00080E090E0A0E8BFE380934204909343044C
:1037C000A0934404B09345042AE037ED43E25DE35F
:1037D000C501B4010E943C2D9B01AC01C301B201A3
:1037E0000E94372D18160CF0A6C0D10195968D9029
:1037F0009D90AD90BC909897A501940168AD79AD6E
:103800008AAD9BAD0E943C2DECA9FDA920813181A0
:10381000428153810E946C2B2B013C0120E030E05F
:10382000A901C501B4010E94372D20E030E040E835
:103830005FE318161CF020E030E0A901C301B201DB
:103840000E943C2D4B015C01ACA9BDA98D929D92BB
:10385000AD92BC92139722962CAD3DAD4EAD5FADAF
:103860002297F801EE5CFB4F608171818281938128
:103870000E946B2BF10121A532A543A554A50E94FE
:103880003C2D2B013C012091420430914304409196
:10389000440450914504D10191966D917D918D9193
:1038A0009C9194970E943C2D28AD39AD4AAD5BADFB
:1038B0000E943C2DA50194010E946C2B9B01AC0140
:1038C000C301B2010E946C2B9B01AC01C701B60180
:1038D0000E946C2B6B017C01F101B6A46B2D70E092
:1038E00090E080E00E94872C9B01AC01C701B601EB
:1038F0000E94372D181644F46B2D70E090E080E0A4
:103900000E94852C6B017C01D1019D96BC906B2D92
:1039100070E090E080E00E94872CA70196010E9451
:10392000372D181644F46B2D70E090E080E00E9473
:10393000852C6B017C01F801EE5CFB4F22962CADCF
:103940003DAD4EAD5FAD22972083318342835383DB
:10395000AEA9BFA9CD92DD92ED92FC921397C7015B
:10396000B6010E944F2C072E000C880B990B0E9469
:10397000872CD10118966D937D938D939C931B9703
:10398000ECADFDAD3196FDAFECAFF0E32F0E311C89
:103990002EA93FA92C5F3F4F3FAB2EAB4CA95DA991
:1039A0004C5F5F4F5DAB4CAB52CE843009F027CEFD
:1039B0008BEA91E00E948F0C87E493E00E948F0CC9
:1039C00016E001E090E2F92E80915A0481111CC0AA
:1039D0008BE593E00E943E0C0093AD06F092CF067B
:1039E0001092AE061092D00681E00E94B80891E0D5
:1039F000811190E090935A0464EF71E080E090E0D0
:103A00000E94A505115001F78BEA91E00E948F0CEE
:103A100080915A04882309F41CC18DE593E00E942B
:103A20008F0C86E090E00E94702F8C0180E2F801FC
:103A3000808386E797E092838183138280E290E01F
:103A40009583848310938307009382070E948008E4
:103A500081E0D80113968C93C8010E94F40B05E90C
:103A600017E0B5EACB2EB7E0DB2E7724739483E022
:103A7000E82EF12C4E01B5E18B0E911CFE01319622
:103A80005F01D801ED918D0181E0E83008F480E01C
:103A900090918607282F993008F420E030E040917B
:103AA0008407509185074115510549F060918707BA
:103AB00070E0762F6627770F7064262B372B609186
:103AC0008207709183071CA21DA21EA21FA2588FFD
:103AD0004F8B7E8B6D8BFA8EE98E7E8E3C8F2B8F7B
:103AE0001F8E7D8E993008F4B1C090E08C60411536
:103AF000510549F02091870730E0322F2227330FFC
:103B00003064822B932B188A198A1A8A1B8A5C8349
:103B10004B837A836983FE82ED827A8698878F83CE
:103B20001B867986E7709DA68CA67EA6EFA7B9A610
:103B3000A8A67AA6EBA740E050E0BA01CE018C9689
:103B40000E94A40C40E050E0BA01CE0188960E9489
:103B5000A40CC016D10609F094CF51CDD8018D9197
:103B60008D018F3F19F061E00E947A02E016F106A4
:103B7000A9F745CD8BEA91E00E948F0C81EF92E08E
:103B80000E948F0C16E001E020E2F22E80916B047F
:103B900081111CC08BE593E00E943E0C0093AD06A2
:103BA000F092CF061092AE061092D00681E00E94ED
:103BB000B80891E0811190E090936B0464EF71E09C
:103BC00080E090E00E94A505115001F78BEA91E09A
:103BD0000E948F0C80916B04882399F183E193E01C
:103BE0000E948F0C86E797E09093420180934101F9
:103BF00080E280934301109249011092480148E409
:103C000051E064E00E94A80910924B0110924A0111
:103C10004AE451E066E0809143010E94A8098FEFD9
:103C20009FEF909347018093460146E451E062E0A4
:103C3000809143010E94A8098BEA91E00E948F0CB9
:103C4000DECC8BE293E00E948F0CF6CF86E090E012
:103C50004ECF8DE693E0F2CF80918D070BE116E019
:103C6000A2E5B4E0BDABACAB312C212CE82FF0E0E9
:103C7000FFABEEAB2EA93FA9221633060CF03DC2D6
:103C8000D8015D96CD90DD90ED90FC909097F80175
:103C9000C086D186E286F38620E030E0A901C70124
:103CA000B6010E94D82B412C512C50E8652E5FE3C1
:103CB000752E87FF06C0412C512C40E8642E4FEB37
:103CC000742E20E030E0A901C701B6010E94372D13
:103CD000181624F0F7FAF094F7F8F094D8019E96AD
:103CE0006C9170E090E080E00E94872C4B015C01B9
:103CF000A70196010E94D82B87FF0BC0A301920158
:103D0000C501B4010E943C2DF8016087718782874C
:103D10009387F80180859185A285B385ECA9FDA9DB
:103D200081939193A193B193FDABECABFFEF2F1A6D
:103D30003F0A005D1F4F9ECFD501C401B05880934C
:103D4000460490934704A0934804B093490403CDDC
:103D500020E030E040E45FE32093420430934304EA
:103D600040934404509345042FCDECA9FDA9108243
:103D7000118212821382C12CD12C7601F0CD9923AD
:103D800009F4B0C120E030E0A901F101658976892C
:103D90008789908D0E94372D18160CF0A3C1AEA90B
:103DA000BFA94D905D906D907C900E94D7050CADA1
:103DB0001DAD000F111F000F111FF801E65BFB4F37
:103DC0005F01C080D180E280F3806C197D098E098B
:103DD0009F090E94852C20E030E048E452E40E94D4
:103DE000372D87FD59C10E94D705D5016D937D936D
:103DF0008D939C931397F101C588D688E788F08C42
:103E0000248135814681578128AF39AF4AAF5BAFF6
:103E1000C701B6010E946B2B4B015C0180924604E6
:103E200090924704A0924804B092490420E030E008
:103E3000A9010E94372DA5019401181614F40C94C1
:103E4000F12A5058C701B6010E94D82B87FD2DC119
:103E50004090460450904704609048047090490494
:103E600020E030E0A901C301B2010E94372D5301C7
:103E70004201181624F0B7FAB094B7F8B0942DECBC
:103E80003CEC4CE45EE3C701B6010E943C2DA50169
:103E900094010E94D82B87FF14C120E030E040E855
:103EA0005FE32093420430934304409344045093CF
:103EB00045042AE037ED43E25DE3C701B6010E9405
:103EC0003C2D9B01AC01C501B4010E94372D181691
:103ED0000CF004C1D1019596CD90DD90ED90FC9051
:103EE0009897A7019601C301B2010E943C2DECA94D
:103EF000FDA920813181428153810E946C2B4B01AD
:103F00005C0120E030E0A901C701B6010E94372D15
:103F100020E030E040E85FE318161CF020E030E0DD
:103F2000A901C501B4010E943C2D4B015C01ACA963
:103F3000BDA98D929D92AD92BC921397F101F5A50A
:103F4000FEAF6F2F70E090E080E00E94872C2696F5
:103F50006CAF7DAF8EAF9FAF26972091420430911A
:103F6000430440914404509145042A962CAF3DAF40
:103F70004EAF5FAF2A9728AD39AD4AAD5BADF801C2
:103F8000EE5CFB4F60817181828193810E946B2B7B
:103F9000D10199962D913D914D915C919C970E94F4
:103FA0003C2D6B017C01F10121A132A143A154A15F
:103FB0002A966CAD7DAD8EAD9FAD2A970E943C2DAB
:103FC000A30192010E943C2D26962CAD3DAD4EAD35
:103FD0005FAD26970E946C2BA50194010E946C2B6B
:103FE0009B01AC01C701B6010E946C2B4B015C0127
:103FF00020E030E0A9010E94372D750164011816F8
:1040000024F0F7FAF094F7F8F094D1019E966C91B1
:1040100070E090E080E00E94872C2A962CAD3DADA8
:104020004EAD5FAD2A970E943C2D2B013C01A701AC
:1040300096010E94D82B87FD02C026013701A301FB
:10404000920126966CAD7DAD8EAD9FAD26970E94F8
:10405000372D18164CF4DEAC6D2D70E090E080E04A
:104060000E94852C2B013C0120E030E0A901C50114
:10407000B4010E94372D181624F077FA709477F85F
:104080007094F801EE5CFB4F28AD39AD4AAD5BADE5
:104090002083318342835383EEA9FFA9408251825A
:1040A00062827382C301B2015CCCD701C601B058F1
:1040B0008093460490934704A0934804B093490426
:1040C000C7CE80E090E0A0E4BFE3809342049093E9
:1040D0004304A0934404B0934504EBCE412C512CEF
:1040E0003201CFCFACA9BDA91D921D921D921C9289
:1040F0001397412C512C3201CFCF0E94D70500914C
:10410000390110913A0120913B0130913C01601B33
:10411000710B820B930B623371058105910508F4D5
:10412000EDC30E94D7056093390170933A018093E3
:104130003B0190933C019BE1692E96E0792E83012F
:10414000F12CE12C80918D078E151F0409F00CF4E1
:1041500044C00E94D705D8011C968D909D90AD90CB
:10416000BC901F97681979098A099B09603A7F40BA
:104170008105910580F5F80185889688A788B08C1F
:1041800020E030E0A901C501B4010E94372D1816C6
:1041900024F480911A06811114C0D80150968C9194
:1041A000843049F420E030E0A901C501B4010E9447
:1041B000372D181674F08091380181110CC0809150
:1041C0001A06F8018383FFEFEF1AFF0A005D1F4F05
:1041D000B9CF81E0F6CF80E0F4CF80911E06811147
:1041E00008C080914E0600916F04E0906E04882311
:1041F00021F000917104E090700480916D04082B0F
:1042000080916C04E82A80919407823009F41FC1E0
:1042100008F0A2C0813009F4D1C0E8EEF4E0F9AFB3
:10422000E8AF5EED852E54E0952E26ED34E03DAFEF
:104230002CAF40EF54E05FAB4EAB60E0A62E65E0E4
:10424000B62E88EF94E09FAF8EAFA6EEB4E0BDAB84
:10425000ACAB0BE116E0ACA9BDA9A65EB440809161
:104260008D078A171B0609F00CF4ACC2CD01880F2C
:10427000991F880F991F9C012C5E3A4FF9014081CC
:10428000518162817381452B462B472B09F4A8C1CC
:10429000F894C080D180E280F380F801418952898E
:1042A000638974894C0D5D1D6E1D7F1D418B528B82
:1042B000638B748BF9011082118212821382845FE6
:1042C0009A4FFC01408151816281738140930805BE
:1042D0005093090560930A0570930B057894F801D3
:1042E00087A5882309F461C1F894FD01EE0FFF1F33
:1042F000EE52FB4F8081918120E030E0A901181639
:1043000019060CF049C1F12CE12C60E070E0CB0102
:10431000AF012CE0D22EDA9E9001DB9E300D1124ED
:10432000DA01CD90DC90EC14FD040CF02DC1D90124
:10433000AE0DBF1DAA0FBB1FAA0FBB1FAE58BB4FB0
:104340002D903D904D905C90620D731D841D951DC8
:10435000BFEFEB1AFB0AE4CF833009F4ACC0843022
:1043600009F05BCF80915A04882309F456CFE5E920
:10437000AE2EE7E0BE2ED12CC12C10E0D5018D91E0
:104380005D01803108F4DCC0BFEFCB1ADB0AE8E046
:10439000CE16D10499F77DE9C72E77E0D72E10E02D
:1043A00000E0F12CD6018D916D01803108F4DAC066
:1043B0000F5F1F4F08301105A9F72FCF85E9A82EF1
:1043C00087E0B82ED12CC12C10E0D5018D915D0174
:1043D0008F3FC9F4BFEFCB1ADB0AE8E0CE16D10459
:1043E000A1F70DE9C02E07E0D02E10E000E0F12C7F
:1043F000D6018D916D018F3FC1F40F5F1F4F0830C3
:104400001105B1F70ACF90918E0798010C2C02C0CC
:10441000359527950A94E2F7692F20FD03C061E0E6
:10442000911160E00E944C02D5CF90918E079701C8
:10443000002E02C0359527950A94E2F7692F20FDDA
:1044400003C061E0911160E00E944C02D6CF8091E0
:104450006B04882309F4E1CEBBE5AB2EB4E0BB2EA0
:1044600017E7C12E11E0D12EF12CE12C10E09801BC
:104470000E2C02C0359527950A94E2F7B22FB17041
:104480009B2EF50181915F01B81751F0D6018C91F7
:1044900060E020FF61E00E94E409F501319790821D
:1044A000BFEFEB1AFB0AEFEFCE1ADE0AF8E0EF16C9
:1044B000F104E9F6B2CE80916B04882309F4ADCE05
:1044C000FBE58F2EF4E09F2EA7E6AA2EA1E0BA2EE0
:1044D000D12CC12CF12C10E028E0C216D1042CF50F
:1044E000C8010C2C02C0959587950A94E2F7382FE5
:1044F0003170532ED4018D914D01851559F0F50180
:10450000808160E0511001C061E00E94E409F40183
:1045100031975082FFEFCF1ADF0A2FEFA21AB20AAB
:1045200030E1C316D104C1F678CEC6010897A701C1
:1045300002C0559547958A95E2F74170542EDACF1F
:1045400090918E0798010C2C02C0359527950A94FE
:10455000E2F7692F20FD03C061E0911160E00E9445
:104560003F0F12CF90918E079701002E02C0359514
:1045700027950A94E2F7692F20FD03C061E09111AD
:1045800060E00E943F0F14CF20813181032E000C88
:10459000440B550B0E942E2F7894209308053093DE
:1045A000090540930A0550930B0560910805709129
:1045B000090580910A0590910B056115710581052A
:1045C000910509F0E6C0F501108211821282138272
:1045D0000E94D705EEADFFAD608371838283938324
:1045E0000E94D705AEADBFADCD90DD90ED90FD90B2
:1045F000BFAFAEAF6C197D098E099F09613A7F404C
:1046000081059105A8F0F5011082118212821382B2
:10461000AEA9BFA91D921D921D921C921397E8ADE1
:10462000F9AD1082118212821382ACA9BDA91C922D
:10463000F501C080D180E280F380AEA9BFA92D91A1
:104640003D914D915C91C701B6010E946C2B1B01FD
:104650002C01EEA9FFA92082318242825382D4012B
:104660002D913D914D915C91C701B6010E94372D6E
:1046700018162CF4F401C082D182E282F382ACAD30
:10468000BDAD2D913D914D915C91C701B6010E9448
:10469000D82B87FF06C0ECADFDADC082D182E2828F
:1046A000F382ACA9BDA98C918F5F8D93BDABACABF0
:1046B0008530C0F1F4012081318142815381C201F2
:1046C000B1010E946B2BACADBDAD2D913D914D91D3
:1046D0005C910E946B2B20E030E046E953E40E949D
:1046E000DD2BE8ADF9AD6083718382839383AEA93E
:1046F000BFA91D921D921D921C921397F401108266
:1047000011821282138220E836E948E95AE4ACADFE
:10471000BDAD2D933D934D935C931397ECA9FDA9EB
:1047200031971082F801C18CD28CE38CF48C20E09C
:1047300030E0A901C701B6010E94372D1816D4F543
:10474000A7019601A8ADB9AD6D917D918D919C9118
:104750000E94DD2BF8016483758386839783E8AD1F
:10476000F9AD3496F9AFE8AF005D1F4FF4E08F0E5E
:10477000911C2CAD3DAD2C5F3F4F3DAF2CAF4EA9F2
:104780005FA94C5F5F4F5FAB4EAB54E0A50EB11C11
:1047900062CD0E94852C9B01AC016EE570ED82EB31
:1047A0009FE40E94DD2BD5016D937D938D939C93A7
:1047B00013970ECFD80114961D921D921D921C9234
:1047C0001797CDCF10E000E080918D07801711067C
:1047D00009F00CF493C0D30150968C91823009F407
:1047E00071C050F48823B9F1813059F00F5F1F4F29
:1047F000F0E36F0E711CE8CF843009F463C085309C
:10480000A9F7E0908F07D3011196FC9011971396AA
:104810008C911397882309F44CC020E030E0A90163
:1048200018966D917D918D919C911B970E94372DCB
:1048300087FD54C06E2D8F2D0E944C02F3016085C0
:104840007185828593850E944F2CD30112968C919D
:104850000E94B602CBCFE0908F07F301F18020E0F9
:1048600030E0A90160857185828593850E94372D8E
:1048700087FD10C06E2D8F2D0E944C02D30118961B
:104880006D917D918D919C911B970E944F2CF3010E
:104890008281DECF61E0E11060E08F2D0E944C024A
:1048A000D30118966D917D918D919C911B97905895
:1048B000ECCF61E0E11060E08F2D0E944C026FEFC1
:1048C00070E0E5CFD30113968C911397882399F06C
:1048D000E0908F071196FC9011979FCF61E0E11057
:1048E00060E08F2D0E944C02F30160857185828506
:1048F00093859058A8CF70E060E0C9CF0E94D7059B
:104900000091340110913501209136013091370129
:10491000601B710B820B930B693C7105810591053E
:1049200008F47AC12091A5072F3F09F412C130E0A5
:10493000F901E45CFE4F8491F901E85DFE4F1491AA
:10494000F901EC5EFE4F0491002309F4FCC08111D3
:104950000E942302E02FF0E0EE0FFF1FE65FFE4F04
:10496000A591B491EC911E2331E020E009F430E0F0
:10497000832F922F282F21703091A607332309F41B
:10498000E5C030911C05231751F0892B31F080913F
:104990001D0591E0892780931D0520931C050E9429
:1049A000D70560933401709335018093360190935D
:1049B00037010BE116E0F12CE12CF0E99F2EAEE778
:1049C0008A2E5E012DE0A20EB11C80918C07909181
:1049D0008D079E151F0409F00CF4DEC099828A82AF
:1049E00030E1839FC00111248E298B8320E030E0C9
:1049F0004AE754E4D80114966D917D918D919C9174
:104A000017970E943C2D0E94562C6C837D838E83C9
:104A1000F801418C528C638C748C20E030E0A90149
:104A2000C301B2010E94372D18160CF095C0D801B1
:104A300051966D917D918D919C9154970E94852CFA
:104A400020E030E040E251E40E943C2DA3019201BD
:104A50000E94DD2B0E94562C6F8378878987F8018E
:104A60004084518462847384C301B2010E94562C35
:104A70006A87C301B2010E944F2C7B871C860E946B
:104A8000D705409027065090280660902906709020
:104A90002A066419750986099709603A7F408105DD
:104AA000910518F48C8581608C870E94D705409011
:104AB0005706509058066090590670905A0664192F
:104AC000750986099709603A7F408105910518F4B8
:104AD0008C8582608C870E94320C882319F08C852B
:104AE00080648C8780911E05882319F08C858068EE
:104AF0008C87FE01319690E080E02191820F911D1C
:104B0000AE16BF06D1F78D870E94320C882341F183
:104B10004FE255E76DE471E083E094E10E944710B5
:104B20008DE0FE013196A3EAB5E001900D928A95E1
:104B3000E1F78DE090E00E949E07FFEFEF1AFF0A79
:104B4000005D1F4F42CF90E080E014CF20931D0501
:104B500026CF10921D0523CF1F82188619867FCF7E
:104B600089810E949D0C6E0132E0C30ED11C81E947
:104B700093E00E943E0CD6018D916D010E949D0C28
:104B80006096EEADFFAD6097EC15FD0581F78BEA01
:104B900091E00E948F0CD1CF91E999839EE79A838F
:104BA0008B831C821D821E821F82188619861A869C
:104BB0001B8682E88C878DE68D871E8680911D0579
:104BC000882311F081E08E879E01215F3F4FFE0117
:104BD000319690E080E04191840F911D2E173F07A0
:104BE000D1F78F870E94320C882309F451C14FE21C
:104BF00055E76DE471E083E094E10E9447108FE097
:104C0000FE013196A3EAB5E001900D928A95E1F795
:104C10008FE090E00E949E070E94320C882309F4E6
:104C20002CC480912305882379F06091210570912F
:104C300022056115710509F04AC16FEF7BE08CE038
:104C40000E9403071092230589E30E941007F12CAC
:104C5000E12C8823D9F1609121057091220580E033
:104C60000E940307BE016F5F7F4F86E090E00E94C5
:104C70009E0689819A8190932205809321058D81DA
:104C80009E817C01B0E8EB22FF2487FF13C08B815B
:104C90009C810497E0901F05F0902005E1E0EE1A5A
:104CA000F1088E159F0508F47C0169E775E0C701DE
:104CB0000E949E06F701E758FA4F108281E0809328
:104CC000230540E46EE180E80E94C5068091F1056D
:104CD000882369F080913905823009F401C108F018
:104CE000F9C0882309F484C1813009F4A0C1E1141A
:104CF000F10409F02BC28091F005857099F0809144
:104D0000EE059091EF05892B69F40E94280782FF38
:104D100009C08AEE95E00E94CB0F8091F005886073
:104D20008093F0058091EE059091EF0501969093A8
:104D3000EF058093EE058091E905813009F06EC0A2
:104D40008091F00581FF6AC082E08093E90580913F
:104D500033018F5F80933301182F1F718FED95E022
:104D60000E94D8006FED75E0882309F4ECC18DE650
:104D700095E00E94351008E00093850510928605A5
:104D800049E050E060E571E087E895E00E944C2B37
:104D90008CE280938A0586E0809390050E947D06D0
:104DA00010929D0510929E058BE080939B051093B9
:104DB0009C05EFE9F5E0DF011D920A95E9F7809186
:104DC00032018093A1058D5F8093320180E680934C
:104DD000A70582E08093A80593E09093A90510921F
:104DE000AA051092AB051092AC051092AD05109279
:104DF000AE058093AF0594E09093B0058093B10524
:104E000086E28093B20522E040E250E06AE182E36C
:104E10000E942A068AE390E00E943E0785EE95E014
:104E20000E94D800882379F08091E40581110BC09D
:104E30008091E305811107C085EE95E00E94CB0FBC
:104E400081E08093E3058FED95E00E94D8008823F0
:104E500079F08091DE0581110BC08091DD05811113
:104E600007C08FED95E00E94CB0F81E08093DD05B8
:104E700080E090E0892B11F40C94141B0E948001B7
:104E8000882311F40C940B1B0E9400000C940B1B44
:104E900089810E949D0C8E010E5F1F4FEE24E394CA
:104EA000F12CEC0EFD1E2FE0E20EF11C81E993E0E7
:104EB0000E943E0CD8018D918D010E949D0CE01640
:104EC000F106A1F78BEA91E00E948F0CA5CE61500C
:104ED0007109B5CE833009F456C0843009F007CF8C
:104EE00065E0C7010E94D307882309F4C9C08091F7
:104EF0002805811108C088E30E941007682F6E7F83
:104F000088E30E94F60663EB75E085ED96E00E946B
:104F1000C30FE3E9F6E0970127583A4F69018F0183
:104F20000E5F1F4FB1808081863009F4FBC008F00E
:104F3000BEC0813009F4ECC0833009F4EFC0F80141
:104F4000EB0DF11DEC15FD0550F30E94D7056093A4
:104F50003105709332058093330590933405809129
:104F6000EA05882361F01092EF051092EE0581E0CA
:104F70008093F0056AEE75E0CB010E94C30F83E0D9
:104F800080933905B4CE8090350590903605A09079
:104F90003705B0903805FFEF8F169F06AF06BF06A6
:104FA00009F4A5CE0E94D705009131051091320574
:104FB0002091330530913405601B710B820B930BEC
:104FC000681579058A059B0508F491CE85ED96E074
:104FD0000E94A31084E0809339050E94D705609356
:104FE0002D0570932E0580932F05909330057FCE6D
:104FF0000E94D7056093290570932A0580932B059D
:1050000090932C05E5EDF6E084E0DF011D928A9592
:10501000E9F790E080E00E94A31088E30E94100767
:10502000682F616088E30E94F60681E0D4CF62E0D9
:10503000C7010E94D307882319F163EB75E0CE0105
:1050400001960E94C30FE3E9F6E0C70187589A4F23
:10505000BF016E5F7F4F21813081363351F484E28E
:1050600095E00E94C30FCE0101960E94A31082E03A
:10507000B2CFFB01E20FF11DE817F90748F3F3CFB8
:105080000E94D70500912D0510912E0520912F0526
:1050900030913005601B710B820B930B61317742AD
:1050A0008105910508F423CE1092390520CE8A336C
:1050B00031F08F3F09F449CF833309F040CF10928C
:1050C0003505109236051092370510923805F80113
:1050D000C801049620E030E0A9016191542F432FCC
:1050E000322F2227260F311D411D511D8E179F077C
:1050F000A1F72F3F8FEF380748075807B9F42093DF
:10510000350530933605409337055093380517CF52
:10511000B80181ED96E00E94C30F11CFB8018AEE6D
:1051200095E0F9CFB80185EE95E0F5CFA8EEB3E0B4
:105130000E94502F60933505709336058093370594
:1051400090933805FCCE83E795E013CEB9E2EB16D9
:10515000F10408F48DCE80918505883009F088CE61
:1051600080918605863009F04EC244E050E065ED3E
:1051700076E08FE995E00E949530892B09F078CE92
:1051800080918E05813029F58FE795E00E94B80F58
:1051900010928D0582E080938E056FE875E089E9B5
:1051A00095E00E94990F6AE375E08FE895E00E9410
:1051B000990F65E975E08FE995E00E94C30F65EDF1
:1051C00076E085E995E00E94C30F8AE290E00E94B4
:1051D0003E078091F00583FF0DC010918E051230BF
:1051E00049F463E775E08AEE95E00E94A10F811112
:1051F0001093F0058091E405811111C08091E305C1
:10520000882369F06DE675E085EE95E00E94A10FB8
:10521000882329F081E08093E4051092E3058091D2
:10522000DE05811125CE8091DD05882309F420CE8D
:105230006DE675E08FED95E00E94A10F882309F4DB
:1052400017CE81E08093DE051092DD0511CE90919E
:105250006C05911122C0E6E3EE16F10408F408CEC5
:1052600000919005063009F003CE80919D058B30AA
:1052700009F0B2C044E050E06FED75E083E995E0DD
:105280000E949530892B09F0F3CD1091A80512FFEB
:1052900058C085E08093E905EBCD8131E1F634E437
:1052A000C32E35E0D32EB12CA12C20E080916C05CB
:1052B0008A151B0409F00CF440C0D60112963C91EB
:1052C000129713969C91139780919D052B969FAFF3
:1052D0002B972C961FAE2C972C96EEADFFAD2C97EE
:1052E0008E171F0619F580919E0583131FC0149613
:1052F0009C9014979920D1F000919F0510E0102FF9
:1053000000272091A0052850330B020F131F409156
:105310009B0550919C05542745275427ED91FC91FE
:1053200023EA35E063E975E00995292DFFEFAF1A0F
:10533000BF0A35E0C30ED11CB9CF222309F48BCFAD
:1053400097CD0E94E4052091E905223089F5212FAF
:1053500020711271123101F560E090E080E00E944E
:10536000111088E18093A80583E08093E9051092ED
:10537000890588E280938A050E947D061092AB051C
:105380001092AC0522E04CE150E06AE182E30E9419
:105390002A0686E390E07DC131E03093E90501966D
:1053A000222311F090E080E064E00E94111060CDB3
:1053B000253009F45DCD10FF0AC0233009F458CD23
:1053C00069E001960E9411100093E90551CD60E05B
:1053D000009709F44DCDE9CF81114ACD80919E050A
:1053E000803509F045CD1091A80511FF39C0109204
:1053F00089058CE280938A050E94FF0F82E18093E9
:10540000A80560E081E090E00E94FF0510929F05F2
:105410001092A005809132018093A1051092A205FF
:105420008D5F8093320182E08093AF0584E08093AA
:10543000B00585E08093B1051092B20590E6909397
:10544000A7058093A90588E78093AA0522E040E29A
:1054500050E06AE182E30E942A068AE390E019C1E3
:1054600014FF06CD0E94E405892B09F001CD10FF41
:10547000FFCC60E090E080E098CF89ED96E00E945C
:105480007401892B09F4F4CC89ED96E00E94740133
:10549000C3978CF089ED96E00E947401892B29F066
:1054A00089ED96E00E945201F5CF109219061092F4
:1054B00018061092170680911706882361F1009153
:1054C000160610E089ED96E00E94740198012250C2
:1054D0003109821793070CF4CBCC85EFE82E85E0D9
:1054E000F82EC701835F95408017910744F489ED3A
:1054F00096E00E945201D7018D937D01F2CFB80151
:1055000083EF95E00E945D12109219061092180622
:1055100010921706ADCC8091180690911906873F1E
:10552000BEE79B0718F5853FEEE79E0778F5843FB9
:105530009E4729F189ED96E00E9452019091F20573
:105540002E968FAF2E972D961FAE2D972E962EADA1
:105550003FAD2E97292B3093190620931806909370
:10556000F3058093F4058093F20582CC873F2EE704
:10557000920771F08C3B9F47E9F68FE101C08EE006
:105580008093160681E08093170672CC8AE0F8CFEC
:1055900086E0F6CF80919407813011F00C94B81713
:1055A000E5E9F7E081918651893E10F40C942819C1
:1055B00027E0E53AF207B1F781E00C942919C5011B
:1055C000B4010E94D82B87FD02C00C94AB1B8092C3
:1055D000460490924704A0924804B09249040C9467
:1055E000AB1BC701B6010E94D82B87FD02C00C94EB
:1055F000281FC0924604D0924704E0924804F092DB
:1056000049040C94281F49E2E416F10409F430CC53
:1056100081112ECC80918705853409F029CC44E096
:1056200050E065ED76E087E995E00E949530892BA2
:10563000A9F044E050E060E475E087E995E00E945D
:105640009530892B59F044E050E06FE771E087E92D
:1056500095E00E949530892B09F00ACC8091900545
:10566000813009F0F4CD90919B05983009F0EFCD91
:105670000E94FF0F10929B0580919D05883F28F0A6
:1056800090919E059F5F90939E05885F80939D05F6
:10569000C7010E943E07ECCBFB01DC0102C0059074
:1056A0000D9241505040D8F70895F999FECF92BD20
:1056B00081BDF89A992780B50895262FF999FECFD4
:1056C0001FBA92BD81BD20BD0FB6F894FA9AF99A1F
:1056D0000FBE019608955058BB27AA270E94832B1E
:1056E0000C94FD2C0E94EF2C38F00E94F62C20F038
:1056F00039F49F3F19F426F40C94EC2C0EF4E09549
:10570000E7FB0C94E62CE92F0E940E2D58F3BA17F4
:10571000620773078407950720F079F4A6F50C94C7
:10572000302D0EF4E0950B2EBA2FA02D0B01B901F0
:1057300090010C01CA01A0011124FF27591B99F007
:10574000593F50F4503E68F11A16F040A22F232F13
:10575000342F4427585FF3CF469537952795A79563
:10576000F0405395C9F77EF41F16BA0B620B730B0A
:10577000840BBAF09150A1F0FF0FBB1F661F771F7B
:10578000881FC2F70EC0BA0F621F731F841F48F430
:10579000879577956795B795F7959E3F08F0B0CFB9
:1057A0009395880F08F09927EE0F979587950895A0
:1057B0000E94C22C08F481E008950E94F12B0C9401
:1057C000FD2C0E94F62C58F00E94EF2C40F029F49A
:1057D0005F3F29F00C94E62C51110C94312D0C9460
:1057E000EC2C0E940E2D68F39923B1F3552391F30D
:1057F000951B550BBB27AA2762177307840738F040
:105800009F5F5F4F220F331F441FAA1FA9F335D09C
:105810000E2E3AF0E0E832D091505040E695001C50
:10582000CAF72BD0FE2F29D0660F771F881FBB1F0A
:10583000261737074807AB07B0E809F0BB0B802DE8
:10584000BF01FF2793585F4F3AF09E3F510578F014
:105850000C94E62C0C94312D5F3FE4F3983ED4F386
:10586000869577956795B795F7959F5FC9F7880FE8
:10587000911D9695879597F90895E1E0660F771F3A
:10588000881FBB1F621773078407BA0720F0621BCB
:10589000730B840BBA0BEE1F88F7E09508950E94F6
:1058A000562C6894B1110C94312D08950E94162D38
:1058B00088F09F5798F0B92F9927B751B0F0E1F0D1
:1058C000660F771F881F991F1AF0BA95C9F714C081
:1058D000B13091F00E94302DB1E008950C94302D3C
:1058E000672F782F8827B85F39F0B93FCCF38695BA
:1058F00077956795B395D9F73EF490958095709517
:1059000061957F4F8F4F9F4F0895E89409C097FB93
:105910003EF490958095709561957F4F8F4F9F4F86
:105920009923A9F0F92F96E9BB279395F6958795CA
:1059300077956795B795F111F8CFFAF4BB0F11F48D
:1059400060FF1BC06F5F7F4F8F4F9F4F16C0882334
:1059500011F096E911C0772321F09EE8872F762F6A
:1059600005C0662371F096E8862F70E060E02AF0AB
:105970009A95660F771F881FDAF7880F9695879597
:1059800097F90895990F0008550FAA0BE0E8FEEF6C
:1059900016161706E807F907C0F012161306E407F3
:1059A000F50798F0621B730B840B950B39F40A26EC
:1059B00061F0232B242B252B21F408950A2609F4CA
:1059C000A140A6958FEF811D811D089597F99F67CE
:1059D00080E870E060E008959FEF80EC0895002477
:1059E0000A941616170618060906089500240A9444
:1059F00012161306140605060895092E0394000CCA
:105A000011F4882352F0BB0F40F4BF2B11F460FF58
:105A100004C06F5F7F4F8F4F9F4F089557FD905881
:105A2000440F551F59F05F3F71F04795880F97FB62
:105A3000991F61F09F3F79F087950895121613061C
:105A40001406551FF2CF4695F1DF08C0161617064B
:105A50001806991FF1CF8695710561050894089580
:105A6000E894BB2766277727CB0197F908950E9412
:105A7000C22C08F48FEF08950E944F2D0C94FD2C3A
:105A80000E94EF2C38F00E94F62C20F0952311F0A4
:105A90000C94E62C0C94EC2C11240C94312D0E94C7
:105AA0000E2D70F3959FC1F3950F50E0551F629F27
:105AB000F001729FBB27F00DB11D639FAA27F00D67
:105AC000B11DAA1F649F6627B00DA11D661F829F8E
:105AD0002227B00DA11D621F739FB00DA11D621F73
