:100000000C946D000C9495000C9495000C94950044
:100010000C9495000C9495000C9495000C9495000C
:100020000C9495000C9495000C9495000C949500FC
:100030000C9495000C9495000C9495000C949500EC
:100040000C947A080C9495000C9448080C9422089F
:100050000C9495000C9495000C9495000C949500CC
:100060000C9495000C949500638253630001080082
:100070000604000100000000250028002B000000FD
:1000800000002300260029000000000800020100F3
:100090000003040700000000000000000000000052
:1000A000240027002A0001020408102040800102D9
:1000B00004081020010204081020040404040404AD
:1000C00004040202020202020303030303034500C5
:1000D0000082000040002000C40811241FBECFEFA2
:1000E000D8E0DEBFCDBF12E0A0E0B1E0E4E0F5E291
:1000F00002C005900D92A835B107D9F725E0A8E513
:10010000B2E001C01D92AF3CB207E1F710E0CDE6CE
:10011000D0E004C02197FE010E945E12CC36D107C8
:10012000C9F70E9408090C9480120C940000CF9328
:10013000DF93209113052223C1F0FC0120812223AB
:10014000A1F0C3E1D5E0AFE0B5E09C012C5F3F4FEB
:10015000899141919D918427892339F4E217F3070E
:10016000B9F781E0DF91CF91089580E0FBCFAF92A6
:10017000BF92CF92DF92EF92FF920F931F93CF9394
:10018000DF936C017B018B01040F151FEB015E01F6
:10019000AE18BF08C017D10759F06991D601ED918B
:1001A000FC910190F081E02DC6010995892B79F72A
:1001B000C501DF91CF911F910F91FF90EF90DF90DC
:1001C000CF90BF90AF900895FC01538D448D252FA3
:1001D00030E0842F90E0821B930B541710F0CF96E1
:1001E000089501970895FC01918D828D981761F013
:1001F000A28DAE0FBF2FB11D5D968C91928D9F5F2A
:100200009F73928F90E008958FEF9FEF0895FC0108
:10021000918D828D981731F0828DE80FF11D858DBB
:1002200090E008958FEF9FEF0895FC01918D228D4E
:10023000892F90E0805C9F4F821B91098F739927D3
:10024000089587E195E00E94150121E0892B09F4CA
:1002500020E0822F089580E090E0892B29F00E9411
:10026000210181110C9400000895FC01A48DA80FB8
:10027000B92FB11DA35ABF4F2C91848D90E00196E8
:100280008F739927848FA689B7892C93A089B18908
:100290008C91837080648C93938D848D981306C0A9
:1002A0000288F389E02D80818F7D80830895EF920D
:1002B000FF920F931F93CF93DF93EC0181E0888F20
:1002C0009B8D8C8D98131AC0E889F989808185FFF0
:1002D00015C09FB7F894EE89FF896083E889F98992
:1002E00080818370806480839FBF81E090E0DF9194
:1002F000CF911F910F91FF90EF900895F62E0B8DE7
:1003000010E00F5F1F4F0F731127E02E8C8D8E11A1
:100310000CC00FB607FCFACFE889F989808185FF08
:10032000F5CFCE010E943501F1CFEB8DEC0FFD2F03
:10033000F11DE35AFF4FF0829FB7F8940B8FEA89C3
:10034000FB8980818062CFCFCF93DF93EC01888DD2
:100350008823B9F0AA89BB89E889F9898C9185FD40
:1003600003C0808186FD0DC00FB607FCF7CF8C91CE
:1003700085FFF2CF808185FFEDCFCE010E94350150
:10038000E9CFDF91CF910895833081F028F4813057
:1003900099F08230A9F008958730A9F08830C9F02B
:1003A0008430B1F4809180008F7D03C08091800003
:1003B0008F7780938000089584B58F7784BD0895EA
:1003C00084B58F7DFBCF8091B0008F778093B00094
:1003D00008958091B0008F7DF9CFCF93DF93282FC0
:1003E00030E0F901E857FF4F8491F901EA55FF4FDA
:1003F000D491F901E654FF4FC491CC23A1F08111AF
:100400000E94C401EC2FF0E0EE0FFF1FE258FF4FF7
:10041000A591B491EC91ED2381E090E009F480E0A6
:10042000DF91CF91089580E090E0FACF1F93CF93B2
:10043000DF93282F30E0F901E857FF4F8491F9014D
:10044000EA55FF4FD491F901E654FF4FC491CC23F4
:10045000A9F0162F81110E94C401EC2FF0E0EE0FDD
:10046000FF1FEC58FF4FA591B4918FB7F894EC9112
:10047000111108C0D095DE23DC938FBFDF91CF919F
:100480001F910895DE2BF8CFCF93DF9390E0FC010E
:10049000EA55FF4F249186549F4FFC018491882395
:1004A000C9F090E0880F991FFC01E456FF4FA59119
:1004B000B491FC01EC58FF4FC591D49161110DC06E
:1004C0009FB7F8948C91209582238C938881282360
:1004D00028839FBFDF91CF910895623051F49FB779
:1004E000F8943C91822F809583238C93E8812E2B66
:1004F000EFCF8FB7F894EC912E2B2C938FBFEACFD0
:100500003FB7F8948091600290916102A0916202DD
:10051000B091630226B5A89B05C02F3F19F0019644
:10052000A11DB11D3FBFBA2FA92F982F8827BC014D
:10053000CD01620F711D811D911D42E0660F771F75
:10054000881F991F4A95D1F708958F929F92AF9275
:10055000BF92CF92DF92EF92FF924B015C010E941B
:1005600080026B017C010E9480026C197D098E095A
:100570009F09683E734081059105A8F321E0821A26
:100580009108A108B10888EEC80E83E0D81EE11CCE
:10059000F11C81149104A104B10429F7FF90EF909C
:1005A000DF90CF90BF90AF909F908F9008952FB71E
:1005B000F89460915C0270915D0280915E0290916E
:1005C0005F022FBF08958091220390912303982703
:1005D0008927982744972091400330E044E03595DF
:1005E00027954A95E1F7220F331F220F331F821BF5
:1005F000930B97FF02C090E080E0089520913603AE
:100600003091340330933603209334032091370321
:10061000309135033093370320933503E2E1F3E063
:1006200021A5820F911D25A585A7662381F021A70D
:10063000892F9927319723E0EE30F20789F710923E
:1006400044031092450380E580934003089511A66A
:10065000EFCF0F931F93CF93DF9370E06E5E7C4FCD
:100660008A01075F1F4F213029F0223031F48A01BF
:100670000250110930E020E003C000E010E09801D2
:10068000EB01FA01E230F10558F0A991B991BA27CE
:10069000AB27BA270A0F1B1F211D311D3297F2CF3E
:1006A000FA01EE7F6E0F7F1F4E175F0769F0FB01A7
:1006B000408150E070E060E0762F652F542F442792
:1006C000040F151F261F371FA9016627772741151D
:1006D00051056105710519F022273327F1CF0095E7
:1006E0001095E82FF0E0EE5EFC4F10830183DF9160
:1006F000CF911F910F910895E2E1F3E0108E118EDA
:1007000080E4848B158A868B20E044E150E06EE023
:1007100088E10C9429038EBD0DB407FEFDCF08952A
:1007200061E0809167020E94160278940895F8941F
:1007300060E0809167020C9416020F931F93CF9391
:10074000DF93EC018B010E9497032097B9F08AE3B5
:100750000E948B031EBCF801CE01019739F00DB445
:1007600007FEFDCF2EB51EBC2193F7CF2197C00FFA
:10077000D11F0DB407FEFDCF8EB58883DF91CF91D9
:100780001F910F910C9490031F93CF93DF93182F19
:10079000C62FD42F0E9497038C2F8F71812B0E941C
:1007A0008B038D2F0E948B03DF91CF911F910C94AF
:1007B0009003CF93C82FC07680915A028C1799F07E
:1007C00043E06FE180EA0E94C403C0935A024C2FB9
:1007D00050E085E0559547958A95E1F76FE180E80F
:1007E000CF910C94C403CF910895CF93DF93C82F7A
:1007F000D62F0E94D9034D2F6C2F80E4DF91CF912B
:100800000C94C403CF93DF93C82FD72F0E94F50316
:100810006D2F81E08C0FDF91CF910C94F503CF9376
:10082000C82F0E94D9030E9497038C2F8F710E94BA
:100830008B0380E00E948B03C7FF03C080E00E940F
:100840008B03CEB50E9490038C2FCF91089561E168
:1008500084ED0E94F50361E082ED0E94F5038AEECB
:100860000E940F0480FDFBCF60E082ED0E94F50343
:1008700089ED0E940F0490E00895CF93DF93EC017F
:1008800040E86FE180E80E94C40340E86FE180EA3D
:100890000E94C4034AE06CE180EA0E94C40360E065
:1008A0007CE082E00E940204BE01745F86E00E9448
:1008B000020440E060E08AE70E94C4030E949703BC
:1008C0002097B1F08AE70E948B03809112038EBDBE
:1008D000E3E1F3E0CE5EDC4FEC17FD0731F08191F0
:1008E0000DB407FEFDCF8EBDF7CF0DB407FEFDCFD3
:1008F0000E94900348E06FE180E80E94C403D0E0CA
:10090000C0E08CE10E940F048A7029F42196C83E51
:1009100083E0D807B1F78CE10E940F0481FD03C08A
:10092000C83ED34039F448E06FE180EADF91CF91CF
:100930000C94C403DF91CF9108950F931F93CF932D
:10094000DF93EC0102E113E04C96F801908B818B70
:100950000E947C03CE010896F80196A387A3AE01FE
:10096000405F5F4F21E06AE188E20E942903CE01E7
:100970008A96DF91CF911F910F910C943D04CF93F4
:10098000DF93EB01682F84ED0E94F503BE0186ED35
:100990000E9402048AEE0E940F0480FDFBCFDF91CB
:1009A000CF910895CF92DF92EF92FF920F931F9312
:1009B0008634910568F120913503233449F5C090C0
:1009C0004003D0904103E0904203F0904303009134
:1009D000AD021091AE022091AF023091B002C0166C
:1009E000D106E206F306A1F4ECE2F4E08E5E9C4F41
:1009F0009F012E5F3F4F41815081553319F4528141
:100A0000651771F0F901E40FF11DE817F90780F39C
:100A100080E01F910F91FF90EF90DF90CF900895AD
:100A200081E0F7CFE0915802F09159029F012F5FCA
:100A30003F4F309359022093580280830895FF92CC
:100A40000F931F93CF93DF93162FF42E052F0E9441
:100A50001205812F0E941205CF2DD02F115020F0AA
:100A600089910E941205FACFDF91CF911F910F91CA
:100A7000FF90089580916F02882339F00E94270427
:100A8000969587959695879581700895FC010190BC
:100A90000020E9F73197AF01481B590BBC0187E1F2
:100AA00095E00C94B70080E591E00C9446058F9298
:100AB0009F92AF92BF920F931F93CF93DF93CDB7C7
:100AC000DEB7A1970FB6F894DEBF0FBECDBF19A257
:100AD000423008F44AE08E010F5D1F4F842E912CA6
:100AE000B12CA12CA50194010E943112E62FB9016D
:100AF000CA01EA30F4F4E05DD801EE938D01232BB6
:100B0000242B252B79F790E080E0109719F0CD0188
:100B10000E944605A1960FB6F894DEBF0FBECDBF6A
:100B2000DF91CF911F910F91BF90AF909F908F90C9
:100B30000895E95CE1CFCF93DF930E944605EC0175
:100B40000E9453058C0F9D1FDF91CF910895DC010A
:100B500096E0FB0101900D929A95E1F70895CF93ED
:100B6000DF93EB0144E050E0BC018EE293E00E9491
:100B70007312892B49F468E273E0CE010E94A70545
:100B800081E0DF91CF91089580E0FBCFBC0182E14D
:100B900093E00E94A7056EEB72E088E193E00C946D
:100BA000A705DC0194E0FB0101900D929A95E1F715
:100BB00008950F931F93CF938C0188E391E00E94D7
:100BC000C605E2E1F3E088E08487C6E0C58748E037
:100BD00050E06CE670E080E293E00E941212E2E3E3
:100BE000F3E0DF011D92CA95E9F76EEB72E088E24F
:100BF00093E00E94A705B80188E393E00E94D10525
:100C000063E175E08EE293E00E94D1058AE290E014
:100C1000CF911F910F910C943D0488E193E00E94C5
:100C2000C6056CE273E080E393E00E94D10563E1C6
:100C300075E08CE293E00E94D1050C947C03262F92
:100C4000206120934103643021F0009711F481E08A
:100C500090E061E00E94FE021092220388E28093FD
:100C600023030E940D0684E0809342031092430305
:100C700022E04CE150E06AE182E30E94290386E32E
:100C800090E00C943D04CF93DF93EB010E94C605E6
:100C9000BE0180E393E00E94D10563E175E08CE240
:100CA00093E0DF91CF910C94D105EF92FF920F93D7
:100CB0001F93CF93DF93182F092FEB01F42EE52E0E
:100CC000CB010E949700BE01882309F447C081EF41
:100CD00092E00E9443068881807F803E91F0888167
:100CE0009981AA81BB818F3F9F4FAF4FBF4F49F082
:100CF00044E050E0BE0184EC92E00E947312892B24
:100D000031F468E371E082E193E00E94A70588E096
:100D100080931E0310921F0349E050E06EEC70E0D8
:100D200080E293E00E9412121092220381E18093EC
:100D30002903E0923603F0923703009334031093B3
:100D400035031092380310923A0310923B03DF915F
:100D5000CF911F910F91FF90EF90089587EF92E050
:100D6000B8CFEF92FF920F931F93CF938C01E2E1E4
:100D7000F3E086E191E0DF019C011D9221503040BB
:100D8000E1F78091BD0268E371E0833011F468EA15
:100D900072E043E450E084E490E00E94550668E38A
:100DA00071E082E193E00E94A70581E080933C031B
:100DB00080933D0386E080933E038091AD02909145
:100DC000AE02A091AF02B091B00280934003909325
:100DD0004103A0934203B0934303C091BD02C330CB
:100DE00031F463E175E088E493E00E94D1056EEB95
:100DF00072E088E593E00E94A70588E294E0909372
:100E0000590280935802E8E6F0E084910E941205AE
:100E1000E9E6F0E084910E941205EAE6F0E08491B0
:100E20000E941205EBE6F0E084910E94120585E332
:100E30000E94120581E00E94120583E0C11101C0E9
:100E400081E00E9412058DE30E94120587E00E9456
:100E5000120581E00E9412058EEBE82E82E0F82E4A
:100E6000C7E0C15031F0D7018D917D010E9412057C
:100E7000F8CF80910001882371F060E071E0FB0100
:100E800001900020E9F7BF016150714040E051E05E
:100E90008CE00E941F050115110559F0A80164E0BE
:100EA00082E30E941F0548EA52E064E086E30E9464
:100EB0001F0587E30E94120583E00E94120581E06E
:100EC0000E94120583E00E94120586E00E9412052E
:100ED0008FEF0E94120580915802909159028C5315
:100EE0009340CF911F910F91FF90EF900C949D0430
:100EF000FF920F931F93CF93DF93EC01F62E08819F
:100F00001981C8010E941B12F81621F06F2DC8012B
:100F10000E942312CE01DF91CF911F910F91FF907C
:100F20000895EF92FF920F931F93CF93DF9300D01A
:100F3000CDB7DEB784EBE82E85E0F82E0AE010E0AE
:100F40001A830983F70161917F01CE0101960E9406
:100F500078070F5F1F4F0532110591F784EB95E07D
:100F60000F900F90DF91CF911F910F91FF90EF9015
:100F70000895CF93DF93FC0180819181873F2EE715
:100F8000920731F08D3B9F4729F1DF91CF91089572
:100F900066307105D0F3DF019F012B5F3F4F90E07A
:100FA00080E04D91840F911D2A173B07D1F7958161
:100FB0009813EBCF82818093CA0583818093CB0500
:100FC00084818093CC050E949107F0E0E0E0DF91FE
:100FD000CF91099469317105C0F29F01285E3F4F9E
:100FE000DF0190E080E04D91840F911DA217B307BF
:100FF000D1F7908D9813C9CF82818093B5058381F5
:101000008093B60584818093B70585818093B80568
:1010100086818093B905DF011796CAEBD5E0CF0131
:1010200047962D9129938A179B07D9F78789809333
:10103000CE05C9CF0F931F93C901B8011F910F911E
:101040000C94B9071F920F920FB60F9211242F9391
:101050003F934F935F936F937F938F939F93AF9340
:10106000BF93EF93FF9387E195E00E943501FF91D5
:10107000EF91BF91AF919F918F917F916F915F9110
:101080004F913F912F910F900FBE0F901F90189589
:101090001F920F920FB60F9211242F938F939F934D
:1010A000EF93FF93E0912705F09128058081E0916F
:1010B0002D05F0912E0582FD1BC090818091300599
:1010C0008F5F8F7320913105821741F0E0913005D9
:1010D000F0E0E95EFA4F958F80933005FF91EF9134
:1010E0009F918F912F910F900FBE0F901F90189589
:1010F0008081F4CF1F920F920FB60F9211242F937D
:101100003F938F939F93AF93BF9380915C02909195
:101110005D02A0915E02B0915F0230915B0223E01C
:10112000230F2D3758F50196A11DB11D20935B02A9
:1011300080935C0290935D02A0935E02B0935F0285
:101140008091600290916102A0916202B09163026D
:101150000196A11DB11D8093600290936102A0933E
:101160006202B0936302BF91AF919F918F913F91C3
:101170002F910F900FBE0F901F90189526E8230F08
:101180000296A11DB11DD2CFE7E1F5E013821282D4
:1011900088EE93E0A0E0B0E084839583A683B783D4
:1011A00082E491E09183808385EC90E09587848749
:1011B00084EC90E09787868780EC90E0918B808B21
:1011C00081EC90E0938B828B82EC90E0958B848B0A
:1011D00086EC90E0978B868B118E128E138E148E78
:1011E000E4EBF5E0108283E1818385E0828383E094
:1011F000838381E1848380E1858380EC868B88EA28
:10120000878B81E0808F82E3818F8EE0828F0895CB
:10121000CF93DF93CDB7DEB72F970FB6F894DEBF2D
:101220000FBECDBF789484B5826084BD84B58160E3
:1012300084BD85B5826085BD85B5816085BD8091A1
:101240006E00816080936E00109281008091810019
:101250008260809381008091810081608093810011
:10126000809180008160809380008091B1008460D3
:101270008093B1008091B00081608093B000809134
:101280007A00846080937A0080917A0082608093F3
:101290007A0080917A00816080937A0080917A0050
:1012A000806880937A001092C100E0912705F09148
:1012B000280582E08083E0912305F09124051082C7
:1012C000E0912505F091260583E3808310922F0598
:1012D000E0912B05F0912C0516E01083E091290593
:1012E000F0912A05808180618083E0912905F09149
:1012F0002A05808188608083E0912905F0912A0584
:10130000808180688083E0912905F0912A058081A1
:101310008F7D808360ED77E080E090E00E94A50201
:101320000E94530583E591E00E949B050E945305AE
:1013300082E18093BA0589E08093BB051093BC05D8
:1013400084E08093BD055EEBE52E55E0F52E64EB61
:10135000C62E65E0D62ED7011D927D01BAECEB16A4
:10136000B5E0FB06C1F790E080E00E941B128F837E
:1013700081E090E00E941B12888784E090E00E9448
:101380001B122F8138852C34384001F186E891E01A
:101390000E949B051A8219826CE4CE0101960E947C
:1013A000780781E090E09A83898368E0CE01019616
:1013B0000E94780784E090E09A83898363E0CE01FD
:1013C00001960E9478070E94910713C08330F1F6BE
:1013D0008DE691E00E949B050AE010E0C8010E94A2
:1013E0001B12F60181936F010F5F1F4F053211052C
:1013F000A9F762E08091B5050E94440262E0809105
:10140000B6050E94440262E08091B7050E94440242
:1014100062E08091B8050E94440262E08091B905C3
:101420000E9444020AEB15E0D8018D918D018823BA
:1014300019F062E00E944402E016F106A9F782E585
:1014400091E00E949B058CE991E00E949B058091B0
:10145000B40584548093CD053091CA053983209119
:10146000CB052A839091CC059B838C834091780295
:10147000411105C08093310181E080937802809111
:101480007002811109C030932801209329019093A3
:101490002A0181E08093700230933201209333015E
:1014A000909334011FB7F89480916402811127C092
:1014B000E4ECF0E08491E0EBF0E09491E82FF0E0D0
:1014C000EE0FFF1FE456FF4FA591B491EC91E92375
:1014D00021F461E08AE00E94160261E08AE00E9445
:1014E00044028CB580618CBD8CB580648CBD61E09C
:1014F0008DE00E94440261E08BE00E9444028091F2
:1015000064028F5F809364021FBF10926602109284
:1015100065028091650281113CC064EF71E080E05A
:1015200090E00E94A50280EB91E00E944605F894AD
:1015300060E08AE00E9416028FEF0E948B038FEF1B
:101540000E948B0361E08AE00E941602789462E0B8
:1015500070E080E090E00E94A502F89460E08AE0EC
:101560000E9416028DE10E948B0380E00E948B0393
:101570001EB561E08AE00E94160278941170109303
:101580006502809166028F5F80936602863008F460
:10159000C0CF8091650280936F02882309F416C240
:1015A0001092110387E390E0C12CD12C7601C394F3
:1015B0000097C1F0FC0123E0F595E7952A95E1F746
:1015C000E859FD4F282F2770B701A60104C0440F2A
:1015D000551F661F771F2A95D2F72081242B208361
:1015E0000197E6CF6CE271E08EEB92E00E94A705D6
:1015F00084EF91E090930705809306050CB406FCF8
:1016000025C061E08AE00E94440261E08AE00E9415
:10161000160261E08BE00E94440261E08DE00E94CE
:10162000440260E08CE00E94440261E08BE00E9492
:10163000160260E08BE00E94160260E08DE00E94DE
:10164000160280E58CBD8DB581608DBD8AE08093EA
:10165000670261E00E9444020E9490034FEF60E045
:101660008FEF0E94C40362E070E080E090E00E948F
:10167000A5020E9497038DE10E948B0380E00E94E7
:101680008B031EB50E949003112399F370E060E074
:1016900088E00E94020470E060E08CE00E94020496
:1016A0006FEF7BE08AE00E94020460E07CE084E06F
:1016B0000E9402046FEF71E186E00E94020466E777
:1016C00074E084E10E94BF0461EB88E30E94F503AB
:1016D0006FE370E388E20E94020469EF77EF80E332
:1016E0000E94020461E080EC0E94F50342E362EC98
:1016F00080E80E94C40362E17CE086EC0E94020460
:1017000062E184EC0E94F5036CED75E08AEC0E94C6
:1017100002046091BE0284EE0E94F5036091BF0254
:1017200085EE0E94F5036091C00282EE0E94F503EF
:101730006091C10283EE0E94F5036091C20280EEC7
:101740000E94F5036091C30281EE0E94F50360E000
:1017500071E080E10E94BF048FE10E94D90340EC58
:101760006BE180E80E94C40344E06FE180E80E94DE
:10177000C40382E70E940F0482E591E00E949B056A
:1017800082EB91E00E949B0510921103BE016F5FF6
:101790007F4F83E195E00E94D10510920F031092D4
:1017A0000E0381E08093100368E271E08AE093E029
:1017B0000E94D10564E271E085E093E00E94D105CA
:1017C00060E271E08FE095E00E94D10503E115E051
:1017D0002FE035E064EC72E047E155E0F8019191CB
:1017E000D9018D919D018095892BDB018D93BD01E0
:1017F0004E175F07A1F78091F002883098F4B5E0AA
:101800008B9FF0011124E853FD4F2AE138E031832A
:10181000208328ED30E73383228391E094838F5F28
:101820008093F00264EF71E080E090E00E94A502F6
:101830000E943A05882309F4C6C082E591E00E941F
:101840009B058DEC91E00E944605F12CF801619119
:101850008F0170E090E080E04AE00E945705F3E0DD
:10186000FF1629F06EE287E195E00E945701F3949C
:1018700024E0F212EBCF0E9453058EED91E00E941E
:101880009B0582E591E00E949B0586E492E00E9420
:101890009B0544244394512C0AE6202EDD24D39446
:1018A000F6E07F2EACE26A2EB2E0CB2E0E94D70289
:1018B00000910B0510910C0520910D0530910E053E
:1018C000601B710B820B930B6B3F710581059105BA
:1018D00008F4B8C00E94D70260930B0570930C0502
:1018E00080930D0590930E0529823FE73A838091FE
:1018F000B5050E94ED018C0181E00115110509F08B
:1019000080E08F838091B6050E94ED0121E0892B54
:1019100009F020E028878091B7050E94ED0121E0C1
:10192000892B09F020E029878091B8050E94ED01FC
:1019300021E0892B09F020E02A878091B9050E94D7
:10194000ED0121E0892B09F020E02B87FE0137967D
:10195000B12C90E080E02191222339F09201082EF1
:1019600001C0220F0A94EAF7B22A01968530910548
:1019700091F7BB821C821D828091CE05811135C0FA
:101980000AEB15E0F12CE12CD8018D918D01882313
:1019900091F0B8E0EB16F1040CF06DC0AC800E9441
:1019A000ED01892B41F4C2010E2C01C0880F0A946D
:1019B000EAF7A82AAC82FFEFEF1AFF0A20E1E2164D
:1019C000F10411F718C084EF91E059CF82E591E05E
:1019D0000E949B0582E192E00E949B0582E591E0D6
:1019E0000E949B0581E392E04ACF012B49F60E94B9
:1019F000ED01892B29F68B2D90E087519F4F2C818B
:101A0000280F392F311D8D81820F932F911D8E83C9
:101A10000E943A05882309F43FC04FE255E762E38C
:101A200071E088E398E10E94550686E0FE01319658
:101A3000ACE3B3E001900D928A95E1F786E090E087
:101A40000E949D0487E195E00E941501892B09F40D
:101A500079C087E195E00E941501C3970CF443C05B
:101A600087E195E00E941501892BB9F187E195E0A6
:101A70000E94F300F5CFAD800E94ED01892B09F0A3
:101A80009ACFC7010897F20102C0EE0FFF1F8A9597
:101A9000E2F7AE2AAD828FCFAE014F5F5F4F5A01A2
:101AA000F12CE12CD5016D915D0170E090E080E0BA
:101AB0004AE00E945705B5E0EB16F10421F086E5F7
:101AC00092E00E944605EFEFEE1AFE0AF6E0EF16EE
:101AD000F10441F70E945305B5CF1092A70210926E
:101AE000A6021092A5028091A502882309F45CC188
:101AF0000091A40210E087E195E00E941501980191
:101B00002250310982179307ECF0E3E8EE2EE2E071
:101B1000FE2EC701815892408017910744F487E157
:101B200095E00E94F300D7018D937D01F2CFB801BB
:101B300081E892E00E94B9071092A7021092A602D3
:101B40001092A5020E943A05882309F420C18091D1
:101B50000A05882379F060910805709109056115DF
:101B6000710509F04BC16FEF7BE08CE00E9402042D
:101B700010920A0589E30E940F04F12CE12C8823BE
:101B8000D1F1609108057091090580E00E9402047E
:101B9000BE016F5F7F4F86E090E00E949D038981C8
:101BA0009A8190930905809308058D819E817C011F
:101BB00020E8E222FF2487FF13C08B819C810497D9
:101BC000E0900605F090070531E0E31AF1088E1564
:101BD0009F0508F47C0162E173E0C7010E949D0348
:101BE000F701EE5EFC4F1082D0920A0540E46EE1F0
:101BF00080E80E94C40380911103882369F08091DA
:101C0000BD02823009F403C108F0FBC0882309F447
:101C100085C1813009F4A2C1E114F10409F02EC29A
:101C200080911003857099F080910E0390910F03BD
:101C3000892B69F40E94270482FF09C08AE093E09F
:101C40000E94D905809110038860809310038091D1
:101C50000E0390910F03019690930F0380930E0350
:101C600080910903813009F06AC08091100381FFDF
:101C700066C0C0920903809137018F5F809337015E
:101C8000182F1F718FEF92E00E9497006FEF72E0A4
:101C9000882309F4F0C181EF92E00E94430608E036
:101CA00000931E0310921F0349E050E06EEC70E0B9
:101CB00080E293E00E941212609223037092290343
:101CC0000E947C0310923603109237038BE08093BE
:101CD000340310933503E8E3F3E0DF011D920A9526
:101CE000E9F78091360180933A038D5F8093360146
:101CF00080E680934003C092410383E080934203D7
:101D0000109243031092440310924503109246032D
:101D100010924703C092480384E080934903C09225
:101D20004A0386E280934B0322E040E250E06AE1FE
:101D300082E30E9429038AE390E00E943D0485E04B
:101D400093E00E949700882371F080910403811131
:101D50000AC080910303811106C085E093E00E94D0
:101D6000D905D09203038FEF92E00E949700882359
:101D700071F08091FE0281110AC08091FD028111F3
:101D800006C08FEF92E00E94D905D092FD0280E05C
:101D900090E0892B09F48ACD0E942101882309F45F
:101DA0007DCD0E9400007ACD8091A6029091A7027D
:101DB000873FBEE79B07C9F08D3B9F47D9F087E17E
:101DC00095E00E94F300909180028D871C862C85FF
:101DD0003D85292B3093A7022093A6029093810280
:101DE0008093820280938002ADCE7092A402D09242
:101DF000A502A8CEF9E1F093A402F9CF61507109D0
:101E0000B4CE833009F455C0843009F005CF65E0C5
:101E1000C7010E94D204882309F4CAC08091AC0291
:101E2000811108C088E30E940F04682F6E7F88E349
:101E30000E94F5036CE473E083E195E00E94D10514
:101E4000ECE2F4E087010E5E1C4F5F0122E0A20E7F
:101E5000B11C91808081863009F4FCC008F0BFC0BD
:101E6000813009F4EDC0833009F4F0C0F501E90DCB
:101E7000F11DE017F10748F30E94D7026093B50205
:101E80007093B6028093B7029093B80280910A03D0
:101E9000882359F010920F0310920E03D092100372
:101EA0006AE073E0CB010E94D10583E08093BD021C
:101EB000B3CE8090B9029090BA02A090BB02B090CD
:101EC000BC024FEF84169406A406B40609F4A4CE0F
:101ED0000E94D7020091B5021091B6022091B7027C
:101EE0003091B802601B710B820B930B681579055A
:101EF0008A059B0508F490CE83E195E00E94B10627
:101F000084E08093BD020E94D7026093B102709377
:101F1000B2028093B3029093B4027ECE0E94D702A5
:101F20006093AD027093AE028093AF029093B002C3
:101F3000E3E1F5E084E0DF011D928A95E9F790E0A6
:101F400080E00E94B10688E30E940F04682F616060
:101F500088E30E94F503D092BD02D5CF62E0C701AD
:101F60000E94D204882321F16CE473E0CE01019633
:101F70000E94D105ECE2F4E0C7018E5E9C4FBF01E8
:101F80006E5F7F4F21813081363359F488EA92E0C9
:101F90000E94D105CE0101960E94B106C092BD02F9
:101FA000B2CFFB01E20FF11DE817F90740F3F2CFC2
:101FB0000E94D7020091B1021091B2022091B302A7
:101FC0003091B402601B710B820B930B613177422D
:101FD0008105910508F420CE1092BD021DCE8A33F2
:101FE00031F08F3F09F448CF833309F03FCF10928F
:101FF000B9021092BA021092BB021092BC02F50113
:10200000C501049620E030E0A9016191542F432FCF
:10201000322F2227260F311D411D511D8E179F077C
:10202000A1F72F3F8FEF380748075807B9F42093DF
:10203000B9023093BA024093BB025093BC0216CF50
:10204000B5018FE095E00E94D10510CFB5018AE07F
:1020500093E0F9CFB50185E093E0F5CFA8EEB3E0CA
:102060000E9453126093B9027093BA028093BB022C
:102070009093BC02FBCE87EF92E00FCEB9E2EB1655
:10208000F10408F484CE80911E03883009F07FCEDD
:1020900080911F03863009F07CC144E050E063E189
:1020A00075E088E393E00E947312892B09F06FCEEC
:1020B00080912703813021F588E193E00E94C605D5
:1020C00010922603C092270368E273E082E393E054
:1020D0000E94A7056EEB72E088E293E00E94A705DC
:1020E0006EE273E088E393E00E94D10563E175E05E
:1020F0008EE293E00E94D1058AE290E00E943D04C6
:102100008091100383FF0DC010912703123049F412
:1021100067EF72E08AE093E00E94AF0581111093AF
:10212000100380910403811110C080910303882360
:1021300061F061EF72E085E093E00E94AF058823D3
:1021400021F0D0920403109203038091FE028111CA
:102150001ECE8091FD02882309F419CE61EF72E052
:102160008FEF92E00E94AF05882309F410CED09241
:10217000FE021092FD020BCE9091F002911122C04E
:10218000E6E3EE16F10408F402CE009129030630CE
:1021900009F0FDCD809136038B3009F0ABC044E0EF
:1021A00050E06FEF72E08CE293E00E947312892B93
:1021B00009F0EDCD1091410312FF52C085E08093EC
:1021C0000903E5CD8131E1F638ECA32E32E0B32EE0
:1021D000912C812C20E08091F00288151904E1F106
:1021E000DCF1D50112963C91129713969C911397AE
:1021F000809136039E871F86EE85FF858E171F060A
:1022000021F580913703831320C014963C901497D6
:102210003320D9F0409139034850550B20913803B1
:10222000022F10E0102F0027040F151F40913403D8
:1022300050913503542745275427ED91FC912CE309
:1022400033E06CE273E00995232DFFEF8F1A9F0AAC
:1022500035E0A30EB11CBFCF222309F491CF97CD57
:102260000E94E30220910903223081F5212F207181
:102270001271123101F560E090E080E00E941F06CB
:1022800088E18093410383E0809309031092220345
:1022900088E2809323030E947C03109244031092EF
:1022A000450322E04CE150E06AE182E30E94290309
:1022B00086E390E0B4C0D09209030196222311F086
:1022C00090E080E064E00E941F0661CD253009F4B3
:1022D0005ECD10FF0AC0233009F459CD69E00196A4
:1022E0000E941F060093090352CD60E0009709F495
:1022F0004ECDE9CF81114BCD80913703803509F068
:1023000046CD1091410311FF37C010922203609215
:1023100023030E940D0642E14093410360E081E007
:1023200090E00E94FE0210923803109239038091CF
:10233000360180933A0310923B038D5F8093360100
:10234000C092480384E08093490385E080934A0368
:1023500010924B0390E6909340038093420388E7EA
:102360008093430322E040E250E06AE182E30E946E
:1023700029038AE390E053C014FF09CD0E94E302D1
:10238000892B09F004CD10FF02CD60E090E080E0E1
:102390009ACF99E2E916F10409F4F9CC8111F7CC4E
:1023A00080912003853409F0F2CC44E050E063E1F1
:1023B00075E080E393E00E947312892BA9F044E05A
:1023C00050E064EC72E080E393E00E947312892B8A
:1023D00059F044E050E068E371E080E393E00E944C
:1023E0007312892B09F0D3CC80912903813009F035
:1023F000C3CE90913403983009F0BECE0E940D06F2
:102400001092340380913603883F28F0909137036F
:102410009F5F90933703885F80933603C7010E94C4
:102420003D04B5CCFB01DC0102C005900D9241508A
:102430005040D8F70895F999FECF92BD81BDF89A22
:10244000992780B50895262FF999FECF1FBA92BD1E
:1024500081BD20BD0FB6F894FA9AF99A0FBE019685
:102460000895A1E21A2EAA1BBB1BFD010DC0AA1FD5
:10247000BB1FEE1FFF1FA217B307E407F50720F0ED
:10248000A21BB30BE40BF50B661F771F881F991F68
:102490001A9469F760957095809590959B01AC01B1
:1024A000BD01CF0108950E946412A59F900DB49FB5
:1024B000900DA49F800D911D11240895EE0FFF1F14
:1024C0000590F491E02D0994A29FB001B39FC00143
:1024D000A39F700D811D1124911DB29F700D811D50
:1024E0001124911D0895FB01DC0104C08D91019020
:1024F000801921F441505040C8F7881B990B08956A
:04250000F894FFCF7D
:1025040041726475696E6F2D454E4332386A3630B8
:102514002D3030000000000000000000000000002A
:10252400FFFFFF0008080808000000017062212D69
:102534003100C0A801FF0A01FFFFFFFFFFFF0000F9
:1025440000005701B700E400A4011501F3000701DE
:102554000D0A00535761726475696E6F20203A202A
:102564002030322D4A616E2D32303234004C6F618E
:1025740064696E672073746F726564207365747424
:10258400696E67732E005570646174696E67207399
:10259400746F72656420646174612E005374617297
:1025A40074696E672045746865726E6574202E2E9A
:1025B4002E0045746865726E657420636F6E747264
:1025C4006F6C6C657220666F756E642E00495020C6
:1025D400416464726573733A20202020200053659F
:1025E4007269616C20646174612064697361626CF6
:1025F40065642E0045746865726E6574206361625B
:102604006C65206E6F7420636F6E6E6563746564B1
:102614002E0045746865726E657420636F6E747203
:102624006F6C6C6572206E6F7420666F756E642EAD
:102634000053657269616C206461746120656E6128
:10264400626C65642E0046696E6973686564205324
:08265400657475702E002C0066
:00000001FF
