:100000000C946D000C9495000C9495000C94950044
:100010000C9495000C9495000C9495000C9495000C
:100020000C9495000C9495000C9495000C949500FC
:100030000C9495000C9495000C9495000C949500EC
:100040000C94C0080C9495000C948E080C946808CD
:100050000C9495000C9495000C9495000C949500CC
:100060000C9495000C9495000000000023002600DD
:1000700029006382536300010800060400010000A8
:100080000000250028002B000000000800020100ED
:100090000003040700000000000000000000000052
:1000A000240027002A0001020408102040800102D9
:1000B00004081020010204081020040404040404AD
:1000C00004040202020202020303030303034500C5
:1000D00000820000400020000A0911241FBECFEF5B
:1000E000D8E0DEBFCDBF12E0A0E0B1E0E0E6F7E28D
:1000F00002C005900D92A437B107D9F725E0A4E717
:10010000B2E001C01D92AC3EB207E1F710E0CDE6CF
:10011000D0E004C02197FE010E948C13CC36D10799
:10012000C9F70E944F090C94AE130C940000CF93B2
:10013000DF9320912F052223C1F0FC01208122238F
:10014000A1F0CFE2D5E0ABE2B5E09C012C5F3F4FE0
:10015000899141919D918427892339F4E217F3070E
:10016000B9F781E0DF91CF91089580E0FBCFAF92A6
:10017000BF92CF92DF92EF92FF920F931F93CF9394
:10018000DF936C017B018B01040F151FEB015E01F6
:10019000AE18BF08C017D10759F06991D601ED918B
:1001A000FC910190F081E02DC6010995892B79F72A
:1001B000C501DF91CF911F910F91FF90EF90DF90DC
:1001C000CF90BF90AF900895FC01538D448D252FA3
:1001D00030E0842F90E0821B930B541710F0CF96E1
:1001E000089501970895FC01918D828D981761F013
:1001F000A28DAE0FBF2FB11D5D968C91928D9F5F2A
:100200009F73928F90E008958FEF9FEF0895FC0108
:10021000918D828D981731F0828DE80FF11D858DBB
:1002200090E008958FEF9FEF0895FC01918D228D4E
:10023000892F90E0805C9F4F821B91098F739927D3
:10024000089583E395E00E94150121E0892B09F4CC
:1002500020E0822F089580E090E0892B29F00E9411
:10026000210181110C9400000895FC01A48DA80FB8
:10027000B92FB11DA35ABF4F2C91848D90E00196E8
:100280008F739927848FA689B7892C93A089B18908
:100290008C91837080648C93938D848D981306C0A9
:1002A0000288F389E02D80818F7D80830895EF920D
:1002B000FF920F931F93CF93DF93EC0181E0888F20
:1002C0009B8D8C8D98131AC0E889F989808185FFF0
:1002D00015C09FB7F894EE89FF896083E889F98992
:1002E00080818370806480839FBF81E090E0DF9194
:1002F000CF911F910F91FF90EF900895F62E0B8DE7
:1003000010E00F5F1F4F0F731127E02E8C8D8E11A1
:100310000CC00FB607FCFACFE889F989808185FF08
:10032000F5CFCE010E943501F1CFEB8DEC0FFD2F03
:10033000F11DE35AFF4FF0829FB7F8940B8FEA89C3
:10034000FB8980818062CFCFCF93DF93EC01888DD2
:100350008823B9F0AA89BB89E889F9898C9185FD40
:1003600003C0808186FD0DC00FB607FCF7CF8C91CE
:1003700085FFF2CF808185FFEDCFCE010E94350150
:10038000E9CFDF91CF910895833081F028F4813057
:1003900099F08230A9F008958730A9F08830C9F02B
:1003A0008430B1F4809180008F7D03C08091800003
:1003B0008F7780938000089584B58F7784BD0895EA
:1003C00084B58F7DFBCF8091B0008F778093B00094
:1003D00008958091B0008F7DF9CF1F93CF93DF9365
:1003E000282F30E0F901E857FF4F8491F901EA55D1
:1003F000FF4FD491F901E654FF4FC491CC23A9F0EB
:10040000162F81110E94C401EC2FF0E0EE0FFF1FA8
:10041000E258FF4FA591B4918FB7F894EC91111168
:1004200008C0D095DE23DC938FBFDF91CF911F9161
:100430000895DE2BF8CFCF93DF9390E0FC01EA55CF
:10044000FF4F249186549F4FFC0184918823C9F06B
:1004500090E0880F991FFC01E456FF4FA591B491DD
:10046000FC01E258FF4FC591D49161110DC09FB7B7
:10047000F8948C91209582238C938881282328835B
:100480009FBFDF91CF910895623051F49FB7F894E8
:100490003C91822F809583238C93E8812E2BEFCF84
:1004A0008FB7F894EC912E2B2C938FBFEACF3FB7E8
:1004B000F89480917C0290917D02A0917E02B0918F
:1004C0007F0226B5A89B05C02F3F19F00196A11DFC
:1004D000B11D3FBFBA2FA92F982F8827BC01CD018E
:1004E000620F711D811D911D42E0660F771F881FED
:1004F000991F4A95D1F708958F929F92AF92BF921C
:10050000CF92DF92EF92FF924B015C010E94570263
:100510006B017C010E9457026C197D098E099F09AD
:10052000683E734081059105A8F321E0821A910885
:10053000A108B10888EEC80E83E0D81EE11CF11CAA
:1005400081149104A104B10429F7FF90EF90DF908A
:10055000CF90BF90AF909F908F9008952FB7F89451
:10056000609178027091790280917A0290917B0279
:100570002FBF089580913E0390913F0398278927CC
:100580009827449720915C0330E044E03595279507
:100590004A95E1F7220F331F220F331F821B930B63
:1005A00097FF02C090E080E00895209152033091BF
:1005B0005003309352032093500320915303309102
:1005C00051033093530320935103EEE2F3E021A54E
:1005D000820F911D25A585A7662381F021A7892F6C
:1005E0009927319723E0EA32F20789F710926003E6
:1005F0001092610380E580935C03089511A6EFCF0C
:100600000F931F93CF93DF9370E0625D7C4F8A015D
:10061000075F1F4F213029F0223031F48A01025048
:10062000110930E020E003C000E010E09801EB0188
:10063000FA01E230F10558F0A991B991BA27AB2738
:10064000BA270A0F1B1F211D311D3297F2CFFA0165
:10065000EE7F6E0F7F1F4E175F0769F0FB01408131
:1006600050E070E060E0762F652F542F4427040F90
:10067000151F261F371FA90166277727411551052A
:100680006105710519F022273327F1CF00951095E8
:10069000E82FF0E0E25DFC4F10830183DF91CF9102
:1006A0001F910F910895EEE2F3E0108E118E80E419
:1006B000848B158A868B20E044E150E06EE088E16F
:1006C0000C9400038EBD0DB407FEFDCF089561E0CC
:1006D000809183020E94ED0178940895F89460E07F
:1006E000809183020C94ED010F931F93CF93DF93BE
:1006F000EC018B010E946E032097B9F08AE30E94FF
:1007000062031EBCF801CE01019739F00DB407FE5B
:10071000FDCF2EB51EBC2193F7CF2197C00FD11F5F
:100720000DB407FEFDCF8EB58883DF91CF911F9169
:100730000F910C9467031F93CF93DF93182FC62F4D
:10074000D42F0E946E038C2F8F71812B0E94620325
:100750008D2F0E946203DF91CF911F910C9467034C
:10076000CF93C82FC076809176028C1799F043E022
:100770006FE180EA0E949B03C09376024C2F50E009
:1007800085E0559547958A95E1F76FE180E8CF912F
:100790000C949B03CF910895CF93DF93C82FD62F4E
:1007A0000E94B0034D2F6C2F80E4DF91CF910C9409
:1007B0009B03CF93DF93C82FD72F0E94CC036D2FBD
:1007C00081E08C0FDF91CF910C94CC03CF93C82F95
:1007D0000E94B0030E946E038C2F8F710E946203EF
:1007E00080E00E946203C7FF03C080E00E946203B2
:1007F000CEB50E9467038C2FCF91089561E184EDFF
:100800000E94CC0361E082ED0E94CC038AEE0E943C
:10081000E60380FDFBCF60E082ED0E94CC0389ED12
:100820000E94E60390E00895CF93DF93EC0140E847
:100830006FE180E80E949B0340E86FE180EA0E943C
:100840009B034AE06CE180EA0E949B0360E07CE04D
:1008500082E00E94D903BE01745F86E00E94D90342
:1008600040E060E08AE70E949B030E946E032097AD
:10087000B1F08AE70E94620380912E038EBDEFE201
:10088000F3E0C25DDC4FEC17FD0731F081910DB450
:1008900007FEFDCF8EBDF7CF0DB407FEFDCF0E9442
:1008A000670348E06FE180E80E949B03D0E0C0E06E
:1008B0008CE10E94E6038A7029F42196C83E83E009
:1008C000D807B1F78CE10E94E60381FD03C0C83E62
:1008D000D34039F448E06FE180EADF91CF910C9486
:1008E0009B03DF91CF9108950F931F93CF93DF93D5
:1008F000EC010EE213E04C96F801908B818B0E9484
:100900005303CE010896F80196A387A3AE01405F7A
:100910005F4F21E06AE188E20E940003CE018A96DF
:10092000DF91CF911F910F910C941404CF93DF931B
:10093000EB01682F84ED0E94CC03BE0186ED0E947E
:10094000D9038AEE0E94E60380FDFBCFDF91CF91B1
:100950000895CF92DF92EF92FF920F931F93863408
:10096000910568F120915103233449F5C0905C034F
:10097000D0905D03E0905E03F0905F030091C902A8
:100980001091CA022091CB023091CC02C016D10640
:10099000E206F306A1F4E8E4F4E0825D9C4F9F01D7
:1009A0002E5F3F4F41815081553319F452816517B5
:1009B00071F0F901E40FF11DE817F90780F380E009
:1009C0001F910F91FF90EF90DF90CF90089581E0FD
:1009D000F7CFE0917402F09175029F012F5F3F4FB6
:1009E000309375022093740280830895FF920F93D1
:1009F0001F93CF93DF93162FF42E052F0E94E90447
:100A0000812F0E94E904CF2DD02F115020F0899121
:100A10000E94E904FACFDF91CF911F910F91FF90CF
:100A20000895CF93DF939C01AC01445151094230AA
:100A30005105D8F48E50806480937C0080917A00B8
:100A4000806480937A0080917A0086FDFCCF80914B
:100A5000780020917900322F282F81E0253F314006
:100A60000CF480E0DF91CF910895FC01E857FF4F2F
:100A70008491F901EA55FF4FD491F901E654FF4FF3
:100A8000C491CC2379F081110E94C401EC2FF0E0D5
:100A9000EE0FFF1FE859FF4FA591B491EC91ED23A4
:100AA00081E009F480E08170DDCF80918B028823A2
:100AB00039F00E94FE0396958795969587958170EB
:100AC0000895FC0101900020E9F73197AF01481B20
:100AD000590BBC0183E395E00C94B7008F929F9271
:100AE000AF92BF920F931F93CF93DF93CDB7DEB733
:100AF000A1970FB6F894DEBF0FBECDBF19A242304A
:100B000008F44AE08E010F5D1F4F842E912CB12C0A
:100B1000A12CA50194010E945F13E62FB901CA011F
:100B2000EA30F4F4E05DD801EE938D01232B242B01
:100B3000252B79F790E080E0109719F0CD010E9405
:100B40006105A1960FB6F894DEBF0FBECDBFDF9151
:100B5000CF911F910F91BF90AF909F908F9008956C
:100B6000E95CE1CFCF93DF930E946105EC018DE555
:100B700091E00E9461058C0F9D1FDF91CF91089538
:100B8000DC0196E0FB0101900D929A95E1F7089542
:100B9000CF93DF93EB0144E050E0BC018AE493E0A3
:100BA0000E94A113892B49F464E473E0CE010E94F2
:100BB000C00581E0DF91CF91089580E0FBCFBC01BB
:100BC0008EE293E00E94C0056AED72E084E393E058
:100BD0000C94C005DC0194E0FB0101900D929A9504
:100BE000E1F708950F931F93CF938C0185E491E073
:100BF0000E94DF05EEE2F3E088E08487C6E0C58767
:100C000048E050E066E770E08CE393E00E94401318
:100C1000EEE4F3E0DF011D92CA95E9F76AED72E0B8
:100C200084E493E00E94C005B80184E593E00E944B
:100C3000EA056FE275E08AE493E00E94EA058AE241
:100C400090E0CF911F910F910C94140484E393E0F2
:100C50000E94DF0568E473E08CE493E00E94EA05FB
:100C60006FE275E088E493E00E94EA050C94530378
:100C7000262F206120935D03643021F0009711F44A
:100C800081E090E061E00E94D50210923E0388E28C
:100C900080933F030E94260684E080935E031092B7
:100CA0005F0322E04CE150E06AE182E30E9400032E
:100CB00086E390E00C941404CF93DF93EB010E9441
:100CC000DF05BE018CE493E00E94EA056FE275E067
:100CD00088E493E0DF91CF910C94EA05EF92FF92C4
:100CE0000F931F93CF93DF93182F092FEB01F42E4F
:100CF000E52ECB010E949700BE01882309F447C06E
:100D00008DE093E00E945C068881807F803E91F0B8
:100D100088819981AA81BB818F3F9F4FAF4FBF4F81
:100D200049F044E050E0BE0180EE92E00E94A11341
:100D3000892B31F465E471E08EE293E00E94C005F6
:100D400088E080933A0310923B0349E050E06EEC58
:100D500070E08CE393E00E94401310923E0381E127
:100D600080934503E0925203F092530300935003A3
:100D7000109351031092540310925603109257038C
:100D8000DF91CF911F910F91FF90EF90089583E134
:100D900093E0B8CFEF92FF920F931F93CF938C0104
:100DA000EEE2F3E086E191E0DF019C011D9221502B
:100DB0003040E1F78091D90265E471E0833011F4AD
:100DC00064EC72E043E450E084E490E00E946E063C
:100DD00065E471E08EE293E00E94C00581E08093BB
:100DE00058038093590386E080935A038091C90287
:100DF0009091CA02A091CB02B091CC0280935C0387
:100E000090935D03A0935E03B0935F03C091D902FA
:100E1000C33031F46FE275E084E693E00E94EA05A6
:100E20006AED72E084E793E00E94C00584E494E0F8
:100E30009093750280937402E2E7F0E084910E943F
:100E4000E904E3E7F0E084910E94E904E4E7F0E0DC
:100E500084910E94E904E5E7F0E084910E94E904AE
:100E600085E30E94E90481E00E94E90483E0C11166
:100E700001C081E00E94E9048DE30E94E90487E05B
:100E80000E94E90481E00E94E9048AEDE82E82E0F4
:100E9000F82EC7E0C15031F0D7018D917D010E943D
:100EA000E904F8CF80910001882371F060E071E0DF
:100EB000FB0101900020E9F7BF016150714040E063
:100EC00051E08CE00E94F6040115110559F0A801CB
:100ED00064E082E30E94F60444EC52E064E086E3BE
:100EE0000E94F60487E30E94E90483E00E94E9047B
:100EF00081E00E94E90483E00E94E90486E00E9408
:100F0000E9048FEF0E94E9048091740290917502C8
:100F100088559340CF911F910F91FF90EF900C94C3
:100F20007404FF920F931F93CF93DF93EC01F62E7F
:100F300008811981C8010E944913F81621F06F2D0C
:100F4000C8010E945113CE01DF91CF911F910F91E3
:100F5000FF900895EF92FF920F931F93CF93DF932B
:100F600000D0CDB7DEB780E691E00E94B2051A82CC
:100F7000198263E2CE0101960E94910781E090E020
:100F80009A8389836AE5CE0101960E94910784E0E5
:100F900090E09A83898363E0CE0101960E949107D5
:100FA00080EDE82E85E0F82E0EE610E01A83098326
:100FB000F70161917F01CE0101960E9491070F5FB9
:100FC0001F4F0A38110591F70F900F90DF91CF91C5
:100FD0001F910F91FF90EF900895CF93DF93FC0145
:100FE00080819181873F2EE7920731F08D3B9F47AB
:100FF00029F1DF91CF91089566307105D0F3DF01BB
:101000009F012B5F3F4F90E080E04D91840F911D39
:101010002A173B07D1F795819813EBCF82818093F4
:10102000E80583818093E90584818093EA050E9425
:10103000AA07F0E0E0E0DF91CF91099469317105F2
:10104000C0F29F01285E3F4FDF0190E080E04D91AC
:10105000840F911DA217B307D1F7908D9813C9CFB4
:1010600082818093D60582818093D5058381809388
:10107000D10584818093D20585818093D3058681B3
:101080008093D405EF012796A0EDB5E09F01295E7E
:101090003F4F9FEF8991833068F018968C93189793
:1010A0001196C217D307B1F78789833038F0809340
:1010B000D705BDCF18969C931897F2CF8FEFF7CF37
:1010C0000F931F93C901B8011F910F910C94ED0765
:1010D0001F920F920FB60F9211242F933F934F93AD
:1010E0005F936F937F938F939F93AF93BF93EF9390
:1010F000FF9383E395E00E943501FF91EF91BF914B
:10110000AF919F918F917F916F915F914F913F919F
:101110002F910F900FBE0F901F9018951F920F9256
:101120000FB60F9211242F938F939F93EF93FF93FA
:10113000E0914305F09144058081E0914905F091EB
:101140004A0582FD1BC0908180914C058F5F8F7393
:1011500020914D05821741F0E0914C05F0E0ED5CE7
:10116000FA4F958F80934C05FF91EF919F918F914E
:101170002F910F900FBE0F901F9018958081F4CF84
:101180001F920F920FB60F9211242F933F938F93BC
:101190009F93AF93BF938091780290917902A09131
:1011A0007A02B0917B023091770223E0230F2D3732
:1011B00058F50196A11DB11D209377028093780206
:1011C00090937902A0937A02B0937B0280917C0283
:1011D00090917D02A0917E02B0917F020196A11DA7
:1011E000B11D80937C0290937D02A0937E02B09308
:1011F0007F02BF91AF919F918F913F912F910F905F
:101200000FBE0F901F90189526E8230F0296A11D80
:10121000B11DD2CFE3E3F5E01382128288EE93E0B2
:10122000A0E0B0E084839583A683B7838FE491E048
:101230009183808385EC90E09587848784EC90E0AF
:101240009787868780EC90E0918B808B81EC90E093
:10125000938B828B82EC90E0958B848B86EC90E074
:10126000978B868B118E128E138E148EE0EDF5E027
:10127000108285E0818383E0828381E1838380E142
:10128000848383E1858386838FEF878380EC808FDF
:1012900088EA818F81E0828F82E6838F0895CF93E1
:1012A000DF93CDB7DEB765970FB6F894DEBF0FBEFC
:1012B000CDBF789484B5826084BD84B5816084BDDF
:1012C00085B5826085BD85B5816085BD80916E00E4
:1012D000816080936E001092810080918100826015
:1012E0008093810080918100816080938100809152
:1012F00080008160809380008091B1008460809341
:10130000B1008091B00081608093B00080917A003C
:10131000846080937A0080917A00826080937A0062
:1013200080917A00816080937A0080917A00806851
:1013300080937A001092C100E0914305F09144053A
:1013400082E08083E0913F05F09140051082E091BA
:101350004105F091420583E3808310924B05E091B3
:101360004705F091480586E08083E0914505F091BE
:101370004605808180618083E0914505F0914605B6
:10138000808188608083E0914505F09146058081E9
:1013900080688083E0914505F091460580818F7DCE
:1013A000808368EB7BE080E090E00E947C028FE528
:1013B00091E00E94B2058FE591E00E94B2058FE5B1
:1013C00091E00E94B20590E080E00E944913898379
:1013D00081E090E00E9449138A8384E090E00E94BB
:1013E000491329813A8123323A4509F0E8C1833013
:1013F00009F0E5C18AE791E00E94B20500ED15E031
:1014000068019EE6E92EF12CC7010E944913D6011E
:101410008D936D01BFEFEB1AFB0AEAE8EE16F104BB
:1014200099F78091D10525E431E0E8E3F1E041E06E
:10143000E534F40709F4BFC19191891711F08F3F8A
:10144000B1F79091D205E8E3F1E081E051E0E534B5
:10145000F50709F4AEC18191981719F080E09F3F1C
:10146000A9F79091D305E8E3F1E081E02E173F075B
:1014700009F4E0C18191981719F080E09F3FB1F71E
:101480009091D405E8E3F1E081E02E173F0709F4DD
:10149000D5C18191981719F080E09F3FB1F79091E5
:1014A000D505E8E3F1E081E0A1E0E534FA0709F4CD
:1014B000C9C18191981719F080E09F3FA9F79091D9
:1014C000D605E8E3F1E081E0B1E0E534FB0709F49B
:1014D000BDC18191981719F080E09F3FA9F79091C5
:1014E000D705E8E3F1E081E021E0E534F20709F413
:1014F000B1C18191981719F080E09F3FA9F7E8E307
:10150000F1E081E041E0E534F40709F4A6C1D80137
:1015100018969C918191981719F080E09F3F91F760
:101520000F5F1F4FB5E0003E1B0749F78FE591E0C5
:101530000E94B2058DEA91E00E94B20587EB91E02E
:101540000E9461054AE069EE77E080E090E00E9449
:101550006E058DED91E00E9461054AE067E070E064
:1015600080E090E00E946E058DED91E00E946105A3
:101570004AE067E170E080E090E00E946E058DE552
:1015800091E00E9461058091D1058F3F19F062E0E2
:101590000E941B028091D2058F3F19F062E00E94E9
:1015A0001B028091D3058F3F19F062E00E941B025D
:1015B0008091D4058F3F19F062E00E941B02809158
:1015C000D5058F3F19F062E00E941B028091D6057D
:1015D0008F3F19F062E00E941B028091D7058F3F78
:1015E00019F062E00E941B0288EEE82E85E0F82EDA
:1015F00008ED15E0D8018D918D018F3F19F062E063
:101600000E941B02E016F106A9F78FE591E00E9407
:10161000B20589EC91E00E94B2058091D005845416
:101620008093EB053091E80539832091E9052A8301
:101630009091EA059B838C8340919402411105C0EF
:101640008093310181E08093940280918C0281111A
:1016500009C0309328012093290190932A0181E049
:1016600080938C02309332012093330190933401A4
:101670001FB7F89480918002811127C0E4ECF0E05C
:101680008491E0EBF0E09491E82FF0E0EE0FFF1F83
:10169000E456FF4FA591B491EC91E92321F461E068
:1016A0008AE00E94ED0161E08AE00E941B028CB595
:1016B00080618CBD8CB580648CBD61E08DE00E9442
:1016C0001B0261E08BE00E941B02809180028F5F11
:1016D000809380021FBF109282021092810280913B
:1016E000810281113CC064EF71E080E090E00E94D3
:1016F0007C028DED91E00E946105F89460E08AE043
:101700000E94ED018FEF0E9462038FEF0E9462033F
:1017100061E08AE00E94ED01789462E070E080E090
:1017200090E00E947C02F89460E08AE00E94ED0163
:101730008DE10E94620380E00E9462031EB561E0B9
:101740008AE00E94ED0178941170109381028091DB
:1017500082028F5F80938202863008F4C0CF80912E
:10176000810280938B02882309F4C3C210922D0357
:1017700087E390E0C12CD12C7601C394009709F443
:101780006FC0FC01A3E0F595E795AA95E1F7EC574A
:10179000FD4F282F2770B701A60104C0440F551F25
:1017A000661F771F2A95D2F72081242B208301976B
:1017B000E5CF811156CE88E592E00E94B20583E91B
:1017C00091E00E94B20583E08093D10585E080938B
:1017D000D20581E18093D30580E18093D40583E134
:1017E0008093D5058093D6058FEF8093D70580EC45
:1017F0008093E80588EA8093E90581E08093EA0513
:1018000082E38093EB0582E18093D80589E08093A1
:10181000D90586E08093DA0584E08093DB05ECED62
:10182000F5E08FEF819325E0E83EF207D9F70E94BB
:10183000AA077CCE882309F4BECF22CE882309F4E0
:10184000BACF2DCE882309F4B6CF39CE882309F438
:10185000B2CF45CE811153CEAECF811161CEABCF89
:101860006CE271E08AED92E00E94C00584EF91E0A5
:1018700090932305809322050CB406FC25C061E0FB
:101880008AE00E941B0261E08AE00E94ED0161E0B3
:101890008BE00E941B0261E08DE00E941B0260E071
:1018A0008CE00E941B0261E08BE00E94ED0160E091
:1018B0008BE00E94ED0160E08DE00E94ED0180E58B
:1018C0008CBD8DB581608DBD8AE08093830261E01F
:1018D0000E941B020E9467034FEF60E08FEF0E949F
:1018E0009B0362E070E080E090E00E947C020E9436
:1018F0006E038DE10E94620380E00E9462031EB5C8
:101900000E946703112399F370E060E088E00E9471
:10191000D90370E060E08CE00E94D9036FEF7BE0B8
:101920008AE00E94D90360E07CE084E00E94D90351
:101930006FEF71E186E00E94D90366E774E084E10D
:101940000E94960461EB88E30E94CC036FE370E38E
:1019500088E20E94D90369EF77EF80E30E94D90300
:1019600061E080EC0E94CC0342E362EC80E80E94DC
:101970009B0362E17CE086EC0E94D90362E184EC87
:101980000E94CC036CED75E08AEC0E94D903609153
:10199000DA0284EE0E94CC036091DB0285EE0E94A5
:1019A000CC036091DC0282EE0E94CC036091DD02E8
:1019B00083EE0E94CC036091DE0280EE0E94CC0395
:1019C0006091DF0281EE0E94CC0360E071E080E173
:1019D0000E9496048FE10E94B00340EC6BE180E826
:1019E0000E949B0344E06FE180E80E949B0382E732
:1019F0000E94E6038FE591E00E94B2058FED91E031
:101A00000E94B20510922D03BE016F5F7F4F8FE2DF
:101A100095E00E94EA0510922B0310922A0381E0C0
:101A200080932C0368E271E086E293E00E94EA056D
:101A300064E271E081E293E00E94EA0560E271E015
:101A40008BE295E00E94EA050FE215E02BE235E01B
:101A500040EE52E0F8019191D9018D919D01809560
:101A6000892BDA018D93AD01B5E0E333FB0799F7DC
:101A700080910C03883098F425E0829FF0011124B6
:101A8000EC51FD4F20E638E03183208328ED30E72C
:101A90003383228391E094838F5F80930C0364EF00
:101AA00071E080E090E00E947C020E94550588234E
:101AB00009F41AC18AEF91E00E946105F12CD80166
:101AC0006D918D0170E090E080E04AE00E946E052B
:101AD000B3E0FB1629F06EE283E395E00E94570124
:101AE000F394E4E0FE12EBCF8DE591E00E946105F6
:101AF0008FE591E00E94B20588E492E00E94B20571
:101B00004E01FAE08F0E911CAA24A394B12C1E0161
:101B100029E0220E311C0E94AE020091270510918F
:101B200028052091290530912A05601B710B820B35
:101B3000930B6B3F71058105910508F4BDC00E94B0
:101B4000AE02609327057093280580932905909332
:101B50002A05D401E8E01D92EA95E9F7FAE6F9834F
:101B60002FE72A831B828091D1058F3F31F090E0CF
:101B70000E94110591E089278B878091D2058F3FC4
:101B800031F090E00E94110591E089278C878091C7
:101B9000D3058F3F31F090E00E94110591E0892735
:101BA0008D878091D4058F3F31F090E00E94110520
:101BB00091E089278E878091D5058F3F31F090E0A5
:101BC0000E94110591E089278F878091D6058F3F6C
:101BD00031F090E00E94110591E08927888B809177
:101BE000D7058F3F21F090E00E941105898BF40109
:101BF00090E080E02191222349F02B81A501082E5D
:101C000001C0440F0A94EAF7242B2B8301968830F5
:101C1000910581F71C821D8208ED15E0D12CC12CA5
:101C2000D8018D918D018F3F99F090E0B8E0CB16EF
:101C3000D1040CF065C00E941105811109C08C818E
:101C400095010C2C01C0220F0A94EAF7822B8C8399
:101C5000EFEFCE1ADE0AF0E1CF16D10409F723E246
:101C60002E834AE54F83FE01319690E080E08F019C
:101C70002191820F911D2E163F06D1F789870E9470
:101C800055058823A1F04FE255E762E371E088E350
:101C900098E10E946E0689E0F801A8E5B3E00190A2
:101CA0000D928A95E1F789E090E00E9474040FB6E6
:101CB000F894DEBF0FBECDBF83E395E00E9415010F
:101CC000892B09F461C083E395E00E941501C39755
:101CD00064F183E395E00E941501892B01F183E310
:101CE00095E00E94F300F5CF8BE092E00E94B205F0
:101CF000FFCE8FE591E00E94B20589E292E0F6CF37
:101D00000E9411058111A4CFC6010897950101C059
:101D1000220F8A95EAF78D81822B8D8399CF1092BD
:101D2000C3021092C2021092C1028091C1028823A4
:101D300009F464C10091C00210E083E395E00E94C1
:101D4000150198012250310982179307ECF0EFE951
:101D5000EE2EE2E0FE2EC7018D59924080179107CA
:101D600044F483E395E00E94F300D7018D937D0155
:101D7000F2CFB8018DE992E00E94ED071092C30204
:101D80001092C2021092C1020E945505882309F4E4
:101D900028C180912605882379F0609124057091EF
:101DA00025056115710509F053C16FEF7BE08CE0EB
:101DB0000E94D9031092260589E30E94E603F12CC4
:101DC000E12C8823D9F1609124057091250580E0EC
:101DD0000E94D903BE016F5F7F4F86E090E00E94B2
:101DE000740389819A8190932505809324058D81C0
:101DF0009E817C01F0E8EF22FF2487FF13C08B81D6
:101E00009C810497E0902205F090230521E0E21ADE
:101E1000F1088E159F0508F47C016EE273E0C7019E
:101E20000E947403F701E25DFC4F108281E0809311
:101E3000260540E46EE180E80E949B0380912D031B
:101E4000882369F08091D902823009F40AC108F030
:101E500002C1882309F48DC1813009F4A9C1E114BC
:101E6000F10409F034C280912C03857099F08091BF
:101E70002A0390912B03892B69F40E94FE0382FFB1
:101E800009C086E293E00E94F20580912C038860ED
:101E900080932C0380912A0390912B0301969093B9
:101EA0002B0380932A0380912503813009F06FC0B2
:101EB00080912C0381FF6BC082E080932503809189
:101EC00037018F5F80933701182F1F718BE193E0EB
:101ED0000E9497006BE173E0882309F4F5C18DE05F
:101EE00093E00E945C0698E090933A0310923B03C3
:101EF00049E050E06EEC70E08CE393E00E94401308
:101F00008CE280933F0386E0809345030E94530355
:101F100010925203109253038BE08093500310935E
:101F20005103E4E5F3E0DF0128E01D922A95E9F78B
:101F300080913601809356038D5F8093360180E651
:101F400080935C0382E080935D0393E090935E0353
:101F500010925F031092600310926103109262036B
:101F6000109263038093640394E0909365038093DD
:101F7000660386E28093670322E040E250E06AE174
:101F800082E30E9400038AE390E00E94140481E24D
:101F900093E00E949700882379F0809120038111BB
:101FA0000BC080911F03811107C081E293E00E9462
:101FB000F20581E080931F038BE193E00E9497007C
:101FC000882379F080911A0381110BC08091190345
:101FD000811107C08BE193E00E94F20581E08093BC
:101FE000190380E090E0892B09F495CD0E9421012E
:101FF000882309F490CD0E9400008DCD8091C2020B
:102000009091C302873FBEE79B07C9F08D3B9F4776
:10201000E9F083E395E00E94F30090919C028B8BA2
:102020001A8A2A893B89292B3093C3022093C20242
:1020300090939D0280939E0280939C02A5CE86E0A1
:102040008093C00281E08093C1029ECE89E1F8CFE7
:1020500061507109ACCE833009F456C0843009F068
:10206000FECE65E0C7010E94A904882309F4C9C017
:102070008091C802811108C088E30E94E603682F9E
:102080006E7F88E30E94CC0368E673E08FE295E000
:102090000E94EA05E8E4F4E08701025D1C4F6F014D
:1020A00022E0C20ED11C71808081863009F4FBC011
:1020B00008F0BEC0813009F4ECC0833009F4EFC0F1
:1020C000F601E70DF11DE017F10748F30E94AE029B
:1020D0006093D1027093D2028093D3029093D40282
:1020E00080912603882361F010922B0310922A031B
:1020F00081E080932C0366E273E0CB010E94EA0545
:1021000083E08093D902ABCE4090D5025090D602A6
:102110006090D7027090D8024FEF441654066406C0
:10212000740609F49CCE0E94AE020091D102109177
:10213000D2022091D3023091D402601B710B820B2A
:10214000930B641575058605970508F488CE8FE214
:1021500095E00E94CA0684E08093D9020E94AE02F4
:102160006093CD027093CE028093CF029093D00201
:1021700076CE0E94AE026093C9027093CA02809329
:10218000CB029093CC02EFE2F5E084E0DF011D92F8
:102190008A95E9F790E080E00E94CA0688E30E94F1
:1021A000E603682F616088E30E94CC0381E0D4CF0E
:1021B00062E0C7010E94A904882319F168E673E070
:1021C000CE0101960E94EA05E8E4F4E0C701825DD1
:1021D0009C4FBF016E5F7F4F21813081363351F4B8
:1021E00084EC92E00E94EA05CE0101960E94CA06A4
:1021F00082E0B2CFFB01E20FF11DE817F90748F3C7
:10220000F3CF0E94AE020091CD021091CE02209138
:10221000CF023091D002601B710B820B930B6131A6
:1022200077428105910508F41ACE1092D90217CE93
:102230008A3331F08F3F09F449CF833309F040CF1F
:102240001092D5021092D6021092D7021092D802A4
:10225000F601C601049620E030E0A9016191542FF7
:10226000432F322F2227260F311D411D511D8E175E
:102270009F07A1F72F3F8FEF380748075807B9F49A
:102280002093D5023093D6024093D7025093D802C0
:1022900017CFB6018BE295E00E94EA0511CFB60197
:1022A00086E293E0F9CFB60181E293E0F5CFA8EEA4
:1022B000B3E00E9481136093D5027093D60280939D
:1022C000D7029093D802FCCE83E193E00ACE49E294
:1022D000E416F10408F485CE80913A03883009F0C1
:1022E00080CE80913B03863009F081C144E050E00C
:1022F0006FE275E084E593E00E94A113892B09F059
:1023000070CE80914303813029F584E393E00E94ED
:10231000DF051092420382E08093430364E473E09C
:102320008EE493E00E94C0056AED72E084E493E0DD
:102330000E94C0056AE473E084E593E00E94EA0528
:102340006FE275E08AE493E00E94EA058AE290E099
:102350000E94140480912C0383FF0DC0109143034D
:10236000123049F463E173E086E293E00E94C8050D
:10237000811110932C0380912003811111C0809151
:102380001F03882369F06DE073E081E293E00E940F
:10239000C805882329F081E08093200310921F0351
:1023A00080911A0381111DCE80911903882309F4AD
:1023B00018CE6DE073E08BE193E00E94C80588239E
:1023C00009F40FCE81E080931A031092190309CE0D
:1023D00090910C03911122C056E3E516F10408F424
:1023E00000CE00914503063009F0FBCD80915203E9
:1023F0008B3009F0ABC044E050E06BE173E088E45F
:1024000093E00E94A113892B09F0EBCD10915D039D
:1024100012FF51C085E080932503E3CD8131E1F6C1
:1024200034EEC32E32E0D32E712C612C20E080914B
:102430000C0386151704D9F1D4F1D60112963C91FC
:10244000129713969C911397809152039C8B1D8A2F
:10245000EC89FD898E171F0619F5809153038313AC
:102460001FC014964C9014974420D1F0009154034F
:1024700010E0102F0027209155032850330B020F36
:10248000131F40915003509151035427452754275F
:10249000ED91FC9128E533E068E473E00995242D83
:1024A000FFEF6F1A7F0A45E0C40ED11CC0CF222374
:1024B00009F492CF96CD0E94BA02209125032230D2
:1024C00089F5212F20711271123101F560E090E041
:1024D00080E00E94380688E180935D0383E080936A
:1024E000250310923E0388E280933F030E9453032A
:1024F000109260031092610322E04CE150E06AE127
:1025000082E30E94000386E390E0B7C031E030939D
:1025100025030196222311F090E080E064E00E9400
:1025200038065FCD253009F45CCD10FF0AC023309A
:1025300009F457CD69E001960E94380600932503FF
:1025400050CD60E0009709F44CCDE9CF811149CD21
:1025500080915303803509F044CD10915D0311FF44
:1025600039C010923E038CE280933F030E942606FE
:1025700082E180935D0360E081E090E00E94D502FB
:1025800010925403109255038091360180935603A4
:10259000109257038D5F8093360182E0809364032D
:1025A00084E08093650385E080936603109267035F
:1025B00090E690935C0380935E0388E780935F03CB
:1025C00022E040E250E06AE182E30E9400038AE3F5
:1025D00090E053C014FF05CD0E94BA02892B09F088
:1025E00000CD10FFFECC60E090E080E098CF99E253
:1025F000E916F10409F4F5CC8111F3CC80913C0388
:10260000853409F0EECC44E050E06FE275E08CE4F4
:1026100093E00E94A113892BA9F044E050E060EE02
:1026200072E08CE493E00E94A113892B59F044E0FE
:1026300050E065E471E08CE493E00E94A113892BE3
:1026400009F0CFCC80914503813009F0C1CE909143
:102650005003983009F0BCCE0E9426061092500319
:1026600080915203883F28F0909153039F5F90938D
:102670005303885F80935203C7010E941404B1CCB6
:10268000FB01DC0102C005900D9241505040D8F78B
:102690000895F999FECF92BD81BDF89A992780B52A
:1026A0000895262FF999FECF1FBA92BD81BD20BD96
:1026B0000FB6F894FA9AF99A0FBE01960895A1E21E
:1026C0001A2EAA1BBB1BFD010DC0AA1FBB1FEE1FAC
:1026D000FF1FA217B307E407F50720F0A21BB30BF7
:1026E000E40BF50B661F771F881F991F1A9469F773
:1026F00060957095809590959B01AC01BD01CF01CF
:1027000008950E949213A59F900DB49F900DA49FD1
:10271000800D911D11240895EE0FFF1F0590F49177
:10272000E02D0994A29FB001B39FC001A39F700D3B
:10273000811D1124911DB29F700D811D1124911DC9
:102740000895FB01DC0104C08D910190801921F4F2
:1027500041505040C8F7881B990B0895F894FFCF5B
:1027600041726475696E6F2D454E4332386A36305A
:102770002D303000000000000000000000000000CC
:10278000FFFFFF0008080808000000017062212D0B
:102790003100C0A801FF0A0103040506090E0F104D
:1027A0001112131415FFFFFFFFFFFF000000005779
:1027B00001B700E400A4011501F30007010D0A00B0
:1027C0005570646174696E672073746F72656420FC
:1027D00073657474696E67732E004C6F6164696E03
:1027E000672073746F7265642073657474696E67B3
:1027F000732E004C6F6164696E6720646566617555
:102800006C742073657474696E67732E005357611E
:10281000726475696E6F004D6F64756C65205665E6
:102820007273696F6E3A2076005374617274696EC8
:10283000672045746865726E6574202E2E2E0045E3
:10284000746865726E657420636F6E74726F6C6C01
:10285000657220666F756E642E0049502041646475
:10286000726573733A2020202020004574686572D9
:102870006E6574206361626C65206E6F7420636F97
:102880006E6E65637465642E0045746865726E656E
:102890007420636F6E74726F6C6C6572206E6F74EF
:1028A00020666F756E642E0046696E697368656494
:1028B0002053657475702E0053746F7265642073B5
:1028C000657474696E6773206E6F742076616C69CD
:0428D000642E000072
:00000001FF
