:100000000C947F000C94A7000C94A7000C94A700FC
:100010000C94A7000C94A7000C94A7000C94A700C4
:100020000C94A7000C94A7000C94A7000C94A700B4
:100030000C94A7000C94A7000C94A7000C94A700A4
:100040000C949D070C94A7000C946B070C94450727
:100050000C94A7000C94A7000C94A7000C94A70084
:100060000C94A7000C94A70063825363000108005E
:100070000604000100000000240027002A00000000
:100080000000250028002B000000000023002600AF
:10009000290004040404040404040202020202020B
:1000A000030303030303010204081020408001023C
:1000B00004081020010204081020000000080002BB
:1000C000010000030407000000000000000046617A
:1000D000696C656420746F20616363657373204588
:1000E000746865726E657420636F6E74726F6C6C89
:1000F000657200450000820000400020560F112468
:100100001FBECFEFD8E0DEBFCDBF11E0A0E0B1E071
:10011000E6EEFFE102C005900D92A839B107D9F7CC
:1001200024E0A8E9B1E001C01D92AC39B207E1F7C3
:1001300010E0CFE7D0E004C02197FE010E94CF0F6E
:10014000CE37D107C9F70E94E7070C94F10F0C9442
:100150000000CF93DF932091FB032223C1F0FC0129
:1001600020812223A1F0CBEFD3E0A7EFB3E09C01E5
:100170002C5F3F4F899141919D918427892339F4C8
:10018000E217F307B9F781E0DF91CF91089580E09E
:10019000FBCFAF92BF92CF92DF92EF92FF920F937D
:1001A0001F93CF93DF936C017B018B01040F151F0D
:1001B000EB015E01AE18BF08C017D10759F0699175
:1001C000D601ED91FC910190F081E02DC6010995D9
:1001D000892B79F7C501DF91CF911F910F91FF9086
:1001E000EF90DF90CF90BF90AF900895FC01538DBA
:1001F000448D252F30E0842F90E0821B930B541701
:1002000010F0CF96089501970895FC01918D828D8D
:10021000981761F0A28DAE0FBF2FB11D5D968C9126
:10022000928D9F5F9F73928F90E008958FEF9FEF65
:100230000895FC01918D828D981731F0828DE80F21
:10024000F11D858D90E008958FEF9FEF0895FC01DB
:10025000918D228D892F90E0805C9F4F821B9109A8
:100260008F73992708958FEF93E00E94270121E073
:10027000892B09F420E0822F089580E090E0892BFB
:1002800029F00E94330181110C9400000895FC01B3
:10029000A48DA80FB92FB11DA35ABF4F2C91848DE7
:1002A00090E001968F739927848FA689B7892C9344
:1002B000A089B1898C91837080648C93938D848D97
:1002C000981306C00288F389E02D80818F7D80839A
:1002D0000895EF92FF920F931F93CF93DF93EC015A
:1002E00081E0888F9B8D8C8D98131AC0E889F989DD
:1002F000808185FF15C09FB7F894EE89FF896083E0
:10030000E889F98980818370806480839FBF81E060
:1003100090E0DF91CF911F910F91FF90EF900895A2
:10032000F62E0B8D10E00F5F1F4F0F731127E02E7D
:100330008C8D8E110CC00FB607FCFACFE889F989B5
:10034000808185FFF5CFCE010E944701F1CFEB8D73
:10035000EC0FFD2FF11DE35AFF4FF0829FB7F89489
:100360000B8FEA89FB8980818062CFCFCF93DF93A7
:10037000EC01888D8823B9F0AA89BB89E889F989BD
:100380008C9185FD03C0808186FD0DC00FB607FCF2
:10039000F7CF8C9185FFF2CF808185FFEDCFCE0125
:1003A0000E944701E9CFDF91CF910895833081F01A
:1003B00028F4813099F08230A9F008958730A9F0AF
:1003C0008830C9F08430B1F4809180008F7D03C003
:1003D000809180008F7780938000089584B58F7717
:1003E00084BD089584B58F7DFBCF8091B0008F7759
:1003F0008093B00008958091B0008F7DF9CFCF93A6
:10040000DF93282F30E0F901E654FF4F8491F90182
:10041000EA55FF4FD491F901EE56FF4FC491CC231A
:10042000A1F081110E94D601EC2FF0E0EE0FFF1F2A
:10043000E857FF4FA591B491EC91ED2381E090E056
:1004400009F480E0DF91CF91089580E090E0FACF49
:100450001F93CF93DF93282F30E0F901E654FF4F2D
:100460008491F901EA55FF4FD491F901EE56FF4FFF
:10047000C491CC23A9F0162F81110E94D601EC2F34
:10048000F0E0EE0FFF1FE258FF4FA591B4918FB738
:10049000F894EC91111108C0D095DE23DC938FBF46
:1004A000DF91CF911F910895DE2BF8CFCF93DF938B
:1004B00090E0FC01EA55FF4F24918E569F4FFC01BE
:1004C00084918823C9F090E0880F991FFC01EC58B3
:1004D000FF4FA591B491FC01E258FF4FC591D49113
:1004E00061110DC09FB7F8948C91209582238C9355
:1004F0008881282328839FBFDF91CF9108956230A0
:1005000051F49FB7F8943C91822F809583238C936C
:10051000E8812E2BEFCF8FB7F894EC912E2B2C93F4
:100520008FBFEACF3FB7F8948091A0019091A101CD
:10053000A091A201B091A30126B5A89B05C02F3FB1
:1005400019F00196A11DB11D3FBFBA2FA92F982FF9
:100550008827BC01CD01620F711D811D911D42E0F4
:10056000660F771F881F991F4A95D1F708958F92BC
:100570009F92AF92BF92CF92DF92EF92FF924B0188
:100580005C010E9492026B017C010E9492026C1934
:100590007D098E099F09683E734081059105A8F386
:1005A00021E0821A9108A108B10888EEC80E83E004
:1005B000D81EE11CF11C81149104A104B10429F797
:1005C000FF90EF90DF90CF90BF90AF909F908F9073
:1005D00008952FB7F89460919C0170919D018091CE
:1005E0009E0190919F012FBF08958091F1019091FC
:1005F000F201982789279827449720910F0230E02D
:1006000044E0359527954A95E1F7220F331F220FD5
:10061000331F821B930B97FF02C090E080E0089588
:1006200020910502309103023093050220930302CA
:1006300020910602309104023093060220930402B6
:10064000E1EEF1E021A5820F911D25A585A7662386
:1006500081F021A7892F9927319721E0ED3DF207FD
:1006600089F7109213021092140280E580930F0212
:10067000089511A6EFCF0F931F93CF93DF9370E0F0
:100680006F517E4F8A01075F1F4F213029F02230C2
:1006900031F48A010250110930E020E003C000E08B
:1006A00010E09801EB01FA01E230F10558F0A99150
:1006B000B991BA27AB27BA270A0F1B1F211D311D7D
:1006C0003297F2CFFA01EE7F6E0F7F1F4E175F0752
:1006D00069F0FB01408150E070E060E0762F652F0B
:1006E000542F4427040F151F261F371FA901662703
:1006F0007727411551056105710519F02227332728
:10070000F1CF00951095E82FF0E0EF51FE4F1083E8
:100710000183DF91CF911F910F910895E1EEF1E0F8
:10072000108E118E80E4848B158A868B20E044E144
:1007300050E06EE088E10C943B038EBD0DB407FEE3
:10074000FDCF089561E08091A4010E942802789471
:100750000895F89460E08091A4010C9428020F930E
:100760001F93CF93DF93EC018B010E94A903209785
:10077000B9F08AE30E949D031EBCF801CE010197E7
:1007800039F00DB407FEFDCF2EB51EBC2193F7CF77
:100790002197C00FD11F0DB407FEFDCF8EB5888302
:1007A000DF91CF911F910F910C94A2031F93CF93D0
:1007B000DF93182FC62FD42F0E94A9038C2F8F717F
:1007C000812B0E949D038D2F0E949D03DF91CF916D
:1007D0001F910C94A203CF93C82FC07680919A01E9
:1007E0008C1799F043E06FE180EA0E94D603C09332
:1007F0009A014C2F50E085E0559547958A95E1F791
:100800006FE180E8CF910C94D603CF910895CF93F8
:10081000DF93C82FD62F0E94EB034D2F6C2F80E45F
:10082000DF91CF910C94D603CF93DF93C82FD72FAE
:100830000E9407046D2F81E08C0FDF91CF910C9403
:100840000704CF93C82F0E94EB030E94A9038C2FAB
:100850008F710E949D0380E00E949D03C7FF03C02B
:1008600080E00E949D03CEB50E94A2038C2FCF9101
:100870000895CF93DF93EC0140E86FE180E80E9498
:10088000D60340E86FE180EA0E94D6034AE06CE1BB
:1008900080EA0E94D60360E07CE082E00E941404BB
:1008A000BE01745F86E00E94140440E060E08AE7C5
:1008B0000E94D6030E94A9032097B1F08AE70E9404
:1008C0009D038091E1018EBDE2EEF1E0CF51DE4F5C
:1008D000EC17FD0731F081910DB407FEFDCF8EBD01
:1008E000F7CF0DB407FEFDCF0E94A20348E06FE1F1
:1008F00080E80E94D603D0E0C0E08CE10E94210491
:100900008A7029F42196C83E83E0D807B1F78CE1BC
:100910000E94210481FD03C0C83ED34039F448E061
:100920006FE180EADF91CF910C94D603DF91CF91F4
:1009300008950F931F93CF93DF93EC0101EE11E025
:100940004C96F801908B818B0E948E03CE01089605
:10095000F80196A387A3AE01405F5F4F21E06AE1F3
:1009600088E20E943B03CE018A96DF91CF911F91CE
:100970000F910C943904CF93DF93EB01682F84ED32
:100980000E940704BE0186ED0E9414048AEE0E94B4
:10099000210480FDFBCFDF91CF910895CF92DF92AC
:1009A000EF92FF920F931F938634910568F1209187
:1009B0000402233449F5C0900F02D0901002E09059
:1009C0001102F09012020091BA011091BB01209126
:1009D000BC013091BD01C016D106E206F306A1F4B8
:1009E000EBEFF2E08F519E4F9F012E5F3F4F418111
:1009F0005081553319F45281651771F0F901E40FF4
:100A0000F11DE817F90780F380E01F910F91FF9027
:100A1000EF90DF90CF90089581E0F7CFE0919801BB
:100A2000F09199019F012F5F3F4F309399012093DF
:100A3000980180830895FF920F931F93CF93DF93C4
:100A4000162FF42E052F0E940E05812F0E940E05F1
:100A5000CF2DD02F115020F089910E940E05FACF92
:100A6000DF91CF911F910F91FF900895FF920F9307
:100A70001F93CF93DF9301E311E0CAE0D0E0F801C8
:100A8000F1908F01CE010E948C0FF81621F06F2D8E
:100A9000CE010E94940F2196C331D10581F781E3E5
:100AA00091E0DF91CF911F910F91FF900895FC018C
:100AB00001900020E9F73197AF01481B590BBC01A9
:100AC0008FEF93E00C94C90082E591E00C945705F8
:100AD000CF93DF930E945705EC010E9464058C0FB1
:100AE0009D1FDF91CF910895DC0196E0FB010190FD
:100AF0000D929A95E1F70895CF93DF93EB0144E0CF
:100B000050E0BC018DEF91E00E94E40F892B49F485
:100B100067EF71E0CE010E94740581E0DF91CF9113
:100B2000089580E0FBCFBC0181EE91E00E94740546
:100B30006BEC71E087EE91E00C947405DC0194E0BD
:100B4000FB0101900D929A95E1F708950F931F9381
:100B5000CF938C018CE491E00E949305E1EEF1E0EB
:100B600088E08487C6E0C58748E050E06CE670E026
:100B70008FEE91E00E94830FE1E0F2E0DF011D9231
:100B8000CA95E9F76BEC71E087EF91E00E9474057C
:100B9000B80187E092E00E949E056BEF73E08DEF55
:100BA00091E00E949E058AE290E0CF911F910F9103
:100BB0000C94390487EE91E00E9493056BEF71E08D
:100BC0008FEF91E00E949E056BEF73E08BEF91E059
:100BD0000E949E050C948E03262F20612093100204
:100BE000643021F0009711F481E090E061E00E9410
:100BF00010031092F10188E28093F2010E94DA055D
:100C000084E0809311021092120222E04CE150E045
:100C10006AE182E30E943B0386E390E00C9439048E
:100C2000CF93DF93EB010E949305BE018FEF91E01C
:100C30000E949E056BEF73E08BEF91E0DF91CF9107
:100C40000C949E05EF92FF920F931F93CF93DF9327
:100C5000182F092FEB01F42EE52ECB010E94A900DD
:100C6000BE01882309F447C085ED91E00E9410067B
:100C70008881807F803E91F088819981AA81BB81A3
:100C80008F3F9F4FAF4FBF4F49F044E050E0BE0150
:100C900081ED91E00E94E40F892B31F46CE471E066
:100CA00081EE91E00E94740588E08093ED0110923E
:100CB000EE0149E050E063EF70E08FEE91E00E94BA
:100CC000830F1092F10181E18093F801E092050217
:100CD000F09206020093030210930402109207029E
:100CE0001092090210920A02DF91CF911F910F9189
:100CF000FF90EF9008958BED91E0B8CFEF92FF92C7
:100D00000F931F93CF938C01E1EEF1E086E191E028
:100D1000DF019C011D9221503040E1F78091CA0112
:100D20006CE471E0833011F465EB71E043E450E072
:100D300084E490E00E9422066CE471E081EE91E090
:100D40000E94740581E080930B0280930C0286E080
:100D500080930D028091BA019091BB01A091BC01DA
:100D6000B091BD0180930F0290931002A0931102E5
:100D7000B0931202C091CA01C33031F46BEF73E03B
:100D800087E192E00E949E056BEC71E087E292E0C1
:100D90000E94740587EF92E09093990180939801E7
:100DA000E8E6F0E084910E940E05E9E6F0E0849127
:100DB0000E940E05EAE6F0E084910E940E05EBE643
:100DC000F0E084910E940E0585E30E940E0581E00B
:100DD0000E940E0583E0C11101C081E00E940E0552
:100DE0008DE30E940E0587E00E940E0581E00E94BF
:100DF0000E058BECE82E81E0F82EC7E0C15031F0F3
:100E0000D7018D917D010E940E05F8CF80910001E0
:100E1000882371F060E071E0FB0101900020E9F7A8
:100E2000BF016150714040E051E08CE00E941B0521
:100E30000115110559F0A80164E082E30E941B0529
:100E400045EB51E064E086E30E941B0587E30E94C6
:100E50000E0583E00E940E0581E00E940E0583E0EE
:100E60000E940E0586E00E940E058FEF0E940E057F
:100E700080919801909199018B509240CF911F9150
:100E80000F91FF90EF900C9499041F920F920FB660
:100E90000F9211242F933F934F935F936F937F9300
:100EA0008F939F93AF93BF93EF93FF938FEF93E055
:100EB0000E944701FF91EF91BF91AF919F918F9158
:100EC0007F916F915F914F913F912F910F900FBE46
:100ED0000F901F9018951F920F920FB60F9211242A
:100EE0002F938F939F93EF93FF93E0910F04F091D3
:100EF00010048081E0911504F091160482FD1BC05E
:100F00009081809118048F5F8F732091190482174C
:100F100041F0E0911804F0E0E150FC4F958F809390
:100F20001804FF91EF919F918F912F910F900FBE19
:100F30000F901F9018958081F4CF1F920F920FB6DB
:100F40000F9211242F933F938F939F93AF93BF934F
:100F500080919C0190919D01A0919E01B0919F0173
:100F600030919B0123E0230F2D3758F50196A11DE9
:100F7000B11D20939B0180939C0190939D01A093B0
:100F80009E01B0939F018091A0019091A101A09139
:100F9000A201B091A3010196A11DB11D8093A001F2
:100FA0009093A101A093A201B093A301BF91AF912F
:100FB0009F918F913F912F910F900FBE0F901F9097
:100FC000189526E8230F0296A11DB11DD2CFCF930D
:100FD000DF93CDB7DEB7A3970FB6F894DEBF0FBE91
:100FE000CDBF789484B5826084BD84B5816084BDB2
:100FF00085B5826085BD85B5816085BD80916E00B7
:10100000816080936E0010928100809181008260E7
:101010008093810080918100816080938100809124
:1010200080008160809380008091B1008460809313
:10103000B1008091B00081608093B00080917A000F
:10104000846080937A0080917A00826080937A0035
:1010500080917A00816080937A0080917A00806824
:1010600080937A001092C100E0910F04F091100477
:1010700082E08083E0910B04F0910C041082E091F7
:101080000D04F0910E0483E3808310921704E09125
:101090001304F091140486E08083E0911104F09130
:1010A0001204808180618083E0911104F091120428
:1010B000808188608083E0911104F0911204808126
:1010C00080688083E0911104F091120480818F7D0B
:1010D000808368E873E180E090E00E94B7020E949C
:1010E000640585E591E00E9468050E94640590E032
:1010F00080E00E948C0F8093AC0181E090E00E9420
:101100008C0F8093AD018091AC019091AD01883B33
:101110009F4109F46BC090E080E00E948C0F883BF7
:1011200029F068EB90E080E00E94940F81E090E06D
:101130000E948C0F8F3129F06FE181E090E00E94D6
:10114000940F0E94360562E0809131010E945602A0
:1011500062E0809132010E94560262E08091330188
:101160000E94560262E0809134010E94560262E0C1
:10117000809135010E94560262E0809136010E9402
:10118000560262E0809137010E94560262E080912F
:1011900038010E94560262E0809139010E94560295
:1011A0008FE691E00E9468051092E90387E390E0E2
:1011B000C12CD12C7601C394009751F1FC0113E0AE
:1011C000F595E7951A95E1F7EB55FE4F282F277017
:1011D000B701A60104C0440F551F661F771F2A954B
:1011E000D2F72081242B20830197E6CF81E3E82EDC
:1011F00081E0F82E0AE010E0C8010E948C0FD701B0
:101200008D937D010F5F1F4F03311105A9F79BCF10
:1012100060E271E08BEC91E00E94740584EF91E054
:101220009093B1018093B0010CB406FC25C061E03D
:101230008AE00E94560261E08AE00E94280261E092
:101240008BE00E94560261E08DE00E94560260E051
:101250008CE00E94560261E08BE00E94280260E070
:101260008BE00E94280260E08DE00E94280280E569
:101270008CBD8DB581608DBD8AE08093A40161E055
:101280000E9456020E94A2034FEF60E08FEF0E947F
:10129000D60362E070E080E090E00E94B7020E9416
:1012A000A9038DE10E949D0380E00E949D031EB56D
:1012B0000E94A203112399F370E060E088E00E948D
:1012C000140470E060E08CE00E9414046FEF7BE097
:1012D0008AE00E94140460E07CE084E00E94140430
:1012E0006FEF71E186E00E94140466E774E084E128
:1012F0000E94BB0461EB88E30E9407046FE370E384
:1013000088E20E94140469EF77EF80E30E941404DE
:1013100061E080EC0E94070442E362EC80E80E94F6
:10132000D60362E17CE086EC0E94140462E184EC66
:101330000E9407046CED75E08AEC0E941404609131
:10134000CB0184EE0E9407046091CC0185EE0E94DF
:1013500007046091CD0182EE0E9407046091CE01E6
:1013600083EE0E9407046091CF0180EE0E94070483
:101370006091D00181EE0E94070460E071E080E19D
:101380000E94BB048FE10E94EB0340EC6BE180E81C
:101390000E94D60344E06FE180E80E94D60382E712
:1013A0000E942104863008F08F5F811110C00EEC7E
:1013B00010E0F8016491662341F08FEF93E00E9402
:1013C00069010F5F1F4F892BA1F70E94640584E517
:1013D00091E00E94680585E891E00E946805BAE006
:1013E0002B2E312C412C512C11E0F3E0BF2E04E0C8
:1013F000A0E6AA2E0E94E902C090F303D090F40365
:10140000E090F503F090F6036C197D098E099F09B1
:101410006B3F71058105910508F4E1C00E94E90266
:101420006093F3037093F4038093F5039093F603B2
:10143000809135010E94FF0121E0892B09F020E015
:101440002093EA03809136010E94FF0121E0892B5D
:1014500009F020E02093EB03809137010E94FF0107
:1014600021E0892B09F020E02093EC0380913801E2
:101470000E94FF0121E0892B09F020E02093ED0379
:10148000809139010E94FF0121E0892B09F020E0C1
:101490002093EE03809131010E94FF016C0181E0F5
:1014A000C114D10409F080E08093EF0380913201F0
:1014B0000E94FF017C0181E0E114F10409F080E069
:1014C0008093F003809133010E94FF014C0181E081
:1014D0008114910409F080E08093F103809134013C
:1014E0000E94FF01AC0181E04115510509F080E047
:1014F0008093F203EAEEF3E060E030E020E08191D7
:10150000882341F081E090E0022E01C0880F0A9408
:10151000EAF7682B2F5F3F4F2530310581F7609345
:101520002E0191E0CD2809F090E0EF2809F49260B7
:10153000892809F49460452B09F4986090932F0151
:101540004FE255E768E271E088E398E10E942206E5
:1015500085E0ECE2F1E0ABE0B2E001900D928A951B
:10156000E1F785E090E00E949904ECE28E2EE1E044
:101570009E2EF12CE12CD4012D914D0130E050E054
:1015800040E019A26E01B1E2CB0ED11CCA01B90133
:10159000A20191010E94A20F605DF60162936F01AA
:1015A000211531054105510589F7309719F0CF0113
:1015B0000E945705F4E0EF16F10421F085E991E06F
:1015C0000E9457052FEFE21AF20A85E0E816F104AF
:1015D00091F60E9464058FEF93E00E94B6018FEFB1
:1015E00093E00E942701181619060CF048C080915C
:1015F000AF01882309F485C18FEF93E00E94270192
:101600000997ECF11092AF018FEF93E00E94050172
:10161000809331018FEF93E00E94050180933201A6
:101620008FEF93E00E940501809333018FEF93E0E9
:101630000E940501809334018FEF93E00E94050121
:10164000809335018FEF93E00E940501809336016E
:101650008FEF93E00E940501809337018FEF93E0B5
:101660000E940501809338018FEF93E00E940501ED
:10167000809339010E943605F0E0E0E00995809101
:10168000B401882379F06091B2017091B3016115C2
:10169000710509F04BC16FEF7BE08CE00E941404F0
:1016A0001092B40189E30E942104F12CE12C8823DB
:1016B000D1F16091B2017091B30180E00E941404F5
:1016C000BE016F5F7F4F86E090E00E94AF0389818B
:1016D0009A819093B3018093B2018D819E817C01A8
:1016E00020E8E222FF2487FF13C08B819C810497AE
:1016F000E090B001F090B101A1E0EA1AF1088E1576
:101700009F0508F47C0161EE71E0C7010E94AF0300
:10171000F701EF51FE4F10821093B40140E46EE1E7
:1017200080E80E94D6038091E903882369F08091C4
:10173000CA01823009F403C108F0FBC0882309F410
:1017400084C1813009F4A1C1E114F10409F02EC271
:101750008091E803857029F18091E6039091E70379
:10176000892BF9F461E184ED0E94070461E082EDC8
:101770000E9407048AEE0E94210480FDFBCF60E0F6
:1017800082ED0E94070489ED0E94210482FF09C0B6
:1017900082EE93E00E94A6058091E8038860809322
:1017A000E8038091E6039091E70301969093E703A5
:1017B0008093E6038091E103813009F06DC0809150
:1017C000E80381FF69C082E08093E103F090270184
:1017D000F394F0922701BF2DBF71FB2E87ED93E0AC
:1017E0000E94A90067ED73E0882309F4DCC185ED50
:1017F00091E00E94100688E0E82EE092ED01109240
:10180000EE0149E050E063EF70E08FEE91E00E945E
:10181000830FECE2E093F20186E08093F8010E94EE
:101820008E0310920502109206028BE08093030251
:10183000F0920402E7E0F2E0DF011D92EA94E9F79A
:1018400080912601809309028D5F80932601A092EA
:101850000F0282E080931002B092110210921202E5
:101860001092130210921402109215021092160296
:1018700080931702009318028093190286E28093E6
:101880001A0222E040E250E06AE182E30E943B0358
:101890008AE390E00E9439048DED93E00E94A90054
:1018A000882371F08091DC0381110AC08091DB03F1
:1018B000811106C08DED93E00E94A6051093DB0315
:1018C00087ED93E00E94A900882371F08091D603F0
:1018D00081110AC08091D503811106C087ED93E084
:1018E0000E94A6051093D503A0E0B0E0AB2B09F44D
:1018F00081CD0E943301882309F477CD0E94000036
:1019000073CD8FEF93E00E9405018BA31AA29091F3
:10191000AE012AA13BA1292B8093AE0181E02337A0
:101920003F4709F080E08093AF01A9CE6150710973
:10193000B4CE833009F455C0843009F005CF65E09A
:10194000C7010E94CE04882309F4CAC08091B9015E
:10195000811108C088E30E942104682F6E7F88E30C
:101960000E9407046BE172E08BEF93E00E949E05FA
:10197000EBEFF2E0C7018F519E4F4C016F0192E0F7
:10198000C90ED11C61808081863009F4FBC008F04B
:10199000BEC0813009F4ECC0833009F4EFC0F60119
:1019A000E60DF11DE815F90548F30E94E902609380
:1019B000C2017093C3018093C4019093C5018091CB
:1019C000E203882359F01092E7031092E603109384
:1019D000E80362EE73E0CB010E949E05B092CA015B
:1019E000B3CE6090C6017090C7018090C8019090FE
:1019F000C901BFEF6B167B068B069B0609F4A4CECC
:101A00000E94E9022091C2013091C3014091C401BA
:101A10005091C501621B730B840B950B66157705FE
:101A20008805990508F490CE8BEF93E00E947E061E
:101A30000093CA010E94E9026093BE017093BF0146
:101A40008093C0019093C1017FCE0E94E902609310
:101A5000BA017093BB018093BC019093BD01EBEF81
:101A6000F3E0DF01202F1D922A95E9F790E080E056
:101A70000E947E0688E30E942104682F616088E34B
:101A80000E9407041093CA01D5CF62E0C7010E94EB
:101A9000CE04882329F16BE172E0CE0101960E9409
:101AA0009E05EBEFF2E0C7018F519E4FBF016E5FC5
:101AB0007F4F21813081363361F485EB91E00E94C4
:101AC0009E05CE0101960E947E0682E08093CA01A7
:101AD000B1CFFB01E20FF11DE817F90738F3F1CFA1
:101AE0000E94E9022091BE013091BF014091C001E6
:101AF0005091C101621B730B840B950B61317742CE
:101B00008105910508F420CE1092CA011DCE8A33BA
:101B100031F08F3F09F449CF833309F040CF109261
:101B2000C6011092C7011092C8011092C901F601B6
:101B3000C601049620E030E0A9016191542F432FA3
:101B4000322F2227260F311D411D511DE817F9079D
:101B5000A1F72F3FAFEF3A074A075A07B9F420938E
:101B6000C6013093C7014093C8015093C90117CFF4
:101B7000B60187EF93E00E949E0511CFB60182EE79
:101B800093E0F9CFB6018DED93E0F5CFA8EEB3E089
:101B90000E94C40F6093C6017093C7018093C8016F
:101BA0009093C901FCCE8BED91E023CEB9E2EB1608
:101BB000F10408F499CE8091ED01883009F094CEBB
:101BC0008091EE01863009F028C144E050E06BEFCF
:101BD00073E087E092E00E94E40F892B09F084CE45
:101BE0008091F601813029F587EE91E00E949305FE
:101BF0001092F50182E08093F60167EF71E081E0D9
:101C000092E00E9474056BEC71E087EF91E00E9416
:101C100074056DEF71E087E092E00E949E056BEF26
:101C200073E08DEF91E00E949E058AE290E00E94B1
:101C300039048091E80383FF0EC0F090F601E2E0E2
:101C4000FE1209C06BED71E082EE93E00E947C050C
:101C50008111F092E8038091DC03811110C0809122
:101C6000DB03882361F065ED71E08DED93E00E9468
:101C70007C05882321F01093DC031092DB03809114
:101C8000D603811131CE8091D503882309F42CCE5F
:101C900065ED71E087ED93E00E947C05882309F4EF
:101CA00023CE1093D6031092D5031ECEF6E3EF1683
:101CB000F10408F419CE863009F016CE80910502A1
:101CC0008B3009F05BC044E050E067ED73E08BEFD0
:101CD00091E00E94E40F892B09F006CEF0901002EB
:101CE00085E0F2FC43C00E94F5022091E10322301E
:101CF00081F52F2D20713F2D32713231F9F460E0E2
:101D000090E080E00E94EC0588E180931002B092A0
:101D1000E1031092F10188E28093F2010E948E03A8
:101D2000109213021092140222E04CE150E06AE19A
:101D300082E30E943B0386E390E0B5C01093E10389
:101D40000196222311F090E080E064E00E94EC050F
:101D5000CBCD253009F4C8CDF0FE0BC0233009F4FB
:101D6000C3CD69E001960E94EC0586E08093E10313
:101D7000BBCD60E0009709F4B7CDE8CF8111B4CDB9
:101D800080910602803509F0AFCDF0901002F1FE8F
:101D900037C01092F1012CE22093F2010E94DA0583
:101DA00082E18093100260E081E090E00E941003E5
:101DB0001092070210920802809126018093090276
:101DC00010920A028D5F8093260182E080931702B1
:101DD0000093180285E08093190210921A02A092D3
:101DE0000F028093110288E78093120222E040E202
:101DF00050E06AE182E30E943B038AE390E053C033
:101E0000F4FE72CD0E94F502892B09F06DCDF0FE33
:101E10006BCD60E090E080E099CFB9E2EB16F10481
:101E200009F462CD811160CD8091EF01853409F014
:101E30005BCD44E050E06BEF73E08FEF91E00E94E8
:101E4000E40F892BA9F044E050E061ED71E08FEFE1
:101E500091E00E94E40F892B59F044E050E06CE4DB
:101E600071E08FEF91E00E94E40F892B09F03CCDE7
:101E70008091F801813009F019CF809103028830F8
:101E800009F032CD0E94DA0510920302809105021A
:101E9000883F28F0909106029F5F90930602885F2A
:101EA00080930502C7010E9439041ECDEFEFF3E0D5
:101EB0001382128288EE93E0A0E0B0E084839583E1
:101EC000A683B7838EE391E09183808385EC90E0D5
:101ED0009587848784EC90E09787868780EC90E0F4
:101EE000918B808B81EC90E0938B828B82EC90E0E5
:101EF000958B848B86EC90E0978B868B118E128E5F
:101F0000138E148E0895FB01DC0102C005900D9222
:101F100041505040D8F70895F999FECF92BD81BD48
:101F2000F89A992780B50895262FF999FECF1FBA00
:101F300092BD81BD20BD0FB6F894FA9AF99A0FBEF2
:101F400001960895A1E21A2EAA1BBB1BFD010DC02C
:101F5000AA1FBB1FEE1FFF1FA217B307E407F50759
:101F600020F0A21BB30BE40BF50B661F771F881F35
:101F7000991F1A9469F760957095809590959B01CB
:101F8000AC01BD01CF0108950E94D50FA59F900D12
:101F9000B49F900DA49F800D911D11240895EE0F04
:101FA000FF1F0590F491E02D0994A29FB001B39F0B
:101FB000C001A39F700D811D1124911DB29F700D52
:101FC000811D1124911D0895FB01DC0104C08D9138
:101FD0000190801921F441505040C8F7881B990B9B
:061FE0000895F894FFCF04
:101FE60041726475696E6F2D454E4332386A3630DC
:101FF6002D3030000000000000000000000000004E
:102006007062212D31BC0A01C0A805FF6A7F00005D
:1020160000120906041305031110000000006901EF
:10202600C900F600B601270105011901FFFFFFFFF0
:10203600FFFF0D0A00535761726475696E6F2020A9
:102046003A202032322D4170722D32303232005316
:1020560074617274696E672045746865726E657422
:10206600202E2E2E0046696E6973686564205365BE
:082076007475702E002C0000AF
:00000001FF
